{
	"data": {
		"bytecode": {
			"linkReferences": {},
			"object": "608060405234801561001057600080fd5b506101e0806100206000396000f3fe608060405234801561001057600080fd5b506004361061002b5760003560e01c80639943d66914610030575b600080fd5b61004a600480360381019061004591906100e7565b610060565b604051610057919061012f565b60405180910390f35b6000806003836100709190610179565b1480610088575060006007836100869190610179565b145b80156100945750600a82135b156100a257600190506100a7565b600090505b919050565b600080fd5b6000819050919050565b6100c4816100b1565b81146100cf57600080fd5b50565b6000813590506100e1816100bb565b92915050565b6000602082840312156100fd576100fc6100ac565b5b600061010b848285016100d2565b91505092915050565b60008115159050919050565b61012981610114565b82525050565b60006020820190506101446000830184610120565b92915050565b7f4e487b7100000000000000000000000000000000000000000000000000000000600052601260045260246000fd5b6000610184826100b1565b915061018f836100b1565b92508261019f5761019e61014a565b5b82820790509291505056fea2646970667358221220b649b93a25585cdce6d3e3146a38fd70c5e69f5154ba4f7e9131a291c9d1c8f264736f6c634300080d0033",
			"opcodes": "PUSH1 0x80 PUSH1 0x40 MSTORE CALLVALUE DUP1 ISZERO PUSH2 0x10 JUMPI PUSH1 0x0 DUP1 REVERT JUMPDEST POP PUSH2 0x1E0 DUP1 PUSH2 0x20 PUSH1 0x0 CODECOPY PUSH1 0x0 RETURN INVALID PUSH1 0x80 PUSH1 0x40 MSTORE CALLVALUE DUP1 ISZERO PUSH2 0x10 JUMPI PUSH1 0x0 DUP1 REVERT JUMPDEST POP PUSH1 0x4 CALLDATASIZE LT PUSH2 0x2B JUMPI PUSH1 0x0 CALLDATALOAD PUSH1 0xE0 SHR DUP1 PUSH4 0x9943D669 EQ PUSH2 0x30 JUMPI JUMPDEST PUSH1 0x0 DUP1 REVERT JUMPDEST PUSH2 0x4A PUSH1 0x4 DUP1 CALLDATASIZE SUB DUP2 ADD SWAP1 PUSH2 0x45 SWAP2 SWAP1 PUSH2 0xE7 JUMP JUMPDEST PUSH2 0x60 JUMP JUMPDEST PUSH1 0x40 MLOAD PUSH2 0x57 SWAP2 SWAP1 PUSH2 0x12F JUMP JUMPDEST PUSH1 0x40 MLOAD DUP1 SWAP2 SUB SWAP1 RETURN JUMPDEST PUSH1 0x0 DUP1 PUSH1 0x3 DUP4 PUSH2 0x70 SWAP2 SWAP1 PUSH2 0x179 JUMP JUMPDEST EQ DUP1 PUSH2 0x88 JUMPI POP PUSH1 0x0 PUSH1 0x7 DUP4 PUSH2 0x86 SWAP2 SWAP1 PUSH2 0x179 JUMP JUMPDEST EQ JUMPDEST DUP1 ISZERO PUSH2 0x94 JUMPI POP PUSH1 0xA DUP3 SGT JUMPDEST ISZERO PUSH2 0xA2 JUMPI PUSH1 0x1 SWAP1 POP PUSH2 0xA7 JUMP JUMPDEST PUSH1 0x0 SWAP1 POP JUMPDEST SWAP2 SWAP1 POP JUMP JUMPDEST PUSH1 0x0 DUP1 REVERT JUMPDEST PUSH1 0x0 DUP2 SWAP1 POP SWAP2 SWAP1 POP JUMP JUMPDEST PUSH2 0xC4 DUP2 PUSH2 0xB1 JUMP JUMPDEST DUP2 EQ PUSH2 0xCF JUMPI PUSH1 0x0 DUP1 REVERT JUMPDEST POP JUMP JUMPDEST PUSH1 0x0 DUP2 CALLDATALOAD SWAP1 POP PUSH2 0xE1 DUP2 PUSH2 0xBB JUMP JUMPDEST SWAP3 SWAP2 POP POP JUMP JUMPDEST PUSH1 0x0 PUSH1 0x20 DUP3 DUP5 SUB SLT ISZERO PUSH2 0xFD JUMPI PUSH2 0xFC PUSH2 0xAC JUMP JUMPDEST JUMPDEST PUSH1 0x0 PUSH2 0x10B DUP5 DUP3 DUP6 ADD PUSH2 0xD2 JUMP JUMPDEST SWAP2 POP POP SWAP3 SWAP2 POP POP JUMP JUMPDEST PUSH1 0x0 DUP2 ISZERO ISZERO SWAP1 POP SWAP2 SWAP1 POP JUMP JUMPDEST PUSH2 0x129 DUP2 PUSH2 0x114 JUMP JUMPDEST DUP3 MSTORE POP POP JUMP JUMPDEST PUSH1 0x0 PUSH1 0x20 DUP3 ADD SWAP1 POP PUSH2 0x144 PUSH1 0x0 DUP4 ADD DUP5 PUSH2 0x120 JUMP JUMPDEST SWAP3 SWAP2 POP POP JUMP JUMPDEST PUSH32 0x4E487B7100000000000000000000000000000000000000000000000000000000 PUSH1 0x0 MSTORE PUSH1 0x12 PUSH1 0x4 MSTORE PUSH1 0x24 PUSH1 0x0 REVERT JUMPDEST PUSH1 0x0 PUSH2 0x184 DUP3 PUSH2 0xB1 JUMP JUMPDEST SWAP2 POP PUSH2 0x18F DUP4 PUSH2 0xB1 JUMP JUMPDEST SWAP3 POP DUP3 PUSH2 0x19F JUMPI PUSH2 0x19E PUSH2 0x14A JUMP JUMPDEST JUMPDEST DUP3 DUP3 SMOD SWAP1 POP SWAP3 SWAP2 POP POP JUMP INVALID LOG2 PUSH5 0x6970667358 0x22 SLT KECCAK256 0xB6 0x49 0xB9 GASPRICE 0x25 PC 0x5C 0xDC 0xE6 0xD3 0xE3 EQ PUSH11 0x38FD70C5E69F5154BA4F7E SWAP2 BALANCE LOG2 SWAP2 0xC9 0xD1 0xC8 CALLCODE PUSH5 0x736F6C6343 STOP ADDMOD 0xD STOP CALLER "
		},
		"gasEstimates": {
			"creation": {
				"codeDepositCost": "96000",
				"executionCost": "141",
				"totalCost": "96141"
			},
			"external": {
				"check(int256)": "infinite"
			}
		},
		"methodIdentifiers": {
			"check(int256)": "9943d669"
		}
	},
	"abi": [
		{
			"inputs": [
				{
					"internalType": "int256",
					"name": "_num",
					"type": "int256"
				}
			],
			"name": "check",
			"outputs": [
				{
					"internalType": "bool",
					"name": "",
					"type": "bool"
				}
			],
			"stateMutability": "pure",
			"type": "function"
		}
	]
}