{
	"contracts/W2Day4Vault.sol": {
		"vault": {
			"abi": [
				{
					"inputs": [],
					"stateMutability": "payable",
					"type": "constructor"
				},
				{
					"inputs": [],
					"name": "depositSomeMoney",
					"outputs": [
						{
							"internalType": "uint256",
							"name": "",
							"type": "uint256"
						}
					],
					"stateMutability": "payable",
					"type": "function"
				},
				{
					"inputs": [],
					"name": "getBalance",
					"outputs": [
						{
							"internalType": "uint256",
							"name": "",
							"type": "uint256"
						},
						{
							"internalType": "string",
							"name": "",
							"type": "string"
						}
					],
					"stateMutability": "view",
					"type": "function"
				},
				{
					"inputs": [
						{
							"internalType": "uint256",
							"name": "amount",
							"type": "uint256"
						}
					],
					"name": "takeOutWithCall",
					"outputs": [
						{
							"internalType": "bool",
							"name": "",
							"type": "bool"
						},
						{
							"internalType": "bytes",
							"name": "",
							"type": "bytes"
						}
					],
					"stateMutability": "nonpayable",
					"type": "function"
				},
				{
					"inputs": [
						{
							"internalType": "uint256",
							"name": "amount",
							"type": "uint256"
						}
					],
					"name": "takeOutWithSend",
					"outputs": [
						{
							"internalType": "bool",
							"name": "",
							"type": "bool"
						}
					],
					"stateMutability": "nonpayable",
					"type": "function"
				},
				{
					"inputs": [
						{
							"internalType": "uint256",
							"name": "amount",
							"type": "uint256"
						}
					],
					"name": "takeOutWithTransfer",
					"outputs": [],
					"stateMutability": "nonpayable",
					"type": "function"
				},
				{
					"stateMutability": "payable",
					"type": "receive"
				}
			],
			"devdoc": {
				"kind": "dev",
				"methods": {},
				"version": 1
			},
			"evm": {
				"assembly": "    /* \"contracts/W2Day4Vault.sol\":61:1266  contract vault {... */\n  mstore(0x40, 0x80)\n    /* \"contracts/W2Day4Vault.sol\":165:175  msg.sender */\n  caller\n    /* \"contracts/W2Day4Vault.sol\":147:154  creator */\n  0x00\n  dup1\n    /* \"contracts/W2Day4Vault.sol\":147:176  creator = payable(msg.sender) */\n  0x0100\n  exp\n  dup2\n  sload\n  dup2\n  0xffffffffffffffffffffffffffffffffffffffff\n  mul\n  not\n  and\n  swap1\n  dup4\n  0xffffffffffffffffffffffffffffffffffffffff\n  and\n  mul\n  or\n  swap1\n  sstore\n  pop\n    /* \"contracts/W2Day4Vault.sol\":61:1266  contract vault {... */\n  dataSize(sub_0)\n  dup1\n  dataOffset(sub_0)\n  0x00\n  codecopy\n  0x00\n  return\nstop\n\nsub_0: assembly {\n        /* \"contracts/W2Day4Vault.sol\":61:1266  contract vault {... */\n      mstore(0x40, 0x80)\n      jumpi(tag_1, lt(calldatasize, 0x04))\n      shr(0xe0, calldataload(0x00))\n      dup1\n      0x12065fe0\n      eq\n      tag_3\n      jumpi\n      dup1\n      0x2e671785\n      eq\n      tag_4\n      jumpi\n      dup1\n      0x99062aad\n      eq\n      tag_5\n      jumpi\n      dup1\n      0xd2933cd6\n      eq\n      tag_6\n      jumpi\n      dup1\n      0xf932ece8\n      eq\n      tag_7\n      jumpi\n      jump(tag_2)\n    tag_1:\n      jumpi(tag_2, calldatasize)\n      stop\n    tag_2:\n      0x00\n      dup1\n      revert\n        /* \"contracts/W2Day4Vault.sol\":455:584  function getBalance() external view returns(uint, string memory) {... */\n    tag_3:\n      callvalue\n      dup1\n      iszero\n      tag_10\n      jumpi\n      0x00\n      dup1\n      revert\n    tag_10:\n      pop\n      tag_11\n      tag_12\n      jump\t// in\n    tag_11:\n      mload(0x40)\n      tag_13\n      swap3\n      swap2\n      swap1\n      tag_14\n      jump\t// in\n    tag_13:\n      mload(0x40)\n      dup1\n      swap2\n      sub\n      swap1\n      return\n        /* \"contracts/W2Day4Vault.sol\":772:981  function takeOutWithSend(uint amount) public onlyOwner returns(bool) {... */\n    tag_4:\n      callvalue\n      dup1\n      iszero\n      tag_15\n      jumpi\n      0x00\n      dup1\n      revert\n    tag_15:\n      pop\n      tag_16\n      0x04\n      dup1\n      calldatasize\n      sub\n      dup2\n      add\n      swap1\n      tag_17\n      swap2\n      swap1\n      tag_18\n      jump\t// in\n    tag_17:\n      tag_19\n      jump\t// in\n    tag_16:\n      mload(0x40)\n      tag_20\n      swap2\n      swap1\n      tag_21\n      jump\t// in\n    tag_20:\n      mload(0x40)\n      dup1\n      swap2\n      sub\n      swap1\n      return\n        /* \"contracts/W2Day4Vault.sol\":592:764  function takeOutWithTransfer(uint amount) public onlyOwner {... */\n    tag_5:\n      callvalue\n      dup1\n      iszero\n      tag_22\n      jumpi\n      0x00\n      dup1\n      revert\n    tag_22:\n      pop\n      tag_23\n      0x04\n      dup1\n      calldatasize\n      sub\n      dup2\n      add\n      swap1\n      tag_24\n      swap2\n      swap1\n      tag_18\n      jump\t// in\n    tag_24:\n      tag_25\n      jump\t// in\n    tag_23:\n      stop\n        /* \"contracts/W2Day4Vault.sol\":989:1263  function takeOutWithCall(uint amount) public onlyOwner returns (bool, bytes memory) {... */\n    tag_6:\n      callvalue\n      dup1\n      iszero\n      tag_26\n      jumpi\n      0x00\n      dup1\n      revert\n    tag_26:\n      pop\n      tag_27\n      0x04\n      dup1\n      calldatasize\n      sub\n      dup2\n      add\n      swap1\n      tag_28\n      swap2\n      swap1\n      tag_18\n      jump\t// in\n    tag_28:\n      tag_29\n      jump\t// in\n    tag_27:\n      mload(0x40)\n      tag_30\n      swap3\n      swap2\n      swap1\n      tag_31\n      jump\t// in\n    tag_30:\n      mload(0x40)\n      dup1\n      swap2\n      sub\n      swap1\n      return\n        /* \"contracts/W2Day4Vault.sol\":355:447  function depositSomeMoney() public payable returns(uint) {... */\n    tag_7:\n      tag_32\n      tag_33\n      jump\t// in\n    tag_32:\n      mload(0x40)\n      tag_34\n      swap2\n      swap1\n      tag_35\n      jump\t// in\n    tag_34:\n      mload(0x40)\n      dup1\n      swap2\n      sub\n      swap1\n      return\n        /* \"contracts/W2Day4Vault.sol\":455:584  function getBalance() external view returns(uint, string memory) {... */\n    tag_12:\n        /* \"contracts/W2Day4Vault.sol\":499:503  uint */\n      0x00\n        /* \"contracts/W2Day4Vault.sol\":505:518  string memory */\n      0x60\n        /* \"contracts/W2Day4Vault.sol\":563:567  1e18 */\n      0x0de0b6b3a7640000\n        /* \"contracts/W2Day4Vault.sol\":539:560  address(this).balance */\n      selfbalance\n        /* \"contracts/W2Day4Vault.sol\":539:567  address(this).balance / 1e18 */\n      tag_37\n      swap2\n      swap1\n      tag_38\n      jump\t// in\n    tag_37:\n        /* \"contracts/W2Day4Vault.sol\":531:576  return (address(this).balance / 1e18, \" eth\") */\n      mload(0x40)\n      dup1\n      0x40\n      add\n      0x40\n      mstore\n      dup1\n      0x04\n      dup2\n      mstore\n      0x20\n      add\n      0x2065746800000000000000000000000000000000000000000000000000000000\n      dup2\n      mstore\n      pop\n      swap2\n      pop\n      swap2\n      pop\n        /* \"contracts/W2Day4Vault.sol\":455:584  function getBalance() external view returns(uint, string memory) {... */\n      swap1\n      swap2\n      jump\t// out\n        /* \"contracts/W2Day4Vault.sol\":772:981  function takeOutWithSend(uint amount) public onlyOwner returns(bool) {... */\n    tag_19:\n        /* \"contracts/W2Day4Vault.sol\":835:839  bool */\n      0x00\n        /* \"contracts/W2Day4Vault.sol\":244:254  msg.sender */\n      caller\n        /* \"contracts/W2Day4Vault.sol\":233:254  creator == msg.sender */\n      0xffffffffffffffffffffffffffffffffffffffff\n      and\n        /* \"contracts/W2Day4Vault.sol\":233:240  creator */\n      0x00\n      dup1\n      sload\n      swap1\n      0x0100\n      exp\n      swap1\n      div\n      0xffffffffffffffffffffffffffffffffffffffff\n      and\n        /* \"contracts/W2Day4Vault.sol\":233:254  creator == msg.sender */\n      0xffffffffffffffffffffffffffffffffffffffff\n      and\n      eq\n        /* \"contracts/W2Day4Vault.sol\":225:293  require(creator == msg.sender, \"I don't know you! That's my purse!\") */\n      tag_40\n      jumpi\n      mload(0x40)\n      0x08c379a000000000000000000000000000000000000000000000000000000000\n      dup2\n      mstore\n      0x04\n      add\n      tag_41\n      swap1\n      tag_42\n      jump\t// in\n    tag_41:\n      mload(0x40)\n      dup1\n      swap2\n      sub\n      swap1\n      revert\n    tag_40:\n        /* \"contracts/W2Day4Vault.sol\":852:872  address payable mine */\n      0x00\n        /* \"contracts/W2Day4Vault.sol\":883:893  msg.sender */\n      caller\n        /* \"contracts/W2Day4Vault.sol\":852:894  address payable mine = payable(msg.sender) */\n      swap1\n      pop\n        /* \"contracts/W2Day4Vault.sol\":905:919  bool tryToSend */\n      0x00\n        /* \"contracts/W2Day4Vault.sol\":922:926  mine */\n      dup2\n        /* \"contracts/W2Day4Vault.sol\":922:931  mine.send */\n      0xffffffffffffffffffffffffffffffffffffffff\n      and\n        /* \"contracts/W2Day4Vault.sol\":922:946  mine.send(amount * 1e18) */\n      0x08fc\n        /* \"contracts/W2Day4Vault.sol\":941:945  1e18 */\n      0x0de0b6b3a7640000\n        /* \"contracts/W2Day4Vault.sol\":932:938  amount */\n      dup7\n        /* \"contracts/W2Day4Vault.sol\":932:945  amount * 1e18 */\n      tag_44\n      swap2\n      swap1\n      tag_45\n      jump\t// in\n    tag_44:\n        /* \"contracts/W2Day4Vault.sol\":922:946  mine.send(amount * 1e18) */\n      swap1\n      dup2\n      iszero\n      mul\n      swap1\n      mload(0x40)\n      0x00\n      mload(0x40)\n      dup1\n      dup4\n      sub\n      dup2\n      dup6\n      dup9\n      dup9\n      call\n      swap4\n      pop\n      pop\n      pop\n      pop\n        /* \"contracts/W2Day4Vault.sol\":905:946  bool tryToSend = mine.send(amount * 1e18) */\n      swap1\n      pop\n        /* \"contracts/W2Day4Vault.sol\":964:973  tryToSend */\n      dup1\n        /* \"contracts/W2Day4Vault.sol\":957:973  return tryToSend */\n      swap3\n      pop\n      pop\n      pop\n        /* \"contracts/W2Day4Vault.sol\":772:981  function takeOutWithSend(uint amount) public onlyOwner returns(bool) {... */\n      swap2\n      swap1\n      pop\n      jump\t// out\n        /* \"contracts/W2Day4Vault.sol\":592:764  function takeOutWithTransfer(uint amount) public onlyOwner {... */\n    tag_25:\n        /* \"contracts/W2Day4Vault.sol\":244:254  msg.sender */\n      caller\n        /* \"contracts/W2Day4Vault.sol\":233:254  creator == msg.sender */\n      0xffffffffffffffffffffffffffffffffffffffff\n      and\n        /* \"contracts/W2Day4Vault.sol\":233:240  creator */\n      0x00\n      dup1\n      sload\n      swap1\n      0x0100\n      exp\n      swap1\n      div\n      0xffffffffffffffffffffffffffffffffffffffff\n      and\n        /* \"contracts/W2Day4Vault.sol\":233:254  creator == msg.sender */\n      0xffffffffffffffffffffffffffffffffffffffff\n      and\n      eq\n        /* \"contracts/W2Day4Vault.sol\":225:293  require(creator == msg.sender, \"I don't know you! That's my purse!\") */\n      tag_48\n      jumpi\n      mload(0x40)\n      0x08c379a000000000000000000000000000000000000000000000000000000000\n      dup2\n      mstore\n      0x04\n      add\n      tag_49\n      swap1\n      tag_42\n      jump\t// in\n    tag_49:\n      mload(0x40)\n      dup1\n      swap2\n      sub\n      swap1\n      revert\n    tag_48:\n        /* \"contracts/W2Day4Vault.sol\":662:682  address payable mine */\n      0x00\n        /* \"contracts/W2Day4Vault.sol\":693:703  msg.sender */\n      caller\n        /* \"contracts/W2Day4Vault.sol\":662:704  address payable mine = payable(msg.sender) */\n      swap1\n      pop\n        /* \"contracts/W2Day4Vault.sol\":715:719  mine */\n      dup1\n        /* \"contracts/W2Day4Vault.sol\":715:728  mine.transfer */\n      0xffffffffffffffffffffffffffffffffffffffff\n      and\n        /* \"contracts/W2Day4Vault.sol\":715:743  mine.transfer(amount * 1e18) */\n      0x08fc\n        /* \"contracts/W2Day4Vault.sol\":738:742  1e18 */\n      0x0de0b6b3a7640000\n        /* \"contracts/W2Day4Vault.sol\":729:735  amount */\n      dup5\n        /* \"contracts/W2Day4Vault.sol\":729:742  amount * 1e18 */\n      tag_51\n      swap2\n      swap1\n      tag_45\n      jump\t// in\n    tag_51:\n        /* \"contracts/W2Day4Vault.sol\":715:743  mine.transfer(amount * 1e18) */\n      swap1\n      dup2\n      iszero\n      mul\n      swap1\n      mload(0x40)\n      0x00\n      mload(0x40)\n      dup1\n      dup4\n      sub\n      dup2\n      dup6\n      dup9\n      dup9\n      call\n      swap4\n      pop\n      pop\n      pop\n      pop\n      iszero\n      dup1\n      iszero\n      tag_53\n      jumpi\n      returndatasize\n      0x00\n      dup1\n      returndatacopy\n      revert(0x00, returndatasize)\n    tag_53:\n      pop\n        /* \"contracts/W2Day4Vault.sol\":651:764  {... */\n      pop\n        /* \"contracts/W2Day4Vault.sol\":592:764  function takeOutWithTransfer(uint amount) public onlyOwner {... */\n      pop\n      jump\t// out\n        /* \"contracts/W2Day4Vault.sol\":989:1263  function takeOutWithCall(uint amount) public onlyOwner returns (bool, bytes memory) {... */\n    tag_29:\n        /* \"contracts/W2Day4Vault.sol\":1053:1057  bool */\n      0x00\n        /* \"contracts/W2Day4Vault.sol\":1059:1071  bytes memory */\n      0x60\n        /* \"contracts/W2Day4Vault.sol\":244:254  msg.sender */\n      caller\n        /* \"contracts/W2Day4Vault.sol\":233:254  creator == msg.sender */\n      0xffffffffffffffffffffffffffffffffffffffff\n      and\n        /* \"contracts/W2Day4Vault.sol\":233:240  creator */\n      0x00\n      dup1\n      sload\n      swap1\n      0x0100\n      exp\n      swap1\n      div\n      0xffffffffffffffffffffffffffffffffffffffff\n      and\n        /* \"contracts/W2Day4Vault.sol\":233:254  creator == msg.sender */\n      0xffffffffffffffffffffffffffffffffffffffff\n      and\n      eq\n        /* \"contracts/W2Day4Vault.sol\":225:293  require(creator == msg.sender, \"I don't know you! That's my purse!\") */\n      tag_55\n      jumpi\n      mload(0x40)\n      0x08c379a000000000000000000000000000000000000000000000000000000000\n      dup2\n      mstore\n      0x04\n      add\n      tag_56\n      swap1\n      tag_42\n      jump\t// in\n    tag_56:\n      mload(0x40)\n      dup1\n      swap2\n      sub\n      swap1\n      revert\n    tag_55:\n        /* \"contracts/W2Day4Vault.sol\":1084:1104  address payable mine */\n      0x00\n        /* \"contracts/W2Day4Vault.sol\":1115:1125  msg.sender */\n      caller\n        /* \"contracts/W2Day4Vault.sol\":1084:1126  address payable mine = payable(msg.sender) */\n      swap1\n      pop\n        /* \"contracts/W2Day4Vault.sol\":1138:1152  bool tryToSend */\n      0x00\n        /* \"contracts/W2Day4Vault.sol\":1154:1171  bytes memory data */\n      dup1\n        /* \"contracts/W2Day4Vault.sol\":1175:1179  mine */\n      dup3\n        /* \"contracts/W2Day4Vault.sol\":1175:1184  mine.call */\n      0xffffffffffffffffffffffffffffffffffffffff\n      and\n        /* \"contracts/W2Day4Vault.sol\":1201:1205  1e18 */\n      0x0de0b6b3a7640000\n        /* \"contracts/W2Day4Vault.sol\":1192:1198  amount */\n      dup8\n        /* \"contracts/W2Day4Vault.sol\":1192:1205  amount * 1e18 */\n      tag_58\n      swap2\n      swap1\n      tag_45\n      jump\t// in\n    tag_58:\n        /* \"contracts/W2Day4Vault.sol\":1212:1216  5000 */\n      0x1388\n        /* \"contracts/W2Day4Vault.sol\":1175:1221  mine.call{value: amount * 1e18, gas: 5000}(\"\") */\n      swap1\n      mload(0x40)\n      tag_59\n      swap1\n      tag_60\n      jump\t// in\n    tag_59:\n      0x00\n      mload(0x40)\n      dup1\n      dup4\n      sub\n      dup2\n      dup6\n      dup9\n      dup9\n      call\n      swap4\n      pop\n      pop\n      pop\n      pop\n      returndatasize\n      dup1\n      0x00\n      dup2\n      eq\n      tag_63\n      jumpi\n      mload(0x40)\n      swap2\n      pop\n      and(add(returndatasize, 0x3f), not(0x1f))\n      dup3\n      add\n      0x40\n      mstore\n      returndatasize\n      dup3\n      mstore\n      returndatasize\n      0x00\n      0x20\n      dup5\n      add\n      returndatacopy\n      jump(tag_62)\n    tag_63:\n      0x60\n      swap2\n      pop\n    tag_62:\n      pop\n        /* \"contracts/W2Day4Vault.sol\":1137:1221  (bool tryToSend, bytes memory data) = mine.call{value: amount * 1e18, gas: 5000}(\"\") */\n      swap2\n      pop\n      swap2\n      pop\n        /* \"contracts/W2Day4Vault.sol\":1239:1248  tryToSend */\n      dup2\n        /* \"contracts/W2Day4Vault.sol\":1250:1254  data */\n      dup2\n        /* \"contracts/W2Day4Vault.sol\":1232:1255  return(tryToSend, data) */\n      swap5\n      pop\n      swap5\n      pop\n      pop\n      pop\n      pop\n        /* \"contracts/W2Day4Vault.sol\":989:1263  function takeOutWithCall(uint amount) public onlyOwner returns (bool, bytes memory) {... */\n      swap2\n      pop\n      swap2\n      jump\t// out\n        /* \"contracts/W2Day4Vault.sol\":355:447  function depositSomeMoney() public payable returns(uint) {... */\n    tag_33:\n        /* \"contracts/W2Day4Vault.sol\":406:410  uint */\n      0x00\n        /* \"contracts/W2Day4Vault.sol\":430:439  msg.value */\n      callvalue\n        /* \"contracts/W2Day4Vault.sol\":423:439  return msg.value */\n      swap1\n      pop\n        /* \"contracts/W2Day4Vault.sol\":355:447  function depositSomeMoney() public payable returns(uint) {... */\n      swap1\n      jump\t// out\n        /* \"#utility.yul\":7:84   */\n    tag_65:\n        /* \"#utility.yul\":44:51   */\n      0x00\n        /* \"#utility.yul\":73:78   */\n      dup2\n        /* \"#utility.yul\":62:78   */\n      swap1\n      pop\n        /* \"#utility.yul\":7:84   */\n      swap2\n      swap1\n      pop\n      jump\t// out\n        /* \"#utility.yul\":90:208   */\n    tag_66:\n        /* \"#utility.yul\":177:201   */\n      tag_92\n        /* \"#utility.yul\":195:200   */\n      dup2\n        /* \"#utility.yul\":177:201   */\n      tag_65\n      jump\t// in\n    tag_92:\n        /* \"#utility.yul\":172:175   */\n      dup3\n        /* \"#utility.yul\":165:202   */\n      mstore\n        /* \"#utility.yul\":90:208   */\n      pop\n      pop\n      jump\t// out\n        /* \"#utility.yul\":214:313   */\n    tag_67:\n        /* \"#utility.yul\":266:272   */\n      0x00\n        /* \"#utility.yul\":300:305   */\n      dup2\n        /* \"#utility.yul\":294:306   */\n      mload\n        /* \"#utility.yul\":284:306   */\n      swap1\n      pop\n        /* \"#utility.yul\":214:313   */\n      swap2\n      swap1\n      pop\n      jump\t// out\n        /* \"#utility.yul\":319:488   */\n    tag_68:\n        /* \"#utility.yul\":403:414   */\n      0x00\n        /* \"#utility.yul\":437:443   */\n      dup3\n        /* \"#utility.yul\":432:435   */\n      dup3\n        /* \"#utility.yul\":425:444   */\n      mstore\n        /* \"#utility.yul\":477:481   */\n      0x20\n        /* \"#utility.yul\":472:475   */\n      dup3\n        /* \"#utility.yul\":468:482   */\n      add\n        /* \"#utility.yul\":453:482   */\n      swap1\n      pop\n        /* \"#utility.yul\":319:488   */\n      swap3\n      swap2\n      pop\n      pop\n      jump\t// out\n        /* \"#utility.yul\":494:801   */\n    tag_69:\n        /* \"#utility.yul\":562:563   */\n      0x00\n        /* \"#utility.yul\":572:685   */\n    tag_96:\n        /* \"#utility.yul\":586:592   */\n      dup4\n        /* \"#utility.yul\":583:584   */\n      dup2\n        /* \"#utility.yul\":580:593   */\n      lt\n        /* \"#utility.yul\":572:685   */\n      iszero\n      tag_98\n      jumpi\n        /* \"#utility.yul\":671:672   */\n      dup1\n        /* \"#utility.yul\":666:669   */\n      dup3\n        /* \"#utility.yul\":662:673   */\n      add\n        /* \"#utility.yul\":656:674   */\n      mload\n        /* \"#utility.yul\":652:653   */\n      dup2\n        /* \"#utility.yul\":647:650   */\n      dup5\n        /* \"#utility.yul\":643:654   */\n      add\n        /* \"#utility.yul\":636:675   */\n      mstore\n        /* \"#utility.yul\":608:610   */\n      0x20\n        /* \"#utility.yul\":605:606   */\n      dup2\n        /* \"#utility.yul\":601:611   */\n      add\n        /* \"#utility.yul\":596:611   */\n      swap1\n      pop\n        /* \"#utility.yul\":572:685   */\n      jump(tag_96)\n    tag_98:\n        /* \"#utility.yul\":703:709   */\n      dup4\n        /* \"#utility.yul\":700:701   */\n      dup2\n        /* \"#utility.yul\":697:710   */\n      gt\n        /* \"#utility.yul\":694:795   */\n      iszero\n      tag_99\n      jumpi\n        /* \"#utility.yul\":783:784   */\n      0x00\n        /* \"#utility.yul\":774:780   */\n      dup5\n        /* \"#utility.yul\":769:772   */\n      dup5\n        /* \"#utility.yul\":765:781   */\n      add\n        /* \"#utility.yul\":758:785   */\n      mstore\n        /* \"#utility.yul\":694:795   */\n    tag_99:\n        /* \"#utility.yul\":543:801   */\n      pop\n        /* \"#utility.yul\":494:801   */\n      pop\n      pop\n      pop\n      jump\t// out\n        /* \"#utility.yul\":807:909   */\n    tag_70:\n        /* \"#utility.yul\":848:854   */\n      0x00\n        /* \"#utility.yul\":899:901   */\n      0x1f\n        /* \"#utility.yul\":895:902   */\n      not\n        /* \"#utility.yul\":890:892   */\n      0x1f\n        /* \"#utility.yul\":883:888   */\n      dup4\n        /* \"#utility.yul\":879:893   */\n      add\n        /* \"#utility.yul\":875:903   */\n      and\n        /* \"#utility.yul\":865:903   */\n      swap1\n      pop\n        /* \"#utility.yul\":807:909   */\n      swap2\n      swap1\n      pop\n      jump\t// out\n        /* \"#utility.yul\":915:1279   */\n    tag_71:\n        /* \"#utility.yul\":1003:1006   */\n      0x00\n        /* \"#utility.yul\":1031:1070   */\n      tag_102\n        /* \"#utility.yul\":1064:1069   */\n      dup3\n        /* \"#utility.yul\":1031:1070   */\n      tag_67\n      jump\t// in\n    tag_102:\n        /* \"#utility.yul\":1086:1157   */\n      tag_103\n        /* \"#utility.yul\":1150:1156   */\n      dup2\n        /* \"#utility.yul\":1145:1148   */\n      dup6\n        /* \"#utility.yul\":1086:1157   */\n      tag_68\n      jump\t// in\n    tag_103:\n        /* \"#utility.yul\":1079:1157   */\n      swap4\n      pop\n        /* \"#utility.yul\":1166:1218   */\n      tag_104\n        /* \"#utility.yul\":1211:1217   */\n      dup2\n        /* \"#utility.yul\":1206:1209   */\n      dup6\n        /* \"#utility.yul\":1199:1203   */\n      0x20\n        /* \"#utility.yul\":1192:1197   */\n      dup7\n        /* \"#utility.yul\":1188:1204   */\n      add\n        /* \"#utility.yul\":1166:1218   */\n      tag_69\n      jump\t// in\n    tag_104:\n        /* \"#utility.yul\":1243:1272   */\n      tag_105\n        /* \"#utility.yul\":1265:1271   */\n      dup2\n        /* \"#utility.yul\":1243:1272   */\n      tag_70\n      jump\t// in\n    tag_105:\n        /* \"#utility.yul\":1238:1241   */\n      dup5\n        /* \"#utility.yul\":1234:1273   */\n      add\n        /* \"#utility.yul\":1227:1273   */\n      swap2\n      pop\n        /* \"#utility.yul\":1007:1279   */\n      pop\n        /* \"#utility.yul\":915:1279   */\n      swap3\n      swap2\n      pop\n      pop\n      jump\t// out\n        /* \"#utility.yul\":1285:1708   */\n    tag_14:\n        /* \"#utility.yul\":1426:1430   */\n      0x00\n        /* \"#utility.yul\":1464:1466   */\n      0x40\n        /* \"#utility.yul\":1453:1462   */\n      dup3\n        /* \"#utility.yul\":1449:1467   */\n      add\n        /* \"#utility.yul\":1441:1467   */\n      swap1\n      pop\n        /* \"#utility.yul\":1477:1548   */\n      tag_107\n        /* \"#utility.yul\":1545:1546   */\n      0x00\n        /* \"#utility.yul\":1534:1543   */\n      dup4\n        /* \"#utility.yul\":1530:1547   */\n      add\n        /* \"#utility.yul\":1521:1527   */\n      dup6\n        /* \"#utility.yul\":1477:1548   */\n      tag_66\n      jump\t// in\n    tag_107:\n        /* \"#utility.yul\":1595:1604   */\n      dup2\n        /* \"#utility.yul\":1589:1593   */\n      dup2\n        /* \"#utility.yul\":1585:1605   */\n      sub\n        /* \"#utility.yul\":1580:1582   */\n      0x20\n        /* \"#utility.yul\":1569:1578   */\n      dup4\n        /* \"#utility.yul\":1565:1583   */\n      add\n        /* \"#utility.yul\":1558:1606   */\n      mstore\n        /* \"#utility.yul\":1623:1701   */\n      tag_108\n        /* \"#utility.yul\":1696:1700   */\n      dup2\n        /* \"#utility.yul\":1687:1693   */\n      dup5\n        /* \"#utility.yul\":1623:1701   */\n      tag_71\n      jump\t// in\n    tag_108:\n        /* \"#utility.yul\":1615:1701   */\n      swap1\n      pop\n        /* \"#utility.yul\":1285:1708   */\n      swap4\n      swap3\n      pop\n      pop\n      pop\n      jump\t// out\n        /* \"#utility.yul\":1795:1912   */\n    tag_73:\n        /* \"#utility.yul\":1904:1905   */\n      0x00\n        /* \"#utility.yul\":1901:1902   */\n      dup1\n        /* \"#utility.yul\":1894:1906   */\n      revert\n        /* \"#utility.yul\":2041:2163   */\n    tag_75:\n        /* \"#utility.yul\":2114:2138   */\n      tag_113\n        /* \"#utility.yul\":2132:2137   */\n      dup2\n        /* \"#utility.yul\":2114:2138   */\n      tag_65\n      jump\t// in\n    tag_113:\n        /* \"#utility.yul\":2107:2112   */\n      dup2\n        /* \"#utility.yul\":2104:2139   */\n      eq\n        /* \"#utility.yul\":2094:2157   */\n      tag_114\n      jumpi\n        /* \"#utility.yul\":2153:2154   */\n      0x00\n        /* \"#utility.yul\":2150:2151   */\n      dup1\n        /* \"#utility.yul\":2143:2155   */\n      revert\n        /* \"#utility.yul\":2094:2157   */\n    tag_114:\n        /* \"#utility.yul\":2041:2163   */\n      pop\n      jump\t// out\n        /* \"#utility.yul\":2169:2308   */\n    tag_76:\n        /* \"#utility.yul\":2215:2220   */\n      0x00\n        /* \"#utility.yul\":2253:2259   */\n      dup2\n        /* \"#utility.yul\":2240:2260   */\n      calldataload\n        /* \"#utility.yul\":2231:2260   */\n      swap1\n      pop\n        /* \"#utility.yul\":2269:2302   */\n      tag_116\n        /* \"#utility.yul\":2296:2301   */\n      dup2\n        /* \"#utility.yul\":2269:2302   */\n      tag_75\n      jump\t// in\n    tag_116:\n        /* \"#utility.yul\":2169:2308   */\n      swap3\n      swap2\n      pop\n      pop\n      jump\t// out\n        /* \"#utility.yul\":2314:2643   */\n    tag_18:\n        /* \"#utility.yul\":2373:2379   */\n      0x00\n        /* \"#utility.yul\":2422:2424   */\n      0x20\n        /* \"#utility.yul\":2410:2419   */\n      dup3\n        /* \"#utility.yul\":2401:2408   */\n      dup5\n        /* \"#utility.yul\":2397:2420   */\n      sub\n        /* \"#utility.yul\":2393:2425   */\n      slt\n        /* \"#utility.yul\":2390:2509   */\n      iszero\n      tag_118\n      jumpi\n        /* \"#utility.yul\":2428:2507   */\n      tag_119\n      tag_73\n      jump\t// in\n    tag_119:\n        /* \"#utility.yul\":2390:2509   */\n    tag_118:\n        /* \"#utility.yul\":2548:2549   */\n      0x00\n        /* \"#utility.yul\":2573:2626   */\n      tag_120\n        /* \"#utility.yul\":2618:2625   */\n      dup5\n        /* \"#utility.yul\":2609:2615   */\n      dup3\n        /* \"#utility.yul\":2598:2607   */\n      dup6\n        /* \"#utility.yul\":2594:2616   */\n      add\n        /* \"#utility.yul\":2573:2626   */\n      tag_76\n      jump\t// in\n    tag_120:\n        /* \"#utility.yul\":2563:2626   */\n      swap2\n      pop\n        /* \"#utility.yul\":2519:2636   */\n      pop\n        /* \"#utility.yul\":2314:2643   */\n      swap3\n      swap2\n      pop\n      pop\n      jump\t// out\n        /* \"#utility.yul\":2649:2739   */\n    tag_77:\n        /* \"#utility.yul\":2683:2690   */\n      0x00\n        /* \"#utility.yul\":2726:2731   */\n      dup2\n        /* \"#utility.yul\":2719:2732   */\n      iszero\n        /* \"#utility.yul\":2712:2733   */\n      iszero\n        /* \"#utility.yul\":2701:2733   */\n      swap1\n      pop\n        /* \"#utility.yul\":2649:2739   */\n      swap2\n      swap1\n      pop\n      jump\t// out\n        /* \"#utility.yul\":2745:2854   */\n    tag_78:\n        /* \"#utility.yul\":2826:2847   */\n      tag_123\n        /* \"#utility.yul\":2841:2846   */\n      dup2\n        /* \"#utility.yul\":2826:2847   */\n      tag_77\n      jump\t// in\n    tag_123:\n        /* \"#utility.yul\":2821:2824   */\n      dup3\n        /* \"#utility.yul\":2814:2848   */\n      mstore\n        /* \"#utility.yul\":2745:2854   */\n      pop\n      pop\n      jump\t// out\n        /* \"#utility.yul\":2860:3070   */\n    tag_21:\n        /* \"#utility.yul\":2947:2951   */\n      0x00\n        /* \"#utility.yul\":2985:2987   */\n      0x20\n        /* \"#utility.yul\":2974:2983   */\n      dup3\n        /* \"#utility.yul\":2970:2988   */\n      add\n        /* \"#utility.yul\":2962:2988   */\n      swap1\n      pop\n        /* \"#utility.yul\":2998:3063   */\n      tag_125\n        /* \"#utility.yul\":3060:3061   */\n      0x00\n        /* \"#utility.yul\":3049:3058   */\n      dup4\n        /* \"#utility.yul\":3045:3062   */\n      add\n        /* \"#utility.yul\":3036:3042   */\n      dup5\n        /* \"#utility.yul\":2998:3063   */\n      tag_78\n      jump\t// in\n    tag_125:\n        /* \"#utility.yul\":2860:3070   */\n      swap3\n      swap2\n      pop\n      pop\n      jump\t// out\n        /* \"#utility.yul\":3076:3174   */\n    tag_79:\n        /* \"#utility.yul\":3127:3133   */\n      0x00\n        /* \"#utility.yul\":3161:3166   */\n      dup2\n        /* \"#utility.yul\":3155:3167   */\n      mload\n        /* \"#utility.yul\":3145:3167   */\n      swap1\n      pop\n        /* \"#utility.yul\":3076:3174   */\n      swap2\n      swap1\n      pop\n      jump\t// out\n        /* \"#utility.yul\":3180:3348   */\n    tag_80:\n        /* \"#utility.yul\":3263:3274   */\n      0x00\n        /* \"#utility.yul\":3297:3303   */\n      dup3\n        /* \"#utility.yul\":3292:3295   */\n      dup3\n        /* \"#utility.yul\":3285:3304   */\n      mstore\n        /* \"#utility.yul\":3337:3341   */\n      0x20\n        /* \"#utility.yul\":3332:3335   */\n      dup3\n        /* \"#utility.yul\":3328:3342   */\n      add\n        /* \"#utility.yul\":3313:3342   */\n      swap1\n      pop\n        /* \"#utility.yul\":3180:3348   */\n      swap3\n      swap2\n      pop\n      pop\n      jump\t// out\n        /* \"#utility.yul\":3354:3714   */\n    tag_81:\n        /* \"#utility.yul\":3440:3443   */\n      0x00\n        /* \"#utility.yul\":3468:3506   */\n      tag_129\n        /* \"#utility.yul\":3500:3505   */\n      dup3\n        /* \"#utility.yul\":3468:3506   */\n      tag_79\n      jump\t// in\n    tag_129:\n        /* \"#utility.yul\":3522:3592   */\n      tag_130\n        /* \"#utility.yul\":3585:3591   */\n      dup2\n        /* \"#utility.yul\":3580:3583   */\n      dup6\n        /* \"#utility.yul\":3522:3592   */\n      tag_80\n      jump\t// in\n    tag_130:\n        /* \"#utility.yul\":3515:3592   */\n      swap4\n      pop\n        /* \"#utility.yul\":3601:3653   */\n      tag_131\n        /* \"#utility.yul\":3646:3652   */\n      dup2\n        /* \"#utility.yul\":3641:3644   */\n      dup6\n        /* \"#utility.yul\":3634:3638   */\n      0x20\n        /* \"#utility.yul\":3627:3632   */\n      dup7\n        /* \"#utility.yul\":3623:3639   */\n      add\n        /* \"#utility.yul\":3601:3653   */\n      tag_69\n      jump\t// in\n    tag_131:\n        /* \"#utility.yul\":3678:3707   */\n      tag_132\n        /* \"#utility.yul\":3700:3706   */\n      dup2\n        /* \"#utility.yul\":3678:3707   */\n      tag_70\n      jump\t// in\n    tag_132:\n        /* \"#utility.yul\":3673:3676   */\n      dup5\n        /* \"#utility.yul\":3669:3708   */\n      add\n        /* \"#utility.yul\":3662:3708   */\n      swap2\n      pop\n        /* \"#utility.yul\":3444:3714   */\n      pop\n        /* \"#utility.yul\":3354:3714   */\n      swap3\n      swap2\n      pop\n      pop\n      jump\t// out\n        /* \"#utility.yul\":3720:4127   */\n    tag_31:\n        /* \"#utility.yul\":3853:3857   */\n      0x00\n        /* \"#utility.yul\":3891:3893   */\n      0x40\n        /* \"#utility.yul\":3880:3889   */\n      dup3\n        /* \"#utility.yul\":3876:3894   */\n      add\n        /* \"#utility.yul\":3868:3894   */\n      swap1\n      pop\n        /* \"#utility.yul\":3904:3969   */\n      tag_134\n        /* \"#utility.yul\":3966:3967   */\n      0x00\n        /* \"#utility.yul\":3955:3964   */\n      dup4\n        /* \"#utility.yul\":3951:3968   */\n      add\n        /* \"#utility.yul\":3942:3948   */\n      dup6\n        /* \"#utility.yul\":3904:3969   */\n      tag_78\n      jump\t// in\n    tag_134:\n        /* \"#utility.yul\":4016:4025   */\n      dup2\n        /* \"#utility.yul\":4010:4014   */\n      dup2\n        /* \"#utility.yul\":4006:4026   */\n      sub\n        /* \"#utility.yul\":4001:4003   */\n      0x20\n        /* \"#utility.yul\":3990:3999   */\n      dup4\n        /* \"#utility.yul\":3986:4004   */\n      add\n        /* \"#utility.yul\":3979:4027   */\n      mstore\n        /* \"#utility.yul\":4044:4120   */\n      tag_135\n        /* \"#utility.yul\":4115:4119   */\n      dup2\n        /* \"#utility.yul\":4106:4112   */\n      dup5\n        /* \"#utility.yul\":4044:4120   */\n      tag_81\n      jump\t// in\n    tag_135:\n        /* \"#utility.yul\":4036:4120   */\n      swap1\n      pop\n        /* \"#utility.yul\":3720:4127   */\n      swap4\n      swap3\n      pop\n      pop\n      pop\n      jump\t// out\n        /* \"#utility.yul\":4133:4355   */\n    tag_35:\n        /* \"#utility.yul\":4226:4230   */\n      0x00\n        /* \"#utility.yul\":4264:4266   */\n      0x20\n        /* \"#utility.yul\":4253:4262   */\n      dup3\n        /* \"#utility.yul\":4249:4267   */\n      add\n        /* \"#utility.yul\":4241:4267   */\n      swap1\n      pop\n        /* \"#utility.yul\":4277:4348   */\n      tag_137\n        /* \"#utility.yul\":4345:4346   */\n      0x00\n        /* \"#utility.yul\":4334:4343   */\n      dup4\n        /* \"#utility.yul\":4330:4347   */\n      add\n        /* \"#utility.yul\":4321:4327   */\n      dup5\n        /* \"#utility.yul\":4277:4348   */\n      tag_66\n      jump\t// in\n    tag_137:\n        /* \"#utility.yul\":4133:4355   */\n      swap3\n      swap2\n      pop\n      pop\n      jump\t// out\n        /* \"#utility.yul\":4361:4541   */\n    tag_82:\n        /* \"#utility.yul\":4409:4486   */\n      0x4e487b7100000000000000000000000000000000000000000000000000000000\n        /* \"#utility.yul\":4406:4407   */\n      0x00\n        /* \"#utility.yul\":4399:4487   */\n      mstore\n        /* \"#utility.yul\":4506:4510   */\n      0x12\n        /* \"#utility.yul\":4503:4504   */\n      0x04\n        /* \"#utility.yul\":4496:4511   */\n      mstore\n        /* \"#utility.yul\":4530:4534   */\n      0x24\n        /* \"#utility.yul\":4527:4528   */\n      0x00\n        /* \"#utility.yul\":4520:4535   */\n      revert\n        /* \"#utility.yul\":4547:4727   */\n    tag_83:\n        /* \"#utility.yul\":4595:4672   */\n      0x4e487b7100000000000000000000000000000000000000000000000000000000\n        /* \"#utility.yul\":4592:4593   */\n      0x00\n        /* \"#utility.yul\":4585:4673   */\n      mstore\n        /* \"#utility.yul\":4692:4696   */\n      0x11\n        /* \"#utility.yul\":4689:4690   */\n      0x04\n        /* \"#utility.yul\":4682:4697   */\n      mstore\n        /* \"#utility.yul\":4716:4720   */\n      0x24\n        /* \"#utility.yul\":4713:4714   */\n      0x00\n        /* \"#utility.yul\":4706:4721   */\n      revert\n        /* \"#utility.yul\":4733:4918   */\n    tag_38:\n        /* \"#utility.yul\":4773:4774   */\n      0x00\n        /* \"#utility.yul\":4790:4810   */\n      tag_141\n        /* \"#utility.yul\":4808:4809   */\n      dup3\n        /* \"#utility.yul\":4790:4810   */\n      tag_65\n      jump\t// in\n    tag_141:\n        /* \"#utility.yul\":4785:4810   */\n      swap2\n      pop\n        /* \"#utility.yul\":4824:4844   */\n      tag_142\n        /* \"#utility.yul\":4842:4843   */\n      dup4\n        /* \"#utility.yul\":4824:4844   */\n      tag_65\n      jump\t// in\n    tag_142:\n        /* \"#utility.yul\":4819:4844   */\n      swap3\n      pop\n        /* \"#utility.yul\":4863:4864   */\n      dup3\n        /* \"#utility.yul\":4853:4888   */\n      tag_143\n      jumpi\n        /* \"#utility.yul\":4868:4886   */\n      tag_144\n      tag_82\n      jump\t// in\n    tag_144:\n        /* \"#utility.yul\":4853:4888   */\n    tag_143:\n        /* \"#utility.yul\":4910:4911   */\n      dup3\n        /* \"#utility.yul\":4907:4908   */\n      dup3\n        /* \"#utility.yul\":4903:4912   */\n      div\n        /* \"#utility.yul\":4898:4912   */\n      swap1\n      pop\n        /* \"#utility.yul\":4733:4918   */\n      swap3\n      swap2\n      pop\n      pop\n      jump\t// out\n        /* \"#utility.yul\":4924:5145   */\n    tag_84:\n        /* \"#utility.yul\":5064:5098   */\n      0x4920646f6e2774206b6e6f7720796f752120546861742773206d792070757273\n        /* \"#utility.yul\":5060:5061   */\n      0x00\n        /* \"#utility.yul\":5052:5058   */\n      dup3\n        /* \"#utility.yul\":5048:5062   */\n      add\n        /* \"#utility.yul\":5041:5099   */\n      mstore\n        /* \"#utility.yul\":5133:5137   */\n      0x6521000000000000000000000000000000000000000000000000000000000000\n        /* \"#utility.yul\":5128:5130   */\n      0x20\n        /* \"#utility.yul\":5120:5126   */\n      dup3\n        /* \"#utility.yul\":5116:5131   */\n      add\n        /* \"#utility.yul\":5109:5138   */\n      mstore\n        /* \"#utility.yul\":4924:5145   */\n      pop\n      jump\t// out\n        /* \"#utility.yul\":5151:5517   */\n    tag_85:\n        /* \"#utility.yul\":5293:5296   */\n      0x00\n        /* \"#utility.yul\":5314:5381   */\n      tag_147\n        /* \"#utility.yul\":5378:5380   */\n      0x22\n        /* \"#utility.yul\":5373:5376   */\n      dup4\n        /* \"#utility.yul\":5314:5381   */\n      tag_68\n      jump\t// in\n    tag_147:\n        /* \"#utility.yul\":5307:5381   */\n      swap2\n      pop\n        /* \"#utility.yul\":5390:5483   */\n      tag_148\n        /* \"#utility.yul\":5479:5482   */\n      dup3\n        /* \"#utility.yul\":5390:5483   */\n      tag_84\n      jump\t// in\n    tag_148:\n        /* \"#utility.yul\":5508:5510   */\n      0x40\n        /* \"#utility.yul\":5503:5506   */\n      dup3\n        /* \"#utility.yul\":5499:5511   */\n      add\n        /* \"#utility.yul\":5492:5511   */\n      swap1\n      pop\n        /* \"#utility.yul\":5151:5517   */\n      swap2\n      swap1\n      pop\n      jump\t// out\n        /* \"#utility.yul\":5523:5942   */\n    tag_42:\n        /* \"#utility.yul\":5689:5693   */\n      0x00\n        /* \"#utility.yul\":5727:5729   */\n      0x20\n        /* \"#utility.yul\":5716:5725   */\n      dup3\n        /* \"#utility.yul\":5712:5730   */\n      add\n        /* \"#utility.yul\":5704:5730   */\n      swap1\n      pop\n        /* \"#utility.yul\":5776:5785   */\n      dup2\n        /* \"#utility.yul\":5770:5774   */\n      dup2\n        /* \"#utility.yul\":5766:5786   */\n      sub\n        /* \"#utility.yul\":5762:5763   */\n      0x00\n        /* \"#utility.yul\":5751:5760   */\n      dup4\n        /* \"#utility.yul\":5747:5764   */\n      add\n        /* \"#utility.yul\":5740:5787   */\n      mstore\n        /* \"#utility.yul\":5804:5935   */\n      tag_150\n        /* \"#utility.yul\":5930:5934   */\n      dup2\n        /* \"#utility.yul\":5804:5935   */\n      tag_85\n      jump\t// in\n    tag_150:\n        /* \"#utility.yul\":5796:5935   */\n      swap1\n      pop\n        /* \"#utility.yul\":5523:5942   */\n      swap2\n      swap1\n      pop\n      jump\t// out\n        /* \"#utility.yul\":5948:6296   */\n    tag_45:\n        /* \"#utility.yul\":5988:5995   */\n      0x00\n        /* \"#utility.yul\":6011:6031   */\n      tag_152\n        /* \"#utility.yul\":6029:6030   */\n      dup3\n        /* \"#utility.yul\":6011:6031   */\n      tag_65\n      jump\t// in\n    tag_152:\n        /* \"#utility.yul\":6006:6031   */\n      swap2\n      pop\n        /* \"#utility.yul\":6045:6065   */\n      tag_153\n        /* \"#utility.yul\":6063:6064   */\n      dup4\n        /* \"#utility.yul\":6045:6065   */\n      tag_65\n      jump\t// in\n    tag_153:\n        /* \"#utility.yul\":6040:6065   */\n      swap3\n      pop\n        /* \"#utility.yul\":6233:6234   */\n      dup2\n        /* \"#utility.yul\":6165:6231   */\n      0xffffffffffffffffffffffffffffffffffffffffffffffffffffffffffffffff\n        /* \"#utility.yul\":6161:6235   */\n      div\n        /* \"#utility.yul\":6158:6159   */\n      dup4\n        /* \"#utility.yul\":6155:6236   */\n      gt\n        /* \"#utility.yul\":6150:6151   */\n      dup3\n        /* \"#utility.yul\":6143:6152   */\n      iszero\n        /* \"#utility.yul\":6136:6153   */\n      iszero\n        /* \"#utility.yul\":6132:6237   */\n      and\n        /* \"#utility.yul\":6129:6260   */\n      iszero\n      tag_154\n      jumpi\n        /* \"#utility.yul\":6240:6258   */\n      tag_155\n      tag_83\n      jump\t// in\n    tag_155:\n        /* \"#utility.yul\":6129:6260   */\n    tag_154:\n        /* \"#utility.yul\":6288:6289   */\n      dup3\n        /* \"#utility.yul\":6285:6286   */\n      dup3\n        /* \"#utility.yul\":6281:6290   */\n      mul\n        /* \"#utility.yul\":6270:6290   */\n      swap1\n      pop\n        /* \"#utility.yul\":5948:6296   */\n      swap3\n      swap2\n      pop\n      pop\n      jump\t// out\n        /* \"#utility.yul\":6302:6449   */\n    tag_86:\n        /* \"#utility.yul\":6403:6414   */\n      0x00\n        /* \"#utility.yul\":6440:6443   */\n      dup2\n        /* \"#utility.yul\":6425:6443   */\n      swap1\n      pop\n        /* \"#utility.yul\":6302:6449   */\n      swap3\n      swap2\n      pop\n      pop\n      jump\t// out\n        /* \"#utility.yul\":6455:6569   */\n    tag_87:\n      pop\n      jump\t// out\n        /* \"#utility.yul\":6575:6973   */\n    tag_88:\n        /* \"#utility.yul\":6734:6737   */\n      0x00\n        /* \"#utility.yul\":6755:6838   */\n      tag_159\n        /* \"#utility.yul\":6836:6837   */\n      0x00\n        /* \"#utility.yul\":6831:6834   */\n      dup4\n        /* \"#utility.yul\":6755:6838   */\n      tag_86\n      jump\t// in\n    tag_159:\n        /* \"#utility.yul\":6748:6838   */\n      swap2\n      pop\n        /* \"#utility.yul\":6847:6940   */\n      tag_160\n        /* \"#utility.yul\":6936:6939   */\n      dup3\n        /* \"#utility.yul\":6847:6940   */\n      tag_87\n      jump\t// in\n    tag_160:\n        /* \"#utility.yul\":6965:6966   */\n      0x00\n        /* \"#utility.yul\":6960:6963   */\n      dup3\n        /* \"#utility.yul\":6956:6967   */\n      add\n        /* \"#utility.yul\":6949:6967   */\n      swap1\n      pop\n        /* \"#utility.yul\":6575:6973   */\n      swap2\n      swap1\n      pop\n      jump\t// out\n        /* \"#utility.yul\":6979:7358   */\n    tag_60:\n        /* \"#utility.yul\":7163:7166   */\n      0x00\n        /* \"#utility.yul\":7185:7332   */\n      tag_162\n        /* \"#utility.yul\":7328:7331   */\n      dup3\n        /* \"#utility.yul\":7185:7332   */\n      tag_88\n      jump\t// in\n    tag_162:\n        /* \"#utility.yul\":7178:7332   */\n      swap2\n      pop\n        /* \"#utility.yul\":7349:7352   */\n      dup2\n        /* \"#utility.yul\":7342:7352   */\n      swap1\n      pop\n        /* \"#utility.yul\":6979:7358   */\n      swap2\n      swap1\n      pop\n      jump\t// out\n\n    auxdata: 0xa2646970667358221220b3d1b61fe145b7be7a5b470f48064461d322a2b882a3f39c450ff062438ba79164736f6c634300080d0033\n}\n",
				"bytecode": {
					"linkReferences": {},
					"object": "6080604052336000806101000a81548173ffffffffffffffffffffffffffffffffffffffff021916908373ffffffffffffffffffffffffffffffffffffffff1602179055506108ba806100536000396000f3fe60806040526004361061004e5760003560e01c806312065fe01461005a5780632e6717851461008657806399062aad146100c3578063d2933cd6146100ec578063f932ece81461012a57610055565b3661005557005b600080fd5b34801561006657600080fd5b5061006f610148565b60405161007d92919061055f565b60405180910390f35b34801561009257600080fd5b506100ad60048036038101906100a891906105c0565b61019e565b6040516100ba9190610608565b60405180910390f35b3480156100cf57600080fd5b506100ea60048036038101906100e591906105c0565b610289565b005b3480156100f857600080fd5b50610113600480360381019061010e91906105c0565b61037a565b604051610121929190610678565b60405180910390f35b6101326104a5565b60405161013f91906106a8565b60405180910390f35b60006060670de0b6b3a7640000476101609190610721565b6040518060400160405280600481526020017f2065746800000000000000000000000000000000000000000000000000000000815250915091509091565b60003373ffffffffffffffffffffffffffffffffffffffff1660008054906101000a900473ffffffffffffffffffffffffffffffffffffffff1673ffffffffffffffffffffffffffffffffffffffff161461022e576040517f08c379a0000000000000000000000000000000000000000000000000000000008152600401610225906107c4565b60405180910390fd5b600033905060008173ffffffffffffffffffffffffffffffffffffffff166108fc670de0b6b3a76400008661026391906107e4565b9081150290604051600060405180830381858888f1935050505090508092505050919050565b3373ffffffffffffffffffffffffffffffffffffffff1660008054906101000a900473ffffffffffffffffffffffffffffffffffffffff1673ffffffffffffffffffffffffffffffffffffffff1614610317576040517f08c379a000000000000000000000000000000000000000000000000000000000815260040161030e906107c4565b60405180910390fd5b60003390508073ffffffffffffffffffffffffffffffffffffffff166108fc670de0b6b3a76400008461034a91906107e4565b9081150290604051600060405180830381858888f19350505050158015610375573d6000803e3d6000fd5b505050565b600060603373ffffffffffffffffffffffffffffffffffffffff1660008054906101000a900473ffffffffffffffffffffffffffffffffffffffff1673ffffffffffffffffffffffffffffffffffffffff161461040c576040517f08c379a0000000000000000000000000000000000000000000000000000000008152600401610403906107c4565b60405180910390fd5b60003390506000808273ffffffffffffffffffffffffffffffffffffffff16670de0b6b3a76400008761043f91906107e4565b6113889060405161044f9061086f565b600060405180830381858888f193505050503d806000811461048d576040519150601f19603f3d011682016040523d82523d6000602084013e610492565b606091505b5091509150818194509450505050915091565b600034905090565b6000819050919050565b6104c0816104ad565b82525050565b600081519050919050565b600082825260208201905092915050565b60005b838110156105005780820151818401526020810190506104e5565b8381111561050f576000848401525b50505050565b6000601f19601f8301169050919050565b6000610531826104c6565b61053b81856104d1565b935061054b8185602086016104e2565b61055481610515565b840191505092915050565b600060408201905061057460008301856104b7565b81810360208301526105868184610526565b90509392505050565b600080fd5b61059d816104ad565b81146105a857600080fd5b50565b6000813590506105ba81610594565b92915050565b6000602082840312156105d6576105d561058f565b5b60006105e4848285016105ab565b91505092915050565b60008115159050919050565b610602816105ed565b82525050565b600060208201905061061d60008301846105f9565b92915050565b600081519050919050565b600082825260208201905092915050565b600061064a82610623565b610654818561062e565b93506106648185602086016104e2565b61066d81610515565b840191505092915050565b600060408201905061068d60008301856105f9565b818103602083015261069f818461063f565b90509392505050565b60006020820190506106bd60008301846104b7565b92915050565b7f4e487b7100000000000000000000000000000000000000000000000000000000600052601260045260246000fd5b7f4e487b7100000000000000000000000000000000000000000000000000000000600052601160045260246000fd5b600061072c826104ad565b9150610737836104ad565b925082610747576107466106c3565b5b828204905092915050565b7f4920646f6e2774206b6e6f7720796f752120546861742773206d79207075727360008201527f6521000000000000000000000000000000000000000000000000000000000000602082015250565b60006107ae6022836104d1565b91506107b982610752565b604082019050919050565b600060208201905081810360008301526107dd816107a1565b9050919050565b60006107ef826104ad565b91506107fa836104ad565b9250817fffffffffffffffffffffffffffffffffffffffffffffffffffffffffffffffff0483118215151615610833576108326106f2565b5b828202905092915050565b600081905092915050565b50565b600061085960008361083e565b915061086482610849565b600082019050919050565b600061087a8261084c565b915081905091905056fea2646970667358221220b3d1b61fe145b7be7a5b470f48064461d322a2b882a3f39c450ff062438ba79164736f6c634300080d0033",
					"opcodes": "PUSH1 0x80 PUSH1 0x40 MSTORE CALLER PUSH1 0x0 DUP1 PUSH2 0x100 EXP DUP2 SLOAD DUP2 PUSH20 0xFFFFFFFFFFFFFFFFFFFFFFFFFFFFFFFFFFFFFFFF MUL NOT AND SWAP1 DUP4 PUSH20 0xFFFFFFFFFFFFFFFFFFFFFFFFFFFFFFFFFFFFFFFF AND MUL OR SWAP1 SSTORE POP PUSH2 0x8BA DUP1 PUSH2 0x53 PUSH1 0x0 CODECOPY PUSH1 0x0 RETURN INVALID PUSH1 0x80 PUSH1 0x40 MSTORE PUSH1 0x4 CALLDATASIZE LT PUSH2 0x4E JUMPI PUSH1 0x0 CALLDATALOAD PUSH1 0xE0 SHR DUP1 PUSH4 0x12065FE0 EQ PUSH2 0x5A JUMPI DUP1 PUSH4 0x2E671785 EQ PUSH2 0x86 JUMPI DUP1 PUSH4 0x99062AAD EQ PUSH2 0xC3 JUMPI DUP1 PUSH4 0xD2933CD6 EQ PUSH2 0xEC JUMPI DUP1 PUSH4 0xF932ECE8 EQ PUSH2 0x12A JUMPI PUSH2 0x55 JUMP JUMPDEST CALLDATASIZE PUSH2 0x55 JUMPI STOP JUMPDEST PUSH1 0x0 DUP1 REVERT JUMPDEST CALLVALUE DUP1 ISZERO PUSH2 0x66 JUMPI PUSH1 0x0 DUP1 REVERT JUMPDEST POP PUSH2 0x6F PUSH2 0x148 JUMP JUMPDEST PUSH1 0x40 MLOAD PUSH2 0x7D SWAP3 SWAP2 SWAP1 PUSH2 0x55F JUMP JUMPDEST PUSH1 0x40 MLOAD DUP1 SWAP2 SUB SWAP1 RETURN JUMPDEST CALLVALUE DUP1 ISZERO PUSH2 0x92 JUMPI PUSH1 0x0 DUP1 REVERT JUMPDEST POP PUSH2 0xAD PUSH1 0x4 DUP1 CALLDATASIZE SUB DUP2 ADD SWAP1 PUSH2 0xA8 SWAP2 SWAP1 PUSH2 0x5C0 JUMP JUMPDEST PUSH2 0x19E JUMP JUMPDEST PUSH1 0x40 MLOAD PUSH2 0xBA SWAP2 SWAP1 PUSH2 0x608 JUMP JUMPDEST PUSH1 0x40 MLOAD DUP1 SWAP2 SUB SWAP1 RETURN JUMPDEST CALLVALUE DUP1 ISZERO PUSH2 0xCF JUMPI PUSH1 0x0 DUP1 REVERT JUMPDEST POP PUSH2 0xEA PUSH1 0x4 DUP1 CALLDATASIZE SUB DUP2 ADD SWAP1 PUSH2 0xE5 SWAP2 SWAP1 PUSH2 0x5C0 JUMP JUMPDEST PUSH2 0x289 JUMP JUMPDEST STOP JUMPDEST CALLVALUE DUP1 ISZERO PUSH2 0xF8 JUMPI PUSH1 0x0 DUP1 REVERT JUMPDEST POP PUSH2 0x113 PUSH1 0x4 DUP1 CALLDATASIZE SUB DUP2 ADD SWAP1 PUSH2 0x10E SWAP2 SWAP1 PUSH2 0x5C0 JUMP JUMPDEST PUSH2 0x37A JUMP JUMPDEST PUSH1 0x40 MLOAD PUSH2 0x121 SWAP3 SWAP2 SWAP1 PUSH2 0x678 JUMP JUMPDEST PUSH1 0x40 MLOAD DUP1 SWAP2 SUB SWAP1 RETURN JUMPDEST PUSH2 0x132 PUSH2 0x4A5 JUMP JUMPDEST PUSH1 0x40 MLOAD PUSH2 0x13F SWAP2 SWAP1 PUSH2 0x6A8 JUMP JUMPDEST PUSH1 0x40 MLOAD DUP1 SWAP2 SUB SWAP1 RETURN JUMPDEST PUSH1 0x0 PUSH1 0x60 PUSH8 0xDE0B6B3A7640000 SELFBALANCE PUSH2 0x160 SWAP2 SWAP1 PUSH2 0x721 JUMP JUMPDEST PUSH1 0x40 MLOAD DUP1 PUSH1 0x40 ADD PUSH1 0x40 MSTORE DUP1 PUSH1 0x4 DUP2 MSTORE PUSH1 0x20 ADD PUSH32 0x2065746800000000000000000000000000000000000000000000000000000000 DUP2 MSTORE POP SWAP2 POP SWAP2 POP SWAP1 SWAP2 JUMP JUMPDEST PUSH1 0x0 CALLER PUSH20 0xFFFFFFFFFFFFFFFFFFFFFFFFFFFFFFFFFFFFFFFF AND PUSH1 0x0 DUP1 SLOAD SWAP1 PUSH2 0x100 EXP SWAP1 DIV PUSH20 0xFFFFFFFFFFFFFFFFFFFFFFFFFFFFFFFFFFFFFFFF AND PUSH20 0xFFFFFFFFFFFFFFFFFFFFFFFFFFFFFFFFFFFFFFFF AND EQ PUSH2 0x22E JUMPI PUSH1 0x40 MLOAD PUSH32 0x8C379A000000000000000000000000000000000000000000000000000000000 DUP2 MSTORE PUSH1 0x4 ADD PUSH2 0x225 SWAP1 PUSH2 0x7C4 JUMP JUMPDEST PUSH1 0x40 MLOAD DUP1 SWAP2 SUB SWAP1 REVERT JUMPDEST PUSH1 0x0 CALLER SWAP1 POP PUSH1 0x0 DUP2 PUSH20 0xFFFFFFFFFFFFFFFFFFFFFFFFFFFFFFFFFFFFFFFF AND PUSH2 0x8FC PUSH8 0xDE0B6B3A7640000 DUP7 PUSH2 0x263 SWAP2 SWAP1 PUSH2 0x7E4 JUMP JUMPDEST SWAP1 DUP2 ISZERO MUL SWAP1 PUSH1 0x40 MLOAD PUSH1 0x0 PUSH1 0x40 MLOAD DUP1 DUP4 SUB DUP2 DUP6 DUP9 DUP9 CALL SWAP4 POP POP POP POP SWAP1 POP DUP1 SWAP3 POP POP POP SWAP2 SWAP1 POP JUMP JUMPDEST CALLER PUSH20 0xFFFFFFFFFFFFFFFFFFFFFFFFFFFFFFFFFFFFFFFF AND PUSH1 0x0 DUP1 SLOAD SWAP1 PUSH2 0x100 EXP SWAP1 DIV PUSH20 0xFFFFFFFFFFFFFFFFFFFFFFFFFFFFFFFFFFFFFFFF AND PUSH20 0xFFFFFFFFFFFFFFFFFFFFFFFFFFFFFFFFFFFFFFFF AND EQ PUSH2 0x317 JUMPI PUSH1 0x40 MLOAD PUSH32 0x8C379A000000000000000000000000000000000000000000000000000000000 DUP2 MSTORE PUSH1 0x4 ADD PUSH2 0x30E SWAP1 PUSH2 0x7C4 JUMP JUMPDEST PUSH1 0x40 MLOAD DUP1 SWAP2 SUB SWAP1 REVERT JUMPDEST PUSH1 0x0 CALLER SWAP1 POP DUP1 PUSH20 0xFFFFFFFFFFFFFFFFFFFFFFFFFFFFFFFFFFFFFFFF AND PUSH2 0x8FC PUSH8 0xDE0B6B3A7640000 DUP5 PUSH2 0x34A SWAP2 SWAP1 PUSH2 0x7E4 JUMP JUMPDEST SWAP1 DUP2 ISZERO MUL SWAP1 PUSH1 0x40 MLOAD PUSH1 0x0 PUSH1 0x40 MLOAD DUP1 DUP4 SUB DUP2 DUP6 DUP9 DUP9 CALL SWAP4 POP POP POP POP ISZERO DUP1 ISZERO PUSH2 0x375 JUMPI RETURNDATASIZE PUSH1 0x0 DUP1 RETURNDATACOPY RETURNDATASIZE PUSH1 0x0 REVERT JUMPDEST POP POP POP JUMP JUMPDEST PUSH1 0x0 PUSH1 0x60 CALLER PUSH20 0xFFFFFFFFFFFFFFFFFFFFFFFFFFFFFFFFFFFFFFFF AND PUSH1 0x0 DUP1 SLOAD SWAP1 PUSH2 0x100 EXP SWAP1 DIV PUSH20 0xFFFFFFFFFFFFFFFFFFFFFFFFFFFFFFFFFFFFFFFF AND PUSH20 0xFFFFFFFFFFFFFFFFFFFFFFFFFFFFFFFFFFFFFFFF AND EQ PUSH2 0x40C JUMPI PUSH1 0x40 MLOAD PUSH32 0x8C379A000000000000000000000000000000000000000000000000000000000 DUP2 MSTORE PUSH1 0x4 ADD PUSH2 0x403 SWAP1 PUSH2 0x7C4 JUMP JUMPDEST PUSH1 0x40 MLOAD DUP1 SWAP2 SUB SWAP1 REVERT JUMPDEST PUSH1 0x0 CALLER SWAP1 POP PUSH1 0x0 DUP1 DUP3 PUSH20 0xFFFFFFFFFFFFFFFFFFFFFFFFFFFFFFFFFFFFFFFF AND PUSH8 0xDE0B6B3A7640000 DUP8 PUSH2 0x43F SWAP2 SWAP1 PUSH2 0x7E4 JUMP JUMPDEST PUSH2 0x1388 SWAP1 PUSH1 0x40 MLOAD PUSH2 0x44F SWAP1 PUSH2 0x86F JUMP JUMPDEST PUSH1 0x0 PUSH1 0x40 MLOAD DUP1 DUP4 SUB DUP2 DUP6 DUP9 DUP9 CALL SWAP4 POP POP POP POP RETURNDATASIZE DUP1 PUSH1 0x0 DUP2 EQ PUSH2 0x48D JUMPI PUSH1 0x40 MLOAD SWAP2 POP PUSH1 0x1F NOT PUSH1 0x3F RETURNDATASIZE ADD AND DUP3 ADD PUSH1 0x40 MSTORE RETURNDATASIZE DUP3 MSTORE RETURNDATASIZE PUSH1 0x0 PUSH1 0x20 DUP5 ADD RETURNDATACOPY PUSH2 0x492 JUMP JUMPDEST PUSH1 0x60 SWAP2 POP JUMPDEST POP SWAP2 POP SWAP2 POP DUP2 DUP2 SWAP5 POP SWAP5 POP POP POP POP SWAP2 POP SWAP2 JUMP JUMPDEST PUSH1 0x0 CALLVALUE SWAP1 POP SWAP1 JUMP JUMPDEST PUSH1 0x0 DUP2 SWAP1 POP SWAP2 SWAP1 POP JUMP JUMPDEST PUSH2 0x4C0 DUP2 PUSH2 0x4AD JUMP JUMPDEST DUP3 MSTORE POP POP JUMP JUMPDEST PUSH1 0x0 DUP2 MLOAD SWAP1 POP SWAP2 SWAP1 POP JUMP JUMPDEST PUSH1 0x0 DUP3 DUP3 MSTORE PUSH1 0x20 DUP3 ADD SWAP1 POP SWAP3 SWAP2 POP POP JUMP JUMPDEST PUSH1 0x0 JUMPDEST DUP4 DUP2 LT ISZERO PUSH2 0x500 JUMPI DUP1 DUP3 ADD MLOAD DUP2 DUP5 ADD MSTORE PUSH1 0x20 DUP2 ADD SWAP1 POP PUSH2 0x4E5 JUMP JUMPDEST DUP4 DUP2 GT ISZERO PUSH2 0x50F JUMPI PUSH1 0x0 DUP5 DUP5 ADD MSTORE JUMPDEST POP POP POP POP JUMP JUMPDEST PUSH1 0x0 PUSH1 0x1F NOT PUSH1 0x1F DUP4 ADD AND SWAP1 POP SWAP2 SWAP1 POP JUMP JUMPDEST PUSH1 0x0 PUSH2 0x531 DUP3 PUSH2 0x4C6 JUMP JUMPDEST PUSH2 0x53B DUP2 DUP6 PUSH2 0x4D1 JUMP JUMPDEST SWAP4 POP PUSH2 0x54B DUP2 DUP6 PUSH1 0x20 DUP7 ADD PUSH2 0x4E2 JUMP JUMPDEST PUSH2 0x554 DUP2 PUSH2 0x515 JUMP JUMPDEST DUP5 ADD SWAP2 POP POP SWAP3 SWAP2 POP POP JUMP JUMPDEST PUSH1 0x0 PUSH1 0x40 DUP3 ADD SWAP1 POP PUSH2 0x574 PUSH1 0x0 DUP4 ADD DUP6 PUSH2 0x4B7 JUMP JUMPDEST DUP2 DUP2 SUB PUSH1 0x20 DUP4 ADD MSTORE PUSH2 0x586 DUP2 DUP5 PUSH2 0x526 JUMP JUMPDEST SWAP1 POP SWAP4 SWAP3 POP POP POP JUMP JUMPDEST PUSH1 0x0 DUP1 REVERT JUMPDEST PUSH2 0x59D DUP2 PUSH2 0x4AD JUMP JUMPDEST DUP2 EQ PUSH2 0x5A8 JUMPI PUSH1 0x0 DUP1 REVERT JUMPDEST POP JUMP JUMPDEST PUSH1 0x0 DUP2 CALLDATALOAD SWAP1 POP PUSH2 0x5BA DUP2 PUSH2 0x594 JUMP JUMPDEST SWAP3 SWAP2 POP POP JUMP JUMPDEST PUSH1 0x0 PUSH1 0x20 DUP3 DUP5 SUB SLT ISZERO PUSH2 0x5D6 JUMPI PUSH2 0x5D5 PUSH2 0x58F JUMP JUMPDEST JUMPDEST PUSH1 0x0 PUSH2 0x5E4 DUP5 DUP3 DUP6 ADD PUSH2 0x5AB JUMP JUMPDEST SWAP2 POP POP SWAP3 SWAP2 POP POP JUMP JUMPDEST PUSH1 0x0 DUP2 ISZERO ISZERO SWAP1 POP SWAP2 SWAP1 POP JUMP JUMPDEST PUSH2 0x602 DUP2 PUSH2 0x5ED JUMP JUMPDEST DUP3 MSTORE POP POP JUMP JUMPDEST PUSH1 0x0 PUSH1 0x20 DUP3 ADD SWAP1 POP PUSH2 0x61D PUSH1 0x0 DUP4 ADD DUP5 PUSH2 0x5F9 JUMP JUMPDEST SWAP3 SWAP2 POP POP JUMP JUMPDEST PUSH1 0x0 DUP2 MLOAD SWAP1 POP SWAP2 SWAP1 POP JUMP JUMPDEST PUSH1 0x0 DUP3 DUP3 MSTORE PUSH1 0x20 DUP3 ADD SWAP1 POP SWAP3 SWAP2 POP POP JUMP JUMPDEST PUSH1 0x0 PUSH2 0x64A DUP3 PUSH2 0x623 JUMP JUMPDEST PUSH2 0x654 DUP2 DUP6 PUSH2 0x62E JUMP JUMPDEST SWAP4 POP PUSH2 0x664 DUP2 DUP6 PUSH1 0x20 DUP7 ADD PUSH2 0x4E2 JUMP JUMPDEST PUSH2 0x66D DUP2 PUSH2 0x515 JUMP JUMPDEST DUP5 ADD SWAP2 POP POP SWAP3 SWAP2 POP POP JUMP JUMPDEST PUSH1 0x0 PUSH1 0x40 DUP3 ADD SWAP1 POP PUSH2 0x68D PUSH1 0x0 DUP4 ADD DUP6 PUSH2 0x5F9 JUMP JUMPDEST DUP2 DUP2 SUB PUSH1 0x20 DUP4 ADD MSTORE PUSH2 0x69F DUP2 DUP5 PUSH2 0x63F JUMP JUMPDEST SWAP1 POP SWAP4 SWAP3 POP POP POP JUMP JUMPDEST PUSH1 0x0 PUSH1 0x20 DUP3 ADD SWAP1 POP PUSH2 0x6BD PUSH1 0x0 DUP4 ADD DUP5 PUSH2 0x4B7 JUMP JUMPDEST SWAP3 SWAP2 POP POP JUMP JUMPDEST PUSH32 0x4E487B7100000000000000000000000000000000000000000000000000000000 PUSH1 0x0 MSTORE PUSH1 0x12 PUSH1 0x4 MSTORE PUSH1 0x24 PUSH1 0x0 REVERT JUMPDEST PUSH32 0x4E487B7100000000000000000000000000000000000000000000000000000000 PUSH1 0x0 MSTORE PUSH1 0x11 PUSH1 0x4 MSTORE PUSH1 0x24 PUSH1 0x0 REVERT JUMPDEST PUSH1 0x0 PUSH2 0x72C DUP3 PUSH2 0x4AD JUMP JUMPDEST SWAP2 POP PUSH2 0x737 DUP4 PUSH2 0x4AD JUMP JUMPDEST SWAP3 POP DUP3 PUSH2 0x747 JUMPI PUSH2 0x746 PUSH2 0x6C3 JUMP JUMPDEST JUMPDEST DUP3 DUP3 DIV SWAP1 POP SWAP3 SWAP2 POP POP JUMP JUMPDEST PUSH32 0x4920646F6E2774206B6E6F7720796F752120546861742773206D792070757273 PUSH1 0x0 DUP3 ADD MSTORE PUSH32 0x6521000000000000000000000000000000000000000000000000000000000000 PUSH1 0x20 DUP3 ADD MSTORE POP JUMP JUMPDEST PUSH1 0x0 PUSH2 0x7AE PUSH1 0x22 DUP4 PUSH2 0x4D1 JUMP JUMPDEST SWAP2 POP PUSH2 0x7B9 DUP3 PUSH2 0x752 JUMP JUMPDEST PUSH1 0x40 DUP3 ADD SWAP1 POP SWAP2 SWAP1 POP JUMP JUMPDEST PUSH1 0x0 PUSH1 0x20 DUP3 ADD SWAP1 POP DUP2 DUP2 SUB PUSH1 0x0 DUP4 ADD MSTORE PUSH2 0x7DD DUP2 PUSH2 0x7A1 JUMP JUMPDEST SWAP1 POP SWAP2 SWAP1 POP JUMP JUMPDEST PUSH1 0x0 PUSH2 0x7EF DUP3 PUSH2 0x4AD JUMP JUMPDEST SWAP2 POP PUSH2 0x7FA DUP4 PUSH2 0x4AD JUMP JUMPDEST SWAP3 POP DUP2 PUSH32 0xFFFFFFFFFFFFFFFFFFFFFFFFFFFFFFFFFFFFFFFFFFFFFFFFFFFFFFFFFFFFFFFF DIV DUP4 GT DUP3 ISZERO ISZERO AND ISZERO PUSH2 0x833 JUMPI PUSH2 0x832 PUSH2 0x6F2 JUMP JUMPDEST JUMPDEST DUP3 DUP3 MUL SWAP1 POP SWAP3 SWAP2 POP POP JUMP JUMPDEST PUSH1 0x0 DUP2 SWAP1 POP SWAP3 SWAP2 POP POP JUMP JUMPDEST POP JUMP JUMPDEST PUSH1 0x0 PUSH2 0x859 PUSH1 0x0 DUP4 PUSH2 0x83E JUMP JUMPDEST SWAP2 POP PUSH2 0x864 DUP3 PUSH2 0x849 JUMP JUMPDEST PUSH1 0x0 DUP3 ADD SWAP1 POP SWAP2 SWAP1 POP JUMP JUMPDEST PUSH1 0x0 PUSH2 0x87A DUP3 PUSH2 0x84C JUMP JUMPDEST SWAP2 POP DUP2 SWAP1 POP SWAP2 SWAP1 POP JUMP INVALID LOG2 PUSH5 0x6970667358 0x22 SLT KECCAK256 0xB3 0xD1 0xB6 0x1F 0xE1 GASLIMIT 0xB7 0xBE PUSH27 0x5B470F48064461D322A2B882A3F39C450FF062438BA79164736F6C PUSH4 0x4300080D STOP CALLER "
				},
				"gasEstimates": {
					"creation": {
						"codeDepositCost": "446800",
						"executionCost": "24722",
						"totalCost": "471522"
					},
					"external": {
						"depositSomeMoney()": "378",
						"getBalance()": "infinite",
						"takeOutWithCall(uint256)": "infinite",
						"takeOutWithSend(uint256)": "infinite",
						"takeOutWithTransfer(uint256)": "infinite"
					}
				},
				"methodIdentifiers": {
					"depositSomeMoney()": "f932ece8",
					"getBalance()": "12065fe0",
					"takeOutWithCall(uint256)": "d2933cd6",
					"takeOutWithSend(uint256)": "2e671785",
					"takeOutWithTransfer(uint256)": "99062aad"
				}
			},
			"storageLayout": {
				"storage": [
					{
						"astId": 3,
						"contract": "contracts/W2Day4Vault.sol:vault",
						"label": "creator",
						"offset": 0,
						"slot": "0",
						"type": "t_address_payable"
					}
				],
				"types": {
					"t_address_payable": {
						"encoding": "inplace",
						"label": "address payable",
						"numberOfBytes": "20"
					}
				}
			},
			"userdoc": {
				"kind": "user",
				"methods": {},
				"version": 1
			}
		}
	}
}