{
	"contracts/Week2Day4.sol": {
		"Week2Day4": {
			"abi": [
				{
					"inputs": [
						{
							"internalType": "uint256",
							"name": "",
							"type": "uint256"
						}
					],
					"name": "addresses",
					"outputs": [
						{
							"internalType": "address",
							"name": "",
							"type": "address"
						}
					],
					"stateMutability": "view",
					"type": "function"
				},
				{
					"inputs": [],
					"name": "airdrop",
					"outputs": [],
					"stateMutability": "payable",
					"type": "function"
				},
				{
					"inputs": [
						{
							"internalType": "address",
							"name": "",
							"type": "address"
						}
					],
					"name": "balance",
					"outputs": [
						{
							"internalType": "uint256",
							"name": "",
							"type": "uint256"
						}
					],
					"stateMutability": "view",
					"type": "function"
				},
				{
					"inputs": [
						{
							"internalType": "address",
							"name": "_address",
							"type": "address"
						}
					],
					"name": "getUserBalance",
					"outputs": [
						{
							"internalType": "uint256",
							"name": "",
							"type": "uint256"
						}
					],
					"stateMutability": "view",
					"type": "function"
				},
				{
					"inputs": [
						{
							"internalType": "address",
							"name": "",
							"type": "address"
						}
					],
					"name": "isOnList",
					"outputs": [
						{
							"internalType": "bool",
							"name": "",
							"type": "bool"
						}
					],
					"stateMutability": "view",
					"type": "function"
				},
				{
					"inputs": [],
					"name": "joinList",
					"outputs": [],
					"stateMutability": "nonpayable",
					"type": "function"
				}
			],
			"devdoc": {
				"kind": "dev",
				"methods": {},
				"version": 1
			},
			"evm": {
				"assembly": "    /* \"contracts/Week2Day4.sol\":61:2391  contract Week2Day4 {... */\n  mstore(0x40, 0x80)\n  callvalue\n  dup1\n  iszero\n  tag_1\n  jumpi\n  0x00\n  dup1\n  revert\ntag_1:\n  pop\n  dataSize(sub_0)\n  dup1\n  dataOffset(sub_0)\n  0x00\n  codecopy\n  0x00\n  return\nstop\n\nsub_0: assembly {\n        /* \"contracts/Week2Day4.sol\":61:2391  contract Week2Day4 {... */\n      mstore(0x40, 0x80)\n      jumpi(tag_1, lt(calldatasize, 0x04))\n      shr(0xe0, calldataload(0x00))\n      dup1\n      0x3884d635\n      eq\n      tag_2\n      jumpi\n      dup1\n      0x47734892\n      eq\n      tag_3\n      jumpi\n      dup1\n      0x7330daac\n      eq\n      tag_4\n      jumpi\n      dup1\n      0xa11b8e61\n      eq\n      tag_5\n      jumpi\n      dup1\n      0xe3d670d7\n      eq\n      tag_6\n      jumpi\n      dup1\n      0xedf26d9b\n      eq\n      tag_7\n      jumpi\n    tag_1:\n      0x00\n      dup1\n      revert\n        /* \"contracts/Week2Day4.sol\":698:1234  function airdrop() public payable {... */\n    tag_2:\n      tag_8\n      tag_9\n      jump\t// in\n    tag_8:\n      stop\n        /* \"contracts/Week2Day4.sol\":1361:1472  function getUserBalance(address _address) public view returns(uint) {... */\n    tag_3:\n      callvalue\n      dup1\n      iszero\n      tag_10\n      jumpi\n      0x00\n      dup1\n      revert\n    tag_10:\n      pop\n      tag_11\n      0x04\n      dup1\n      calldatasize\n      sub\n      dup2\n      add\n      swap1\n      tag_12\n      swap2\n      swap1\n      tag_13\n      jump\t// in\n    tag_12:\n      tag_14\n      jump\t// in\n    tag_11:\n      mload(0x40)\n      tag_15\n      swap2\n      swap1\n      tag_16\n      jump\t// in\n    tag_15:\n      mload(0x40)\n      dup1\n      swap2\n      sub\n      swap1\n      return\n        /* \"contracts/Week2Day4.sol\":168:208  mapping(address => bool) public isOnList */\n    tag_4:\n      callvalue\n      dup1\n      iszero\n      tag_17\n      jumpi\n      0x00\n      dup1\n      revert\n    tag_17:\n      pop\n      tag_18\n      0x04\n      dup1\n      calldatasize\n      sub\n      dup2\n      add\n      swap1\n      tag_19\n      swap2\n      swap1\n      tag_13\n      jump\t// in\n    tag_19:\n      tag_20\n      jump\t// in\n    tag_18:\n      mload(0x40)\n      tag_21\n      swap2\n      swap1\n      tag_22\n      jump\t// in\n    tag_21:\n      mload(0x40)\n      dup1\n      swap2\n      sub\n      swap1\n      return\n        /* \"contracts/Week2Day4.sol\":477:690  function joinList() public {... */\n    tag_5:\n      callvalue\n      dup1\n      iszero\n      tag_23\n      jumpi\n      0x00\n      dup1\n      revert\n    tag_23:\n      pop\n      tag_24\n      tag_25\n      jump\t// in\n    tag_24:\n      stop\n        /* \"contracts/Week2Day4.sol\":122:161  mapping(address => uint) public balance */\n    tag_6:\n      callvalue\n      dup1\n      iszero\n      tag_26\n      jumpi\n      0x00\n      dup1\n      revert\n    tag_26:\n      pop\n      tag_27\n      0x04\n      dup1\n      calldatasize\n      sub\n      dup2\n      add\n      swap1\n      tag_28\n      swap2\n      swap1\n      tag_13\n      jump\t// in\n    tag_28:\n      tag_29\n      jump\t// in\n    tag_27:\n      mload(0x40)\n      tag_30\n      swap2\n      swap1\n      tag_16\n      jump\t// in\n    tag_30:\n      mload(0x40)\n      dup1\n      swap2\n      sub\n      swap1\n      return\n        /* \"contracts/Week2Day4.sol\":89:115  address[] public addresses */\n    tag_7:\n      callvalue\n      dup1\n      iszero\n      tag_31\n      jumpi\n      0x00\n      dup1\n      revert\n    tag_31:\n      pop\n      tag_32\n      0x04\n      dup1\n      calldatasize\n      sub\n      dup2\n      add\n      swap1\n      tag_33\n      swap2\n      swap1\n      tag_34\n      jump\t// in\n    tag_33:\n      tag_35\n      jump\t// in\n    tag_32:\n      mload(0x40)\n      tag_36\n      swap2\n      swap1\n      tag_37\n      jump\t// in\n    tag_36:\n      mload(0x40)\n      dup1\n      swap2\n      sub\n      swap1\n      return\n        /* \"contracts/Week2Day4.sol\":698:1234  function airdrop() public payable {... */\n    tag_9:\n        /* \"contracts/Week2Day4.sol\":743:759  uint arrayLength */\n      0x00\n        /* \"contracts/Week2Day4.sol\":762:771  addresses */\n      dup1\n        /* \"contracts/Week2Day4.sol\":762:778  addresses.length */\n      dup1\n      sload\n      swap1\n      pop\n        /* \"contracts/Week2Day4.sol\":743:778  uint arrayLength = addresses.length */\n      swap1\n      pop\n        /* \"contracts/Week2Day4.sol\":817:821  true */\n      0x01\n        /* \"contracts/Week2Day4.sol\":793:821  isOnList[msg.sender] == true */\n      iszero\n      iszero\n        /* \"contracts/Week2Day4.sol\":793:801  isOnList */\n      0x02\n        /* \"contracts/Week2Day4.sol\":793:813  isOnList[msg.sender] */\n      0x00\n        /* \"contracts/Week2Day4.sol\":802:812  msg.sender */\n      caller\n        /* \"contracts/Week2Day4.sol\":793:813  isOnList[msg.sender] */\n      0xffffffffffffffffffffffffffffffffffffffff\n      and\n      0xffffffffffffffffffffffffffffffffffffffff\n      and\n      dup2\n      mstore\n      0x20\n      add\n      swap1\n      dup2\n      mstore\n      0x20\n      add\n      0x00\n      keccak256\n      0x00\n      swap1\n      sload\n      swap1\n      0x0100\n      exp\n      swap1\n      div\n      0xff\n      and\n        /* \"contracts/Week2Day4.sol\":793:821  isOnList[msg.sender] == true */\n      iszero\n      iszero\n      sub\n        /* \"contracts/Week2Day4.sol\":789:874  if (isOnList[msg.sender] == true) {... */\n      tag_39\n      jumpi\n        /* \"contracts/Week2Day4.sol\":857:858  1 */\n      0x01\n        /* \"contracts/Week2Day4.sol\":842:858  arrayLength -= 1 */\n      dup2\n      tag_40\n      swap2\n      swap1\n      tag_41\n      jump\t// in\n    tag_40:\n      swap1\n      pop\n        /* \"contracts/Week2Day4.sol\":789:874  if (isOnList[msg.sender] == true) {... */\n    tag_39:\n        /* \"contracts/Week2Day4.sol\":915:926  arrayLength */\n      dup1\n        /* \"contracts/Week2Day4.sol\":902:911  msg.value */\n      callvalue\n        /* \"contracts/Week2Day4.sol\":902:926  msg.value >= arrayLength */\n      lt\n      iszero\n        /* \"contracts/Week2Day4.sol\":894:962  require(msg.value >= arrayLength, \"Not enough ETH for the airdrop!\") */\n      tag_42\n      jumpi\n      mload(0x40)\n      0x08c379a000000000000000000000000000000000000000000000000000000000\n      dup2\n      mstore\n      0x04\n      add\n      tag_43\n      swap1\n      tag_44\n      jump\t// in\n    tag_43:\n      mload(0x40)\n      dup1\n      swap2\n      sub\n      swap1\n      revert\n    tag_42:\n        /* \"contracts/Week2Day4.sol\":973:991  uint airdropAmount */\n      0x00\n        /* \"contracts/Week2Day4.sol\":1006:1017  arrayLength */\n      dup2\n        /* \"contracts/Week2Day4.sol\":994:1003  msg.value */\n      callvalue\n        /* \"contracts/Week2Day4.sol\":994:1017  msg.value / arrayLength */\n      tag_45\n      swap2\n      swap1\n      tag_46\n      jump\t// in\n    tag_45:\n        /* \"contracts/Week2Day4.sol\":973:1017  uint airdropAmount = msg.value / arrayLength */\n      swap1\n      pop\n        /* \"contracts/Week2Day4.sol\":1032:1038  uint i */\n      0x00\n        /* \"contracts/Week2Day4.sol\":1028:1225  for(uint i = 0; i < arrayLength; i++) {... */\n    tag_47:\n        /* \"contracts/Week2Day4.sol\":1048:1059  arrayLength */\n      dup3\n        /* \"contracts/Week2Day4.sol\":1044:1045  i */\n      dup2\n        /* \"contracts/Week2Day4.sol\":1044:1059  i < arrayLength */\n      lt\n        /* \"contracts/Week2Day4.sol\":1028:1225  for(uint i = 0; i < arrayLength; i++) {... */\n      iszero\n      tag_48\n      jumpi\n        /* \"contracts/Week2Day4.sol\":1101:1111  msg.sender */\n      caller\n        /* \"contracts/Week2Day4.sol\":1085:1111  addresses[i] == msg.sender */\n      0xffffffffffffffffffffffffffffffffffffffff\n      and\n        /* \"contracts/Week2Day4.sol\":1085:1094  addresses */\n      0x00\n        /* \"contracts/Week2Day4.sol\":1095:1096  i */\n      dup3\n        /* \"contracts/Week2Day4.sol\":1085:1097  addresses[i] */\n      dup2\n      sload\n      dup2\n      lt\n      tag_50\n      jumpi\n      tag_51\n      tag_52\n      jump\t// in\n    tag_51:\n    tag_50:\n      swap1\n      0x00\n      mstore\n      keccak256(0x00, 0x20)\n      add\n      0x00\n      swap1\n      sload\n      swap1\n      0x0100\n      exp\n      swap1\n      div\n      0xffffffffffffffffffffffffffffffffffffffff\n      and\n        /* \"contracts/Week2Day4.sol\":1085:1111  addresses[i] == msg.sender */\n      0xffffffffffffffffffffffffffffffffffffffff\n      and\n      sub\n        /* \"contracts/Week2Day4.sol\":1081:1156  if (addresses[i] == msg.sender) {... */\n      iszero\n        /* \"contracts/Week2Day4.sol\":1132:1140  continue */\n      tag_49\n        /* \"contracts/Week2Day4.sol\":1081:1156  if (addresses[i] == msg.sender) {... */\n      jumpi\n        /* \"contracts/Week2Day4.sol\":1170:1179  addresses */\n      0x00\n        /* \"contracts/Week2Day4.sol\":1180:1181  i */\n      dup2\n        /* \"contracts/Week2Day4.sol\":1170:1182  addresses[i] */\n      dup2\n      sload\n      dup2\n      lt\n      tag_55\n      jumpi\n      tag_56\n      tag_52\n      jump\t// in\n    tag_56:\n    tag_55:\n      swap1\n      0x00\n      mstore\n      keccak256(0x00, 0x20)\n      add\n      0x00\n      swap1\n      sload\n      swap1\n      0x0100\n      exp\n      swap1\n      div\n      0xffffffffffffffffffffffffffffffffffffffff\n      and\n        /* \"contracts/Week2Day4.sol\":1170:1187  addresses[i].call */\n      0xffffffffffffffffffffffffffffffffffffffff\n      and\n        /* \"contracts/Week2Day4.sol\":1195:1208  airdropAmount */\n      dup3\n        /* \"contracts/Week2Day4.sol\":1170:1213  addresses[i].call{value: airdropAmount}(\"\") */\n      mload(0x40)\n      tag_58\n      swap1\n      tag_59\n      jump\t// in\n    tag_58:\n      0x00\n      mload(0x40)\n      dup1\n      dup4\n      sub\n      dup2\n      dup6\n      dup8\n      gas\n      call\n      swap3\n      pop\n      pop\n      pop\n      returndatasize\n      dup1\n      0x00\n      dup2\n      eq\n      tag_62\n      jumpi\n      mload(0x40)\n      swap2\n      pop\n      and(add(returndatasize, 0x3f), not(0x1f))\n      dup3\n      add\n      0x40\n      mstore\n      returndatasize\n      dup3\n      mstore\n      returndatasize\n      0x00\n      0x20\n      dup5\n      add\n      returndatacopy\n      jump(tag_61)\n    tag_62:\n      0x60\n      swap2\n      pop\n    tag_61:\n      pop\n      pop\n      pop\n        /* \"contracts/Week2Day4.sol\":1028:1225  for(uint i = 0; i < arrayLength; i++) {... */\n    tag_49:\n        /* \"contracts/Week2Day4.sol\":1061:1064  i++ */\n      dup1\n      dup1\n      tag_63\n      swap1\n      tag_64\n      jump\t// in\n    tag_63:\n      swap2\n      pop\n      pop\n        /* \"contracts/Week2Day4.sol\":1028:1225  for(uint i = 0; i < arrayLength; i++) {... */\n      jump(tag_47)\n    tag_48:\n      pop\n        /* \"contracts/Week2Day4.sol\":732:1234  {... */\n      pop\n      pop\n        /* \"contracts/Week2Day4.sol\":698:1234  function airdrop() public payable {... */\n      jump\t// out\n        /* \"contracts/Week2Day4.sol\":1361:1472  function getUserBalance(address _address) public view returns(uint) {... */\n    tag_14:\n        /* \"contracts/Week2Day4.sol\":1423:1427  uint */\n      0x00\n        /* \"contracts/Week2Day4.sol\":1447:1454  balance */\n      0x01\n        /* \"contracts/Week2Day4.sol\":1447:1464  balance[_address] */\n      0x00\n        /* \"contracts/Week2Day4.sol\":1455:1463  _address */\n      dup4\n        /* \"contracts/Week2Day4.sol\":1447:1464  balance[_address] */\n      0xffffffffffffffffffffffffffffffffffffffff\n      and\n      0xffffffffffffffffffffffffffffffffffffffff\n      and\n      dup2\n      mstore\n      0x20\n      add\n      swap1\n      dup2\n      mstore\n      0x20\n      add\n      0x00\n      keccak256\n      sload\n        /* \"contracts/Week2Day4.sol\":1440:1464  return balance[_address] */\n      swap1\n      pop\n        /* \"contracts/Week2Day4.sol\":1361:1472  function getUserBalance(address _address) public view returns(uint) {... */\n      swap2\n      swap1\n      pop\n      jump\t// out\n        /* \"contracts/Week2Day4.sol\":168:208  mapping(address => bool) public isOnList */\n    tag_20:\n      mstore(0x20, 0x02)\n      dup1\n      0x00\n      mstore\n      keccak256(0x00, 0x40)\n      0x00\n      swap2\n      pop\n      sload\n      swap1\n      0x0100\n      exp\n      swap1\n      div\n      0xff\n      and\n      dup2\n      jump\t// out\n        /* \"contracts/Week2Day4.sol\":477:690  function joinList() public {... */\n    tag_25:\n        /* \"contracts/Week2Day4.sol\":547:552  false */\n      0x00\n        /* \"contracts/Week2Day4.sol\":523:552  isOnList[msg.sender] == false */\n      iszero\n      iszero\n        /* \"contracts/Week2Day4.sol\":523:531  isOnList */\n      0x02\n        /* \"contracts/Week2Day4.sol\":523:543  isOnList[msg.sender] */\n      0x00\n        /* \"contracts/Week2Day4.sol\":532:542  msg.sender */\n      caller\n        /* \"contracts/Week2Day4.sol\":523:543  isOnList[msg.sender] */\n      0xffffffffffffffffffffffffffffffffffffffff\n      and\n      0xffffffffffffffffffffffffffffffffffffffff\n      and\n      dup2\n      mstore\n      0x20\n      add\n      swap1\n      dup2\n      mstore\n      0x20\n      add\n      0x00\n      keccak256\n      0x00\n      swap1\n      sload\n      swap1\n      0x0100\n      exp\n      swap1\n      div\n      0xff\n      and\n        /* \"contracts/Week2Day4.sol\":523:552  isOnList[msg.sender] == false */\n      iszero\n      iszero\n      eq\n        /* \"contracts/Week2Day4.sol\":515:605  require(isOnList[msg.sender] == false, \"You are already on the list for the airdrop! >:(\") */\n      tag_67\n      jumpi\n      mload(0x40)\n      0x08c379a000000000000000000000000000000000000000000000000000000000\n      dup2\n      mstore\n      0x04\n      add\n      tag_68\n      swap1\n      tag_69\n      jump\t// in\n    tag_68:\n      mload(0x40)\n      dup1\n      swap2\n      sub\n      swap1\n      revert\n    tag_67:\n        /* \"contracts/Week2Day4.sol\":616:625  addresses */\n      0x00\n        /* \"contracts/Week2Day4.sol\":631:641  msg.sender */\n      caller\n        /* \"contracts/Week2Day4.sol\":616:642  addresses.push(msg.sender) */\n      swap1\n      dup1\n      0x01\n      dup2\n      sload\n      add\n      dup1\n      dup3\n      sstore\n      dup1\n      swap2\n      pop\n      pop\n      0x01\n      swap1\n      sub\n      swap1\n      0x00\n      mstore\n      keccak256(0x00, 0x20)\n      add\n      0x00\n      swap1\n      swap2\n      swap1\n      swap2\n      swap1\n      swap2\n      0x0100\n      exp\n      dup2\n      sload\n      dup2\n      0xffffffffffffffffffffffffffffffffffffffff\n      mul\n      not\n      and\n      swap1\n      dup4\n      0xffffffffffffffffffffffffffffffffffffffff\n      and\n      mul\n      or\n      swap1\n      sstore\n      pop\n        /* \"contracts/Week2Day4.sol\":676:680  true */\n      0x01\n        /* \"contracts/Week2Day4.sol\":653:661  isOnList */\n      0x02\n        /* \"contracts/Week2Day4.sol\":653:673  isOnList[msg.sender] */\n      0x00\n        /* \"contracts/Week2Day4.sol\":662:672  msg.sender */\n      caller\n        /* \"contracts/Week2Day4.sol\":653:673  isOnList[msg.sender] */\n      0xffffffffffffffffffffffffffffffffffffffff\n      and\n      0xffffffffffffffffffffffffffffffffffffffff\n      and\n      dup2\n      mstore\n      0x20\n      add\n      swap1\n      dup2\n      mstore\n      0x20\n      add\n      0x00\n      keccak256\n      0x00\n        /* \"contracts/Week2Day4.sol\":653:680  isOnList[msg.sender] = true */\n      0x0100\n      exp\n      dup2\n      sload\n      dup2\n      0xff\n      mul\n      not\n      and\n      swap1\n      dup4\n      iszero\n      iszero\n      mul\n      or\n      swap1\n      sstore\n      pop\n        /* \"contracts/Week2Day4.sol\":477:690  function joinList() public {... */\n      jump\t// out\n        /* \"contracts/Week2Day4.sol\":122:161  mapping(address => uint) public balance */\n    tag_29:\n      mstore(0x20, 0x01)\n      dup1\n      0x00\n      mstore\n      keccak256(0x00, 0x40)\n      0x00\n      swap2\n      pop\n      swap1\n      pop\n      sload\n      dup2\n      jump\t// out\n        /* \"contracts/Week2Day4.sol\":89:115  address[] public addresses */\n    tag_35:\n      0x00\n      dup2\n      dup2\n      sload\n      dup2\n      lt\n      tag_71\n      jumpi\n      0x00\n      dup1\n      revert\n    tag_71:\n      swap1\n      0x00\n      mstore\n      keccak256(0x00, 0x20)\n      add\n      0x00\n      swap2\n      pop\n      sload\n      swap1\n      0x0100\n      exp\n      swap1\n      div\n      0xffffffffffffffffffffffffffffffffffffffff\n      and\n      dup2\n      jump\t// out\n        /* \"#utility.yul\":88:205   */\n    tag_74:\n        /* \"#utility.yul\":197:198   */\n      0x00\n        /* \"#utility.yul\":194:195   */\n      dup1\n        /* \"#utility.yul\":187:199   */\n      revert\n        /* \"#utility.yul\":334:460   */\n    tag_76:\n        /* \"#utility.yul\":371:378   */\n      0x00\n        /* \"#utility.yul\":411:453   */\n      0xffffffffffffffffffffffffffffffffffffffff\n        /* \"#utility.yul\":404:409   */\n      dup3\n        /* \"#utility.yul\":400:454   */\n      and\n        /* \"#utility.yul\":389:454   */\n      swap1\n      pop\n        /* \"#utility.yul\":334:460   */\n      swap2\n      swap1\n      pop\n      jump\t// out\n        /* \"#utility.yul\":466:562   */\n    tag_77:\n        /* \"#utility.yul\":503:510   */\n      0x00\n        /* \"#utility.yul\":532:556   */\n      tag_103\n        /* \"#utility.yul\":550:555   */\n      dup3\n        /* \"#utility.yul\":532:556   */\n      tag_76\n      jump\t// in\n    tag_103:\n        /* \"#utility.yul\":521:556   */\n      swap1\n      pop\n        /* \"#utility.yul\":466:562   */\n      swap2\n      swap1\n      pop\n      jump\t// out\n        /* \"#utility.yul\":568:690   */\n    tag_78:\n        /* \"#utility.yul\":641:665   */\n      tag_105\n        /* \"#utility.yul\":659:664   */\n      dup2\n        /* \"#utility.yul\":641:665   */\n      tag_77\n      jump\t// in\n    tag_105:\n        /* \"#utility.yul\":634:639   */\n      dup2\n        /* \"#utility.yul\":631:666   */\n      eq\n        /* \"#utility.yul\":621:684   */\n      tag_106\n      jumpi\n        /* \"#utility.yul\":680:681   */\n      0x00\n        /* \"#utility.yul\":677:678   */\n      dup1\n        /* \"#utility.yul\":670:682   */\n      revert\n        /* \"#utility.yul\":621:684   */\n    tag_106:\n        /* \"#utility.yul\":568:690   */\n      pop\n      jump\t// out\n        /* \"#utility.yul\":696:835   */\n    tag_79:\n        /* \"#utility.yul\":742:747   */\n      0x00\n        /* \"#utility.yul\":780:786   */\n      dup2\n        /* \"#utility.yul\":767:787   */\n      calldataload\n        /* \"#utility.yul\":758:787   */\n      swap1\n      pop\n        /* \"#utility.yul\":796:829   */\n      tag_108\n        /* \"#utility.yul\":823:828   */\n      dup2\n        /* \"#utility.yul\":796:829   */\n      tag_78\n      jump\t// in\n    tag_108:\n        /* \"#utility.yul\":696:835   */\n      swap3\n      swap2\n      pop\n      pop\n      jump\t// out\n        /* \"#utility.yul\":841:1170   */\n    tag_13:\n        /* \"#utility.yul\":900:906   */\n      0x00\n        /* \"#utility.yul\":949:951   */\n      0x20\n        /* \"#utility.yul\":937:946   */\n      dup3\n        /* \"#utility.yul\":928:935   */\n      dup5\n        /* \"#utility.yul\":924:947   */\n      sub\n        /* \"#utility.yul\":920:952   */\n      slt\n        /* \"#utility.yul\":917:1036   */\n      iszero\n      tag_110\n      jumpi\n        /* \"#utility.yul\":955:1034   */\n      tag_111\n      tag_74\n      jump\t// in\n    tag_111:\n        /* \"#utility.yul\":917:1036   */\n    tag_110:\n        /* \"#utility.yul\":1075:1076   */\n      0x00\n        /* \"#utility.yul\":1100:1153   */\n      tag_112\n        /* \"#utility.yul\":1145:1152   */\n      dup5\n        /* \"#utility.yul\":1136:1142   */\n      dup3\n        /* \"#utility.yul\":1125:1134   */\n      dup6\n        /* \"#utility.yul\":1121:1143   */\n      add\n        /* \"#utility.yul\":1100:1153   */\n      tag_79\n      jump\t// in\n    tag_112:\n        /* \"#utility.yul\":1090:1153   */\n      swap2\n      pop\n        /* \"#utility.yul\":1046:1163   */\n      pop\n        /* \"#utility.yul\":841:1170   */\n      swap3\n      swap2\n      pop\n      pop\n      jump\t// out\n        /* \"#utility.yul\":1176:1253   */\n    tag_80:\n        /* \"#utility.yul\":1213:1220   */\n      0x00\n        /* \"#utility.yul\":1242:1247   */\n      dup2\n        /* \"#utility.yul\":1231:1247   */\n      swap1\n      pop\n        /* \"#utility.yul\":1176:1253   */\n      swap2\n      swap1\n      pop\n      jump\t// out\n        /* \"#utility.yul\":1259:1377   */\n    tag_81:\n        /* \"#utility.yul\":1346:1370   */\n      tag_115\n        /* \"#utility.yul\":1364:1369   */\n      dup2\n        /* \"#utility.yul\":1346:1370   */\n      tag_80\n      jump\t// in\n    tag_115:\n        /* \"#utility.yul\":1341:1344   */\n      dup3\n        /* \"#utility.yul\":1334:1371   */\n      mstore\n        /* \"#utility.yul\":1259:1377   */\n      pop\n      pop\n      jump\t// out\n        /* \"#utility.yul\":1383:1605   */\n    tag_16:\n        /* \"#utility.yul\":1476:1480   */\n      0x00\n        /* \"#utility.yul\":1514:1516   */\n      0x20\n        /* \"#utility.yul\":1503:1512   */\n      dup3\n        /* \"#utility.yul\":1499:1517   */\n      add\n        /* \"#utility.yul\":1491:1517   */\n      swap1\n      pop\n        /* \"#utility.yul\":1527:1598   */\n      tag_117\n        /* \"#utility.yul\":1595:1596   */\n      0x00\n        /* \"#utility.yul\":1584:1593   */\n      dup4\n        /* \"#utility.yul\":1580:1597   */\n      add\n        /* \"#utility.yul\":1571:1577   */\n      dup5\n        /* \"#utility.yul\":1527:1598   */\n      tag_81\n      jump\t// in\n    tag_117:\n        /* \"#utility.yul\":1383:1605   */\n      swap3\n      swap2\n      pop\n      pop\n      jump\t// out\n        /* \"#utility.yul\":1611:1701   */\n    tag_82:\n        /* \"#utility.yul\":1645:1652   */\n      0x00\n        /* \"#utility.yul\":1688:1693   */\n      dup2\n        /* \"#utility.yul\":1681:1694   */\n      iszero\n        /* \"#utility.yul\":1674:1695   */\n      iszero\n        /* \"#utility.yul\":1663:1695   */\n      swap1\n      pop\n        /* \"#utility.yul\":1611:1701   */\n      swap2\n      swap1\n      pop\n      jump\t// out\n        /* \"#utility.yul\":1707:1816   */\n    tag_83:\n        /* \"#utility.yul\":1788:1809   */\n      tag_120\n        /* \"#utility.yul\":1803:1808   */\n      dup2\n        /* \"#utility.yul\":1788:1809   */\n      tag_82\n      jump\t// in\n    tag_120:\n        /* \"#utility.yul\":1783:1786   */\n      dup3\n        /* \"#utility.yul\":1776:1810   */\n      mstore\n        /* \"#utility.yul\":1707:1816   */\n      pop\n      pop\n      jump\t// out\n        /* \"#utility.yul\":1822:2032   */\n    tag_22:\n        /* \"#utility.yul\":1909:1913   */\n      0x00\n        /* \"#utility.yul\":1947:1949   */\n      0x20\n        /* \"#utility.yul\":1936:1945   */\n      dup3\n        /* \"#utility.yul\":1932:1950   */\n      add\n        /* \"#utility.yul\":1924:1950   */\n      swap1\n      pop\n        /* \"#utility.yul\":1960:2025   */\n      tag_122\n        /* \"#utility.yul\":2022:2023   */\n      0x00\n        /* \"#utility.yul\":2011:2020   */\n      dup4\n        /* \"#utility.yul\":2007:2024   */\n      add\n        /* \"#utility.yul\":1998:2004   */\n      dup5\n        /* \"#utility.yul\":1960:2025   */\n      tag_83\n      jump\t// in\n    tag_122:\n        /* \"#utility.yul\":1822:2032   */\n      swap3\n      swap2\n      pop\n      pop\n      jump\t// out\n        /* \"#utility.yul\":2038:2160   */\n    tag_84:\n        /* \"#utility.yul\":2111:2135   */\n      tag_124\n        /* \"#utility.yul\":2129:2134   */\n      dup2\n        /* \"#utility.yul\":2111:2135   */\n      tag_80\n      jump\t// in\n    tag_124:\n        /* \"#utility.yul\":2104:2109   */\n      dup2\n        /* \"#utility.yul\":2101:2136   */\n      eq\n        /* \"#utility.yul\":2091:2154   */\n      tag_125\n      jumpi\n        /* \"#utility.yul\":2150:2151   */\n      0x00\n        /* \"#utility.yul\":2147:2148   */\n      dup1\n        /* \"#utility.yul\":2140:2152   */\n      revert\n        /* \"#utility.yul\":2091:2154   */\n    tag_125:\n        /* \"#utility.yul\":2038:2160   */\n      pop\n      jump\t// out\n        /* \"#utility.yul\":2166:2305   */\n    tag_85:\n        /* \"#utility.yul\":2212:2217   */\n      0x00\n        /* \"#utility.yul\":2250:2256   */\n      dup2\n        /* \"#utility.yul\":2237:2257   */\n      calldataload\n        /* \"#utility.yul\":2228:2257   */\n      swap1\n      pop\n        /* \"#utility.yul\":2266:2299   */\n      tag_127\n        /* \"#utility.yul\":2293:2298   */\n      dup2\n        /* \"#utility.yul\":2266:2299   */\n      tag_84\n      jump\t// in\n    tag_127:\n        /* \"#utility.yul\":2166:2305   */\n      swap3\n      swap2\n      pop\n      pop\n      jump\t// out\n        /* \"#utility.yul\":2311:2640   */\n    tag_34:\n        /* \"#utility.yul\":2370:2376   */\n      0x00\n        /* \"#utility.yul\":2419:2421   */\n      0x20\n        /* \"#utility.yul\":2407:2416   */\n      dup3\n        /* \"#utility.yul\":2398:2405   */\n      dup5\n        /* \"#utility.yul\":2394:2417   */\n      sub\n        /* \"#utility.yul\":2390:2422   */\n      slt\n        /* \"#utility.yul\":2387:2506   */\n      iszero\n      tag_129\n      jumpi\n        /* \"#utility.yul\":2425:2504   */\n      tag_130\n      tag_74\n      jump\t// in\n    tag_130:\n        /* \"#utility.yul\":2387:2506   */\n    tag_129:\n        /* \"#utility.yul\":2545:2546   */\n      0x00\n        /* \"#utility.yul\":2570:2623   */\n      tag_131\n        /* \"#utility.yul\":2615:2622   */\n      dup5\n        /* \"#utility.yul\":2606:2612   */\n      dup3\n        /* \"#utility.yul\":2595:2604   */\n      dup6\n        /* \"#utility.yul\":2591:2613   */\n      add\n        /* \"#utility.yul\":2570:2623   */\n      tag_85\n      jump\t// in\n    tag_131:\n        /* \"#utility.yul\":2560:2623   */\n      swap2\n      pop\n        /* \"#utility.yul\":2516:2633   */\n      pop\n        /* \"#utility.yul\":2311:2640   */\n      swap3\n      swap2\n      pop\n      pop\n      jump\t// out\n        /* \"#utility.yul\":2646:2764   */\n    tag_86:\n        /* \"#utility.yul\":2733:2757   */\n      tag_133\n        /* \"#utility.yul\":2751:2756   */\n      dup2\n        /* \"#utility.yul\":2733:2757   */\n      tag_77\n      jump\t// in\n    tag_133:\n        /* \"#utility.yul\":2728:2731   */\n      dup3\n        /* \"#utility.yul\":2721:2758   */\n      mstore\n        /* \"#utility.yul\":2646:2764   */\n      pop\n      pop\n      jump\t// out\n        /* \"#utility.yul\":2770:2992   */\n    tag_37:\n        /* \"#utility.yul\":2863:2867   */\n      0x00\n        /* \"#utility.yul\":2901:2903   */\n      0x20\n        /* \"#utility.yul\":2890:2899   */\n      dup3\n        /* \"#utility.yul\":2886:2904   */\n      add\n        /* \"#utility.yul\":2878:2904   */\n      swap1\n      pop\n        /* \"#utility.yul\":2914:2985   */\n      tag_135\n        /* \"#utility.yul\":2982:2983   */\n      0x00\n        /* \"#utility.yul\":2971:2980   */\n      dup4\n        /* \"#utility.yul\":2967:2984   */\n      add\n        /* \"#utility.yul\":2958:2964   */\n      dup5\n        /* \"#utility.yul\":2914:2985   */\n      tag_86\n      jump\t// in\n    tag_135:\n        /* \"#utility.yul\":2770:2992   */\n      swap3\n      swap2\n      pop\n      pop\n      jump\t// out\n        /* \"#utility.yul\":2998:3178   */\n    tag_87:\n        /* \"#utility.yul\":3046:3123   */\n      0x4e487b7100000000000000000000000000000000000000000000000000000000\n        /* \"#utility.yul\":3043:3044   */\n      0x00\n        /* \"#utility.yul\":3036:3124   */\n      mstore\n        /* \"#utility.yul\":3143:3147   */\n      0x11\n        /* \"#utility.yul\":3140:3141   */\n      0x04\n        /* \"#utility.yul\":3133:3148   */\n      mstore\n        /* \"#utility.yul\":3167:3171   */\n      0x24\n        /* \"#utility.yul\":3164:3165   */\n      0x00\n        /* \"#utility.yul\":3157:3172   */\n      revert\n        /* \"#utility.yul\":3184:3375   */\n    tag_41:\n        /* \"#utility.yul\":3224:3228   */\n      0x00\n        /* \"#utility.yul\":3244:3264   */\n      tag_138\n        /* \"#utility.yul\":3262:3263   */\n      dup3\n        /* \"#utility.yul\":3244:3264   */\n      tag_80\n      jump\t// in\n    tag_138:\n        /* \"#utility.yul\":3239:3264   */\n      swap2\n      pop\n        /* \"#utility.yul\":3278:3298   */\n      tag_139\n        /* \"#utility.yul\":3296:3297   */\n      dup4\n        /* \"#utility.yul\":3278:3298   */\n      tag_80\n      jump\t// in\n    tag_139:\n        /* \"#utility.yul\":3273:3298   */\n      swap3\n      pop\n        /* \"#utility.yul\":3317:3318   */\n      dup3\n        /* \"#utility.yul\":3314:3315   */\n      dup3\n        /* \"#utility.yul\":3311:3319   */\n      lt\n        /* \"#utility.yul\":3308:3342   */\n      iszero\n      tag_140\n      jumpi\n        /* \"#utility.yul\":3322:3340   */\n      tag_141\n      tag_87\n      jump\t// in\n    tag_141:\n        /* \"#utility.yul\":3308:3342   */\n    tag_140:\n        /* \"#utility.yul\":3367:3368   */\n      dup3\n        /* \"#utility.yul\":3364:3365   */\n      dup3\n        /* \"#utility.yul\":3360:3369   */\n      sub\n        /* \"#utility.yul\":3352:3369   */\n      swap1\n      pop\n        /* \"#utility.yul\":3184:3375   */\n      swap3\n      swap2\n      pop\n      pop\n      jump\t// out\n        /* \"#utility.yul\":3381:3550   */\n    tag_88:\n        /* \"#utility.yul\":3465:3476   */\n      0x00\n        /* \"#utility.yul\":3499:3505   */\n      dup3\n        /* \"#utility.yul\":3494:3497   */\n      dup3\n        /* \"#utility.yul\":3487:3506   */\n      mstore\n        /* \"#utility.yul\":3539:3543   */\n      0x20\n        /* \"#utility.yul\":3534:3537   */\n      dup3\n        /* \"#utility.yul\":3530:3544   */\n      add\n        /* \"#utility.yul\":3515:3544   */\n      swap1\n      pop\n        /* \"#utility.yul\":3381:3550   */\n      swap3\n      swap2\n      pop\n      pop\n      jump\t// out\n        /* \"#utility.yul\":3556:3737   */\n    tag_89:\n        /* \"#utility.yul\":3696:3729   */\n      0x4e6f7420656e6f7567682045544820666f72207468652061697264726f702100\n        /* \"#utility.yul\":3692:3693   */\n      0x00\n        /* \"#utility.yul\":3684:3690   */\n      dup3\n        /* \"#utility.yul\":3680:3694   */\n      add\n        /* \"#utility.yul\":3673:3730   */\n      mstore\n        /* \"#utility.yul\":3556:3737   */\n      pop\n      jump\t// out\n        /* \"#utility.yul\":3743:4109   */\n    tag_90:\n        /* \"#utility.yul\":3885:3888   */\n      0x00\n        /* \"#utility.yul\":3906:3973   */\n      tag_145\n        /* \"#utility.yul\":3970:3972   */\n      0x1f\n        /* \"#utility.yul\":3965:3968   */\n      dup4\n        /* \"#utility.yul\":3906:3973   */\n      tag_88\n      jump\t// in\n    tag_145:\n        /* \"#utility.yul\":3899:3973   */\n      swap2\n      pop\n        /* \"#utility.yul\":3982:4075   */\n      tag_146\n        /* \"#utility.yul\":4071:4074   */\n      dup3\n        /* \"#utility.yul\":3982:4075   */\n      tag_89\n      jump\t// in\n    tag_146:\n        /* \"#utility.yul\":4100:4102   */\n      0x20\n        /* \"#utility.yul\":4095:4098   */\n      dup3\n        /* \"#utility.yul\":4091:4103   */\n      add\n        /* \"#utility.yul\":4084:4103   */\n      swap1\n      pop\n        /* \"#utility.yul\":3743:4109   */\n      swap2\n      swap1\n      pop\n      jump\t// out\n        /* \"#utility.yul\":4115:4534   */\n    tag_44:\n        /* \"#utility.yul\":4281:4285   */\n      0x00\n        /* \"#utility.yul\":4319:4321   */\n      0x20\n        /* \"#utility.yul\":4308:4317   */\n      dup3\n        /* \"#utility.yul\":4304:4322   */\n      add\n        /* \"#utility.yul\":4296:4322   */\n      swap1\n      pop\n        /* \"#utility.yul\":4368:4377   */\n      dup2\n        /* \"#utility.yul\":4362:4366   */\n      dup2\n        /* \"#utility.yul\":4358:4378   */\n      sub\n        /* \"#utility.yul\":4354:4355   */\n      0x00\n        /* \"#utility.yul\":4343:4352   */\n      dup4\n        /* \"#utility.yul\":4339:4356   */\n      add\n        /* \"#utility.yul\":4332:4379   */\n      mstore\n        /* \"#utility.yul\":4396:4527   */\n      tag_148\n        /* \"#utility.yul\":4522:4526   */\n      dup2\n        /* \"#utility.yul\":4396:4527   */\n      tag_90\n      jump\t// in\n    tag_148:\n        /* \"#utility.yul\":4388:4527   */\n      swap1\n      pop\n        /* \"#utility.yul\":4115:4534   */\n      swap2\n      swap1\n      pop\n      jump\t// out\n        /* \"#utility.yul\":4540:4720   */\n    tag_91:\n        /* \"#utility.yul\":4588:4665   */\n      0x4e487b7100000000000000000000000000000000000000000000000000000000\n        /* \"#utility.yul\":4585:4586   */\n      0x00\n        /* \"#utility.yul\":4578:4666   */\n      mstore\n        /* \"#utility.yul\":4685:4689   */\n      0x12\n        /* \"#utility.yul\":4682:4683   */\n      0x04\n        /* \"#utility.yul\":4675:4690   */\n      mstore\n        /* \"#utility.yul\":4709:4713   */\n      0x24\n        /* \"#utility.yul\":4706:4707   */\n      0x00\n        /* \"#utility.yul\":4699:4714   */\n      revert\n        /* \"#utility.yul\":4726:4911   */\n    tag_46:\n        /* \"#utility.yul\":4766:4767   */\n      0x00\n        /* \"#utility.yul\":4783:4803   */\n      tag_151\n        /* \"#utility.yul\":4801:4802   */\n      dup3\n        /* \"#utility.yul\":4783:4803   */\n      tag_80\n      jump\t// in\n    tag_151:\n        /* \"#utility.yul\":4778:4803   */\n      swap2\n      pop\n        /* \"#utility.yul\":4817:4837   */\n      tag_152\n        /* \"#utility.yul\":4835:4836   */\n      dup4\n        /* \"#utility.yul\":4817:4837   */\n      tag_80\n      jump\t// in\n    tag_152:\n        /* \"#utility.yul\":4812:4837   */\n      swap3\n      pop\n        /* \"#utility.yul\":4856:4857   */\n      dup3\n        /* \"#utility.yul\":4846:4881   */\n      tag_153\n      jumpi\n        /* \"#utility.yul\":4861:4879   */\n      tag_154\n      tag_91\n      jump\t// in\n    tag_154:\n        /* \"#utility.yul\":4846:4881   */\n    tag_153:\n        /* \"#utility.yul\":4903:4904   */\n      dup3\n        /* \"#utility.yul\":4900:4901   */\n      dup3\n        /* \"#utility.yul\":4896:4905   */\n      div\n        /* \"#utility.yul\":4891:4905   */\n      swap1\n      pop\n        /* \"#utility.yul\":4726:4911   */\n      swap3\n      swap2\n      pop\n      pop\n      jump\t// out\n        /* \"#utility.yul\":4917:5097   */\n    tag_52:\n        /* \"#utility.yul\":4965:5042   */\n      0x4e487b7100000000000000000000000000000000000000000000000000000000\n        /* \"#utility.yul\":4962:4963   */\n      0x00\n        /* \"#utility.yul\":4955:5043   */\n      mstore\n        /* \"#utility.yul\":5062:5066   */\n      0x32\n        /* \"#utility.yul\":5059:5060   */\n      0x04\n        /* \"#utility.yul\":5052:5067   */\n      mstore\n        /* \"#utility.yul\":5086:5090   */\n      0x24\n        /* \"#utility.yul\":5083:5084   */\n      0x00\n        /* \"#utility.yul\":5076:5091   */\n      revert\n        /* \"#utility.yul\":5103:5250   */\n    tag_92:\n        /* \"#utility.yul\":5204:5215   */\n      0x00\n        /* \"#utility.yul\":5241:5244   */\n      dup2\n        /* \"#utility.yul\":5226:5244   */\n      swap1\n      pop\n        /* \"#utility.yul\":5103:5250   */\n      swap3\n      swap2\n      pop\n      pop\n      jump\t// out\n        /* \"#utility.yul\":5256:5370   */\n    tag_93:\n      pop\n      jump\t// out\n        /* \"#utility.yul\":5376:5774   */\n    tag_94:\n        /* \"#utility.yul\":5535:5538   */\n      0x00\n        /* \"#utility.yul\":5556:5639   */\n      tag_159\n        /* \"#utility.yul\":5637:5638   */\n      0x00\n        /* \"#utility.yul\":5632:5635   */\n      dup4\n        /* \"#utility.yul\":5556:5639   */\n      tag_92\n      jump\t// in\n    tag_159:\n        /* \"#utility.yul\":5549:5639   */\n      swap2\n      pop\n        /* \"#utility.yul\":5648:5741   */\n      tag_160\n        /* \"#utility.yul\":5737:5740   */\n      dup3\n        /* \"#utility.yul\":5648:5741   */\n      tag_93\n      jump\t// in\n    tag_160:\n        /* \"#utility.yul\":5766:5767   */\n      0x00\n        /* \"#utility.yul\":5761:5764   */\n      dup3\n        /* \"#utility.yul\":5757:5768   */\n      add\n        /* \"#utility.yul\":5750:5768   */\n      swap1\n      pop\n        /* \"#utility.yul\":5376:5774   */\n      swap2\n      swap1\n      pop\n      jump\t// out\n        /* \"#utility.yul\":5780:6159   */\n    tag_59:\n        /* \"#utility.yul\":5964:5967   */\n      0x00\n        /* \"#utility.yul\":5986:6133   */\n      tag_162\n        /* \"#utility.yul\":6129:6132   */\n      dup3\n        /* \"#utility.yul\":5986:6133   */\n      tag_94\n      jump\t// in\n    tag_162:\n        /* \"#utility.yul\":5979:6133   */\n      swap2\n      pop\n        /* \"#utility.yul\":6150:6153   */\n      dup2\n        /* \"#utility.yul\":6143:6153   */\n      swap1\n      pop\n        /* \"#utility.yul\":5780:6159   */\n      swap2\n      swap1\n      pop\n      jump\t// out\n        /* \"#utility.yul\":6165:6398   */\n    tag_64:\n        /* \"#utility.yul\":6204:6207   */\n      0x00\n        /* \"#utility.yul\":6227:6251   */\n      tag_164\n        /* \"#utility.yul\":6245:6250   */\n      dup3\n        /* \"#utility.yul\":6227:6251   */\n      tag_80\n      jump\t// in\n    tag_164:\n        /* \"#utility.yul\":6218:6251   */\n      swap2\n      pop\n        /* \"#utility.yul\":6273:6339   */\n      0xffffffffffffffffffffffffffffffffffffffffffffffffffffffffffffffff\n        /* \"#utility.yul\":6266:6271   */\n      dup3\n        /* \"#utility.yul\":6263:6340   */\n      sub\n        /* \"#utility.yul\":6260:6363   */\n      tag_165\n      jumpi\n        /* \"#utility.yul\":6343:6361   */\n      tag_166\n      tag_87\n      jump\t// in\n    tag_166:\n        /* \"#utility.yul\":6260:6363   */\n    tag_165:\n        /* \"#utility.yul\":6390:6391   */\n      0x01\n        /* \"#utility.yul\":6383:6388   */\n      dup3\n        /* \"#utility.yul\":6379:6392   */\n      add\n        /* \"#utility.yul\":6372:6392   */\n      swap1\n      pop\n        /* \"#utility.yul\":6165:6398   */\n      swap2\n      swap1\n      pop\n      jump\t// out\n        /* \"#utility.yul\":6404:6643   */\n    tag_95:\n        /* \"#utility.yul\":6544:6578   */\n      0x596f752061726520616c7265616479206f6e20746865206c69737420666f7220\n        /* \"#utility.yul\":6540:6541   */\n      0x00\n        /* \"#utility.yul\":6532:6538   */\n      dup3\n        /* \"#utility.yul\":6528:6542   */\n      add\n        /* \"#utility.yul\":6521:6579   */\n      mstore\n        /* \"#utility.yul\":6613:6631   */\n      0x7468652061697264726f7021203e3a2800000000000000000000000000000000\n        /* \"#utility.yul\":6608:6610   */\n      0x20\n        /* \"#utility.yul\":6600:6606   */\n      dup3\n        /* \"#utility.yul\":6596:6611   */\n      add\n        /* \"#utility.yul\":6589:6632   */\n      mstore\n        /* \"#utility.yul\":6404:6643   */\n      pop\n      jump\t// out\n        /* \"#utility.yul\":6653:7035   */\n    tag_96:\n        /* \"#utility.yul\":6795:6798   */\n      0x00\n        /* \"#utility.yul\":6820:6887   */\n      tag_169\n        /* \"#utility.yul\":6884:6886   */\n      0x30\n        /* \"#utility.yul\":6879:6882   */\n      dup4\n        /* \"#utility.yul\":6820:6887   */\n      tag_88\n      jump\t// in\n    tag_169:\n        /* \"#utility.yul\":6813:6887   */\n      swap2\n      pop\n        /* \"#utility.yul\":6900:6993   */\n      tag_170\n        /* \"#utility.yul\":6989:6992   */\n      dup3\n        /* \"#utility.yul\":6900:6993   */\n      tag_95\n      jump\t// in\n    tag_170:\n        /* \"#utility.yul\":7022:7024   */\n      0x40\n        /* \"#utility.yul\":7017:7020   */\n      dup3\n        /* \"#utility.yul\":7013:7025   */\n      add\n        /* \"#utility.yul\":7006:7025   */\n      swap1\n      pop\n        /* \"#utility.yul\":6653:7035   */\n      swap2\n      swap1\n      pop\n      jump\t// out\n        /* \"#utility.yul\":7045:7480   */\n    tag_69:\n        /* \"#utility.yul\":7211:7215   */\n      0x00\n        /* \"#utility.yul\":7253:7255   */\n      0x20\n        /* \"#utility.yul\":7242:7251   */\n      dup3\n        /* \"#utility.yul\":7238:7256   */\n      add\n        /* \"#utility.yul\":7230:7256   */\n      swap1\n      pop\n        /* \"#utility.yul\":7306:7315   */\n      dup2\n        /* \"#utility.yul\":7300:7304   */\n      dup2\n        /* \"#utility.yul\":7296:7316   */\n      sub\n        /* \"#utility.yul\":7292:7293   */\n      0x00\n        /* \"#utility.yul\":7281:7290   */\n      dup4\n        /* \"#utility.yul\":7277:7294   */\n      add\n        /* \"#utility.yul\":7270:7317   */\n      mstore\n        /* \"#utility.yul\":7338:7469   */\n      tag_172\n        /* \"#utility.yul\":7464:7468   */\n      dup2\n        /* \"#utility.yul\":7338:7469   */\n      tag_96\n      jump\t// in\n    tag_172:\n        /* \"#utility.yul\":7330:7469   */\n      swap1\n      pop\n        /* \"#utility.yul\":7045:7480   */\n      swap2\n      swap1\n      pop\n      jump\t// out\n\n    auxdata: 0xa264697066735822122083a8bf8754c4f2fd1bc3dc2dcff15e916ca804aff7267c6dde1734aa522fd6fe64736f6c634300080d0033\n}\n",
				"bytecode": {
					"linkReferences": {},
					"object": "608060405234801561001057600080fd5b506109c2806100206000396000f3fe6080604052600436106100555760003560e01c80633884d6351461005a57806347734892146100645780637330daac146100a1578063a11b8e61146100de578063e3d670d7146100f5578063edf26d9b14610132575b600080fd5b61006261016f565b005b34801561007057600080fd5b5061008b600480360381019061008691906105e3565b610370565b6040516100989190610629565b60405180910390f35b3480156100ad57600080fd5b506100c860048036038101906100c391906105e3565b6103b9565b6040516100d5919061065f565b60405180910390f35b3480156100ea57600080fd5b506100f36103d9565b005b34801561010157600080fd5b5061011c600480360381019061011791906105e3565b610529565b6040516101299190610629565b60405180910390f35b34801561013e57600080fd5b50610159600480360381019061015491906106a6565b610541565b60405161016691906106e2565b60405180910390f35b60008080549050905060011515600260003373ffffffffffffffffffffffffffffffffffffffff1673ffffffffffffffffffffffffffffffffffffffff16815260200190815260200160002060009054906101000a900460ff161515036101e0576001816101dd919061072c565b90505b80341015610223576040517f08c379a000000000000000000000000000000000000000000000000000000000815260040161021a906107bd565b60405180910390fd5b60008134610231919061080c565b905060005b8281101561036b573373ffffffffffffffffffffffffffffffffffffffff16600082815481106102695761026861083d565b5b9060005260206000200160009054906101000a900473ffffffffffffffffffffffffffffffffffffffff1673ffffffffffffffffffffffffffffffffffffffff16031561035857600081815481106102c4576102c361083d565b5b9060005260206000200160009054906101000a900473ffffffffffffffffffffffffffffffffffffffff1673ffffffffffffffffffffffffffffffffffffffff16826040516103129061089d565b60006040518083038185875af1925050503d806000811461034f576040519150601f19603f3d011682016040523d82523d6000602084013e610354565b606091505b5050505b8080610363906108b2565b915050610236565b505050565b6000600160008373ffffffffffffffffffffffffffffffffffffffff1673ffffffffffffffffffffffffffffffffffffffff168152602001908152602001600020549050919050565b60026020528060005260406000206000915054906101000a900460ff1681565b60001515600260003373ffffffffffffffffffffffffffffffffffffffff1673ffffffffffffffffffffffffffffffffffffffff16815260200190815260200160002060009054906101000a900460ff1615151461046c576040517f08c379a00000000000000000000000000000000000000000000000000000000081526004016104639061096c565b60405180910390fd5b6000339080600181540180825580915050600190039060005260206000200160009091909190916101000a81548173ffffffffffffffffffffffffffffffffffffffff021916908373ffffffffffffffffffffffffffffffffffffffff1602179055506001600260003373ffffffffffffffffffffffffffffffffffffffff1673ffffffffffffffffffffffffffffffffffffffff16815260200190815260200160002060006101000a81548160ff021916908315150217905550565b60016020528060005260406000206000915090505481565b6000818154811061055157600080fd5b906000526020600020016000915054906101000a900473ffffffffffffffffffffffffffffffffffffffff1681565b600080fd5b600073ffffffffffffffffffffffffffffffffffffffff82169050919050565b60006105b082610585565b9050919050565b6105c0816105a5565b81146105cb57600080fd5b50565b6000813590506105dd816105b7565b92915050565b6000602082840312156105f9576105f8610580565b5b6000610607848285016105ce565b91505092915050565b6000819050919050565b61062381610610565b82525050565b600060208201905061063e600083018461061a565b92915050565b60008115159050919050565b61065981610644565b82525050565b60006020820190506106746000830184610650565b92915050565b61068381610610565b811461068e57600080fd5b50565b6000813590506106a08161067a565b92915050565b6000602082840312156106bc576106bb610580565b5b60006106ca84828501610691565b91505092915050565b6106dc816105a5565b82525050565b60006020820190506106f760008301846106d3565b92915050565b7f4e487b7100000000000000000000000000000000000000000000000000000000600052601160045260246000fd5b600061073782610610565b915061074283610610565b925082821015610755576107546106fd565b5b828203905092915050565b600082825260208201905092915050565b7f4e6f7420656e6f7567682045544820666f72207468652061697264726f702100600082015250565b60006107a7601f83610760565b91506107b282610771565b602082019050919050565b600060208201905081810360008301526107d68161079a565b9050919050565b7f4e487b7100000000000000000000000000000000000000000000000000000000600052601260045260246000fd5b600061081782610610565b915061082283610610565b925082610832576108316107dd565b5b828204905092915050565b7f4e487b7100000000000000000000000000000000000000000000000000000000600052603260045260246000fd5b600081905092915050565b50565b600061088760008361086c565b915061089282610877565b600082019050919050565b60006108a88261087a565b9150819050919050565b60006108bd82610610565b91507fffffffffffffffffffffffffffffffffffffffffffffffffffffffffffffffff82036108ef576108ee6106fd565b5b600182019050919050565b7f596f752061726520616c7265616479206f6e20746865206c69737420666f722060008201527f7468652061697264726f7021203e3a2800000000000000000000000000000000602082015250565b6000610956603083610760565b9150610961826108fa565b604082019050919050565b6000602082019050818103600083015261098581610949565b905091905056fea264697066735822122083a8bf8754c4f2fd1bc3dc2dcff15e916ca804aff7267c6dde1734aa522fd6fe64736f6c634300080d0033",
					"opcodes": "PUSH1 0x80 PUSH1 0x40 MSTORE CALLVALUE DUP1 ISZERO PUSH2 0x10 JUMPI PUSH1 0x0 DUP1 REVERT JUMPDEST POP PUSH2 0x9C2 DUP1 PUSH2 0x20 PUSH1 0x0 CODECOPY PUSH1 0x0 RETURN INVALID PUSH1 0x80 PUSH1 0x40 MSTORE PUSH1 0x4 CALLDATASIZE LT PUSH2 0x55 JUMPI PUSH1 0x0 CALLDATALOAD PUSH1 0xE0 SHR DUP1 PUSH4 0x3884D635 EQ PUSH2 0x5A JUMPI DUP1 PUSH4 0x47734892 EQ PUSH2 0x64 JUMPI DUP1 PUSH4 0x7330DAAC EQ PUSH2 0xA1 JUMPI DUP1 PUSH4 0xA11B8E61 EQ PUSH2 0xDE JUMPI DUP1 PUSH4 0xE3D670D7 EQ PUSH2 0xF5 JUMPI DUP1 PUSH4 0xEDF26D9B EQ PUSH2 0x132 JUMPI JUMPDEST PUSH1 0x0 DUP1 REVERT JUMPDEST PUSH2 0x62 PUSH2 0x16F JUMP JUMPDEST STOP JUMPDEST CALLVALUE DUP1 ISZERO PUSH2 0x70 JUMPI PUSH1 0x0 DUP1 REVERT JUMPDEST POP PUSH2 0x8B PUSH1 0x4 DUP1 CALLDATASIZE SUB DUP2 ADD SWAP1 PUSH2 0x86 SWAP2 SWAP1 PUSH2 0x5E3 JUMP JUMPDEST PUSH2 0x370 JUMP JUMPDEST PUSH1 0x40 MLOAD PUSH2 0x98 SWAP2 SWAP1 PUSH2 0x629 JUMP JUMPDEST PUSH1 0x40 MLOAD DUP1 SWAP2 SUB SWAP1 RETURN JUMPDEST CALLVALUE DUP1 ISZERO PUSH2 0xAD JUMPI PUSH1 0x0 DUP1 REVERT JUMPDEST POP PUSH2 0xC8 PUSH1 0x4 DUP1 CALLDATASIZE SUB DUP2 ADD SWAP1 PUSH2 0xC3 SWAP2 SWAP1 PUSH2 0x5E3 JUMP JUMPDEST PUSH2 0x3B9 JUMP JUMPDEST PUSH1 0x40 MLOAD PUSH2 0xD5 SWAP2 SWAP1 PUSH2 0x65F JUMP JUMPDEST PUSH1 0x40 MLOAD DUP1 SWAP2 SUB SWAP1 RETURN JUMPDEST CALLVALUE DUP1 ISZERO PUSH2 0xEA JUMPI PUSH1 0x0 DUP1 REVERT JUMPDEST POP PUSH2 0xF3 PUSH2 0x3D9 JUMP JUMPDEST STOP JUMPDEST CALLVALUE DUP1 ISZERO PUSH2 0x101 JUMPI PUSH1 0x0 DUP1 REVERT JUMPDEST POP PUSH2 0x11C PUSH1 0x4 DUP1 CALLDATASIZE SUB DUP2 ADD SWAP1 PUSH2 0x117 SWAP2 SWAP1 PUSH2 0x5E3 JUMP JUMPDEST PUSH2 0x529 JUMP JUMPDEST PUSH1 0x40 MLOAD PUSH2 0x129 SWAP2 SWAP1 PUSH2 0x629 JUMP JUMPDEST PUSH1 0x40 MLOAD DUP1 SWAP2 SUB SWAP1 RETURN JUMPDEST CALLVALUE DUP1 ISZERO PUSH2 0x13E JUMPI PUSH1 0x0 DUP1 REVERT JUMPDEST POP PUSH2 0x159 PUSH1 0x4 DUP1 CALLDATASIZE SUB DUP2 ADD SWAP1 PUSH2 0x154 SWAP2 SWAP1 PUSH2 0x6A6 JUMP JUMPDEST PUSH2 0x541 JUMP JUMPDEST PUSH1 0x40 MLOAD PUSH2 0x166 SWAP2 SWAP1 PUSH2 0x6E2 JUMP JUMPDEST PUSH1 0x40 MLOAD DUP1 SWAP2 SUB SWAP1 RETURN JUMPDEST PUSH1 0x0 DUP1 DUP1 SLOAD SWAP1 POP SWAP1 POP PUSH1 0x1 ISZERO ISZERO PUSH1 0x2 PUSH1 0x0 CALLER PUSH20 0xFFFFFFFFFFFFFFFFFFFFFFFFFFFFFFFFFFFFFFFF AND PUSH20 0xFFFFFFFFFFFFFFFFFFFFFFFFFFFFFFFFFFFFFFFF AND DUP2 MSTORE PUSH1 0x20 ADD SWAP1 DUP2 MSTORE PUSH1 0x20 ADD PUSH1 0x0 KECCAK256 PUSH1 0x0 SWAP1 SLOAD SWAP1 PUSH2 0x100 EXP SWAP1 DIV PUSH1 0xFF AND ISZERO ISZERO SUB PUSH2 0x1E0 JUMPI PUSH1 0x1 DUP2 PUSH2 0x1DD SWAP2 SWAP1 PUSH2 0x72C JUMP JUMPDEST SWAP1 POP JUMPDEST DUP1 CALLVALUE LT ISZERO PUSH2 0x223 JUMPI PUSH1 0x40 MLOAD PUSH32 0x8C379A000000000000000000000000000000000000000000000000000000000 DUP2 MSTORE PUSH1 0x4 ADD PUSH2 0x21A SWAP1 PUSH2 0x7BD JUMP JUMPDEST PUSH1 0x40 MLOAD DUP1 SWAP2 SUB SWAP1 REVERT JUMPDEST PUSH1 0x0 DUP2 CALLVALUE PUSH2 0x231 SWAP2 SWAP1 PUSH2 0x80C JUMP JUMPDEST SWAP1 POP PUSH1 0x0 JUMPDEST DUP3 DUP2 LT ISZERO PUSH2 0x36B JUMPI CALLER PUSH20 0xFFFFFFFFFFFFFFFFFFFFFFFFFFFFFFFFFFFFFFFF AND PUSH1 0x0 DUP3 DUP2 SLOAD DUP2 LT PUSH2 0x269 JUMPI PUSH2 0x268 PUSH2 0x83D JUMP JUMPDEST JUMPDEST SWAP1 PUSH1 0x0 MSTORE PUSH1 0x20 PUSH1 0x0 KECCAK256 ADD PUSH1 0x0 SWAP1 SLOAD SWAP1 PUSH2 0x100 EXP SWAP1 DIV PUSH20 0xFFFFFFFFFFFFFFFFFFFFFFFFFFFFFFFFFFFFFFFF AND PUSH20 0xFFFFFFFFFFFFFFFFFFFFFFFFFFFFFFFFFFFFFFFF AND SUB ISZERO PUSH2 0x358 JUMPI PUSH1 0x0 DUP2 DUP2 SLOAD DUP2 LT PUSH2 0x2C4 JUMPI PUSH2 0x2C3 PUSH2 0x83D JUMP JUMPDEST JUMPDEST SWAP1 PUSH1 0x0 MSTORE PUSH1 0x20 PUSH1 0x0 KECCAK256 ADD PUSH1 0x0 SWAP1 SLOAD SWAP1 PUSH2 0x100 EXP SWAP1 DIV PUSH20 0xFFFFFFFFFFFFFFFFFFFFFFFFFFFFFFFFFFFFFFFF AND PUSH20 0xFFFFFFFFFFFFFFFFFFFFFFFFFFFFFFFFFFFFFFFF AND DUP3 PUSH1 0x40 MLOAD PUSH2 0x312 SWAP1 PUSH2 0x89D JUMP JUMPDEST PUSH1 0x0 PUSH1 0x40 MLOAD DUP1 DUP4 SUB DUP2 DUP6 DUP8 GAS CALL SWAP3 POP POP POP RETURNDATASIZE DUP1 PUSH1 0x0 DUP2 EQ PUSH2 0x34F JUMPI PUSH1 0x40 MLOAD SWAP2 POP PUSH1 0x1F NOT PUSH1 0x3F RETURNDATASIZE ADD AND DUP3 ADD PUSH1 0x40 MSTORE RETURNDATASIZE DUP3 MSTORE RETURNDATASIZE PUSH1 0x0 PUSH1 0x20 DUP5 ADD RETURNDATACOPY PUSH2 0x354 JUMP JUMPDEST PUSH1 0x60 SWAP2 POP JUMPDEST POP POP POP JUMPDEST DUP1 DUP1 PUSH2 0x363 SWAP1 PUSH2 0x8B2 JUMP JUMPDEST SWAP2 POP POP PUSH2 0x236 JUMP JUMPDEST POP POP POP JUMP JUMPDEST PUSH1 0x0 PUSH1 0x1 PUSH1 0x0 DUP4 PUSH20 0xFFFFFFFFFFFFFFFFFFFFFFFFFFFFFFFFFFFFFFFF AND PUSH20 0xFFFFFFFFFFFFFFFFFFFFFFFFFFFFFFFFFFFFFFFF AND DUP2 MSTORE PUSH1 0x20 ADD SWAP1 DUP2 MSTORE PUSH1 0x20 ADD PUSH1 0x0 KECCAK256 SLOAD SWAP1 POP SWAP2 SWAP1 POP JUMP JUMPDEST PUSH1 0x2 PUSH1 0x20 MSTORE DUP1 PUSH1 0x0 MSTORE PUSH1 0x40 PUSH1 0x0 KECCAK256 PUSH1 0x0 SWAP2 POP SLOAD SWAP1 PUSH2 0x100 EXP SWAP1 DIV PUSH1 0xFF AND DUP2 JUMP JUMPDEST PUSH1 0x0 ISZERO ISZERO PUSH1 0x2 PUSH1 0x0 CALLER PUSH20 0xFFFFFFFFFFFFFFFFFFFFFFFFFFFFFFFFFFFFFFFF AND PUSH20 0xFFFFFFFFFFFFFFFFFFFFFFFFFFFFFFFFFFFFFFFF AND DUP2 MSTORE PUSH1 0x20 ADD SWAP1 DUP2 MSTORE PUSH1 0x20 ADD PUSH1 0x0 KECCAK256 PUSH1 0x0 SWAP1 SLOAD SWAP1 PUSH2 0x100 EXP SWAP1 DIV PUSH1 0xFF AND ISZERO ISZERO EQ PUSH2 0x46C JUMPI PUSH1 0x40 MLOAD PUSH32 0x8C379A000000000000000000000000000000000000000000000000000000000 DUP2 MSTORE PUSH1 0x4 ADD PUSH2 0x463 SWAP1 PUSH2 0x96C JUMP JUMPDEST PUSH1 0x40 MLOAD DUP1 SWAP2 SUB SWAP1 REVERT JUMPDEST PUSH1 0x0 CALLER SWAP1 DUP1 PUSH1 0x1 DUP2 SLOAD ADD DUP1 DUP3 SSTORE DUP1 SWAP2 POP POP PUSH1 0x1 SWAP1 SUB SWAP1 PUSH1 0x0 MSTORE PUSH1 0x20 PUSH1 0x0 KECCAK256 ADD PUSH1 0x0 SWAP1 SWAP2 SWAP1 SWAP2 SWAP1 SWAP2 PUSH2 0x100 EXP DUP2 SLOAD DUP2 PUSH20 0xFFFFFFFFFFFFFFFFFFFFFFFFFFFFFFFFFFFFFFFF MUL NOT AND SWAP1 DUP4 PUSH20 0xFFFFFFFFFFFFFFFFFFFFFFFFFFFFFFFFFFFFFFFF AND MUL OR SWAP1 SSTORE POP PUSH1 0x1 PUSH1 0x2 PUSH1 0x0 CALLER PUSH20 0xFFFFFFFFFFFFFFFFFFFFFFFFFFFFFFFFFFFFFFFF AND PUSH20 0xFFFFFFFFFFFFFFFFFFFFFFFFFFFFFFFFFFFFFFFF AND DUP2 MSTORE PUSH1 0x20 ADD SWAP1 DUP2 MSTORE PUSH1 0x20 ADD PUSH1 0x0 KECCAK256 PUSH1 0x0 PUSH2 0x100 EXP DUP2 SLOAD DUP2 PUSH1 0xFF MUL NOT AND SWAP1 DUP4 ISZERO ISZERO MUL OR SWAP1 SSTORE POP JUMP JUMPDEST PUSH1 0x1 PUSH1 0x20 MSTORE DUP1 PUSH1 0x0 MSTORE PUSH1 0x40 PUSH1 0x0 KECCAK256 PUSH1 0x0 SWAP2 POP SWAP1 POP SLOAD DUP2 JUMP JUMPDEST PUSH1 0x0 DUP2 DUP2 SLOAD DUP2 LT PUSH2 0x551 JUMPI PUSH1 0x0 DUP1 REVERT JUMPDEST SWAP1 PUSH1 0x0 MSTORE PUSH1 0x20 PUSH1 0x0 KECCAK256 ADD PUSH1 0x0 SWAP2 POP SLOAD SWAP1 PUSH2 0x100 EXP SWAP1 DIV PUSH20 0xFFFFFFFFFFFFFFFFFFFFFFFFFFFFFFFFFFFFFFFF AND DUP2 JUMP JUMPDEST PUSH1 0x0 DUP1 REVERT JUMPDEST PUSH1 0x0 PUSH20 0xFFFFFFFFFFFFFFFFFFFFFFFFFFFFFFFFFFFFFFFF DUP3 AND SWAP1 POP SWAP2 SWAP1 POP JUMP JUMPDEST PUSH1 0x0 PUSH2 0x5B0 DUP3 PUSH2 0x585 JUMP JUMPDEST SWAP1 POP SWAP2 SWAP1 POP JUMP JUMPDEST PUSH2 0x5C0 DUP2 PUSH2 0x5A5 JUMP JUMPDEST DUP2 EQ PUSH2 0x5CB JUMPI PUSH1 0x0 DUP1 REVERT JUMPDEST POP JUMP JUMPDEST PUSH1 0x0 DUP2 CALLDATALOAD SWAP1 POP PUSH2 0x5DD DUP2 PUSH2 0x5B7 JUMP JUMPDEST SWAP3 SWAP2 POP POP JUMP JUMPDEST PUSH1 0x0 PUSH1 0x20 DUP3 DUP5 SUB SLT ISZERO PUSH2 0x5F9 JUMPI PUSH2 0x5F8 PUSH2 0x580 JUMP JUMPDEST JUMPDEST PUSH1 0x0 PUSH2 0x607 DUP5 DUP3 DUP6 ADD PUSH2 0x5CE JUMP JUMPDEST SWAP2 POP POP SWAP3 SWAP2 POP POP JUMP JUMPDEST PUSH1 0x0 DUP2 SWAP1 POP SWAP2 SWAP1 POP JUMP JUMPDEST PUSH2 0x623 DUP2 PUSH2 0x610 JUMP JUMPDEST DUP3 MSTORE POP POP JUMP JUMPDEST PUSH1 0x0 PUSH1 0x20 DUP3 ADD SWAP1 POP PUSH2 0x63E PUSH1 0x0 DUP4 ADD DUP5 PUSH2 0x61A JUMP JUMPDEST SWAP3 SWAP2 POP POP JUMP JUMPDEST PUSH1 0x0 DUP2 ISZERO ISZERO SWAP1 POP SWAP2 SWAP1 POP JUMP JUMPDEST PUSH2 0x659 DUP2 PUSH2 0x644 JUMP JUMPDEST DUP3 MSTORE POP POP JUMP JUMPDEST PUSH1 0x0 PUSH1 0x20 DUP3 ADD SWAP1 POP PUSH2 0x674 PUSH1 0x0 DUP4 ADD DUP5 PUSH2 0x650 JUMP JUMPDEST SWAP3 SWAP2 POP POP JUMP JUMPDEST PUSH2 0x683 DUP2 PUSH2 0x610 JUMP JUMPDEST DUP2 EQ PUSH2 0x68E JUMPI PUSH1 0x0 DUP1 REVERT JUMPDEST POP JUMP JUMPDEST PUSH1 0x0 DUP2 CALLDATALOAD SWAP1 POP PUSH2 0x6A0 DUP2 PUSH2 0x67A JUMP JUMPDEST SWAP3 SWAP2 POP POP JUMP JUMPDEST PUSH1 0x0 PUSH1 0x20 DUP3 DUP5 SUB SLT ISZERO PUSH2 0x6BC JUMPI PUSH2 0x6BB PUSH2 0x580 JUMP JUMPDEST JUMPDEST PUSH1 0x0 PUSH2 0x6CA DUP5 DUP3 DUP6 ADD PUSH2 0x691 JUMP JUMPDEST SWAP2 POP POP SWAP3 SWAP2 POP POP JUMP JUMPDEST PUSH2 0x6DC DUP2 PUSH2 0x5A5 JUMP JUMPDEST DUP3 MSTORE POP POP JUMP JUMPDEST PUSH1 0x0 PUSH1 0x20 DUP3 ADD SWAP1 POP PUSH2 0x6F7 PUSH1 0x0 DUP4 ADD DUP5 PUSH2 0x6D3 JUMP JUMPDEST SWAP3 SWAP2 POP POP JUMP JUMPDEST PUSH32 0x4E487B7100000000000000000000000000000000000000000000000000000000 PUSH1 0x0 MSTORE PUSH1 0x11 PUSH1 0x4 MSTORE PUSH1 0x24 PUSH1 0x0 REVERT JUMPDEST PUSH1 0x0 PUSH2 0x737 DUP3 PUSH2 0x610 JUMP JUMPDEST SWAP2 POP PUSH2 0x742 DUP4 PUSH2 0x610 JUMP JUMPDEST SWAP3 POP DUP3 DUP3 LT ISZERO PUSH2 0x755 JUMPI PUSH2 0x754 PUSH2 0x6FD JUMP JUMPDEST JUMPDEST DUP3 DUP3 SUB SWAP1 POP SWAP3 SWAP2 POP POP JUMP JUMPDEST PUSH1 0x0 DUP3 DUP3 MSTORE PUSH1 0x20 DUP3 ADD SWAP1 POP SWAP3 SWAP2 POP POP JUMP JUMPDEST PUSH32 0x4E6F7420656E6F7567682045544820666F72207468652061697264726F702100 PUSH1 0x0 DUP3 ADD MSTORE POP JUMP JUMPDEST PUSH1 0x0 PUSH2 0x7A7 PUSH1 0x1F DUP4 PUSH2 0x760 JUMP JUMPDEST SWAP2 POP PUSH2 0x7B2 DUP3 PUSH2 0x771 JUMP JUMPDEST PUSH1 0x20 DUP3 ADD SWAP1 POP SWAP2 SWAP1 POP JUMP JUMPDEST PUSH1 0x0 PUSH1 0x20 DUP3 ADD SWAP1 POP DUP2 DUP2 SUB PUSH1 0x0 DUP4 ADD MSTORE PUSH2 0x7D6 DUP2 PUSH2 0x79A JUMP JUMPDEST SWAP1 POP SWAP2 SWAP1 POP JUMP JUMPDEST PUSH32 0x4E487B7100000000000000000000000000000000000000000000000000000000 PUSH1 0x0 MSTORE PUSH1 0x12 PUSH1 0x4 MSTORE PUSH1 0x24 PUSH1 0x0 REVERT JUMPDEST PUSH1 0x0 PUSH2 0x817 DUP3 PUSH2 0x610 JUMP JUMPDEST SWAP2 POP PUSH2 0x822 DUP4 PUSH2 0x610 JUMP JUMPDEST SWAP3 POP DUP3 PUSH2 0x832 JUMPI PUSH2 0x831 PUSH2 0x7DD JUMP JUMPDEST JUMPDEST DUP3 DUP3 DIV SWAP1 POP SWAP3 SWAP2 POP POP JUMP JUMPDEST PUSH32 0x4E487B7100000000000000000000000000000000000000000000000000000000 PUSH1 0x0 MSTORE PUSH1 0x32 PUSH1 0x4 MSTORE PUSH1 0x24 PUSH1 0x0 REVERT JUMPDEST PUSH1 0x0 DUP2 SWAP1 POP SWAP3 SWAP2 POP POP JUMP JUMPDEST POP JUMP JUMPDEST PUSH1 0x0 PUSH2 0x887 PUSH1 0x0 DUP4 PUSH2 0x86C JUMP JUMPDEST SWAP2 POP PUSH2 0x892 DUP3 PUSH2 0x877 JUMP JUMPDEST PUSH1 0x0 DUP3 ADD SWAP1 POP SWAP2 SWAP1 POP JUMP JUMPDEST PUSH1 0x0 PUSH2 0x8A8 DUP3 PUSH2 0x87A JUMP JUMPDEST SWAP2 POP DUP2 SWAP1 POP SWAP2 SWAP1 POP JUMP JUMPDEST PUSH1 0x0 PUSH2 0x8BD DUP3 PUSH2 0x610 JUMP JUMPDEST SWAP2 POP PUSH32 0xFFFFFFFFFFFFFFFFFFFFFFFFFFFFFFFFFFFFFFFFFFFFFFFFFFFFFFFFFFFFFFFF DUP3 SUB PUSH2 0x8EF JUMPI PUSH2 0x8EE PUSH2 0x6FD JUMP JUMPDEST JUMPDEST PUSH1 0x1 DUP3 ADD SWAP1 POP SWAP2 SWAP1 POP JUMP JUMPDEST PUSH32 0x596F752061726520616C7265616479206F6E20746865206C69737420666F7220 PUSH1 0x0 DUP3 ADD MSTORE PUSH32 0x7468652061697264726F7021203E3A2800000000000000000000000000000000 PUSH1 0x20 DUP3 ADD MSTORE POP JUMP JUMPDEST PUSH1 0x0 PUSH2 0x956 PUSH1 0x30 DUP4 PUSH2 0x760 JUMP JUMPDEST SWAP2 POP PUSH2 0x961 DUP3 PUSH2 0x8FA JUMP JUMPDEST PUSH1 0x40 DUP3 ADD SWAP1 POP SWAP2 SWAP1 POP JUMP JUMPDEST PUSH1 0x0 PUSH1 0x20 DUP3 ADD SWAP1 POP DUP2 DUP2 SUB PUSH1 0x0 DUP4 ADD MSTORE PUSH2 0x985 DUP2 PUSH2 0x949 JUMP JUMPDEST SWAP1 POP SWAP2 SWAP1 POP JUMP INVALID LOG2 PUSH5 0x6970667358 0x22 SLT KECCAK256 DUP4 0xA8 0xBF DUP8 SLOAD 0xC4 CALLCODE REVERT SHL 0xC3 0xDC 0x2D 0xCF CALL 0x5E SWAP2 PUSH13 0xA804AFF7267C6DDE1734AA522F 0xD6 INVALID PUSH5 0x736F6C6343 STOP ADDMOD 0xD STOP CALLER "
				},
				"gasEstimates": {
					"creation": {
						"codeDepositCost": "499600",
						"executionCost": "537",
						"totalCost": "500137"
					},
					"external": {
						"addresses(uint256)": "5044",
						"airdrop()": "infinite",
						"balance(address)": "2880",
						"getUserBalance(address)": "2841",
						"isOnList(address)": "2867",
						"joinList()": "75382"
					}
				},
				"methodIdentifiers": {
					"addresses(uint256)": "edf26d9b",
					"airdrop()": "3884d635",
					"balance(address)": "e3d670d7",
					"getUserBalance(address)": "47734892",
					"isOnList(address)": "7330daac",
					"joinList()": "a11b8e61"
				}
			},
			"storageLayout": {
				"storage": [
					{
						"astId": 4,
						"contract": "contracts/Week2Day4.sol:Week2Day4",
						"label": "addresses",
						"offset": 0,
						"slot": "0",
						"type": "t_array(t_address)dyn_storage"
					},
					{
						"astId": 8,
						"contract": "contracts/Week2Day4.sol:Week2Day4",
						"label": "balance",
						"offset": 0,
						"slot": "1",
						"type": "t_mapping(t_address,t_uint256)"
					},
					{
						"astId": 12,
						"contract": "contracts/Week2Day4.sol:Week2Day4",
						"label": "isOnList",
						"offset": 0,
						"slot": "2",
						"type": "t_mapping(t_address,t_bool)"
					}
				],
				"types": {
					"t_address": {
						"encoding": "inplace",
						"label": "address",
						"numberOfBytes": "20"
					},
					"t_array(t_address)dyn_storage": {
						"base": "t_address",
						"encoding": "dynamic_array",
						"label": "address[]",
						"numberOfBytes": "32"
					},
					"t_bool": {
						"encoding": "inplace",
						"label": "bool",
						"numberOfBytes": "1"
					},
					"t_mapping(t_address,t_bool)": {
						"encoding": "mapping",
						"key": "t_address",
						"label": "mapping(address => bool)",
						"numberOfBytes": "32",
						"value": "t_bool"
					},
					"t_mapping(t_address,t_uint256)": {
						"encoding": "mapping",
						"key": "t_address",
						"label": "mapping(address => uint256)",
						"numberOfBytes": "32",
						"value": "t_uint256"
					},
					"t_uint256": {
						"encoding": "inplace",
						"label": "uint256",
						"numberOfBytes": "32"
					}
				}
			},
			"userdoc": {
				"kind": "user",
				"methods": {},
				"version": 1
			}
		}
	}
}