{
	"contracts/W3HW.sol": {
		"HWMultiSig": {
			"abi": [
				{
					"inputs": [],
					"stateMutability": "nonpayable",
					"type": "constructor"
				},
				{
					"inputs": [
						{
							"internalType": "address",
							"name": "_newSig",
							"type": "address"
						}
					],
					"name": "addSignatory",
					"outputs": [],
					"stateMutability": "nonpayable",
					"type": "function"
				},
				{
					"inputs": [],
					"name": "approvalsRequired",
					"outputs": [
						{
							"internalType": "uint256",
							"name": "",
							"type": "uint256"
						}
					],
					"stateMutability": "view",
					"type": "function"
				},
				{
					"inputs": [
						{
							"internalType": "uint256",
							"name": "_newApprovalAmount",
							"type": "uint256"
						}
					],
					"name": "changeApprovals",
					"outputs": [],
					"stateMutability": "nonpayable",
					"type": "function"
				},
				{
					"inputs": [],
					"name": "creator",
					"outputs": [
						{
							"internalType": "address",
							"name": "",
							"type": "address"
						}
					],
					"stateMutability": "view",
					"type": "function"
				},
				{
					"inputs": [
						{
							"internalType": "uint256",
							"name": "_index",
							"type": "uint256"
						}
					],
					"name": "executeTX",
					"outputs": [],
					"stateMutability": "nonpayable",
					"type": "function"
				},
				{
					"inputs": [
						{
							"internalType": "uint256",
							"name": "",
							"type": "uint256"
						},
						{
							"internalType": "address",
							"name": "",
							"type": "address"
						}
					],
					"name": "hasVoted",
					"outputs": [
						{
							"internalType": "bool",
							"name": "",
							"type": "bool"
						}
					],
					"stateMutability": "view",
					"type": "function"
				},
				{
					"inputs": [
						{
							"internalType": "address",
							"name": "",
							"type": "address"
						}
					],
					"name": "ownerList",
					"outputs": [
						{
							"internalType": "bool",
							"name": "",
							"type": "bool"
						}
					],
					"stateMutability": "view",
					"type": "function"
				},
				{
					"inputs": [
						{
							"internalType": "uint256",
							"name": "",
							"type": "uint256"
						}
					],
					"name": "owners",
					"outputs": [
						{
							"internalType": "address",
							"name": "",
							"type": "address"
						}
					],
					"stateMutability": "view",
					"type": "function"
				},
				{
					"inputs": [
						{
							"internalType": "address",
							"name": "_sendTo",
							"type": "address"
						},
						{
							"internalType": "uint256",
							"name": "_amount",
							"type": "uint256"
						}
					],
					"name": "proposeTX",
					"outputs": [],
					"stateMutability": "nonpayable",
					"type": "function"
				},
				{
					"inputs": [
						{
							"internalType": "uint256",
							"name": "",
							"type": "uint256"
						}
					],
					"name": "proposedTransactions",
					"outputs": [
						{
							"internalType": "address",
							"name": "sendTo",
							"type": "address"
						},
						{
							"internalType": "uint256",
							"name": "amount",
							"type": "uint256"
						},
						{
							"internalType": "bool",
							"name": "alreadyExecuted",
							"type": "bool"
						},
						{
							"internalType": "uint256",
							"name": "approvals",
							"type": "uint256"
						}
					],
					"stateMutability": "view",
					"type": "function"
				},
				{
					"inputs": [
						{
							"internalType": "uint256",
							"name": "_index",
							"type": "uint256"
						}
					],
					"name": "retractVote",
					"outputs": [],
					"stateMutability": "nonpayable",
					"type": "function"
				},
				{
					"inputs": [
						{
							"internalType": "uint256",
							"name": "_index",
							"type": "uint256"
						}
					],
					"name": "voteTX",
					"outputs": [],
					"stateMutability": "nonpayable",
					"type": "function"
				},
				{
					"stateMutability": "payable",
					"type": "receive"
				}
			],
			"devdoc": {
				"kind": "dev",
				"methods": {},
				"version": 1
			},
			"evm": {
				"assembly": "    /* \"contracts/W3HW.sol\":61:3072  contract HWMultiSig {... */\n  mstore(0x40, 0x80)\n    /* \"contracts/W3HW.sol\":181:182  3 */\n  0x03\n    /* \"contracts/W3HW.sol\":149:182  uint public approvalsRequired = 3 */\n  0x02\n  sstore\n    /* \"contracts/W3HW.sol\":353:479  constructor() {... */\n  callvalue\n  dup1\n  iszero\n  tag_1\n  jumpi\n  0x00\n  dup1\n  revert\ntag_1:\n  pop\n    /* \"contracts/W3HW.sol\":388:398  msg.sender */\n  caller\n    /* \"contracts/W3HW.sol\":378:385  creator */\n  0x00\n  dup1\n    /* \"contracts/W3HW.sol\":378:398  creator = msg.sender */\n  0x0100\n  exp\n  dup2\n  sload\n  dup2\n  0xffffffffffffffffffffffffffffffffffffffff\n  mul\n  not\n  and\n  swap1\n  dup4\n  0xffffffffffffffffffffffffffffffffffffffff\n  and\n  mul\n  or\n  swap1\n  sstore\n  pop\n    /* \"contracts/W3HW.sol\":409:415  owners */\n  0x01\n    /* \"contracts/W3HW.sol\":421:431  msg.sender */\n  caller\n    /* \"contracts/W3HW.sol\":409:432  owners.push(msg.sender) */\n  swap1\n  dup1\n  0x01\n  dup2\n  sload\n  add\n  dup1\n  dup3\n  sstore\n  dup1\n  swap2\n  pop\n  pop\n  0x01\n  swap1\n  sub\n  swap1\n  0x00\n  mstore\n  keccak256(0x00, 0x20)\n  add\n  0x00\n  swap1\n  swap2\n  swap1\n  swap2\n  swap1\n  swap2\n  0x0100\n  exp\n  dup2\n  sload\n  dup2\n  0xffffffffffffffffffffffffffffffffffffffff\n  mul\n  not\n  and\n  swap1\n  dup4\n  0xffffffffffffffffffffffffffffffffffffffff\n  and\n  mul\n  or\n  swap1\n  sstore\n  pop\n    /* \"contracts/W3HW.sol\":467:471  true */\n  0x01\n    /* \"contracts/W3HW.sol\":443:452  ownerList */\n  0x05\n    /* \"contracts/W3HW.sol\":443:464  ownerList[msg.sender] */\n  0x00\n    /* \"contracts/W3HW.sol\":453:463  msg.sender */\n  caller\n    /* \"contracts/W3HW.sol\":443:464  ownerList[msg.sender] */\n  0xffffffffffffffffffffffffffffffffffffffff\n  and\n  0xffffffffffffffffffffffffffffffffffffffff\n  and\n  dup2\n  mstore\n  0x20\n  add\n  swap1\n  dup2\n  mstore\n  0x20\n  add\n  0x00\n  keccak256\n  0x00\n    /* \"contracts/W3HW.sol\":443:471  ownerList[msg.sender] = true */\n  0x0100\n  exp\n  dup2\n  sload\n  dup2\n  0xff\n  mul\n  not\n  and\n  swap1\n  dup4\n  iszero\n  iszero\n  mul\n  or\n  swap1\n  sstore\n  pop\n    /* \"contracts/W3HW.sol\":61:3072  contract HWMultiSig {... */\n  dataSize(sub_0)\n  dup1\n  dataOffset(sub_0)\n  0x00\n  codecopy\n  0x00\n  return\nstop\n\nsub_0: assembly {\n        /* \"contracts/W3HW.sol\":61:3072  contract HWMultiSig {... */\n      mstore(0x40, 0x80)\n      jumpi(tag_1, lt(calldatasize, 0x04))\n      shr(0xe0, calldataload(0x00))\n      dup1\n      0x43859632\n      gt\n      tag_15\n      jumpi\n      dup1\n      0x43859632\n      eq\n      tag_9\n      jumpi\n      dup1\n      0x51f22a72\n      eq\n      tag_10\n      jumpi\n      dup1\n      0xae4c467e\n      eq\n      tag_11\n      jumpi\n      dup1\n      0xc47bd026\n      eq\n      tag_12\n      jumpi\n      dup1\n      0xced5c3f1\n      eq\n      tag_13\n      jumpi\n      dup1\n      0xea1d59c9\n      eq\n      tag_14\n      jumpi\n      jump(tag_2)\n    tag_15:\n      dup1\n      0x025e7c27\n      eq\n      tag_3\n      jumpi\n      dup1\n      0x02d05d3f\n      eq\n      tag_4\n      jumpi\n      dup1\n      0x0e0d798c\n      eq\n      tag_5\n      jumpi\n      dup1\n      0x21dd877f\n      eq\n      tag_6\n      jumpi\n      dup1\n      0x296e5fc3\n      eq\n      tag_7\n      jumpi\n      dup1\n      0x3fa11c97\n      eq\n      tag_8\n      jumpi\n      jump(tag_2)\n    tag_1:\n      jumpi(tag_2, calldatasize)\n      stop\n    tag_2:\n      0x00\n      dup1\n      revert\n        /* \"contracts/W3HW.sol\":119:142  address[] public owners */\n    tag_3:\n      callvalue\n      dup1\n      iszero\n      tag_18\n      jumpi\n      0x00\n      dup1\n      revert\n    tag_18:\n      pop\n      tag_19\n      0x04\n      dup1\n      calldatasize\n      sub\n      dup2\n      add\n      swap1\n      tag_20\n      swap2\n      swap1\n      tag_21\n      jump\t// in\n    tag_20:\n      tag_22\n      jump\t// in\n    tag_19:\n      mload(0x40)\n      tag_23\n      swap2\n      swap1\n      tag_24\n      jump\t// in\n    tag_23:\n      mload(0x40)\n      dup1\n      swap2\n      sub\n      swap1\n      return\n        /* \"contracts/W3HW.sol\":90:112  address public creator */\n    tag_4:\n      callvalue\n      dup1\n      iszero\n      tag_25\n      jumpi\n      0x00\n      dup1\n      revert\n    tag_25:\n      pop\n      tag_26\n      tag_27\n      jump\t// in\n    tag_26:\n      mload(0x40)\n      tag_28\n      swap2\n      swap1\n      tag_24\n      jump\t// in\n    tag_28:\n      mload(0x40)\n      dup1\n      swap2\n      sub\n      swap1\n      return\n        /* \"contracts/W3HW.sol\":191:232  Transaction[] public proposedTransactions */\n    tag_5:\n      callvalue\n      dup1\n      iszero\n      tag_29\n      jumpi\n      0x00\n      dup1\n      revert\n    tag_29:\n      pop\n      tag_30\n      0x04\n      dup1\n      calldatasize\n      sub\n      dup2\n      add\n      swap1\n      tag_31\n      swap2\n      swap1\n      tag_21\n      jump\t// in\n    tag_31:\n      tag_32\n      jump\t// in\n    tag_30:\n      mload(0x40)\n      tag_33\n      swap5\n      swap4\n      swap3\n      swap2\n      swap1\n      tag_34\n      jump\t// in\n    tag_33:\n      mload(0x40)\n      dup1\n      swap2\n      sub\n      swap1\n      return\n        /* \"contracts/W3HW.sol\":2101:2338  function addSignatory(address _newSig) public onlyCreator {... */\n    tag_6:\n      callvalue\n      dup1\n      iszero\n      tag_35\n      jumpi\n      0x00\n      dup1\n      revert\n    tag_35:\n      pop\n      tag_36\n      0x04\n      dup1\n      calldatasize\n      sub\n      dup2\n      add\n      swap1\n      tag_37\n      swap2\n      swap1\n      tag_38\n      jump\t// in\n    tag_37:\n      tag_39\n      jump\t// in\n    tag_36:\n      stop\n        /* \"contracts/W3HW.sol\":1425:2093  function executeTX(uint _index) public onlySigs {... */\n    tag_7:\n      callvalue\n      dup1\n      iszero\n      tag_40\n      jumpi\n      0x00\n      dup1\n      revert\n    tag_40:\n      pop\n      tag_41\n      0x04\n      dup1\n      calldatasize\n      sub\n      dup2\n      add\n      swap1\n      tag_42\n      swap2\n      swap1\n      tag_21\n      jump\t// in\n    tag_42:\n      tag_43\n      jump\t// in\n    tag_41:\n      stop\n        /* \"contracts/W3HW.sol\":1178:1417  function voteTX(uint _index) public onlySigs {... */\n    tag_8:\n      callvalue\n      dup1\n      iszero\n      tag_44\n      jumpi\n      0x00\n      dup1\n      revert\n    tag_44:\n      pop\n      tag_45\n      0x04\n      dup1\n      calldatasize\n      sub\n      dup2\n      add\n      swap1\n      tag_46\n      swap2\n      swap1\n      tag_21\n      jump\t// in\n    tag_46:\n      tag_47\n      jump\t// in\n    tag_45:\n      stop\n        /* \"contracts/W3HW.sol\":239:296  mapping(uint => mapping(address => bool)) public hasVoted */\n    tag_9:\n      callvalue\n      dup1\n      iszero\n      tag_48\n      jumpi\n      0x00\n      dup1\n      revert\n    tag_48:\n      pop\n      tag_49\n      0x04\n      dup1\n      calldatasize\n      sub\n      dup2\n      add\n      swap1\n      tag_50\n      swap2\n      swap1\n      tag_51\n      jump\t// in\n    tag_50:\n      tag_52\n      jump\t// in\n    tag_49:\n      mload(0x40)\n      tag_53\n      swap2\n      swap1\n      tag_54\n      jump\t// in\n    tag_53:\n      mload(0x40)\n      dup1\n      swap2\n      sub\n      swap1\n      return\n        /* \"contracts/W3HW.sol\":303:344  mapping(address => bool) public ownerList */\n    tag_10:\n      callvalue\n      dup1\n      iszero\n      tag_55\n      jumpi\n      0x00\n      dup1\n      revert\n    tag_55:\n      pop\n      tag_56\n      0x04\n      dup1\n      calldatasize\n      sub\n      dup2\n      add\n      swap1\n      tag_57\n      swap2\n      swap1\n      tag_38\n      jump\t// in\n    tag_57:\n      tag_58\n      jump\t// in\n    tag_56:\n      mload(0x40)\n      tag_59\n      swap2\n      swap1\n      tag_54\n      jump\t// in\n    tag_59:\n      mload(0x40)\n      dup1\n      swap2\n      sub\n      swap1\n      return\n        /* \"contracts/W3HW.sol\":2480:2721  function retractVote(uint _index) public onlySigs {... */\n    tag_11:\n      callvalue\n      dup1\n      iszero\n      tag_60\n      jumpi\n      0x00\n      dup1\n      revert\n    tag_60:\n      pop\n      tag_61\n      0x04\n      dup1\n      calldatasize\n      sub\n      dup2\n      add\n      swap1\n      tag_62\n      swap2\n      swap1\n      tag_21\n      jump\t// in\n    tag_62:\n      tag_63\n      jump\t// in\n    tag_61:\n      stop\n        /* \"contracts/W3HW.sol\":2346:2472  function changeApprovals(uint _newApprovalAmount) public onlyCreator {... */\n    tag_12:\n      callvalue\n      dup1\n      iszero\n      tag_64\n      jumpi\n      0x00\n      dup1\n      revert\n    tag_64:\n      pop\n      tag_65\n      0x04\n      dup1\n      calldatasize\n      sub\n      dup2\n      add\n      swap1\n      tag_66\n      swap2\n      swap1\n      tag_21\n      jump\t// in\n    tag_66:\n      tag_67\n      jump\t// in\n    tag_65:\n      stop\n        /* \"contracts/W3HW.sol\":919:1170  function proposeTX(address _sendTo, uint _amount) public {... */\n    tag_13:\n      callvalue\n      dup1\n      iszero\n      tag_68\n      jumpi\n      0x00\n      dup1\n      revert\n    tag_68:\n      pop\n      tag_69\n      0x04\n      dup1\n      calldatasize\n      sub\n      dup2\n      add\n      swap1\n      tag_70\n      swap2\n      swap1\n      tag_71\n      jump\t// in\n    tag_70:\n      tag_72\n      jump\t// in\n    tag_69:\n      stop\n        /* \"contracts/W3HW.sol\":149:182  uint public approvalsRequired = 3 */\n    tag_14:\n      callvalue\n      dup1\n      iszero\n      tag_73\n      jumpi\n      0x00\n      dup1\n      revert\n    tag_73:\n      pop\n      tag_74\n      tag_75\n      jump\t// in\n    tag_74:\n      mload(0x40)\n      tag_76\n      swap2\n      swap1\n      tag_77\n      jump\t// in\n    tag_76:\n      mload(0x40)\n      dup1\n      swap2\n      sub\n      swap1\n      return\n        /* \"contracts/W3HW.sol\":119:142  address[] public owners */\n    tag_22:\n      0x01\n      dup2\n      dup2\n      sload\n      dup2\n      lt\n      tag_78\n      jumpi\n      0x00\n      dup1\n      revert\n    tag_78:\n      swap1\n      0x00\n      mstore\n      keccak256(0x00, 0x20)\n      add\n      0x00\n      swap2\n      pop\n      sload\n      swap1\n      0x0100\n      exp\n      swap1\n      div\n      0xffffffffffffffffffffffffffffffffffffffff\n      and\n      dup2\n      jump\t// out\n        /* \"contracts/W3HW.sol\":90:112  address public creator */\n    tag_27:\n      0x00\n      dup1\n      sload\n      swap1\n      0x0100\n      exp\n      swap1\n      div\n      0xffffffffffffffffffffffffffffffffffffffff\n      and\n      dup2\n      jump\t// out\n        /* \"contracts/W3HW.sol\":191:232  Transaction[] public proposedTransactions */\n    tag_32:\n      0x03\n      dup2\n      dup2\n      sload\n      dup2\n      lt\n      tag_80\n      jumpi\n      0x00\n      dup1\n      revert\n    tag_80:\n      swap1\n      0x00\n      mstore\n      keccak256(0x00, 0x20)\n      swap1\n      0x04\n      mul\n      add\n      0x00\n      swap2\n      pop\n      swap1\n      pop\n      dup1\n      0x00\n      add\n      0x00\n      swap1\n      sload\n      swap1\n      0x0100\n      exp\n      swap1\n      div\n      0xffffffffffffffffffffffffffffffffffffffff\n      and\n      swap1\n      dup1\n      0x01\n      add\n      sload\n      swap1\n      dup1\n      0x02\n      add\n      0x00\n      swap1\n      sload\n      swap1\n      0x0100\n      exp\n      swap1\n      div\n      0xff\n      and\n      swap1\n      dup1\n      0x03\n      add\n      sload\n      swap1\n      pop\n      dup5\n      jump\t// out\n        /* \"contracts/W3HW.sol\":2101:2338  function addSignatory(address _newSig) public onlyCreator {... */\n    tag_39:\n        /* \"contracts/W3HW.sol\":657:664  creator */\n      0x00\n      dup1\n      sload\n      swap1\n      0x0100\n      exp\n      swap1\n      div\n      0xffffffffffffffffffffffffffffffffffffffff\n      and\n        /* \"contracts/W3HW.sol\":643:664  msg.sender == creator */\n      0xffffffffffffffffffffffffffffffffffffffff\n      and\n        /* \"contracts/W3HW.sol\":643:653  msg.sender */\n      caller\n        /* \"contracts/W3HW.sol\":643:664  msg.sender == creator */\n      0xffffffffffffffffffffffffffffffffffffffff\n      and\n      eq\n        /* \"contracts/W3HW.sol\":635:709  require(msg.sender == creator, \"Ah ah ah! You didn't say the magic word!\") */\n      tag_83\n      jumpi\n      mload(0x40)\n      0x08c379a000000000000000000000000000000000000000000000000000000000\n      dup2\n      mstore\n      0x04\n      add\n      tag_84\n      swap1\n      tag_85\n      jump\t// in\n    tag_84:\n      mload(0x40)\n      dup1\n      swap2\n      sub\n      swap1\n      revert\n    tag_83:\n        /* \"contracts/W3HW.sol\":2200:2205  false */\n      0x00\n        /* \"contracts/W3HW.sol\":2178:2205  ownerList[_newSig] == false */\n      iszero\n      iszero\n        /* \"contracts/W3HW.sol\":2178:2187  ownerList */\n      0x05\n        /* \"contracts/W3HW.sol\":2178:2196  ownerList[_newSig] */\n      0x00\n        /* \"contracts/W3HW.sol\":2188:2195  _newSig */\n      dup4\n        /* \"contracts/W3HW.sol\":2178:2196  ownerList[_newSig] */\n      0xffffffffffffffffffffffffffffffffffffffff\n      and\n      0xffffffffffffffffffffffffffffffffffffffff\n      and\n      dup2\n      mstore\n      0x20\n      add\n      swap1\n      dup2\n      mstore\n      0x20\n      add\n      0x00\n      keccak256\n      0x00\n      swap1\n      sload\n      swap1\n      0x0100\n      exp\n      swap1\n      div\n      0xff\n      and\n        /* \"contracts/W3HW.sol\":2178:2205  ownerList[_newSig] == false */\n      iszero\n      iszero\n      eq\n        /* \"contracts/W3HW.sol\":2170:2261  require(ownerList[_newSig] == false, \"This address has already been added as a signatory.\") */\n      tag_87\n      jumpi\n      mload(0x40)\n      0x08c379a000000000000000000000000000000000000000000000000000000000\n      dup2\n      mstore\n      0x04\n      add\n      tag_88\n      swap1\n      tag_89\n      jump\t// in\n    tag_88:\n      mload(0x40)\n      dup1\n      swap2\n      sub\n      swap1\n      revert\n    tag_87:\n        /* \"contracts/W3HW.sol\":2272:2278  owners */\n      0x01\n        /* \"contracts/W3HW.sol\":2284:2291  _newSig */\n      dup2\n        /* \"contracts/W3HW.sol\":2272:2292  owners.push(_newSig) */\n      swap1\n      dup1\n      0x01\n      dup2\n      sload\n      add\n      dup1\n      dup3\n      sstore\n      dup1\n      swap2\n      pop\n      pop\n      0x01\n      swap1\n      sub\n      swap1\n      0x00\n      mstore\n      keccak256(0x00, 0x20)\n      add\n      0x00\n      swap1\n      swap2\n      swap1\n      swap2\n      swap1\n      swap2\n      0x0100\n      exp\n      dup2\n      sload\n      dup2\n      0xffffffffffffffffffffffffffffffffffffffff\n      mul\n      not\n      and\n      swap1\n      dup4\n      0xffffffffffffffffffffffffffffffffffffffff\n      and\n      mul\n      or\n      swap1\n      sstore\n      pop\n        /* \"contracts/W3HW.sol\":2324:2328  true */\n      0x01\n        /* \"contracts/W3HW.sol\":2303:2312  ownerList */\n      0x05\n        /* \"contracts/W3HW.sol\":2303:2321  ownerList[_newSig] */\n      0x00\n        /* \"contracts/W3HW.sol\":2313:2320  _newSig */\n      dup4\n        /* \"contracts/W3HW.sol\":2303:2321  ownerList[_newSig] */\n      0xffffffffffffffffffffffffffffffffffffffff\n      and\n      0xffffffffffffffffffffffffffffffffffffffff\n      and\n      dup2\n      mstore\n      0x20\n      add\n      swap1\n      dup2\n      mstore\n      0x20\n      add\n      0x00\n      keccak256\n      0x00\n        /* \"contracts/W3HW.sol\":2303:2328  ownerList[_newSig] = true */\n      0x0100\n      exp\n      dup2\n      sload\n      dup2\n      0xff\n      mul\n      not\n      and\n      swap1\n      dup4\n      iszero\n      iszero\n      mul\n      or\n      swap1\n      sstore\n      pop\n        /* \"contracts/W3HW.sol\":2101:2338  function addSignatory(address _newSig) public onlyCreator {... */\n      pop\n      jump\t// out\n        /* \"contracts/W3HW.sol\":1425:2093  function executeTX(uint _index) public onlySigs {... */\n    tag_43:\n        /* \"contracts/W3HW.sol\":551:555  true */\n      0x01\n        /* \"contracts/W3HW.sol\":526:555  ownerList[msg.sender] == true */\n      iszero\n      iszero\n        /* \"contracts/W3HW.sol\":526:535  ownerList */\n      0x05\n        /* \"contracts/W3HW.sol\":526:547  ownerList[msg.sender] */\n      0x00\n        /* \"contracts/W3HW.sol\":536:546  msg.sender */\n      caller\n        /* \"contracts/W3HW.sol\":526:547  ownerList[msg.sender] */\n      0xffffffffffffffffffffffffffffffffffffffff\n      and\n      0xffffffffffffffffffffffffffffffffffffffff\n      and\n      dup2\n      mstore\n      0x20\n      add\n      swap1\n      dup2\n      mstore\n      0x20\n      add\n      0x00\n      keccak256\n      0x00\n      swap1\n      sload\n      swap1\n      0x0100\n      exp\n      swap1\n      div\n      0xff\n      and\n        /* \"contracts/W3HW.sol\":526:555  ownerList[msg.sender] == true */\n      iszero\n      iszero\n      eq\n        /* \"contracts/W3HW.sol\":518:573  require(ownerList[msg.sender] == true, \"Not an owner.\") */\n      tag_92\n      jumpi\n      mload(0x40)\n      0x08c379a000000000000000000000000000000000000000000000000000000000\n      dup2\n      mstore\n      0x04\n      add\n      tag_93\n      swap1\n      tag_94\n      jump\t// in\n    tag_93:\n      mload(0x40)\n      dup1\n      swap2\n      sub\n      swap1\n      revert\n    tag_92:\n        /* \"contracts/W3HW.sol\":1534:1551  approvalsRequired */\n      sload(0x02)\n        /* \"contracts/W3HW.sol\":1492:1512  proposedTransactions */\n      0x03\n        /* \"contracts/W3HW.sol\":1513:1519  _index */\n      dup3\n        /* \"contracts/W3HW.sol\":1492:1520  proposedTransactions[_index] */\n      dup2\n      sload\n      dup2\n      lt\n      tag_96\n      jumpi\n      tag_97\n      tag_98\n      jump\t// in\n    tag_97:\n    tag_96:\n      swap1\n      0x00\n      mstore\n      keccak256(0x00, 0x20)\n      swap1\n      0x04\n      mul\n      add\n        /* \"contracts/W3HW.sol\":1492:1530  proposedTransactions[_index].approvals */\n      0x03\n      add\n      sload\n        /* \"contracts/W3HW.sol\":1492:1551  proposedTransactions[_index].approvals >= approvalsRequired */\n      lt\n      iszero\n        /* \"contracts/W3HW.sol\":1484:1596  require(proposedTransactions[_index].approvals >= approvalsRequired, \"Cannot execute Tx. Not enough approvals.\") */\n      tag_100\n      jumpi\n      mload(0x40)\n      0x08c379a000000000000000000000000000000000000000000000000000000000\n      dup2\n      mstore\n      0x04\n      add\n      tag_101\n      swap1\n      tag_102\n      jump\t// in\n    tag_101:\n      mload(0x40)\n      dup1\n      swap2\n      sub\n      swap1\n      revert\n    tag_100:\n        /* \"contracts/W3HW.sol\":1663:1668  false */\n      0x00\n        /* \"contracts/W3HW.sol\":1615:1668  proposedTransactions[_index].alreadyExecuted == false */\n      iszero\n      iszero\n        /* \"contracts/W3HW.sol\":1615:1635  proposedTransactions */\n      0x03\n        /* \"contracts/W3HW.sol\":1636:1642  _index */\n      dup3\n        /* \"contracts/W3HW.sol\":1615:1643  proposedTransactions[_index] */\n      dup2\n      sload\n      dup2\n      lt\n      tag_103\n      jumpi\n      tag_104\n      tag_98\n      jump\t// in\n    tag_104:\n    tag_103:\n      swap1\n      0x00\n      mstore\n      keccak256(0x00, 0x20)\n      swap1\n      0x04\n      mul\n      add\n        /* \"contracts/W3HW.sol\":1615:1659  proposedTransactions[_index].alreadyExecuted */\n      0x02\n      add\n      0x00\n      swap1\n      sload\n      swap1\n      0x0100\n      exp\n      swap1\n      div\n      0xff\n      and\n        /* \"contracts/W3HW.sol\":1615:1668  proposedTransactions[_index].alreadyExecuted == false */\n      iszero\n      iszero\n      eq\n        /* \"contracts/W3HW.sol\":1607:1707  require(proposedTransactions[_index].alreadyExecuted == false, \"This Tx has already been executed.\") */\n      tag_106\n      jumpi\n      mload(0x40)\n      0x08c379a000000000000000000000000000000000000000000000000000000000\n      dup2\n      mstore\n      0x04\n      add\n      tag_107\n      swap1\n      tag_108\n      jump\t// in\n    tag_107:\n      mload(0x40)\n      dup1\n      swap2\n      sub\n      swap1\n      revert\n    tag_106:\n        /* \"contracts/W3HW.sol\":1751:1771  proposedTransactions */\n      0x03\n        /* \"contracts/W3HW.sol\":1772:1778  _index */\n      dup2\n        /* \"contracts/W3HW.sol\":1751:1779  proposedTransactions[_index] */\n      dup2\n      sload\n      dup2\n      lt\n      tag_109\n      jumpi\n      tag_110\n      tag_98\n      jump\t// in\n    tag_110:\n    tag_109:\n      swap1\n      0x00\n      mstore\n      keccak256(0x00, 0x20)\n      swap1\n      0x04\n      mul\n      add\n        /* \"contracts/W3HW.sol\":1751:1786  proposedTransactions[_index].amount */\n      0x01\n      add\n      sload\n        /* \"contracts/W3HW.sol\":1726:1747  address(this).balance */\n      selfbalance\n        /* \"contracts/W3HW.sol\":1726:1786  address(this).balance >= proposedTransactions[_index].amount */\n      lt\n      iszero\n        /* \"contracts/W3HW.sol\":1718:1846  require(address(this).balance >= proposedTransactions[_index].amount, \"Contract does not have large enough balance to send Tx.\") */\n      tag_112\n      jumpi\n      mload(0x40)\n      0x08c379a000000000000000000000000000000000000000000000000000000000\n      dup2\n      mstore\n      0x04\n      add\n      tag_113\n      swap1\n      tag_114\n      jump\t// in\n    tag_113:\n      mload(0x40)\n      dup1\n      swap2\n      sub\n      swap1\n      revert\n    tag_112:\n        /* \"contracts/W3HW.sol\":1860:1872  bool success */\n      0x00\n        /* \"contracts/W3HW.sol\":1877:1897  proposedTransactions */\n      0x03\n        /* \"contracts/W3HW.sol\":1898:1904  _index */\n      dup3\n        /* \"contracts/W3HW.sol\":1877:1905  proposedTransactions[_index] */\n      dup2\n      sload\n      dup2\n      lt\n      tag_115\n      jumpi\n      tag_116\n      tag_98\n      jump\t// in\n    tag_116:\n    tag_115:\n      swap1\n      0x00\n      mstore\n      keccak256(0x00, 0x20)\n      swap1\n      0x04\n      mul\n      add\n        /* \"contracts/W3HW.sol\":1877:1912  proposedTransactions[_index].sendTo */\n      0x00\n      add\n      0x00\n      swap1\n      sload\n      swap1\n      0x0100\n      exp\n      swap1\n      div\n      0xffffffffffffffffffffffffffffffffffffffff\n      and\n        /* \"contracts/W3HW.sol\":1877:1917  proposedTransactions[_index].sendTo.call */\n      0xffffffffffffffffffffffffffffffffffffffff\n      and\n        /* \"contracts/W3HW.sol\":1925:1945  proposedTransactions */\n      0x03\n        /* \"contracts/W3HW.sol\":1946:1952  _index */\n      dup4\n        /* \"contracts/W3HW.sol\":1925:1953  proposedTransactions[_index] */\n      dup2\n      sload\n      dup2\n      lt\n      tag_118\n      jumpi\n      tag_119\n      tag_98\n      jump\t// in\n    tag_119:\n    tag_118:\n      swap1\n      0x00\n      mstore\n      keccak256(0x00, 0x20)\n      swap1\n      0x04\n      mul\n      add\n        /* \"contracts/W3HW.sol\":1925:1960  proposedTransactions[_index].amount */\n      0x01\n      add\n      sload\n        /* \"contracts/W3HW.sol\":1877:1965  proposedTransactions[_index].sendTo.call{value: proposedTransactions[_index].amount}(\"\") */\n      mload(0x40)\n      tag_121\n      swap1\n      tag_122\n      jump\t// in\n    tag_121:\n      0x00\n      mload(0x40)\n      dup1\n      dup4\n      sub\n      dup2\n      dup6\n      dup8\n      gas\n      call\n      swap3\n      pop\n      pop\n      pop\n      returndatasize\n      dup1\n      0x00\n      dup2\n      eq\n      tag_125\n      jumpi\n      mload(0x40)\n      swap2\n      pop\n      and(add(returndatasize, 0x3f), not(0x1f))\n      dup3\n      add\n      0x40\n      mstore\n      returndatasize\n      dup3\n      mstore\n      returndatasize\n      0x00\n      0x20\n      dup5\n      add\n      returndatacopy\n      jump(tag_124)\n    tag_125:\n      0x60\n      swap2\n      pop\n    tag_124:\n      pop\n        /* \"contracts/W3HW.sol\":1859:1965  (bool success,) = proposedTransactions[_index].sendTo.call{value: proposedTransactions[_index].amount}(\"\") */\n      pop\n      swap1\n      pop\n        /* \"contracts/W3HW.sol\":1995:1999  true */\n      0x01\n        /* \"contracts/W3HW.sol\":1984:1999  success == true */\n      iszero\n      iszero\n        /* \"contracts/W3HW.sol\":1984:1991  success */\n      dup2\n        /* \"contracts/W3HW.sol\":1984:1999  success == true */\n      iszero\n      iszero\n      eq\n        /* \"contracts/W3HW.sol\":1976:2013  require(success == true, \"Tx failed\") */\n      tag_126\n      jumpi\n      mload(0x40)\n      0x08c379a000000000000000000000000000000000000000000000000000000000\n      dup2\n      mstore\n      0x04\n      add\n      tag_127\n      swap1\n      tag_128\n      jump\t// in\n    tag_127:\n      mload(0x40)\n      dup1\n      swap2\n      sub\n      swap1\n      revert\n    tag_126:\n        /* \"contracts/W3HW.sol\":2071:2075  true */\n      0x01\n        /* \"contracts/W3HW.sol\":2024:2044  proposedTransactions */\n      0x03\n        /* \"contracts/W3HW.sol\":2045:2051  _index */\n      dup4\n        /* \"contracts/W3HW.sol\":2024:2052  proposedTransactions[_index] */\n      dup2\n      sload\n      dup2\n      lt\n      tag_129\n      jumpi\n      tag_130\n      tag_98\n      jump\t// in\n    tag_130:\n    tag_129:\n      swap1\n      0x00\n      mstore\n      keccak256(0x00, 0x20)\n      swap1\n      0x04\n      mul\n      add\n        /* \"contracts/W3HW.sol\":2024:2068  proposedTransactions[_index].alreadyExecuted */\n      0x02\n      add\n      0x00\n        /* \"contracts/W3HW.sol\":2024:2075  proposedTransactions[_index].alreadyExecuted = true */\n      0x0100\n      exp\n      dup2\n      sload\n      dup2\n      0xff\n      mul\n      not\n      and\n      swap1\n      dup4\n      iszero\n      iszero\n      mul\n      or\n      swap1\n      sstore\n      pop\n        /* \"contracts/W3HW.sol\":1473:2093  {... */\n      pop\n        /* \"contracts/W3HW.sol\":1425:2093  function executeTX(uint _index) public onlySigs {... */\n      pop\n      jump\t// out\n        /* \"contracts/W3HW.sol\":1178:1417  function voteTX(uint _index) public onlySigs {... */\n    tag_47:\n        /* \"contracts/W3HW.sol\":551:555  true */\n      0x01\n        /* \"contracts/W3HW.sol\":526:555  ownerList[msg.sender] == true */\n      iszero\n      iszero\n        /* \"contracts/W3HW.sol\":526:535  ownerList */\n      0x05\n        /* \"contracts/W3HW.sol\":526:547  ownerList[msg.sender] */\n      0x00\n        /* \"contracts/W3HW.sol\":536:546  msg.sender */\n      caller\n        /* \"contracts/W3HW.sol\":526:547  ownerList[msg.sender] */\n      0xffffffffffffffffffffffffffffffffffffffff\n      and\n      0xffffffffffffffffffffffffffffffffffffffff\n      and\n      dup2\n      mstore\n      0x20\n      add\n      swap1\n      dup2\n      mstore\n      0x20\n      add\n      0x00\n      keccak256\n      0x00\n      swap1\n      sload\n      swap1\n      0x0100\n      exp\n      swap1\n      div\n      0xff\n      and\n        /* \"contracts/W3HW.sol\":526:555  ownerList[msg.sender] == true */\n      iszero\n      iszero\n      eq\n        /* \"contracts/W3HW.sol\":518:573  require(ownerList[msg.sender] == true, \"Not an owner.\") */\n      tag_133\n      jumpi\n      mload(0x40)\n      0x08c379a000000000000000000000000000000000000000000000000000000000\n      dup2\n      mstore\n      0x04\n      add\n      tag_134\n      swap1\n      tag_94\n      jump\t// in\n    tag_134:\n      mload(0x40)\n      dup1\n      swap2\n      sub\n      swap1\n      revert\n    tag_133:\n        /* \"contracts/W3HW.sol\":1274:1279  false */\n      0x00\n        /* \"contracts/W3HW.sol\":1242:1279  hasVoted[_index][msg.sender] == false */\n      iszero\n      iszero\n        /* \"contracts/W3HW.sol\":1242:1250  hasVoted */\n      0x04\n        /* \"contracts/W3HW.sol\":1242:1258  hasVoted[_index] */\n      0x00\n        /* \"contracts/W3HW.sol\":1251:1257  _index */\n      dup4\n        /* \"contracts/W3HW.sol\":1242:1258  hasVoted[_index] */\n      dup2\n      mstore\n      0x20\n      add\n      swap1\n      dup2\n      mstore\n      0x20\n      add\n      0x00\n      keccak256\n        /* \"contracts/W3HW.sol\":1242:1270  hasVoted[_index][msg.sender] */\n      0x00\n        /* \"contracts/W3HW.sol\":1259:1269  msg.sender */\n      caller\n        /* \"contracts/W3HW.sol\":1242:1270  hasVoted[_index][msg.sender] */\n      0xffffffffffffffffffffffffffffffffffffffff\n      and\n      0xffffffffffffffffffffffffffffffffffffffff\n      and\n      dup2\n      mstore\n      0x20\n      add\n      swap1\n      dup2\n      mstore\n      0x20\n      add\n      0x00\n      keccak256\n      0x00\n      swap1\n      sload\n      swap1\n      0x0100\n      exp\n      swap1\n      div\n      0xff\n      and\n        /* \"contracts/W3HW.sol\":1242:1279  hasVoted[_index][msg.sender] == false */\n      iszero\n      iszero\n      eq\n        /* \"contracts/W3HW.sol\":1234:1307  require(hasVoted[_index][msg.sender] == false, \"You have already voted.\") */\n      tag_136\n      jumpi\n      mload(0x40)\n      0x08c379a000000000000000000000000000000000000000000000000000000000\n      dup2\n      mstore\n      0x04\n      add\n      tag_137\n      swap1\n      tag_138\n      jump\t// in\n    tag_137:\n      mload(0x40)\n      dup1\n      swap2\n      sub\n      swap1\n      revert\n    tag_136:\n        /* \"contracts/W3HW.sol\":1360:1361  1 */\n      0x01\n        /* \"contracts/W3HW.sol\":1318:1338  proposedTransactions */\n      0x03\n        /* \"contracts/W3HW.sol\":1339:1345  _index */\n      dup3\n        /* \"contracts/W3HW.sol\":1318:1346  proposedTransactions[_index] */\n      dup2\n      sload\n      dup2\n      lt\n      tag_139\n      jumpi\n      tag_140\n      tag_98\n      jump\t// in\n    tag_140:\n    tag_139:\n      swap1\n      0x00\n      mstore\n      keccak256(0x00, 0x20)\n      swap1\n      0x04\n      mul\n      add\n        /* \"contracts/W3HW.sol\":1318:1356  proposedTransactions[_index].approvals */\n      0x03\n      add\n      0x00\n        /* \"contracts/W3HW.sol\":1318:1361  proposedTransactions[_index].approvals += 1 */\n      dup3\n      dup3\n      sload\n      tag_142\n      swap2\n      swap1\n      tag_143\n      jump\t// in\n    tag_142:\n      swap3\n      pop\n      pop\n      dup2\n      swap1\n      sstore\n      pop\n        /* \"contracts/W3HW.sol\":1403:1407  true */\n      0x01\n        /* \"contracts/W3HW.sol\":1372:1380  hasVoted */\n      0x04\n        /* \"contracts/W3HW.sol\":1372:1388  hasVoted[_index] */\n      0x00\n        /* \"contracts/W3HW.sol\":1381:1387  _index */\n      dup4\n        /* \"contracts/W3HW.sol\":1372:1388  hasVoted[_index] */\n      dup2\n      mstore\n      0x20\n      add\n      swap1\n      dup2\n      mstore\n      0x20\n      add\n      0x00\n      keccak256\n        /* \"contracts/W3HW.sol\":1372:1400  hasVoted[_index][msg.sender] */\n      0x00\n        /* \"contracts/W3HW.sol\":1389:1399  msg.sender */\n      caller\n        /* \"contracts/W3HW.sol\":1372:1400  hasVoted[_index][msg.sender] */\n      0xffffffffffffffffffffffffffffffffffffffff\n      and\n      0xffffffffffffffffffffffffffffffffffffffff\n      and\n      dup2\n      mstore\n      0x20\n      add\n      swap1\n      dup2\n      mstore\n      0x20\n      add\n      0x00\n      keccak256\n      0x00\n        /* \"contracts/W3HW.sol\":1372:1407  hasVoted[_index][msg.sender] = true */\n      0x0100\n      exp\n      dup2\n      sload\n      dup2\n      0xff\n      mul\n      not\n      and\n      swap1\n      dup4\n      iszero\n      iszero\n      mul\n      or\n      swap1\n      sstore\n      pop\n        /* \"contracts/W3HW.sol\":1178:1417  function voteTX(uint _index) public onlySigs {... */\n      pop\n      jump\t// out\n        /* \"contracts/W3HW.sol\":239:296  mapping(uint => mapping(address => bool)) public hasVoted */\n    tag_52:\n      mstore(0x20, 0x04)\n      dup2\n      0x00\n      mstore\n      mstore(0x20, keccak256(0x00, 0x40))\n      dup1\n      0x00\n      mstore\n      keccak256(0x00, 0x40)\n      0x00\n      swap2\n      pop\n      swap2\n      pop\n      swap1\n      sload\n      swap1\n      0x0100\n      exp\n      swap1\n      div\n      0xff\n      and\n      dup2\n      jump\t// out\n        /* \"contracts/W3HW.sol\":303:344  mapping(address => bool) public ownerList */\n    tag_58:\n      mstore(0x20, 0x05)\n      dup1\n      0x00\n      mstore\n      keccak256(0x00, 0x40)\n      0x00\n      swap2\n      pop\n      sload\n      swap1\n      0x0100\n      exp\n      swap1\n      div\n      0xff\n      and\n      dup2\n      jump\t// out\n        /* \"contracts/W3HW.sol\":2480:2721  function retractVote(uint _index) public onlySigs {... */\n    tag_63:\n        /* \"contracts/W3HW.sol\":551:555  true */\n      0x01\n        /* \"contracts/W3HW.sol\":526:555  ownerList[msg.sender] == true */\n      iszero\n      iszero\n        /* \"contracts/W3HW.sol\":526:535  ownerList */\n      0x05\n        /* \"contracts/W3HW.sol\":526:547  ownerList[msg.sender] */\n      0x00\n        /* \"contracts/W3HW.sol\":536:546  msg.sender */\n      caller\n        /* \"contracts/W3HW.sol\":526:547  ownerList[msg.sender] */\n      0xffffffffffffffffffffffffffffffffffffffff\n      and\n      0xffffffffffffffffffffffffffffffffffffffff\n      and\n      dup2\n      mstore\n      0x20\n      add\n      swap1\n      dup2\n      mstore\n      0x20\n      add\n      0x00\n      keccak256\n      0x00\n      swap1\n      sload\n      swap1\n      0x0100\n      exp\n      swap1\n      div\n      0xff\n      and\n        /* \"contracts/W3HW.sol\":526:555  ownerList[msg.sender] == true */\n      iszero\n      iszero\n      eq\n        /* \"contracts/W3HW.sol\":518:573  require(ownerList[msg.sender] == true, \"Not an owner.\") */\n      tag_145\n      jumpi\n      mload(0x40)\n      0x08c379a000000000000000000000000000000000000000000000000000000000\n      dup2\n      mstore\n      0x04\n      add\n      tag_146\n      swap1\n      tag_94\n      jump\t// in\n    tag_146:\n      mload(0x40)\n      dup1\n      swap2\n      sub\n      swap1\n      revert\n    tag_145:\n        /* \"contracts/W3HW.sol\":2581:2585  true */\n      0x01\n        /* \"contracts/W3HW.sol\":2549:2585  hasVoted[_index][msg.sender] == true */\n      iszero\n      iszero\n        /* \"contracts/W3HW.sol\":2549:2557  hasVoted */\n      0x04\n        /* \"contracts/W3HW.sol\":2549:2565  hasVoted[_index] */\n      0x00\n        /* \"contracts/W3HW.sol\":2558:2564  _index */\n      dup4\n        /* \"contracts/W3HW.sol\":2549:2565  hasVoted[_index] */\n      dup2\n      mstore\n      0x20\n      add\n      swap1\n      dup2\n      mstore\n      0x20\n      add\n      0x00\n      keccak256\n        /* \"contracts/W3HW.sol\":2549:2577  hasVoted[_index][msg.sender] */\n      0x00\n        /* \"contracts/W3HW.sol\":2566:2576  msg.sender */\n      caller\n        /* \"contracts/W3HW.sol\":2549:2577  hasVoted[_index][msg.sender] */\n      0xffffffffffffffffffffffffffffffffffffffff\n      and\n      0xffffffffffffffffffffffffffffffffffffffff\n      and\n      dup2\n      mstore\n      0x20\n      add\n      swap1\n      dup2\n      mstore\n      0x20\n      add\n      0x00\n      keccak256\n      0x00\n      swap1\n      sload\n      swap1\n      0x0100\n      exp\n      swap1\n      div\n      0xff\n      and\n        /* \"contracts/W3HW.sol\":2549:2585  hasVoted[_index][msg.sender] == true */\n      iszero\n      iszero\n      eq\n        /* \"contracts/W3HW.sol\":2541:2612  require(hasVoted[_index][msg.sender] == true, \"You haven't voted yet!\") */\n      tag_148\n      jumpi\n      mload(0x40)\n      0x08c379a000000000000000000000000000000000000000000000000000000000\n      dup2\n      mstore\n      0x04\n      add\n      tag_149\n      swap1\n      tag_150\n      jump\t// in\n    tag_149:\n      mload(0x40)\n      dup1\n      swap2\n      sub\n      swap1\n      revert\n    tag_148:\n        /* \"contracts/W3HW.sol\":2665:2666  1 */\n      0x01\n        /* \"contracts/W3HW.sol\":2623:2643  proposedTransactions */\n      0x03\n        /* \"contracts/W3HW.sol\":2644:2650  _index */\n      dup3\n        /* \"contracts/W3HW.sol\":2623:2651  proposedTransactions[_index] */\n      dup2\n      sload\n      dup2\n      lt\n      tag_151\n      jumpi\n      tag_152\n      tag_98\n      jump\t// in\n    tag_152:\n    tag_151:\n      swap1\n      0x00\n      mstore\n      keccak256(0x00, 0x20)\n      swap1\n      0x04\n      mul\n      add\n        /* \"contracts/W3HW.sol\":2623:2661  proposedTransactions[_index].approvals */\n      0x03\n      add\n      0x00\n        /* \"contracts/W3HW.sol\":2623:2666  proposedTransactions[_index].approvals -= 1 */\n      dup3\n      dup3\n      sload\n      tag_154\n      swap2\n      swap1\n      tag_155\n      jump\t// in\n    tag_154:\n      swap3\n      pop\n      pop\n      dup2\n      swap1\n      sstore\n      pop\n        /* \"contracts/W3HW.sol\":2708:2713  false */\n      0x00\n        /* \"contracts/W3HW.sol\":2677:2685  hasVoted */\n      0x04\n        /* \"contracts/W3HW.sol\":2677:2693  hasVoted[_index] */\n      0x00\n        /* \"contracts/W3HW.sol\":2686:2692  _index */\n      dup4\n        /* \"contracts/W3HW.sol\":2677:2693  hasVoted[_index] */\n      dup2\n      mstore\n      0x20\n      add\n      swap1\n      dup2\n      mstore\n      0x20\n      add\n      0x00\n      keccak256\n        /* \"contracts/W3HW.sol\":2677:2705  hasVoted[_index][msg.sender] */\n      0x00\n        /* \"contracts/W3HW.sol\":2694:2704  msg.sender */\n      caller\n        /* \"contracts/W3HW.sol\":2677:2705  hasVoted[_index][msg.sender] */\n      0xffffffffffffffffffffffffffffffffffffffff\n      and\n      0xffffffffffffffffffffffffffffffffffffffff\n      and\n      dup2\n      mstore\n      0x20\n      add\n      swap1\n      dup2\n      mstore\n      0x20\n      add\n      0x00\n      keccak256\n      0x00\n        /* \"contracts/W3HW.sol\":2677:2713  hasVoted[_index][msg.sender] = false */\n      0x0100\n      exp\n      dup2\n      sload\n      dup2\n      0xff\n      mul\n      not\n      and\n      swap1\n      dup4\n      iszero\n      iszero\n      mul\n      or\n      swap1\n      sstore\n      pop\n        /* \"contracts/W3HW.sol\":2480:2721  function retractVote(uint _index) public onlySigs {... */\n      pop\n      jump\t// out\n        /* \"contracts/W3HW.sol\":2346:2472  function changeApprovals(uint _newApprovalAmount) public onlyCreator {... */\n    tag_67:\n        /* \"contracts/W3HW.sol\":657:664  creator */\n      0x00\n      dup1\n      sload\n      swap1\n      0x0100\n      exp\n      swap1\n      div\n      0xffffffffffffffffffffffffffffffffffffffff\n      and\n        /* \"contracts/W3HW.sol\":643:664  msg.sender == creator */\n      0xffffffffffffffffffffffffffffffffffffffff\n      and\n        /* \"contracts/W3HW.sol\":643:653  msg.sender */\n      caller\n        /* \"contracts/W3HW.sol\":643:664  msg.sender == creator */\n      0xffffffffffffffffffffffffffffffffffffffff\n      and\n      eq\n        /* \"contracts/W3HW.sol\":635:709  require(msg.sender == creator, \"Ah ah ah! You didn't say the magic word!\") */\n      tag_157\n      jumpi\n      mload(0x40)\n      0x08c379a000000000000000000000000000000000000000000000000000000000\n      dup2\n      mstore\n      0x04\n      add\n      tag_158\n      swap1\n      tag_85\n      jump\t// in\n    tag_158:\n      mload(0x40)\n      dup1\n      swap2\n      sub\n      swap1\n      revert\n    tag_157:\n        /* \"contracts/W3HW.sol\":2446:2464  _newApprovalAmount */\n      dup1\n        /* \"contracts/W3HW.sol\":2426:2443  approvalsRequired */\n      0x02\n        /* \"contracts/W3HW.sol\":2426:2464  approvalsRequired = _newApprovalAmount */\n      dup2\n      swap1\n      sstore\n      pop\n        /* \"contracts/W3HW.sol\":2346:2472  function changeApprovals(uint _newApprovalAmount) public onlyCreator {... */\n      pop\n      jump\t// out\n        /* \"contracts/W3HW.sol\":919:1170  function proposeTX(address _sendTo, uint _amount) public {... */\n    tag_72:\n        /* \"contracts/W3HW.sol\":987:1007  proposedTransactions */\n      0x03\n        /* \"contracts/W3HW.sol\":1013:1161  Transaction({... */\n      mload(0x40)\n      dup1\n      0x80\n      add\n      0x40\n      mstore\n      dup1\n        /* \"contracts/W3HW.sol\":1048:1055  _sendTo */\n      dup5\n        /* \"contracts/W3HW.sol\":1013:1161  Transaction({... */\n      0xffffffffffffffffffffffffffffffffffffffff\n      and\n      dup2\n      mstore\n      0x20\n      add\n        /* \"contracts/W3HW.sol\":1078:1085  _amount */\n      dup4\n        /* \"contracts/W3HW.sol\":1013:1161  Transaction({... */\n      dup2\n      mstore\n      0x20\n      add\n        /* \"contracts/W3HW.sol\":1117:1122  false */\n      0x00\n        /* \"contracts/W3HW.sol\":1013:1161  Transaction({... */\n      iszero\n      iszero\n      dup2\n      mstore\n      0x20\n      add\n        /* \"contracts/W3HW.sol\":1148:1149  0 */\n      0x00\n        /* \"contracts/W3HW.sol\":1013:1161  Transaction({... */\n      dup2\n      mstore\n      pop\n        /* \"contracts/W3HW.sol\":987:1162  proposedTransactions.push(Transaction({... */\n      swap1\n      dup1\n      0x01\n      dup2\n      sload\n      add\n      dup1\n      dup3\n      sstore\n      dup1\n      swap2\n      pop\n      pop\n      0x01\n      swap1\n      sub\n      swap1\n      0x00\n      mstore\n      keccak256(0x00, 0x20)\n      swap1\n      0x04\n      mul\n      add\n      0x00\n      swap1\n      swap2\n      swap1\n      swap2\n      swap1\n      swap2\n      pop\n      0x00\n      dup3\n      add\n      mload\n      dup2\n      0x00\n      add\n      exp(0x0100, 0x00)\n      dup2\n      sload\n      dup2\n      0xffffffffffffffffffffffffffffffffffffffff\n      mul\n      not\n      and\n      swap1\n      dup4\n      0xffffffffffffffffffffffffffffffffffffffff\n      and\n      mul\n      or\n      swap1\n      sstore\n      pop\n      0x20\n      dup3\n      add\n      mload\n      dup2\n      0x01\n      add\n      sstore\n      0x40\n      dup3\n      add\n      mload\n      dup2\n      0x02\n      add\n      exp(0x0100, 0x00)\n      dup2\n      sload\n      dup2\n      0xff\n      mul\n      not\n      and\n      swap1\n      dup4\n      iszero\n      iszero\n      mul\n      or\n      swap1\n      sstore\n      pop\n      0x60\n      dup3\n      add\n      mload\n      dup2\n      0x03\n      add\n      sstore\n      pop\n      pop\n        /* \"contracts/W3HW.sol\":919:1170  function proposeTX(address _sendTo, uint _amount) public {... */\n      pop\n      pop\n      jump\t// out\n        /* \"contracts/W3HW.sol\":149:182  uint public approvalsRequired = 3 */\n    tag_75:\n      sload(0x02)\n      dup2\n      jump\t// out\n        /* \"#utility.yul\":88:205   */\n    tag_163:\n        /* \"#utility.yul\":197:198   */\n      0x00\n        /* \"#utility.yul\":194:195   */\n      dup1\n        /* \"#utility.yul\":187:199   */\n      revert\n        /* \"#utility.yul\":334:411   */\n    tag_165:\n        /* \"#utility.yul\":371:378   */\n      0x00\n        /* \"#utility.yul\":400:405   */\n      dup2\n        /* \"#utility.yul\":389:405   */\n      swap1\n      pop\n        /* \"#utility.yul\":334:411   */\n      swap2\n      swap1\n      pop\n      jump\t// out\n        /* \"#utility.yul\":417:539   */\n    tag_166:\n        /* \"#utility.yul\":490:514   */\n      tag_205\n        /* \"#utility.yul\":508:513   */\n      dup2\n        /* \"#utility.yul\":490:514   */\n      tag_165\n      jump\t// in\n    tag_205:\n        /* \"#utility.yul\":483:488   */\n      dup2\n        /* \"#utility.yul\":480:515   */\n      eq\n        /* \"#utility.yul\":470:533   */\n      tag_206\n      jumpi\n        /* \"#utility.yul\":529:530   */\n      0x00\n        /* \"#utility.yul\":526:527   */\n      dup1\n        /* \"#utility.yul\":519:531   */\n      revert\n        /* \"#utility.yul\":470:533   */\n    tag_206:\n        /* \"#utility.yul\":417:539   */\n      pop\n      jump\t// out\n        /* \"#utility.yul\":545:684   */\n    tag_167:\n        /* \"#utility.yul\":591:596   */\n      0x00\n        /* \"#utility.yul\":629:635   */\n      dup2\n        /* \"#utility.yul\":616:636   */\n      calldataload\n        /* \"#utility.yul\":607:636   */\n      swap1\n      pop\n        /* \"#utility.yul\":645:678   */\n      tag_208\n        /* \"#utility.yul\":672:677   */\n      dup2\n        /* \"#utility.yul\":645:678   */\n      tag_166\n      jump\t// in\n    tag_208:\n        /* \"#utility.yul\":545:684   */\n      swap3\n      swap2\n      pop\n      pop\n      jump\t// out\n        /* \"#utility.yul\":690:1019   */\n    tag_21:\n        /* \"#utility.yul\":749:755   */\n      0x00\n        /* \"#utility.yul\":798:800   */\n      0x20\n        /* \"#utility.yul\":786:795   */\n      dup3\n        /* \"#utility.yul\":777:784   */\n      dup5\n        /* \"#utility.yul\":773:796   */\n      sub\n        /* \"#utility.yul\":769:801   */\n      slt\n        /* \"#utility.yul\":766:885   */\n      iszero\n      tag_210\n      jumpi\n        /* \"#utility.yul\":804:883   */\n      tag_211\n      tag_163\n      jump\t// in\n    tag_211:\n        /* \"#utility.yul\":766:885   */\n    tag_210:\n        /* \"#utility.yul\":924:925   */\n      0x00\n        /* \"#utility.yul\":949:1002   */\n      tag_212\n        /* \"#utility.yul\":994:1001   */\n      dup5\n        /* \"#utility.yul\":985:991   */\n      dup3\n        /* \"#utility.yul\":974:983   */\n      dup6\n        /* \"#utility.yul\":970:992   */\n      add\n        /* \"#utility.yul\":949:1002   */\n      tag_167\n      jump\t// in\n    tag_212:\n        /* \"#utility.yul\":939:1002   */\n      swap2\n      pop\n        /* \"#utility.yul\":895:1012   */\n      pop\n        /* \"#utility.yul\":690:1019   */\n      swap3\n      swap2\n      pop\n      pop\n      jump\t// out\n        /* \"#utility.yul\":1025:1151   */\n    tag_168:\n        /* \"#utility.yul\":1062:1069   */\n      0x00\n        /* \"#utility.yul\":1102:1144   */\n      0xffffffffffffffffffffffffffffffffffffffff\n        /* \"#utility.yul\":1095:1100   */\n      dup3\n        /* \"#utility.yul\":1091:1145   */\n      and\n        /* \"#utility.yul\":1080:1145   */\n      swap1\n      pop\n        /* \"#utility.yul\":1025:1151   */\n      swap2\n      swap1\n      pop\n      jump\t// out\n        /* \"#utility.yul\":1157:1253   */\n    tag_169:\n        /* \"#utility.yul\":1194:1201   */\n      0x00\n        /* \"#utility.yul\":1223:1247   */\n      tag_215\n        /* \"#utility.yul\":1241:1246   */\n      dup3\n        /* \"#utility.yul\":1223:1247   */\n      tag_168\n      jump\t// in\n    tag_215:\n        /* \"#utility.yul\":1212:1247   */\n      swap1\n      pop\n        /* \"#utility.yul\":1157:1253   */\n      swap2\n      swap1\n      pop\n      jump\t// out\n        /* \"#utility.yul\":1259:1377   */\n    tag_170:\n        /* \"#utility.yul\":1346:1370   */\n      tag_217\n        /* \"#utility.yul\":1364:1369   */\n      dup2\n        /* \"#utility.yul\":1346:1370   */\n      tag_169\n      jump\t// in\n    tag_217:\n        /* \"#utility.yul\":1341:1344   */\n      dup3\n        /* \"#utility.yul\":1334:1371   */\n      mstore\n        /* \"#utility.yul\":1259:1377   */\n      pop\n      pop\n      jump\t// out\n        /* \"#utility.yul\":1383:1605   */\n    tag_24:\n        /* \"#utility.yul\":1476:1480   */\n      0x00\n        /* \"#utility.yul\":1514:1516   */\n      0x20\n        /* \"#utility.yul\":1503:1512   */\n      dup3\n        /* \"#utility.yul\":1499:1517   */\n      add\n        /* \"#utility.yul\":1491:1517   */\n      swap1\n      pop\n        /* \"#utility.yul\":1527:1598   */\n      tag_219\n        /* \"#utility.yul\":1595:1596   */\n      0x00\n        /* \"#utility.yul\":1584:1593   */\n      dup4\n        /* \"#utility.yul\":1580:1597   */\n      add\n        /* \"#utility.yul\":1571:1577   */\n      dup5\n        /* \"#utility.yul\":1527:1598   */\n      tag_170\n      jump\t// in\n    tag_219:\n        /* \"#utility.yul\":1383:1605   */\n      swap3\n      swap2\n      pop\n      pop\n      jump\t// out\n        /* \"#utility.yul\":1611:1729   */\n    tag_171:\n        /* \"#utility.yul\":1698:1722   */\n      tag_221\n        /* \"#utility.yul\":1716:1721   */\n      dup2\n        /* \"#utility.yul\":1698:1722   */\n      tag_165\n      jump\t// in\n    tag_221:\n        /* \"#utility.yul\":1693:1696   */\n      dup3\n        /* \"#utility.yul\":1686:1723   */\n      mstore\n        /* \"#utility.yul\":1611:1729   */\n      pop\n      pop\n      jump\t// out\n        /* \"#utility.yul\":1735:1825   */\n    tag_172:\n        /* \"#utility.yul\":1769:1776   */\n      0x00\n        /* \"#utility.yul\":1812:1817   */\n      dup2\n        /* \"#utility.yul\":1805:1818   */\n      iszero\n        /* \"#utility.yul\":1798:1819   */\n      iszero\n        /* \"#utility.yul\":1787:1819   */\n      swap1\n      pop\n        /* \"#utility.yul\":1735:1825   */\n      swap2\n      swap1\n      pop\n      jump\t// out\n        /* \"#utility.yul\":1831:1940   */\n    tag_173:\n        /* \"#utility.yul\":1912:1933   */\n      tag_224\n        /* \"#utility.yul\":1927:1932   */\n      dup2\n        /* \"#utility.yul\":1912:1933   */\n      tag_172\n      jump\t// in\n    tag_224:\n        /* \"#utility.yul\":1907:1910   */\n      dup3\n        /* \"#utility.yul\":1900:1934   */\n      mstore\n        /* \"#utility.yul\":1831:1940   */\n      pop\n      pop\n      jump\t// out\n        /* \"#utility.yul\":1946:2487   */\n    tag_34:\n        /* \"#utility.yul\":2117:2121   */\n      0x00\n        /* \"#utility.yul\":2155:2158   */\n      0x80\n        /* \"#utility.yul\":2144:2153   */\n      dup3\n        /* \"#utility.yul\":2140:2159   */\n      add\n        /* \"#utility.yul\":2132:2159   */\n      swap1\n      pop\n        /* \"#utility.yul\":2169:2240   */\n      tag_226\n        /* \"#utility.yul\":2237:2238   */\n      0x00\n        /* \"#utility.yul\":2226:2235   */\n      dup4\n        /* \"#utility.yul\":2222:2239   */\n      add\n        /* \"#utility.yul\":2213:2219   */\n      dup8\n        /* \"#utility.yul\":2169:2240   */\n      tag_170\n      jump\t// in\n    tag_226:\n        /* \"#utility.yul\":2250:2322   */\n      tag_227\n        /* \"#utility.yul\":2318:2320   */\n      0x20\n        /* \"#utility.yul\":2307:2316   */\n      dup4\n        /* \"#utility.yul\":2303:2321   */\n      add\n        /* \"#utility.yul\":2294:2300   */\n      dup7\n        /* \"#utility.yul\":2250:2322   */\n      tag_171\n      jump\t// in\n    tag_227:\n        /* \"#utility.yul\":2332:2398   */\n      tag_228\n        /* \"#utility.yul\":2394:2396   */\n      0x40\n        /* \"#utility.yul\":2383:2392   */\n      dup4\n        /* \"#utility.yul\":2379:2397   */\n      add\n        /* \"#utility.yul\":2370:2376   */\n      dup6\n        /* \"#utility.yul\":2332:2398   */\n      tag_173\n      jump\t// in\n    tag_228:\n        /* \"#utility.yul\":2408:2480   */\n      tag_229\n        /* \"#utility.yul\":2476:2478   */\n      0x60\n        /* \"#utility.yul\":2465:2474   */\n      dup4\n        /* \"#utility.yul\":2461:2479   */\n      add\n        /* \"#utility.yul\":2452:2458   */\n      dup5\n        /* \"#utility.yul\":2408:2480   */\n      tag_171\n      jump\t// in\n    tag_229:\n        /* \"#utility.yul\":1946:2487   */\n      swap6\n      swap5\n      pop\n      pop\n      pop\n      pop\n      pop\n      jump\t// out\n        /* \"#utility.yul\":2493:2615   */\n    tag_174:\n        /* \"#utility.yul\":2566:2590   */\n      tag_231\n        /* \"#utility.yul\":2584:2589   */\n      dup2\n        /* \"#utility.yul\":2566:2590   */\n      tag_169\n      jump\t// in\n    tag_231:\n        /* \"#utility.yul\":2559:2564   */\n      dup2\n        /* \"#utility.yul\":2556:2591   */\n      eq\n        /* \"#utility.yul\":2546:2609   */\n      tag_232\n      jumpi\n        /* \"#utility.yul\":2605:2606   */\n      0x00\n        /* \"#utility.yul\":2602:2603   */\n      dup1\n        /* \"#utility.yul\":2595:2607   */\n      revert\n        /* \"#utility.yul\":2546:2609   */\n    tag_232:\n        /* \"#utility.yul\":2493:2615   */\n      pop\n      jump\t// out\n        /* \"#utility.yul\":2621:2760   */\n    tag_175:\n        /* \"#utility.yul\":2667:2672   */\n      0x00\n        /* \"#utility.yul\":2705:2711   */\n      dup2\n        /* \"#utility.yul\":2692:2712   */\n      calldataload\n        /* \"#utility.yul\":2683:2712   */\n      swap1\n      pop\n        /* \"#utility.yul\":2721:2754   */\n      tag_234\n        /* \"#utility.yul\":2748:2753   */\n      dup2\n        /* \"#utility.yul\":2721:2754   */\n      tag_174\n      jump\t// in\n    tag_234:\n        /* \"#utility.yul\":2621:2760   */\n      swap3\n      swap2\n      pop\n      pop\n      jump\t// out\n        /* \"#utility.yul\":2766:3095   */\n    tag_38:\n        /* \"#utility.yul\":2825:2831   */\n      0x00\n        /* \"#utility.yul\":2874:2876   */\n      0x20\n        /* \"#utility.yul\":2862:2871   */\n      dup3\n        /* \"#utility.yul\":2853:2860   */\n      dup5\n        /* \"#utility.yul\":2849:2872   */\n      sub\n        /* \"#utility.yul\":2845:2877   */\n      slt\n        /* \"#utility.yul\":2842:2961   */\n      iszero\n      tag_236\n      jumpi\n        /* \"#utility.yul\":2880:2959   */\n      tag_237\n      tag_163\n      jump\t// in\n    tag_237:\n        /* \"#utility.yul\":2842:2961   */\n    tag_236:\n        /* \"#utility.yul\":3000:3001   */\n      0x00\n        /* \"#utility.yul\":3025:3078   */\n      tag_238\n        /* \"#utility.yul\":3070:3077   */\n      dup5\n        /* \"#utility.yul\":3061:3067   */\n      dup3\n        /* \"#utility.yul\":3050:3059   */\n      dup6\n        /* \"#utility.yul\":3046:3068   */\n      add\n        /* \"#utility.yul\":3025:3078   */\n      tag_175\n      jump\t// in\n    tag_238:\n        /* \"#utility.yul\":3015:3078   */\n      swap2\n      pop\n        /* \"#utility.yul\":2971:3088   */\n      pop\n        /* \"#utility.yul\":2766:3095   */\n      swap3\n      swap2\n      pop\n      pop\n      jump\t// out\n        /* \"#utility.yul\":3101:3575   */\n    tag_51:\n        /* \"#utility.yul\":3169:3175   */\n      0x00\n        /* \"#utility.yul\":3177:3183   */\n      dup1\n        /* \"#utility.yul\":3226:3228   */\n      0x40\n        /* \"#utility.yul\":3214:3223   */\n      dup4\n        /* \"#utility.yul\":3205:3212   */\n      dup6\n        /* \"#utility.yul\":3201:3224   */\n      sub\n        /* \"#utility.yul\":3197:3229   */\n      slt\n        /* \"#utility.yul\":3194:3313   */\n      iszero\n      tag_240\n      jumpi\n        /* \"#utility.yul\":3232:3311   */\n      tag_241\n      tag_163\n      jump\t// in\n    tag_241:\n        /* \"#utility.yul\":3194:3313   */\n    tag_240:\n        /* \"#utility.yul\":3352:3353   */\n      0x00\n        /* \"#utility.yul\":3377:3430   */\n      tag_242\n        /* \"#utility.yul\":3422:3429   */\n      dup6\n        /* \"#utility.yul\":3413:3419   */\n      dup3\n        /* \"#utility.yul\":3402:3411   */\n      dup7\n        /* \"#utility.yul\":3398:3420   */\n      add\n        /* \"#utility.yul\":3377:3430   */\n      tag_167\n      jump\t// in\n    tag_242:\n        /* \"#utility.yul\":3367:3430   */\n      swap3\n      pop\n        /* \"#utility.yul\":3323:3440   */\n      pop\n        /* \"#utility.yul\":3479:3481   */\n      0x20\n        /* \"#utility.yul\":3505:3558   */\n      tag_243\n        /* \"#utility.yul\":3550:3557   */\n      dup6\n        /* \"#utility.yul\":3541:3547   */\n      dup3\n        /* \"#utility.yul\":3530:3539   */\n      dup7\n        /* \"#utility.yul\":3526:3548   */\n      add\n        /* \"#utility.yul\":3505:3558   */\n      tag_175\n      jump\t// in\n    tag_243:\n        /* \"#utility.yul\":3495:3558   */\n      swap2\n      pop\n        /* \"#utility.yul\":3450:3568   */\n      pop\n        /* \"#utility.yul\":3101:3575   */\n      swap3\n      pop\n      swap3\n      swap1\n      pop\n      jump\t// out\n        /* \"#utility.yul\":3581:3791   */\n    tag_54:\n        /* \"#utility.yul\":3668:3672   */\n      0x00\n        /* \"#utility.yul\":3706:3708   */\n      0x20\n        /* \"#utility.yul\":3695:3704   */\n      dup3\n        /* \"#utility.yul\":3691:3709   */\n      add\n        /* \"#utility.yul\":3683:3709   */\n      swap1\n      pop\n        /* \"#utility.yul\":3719:3784   */\n      tag_245\n        /* \"#utility.yul\":3781:3782   */\n      0x00\n        /* \"#utility.yul\":3770:3779   */\n      dup4\n        /* \"#utility.yul\":3766:3783   */\n      add\n        /* \"#utility.yul\":3757:3763   */\n      dup5\n        /* \"#utility.yul\":3719:3784   */\n      tag_173\n      jump\t// in\n    tag_245:\n        /* \"#utility.yul\":3581:3791   */\n      swap3\n      swap2\n      pop\n      pop\n      jump\t// out\n        /* \"#utility.yul\":3797:4271   */\n    tag_71:\n        /* \"#utility.yul\":3865:3871   */\n      0x00\n        /* \"#utility.yul\":3873:3879   */\n      dup1\n        /* \"#utility.yul\":3922:3924   */\n      0x40\n        /* \"#utility.yul\":3910:3919   */\n      dup4\n        /* \"#utility.yul\":3901:3908   */\n      dup6\n        /* \"#utility.yul\":3897:3920   */\n      sub\n        /* \"#utility.yul\":3893:3925   */\n      slt\n        /* \"#utility.yul\":3890:4009   */\n      iszero\n      tag_247\n      jumpi\n        /* \"#utility.yul\":3928:4007   */\n      tag_248\n      tag_163\n      jump\t// in\n    tag_248:\n        /* \"#utility.yul\":3890:4009   */\n    tag_247:\n        /* \"#utility.yul\":4048:4049   */\n      0x00\n        /* \"#utility.yul\":4073:4126   */\n      tag_249\n        /* \"#utility.yul\":4118:4125   */\n      dup6\n        /* \"#utility.yul\":4109:4115   */\n      dup3\n        /* \"#utility.yul\":4098:4107   */\n      dup7\n        /* \"#utility.yul\":4094:4116   */\n      add\n        /* \"#utility.yul\":4073:4126   */\n      tag_175\n      jump\t// in\n    tag_249:\n        /* \"#utility.yul\":4063:4126   */\n      swap3\n      pop\n        /* \"#utility.yul\":4019:4136   */\n      pop\n        /* \"#utility.yul\":4175:4177   */\n      0x20\n        /* \"#utility.yul\":4201:4254   */\n      tag_250\n        /* \"#utility.yul\":4246:4253   */\n      dup6\n        /* \"#utility.yul\":4237:4243   */\n      dup3\n        /* \"#utility.yul\":4226:4235   */\n      dup7\n        /* \"#utility.yul\":4222:4244   */\n      add\n        /* \"#utility.yul\":4201:4254   */\n      tag_167\n      jump\t// in\n    tag_250:\n        /* \"#utility.yul\":4191:4254   */\n      swap2\n      pop\n        /* \"#utility.yul\":4146:4264   */\n      pop\n        /* \"#utility.yul\":3797:4271   */\n      swap3\n      pop\n      swap3\n      swap1\n      pop\n      jump\t// out\n        /* \"#utility.yul\":4277:4499   */\n    tag_77:\n        /* \"#utility.yul\":4370:4374   */\n      0x00\n        /* \"#utility.yul\":4408:4410   */\n      0x20\n        /* \"#utility.yul\":4397:4406   */\n      dup3\n        /* \"#utility.yul\":4393:4411   */\n      add\n        /* \"#utility.yul\":4385:4411   */\n      swap1\n      pop\n        /* \"#utility.yul\":4421:4492   */\n      tag_252\n        /* \"#utility.yul\":4489:4490   */\n      0x00\n        /* \"#utility.yul\":4478:4487   */\n      dup4\n        /* \"#utility.yul\":4474:4491   */\n      add\n        /* \"#utility.yul\":4465:4471   */\n      dup5\n        /* \"#utility.yul\":4421:4492   */\n      tag_171\n      jump\t// in\n    tag_252:\n        /* \"#utility.yul\":4277:4499   */\n      swap3\n      swap2\n      pop\n      pop\n      jump\t// out\n        /* \"#utility.yul\":4505:4674   */\n    tag_176:\n        /* \"#utility.yul\":4589:4600   */\n      0x00\n        /* \"#utility.yul\":4623:4629   */\n      dup3\n        /* \"#utility.yul\":4618:4621   */\n      dup3\n        /* \"#utility.yul\":4611:4630   */\n      mstore\n        /* \"#utility.yul\":4663:4667   */\n      0x20\n        /* \"#utility.yul\":4658:4661   */\n      dup3\n        /* \"#utility.yul\":4654:4668   */\n      add\n        /* \"#utility.yul\":4639:4668   */\n      swap1\n      pop\n        /* \"#utility.yul\":4505:4674   */\n      swap3\n      swap2\n      pop\n      pop\n      jump\t// out\n        /* \"#utility.yul\":4680:4907   */\n    tag_177:\n        /* \"#utility.yul\":4820:4854   */\n      0x41682061682061682120596f75206469646e27742073617920746865206d6167\n        /* \"#utility.yul\":4816:4817   */\n      0x00\n        /* \"#utility.yul\":4808:4814   */\n      dup3\n        /* \"#utility.yul\":4804:4818   */\n      add\n        /* \"#utility.yul\":4797:4855   */\n      mstore\n        /* \"#utility.yul\":4889:4899   */\n      0x696320776f726421000000000000000000000000000000000000000000000000\n        /* \"#utility.yul\":4884:4886   */\n      0x20\n        /* \"#utility.yul\":4876:4882   */\n      dup3\n        /* \"#utility.yul\":4872:4887   */\n      add\n        /* \"#utility.yul\":4865:4900   */\n      mstore\n        /* \"#utility.yul\":4680:4907   */\n      pop\n      jump\t// out\n        /* \"#utility.yul\":4913:5279   */\n    tag_178:\n        /* \"#utility.yul\":5055:5058   */\n      0x00\n        /* \"#utility.yul\":5076:5143   */\n      tag_256\n        /* \"#utility.yul\":5140:5142   */\n      0x28\n        /* \"#utility.yul\":5135:5138   */\n      dup4\n        /* \"#utility.yul\":5076:5143   */\n      tag_176\n      jump\t// in\n    tag_256:\n        /* \"#utility.yul\":5069:5143   */\n      swap2\n      pop\n        /* \"#utility.yul\":5152:5245   */\n      tag_257\n        /* \"#utility.yul\":5241:5244   */\n      dup3\n        /* \"#utility.yul\":5152:5245   */\n      tag_177\n      jump\t// in\n    tag_257:\n        /* \"#utility.yul\":5270:5272   */\n      0x40\n        /* \"#utility.yul\":5265:5268   */\n      dup3\n        /* \"#utility.yul\":5261:5273   */\n      add\n        /* \"#utility.yul\":5254:5273   */\n      swap1\n      pop\n        /* \"#utility.yul\":4913:5279   */\n      swap2\n      swap1\n      pop\n      jump\t// out\n        /* \"#utility.yul\":5285:5704   */\n    tag_85:\n        /* \"#utility.yul\":5451:5455   */\n      0x00\n        /* \"#utility.yul\":5489:5491   */\n      0x20\n        /* \"#utility.yul\":5478:5487   */\n      dup3\n        /* \"#utility.yul\":5474:5492   */\n      add\n        /* \"#utility.yul\":5466:5492   */\n      swap1\n      pop\n        /* \"#utility.yul\":5538:5547   */\n      dup2\n        /* \"#utility.yul\":5532:5536   */\n      dup2\n        /* \"#utility.yul\":5528:5548   */\n      sub\n        /* \"#utility.yul\":5524:5525   */\n      0x00\n        /* \"#utility.yul\":5513:5522   */\n      dup4\n        /* \"#utility.yul\":5509:5526   */\n      add\n        /* \"#utility.yul\":5502:5549   */\n      mstore\n        /* \"#utility.yul\":5566:5697   */\n      tag_259\n        /* \"#utility.yul\":5692:5696   */\n      dup2\n        /* \"#utility.yul\":5566:5697   */\n      tag_178\n      jump\t// in\n    tag_259:\n        /* \"#utility.yul\":5558:5697   */\n      swap1\n      pop\n        /* \"#utility.yul\":5285:5704   */\n      swap2\n      swap1\n      pop\n      jump\t// out\n        /* \"#utility.yul\":5710:5948   */\n    tag_179:\n        /* \"#utility.yul\":5850:5884   */\n      0x5468697320616464726573732068617320616c7265616479206265656e206164\n        /* \"#utility.yul\":5846:5847   */\n      0x00\n        /* \"#utility.yul\":5838:5844   */\n      dup3\n        /* \"#utility.yul\":5834:5848   */\n      add\n        /* \"#utility.yul\":5827:5885   */\n      mstore\n        /* \"#utility.yul\":5919:5940   */\n      0x6465642061732061207369676e61746f72792e00000000000000000000000000\n        /* \"#utility.yul\":5914:5916   */\n      0x20\n        /* \"#utility.yul\":5906:5912   */\n      dup3\n        /* \"#utility.yul\":5902:5917   */\n      add\n        /* \"#utility.yul\":5895:5941   */\n      mstore\n        /* \"#utility.yul\":5710:5948   */\n      pop\n      jump\t// out\n        /* \"#utility.yul\":5954:6320   */\n    tag_180:\n        /* \"#utility.yul\":6096:6099   */\n      0x00\n        /* \"#utility.yul\":6117:6184   */\n      tag_262\n        /* \"#utility.yul\":6181:6183   */\n      0x33\n        /* \"#utility.yul\":6176:6179   */\n      dup4\n        /* \"#utility.yul\":6117:6184   */\n      tag_176\n      jump\t// in\n    tag_262:\n        /* \"#utility.yul\":6110:6184   */\n      swap2\n      pop\n        /* \"#utility.yul\":6193:6286   */\n      tag_263\n        /* \"#utility.yul\":6282:6285   */\n      dup3\n        /* \"#utility.yul\":6193:6286   */\n      tag_179\n      jump\t// in\n    tag_263:\n        /* \"#utility.yul\":6311:6313   */\n      0x40\n        /* \"#utility.yul\":6306:6309   */\n      dup3\n        /* \"#utility.yul\":6302:6314   */\n      add\n        /* \"#utility.yul\":6295:6314   */\n      swap1\n      pop\n        /* \"#utility.yul\":5954:6320   */\n      swap2\n      swap1\n      pop\n      jump\t// out\n        /* \"#utility.yul\":6326:6745   */\n    tag_89:\n        /* \"#utility.yul\":6492:6496   */\n      0x00\n        /* \"#utility.yul\":6530:6532   */\n      0x20\n        /* \"#utility.yul\":6519:6528   */\n      dup3\n        /* \"#utility.yul\":6515:6533   */\n      add\n        /* \"#utility.yul\":6507:6533   */\n      swap1\n      pop\n        /* \"#utility.yul\":6579:6588   */\n      dup2\n        /* \"#utility.yul\":6573:6577   */\n      dup2\n        /* \"#utility.yul\":6569:6589   */\n      sub\n        /* \"#utility.yul\":6565:6566   */\n      0x00\n        /* \"#utility.yul\":6554:6563   */\n      dup4\n        /* \"#utility.yul\":6550:6567   */\n      add\n        /* \"#utility.yul\":6543:6590   */\n      mstore\n        /* \"#utility.yul\":6607:6738   */\n      tag_265\n        /* \"#utility.yul\":6733:6737   */\n      dup2\n        /* \"#utility.yul\":6607:6738   */\n      tag_180\n      jump\t// in\n    tag_265:\n        /* \"#utility.yul\":6599:6738   */\n      swap1\n      pop\n        /* \"#utility.yul\":6326:6745   */\n      swap2\n      swap1\n      pop\n      jump\t// out\n        /* \"#utility.yul\":6751:6914   */\n    tag_181:\n        /* \"#utility.yul\":6891:6906   */\n      0x4e6f7420616e206f776e65722e00000000000000000000000000000000000000\n        /* \"#utility.yul\":6887:6888   */\n      0x00\n        /* \"#utility.yul\":6879:6885   */\n      dup3\n        /* \"#utility.yul\":6875:6889   */\n      add\n        /* \"#utility.yul\":6868:6907   */\n      mstore\n        /* \"#utility.yul\":6751:6914   */\n      pop\n      jump\t// out\n        /* \"#utility.yul\":6920:7286   */\n    tag_182:\n        /* \"#utility.yul\":7062:7065   */\n      0x00\n        /* \"#utility.yul\":7083:7150   */\n      tag_268\n        /* \"#utility.yul\":7147:7149   */\n      0x0d\n        /* \"#utility.yul\":7142:7145   */\n      dup4\n        /* \"#utility.yul\":7083:7150   */\n      tag_176\n      jump\t// in\n    tag_268:\n        /* \"#utility.yul\":7076:7150   */\n      swap2\n      pop\n        /* \"#utility.yul\":7159:7252   */\n      tag_269\n        /* \"#utility.yul\":7248:7251   */\n      dup3\n        /* \"#utility.yul\":7159:7252   */\n      tag_181\n      jump\t// in\n    tag_269:\n        /* \"#utility.yul\":7277:7279   */\n      0x20\n        /* \"#utility.yul\":7272:7275   */\n      dup3\n        /* \"#utility.yul\":7268:7280   */\n      add\n        /* \"#utility.yul\":7261:7280   */\n      swap1\n      pop\n        /* \"#utility.yul\":6920:7286   */\n      swap2\n      swap1\n      pop\n      jump\t// out\n        /* \"#utility.yul\":7292:7711   */\n    tag_94:\n        /* \"#utility.yul\":7458:7462   */\n      0x00\n        /* \"#utility.yul\":7496:7498   */\n      0x20\n        /* \"#utility.yul\":7485:7494   */\n      dup3\n        /* \"#utility.yul\":7481:7499   */\n      add\n        /* \"#utility.yul\":7473:7499   */\n      swap1\n      pop\n        /* \"#utility.yul\":7545:7554   */\n      dup2\n        /* \"#utility.yul\":7539:7543   */\n      dup2\n        /* \"#utility.yul\":7535:7555   */\n      sub\n        /* \"#utility.yul\":7531:7532   */\n      0x00\n        /* \"#utility.yul\":7520:7529   */\n      dup4\n        /* \"#utility.yul\":7516:7533   */\n      add\n        /* \"#utility.yul\":7509:7556   */\n      mstore\n        /* \"#utility.yul\":7573:7704   */\n      tag_271\n        /* \"#utility.yul\":7699:7703   */\n      dup2\n        /* \"#utility.yul\":7573:7704   */\n      tag_182\n      jump\t// in\n    tag_271:\n        /* \"#utility.yul\":7565:7704   */\n      swap1\n      pop\n        /* \"#utility.yul\":7292:7711   */\n      swap2\n      swap1\n      pop\n      jump\t// out\n        /* \"#utility.yul\":7717:7897   */\n    tag_98:\n        /* \"#utility.yul\":7765:7842   */\n      0x4e487b7100000000000000000000000000000000000000000000000000000000\n        /* \"#utility.yul\":7762:7763   */\n      0x00\n        /* \"#utility.yul\":7755:7843   */\n      mstore\n        /* \"#utility.yul\":7862:7866   */\n      0x32\n        /* \"#utility.yul\":7859:7860   */\n      0x04\n        /* \"#utility.yul\":7852:7867   */\n      mstore\n        /* \"#utility.yul\":7886:7890   */\n      0x24\n        /* \"#utility.yul\":7883:7884   */\n      0x00\n        /* \"#utility.yul\":7876:7891   */\n      revert\n        /* \"#utility.yul\":7903:8130   */\n    tag_183:\n        /* \"#utility.yul\":8043:8077   */\n      0x43616e6e6f7420657865637574652054782e204e6f7420656e6f756768206170\n        /* \"#utility.yul\":8039:8040   */\n      0x00\n        /* \"#utility.yul\":8031:8037   */\n      dup3\n        /* \"#utility.yul\":8027:8041   */\n      add\n        /* \"#utility.yul\":8020:8078   */\n      mstore\n        /* \"#utility.yul\":8112:8122   */\n      0x70726f76616c732e000000000000000000000000000000000000000000000000\n        /* \"#utility.yul\":8107:8109   */\n      0x20\n        /* \"#utility.yul\":8099:8105   */\n      dup3\n        /* \"#utility.yul\":8095:8110   */\n      add\n        /* \"#utility.yul\":8088:8123   */\n      mstore\n        /* \"#utility.yul\":7903:8130   */\n      pop\n      jump\t// out\n        /* \"#utility.yul\":8136:8502   */\n    tag_184:\n        /* \"#utility.yul\":8278:8281   */\n      0x00\n        /* \"#utility.yul\":8299:8366   */\n      tag_275\n        /* \"#utility.yul\":8363:8365   */\n      0x28\n        /* \"#utility.yul\":8358:8361   */\n      dup4\n        /* \"#utility.yul\":8299:8366   */\n      tag_176\n      jump\t// in\n    tag_275:\n        /* \"#utility.yul\":8292:8366   */\n      swap2\n      pop\n        /* \"#utility.yul\":8375:8468   */\n      tag_276\n        /* \"#utility.yul\":8464:8467   */\n      dup3\n        /* \"#utility.yul\":8375:8468   */\n      tag_183\n      jump\t// in\n    tag_276:\n        /* \"#utility.yul\":8493:8495   */\n      0x40\n        /* \"#utility.yul\":8488:8491   */\n      dup3\n        /* \"#utility.yul\":8484:8496   */\n      add\n        /* \"#utility.yul\":8477:8496   */\n      swap1\n      pop\n        /* \"#utility.yul\":8136:8502   */\n      swap2\n      swap1\n      pop\n      jump\t// out\n        /* \"#utility.yul\":8508:8927   */\n    tag_102:\n        /* \"#utility.yul\":8674:8678   */\n      0x00\n        /* \"#utility.yul\":8712:8714   */\n      0x20\n        /* \"#utility.yul\":8701:8710   */\n      dup3\n        /* \"#utility.yul\":8697:8715   */\n      add\n        /* \"#utility.yul\":8689:8715   */\n      swap1\n      pop\n        /* \"#utility.yul\":8761:8770   */\n      dup2\n        /* \"#utility.yul\":8755:8759   */\n      dup2\n        /* \"#utility.yul\":8751:8771   */\n      sub\n        /* \"#utility.yul\":8747:8748   */\n      0x00\n        /* \"#utility.yul\":8736:8745   */\n      dup4\n        /* \"#utility.yul\":8732:8749   */\n      add\n        /* \"#utility.yul\":8725:8772   */\n      mstore\n        /* \"#utility.yul\":8789:8920   */\n      tag_278\n        /* \"#utility.yul\":8915:8919   */\n      dup2\n        /* \"#utility.yul\":8789:8920   */\n      tag_184\n      jump\t// in\n    tag_278:\n        /* \"#utility.yul\":8781:8920   */\n      swap1\n      pop\n        /* \"#utility.yul\":8508:8927   */\n      swap2\n      swap1\n      pop\n      jump\t// out\n        /* \"#utility.yul\":8933:9154   */\n    tag_185:\n        /* \"#utility.yul\":9073:9107   */\n      0x546869732054782068617320616c7265616479206265656e2065786563757465\n        /* \"#utility.yul\":9069:9070   */\n      0x00\n        /* \"#utility.yul\":9061:9067   */\n      dup3\n        /* \"#utility.yul\":9057:9071   */\n      add\n        /* \"#utility.yul\":9050:9108   */\n      mstore\n        /* \"#utility.yul\":9142:9146   */\n      0x642e000000000000000000000000000000000000000000000000000000000000\n        /* \"#utility.yul\":9137:9139   */\n      0x20\n        /* \"#utility.yul\":9129:9135   */\n      dup3\n        /* \"#utility.yul\":9125:9140   */\n      add\n        /* \"#utility.yul\":9118:9147   */\n      mstore\n        /* \"#utility.yul\":8933:9154   */\n      pop\n      jump\t// out\n        /* \"#utility.yul\":9160:9526   */\n    tag_186:\n        /* \"#utility.yul\":9302:9305   */\n      0x00\n        /* \"#utility.yul\":9323:9390   */\n      tag_281\n        /* \"#utility.yul\":9387:9389   */\n      0x22\n        /* \"#utility.yul\":9382:9385   */\n      dup4\n        /* \"#utility.yul\":9323:9390   */\n      tag_176\n      jump\t// in\n    tag_281:\n        /* \"#utility.yul\":9316:9390   */\n      swap2\n      pop\n        /* \"#utility.yul\":9399:9492   */\n      tag_282\n        /* \"#utility.yul\":9488:9491   */\n      dup3\n        /* \"#utility.yul\":9399:9492   */\n      tag_185\n      jump\t// in\n    tag_282:\n        /* \"#utility.yul\":9517:9519   */\n      0x40\n        /* \"#utility.yul\":9512:9515   */\n      dup3\n        /* \"#utility.yul\":9508:9520   */\n      add\n        /* \"#utility.yul\":9501:9520   */\n      swap1\n      pop\n        /* \"#utility.yul\":9160:9526   */\n      swap2\n      swap1\n      pop\n      jump\t// out\n        /* \"#utility.yul\":9532:9951   */\n    tag_108:\n        /* \"#utility.yul\":9698:9702   */\n      0x00\n        /* \"#utility.yul\":9736:9738   */\n      0x20\n        /* \"#utility.yul\":9725:9734   */\n      dup3\n        /* \"#utility.yul\":9721:9739   */\n      add\n        /* \"#utility.yul\":9713:9739   */\n      swap1\n      pop\n        /* \"#utility.yul\":9785:9794   */\n      dup2\n        /* \"#utility.yul\":9779:9783   */\n      dup2\n        /* \"#utility.yul\":9775:9795   */\n      sub\n        /* \"#utility.yul\":9771:9772   */\n      0x00\n        /* \"#utility.yul\":9760:9769   */\n      dup4\n        /* \"#utility.yul\":9756:9773   */\n      add\n        /* \"#utility.yul\":9749:9796   */\n      mstore\n        /* \"#utility.yul\":9813:9944   */\n      tag_284\n        /* \"#utility.yul\":9939:9943   */\n      dup2\n        /* \"#utility.yul\":9813:9944   */\n      tag_186\n      jump\t// in\n    tag_284:\n        /* \"#utility.yul\":9805:9944   */\n      swap1\n      pop\n        /* \"#utility.yul\":9532:9951   */\n      swap2\n      swap1\n      pop\n      jump\t// out\n        /* \"#utility.yul\":9957:10199   */\n    tag_187:\n        /* \"#utility.yul\":10097:10131   */\n      0x436f6e747261637420646f6573206e6f742068617665206c6172676520656e6f\n        /* \"#utility.yul\":10093:10094   */\n      0x00\n        /* \"#utility.yul\":10085:10091   */\n      dup3\n        /* \"#utility.yul\":10081:10095   */\n      add\n        /* \"#utility.yul\":10074:10132   */\n      mstore\n        /* \"#utility.yul\":10166:10191   */\n      0x7567682062616c616e636520746f2073656e642054782e000000000000000000\n        /* \"#utility.yul\":10161:10163   */\n      0x20\n        /* \"#utility.yul\":10153:10159   */\n      dup3\n        /* \"#utility.yul\":10149:10164   */\n      add\n        /* \"#utility.yul\":10142:10192   */\n      mstore\n        /* \"#utility.yul\":9957:10199   */\n      pop\n      jump\t// out\n        /* \"#utility.yul\":10205:10571   */\n    tag_188:\n        /* \"#utility.yul\":10347:10350   */\n      0x00\n        /* \"#utility.yul\":10368:10435   */\n      tag_287\n        /* \"#utility.yul\":10432:10434   */\n      0x37\n        /* \"#utility.yul\":10427:10430   */\n      dup4\n        /* \"#utility.yul\":10368:10435   */\n      tag_176\n      jump\t// in\n    tag_287:\n        /* \"#utility.yul\":10361:10435   */\n      swap2\n      pop\n        /* \"#utility.yul\":10444:10537   */\n      tag_288\n        /* \"#utility.yul\":10533:10536   */\n      dup3\n        /* \"#utility.yul\":10444:10537   */\n      tag_187\n      jump\t// in\n    tag_288:\n        /* \"#utility.yul\":10562:10564   */\n      0x40\n        /* \"#utility.yul\":10557:10560   */\n      dup3\n        /* \"#utility.yul\":10553:10565   */\n      add\n        /* \"#utility.yul\":10546:10565   */\n      swap1\n      pop\n        /* \"#utility.yul\":10205:10571   */\n      swap2\n      swap1\n      pop\n      jump\t// out\n        /* \"#utility.yul\":10577:10996   */\n    tag_114:\n        /* \"#utility.yul\":10743:10747   */\n      0x00\n        /* \"#utility.yul\":10781:10783   */\n      0x20\n        /* \"#utility.yul\":10770:10779   */\n      dup3\n        /* \"#utility.yul\":10766:10784   */\n      add\n        /* \"#utility.yul\":10758:10784   */\n      swap1\n      pop\n        /* \"#utility.yul\":10830:10839   */\n      dup2\n        /* \"#utility.yul\":10824:10828   */\n      dup2\n        /* \"#utility.yul\":10820:10840   */\n      sub\n        /* \"#utility.yul\":10816:10817   */\n      0x00\n        /* \"#utility.yul\":10805:10814   */\n      dup4\n        /* \"#utility.yul\":10801:10818   */\n      add\n        /* \"#utility.yul\":10794:10841   */\n      mstore\n        /* \"#utility.yul\":10858:10989   */\n      tag_290\n        /* \"#utility.yul\":10984:10988   */\n      dup2\n        /* \"#utility.yul\":10858:10989   */\n      tag_188\n      jump\t// in\n    tag_290:\n        /* \"#utility.yul\":10850:10989   */\n      swap1\n      pop\n        /* \"#utility.yul\":10577:10996   */\n      swap2\n      swap1\n      pop\n      jump\t// out\n        /* \"#utility.yul\":11002:11149   */\n    tag_189:\n        /* \"#utility.yul\":11103:11114   */\n      0x00\n        /* \"#utility.yul\":11140:11143   */\n      dup2\n        /* \"#utility.yul\":11125:11143   */\n      swap1\n      pop\n        /* \"#utility.yul\":11002:11149   */\n      swap3\n      swap2\n      pop\n      pop\n      jump\t// out\n        /* \"#utility.yul\":11155:11269   */\n    tag_190:\n      pop\n      jump\t// out\n        /* \"#utility.yul\":11275:11673   */\n    tag_191:\n        /* \"#utility.yul\":11434:11437   */\n      0x00\n        /* \"#utility.yul\":11455:11538   */\n      tag_294\n        /* \"#utility.yul\":11536:11537   */\n      0x00\n        /* \"#utility.yul\":11531:11534   */\n      dup4\n        /* \"#utility.yul\":11455:11538   */\n      tag_189\n      jump\t// in\n    tag_294:\n        /* \"#utility.yul\":11448:11538   */\n      swap2\n      pop\n        /* \"#utility.yul\":11547:11640   */\n      tag_295\n        /* \"#utility.yul\":11636:11639   */\n      dup3\n        /* \"#utility.yul\":11547:11640   */\n      tag_190\n      jump\t// in\n    tag_295:\n        /* \"#utility.yul\":11665:11666   */\n      0x00\n        /* \"#utility.yul\":11660:11663   */\n      dup3\n        /* \"#utility.yul\":11656:11667   */\n      add\n        /* \"#utility.yul\":11649:11667   */\n      swap1\n      pop\n        /* \"#utility.yul\":11275:11673   */\n      swap2\n      swap1\n      pop\n      jump\t// out\n        /* \"#utility.yul\":11679:12058   */\n    tag_122:\n        /* \"#utility.yul\":11863:11866   */\n      0x00\n        /* \"#utility.yul\":11885:12032   */\n      tag_297\n        /* \"#utility.yul\":12028:12031   */\n      dup3\n        /* \"#utility.yul\":11885:12032   */\n      tag_191\n      jump\t// in\n    tag_297:\n        /* \"#utility.yul\":11878:12032   */\n      swap2\n      pop\n        /* \"#utility.yul\":12049:12052   */\n      dup2\n        /* \"#utility.yul\":12042:12052   */\n      swap1\n      pop\n        /* \"#utility.yul\":11679:12058   */\n      swap2\n      swap1\n      pop\n      jump\t// out\n        /* \"#utility.yul\":12064:12223   */\n    tag_192:\n        /* \"#utility.yul\":12204:12215   */\n      0x5478206661696c65640000000000000000000000000000000000000000000000\n        /* \"#utility.yul\":12200:12201   */\n      0x00\n        /* \"#utility.yul\":12192:12198   */\n      dup3\n        /* \"#utility.yul\":12188:12202   */\n      add\n        /* \"#utility.yul\":12181:12216   */\n      mstore\n        /* \"#utility.yul\":12064:12223   */\n      pop\n      jump\t// out\n        /* \"#utility.yul\":12229:12594   */\n    tag_193:\n        /* \"#utility.yul\":12371:12374   */\n      0x00\n        /* \"#utility.yul\":12392:12458   */\n      tag_300\n        /* \"#utility.yul\":12456:12457   */\n      0x09\n        /* \"#utility.yul\":12451:12454   */\n      dup4\n        /* \"#utility.yul\":12392:12458   */\n      tag_176\n      jump\t// in\n    tag_300:\n        /* \"#utility.yul\":12385:12458   */\n      swap2\n      pop\n        /* \"#utility.yul\":12467:12560   */\n      tag_301\n        /* \"#utility.yul\":12556:12559   */\n      dup3\n        /* \"#utility.yul\":12467:12560   */\n      tag_192\n      jump\t// in\n    tag_301:\n        /* \"#utility.yul\":12585:12587   */\n      0x20\n        /* \"#utility.yul\":12580:12583   */\n      dup3\n        /* \"#utility.yul\":12576:12588   */\n      add\n        /* \"#utility.yul\":12569:12588   */\n      swap1\n      pop\n        /* \"#utility.yul\":12229:12594   */\n      swap2\n      swap1\n      pop\n      jump\t// out\n        /* \"#utility.yul\":12600:13019   */\n    tag_128:\n        /* \"#utility.yul\":12766:12770   */\n      0x00\n        /* \"#utility.yul\":12804:12806   */\n      0x20\n        /* \"#utility.yul\":12793:12802   */\n      dup3\n        /* \"#utility.yul\":12789:12807   */\n      add\n        /* \"#utility.yul\":12781:12807   */\n      swap1\n      pop\n        /* \"#utility.yul\":12853:12862   */\n      dup2\n        /* \"#utility.yul\":12847:12851   */\n      dup2\n        /* \"#utility.yul\":12843:12863   */\n      sub\n        /* \"#utility.yul\":12839:12840   */\n      0x00\n        /* \"#utility.yul\":12828:12837   */\n      dup4\n        /* \"#utility.yul\":12824:12841   */\n      add\n        /* \"#utility.yul\":12817:12864   */\n      mstore\n        /* \"#utility.yul\":12881:13012   */\n      tag_303\n        /* \"#utility.yul\":13007:13011   */\n      dup2\n        /* \"#utility.yul\":12881:13012   */\n      tag_193\n      jump\t// in\n    tag_303:\n        /* \"#utility.yul\":12873:13012   */\n      swap1\n      pop\n        /* \"#utility.yul\":12600:13019   */\n      swap2\n      swap1\n      pop\n      jump\t// out\n        /* \"#utility.yul\":13025:13198   */\n    tag_194:\n        /* \"#utility.yul\":13165:13190   */\n      0x596f75206861766520616c726561647920766f7465642e000000000000000000\n        /* \"#utility.yul\":13161:13162   */\n      0x00\n        /* \"#utility.yul\":13153:13159   */\n      dup3\n        /* \"#utility.yul\":13149:13163   */\n      add\n        /* \"#utility.yul\":13142:13191   */\n      mstore\n        /* \"#utility.yul\":13025:13198   */\n      pop\n      jump\t// out\n        /* \"#utility.yul\":13204:13570   */\n    tag_195:\n        /* \"#utility.yul\":13346:13349   */\n      0x00\n        /* \"#utility.yul\":13367:13434   */\n      tag_306\n        /* \"#utility.yul\":13431:13433   */\n      0x17\n        /* \"#utility.yul\":13426:13429   */\n      dup4\n        /* \"#utility.yul\":13367:13434   */\n      tag_176\n      jump\t// in\n    tag_306:\n        /* \"#utility.yul\":13360:13434   */\n      swap2\n      pop\n        /* \"#utility.yul\":13443:13536   */\n      tag_307\n        /* \"#utility.yul\":13532:13535   */\n      dup3\n        /* \"#utility.yul\":13443:13536   */\n      tag_194\n      jump\t// in\n    tag_307:\n        /* \"#utility.yul\":13561:13563   */\n      0x20\n        /* \"#utility.yul\":13556:13559   */\n      dup3\n        /* \"#utility.yul\":13552:13564   */\n      add\n        /* \"#utility.yul\":13545:13564   */\n      swap1\n      pop\n        /* \"#utility.yul\":13204:13570   */\n      swap2\n      swap1\n      pop\n      jump\t// out\n        /* \"#utility.yul\":13576:13995   */\n    tag_138:\n        /* \"#utility.yul\":13742:13746   */\n      0x00\n        /* \"#utility.yul\":13780:13782   */\n      0x20\n        /* \"#utility.yul\":13769:13778   */\n      dup3\n        /* \"#utility.yul\":13765:13783   */\n      add\n        /* \"#utility.yul\":13757:13783   */\n      swap1\n      pop\n        /* \"#utility.yul\":13829:13838   */\n      dup2\n        /* \"#utility.yul\":13823:13827   */\n      dup2\n        /* \"#utility.yul\":13819:13839   */\n      sub\n        /* \"#utility.yul\":13815:13816   */\n      0x00\n        /* \"#utility.yul\":13804:13813   */\n      dup4\n        /* \"#utility.yul\":13800:13817   */\n      add\n        /* \"#utility.yul\":13793:13840   */\n      mstore\n        /* \"#utility.yul\":13857:13988   */\n      tag_309\n        /* \"#utility.yul\":13983:13987   */\n      dup2\n        /* \"#utility.yul\":13857:13988   */\n      tag_195\n      jump\t// in\n    tag_309:\n        /* \"#utility.yul\":13849:13988   */\n      swap1\n      pop\n        /* \"#utility.yul\":13576:13995   */\n      swap2\n      swap1\n      pop\n      jump\t// out\n        /* \"#utility.yul\":14001:14181   */\n    tag_196:\n        /* \"#utility.yul\":14049:14126   */\n      0x4e487b7100000000000000000000000000000000000000000000000000000000\n        /* \"#utility.yul\":14046:14047   */\n      0x00\n        /* \"#utility.yul\":14039:14127   */\n      mstore\n        /* \"#utility.yul\":14146:14150   */\n      0x11\n        /* \"#utility.yul\":14143:14144   */\n      0x04\n        /* \"#utility.yul\":14136:14151   */\n      mstore\n        /* \"#utility.yul\":14170:14174   */\n      0x24\n        /* \"#utility.yul\":14167:14168   */\n      0x00\n        /* \"#utility.yul\":14160:14175   */\n      revert\n        /* \"#utility.yul\":14187:14492   */\n    tag_143:\n        /* \"#utility.yul\":14227:14230   */\n      0x00\n        /* \"#utility.yul\":14246:14266   */\n      tag_312\n        /* \"#utility.yul\":14264:14265   */\n      dup3\n        /* \"#utility.yul\":14246:14266   */\n      tag_165\n      jump\t// in\n    tag_312:\n        /* \"#utility.yul\":14241:14266   */\n      swap2\n      pop\n        /* \"#utility.yul\":14280:14300   */\n      tag_313\n        /* \"#utility.yul\":14298:14299   */\n      dup4\n        /* \"#utility.yul\":14280:14300   */\n      tag_165\n      jump\t// in\n    tag_313:\n        /* \"#utility.yul\":14275:14300   */\n      swap3\n      pop\n        /* \"#utility.yul\":14434:14435   */\n      dup3\n        /* \"#utility.yul\":14366:14432   */\n      0xffffffffffffffffffffffffffffffffffffffffffffffffffffffffffffffff\n        /* \"#utility.yul\":14362:14436   */\n      sub\n        /* \"#utility.yul\":14359:14360   */\n      dup3\n        /* \"#utility.yul\":14356:14437   */\n      gt\n        /* \"#utility.yul\":14353:14460   */\n      iszero\n      tag_314\n      jumpi\n        /* \"#utility.yul\":14440:14458   */\n      tag_315\n      tag_196\n      jump\t// in\n    tag_315:\n        /* \"#utility.yul\":14353:14460   */\n    tag_314:\n        /* \"#utility.yul\":14484:14485   */\n      dup3\n        /* \"#utility.yul\":14481:14482   */\n      dup3\n        /* \"#utility.yul\":14477:14486   */\n      add\n        /* \"#utility.yul\":14470:14486   */\n      swap1\n      pop\n        /* \"#utility.yul\":14187:14492   */\n      swap3\n      swap2\n      pop\n      pop\n      jump\t// out\n        /* \"#utility.yul\":14498:14670   */\n    tag_197:\n        /* \"#utility.yul\":14638:14662   */\n      0x596f7520686176656e277420766f746564207965742100000000000000000000\n        /* \"#utility.yul\":14634:14635   */\n      0x00\n        /* \"#utility.yul\":14626:14632   */\n      dup3\n        /* \"#utility.yul\":14622:14636   */\n      add\n        /* \"#utility.yul\":14615:14663   */\n      mstore\n        /* \"#utility.yul\":14498:14670   */\n      pop\n      jump\t// out\n        /* \"#utility.yul\":14676:15042   */\n    tag_198:\n        /* \"#utility.yul\":14818:14821   */\n      0x00\n        /* \"#utility.yul\":14839:14906   */\n      tag_318\n        /* \"#utility.yul\":14903:14905   */\n      0x16\n        /* \"#utility.yul\":14898:14901   */\n      dup4\n        /* \"#utility.yul\":14839:14906   */\n      tag_176\n      jump\t// in\n    tag_318:\n        /* \"#utility.yul\":14832:14906   */\n      swap2\n      pop\n        /* \"#utility.yul\":14915:15008   */\n      tag_319\n        /* \"#utility.yul\":15004:15007   */\n      dup3\n        /* \"#utility.yul\":14915:15008   */\n      tag_197\n      jump\t// in\n    tag_319:\n        /* \"#utility.yul\":15033:15035   */\n      0x20\n        /* \"#utility.yul\":15028:15031   */\n      dup3\n        /* \"#utility.yul\":15024:15036   */\n      add\n        /* \"#utility.yul\":15017:15036   */\n      swap1\n      pop\n        /* \"#utility.yul\":14676:15042   */\n      swap2\n      swap1\n      pop\n      jump\t// out\n        /* \"#utility.yul\":15048:15467   */\n    tag_150:\n        /* \"#utility.yul\":15214:15218   */\n      0x00\n        /* \"#utility.yul\":15252:15254   */\n      0x20\n        /* \"#utility.yul\":15241:15250   */\n      dup3\n        /* \"#utility.yul\":15237:15255   */\n      add\n        /* \"#utility.yul\":15229:15255   */\n      swap1\n      pop\n        /* \"#utility.yul\":15301:15310   */\n      dup2\n        /* \"#utility.yul\":15295:15299   */\n      dup2\n        /* \"#utility.yul\":15291:15311   */\n      sub\n        /* \"#utility.yul\":15287:15288   */\n      0x00\n        /* \"#utility.yul\":15276:15285   */\n      dup4\n        /* \"#utility.yul\":15272:15289   */\n      add\n        /* \"#utility.yul\":15265:15312   */\n      mstore\n        /* \"#utility.yul\":15329:15460   */\n      tag_321\n        /* \"#utility.yul\":15455:15459   */\n      dup2\n        /* \"#utility.yul\":15329:15460   */\n      tag_198\n      jump\t// in\n    tag_321:\n        /* \"#utility.yul\":15321:15460   */\n      swap1\n      pop\n        /* \"#utility.yul\":15048:15467   */\n      swap2\n      swap1\n      pop\n      jump\t// out\n        /* \"#utility.yul\":15473:15664   */\n    tag_155:\n        /* \"#utility.yul\":15513:15517   */\n      0x00\n        /* \"#utility.yul\":15533:15553   */\n      tag_323\n        /* \"#utility.yul\":15551:15552   */\n      dup3\n        /* \"#utility.yul\":15533:15553   */\n      tag_165\n      jump\t// in\n    tag_323:\n        /* \"#utility.yul\":15528:15553   */\n      swap2\n      pop\n        /* \"#utility.yul\":15567:15587   */\n      tag_324\n        /* \"#utility.yul\":15585:15586   */\n      dup4\n        /* \"#utility.yul\":15567:15587   */\n      tag_165\n      jump\t// in\n    tag_324:\n        /* \"#utility.yul\":15562:15587   */\n      swap3\n      pop\n        /* \"#utility.yul\":15606:15607   */\n      dup3\n        /* \"#utility.yul\":15603:15604   */\n      dup3\n        /* \"#utility.yul\":15600:15608   */\n      lt\n        /* \"#utility.yul\":15597:15631   */\n      iszero\n      tag_325\n      jumpi\n        /* \"#utility.yul\":15611:15629   */\n      tag_326\n      tag_196\n      jump\t// in\n    tag_326:\n        /* \"#utility.yul\":15597:15631   */\n    tag_325:\n        /* \"#utility.yul\":15656:15657   */\n      dup3\n        /* \"#utility.yul\":15653:15654   */\n      dup3\n        /* \"#utility.yul\":15649:15658   */\n      sub\n        /* \"#utility.yul\":15641:15658   */\n      swap1\n      pop\n        /* \"#utility.yul\":15473:15664   */\n      swap3\n      swap2\n      pop\n      pop\n      jump\t// out\n\n    auxdata: 0xa264697066735822122054a17095e1543d29288f784671ebf3cc9fe0394a270e74d681113cebb7b3610364736f6c634300080d0033\n}\n",
				"bytecode": {
					"linkReferences": {},
					"object": "6080604052600360025534801561001557600080fd5b50336000806101000a81548173ffffffffffffffffffffffffffffffffffffffff021916908373ffffffffffffffffffffffffffffffffffffffff1602179055506001339080600181540180825580915050600190039060005260206000200160009091909190916101000a81548173ffffffffffffffffffffffffffffffffffffffff021916908373ffffffffffffffffffffffffffffffffffffffff1602179055506001600560003373ffffffffffffffffffffffffffffffffffffffff1673ffffffffffffffffffffffffffffffffffffffff16815260200190815260200160002060006101000a81548160ff0219169083151502179055506116bb806101206000396000f3fe6080604052600436106100ab5760003560e01c8063438596321161006457806343859632146101da57806351f22a7214610217578063ae4c467e14610254578063c47bd0261461027d578063ced5c3f1146102a6578063ea1d59c9146102cf576100b2565b8063025e7c27146100b757806302d05d3f146100f45780630e0d798c1461011f57806321dd877f1461015f578063296e5fc3146101885780633fa11c97146101b1576100b2565b366100b257005b600080fd5b3480156100c357600080fd5b506100de60048036038101906100d99190610eb5565b6102fa565b6040516100eb9190610f23565b60405180910390f35b34801561010057600080fd5b50610109610339565b6040516101169190610f23565b60405180910390f35b34801561012b57600080fd5b5061014660048036038101906101419190610eb5565b61035d565b6040516101569493929190610f68565b60405180910390f35b34801561016b57600080fd5b5061018660048036038101906101819190610fd9565b6103ca565b005b34801561019457600080fd5b506101af60048036038101906101aa9190610eb5565b6105a9565b005b3480156101bd57600080fd5b506101d860048036038101906101d39190610eb5565b6108e6565b005b3480156101e657600080fd5b5061020160048036038101906101fc9190611006565b610ac6565b60405161020e9190611046565b60405180910390f35b34801561022357600080fd5b5061023e60048036038101906102399190610fd9565b610af5565b60405161024b9190611046565b60405180910390f35b34801561026057600080fd5b5061027b60048036038101906102769190610eb5565b610b15565b005b34801561028957600080fd5b506102a4600480360381019061029f9190610eb5565b610cf5565b005b3480156102b257600080fd5b506102cd60048036038101906102c89190611061565b610d8d565b005b3480156102db57600080fd5b506102e4610e74565b6040516102f191906110a1565b60405180910390f35b6001818154811061030a57600080fd5b906000526020600020016000915054906101000a900473ffffffffffffffffffffffffffffffffffffffff1681565b60008054906101000a900473ffffffffffffffffffffffffffffffffffffffff1681565b6003818154811061036d57600080fd5b90600052602060002090600402016000915090508060000160009054906101000a900473ffffffffffffffffffffffffffffffffffffffff16908060010154908060020160009054906101000a900460ff16908060030154905084565b60008054906101000a900473ffffffffffffffffffffffffffffffffffffffff1673ffffffffffffffffffffffffffffffffffffffff163373ffffffffffffffffffffffffffffffffffffffff1614610458576040517f08c379a000000000000000000000000000000000000000000000000000000000815260040161044f9061113f565b60405180910390fd5b60001515600560008373ffffffffffffffffffffffffffffffffffffffff1673ffffffffffffffffffffffffffffffffffffffff16815260200190815260200160002060009054906101000a900460ff161515146104eb576040517f08c379a00000000000000000000000000000000000000000000000000000000081526004016104e2906111d1565b60405180910390fd5b6001819080600181540180825580915050600190039060005260206000200160009091909190916101000a81548173ffffffffffffffffffffffffffffffffffffffff021916908373ffffffffffffffffffffffffffffffffffffffff1602179055506001600560008373ffffffffffffffffffffffffffffffffffffffff1673ffffffffffffffffffffffffffffffffffffffff16815260200190815260200160002060006101000a81548160ff02191690831515021790555050565b60011515600560003373ffffffffffffffffffffffffffffffffffffffff1673ffffffffffffffffffffffffffffffffffffffff16815260200190815260200160002060009054906101000a900460ff1615151461063c576040517f08c379a00000000000000000000000000000000000000000000000000000000081526004016106339061123d565b60405180910390fd5b600254600382815481106106535761065261125d565b5b90600052602060002090600402016003015410156106a6576040517f08c379a000000000000000000000000000000000000000000000000000000000815260040161069d906112fe565b60405180910390fd5b60001515600382815481106106be576106bd61125d565b5b906000526020600020906004020160020160009054906101000a900460ff1615151461071f576040517f08c379a000000000000000000000000000000000000000000000000000000000815260040161071690611390565b60405180910390fd5b600381815481106107335761073261125d565b5b906000526020600020906004020160010154471015610787576040517f08c379a000000000000000000000000000000000000000000000000000000000815260040161077e90611422565b60405180910390fd5b60006003828154811061079d5761079c61125d565b5b906000526020600020906004020160000160009054906101000a900473ffffffffffffffffffffffffffffffffffffffff1673ffffffffffffffffffffffffffffffffffffffff16600383815481106107f9576107f861125d565b5b90600052602060002090600402016001015460405161081790611473565b60006040518083038185875af1925050503d8060008114610854576040519150601f19603f3d011682016040523d82523d6000602084013e610859565b606091505b5050905060011515811515146108a4576040517f08c379a000000000000000000000000000000000000000000000000000000000815260040161089b906114d4565b60405180910390fd5b6001600383815481106108ba576108b961125d565b5b906000526020600020906004020160020160006101000a81548160ff0219169083151502179055505050565b60011515600560003373ffffffffffffffffffffffffffffffffffffffff1673ffffffffffffffffffffffffffffffffffffffff16815260200190815260200160002060009054906101000a900460ff16151514610979576040517f08c379a00000000000000000000000000000000000000000000000000000000081526004016109709061123d565b60405180910390fd5b600015156004600083815260200190815260200160002060003373ffffffffffffffffffffffffffffffffffffffff1673ffffffffffffffffffffffffffffffffffffffff16815260200190815260200160002060009054906101000a900460ff16151514610a1d576040517f08c379a0000000000000000000000000000000000000000000000000000000008152600401610a1490611540565b60405180910390fd5b600160038281548110610a3357610a3261125d565b5b90600052602060002090600402016003016000828254610a53919061158f565b9250508190555060016004600083815260200190815260200160002060003373ffffffffffffffffffffffffffffffffffffffff1673ffffffffffffffffffffffffffffffffffffffff16815260200190815260200160002060006101000a81548160ff02191690831515021790555050565b60046020528160005260406000206020528060005260406000206000915091509054906101000a900460ff1681565b60056020528060005260406000206000915054906101000a900460ff1681565b60011515600560003373ffffffffffffffffffffffffffffffffffffffff1673ffffffffffffffffffffffffffffffffffffffff16815260200190815260200160002060009054906101000a900460ff16151514610ba8576040517f08c379a0000000000000000000000000000000000000000000000000000000008152600401610b9f9061123d565b60405180910390fd5b600115156004600083815260200190815260200160002060003373ffffffffffffffffffffffffffffffffffffffff1673ffffffffffffffffffffffffffffffffffffffff16815260200190815260200160002060009054906101000a900460ff16151514610c4c576040517f08c379a0000000000000000000000000000000000000000000000000000000008152600401610c4390611631565b60405180910390fd5b600160038281548110610c6257610c6161125d565b5b90600052602060002090600402016003016000828254610c829190611651565b9250508190555060006004600083815260200190815260200160002060003373ffffffffffffffffffffffffffffffffffffffff1673ffffffffffffffffffffffffffffffffffffffff16815260200190815260200160002060006101000a81548160ff02191690831515021790555050565b60008054906101000a900473ffffffffffffffffffffffffffffffffffffffff1673ffffffffffffffffffffffffffffffffffffffff163373ffffffffffffffffffffffffffffffffffffffff1614610d83576040517f08c379a0000000000000000000000000000000000000000000000000000000008152600401610d7a9061113f565b60405180910390fd5b8060028190555050565b600360405180608001604052808473ffffffffffffffffffffffffffffffffffffffff1681526020018381526020016000151581526020016000815250908060018154018082558091505060019003906000526020600020906004020160009091909190915060008201518160000160006101000a81548173ffffffffffffffffffffffffffffffffffffffff021916908373ffffffffffffffffffffffffffffffffffffffff1602179055506020820151816001015560408201518160020160006101000a81548160ff0219169083151502179055506060820151816003015550505050565b60025481565b600080fd5b6000819050919050565b610e9281610e7f565b8114610e9d57600080fd5b50565b600081359050610eaf81610e89565b92915050565b600060208284031215610ecb57610eca610e7a565b5b6000610ed984828501610ea0565b91505092915050565b600073ffffffffffffffffffffffffffffffffffffffff82169050919050565b6000610f0d82610ee2565b9050919050565b610f1d81610f02565b82525050565b6000602082019050610f386000830184610f14565b92915050565b610f4781610e7f565b82525050565b60008115159050919050565b610f6281610f4d565b82525050565b6000608082019050610f7d6000830187610f14565b610f8a6020830186610f3e565b610f976040830185610f59565b610fa46060830184610f3e565b95945050505050565b610fb681610f02565b8114610fc157600080fd5b50565b600081359050610fd381610fad565b92915050565b600060208284031215610fef57610fee610e7a565b5b6000610ffd84828501610fc4565b91505092915050565b6000806040838503121561101d5761101c610e7a565b5b600061102b85828601610ea0565b925050602061103c85828601610fc4565b9150509250929050565b600060208201905061105b6000830184610f59565b92915050565b6000806040838503121561107857611077610e7a565b5b600061108685828601610fc4565b925050602061109785828601610ea0565b9150509250929050565b60006020820190506110b66000830184610f3e565b92915050565b600082825260208201905092915050565b7f41682061682061682120596f75206469646e27742073617920746865206d616760008201527f696320776f726421000000000000000000000000000000000000000000000000602082015250565b60006111296028836110bc565b9150611134826110cd565b604082019050919050565b600060208201905081810360008301526111588161111c565b9050919050565b7f5468697320616464726573732068617320616c7265616479206265656e20616460008201527f6465642061732061207369676e61746f72792e00000000000000000000000000602082015250565b60006111bb6033836110bc565b91506111c68261115f565b604082019050919050565b600060208201905081810360008301526111ea816111ae565b9050919050565b7f4e6f7420616e206f776e65722e00000000000000000000000000000000000000600082015250565b6000611227600d836110bc565b9150611232826111f1565b602082019050919050565b600060208201905081810360008301526112568161121a565b9050919050565b7f4e487b7100000000000000000000000000000000000000000000000000000000600052603260045260246000fd5b7f43616e6e6f7420657865637574652054782e204e6f7420656e6f75676820617060008201527f70726f76616c732e000000000000000000000000000000000000000000000000602082015250565b60006112e86028836110bc565b91506112f38261128c565b604082019050919050565b60006020820190508181036000830152611317816112db565b9050919050565b7f546869732054782068617320616c7265616479206265656e206578656375746560008201527f642e000000000000000000000000000000000000000000000000000000000000602082015250565b600061137a6022836110bc565b91506113858261131e565b604082019050919050565b600060208201905081810360008301526113a98161136d565b9050919050565b7f436f6e747261637420646f6573206e6f742068617665206c6172676520656e6f60008201527f7567682062616c616e636520746f2073656e642054782e000000000000000000602082015250565b600061140c6037836110bc565b9150611417826113b0565b604082019050919050565b6000602082019050818103600083015261143b816113ff565b9050919050565b600081905092915050565b50565b600061145d600083611442565b91506114688261144d565b600082019050919050565b600061147e82611450565b9150819050919050565b7f5478206661696c65640000000000000000000000000000000000000000000000600082015250565b60006114be6009836110bc565b91506114c982611488565b602082019050919050565b600060208201905081810360008301526114ed816114b1565b9050919050565b7f596f75206861766520616c726561647920766f7465642e000000000000000000600082015250565b600061152a6017836110bc565b9150611535826114f4565b602082019050919050565b600060208201905081810360008301526115598161151d565b9050919050565b7f4e487b7100000000000000000000000000000000000000000000000000000000600052601160045260246000fd5b600061159a82610e7f565b91506115a583610e7f565b9250827fffffffffffffffffffffffffffffffffffffffffffffffffffffffffffffffff038211156115da576115d9611560565b5b828201905092915050565b7f596f7520686176656e277420766f746564207965742100000000000000000000600082015250565b600061161b6016836110bc565b9150611626826115e5565b602082019050919050565b6000602082019050818103600083015261164a8161160e565b9050919050565b600061165c82610e7f565b915061166783610e7f565b92508282101561167a57611679611560565b5b82820390509291505056fea264697066735822122054a17095e1543d29288f784671ebf3cc9fe0394a270e74d681113cebb7b3610364736f6c634300080d0033",
					"opcodes": "PUSH1 0x80 PUSH1 0x40 MSTORE PUSH1 0x3 PUSH1 0x2 SSTORE CALLVALUE DUP1 ISZERO PUSH2 0x15 JUMPI PUSH1 0x0 DUP1 REVERT JUMPDEST POP CALLER PUSH1 0x0 DUP1 PUSH2 0x100 EXP DUP2 SLOAD DUP2 PUSH20 0xFFFFFFFFFFFFFFFFFFFFFFFFFFFFFFFFFFFFFFFF MUL NOT AND SWAP1 DUP4 PUSH20 0xFFFFFFFFFFFFFFFFFFFFFFFFFFFFFFFFFFFFFFFF AND MUL OR SWAP1 SSTORE POP PUSH1 0x1 CALLER SWAP1 DUP1 PUSH1 0x1 DUP2 SLOAD ADD DUP1 DUP3 SSTORE DUP1 SWAP2 POP POP PUSH1 0x1 SWAP1 SUB SWAP1 PUSH1 0x0 MSTORE PUSH1 0x20 PUSH1 0x0 KECCAK256 ADD PUSH1 0x0 SWAP1 SWAP2 SWAP1 SWAP2 SWAP1 SWAP2 PUSH2 0x100 EXP DUP2 SLOAD DUP2 PUSH20 0xFFFFFFFFFFFFFFFFFFFFFFFFFFFFFFFFFFFFFFFF MUL NOT AND SWAP1 DUP4 PUSH20 0xFFFFFFFFFFFFFFFFFFFFFFFFFFFFFFFFFFFFFFFF AND MUL OR SWAP1 SSTORE POP PUSH1 0x1 PUSH1 0x5 PUSH1 0x0 CALLER PUSH20 0xFFFFFFFFFFFFFFFFFFFFFFFFFFFFFFFFFFFFFFFF AND PUSH20 0xFFFFFFFFFFFFFFFFFFFFFFFFFFFFFFFFFFFFFFFF AND DUP2 MSTORE PUSH1 0x20 ADD SWAP1 DUP2 MSTORE PUSH1 0x20 ADD PUSH1 0x0 KECCAK256 PUSH1 0x0 PUSH2 0x100 EXP DUP2 SLOAD DUP2 PUSH1 0xFF MUL NOT AND SWAP1 DUP4 ISZERO ISZERO MUL OR SWAP1 SSTORE POP PUSH2 0x16BB DUP1 PUSH2 0x120 PUSH1 0x0 CODECOPY PUSH1 0x0 RETURN INVALID PUSH1 0x80 PUSH1 0x40 MSTORE PUSH1 0x4 CALLDATASIZE LT PUSH2 0xAB JUMPI PUSH1 0x0 CALLDATALOAD PUSH1 0xE0 SHR DUP1 PUSH4 0x43859632 GT PUSH2 0x64 JUMPI DUP1 PUSH4 0x43859632 EQ PUSH2 0x1DA JUMPI DUP1 PUSH4 0x51F22A72 EQ PUSH2 0x217 JUMPI DUP1 PUSH4 0xAE4C467E EQ PUSH2 0x254 JUMPI DUP1 PUSH4 0xC47BD026 EQ PUSH2 0x27D JUMPI DUP1 PUSH4 0xCED5C3F1 EQ PUSH2 0x2A6 JUMPI DUP1 PUSH4 0xEA1D59C9 EQ PUSH2 0x2CF JUMPI PUSH2 0xB2 JUMP JUMPDEST DUP1 PUSH4 0x25E7C27 EQ PUSH2 0xB7 JUMPI DUP1 PUSH4 0x2D05D3F EQ PUSH2 0xF4 JUMPI DUP1 PUSH4 0xE0D798C EQ PUSH2 0x11F JUMPI DUP1 PUSH4 0x21DD877F EQ PUSH2 0x15F JUMPI DUP1 PUSH4 0x296E5FC3 EQ PUSH2 0x188 JUMPI DUP1 PUSH4 0x3FA11C97 EQ PUSH2 0x1B1 JUMPI PUSH2 0xB2 JUMP JUMPDEST CALLDATASIZE PUSH2 0xB2 JUMPI STOP JUMPDEST PUSH1 0x0 DUP1 REVERT JUMPDEST CALLVALUE DUP1 ISZERO PUSH2 0xC3 JUMPI PUSH1 0x0 DUP1 REVERT JUMPDEST POP PUSH2 0xDE PUSH1 0x4 DUP1 CALLDATASIZE SUB DUP2 ADD SWAP1 PUSH2 0xD9 SWAP2 SWAP1 PUSH2 0xEB5 JUMP JUMPDEST PUSH2 0x2FA JUMP JUMPDEST PUSH1 0x40 MLOAD PUSH2 0xEB SWAP2 SWAP1 PUSH2 0xF23 JUMP JUMPDEST PUSH1 0x40 MLOAD DUP1 SWAP2 SUB SWAP1 RETURN JUMPDEST CALLVALUE DUP1 ISZERO PUSH2 0x100 JUMPI PUSH1 0x0 DUP1 REVERT JUMPDEST POP PUSH2 0x109 PUSH2 0x339 JUMP JUMPDEST PUSH1 0x40 MLOAD PUSH2 0x116 SWAP2 SWAP1 PUSH2 0xF23 JUMP JUMPDEST PUSH1 0x40 MLOAD DUP1 SWAP2 SUB SWAP1 RETURN JUMPDEST CALLVALUE DUP1 ISZERO PUSH2 0x12B JUMPI PUSH1 0x0 DUP1 REVERT JUMPDEST POP PUSH2 0x146 PUSH1 0x4 DUP1 CALLDATASIZE SUB DUP2 ADD SWAP1 PUSH2 0x141 SWAP2 SWAP1 PUSH2 0xEB5 JUMP JUMPDEST PUSH2 0x35D JUMP JUMPDEST PUSH1 0x40 MLOAD PUSH2 0x156 SWAP5 SWAP4 SWAP3 SWAP2 SWAP1 PUSH2 0xF68 JUMP JUMPDEST PUSH1 0x40 MLOAD DUP1 SWAP2 SUB SWAP1 RETURN JUMPDEST CALLVALUE DUP1 ISZERO PUSH2 0x16B JUMPI PUSH1 0x0 DUP1 REVERT JUMPDEST POP PUSH2 0x186 PUSH1 0x4 DUP1 CALLDATASIZE SUB DUP2 ADD SWAP1 PUSH2 0x181 SWAP2 SWAP1 PUSH2 0xFD9 JUMP JUMPDEST PUSH2 0x3CA JUMP JUMPDEST STOP JUMPDEST CALLVALUE DUP1 ISZERO PUSH2 0x194 JUMPI PUSH1 0x0 DUP1 REVERT JUMPDEST POP PUSH2 0x1AF PUSH1 0x4 DUP1 CALLDATASIZE SUB DUP2 ADD SWAP1 PUSH2 0x1AA SWAP2 SWAP1 PUSH2 0xEB5 JUMP JUMPDEST PUSH2 0x5A9 JUMP JUMPDEST STOP JUMPDEST CALLVALUE DUP1 ISZERO PUSH2 0x1BD JUMPI PUSH1 0x0 DUP1 REVERT JUMPDEST POP PUSH2 0x1D8 PUSH1 0x4 DUP1 CALLDATASIZE SUB DUP2 ADD SWAP1 PUSH2 0x1D3 SWAP2 SWAP1 PUSH2 0xEB5 JUMP JUMPDEST PUSH2 0x8E6 JUMP JUMPDEST STOP JUMPDEST CALLVALUE DUP1 ISZERO PUSH2 0x1E6 JUMPI PUSH1 0x0 DUP1 REVERT JUMPDEST POP PUSH2 0x201 PUSH1 0x4 DUP1 CALLDATASIZE SUB DUP2 ADD SWAP1 PUSH2 0x1FC SWAP2 SWAP1 PUSH2 0x1006 JUMP JUMPDEST PUSH2 0xAC6 JUMP JUMPDEST PUSH1 0x40 MLOAD PUSH2 0x20E SWAP2 SWAP1 PUSH2 0x1046 JUMP JUMPDEST PUSH1 0x40 MLOAD DUP1 SWAP2 SUB SWAP1 RETURN JUMPDEST CALLVALUE DUP1 ISZERO PUSH2 0x223 JUMPI PUSH1 0x0 DUP1 REVERT JUMPDEST POP PUSH2 0x23E PUSH1 0x4 DUP1 CALLDATASIZE SUB DUP2 ADD SWAP1 PUSH2 0x239 SWAP2 SWAP1 PUSH2 0xFD9 JUMP JUMPDEST PUSH2 0xAF5 JUMP JUMPDEST PUSH1 0x40 MLOAD PUSH2 0x24B SWAP2 SWAP1 PUSH2 0x1046 JUMP JUMPDEST PUSH1 0x40 MLOAD DUP1 SWAP2 SUB SWAP1 RETURN JUMPDEST CALLVALUE DUP1 ISZERO PUSH2 0x260 JUMPI PUSH1 0x0 DUP1 REVERT JUMPDEST POP PUSH2 0x27B PUSH1 0x4 DUP1 CALLDATASIZE SUB DUP2 ADD SWAP1 PUSH2 0x276 SWAP2 SWAP1 PUSH2 0xEB5 JUMP JUMPDEST PUSH2 0xB15 JUMP JUMPDEST STOP JUMPDEST CALLVALUE DUP1 ISZERO PUSH2 0x289 JUMPI PUSH1 0x0 DUP1 REVERT JUMPDEST POP PUSH2 0x2A4 PUSH1 0x4 DUP1 CALLDATASIZE SUB DUP2 ADD SWAP1 PUSH2 0x29F SWAP2 SWAP1 PUSH2 0xEB5 JUMP JUMPDEST PUSH2 0xCF5 JUMP JUMPDEST STOP JUMPDEST CALLVALUE DUP1 ISZERO PUSH2 0x2B2 JUMPI PUSH1 0x0 DUP1 REVERT JUMPDEST POP PUSH2 0x2CD PUSH1 0x4 DUP1 CALLDATASIZE SUB DUP2 ADD SWAP1 PUSH2 0x2C8 SWAP2 SWAP1 PUSH2 0x1061 JUMP JUMPDEST PUSH2 0xD8D JUMP JUMPDEST STOP JUMPDEST CALLVALUE DUP1 ISZERO PUSH2 0x2DB JUMPI PUSH1 0x0 DUP1 REVERT JUMPDEST POP PUSH2 0x2E4 PUSH2 0xE74 JUMP JUMPDEST PUSH1 0x40 MLOAD PUSH2 0x2F1 SWAP2 SWAP1 PUSH2 0x10A1 JUMP JUMPDEST PUSH1 0x40 MLOAD DUP1 SWAP2 SUB SWAP1 RETURN JUMPDEST PUSH1 0x1 DUP2 DUP2 SLOAD DUP2 LT PUSH2 0x30A JUMPI PUSH1 0x0 DUP1 REVERT JUMPDEST SWAP1 PUSH1 0x0 MSTORE PUSH1 0x20 PUSH1 0x0 KECCAK256 ADD PUSH1 0x0 SWAP2 POP SLOAD SWAP1 PUSH2 0x100 EXP SWAP1 DIV PUSH20 0xFFFFFFFFFFFFFFFFFFFFFFFFFFFFFFFFFFFFFFFF AND DUP2 JUMP JUMPDEST PUSH1 0x0 DUP1 SLOAD SWAP1 PUSH2 0x100 EXP SWAP1 DIV PUSH20 0xFFFFFFFFFFFFFFFFFFFFFFFFFFFFFFFFFFFFFFFF AND DUP2 JUMP JUMPDEST PUSH1 0x3 DUP2 DUP2 SLOAD DUP2 LT PUSH2 0x36D JUMPI PUSH1 0x0 DUP1 REVERT JUMPDEST SWAP1 PUSH1 0x0 MSTORE PUSH1 0x20 PUSH1 0x0 KECCAK256 SWAP1 PUSH1 0x4 MUL ADD PUSH1 0x0 SWAP2 POP SWAP1 POP DUP1 PUSH1 0x0 ADD PUSH1 0x0 SWAP1 SLOAD SWAP1 PUSH2 0x100 EXP SWAP1 DIV PUSH20 0xFFFFFFFFFFFFFFFFFFFFFFFFFFFFFFFFFFFFFFFF AND SWAP1 DUP1 PUSH1 0x1 ADD SLOAD SWAP1 DUP1 PUSH1 0x2 ADD PUSH1 0x0 SWAP1 SLOAD SWAP1 PUSH2 0x100 EXP SWAP1 DIV PUSH1 0xFF AND SWAP1 DUP1 PUSH1 0x3 ADD SLOAD SWAP1 POP DUP5 JUMP JUMPDEST PUSH1 0x0 DUP1 SLOAD SWAP1 PUSH2 0x100 EXP SWAP1 DIV PUSH20 0xFFFFFFFFFFFFFFFFFFFFFFFFFFFFFFFFFFFFFFFF AND PUSH20 0xFFFFFFFFFFFFFFFFFFFFFFFFFFFFFFFFFFFFFFFF AND CALLER PUSH20 0xFFFFFFFFFFFFFFFFFFFFFFFFFFFFFFFFFFFFFFFF AND EQ PUSH2 0x458 JUMPI PUSH1 0x40 MLOAD PUSH32 0x8C379A000000000000000000000000000000000000000000000000000000000 DUP2 MSTORE PUSH1 0x4 ADD PUSH2 0x44F SWAP1 PUSH2 0x113F JUMP JUMPDEST PUSH1 0x40 MLOAD DUP1 SWAP2 SUB SWAP1 REVERT JUMPDEST PUSH1 0x0 ISZERO ISZERO PUSH1 0x5 PUSH1 0x0 DUP4 PUSH20 0xFFFFFFFFFFFFFFFFFFFFFFFFFFFFFFFFFFFFFFFF AND PUSH20 0xFFFFFFFFFFFFFFFFFFFFFFFFFFFFFFFFFFFFFFFF AND DUP2 MSTORE PUSH1 0x20 ADD SWAP1 DUP2 MSTORE PUSH1 0x20 ADD PUSH1 0x0 KECCAK256 PUSH1 0x0 SWAP1 SLOAD SWAP1 PUSH2 0x100 EXP SWAP1 DIV PUSH1 0xFF AND ISZERO ISZERO EQ PUSH2 0x4EB JUMPI PUSH1 0x40 MLOAD PUSH32 0x8C379A000000000000000000000000000000000000000000000000000000000 DUP2 MSTORE PUSH1 0x4 ADD PUSH2 0x4E2 SWAP1 PUSH2 0x11D1 JUMP JUMPDEST PUSH1 0x40 MLOAD DUP1 SWAP2 SUB SWAP1 REVERT JUMPDEST PUSH1 0x1 DUP2 SWAP1 DUP1 PUSH1 0x1 DUP2 SLOAD ADD DUP1 DUP3 SSTORE DUP1 SWAP2 POP POP PUSH1 0x1 SWAP1 SUB SWAP1 PUSH1 0x0 MSTORE PUSH1 0x20 PUSH1 0x0 KECCAK256 ADD PUSH1 0x0 SWAP1 SWAP2 SWAP1 SWAP2 SWAP1 SWAP2 PUSH2 0x100 EXP DUP2 SLOAD DUP2 PUSH20 0xFFFFFFFFFFFFFFFFFFFFFFFFFFFFFFFFFFFFFFFF MUL NOT AND SWAP1 DUP4 PUSH20 0xFFFFFFFFFFFFFFFFFFFFFFFFFFFFFFFFFFFFFFFF AND MUL OR SWAP1 SSTORE POP PUSH1 0x1 PUSH1 0x5 PUSH1 0x0 DUP4 PUSH20 0xFFFFFFFFFFFFFFFFFFFFFFFFFFFFFFFFFFFFFFFF AND PUSH20 0xFFFFFFFFFFFFFFFFFFFFFFFFFFFFFFFFFFFFFFFF AND DUP2 MSTORE PUSH1 0x20 ADD SWAP1 DUP2 MSTORE PUSH1 0x20 ADD PUSH1 0x0 KECCAK256 PUSH1 0x0 PUSH2 0x100 EXP DUP2 SLOAD DUP2 PUSH1 0xFF MUL NOT AND SWAP1 DUP4 ISZERO ISZERO MUL OR SWAP1 SSTORE POP POP JUMP JUMPDEST PUSH1 0x1 ISZERO ISZERO PUSH1 0x5 PUSH1 0x0 CALLER PUSH20 0xFFFFFFFFFFFFFFFFFFFFFFFFFFFFFFFFFFFFFFFF AND PUSH20 0xFFFFFFFFFFFFFFFFFFFFFFFFFFFFFFFFFFFFFFFF AND DUP2 MSTORE PUSH1 0x20 ADD SWAP1 DUP2 MSTORE PUSH1 0x20 ADD PUSH1 0x0 KECCAK256 PUSH1 0x0 SWAP1 SLOAD SWAP1 PUSH2 0x100 EXP SWAP1 DIV PUSH1 0xFF AND ISZERO ISZERO EQ PUSH2 0x63C JUMPI PUSH1 0x40 MLOAD PUSH32 0x8C379A000000000000000000000000000000000000000000000000000000000 DUP2 MSTORE PUSH1 0x4 ADD PUSH2 0x633 SWAP1 PUSH2 0x123D JUMP JUMPDEST PUSH1 0x40 MLOAD DUP1 SWAP2 SUB SWAP1 REVERT JUMPDEST PUSH1 0x2 SLOAD PUSH1 0x3 DUP3 DUP2 SLOAD DUP2 LT PUSH2 0x653 JUMPI PUSH2 0x652 PUSH2 0x125D JUMP JUMPDEST JUMPDEST SWAP1 PUSH1 0x0 MSTORE PUSH1 0x20 PUSH1 0x0 KECCAK256 SWAP1 PUSH1 0x4 MUL ADD PUSH1 0x3 ADD SLOAD LT ISZERO PUSH2 0x6A6 JUMPI PUSH1 0x40 MLOAD PUSH32 0x8C379A000000000000000000000000000000000000000000000000000000000 DUP2 MSTORE PUSH1 0x4 ADD PUSH2 0x69D SWAP1 PUSH2 0x12FE JUMP JUMPDEST PUSH1 0x40 MLOAD DUP1 SWAP2 SUB SWAP1 REVERT JUMPDEST PUSH1 0x0 ISZERO ISZERO PUSH1 0x3 DUP3 DUP2 SLOAD DUP2 LT PUSH2 0x6BE JUMPI PUSH2 0x6BD PUSH2 0x125D JUMP JUMPDEST JUMPDEST SWAP1 PUSH1 0x0 MSTORE PUSH1 0x20 PUSH1 0x0 KECCAK256 SWAP1 PUSH1 0x4 MUL ADD PUSH1 0x2 ADD PUSH1 0x0 SWAP1 SLOAD SWAP1 PUSH2 0x100 EXP SWAP1 DIV PUSH1 0xFF AND ISZERO ISZERO EQ PUSH2 0x71F JUMPI PUSH1 0x40 MLOAD PUSH32 0x8C379A000000000000000000000000000000000000000000000000000000000 DUP2 MSTORE PUSH1 0x4 ADD PUSH2 0x716 SWAP1 PUSH2 0x1390 JUMP JUMPDEST PUSH1 0x40 MLOAD DUP1 SWAP2 SUB SWAP1 REVERT JUMPDEST PUSH1 0x3 DUP2 DUP2 SLOAD DUP2 LT PUSH2 0x733 JUMPI PUSH2 0x732 PUSH2 0x125D JUMP JUMPDEST JUMPDEST SWAP1 PUSH1 0x0 MSTORE PUSH1 0x20 PUSH1 0x0 KECCAK256 SWAP1 PUSH1 0x4 MUL ADD PUSH1 0x1 ADD SLOAD SELFBALANCE LT ISZERO PUSH2 0x787 JUMPI PUSH1 0x40 MLOAD PUSH32 0x8C379A000000000000000000000000000000000000000000000000000000000 DUP2 MSTORE PUSH1 0x4 ADD PUSH2 0x77E SWAP1 PUSH2 0x1422 JUMP JUMPDEST PUSH1 0x40 MLOAD DUP1 SWAP2 SUB SWAP1 REVERT JUMPDEST PUSH1 0x0 PUSH1 0x3 DUP3 DUP2 SLOAD DUP2 LT PUSH2 0x79D JUMPI PUSH2 0x79C PUSH2 0x125D JUMP JUMPDEST JUMPDEST SWAP1 PUSH1 0x0 MSTORE PUSH1 0x20 PUSH1 0x0 KECCAK256 SWAP1 PUSH1 0x4 MUL ADD PUSH1 0x0 ADD PUSH1 0x0 SWAP1 SLOAD SWAP1 PUSH2 0x100 EXP SWAP1 DIV PUSH20 0xFFFFFFFFFFFFFFFFFFFFFFFFFFFFFFFFFFFFFFFF AND PUSH20 0xFFFFFFFFFFFFFFFFFFFFFFFFFFFFFFFFFFFFFFFF AND PUSH1 0x3 DUP4 DUP2 SLOAD DUP2 LT PUSH2 0x7F9 JUMPI PUSH2 0x7F8 PUSH2 0x125D JUMP JUMPDEST JUMPDEST SWAP1 PUSH1 0x0 MSTORE PUSH1 0x20 PUSH1 0x0 KECCAK256 SWAP1 PUSH1 0x4 MUL ADD PUSH1 0x1 ADD SLOAD PUSH1 0x40 MLOAD PUSH2 0x817 SWAP1 PUSH2 0x1473 JUMP JUMPDEST PUSH1 0x0 PUSH1 0x40 MLOAD DUP1 DUP4 SUB DUP2 DUP6 DUP8 GAS CALL SWAP3 POP POP POP RETURNDATASIZE DUP1 PUSH1 0x0 DUP2 EQ PUSH2 0x854 JUMPI PUSH1 0x40 MLOAD SWAP2 POP PUSH1 0x1F NOT PUSH1 0x3F RETURNDATASIZE ADD AND DUP3 ADD PUSH1 0x40 MSTORE RETURNDATASIZE DUP3 MSTORE RETURNDATASIZE PUSH1 0x0 PUSH1 0x20 DUP5 ADD RETURNDATACOPY PUSH2 0x859 JUMP JUMPDEST PUSH1 0x60 SWAP2 POP JUMPDEST POP POP SWAP1 POP PUSH1 0x1 ISZERO ISZERO DUP2 ISZERO ISZERO EQ PUSH2 0x8A4 JUMPI PUSH1 0x40 MLOAD PUSH32 0x8C379A000000000000000000000000000000000000000000000000000000000 DUP2 MSTORE PUSH1 0x4 ADD PUSH2 0x89B SWAP1 PUSH2 0x14D4 JUMP JUMPDEST PUSH1 0x40 MLOAD DUP1 SWAP2 SUB SWAP1 REVERT JUMPDEST PUSH1 0x1 PUSH1 0x3 DUP4 DUP2 SLOAD DUP2 LT PUSH2 0x8BA JUMPI PUSH2 0x8B9 PUSH2 0x125D JUMP JUMPDEST JUMPDEST SWAP1 PUSH1 0x0 MSTORE PUSH1 0x20 PUSH1 0x0 KECCAK256 SWAP1 PUSH1 0x4 MUL ADD PUSH1 0x2 ADD PUSH1 0x0 PUSH2 0x100 EXP DUP2 SLOAD DUP2 PUSH1 0xFF MUL NOT AND SWAP1 DUP4 ISZERO ISZERO MUL OR SWAP1 SSTORE POP POP POP JUMP JUMPDEST PUSH1 0x1 ISZERO ISZERO PUSH1 0x5 PUSH1 0x0 CALLER PUSH20 0xFFFFFFFFFFFFFFFFFFFFFFFFFFFFFFFFFFFFFFFF AND PUSH20 0xFFFFFFFFFFFFFFFFFFFFFFFFFFFFFFFFFFFFFFFF AND DUP2 MSTORE PUSH1 0x20 ADD SWAP1 DUP2 MSTORE PUSH1 0x20 ADD PUSH1 0x0 KECCAK256 PUSH1 0x0 SWAP1 SLOAD SWAP1 PUSH2 0x100 EXP SWAP1 DIV PUSH1 0xFF AND ISZERO ISZERO EQ PUSH2 0x979 JUMPI PUSH1 0x40 MLOAD PUSH32 0x8C379A000000000000000000000000000000000000000000000000000000000 DUP2 MSTORE PUSH1 0x4 ADD PUSH2 0x970 SWAP1 PUSH2 0x123D JUMP JUMPDEST PUSH1 0x40 MLOAD DUP1 SWAP2 SUB SWAP1 REVERT JUMPDEST PUSH1 0x0 ISZERO ISZERO PUSH1 0x4 PUSH1 0x0 DUP4 DUP2 MSTORE PUSH1 0x20 ADD SWAP1 DUP2 MSTORE PUSH1 0x20 ADD PUSH1 0x0 KECCAK256 PUSH1 0x0 CALLER PUSH20 0xFFFFFFFFFFFFFFFFFFFFFFFFFFFFFFFFFFFFFFFF AND PUSH20 0xFFFFFFFFFFFFFFFFFFFFFFFFFFFFFFFFFFFFFFFF AND DUP2 MSTORE PUSH1 0x20 ADD SWAP1 DUP2 MSTORE PUSH1 0x20 ADD PUSH1 0x0 KECCAK256 PUSH1 0x0 SWAP1 SLOAD SWAP1 PUSH2 0x100 EXP SWAP1 DIV PUSH1 0xFF AND ISZERO ISZERO EQ PUSH2 0xA1D JUMPI PUSH1 0x40 MLOAD PUSH32 0x8C379A000000000000000000000000000000000000000000000000000000000 DUP2 MSTORE PUSH1 0x4 ADD PUSH2 0xA14 SWAP1 PUSH2 0x1540 JUMP JUMPDEST PUSH1 0x40 MLOAD DUP1 SWAP2 SUB SWAP1 REVERT JUMPDEST PUSH1 0x1 PUSH1 0x3 DUP3 DUP2 SLOAD DUP2 LT PUSH2 0xA33 JUMPI PUSH2 0xA32 PUSH2 0x125D JUMP JUMPDEST JUMPDEST SWAP1 PUSH1 0x0 MSTORE PUSH1 0x20 PUSH1 0x0 KECCAK256 SWAP1 PUSH1 0x4 MUL ADD PUSH1 0x3 ADD PUSH1 0x0 DUP3 DUP3 SLOAD PUSH2 0xA53 SWAP2 SWAP1 PUSH2 0x158F JUMP JUMPDEST SWAP3 POP POP DUP2 SWAP1 SSTORE POP PUSH1 0x1 PUSH1 0x4 PUSH1 0x0 DUP4 DUP2 MSTORE PUSH1 0x20 ADD SWAP1 DUP2 MSTORE PUSH1 0x20 ADD PUSH1 0x0 KECCAK256 PUSH1 0x0 CALLER PUSH20 0xFFFFFFFFFFFFFFFFFFFFFFFFFFFFFFFFFFFFFFFF AND PUSH20 0xFFFFFFFFFFFFFFFFFFFFFFFFFFFFFFFFFFFFFFFF AND DUP2 MSTORE PUSH1 0x20 ADD SWAP1 DUP2 MSTORE PUSH1 0x20 ADD PUSH1 0x0 KECCAK256 PUSH1 0x0 PUSH2 0x100 EXP DUP2 SLOAD DUP2 PUSH1 0xFF MUL NOT AND SWAP1 DUP4 ISZERO ISZERO MUL OR SWAP1 SSTORE POP POP JUMP JUMPDEST PUSH1 0x4 PUSH1 0x20 MSTORE DUP2 PUSH1 0x0 MSTORE PUSH1 0x40 PUSH1 0x0 KECCAK256 PUSH1 0x20 MSTORE DUP1 PUSH1 0x0 MSTORE PUSH1 0x40 PUSH1 0x0 KECCAK256 PUSH1 0x0 SWAP2 POP SWAP2 POP SWAP1 SLOAD SWAP1 PUSH2 0x100 EXP SWAP1 DIV PUSH1 0xFF AND DUP2 JUMP JUMPDEST PUSH1 0x5 PUSH1 0x20 MSTORE DUP1 PUSH1 0x0 MSTORE PUSH1 0x40 PUSH1 0x0 KECCAK256 PUSH1 0x0 SWAP2 POP SLOAD SWAP1 PUSH2 0x100 EXP SWAP1 DIV PUSH1 0xFF AND DUP2 JUMP JUMPDEST PUSH1 0x1 ISZERO ISZERO PUSH1 0x5 PUSH1 0x0 CALLER PUSH20 0xFFFFFFFFFFFFFFFFFFFFFFFFFFFFFFFFFFFFFFFF AND PUSH20 0xFFFFFFFFFFFFFFFFFFFFFFFFFFFFFFFFFFFFFFFF AND DUP2 MSTORE PUSH1 0x20 ADD SWAP1 DUP2 MSTORE PUSH1 0x20 ADD PUSH1 0x0 KECCAK256 PUSH1 0x0 SWAP1 SLOAD SWAP1 PUSH2 0x100 EXP SWAP1 DIV PUSH1 0xFF AND ISZERO ISZERO EQ PUSH2 0xBA8 JUMPI PUSH1 0x40 MLOAD PUSH32 0x8C379A000000000000000000000000000000000000000000000000000000000 DUP2 MSTORE PUSH1 0x4 ADD PUSH2 0xB9F SWAP1 PUSH2 0x123D JUMP JUMPDEST PUSH1 0x40 MLOAD DUP1 SWAP2 SUB SWAP1 REVERT JUMPDEST PUSH1 0x1 ISZERO ISZERO PUSH1 0x4 PUSH1 0x0 DUP4 DUP2 MSTORE PUSH1 0x20 ADD SWAP1 DUP2 MSTORE PUSH1 0x20 ADD PUSH1 0x0 KECCAK256 PUSH1 0x0 CALLER PUSH20 0xFFFFFFFFFFFFFFFFFFFFFFFFFFFFFFFFFFFFFFFF AND PUSH20 0xFFFFFFFFFFFFFFFFFFFFFFFFFFFFFFFFFFFFFFFF AND DUP2 MSTORE PUSH1 0x20 ADD SWAP1 DUP2 MSTORE PUSH1 0x20 ADD PUSH1 0x0 KECCAK256 PUSH1 0x0 SWAP1 SLOAD SWAP1 PUSH2 0x100 EXP SWAP1 DIV PUSH1 0xFF AND ISZERO ISZERO EQ PUSH2 0xC4C JUMPI PUSH1 0x40 MLOAD PUSH32 0x8C379A000000000000000000000000000000000000000000000000000000000 DUP2 MSTORE PUSH1 0x4 ADD PUSH2 0xC43 SWAP1 PUSH2 0x1631 JUMP JUMPDEST PUSH1 0x40 MLOAD DUP1 SWAP2 SUB SWAP1 REVERT JUMPDEST PUSH1 0x1 PUSH1 0x3 DUP3 DUP2 SLOAD DUP2 LT PUSH2 0xC62 JUMPI PUSH2 0xC61 PUSH2 0x125D JUMP JUMPDEST JUMPDEST SWAP1 PUSH1 0x0 MSTORE PUSH1 0x20 PUSH1 0x0 KECCAK256 SWAP1 PUSH1 0x4 MUL ADD PUSH1 0x3 ADD PUSH1 0x0 DUP3 DUP3 SLOAD PUSH2 0xC82 SWAP2 SWAP1 PUSH2 0x1651 JUMP JUMPDEST SWAP3 POP POP DUP2 SWAP1 SSTORE POP PUSH1 0x0 PUSH1 0x4 PUSH1 0x0 DUP4 DUP2 MSTORE PUSH1 0x20 ADD SWAP1 DUP2 MSTORE PUSH1 0x20 ADD PUSH1 0x0 KECCAK256 PUSH1 0x0 CALLER PUSH20 0xFFFFFFFFFFFFFFFFFFFFFFFFFFFFFFFFFFFFFFFF AND PUSH20 0xFFFFFFFFFFFFFFFFFFFFFFFFFFFFFFFFFFFFFFFF AND DUP2 MSTORE PUSH1 0x20 ADD SWAP1 DUP2 MSTORE PUSH1 0x20 ADD PUSH1 0x0 KECCAK256 PUSH1 0x0 PUSH2 0x100 EXP DUP2 SLOAD DUP2 PUSH1 0xFF MUL NOT AND SWAP1 DUP4 ISZERO ISZERO MUL OR SWAP1 SSTORE POP POP JUMP JUMPDEST PUSH1 0x0 DUP1 SLOAD SWAP1 PUSH2 0x100 EXP SWAP1 DIV PUSH20 0xFFFFFFFFFFFFFFFFFFFFFFFFFFFFFFFFFFFFFFFF AND PUSH20 0xFFFFFFFFFFFFFFFFFFFFFFFFFFFFFFFFFFFFFFFF AND CALLER PUSH20 0xFFFFFFFFFFFFFFFFFFFFFFFFFFFFFFFFFFFFFFFF AND EQ PUSH2 0xD83 JUMPI PUSH1 0x40 MLOAD PUSH32 0x8C379A000000000000000000000000000000000000000000000000000000000 DUP2 MSTORE PUSH1 0x4 ADD PUSH2 0xD7A SWAP1 PUSH2 0x113F JUMP JUMPDEST PUSH1 0x40 MLOAD DUP1 SWAP2 SUB SWAP1 REVERT JUMPDEST DUP1 PUSH1 0x2 DUP2 SWAP1 SSTORE POP POP JUMP JUMPDEST PUSH1 0x3 PUSH1 0x40 MLOAD DUP1 PUSH1 0x80 ADD PUSH1 0x40 MSTORE DUP1 DUP5 PUSH20 0xFFFFFFFFFFFFFFFFFFFFFFFFFFFFFFFFFFFFFFFF AND DUP2 MSTORE PUSH1 0x20 ADD DUP4 DUP2 MSTORE PUSH1 0x20 ADD PUSH1 0x0 ISZERO ISZERO DUP2 MSTORE PUSH1 0x20 ADD PUSH1 0x0 DUP2 MSTORE POP SWAP1 DUP1 PUSH1 0x1 DUP2 SLOAD ADD DUP1 DUP3 SSTORE DUP1 SWAP2 POP POP PUSH1 0x1 SWAP1 SUB SWAP1 PUSH1 0x0 MSTORE PUSH1 0x20 PUSH1 0x0 KECCAK256 SWAP1 PUSH1 0x4 MUL ADD PUSH1 0x0 SWAP1 SWAP2 SWAP1 SWAP2 SWAP1 SWAP2 POP PUSH1 0x0 DUP3 ADD MLOAD DUP2 PUSH1 0x0 ADD PUSH1 0x0 PUSH2 0x100 EXP DUP2 SLOAD DUP2 PUSH20 0xFFFFFFFFFFFFFFFFFFFFFFFFFFFFFFFFFFFFFFFF MUL NOT AND SWAP1 DUP4 PUSH20 0xFFFFFFFFFFFFFFFFFFFFFFFFFFFFFFFFFFFFFFFF AND MUL OR SWAP1 SSTORE POP PUSH1 0x20 DUP3 ADD MLOAD DUP2 PUSH1 0x1 ADD SSTORE PUSH1 0x40 DUP3 ADD MLOAD DUP2 PUSH1 0x2 ADD PUSH1 0x0 PUSH2 0x100 EXP DUP2 SLOAD DUP2 PUSH1 0xFF MUL NOT AND SWAP1 DUP4 ISZERO ISZERO MUL OR SWAP1 SSTORE POP PUSH1 0x60 DUP3 ADD MLOAD DUP2 PUSH1 0x3 ADD SSTORE POP POP POP POP JUMP JUMPDEST PUSH1 0x2 SLOAD DUP2 JUMP JUMPDEST PUSH1 0x0 DUP1 REVERT JUMPDEST PUSH1 0x0 DUP2 SWAP1 POP SWAP2 SWAP1 POP JUMP JUMPDEST PUSH2 0xE92 DUP2 PUSH2 0xE7F JUMP JUMPDEST DUP2 EQ PUSH2 0xE9D JUMPI PUSH1 0x0 DUP1 REVERT JUMPDEST POP JUMP JUMPDEST PUSH1 0x0 DUP2 CALLDATALOAD SWAP1 POP PUSH2 0xEAF DUP2 PUSH2 0xE89 JUMP JUMPDEST SWAP3 SWAP2 POP POP JUMP JUMPDEST PUSH1 0x0 PUSH1 0x20 DUP3 DUP5 SUB SLT ISZERO PUSH2 0xECB JUMPI PUSH2 0xECA PUSH2 0xE7A JUMP JUMPDEST JUMPDEST PUSH1 0x0 PUSH2 0xED9 DUP5 DUP3 DUP6 ADD PUSH2 0xEA0 JUMP JUMPDEST SWAP2 POP POP SWAP3 SWAP2 POP POP JUMP JUMPDEST PUSH1 0x0 PUSH20 0xFFFFFFFFFFFFFFFFFFFFFFFFFFFFFFFFFFFFFFFF DUP3 AND SWAP1 POP SWAP2 SWAP1 POP JUMP JUMPDEST PUSH1 0x0 PUSH2 0xF0D DUP3 PUSH2 0xEE2 JUMP JUMPDEST SWAP1 POP SWAP2 SWAP1 POP JUMP JUMPDEST PUSH2 0xF1D DUP2 PUSH2 0xF02 JUMP JUMPDEST DUP3 MSTORE POP POP JUMP JUMPDEST PUSH1 0x0 PUSH1 0x20 DUP3 ADD SWAP1 POP PUSH2 0xF38 PUSH1 0x0 DUP4 ADD DUP5 PUSH2 0xF14 JUMP JUMPDEST SWAP3 SWAP2 POP POP JUMP JUMPDEST PUSH2 0xF47 DUP2 PUSH2 0xE7F JUMP JUMPDEST DUP3 MSTORE POP POP JUMP JUMPDEST PUSH1 0x0 DUP2 ISZERO ISZERO SWAP1 POP SWAP2 SWAP1 POP JUMP JUMPDEST PUSH2 0xF62 DUP2 PUSH2 0xF4D JUMP JUMPDEST DUP3 MSTORE POP POP JUMP JUMPDEST PUSH1 0x0 PUSH1 0x80 DUP3 ADD SWAP1 POP PUSH2 0xF7D PUSH1 0x0 DUP4 ADD DUP8 PUSH2 0xF14 JUMP JUMPDEST PUSH2 0xF8A PUSH1 0x20 DUP4 ADD DUP7 PUSH2 0xF3E JUMP JUMPDEST PUSH2 0xF97 PUSH1 0x40 DUP4 ADD DUP6 PUSH2 0xF59 JUMP JUMPDEST PUSH2 0xFA4 PUSH1 0x60 DUP4 ADD DUP5 PUSH2 0xF3E JUMP JUMPDEST SWAP6 SWAP5 POP POP POP POP POP JUMP JUMPDEST PUSH2 0xFB6 DUP2 PUSH2 0xF02 JUMP JUMPDEST DUP2 EQ PUSH2 0xFC1 JUMPI PUSH1 0x0 DUP1 REVERT JUMPDEST POP JUMP JUMPDEST PUSH1 0x0 DUP2 CALLDATALOAD SWAP1 POP PUSH2 0xFD3 DUP2 PUSH2 0xFAD JUMP JUMPDEST SWAP3 SWAP2 POP POP JUMP JUMPDEST PUSH1 0x0 PUSH1 0x20 DUP3 DUP5 SUB SLT ISZERO PUSH2 0xFEF JUMPI PUSH2 0xFEE PUSH2 0xE7A JUMP JUMPDEST JUMPDEST PUSH1 0x0 PUSH2 0xFFD DUP5 DUP3 DUP6 ADD PUSH2 0xFC4 JUMP JUMPDEST SWAP2 POP POP SWAP3 SWAP2 POP POP JUMP JUMPDEST PUSH1 0x0 DUP1 PUSH1 0x40 DUP4 DUP6 SUB SLT ISZERO PUSH2 0x101D JUMPI PUSH2 0x101C PUSH2 0xE7A JUMP JUMPDEST JUMPDEST PUSH1 0x0 PUSH2 0x102B DUP6 DUP3 DUP7 ADD PUSH2 0xEA0 JUMP JUMPDEST SWAP3 POP POP PUSH1 0x20 PUSH2 0x103C DUP6 DUP3 DUP7 ADD PUSH2 0xFC4 JUMP JUMPDEST SWAP2 POP POP SWAP3 POP SWAP3 SWAP1 POP JUMP JUMPDEST PUSH1 0x0 PUSH1 0x20 DUP3 ADD SWAP1 POP PUSH2 0x105B PUSH1 0x0 DUP4 ADD DUP5 PUSH2 0xF59 JUMP JUMPDEST SWAP3 SWAP2 POP POP JUMP JUMPDEST PUSH1 0x0 DUP1 PUSH1 0x40 DUP4 DUP6 SUB SLT ISZERO PUSH2 0x1078 JUMPI PUSH2 0x1077 PUSH2 0xE7A JUMP JUMPDEST JUMPDEST PUSH1 0x0 PUSH2 0x1086 DUP6 DUP3 DUP7 ADD PUSH2 0xFC4 JUMP JUMPDEST SWAP3 POP POP PUSH1 0x20 PUSH2 0x1097 DUP6 DUP3 DUP7 ADD PUSH2 0xEA0 JUMP JUMPDEST SWAP2 POP POP SWAP3 POP SWAP3 SWAP1 POP JUMP JUMPDEST PUSH1 0x0 PUSH1 0x20 DUP3 ADD SWAP1 POP PUSH2 0x10B6 PUSH1 0x0 DUP4 ADD DUP5 PUSH2 0xF3E JUMP JUMPDEST SWAP3 SWAP2 POP POP JUMP JUMPDEST PUSH1 0x0 DUP3 DUP3 MSTORE PUSH1 0x20 DUP3 ADD SWAP1 POP SWAP3 SWAP2 POP POP JUMP JUMPDEST PUSH32 0x41682061682061682120596F75206469646E27742073617920746865206D6167 PUSH1 0x0 DUP3 ADD MSTORE PUSH32 0x696320776F726421000000000000000000000000000000000000000000000000 PUSH1 0x20 DUP3 ADD MSTORE POP JUMP JUMPDEST PUSH1 0x0 PUSH2 0x1129 PUSH1 0x28 DUP4 PUSH2 0x10BC JUMP JUMPDEST SWAP2 POP PUSH2 0x1134 DUP3 PUSH2 0x10CD JUMP JUMPDEST PUSH1 0x40 DUP3 ADD SWAP1 POP SWAP2 SWAP1 POP JUMP JUMPDEST PUSH1 0x0 PUSH1 0x20 DUP3 ADD SWAP1 POP DUP2 DUP2 SUB PUSH1 0x0 DUP4 ADD MSTORE PUSH2 0x1158 DUP2 PUSH2 0x111C JUMP JUMPDEST SWAP1 POP SWAP2 SWAP1 POP JUMP JUMPDEST PUSH32 0x5468697320616464726573732068617320616C7265616479206265656E206164 PUSH1 0x0 DUP3 ADD MSTORE PUSH32 0x6465642061732061207369676E61746F72792E00000000000000000000000000 PUSH1 0x20 DUP3 ADD MSTORE POP JUMP JUMPDEST PUSH1 0x0 PUSH2 0x11BB PUSH1 0x33 DUP4 PUSH2 0x10BC JUMP JUMPDEST SWAP2 POP PUSH2 0x11C6 DUP3 PUSH2 0x115F JUMP JUMPDEST PUSH1 0x40 DUP3 ADD SWAP1 POP SWAP2 SWAP1 POP JUMP JUMPDEST PUSH1 0x0 PUSH1 0x20 DUP3 ADD SWAP1 POP DUP2 DUP2 SUB PUSH1 0x0 DUP4 ADD MSTORE PUSH2 0x11EA DUP2 PUSH2 0x11AE JUMP JUMPDEST SWAP1 POP SWAP2 SWAP1 POP JUMP JUMPDEST PUSH32 0x4E6F7420616E206F776E65722E00000000000000000000000000000000000000 PUSH1 0x0 DUP3 ADD MSTORE POP JUMP JUMPDEST PUSH1 0x0 PUSH2 0x1227 PUSH1 0xD DUP4 PUSH2 0x10BC JUMP JUMPDEST SWAP2 POP PUSH2 0x1232 DUP3 PUSH2 0x11F1 JUMP JUMPDEST PUSH1 0x20 DUP3 ADD SWAP1 POP SWAP2 SWAP1 POP JUMP JUMPDEST PUSH1 0x0 PUSH1 0x20 DUP3 ADD SWAP1 POP DUP2 DUP2 SUB PUSH1 0x0 DUP4 ADD MSTORE PUSH2 0x1256 DUP2 PUSH2 0x121A JUMP JUMPDEST SWAP1 POP SWAP2 SWAP1 POP JUMP JUMPDEST PUSH32 0x4E487B7100000000000000000000000000000000000000000000000000000000 PUSH1 0x0 MSTORE PUSH1 0x32 PUSH1 0x4 MSTORE PUSH1 0x24 PUSH1 0x0 REVERT JUMPDEST PUSH32 0x43616E6E6F7420657865637574652054782E204E6F7420656E6F756768206170 PUSH1 0x0 DUP3 ADD MSTORE PUSH32 0x70726F76616C732E000000000000000000000000000000000000000000000000 PUSH1 0x20 DUP3 ADD MSTORE POP JUMP JUMPDEST PUSH1 0x0 PUSH2 0x12E8 PUSH1 0x28 DUP4 PUSH2 0x10BC JUMP JUMPDEST SWAP2 POP PUSH2 0x12F3 DUP3 PUSH2 0x128C JUMP JUMPDEST PUSH1 0x40 DUP3 ADD SWAP1 POP SWAP2 SWAP1 POP JUMP JUMPDEST PUSH1 0x0 PUSH1 0x20 DUP3 ADD SWAP1 POP DUP2 DUP2 SUB PUSH1 0x0 DUP4 ADD MSTORE PUSH2 0x1317 DUP2 PUSH2 0x12DB JUMP JUMPDEST SWAP1 POP SWAP2 SWAP1 POP JUMP JUMPDEST PUSH32 0x546869732054782068617320616C7265616479206265656E2065786563757465 PUSH1 0x0 DUP3 ADD MSTORE PUSH32 0x642E000000000000000000000000000000000000000000000000000000000000 PUSH1 0x20 DUP3 ADD MSTORE POP JUMP JUMPDEST PUSH1 0x0 PUSH2 0x137A PUSH1 0x22 DUP4 PUSH2 0x10BC JUMP JUMPDEST SWAP2 POP PUSH2 0x1385 DUP3 PUSH2 0x131E JUMP JUMPDEST PUSH1 0x40 DUP3 ADD SWAP1 POP SWAP2 SWAP1 POP JUMP JUMPDEST PUSH1 0x0 PUSH1 0x20 DUP3 ADD SWAP1 POP DUP2 DUP2 SUB PUSH1 0x0 DUP4 ADD MSTORE PUSH2 0x13A9 DUP2 PUSH2 0x136D JUMP JUMPDEST SWAP1 POP SWAP2 SWAP1 POP JUMP JUMPDEST PUSH32 0x436F6E747261637420646F6573206E6F742068617665206C6172676520656E6F PUSH1 0x0 DUP3 ADD MSTORE PUSH32 0x7567682062616C616E636520746F2073656E642054782E000000000000000000 PUSH1 0x20 DUP3 ADD MSTORE POP JUMP JUMPDEST PUSH1 0x0 PUSH2 0x140C PUSH1 0x37 DUP4 PUSH2 0x10BC JUMP JUMPDEST SWAP2 POP PUSH2 0x1417 DUP3 PUSH2 0x13B0 JUMP JUMPDEST PUSH1 0x40 DUP3 ADD SWAP1 POP SWAP2 SWAP1 POP JUMP JUMPDEST PUSH1 0x0 PUSH1 0x20 DUP3 ADD SWAP1 POP DUP2 DUP2 SUB PUSH1 0x0 DUP4 ADD MSTORE PUSH2 0x143B DUP2 PUSH2 0x13FF JUMP JUMPDEST SWAP1 POP SWAP2 SWAP1 POP JUMP JUMPDEST PUSH1 0x0 DUP2 SWAP1 POP SWAP3 SWAP2 POP POP JUMP JUMPDEST POP JUMP JUMPDEST PUSH1 0x0 PUSH2 0x145D PUSH1 0x0 DUP4 PUSH2 0x1442 JUMP JUMPDEST SWAP2 POP PUSH2 0x1468 DUP3 PUSH2 0x144D JUMP JUMPDEST PUSH1 0x0 DUP3 ADD SWAP1 POP SWAP2 SWAP1 POP JUMP JUMPDEST PUSH1 0x0 PUSH2 0x147E DUP3 PUSH2 0x1450 JUMP JUMPDEST SWAP2 POP DUP2 SWAP1 POP SWAP2 SWAP1 POP JUMP JUMPDEST PUSH32 0x5478206661696C65640000000000000000000000000000000000000000000000 PUSH1 0x0 DUP3 ADD MSTORE POP JUMP JUMPDEST PUSH1 0x0 PUSH2 0x14BE PUSH1 0x9 DUP4 PUSH2 0x10BC JUMP JUMPDEST SWAP2 POP PUSH2 0x14C9 DUP3 PUSH2 0x1488 JUMP JUMPDEST PUSH1 0x20 DUP3 ADD SWAP1 POP SWAP2 SWAP1 POP JUMP JUMPDEST PUSH1 0x0 PUSH1 0x20 DUP3 ADD SWAP1 POP DUP2 DUP2 SUB PUSH1 0x0 DUP4 ADD MSTORE PUSH2 0x14ED DUP2 PUSH2 0x14B1 JUMP JUMPDEST SWAP1 POP SWAP2 SWAP1 POP JUMP JUMPDEST PUSH32 0x596F75206861766520616C726561647920766F7465642E000000000000000000 PUSH1 0x0 DUP3 ADD MSTORE POP JUMP JUMPDEST PUSH1 0x0 PUSH2 0x152A PUSH1 0x17 DUP4 PUSH2 0x10BC JUMP JUMPDEST SWAP2 POP PUSH2 0x1535 DUP3 PUSH2 0x14F4 JUMP JUMPDEST PUSH1 0x20 DUP3 ADD SWAP1 POP SWAP2 SWAP1 POP JUMP JUMPDEST PUSH1 0x0 PUSH1 0x20 DUP3 ADD SWAP1 POP DUP2 DUP2 SUB PUSH1 0x0 DUP4 ADD MSTORE PUSH2 0x1559 DUP2 PUSH2 0x151D JUMP JUMPDEST SWAP1 POP SWAP2 SWAP1 POP JUMP JUMPDEST PUSH32 0x4E487B7100000000000000000000000000000000000000000000000000000000 PUSH1 0x0 MSTORE PUSH1 0x11 PUSH1 0x4 MSTORE PUSH1 0x24 PUSH1 0x0 REVERT JUMPDEST PUSH1 0x0 PUSH2 0x159A DUP3 PUSH2 0xE7F JUMP JUMPDEST SWAP2 POP PUSH2 0x15A5 DUP4 PUSH2 0xE7F JUMP JUMPDEST SWAP3 POP DUP3 PUSH32 0xFFFFFFFFFFFFFFFFFFFFFFFFFFFFFFFFFFFFFFFFFFFFFFFFFFFFFFFFFFFFFFFF SUB DUP3 GT ISZERO PUSH2 0x15DA JUMPI PUSH2 0x15D9 PUSH2 0x1560 JUMP JUMPDEST JUMPDEST DUP3 DUP3 ADD SWAP1 POP SWAP3 SWAP2 POP POP JUMP JUMPDEST PUSH32 0x596F7520686176656E277420766F746564207965742100000000000000000000 PUSH1 0x0 DUP3 ADD MSTORE POP JUMP JUMPDEST PUSH1 0x0 PUSH2 0x161B PUSH1 0x16 DUP4 PUSH2 0x10BC JUMP JUMPDEST SWAP2 POP PUSH2 0x1626 DUP3 PUSH2 0x15E5 JUMP JUMPDEST PUSH1 0x20 DUP3 ADD SWAP1 POP SWAP2 SWAP1 POP JUMP JUMPDEST PUSH1 0x0 PUSH1 0x20 DUP3 ADD SWAP1 POP DUP2 DUP2 SUB PUSH1 0x0 DUP4 ADD MSTORE PUSH2 0x164A DUP2 PUSH2 0x160E JUMP JUMPDEST SWAP1 POP SWAP2 SWAP1 POP JUMP JUMPDEST PUSH1 0x0 PUSH2 0x165C DUP3 PUSH2 0xE7F JUMP JUMPDEST SWAP2 POP PUSH2 0x1667 DUP4 PUSH2 0xE7F JUMP JUMPDEST SWAP3 POP DUP3 DUP3 LT ISZERO PUSH2 0x167A JUMPI PUSH2 0x1679 PUSH2 0x1560 JUMP JUMPDEST JUMPDEST DUP3 DUP3 SUB SWAP1 POP SWAP3 SWAP2 POP POP JUMP INVALID LOG2 PUSH5 0x6970667358 0x22 SLT KECCAK256 SLOAD LOG1 PUSH17 0x95E1543D29288F784671EBF3CC9FE0394A 0x27 0xE PUSH21 0xD681113CEBB7B3610364736F6C634300080D003300 "
				},
				"gasEstimates": {
					"creation": {
						"codeDepositCost": "1163800",
						"executionCost": "120513",
						"totalCost": "1284313"
					},
					"external": {
						"addSignatory(address)": "77886",
						"approvalsRequired()": "2539",
						"changeApprovals(uint256)": "24753",
						"creator()": "2534",
						"executeTX(uint256)": "infinite",
						"hasVoted(uint256,address)": "3087",
						"ownerList(address)": "2867",
						"owners(uint256)": "4957",
						"proposeTX(address,uint256)": "100864",
						"proposedTransactions(uint256)": "infinite",
						"retractVote(uint256)": "infinite",
						"voteTX(uint256)": "infinite"
					}
				},
				"methodIdentifiers": {
					"addSignatory(address)": "21dd877f",
					"approvalsRequired()": "ea1d59c9",
					"changeApprovals(uint256)": "c47bd026",
					"creator()": "02d05d3f",
					"executeTX(uint256)": "296e5fc3",
					"hasVoted(uint256,address)": "43859632",
					"ownerList(address)": "51f22a72",
					"owners(uint256)": "025e7c27",
					"proposeTX(address,uint256)": "ced5c3f1",
					"proposedTransactions(uint256)": "0e0d798c",
					"retractVote(uint256)": "ae4c467e",
					"voteTX(uint256)": "3fa11c97"
				}
			},
			"storageLayout": {
				"storage": [
					{
						"astId": 3,
						"contract": "contracts/W3HW.sol:HWMultiSig",
						"label": "creator",
						"offset": 0,
						"slot": "0",
						"type": "t_address"
					},
					{
						"astId": 6,
						"contract": "contracts/W3HW.sol:HWMultiSig",
						"label": "owners",
						"offset": 0,
						"slot": "1",
						"type": "t_array(t_address)dyn_storage"
					},
					{
						"astId": 9,
						"contract": "contracts/W3HW.sol:HWMultiSig",
						"label": "approvalsRequired",
						"offset": 0,
						"slot": "2",
						"type": "t_uint256"
					},
					{
						"astId": 13,
						"contract": "contracts/W3HW.sol:HWMultiSig",
						"label": "proposedTransactions",
						"offset": 0,
						"slot": "3",
						"type": "t_array(t_struct(Transaction)81_storage)dyn_storage"
					},
					{
						"astId": 19,
						"contract": "contracts/W3HW.sol:HWMultiSig",
						"label": "hasVoted",
						"offset": 0,
						"slot": "4",
						"type": "t_mapping(t_uint256,t_mapping(t_address,t_bool))"
					},
					{
						"astId": 23,
						"contract": "contracts/W3HW.sol:HWMultiSig",
						"label": "ownerList",
						"offset": 0,
						"slot": "5",
						"type": "t_mapping(t_address,t_bool)"
					}
				],
				"types": {
					"t_address": {
						"encoding": "inplace",
						"label": "address",
						"numberOfBytes": "20"
					},
					"t_array(t_address)dyn_storage": {
						"base": "t_address",
						"encoding": "dynamic_array",
						"label": "address[]",
						"numberOfBytes": "32"
					},
					"t_array(t_struct(Transaction)81_storage)dyn_storage": {
						"base": "t_struct(Transaction)81_storage",
						"encoding": "dynamic_array",
						"label": "struct HWMultiSig.Transaction[]",
						"numberOfBytes": "32"
					},
					"t_bool": {
						"encoding": "inplace",
						"label": "bool",
						"numberOfBytes": "1"
					},
					"t_mapping(t_address,t_bool)": {
						"encoding": "mapping",
						"key": "t_address",
						"label": "mapping(address => bool)",
						"numberOfBytes": "32",
						"value": "t_bool"
					},
					"t_mapping(t_uint256,t_mapping(t_address,t_bool))": {
						"encoding": "mapping",
						"key": "t_uint256",
						"label": "mapping(uint256 => mapping(address => bool))",
						"numberOfBytes": "32",
						"value": "t_mapping(t_address,t_bool)"
					},
					"t_struct(Transaction)81_storage": {
						"encoding": "inplace",
						"label": "struct HWMultiSig.Transaction",
						"members": [
							{
								"astId": 74,
								"contract": "contracts/W3HW.sol:HWMultiSig",
								"label": "sendTo",
								"offset": 0,
								"slot": "0",
								"type": "t_address"
							},
							{
								"astId": 76,
								"contract": "contracts/W3HW.sol:HWMultiSig",
								"label": "amount",
								"offset": 0,
								"slot": "1",
								"type": "t_uint256"
							},
							{
								"astId": 78,
								"contract": "contracts/W3HW.sol:HWMultiSig",
								"label": "alreadyExecuted",
								"offset": 0,
								"slot": "2",
								"type": "t_bool"
							},
							{
								"astId": 80,
								"contract": "contracts/W3HW.sol:HWMultiSig",
								"label": "approvals",
								"offset": 0,
								"slot": "3",
								"type": "t_uint256"
							}
						],
						"numberOfBytes": "128"
					},
					"t_uint256": {
						"encoding": "inplace",
						"label": "uint256",
						"numberOfBytes": "32"
					}
				}
			},
			"userdoc": {
				"kind": "user",
				"methods": {},
				"version": 1
			}
		}
	}
}