{
	"contracts/Day5HW.sol": {
		"Day5HW": {
			"abi": [
				{
					"inputs": [],
					"name": "adds",
					"outputs": [
						{
							"internalType": "uint256",
							"name": "",
							"type": "uint256"
						}
					],
					"stateMutability": "pure",
					"type": "function"
				},
				{
					"inputs": [
						{
							"internalType": "uint256",
							"name": "_numOne",
							"type": "uint256"
						},
						{
							"internalType": "uint256",
							"name": "_numTwo",
							"type": "uint256"
						}
					],
					"name": "addsTwo",
					"outputs": [
						{
							"internalType": "string",
							"name": "",
							"type": "string"
						}
					],
					"stateMutability": "view",
					"type": "function"
				},
				{
					"inputs": [
						{
							"internalType": "uint256",
							"name": "_times",
							"type": "uint256"
						}
					],
					"name": "doubles",
					"outputs": [
						{
							"internalType": "uint256",
							"name": "",
							"type": "uint256"
						}
					],
					"stateMutability": "view",
					"type": "function"
				},
				{
					"inputs": [],
					"name": "name",
					"outputs": [
						{
							"internalType": "string",
							"name": "",
							"type": "string"
						}
					],
					"stateMutability": "pure",
					"type": "function"
				},
				{
					"inputs": [
						{
							"internalType": "string",
							"name": "_input",
							"type": "string"
						}
					],
					"name": "yum",
					"outputs": [
						{
							"internalType": "string",
							"name": "",
							"type": "string"
						}
					],
					"stateMutability": "view",
					"type": "function"
				}
			],
			"devdoc": {
				"kind": "dev",
				"methods": {},
				"version": 1
			},
			"evm": {
				"assembly": "    /* \"contracts/Day5HW.sol\":61:903  contract Day5HW {... */\n  mstore(0x40, 0x80)\n  callvalue\n  dup1\n  iszero\n  tag_1\n  jumpi\n  0x00\n  dup1\n  revert\ntag_1:\n  pop\n  dataSize(sub_0)\n  dup1\n  dataOffset(sub_0)\n  0x00\n  codecopy\n  0x00\n  return\nstop\n\nsub_0: assembly {\n        /* \"contracts/Day5HW.sol\":61:903  contract Day5HW {... */\n      mstore(0x40, 0x80)\n      callvalue\n      dup1\n      iszero\n      tag_1\n      jumpi\n      0x00\n      dup1\n      revert\n    tag_1:\n      pop\n      jumpi(tag_2, lt(calldatasize, 0x04))\n      shr(0xe0, calldataload(0x00))\n      dup1\n      0x06fdde03\n      eq\n      tag_3\n      jumpi\n      dup1\n      0x448b1aac\n      eq\n      tag_4\n      jumpi\n      dup1\n      0xc49bac81\n      eq\n      tag_5\n      jumpi\n      dup1\n      0xca507aa9\n      eq\n      tag_6\n      jumpi\n      dup1\n      0xeba86558\n      eq\n      tag_7\n      jumpi\n    tag_2:\n      0x00\n      dup1\n      revert\n        /* \"contracts/Day5HW.sol\":168:252  function name() public pure returns(string memory) {... */\n    tag_3:\n      tag_8\n      tag_9\n      jump\t// in\n    tag_8:\n      mload(0x40)\n      tag_10\n      swap2\n      swap1\n      tag_11\n      jump\t// in\n    tag_10:\n      mload(0x40)\n      dup1\n      swap2\n      sub\n      swap1\n      return\n        /* \"contracts/Day5HW.sol\":698:898  function doubles(uint _times) public view returns(uint) {... */\n    tag_4:\n      tag_12\n      0x04\n      dup1\n      calldatasize\n      sub\n      dup2\n      add\n      swap1\n      tag_13\n      swap2\n      swap1\n      tag_14\n      jump\t// in\n    tag_13:\n      tag_15\n      jump\t// in\n    tag_12:\n      mload(0x40)\n      tag_16\n      swap2\n      swap1\n      tag_17\n      jump\t// in\n    tag_16:\n      mload(0x40)\n      dup1\n      swap2\n      sub\n      swap1\n      return\n        /* \"contracts/Day5HW.sol\":523:690  function addsTwo(uint _numOne, uint _numTwo) public view returns(string memory) {... */\n    tag_5:\n      tag_18\n      0x04\n      dup1\n      calldatasize\n      sub\n      dup2\n      add\n      swap1\n      tag_19\n      swap2\n      swap1\n      tag_20\n      jump\t// in\n    tag_19:\n      tag_21\n      jump\t// in\n    tag_18:\n      mload(0x40)\n      tag_22\n      swap2\n      swap1\n      tag_11\n      jump\t// in\n    tag_22:\n      mload(0x40)\n      dup1\n      swap2\n      sub\n      swap1\n      return\n        /* \"contracts/Day5HW.sol\":260:515  function yum(string memory _input) public view returns (string memory) {... */\n    tag_6:\n      tag_23\n      0x04\n      dup1\n      calldatasize\n      sub\n      dup2\n      add\n      swap1\n      tag_24\n      swap2\n      swap1\n      tag_25\n      jump\t// in\n    tag_24:\n      tag_26\n      jump\t// in\n    tag_23:\n      mload(0x40)\n      tag_27\n      swap2\n      swap1\n      tag_11\n      jump\t// in\n    tag_27:\n      mload(0x40)\n      dup1\n      swap2\n      sub\n      swap1\n      return\n        /* \"contracts/Day5HW.sol\":86:160  function adds() public pure returns(uint) {... */\n    tag_7:\n      tag_28\n      tag_29\n      jump\t// in\n    tag_28:\n      mload(0x40)\n      tag_30\n      swap2\n      swap1\n      tag_17\n      jump\t// in\n    tag_30:\n      mload(0x40)\n      dup1\n      swap2\n      sub\n      swap1\n      return\n        /* \"contracts/Day5HW.sol\":168:252  function name() public pure returns(string memory) {... */\n    tag_9:\n        /* \"contracts/Day5HW.sol\":204:217  string memory */\n      0x60\n        /* \"contracts/Day5HW.sol\":230:244  return \"Brian\" */\n      mload(0x40)\n      dup1\n      0x40\n      add\n      0x40\n      mstore\n      dup1\n      0x05\n      dup2\n      mstore\n      0x20\n      add\n      0x427269616e000000000000000000000000000000000000000000000000000000\n      dup2\n      mstore\n      pop\n      swap1\n      pop\n        /* \"contracts/Day5HW.sol\":168:252  function name() public pure returns(string memory) {... */\n      swap1\n      jump\t// out\n        /* \"contracts/Day5HW.sol\":698:898  function doubles(uint _times) public view returns(uint) {... */\n    tag_15:\n        /* \"contracts/Day5HW.sol\":748:752  uint */\n      0x00\n        /* \"contracts/Day5HW.sol\":765:777  uint product */\n      dup1\n        /* \"contracts/Day5HW.sol\":780:781  1 */\n      0x01\n        /* \"contracts/Day5HW.sol\":765:781  uint product = 1 */\n      swap1\n      pop\n        /* \"contracts/Day5HW.sol\":797:803  uint i */\n      0x00\n        /* \"contracts/Day5HW.sol\":792:865  for (uint i = 0; i < _times; i++) {... */\n    tag_33:\n        /* \"contracts/Day5HW.sol\":813:819  _times */\n      dup4\n        /* \"contracts/Day5HW.sol\":809:810  i */\n      dup2\n        /* \"contracts/Day5HW.sol\":809:819  i < _times */\n      lt\n        /* \"contracts/Day5HW.sol\":792:865  for (uint i = 0; i < _times; i++) {... */\n      iszero\n      tag_34\n      jumpi\n        /* \"contracts/Day5HW.sol\":852:853  2 */\n      0x02\n        /* \"contracts/Day5HW.sol\":841:853  product *= 2 */\n      dup3\n      tag_36\n      swap2\n      swap1\n      tag_37\n      jump\t// in\n    tag_36:\n      swap2\n      pop\n        /* \"contracts/Day5HW.sol\":821:824  i++ */\n      dup1\n      dup1\n      tag_38\n      swap1\n      tag_39\n      jump\t// in\n    tag_38:\n      swap2\n      pop\n      pop\n        /* \"contracts/Day5HW.sol\":792:865  for (uint i = 0; i < _times; i++) {... */\n      jump(tag_33)\n    tag_34:\n      pop\n        /* \"contracts/Day5HW.sol\":882:889  product */\n      dup1\n        /* \"contracts/Day5HW.sol\":875:890  return(product) */\n      swap2\n      pop\n      pop\n        /* \"contracts/Day5HW.sol\":698:898  function doubles(uint _times) public view returns(uint) {... */\n      swap2\n      swap1\n      pop\n      jump\t// out\n        /* \"contracts/Day5HW.sol\":523:690  function addsTwo(uint _numOne, uint _numTwo) public view returns(string memory) {... */\n    tag_21:\n        /* \"contracts/Day5HW.sol\":588:601  string memory */\n      0x60\n        /* \"contracts/Day5HW.sol\":638:640  10 */\n      0x0a\n        /* \"contracts/Day5HW.sol\":627:634  _numTwo */\n      dup3\n        /* \"contracts/Day5HW.sol\":617:624  _numOne */\n      dup5\n        /* \"contracts/Day5HW.sol\":617:634  _numOne + _numTwo */\n      tag_41\n      swap2\n      swap1\n      tag_42\n      jump\t// in\n    tag_41:\n        /* \"contracts/Day5HW.sol\":617:640  _numOne + _numTwo == 10 */\n      sub\n        /* \"contracts/Day5HW.sol\":614:683  if(_numOne + _numTwo == 10) {... */\n      tag_43\n      jumpi\n        /* \"contracts/Day5HW.sol\":657:671  return \"party\" */\n      mload(0x40)\n      dup1\n      0x40\n      add\n      0x40\n      mstore\n      dup1\n      0x05\n      dup2\n      mstore\n      0x20\n      add\n      0x7061727479000000000000000000000000000000000000000000000000000000\n      dup2\n      mstore\n      pop\n      swap1\n      pop\n      jump(tag_40)\n        /* \"contracts/Day5HW.sol\":614:683  if(_numOne + _numTwo == 10) {... */\n    tag_43:\n        /* \"contracts/Day5HW.sol\":523:690  function addsTwo(uint _numOne, uint _numTwo) public view returns(string memory) {... */\n    tag_40:\n      swap3\n      swap2\n      pop\n      pop\n      jump\t// out\n        /* \"contracts/Day5HW.sol\":260:515  function yum(string memory _input) public view returns (string memory) {... */\n    tag_26:\n        /* \"contracts/Day5HW.sol\":316:329  string memory */\n      0x60\n        /* \"contracts/Day5HW.sol\":413:419  _input */\n      dup2\n        /* \"contracts/Day5HW.sol\":396:420  abi.encodePacked(_input) */\n      add(0x20, mload(0x40))\n      tag_45\n      swap2\n      swap1\n      tag_46\n      jump\t// in\n    tag_45:\n      mload(0x40)\n      0x20\n      dup2\n      dup4\n      sub\n      sub\n      dup2\n      mstore\n      swap1\n      0x40\n      mstore\n        /* \"contracts/Day5HW.sol\":386:421  keccak256(abi.encodePacked(_input)) */\n      dup1\n      mload\n      swap1\n      0x20\n      add\n      keccak256\n        /* \"contracts/Day5HW.sol\":355:381  abi.encodePacked(\"cookie\") */\n      add(0x20, mload(0x40))\n      tag_47\n      swap1\n      tag_48\n      jump\t// in\n    tag_47:\n      mload(0x40)\n      0x20\n      dup2\n      dup4\n      sub\n      sub\n      dup2\n      mstore\n      swap1\n      0x40\n      mstore\n        /* \"contracts/Day5HW.sol\":345:382  keccak256(abi.encodePacked(\"cookie\")) */\n      dup1\n      mload\n      swap1\n      0x20\n      add\n      keccak256\n        /* \"contracts/Day5HW.sol\":345:421  keccak256(abi.encodePacked(\"cookie\")) == keccak256(abi.encodePacked(_input)) */\n      sub\n        /* \"contracts/Day5HW.sol\":342:508  if(keccak256(abi.encodePacked(\"cookie\")) == keccak256(abi.encodePacked(_input))) {... */\n      tag_49\n      jumpi\n        /* \"contracts/Day5HW.sol\":438:450  return \"yum\" */\n      mload(0x40)\n      dup1\n      0x40\n      add\n      0x40\n      mstore\n      dup1\n      0x03\n      dup2\n      mstore\n      0x20\n      add\n      0x79756d0000000000000000000000000000000000000000000000000000000000\n      dup2\n      mstore\n      pop\n      swap1\n      pop\n      jump(tag_44)\n        /* \"contracts/Day5HW.sol\":342:508  if(keccak256(abi.encodePacked(\"cookie\")) == keccak256(abi.encodePacked(_input))) {... */\n    tag_49:\n        /* \"contracts/Day5HW.sol\":483:496  return \"yuck\" */\n      mload(0x40)\n      dup1\n      0x40\n      add\n      0x40\n      mstore\n      dup1\n      0x04\n      dup2\n      mstore\n      0x20\n      add\n      0x7975636b00000000000000000000000000000000000000000000000000000000\n      dup2\n      mstore\n      pop\n      swap1\n      pop\n        /* \"contracts/Day5HW.sol\":260:515  function yum(string memory _input) public view returns (string memory) {... */\n    tag_44:\n      swap2\n      swap1\n      pop\n      jump\t// out\n        /* \"contracts/Day5HW.sol\":86:160  function adds() public pure returns(uint) {... */\n    tag_29:\n        /* \"contracts/Day5HW.sol\":122:126  uint */\n      0x00\n        /* \"contracts/Day5HW.sol\":145:152  60 + 40 */\n      0x64\n        /* \"contracts/Day5HW.sol\":138:152  return 60 + 40 */\n      swap1\n      pop\n        /* \"contracts/Day5HW.sol\":86:160  function adds() public pure returns(uint) {... */\n      swap1\n      jump\t// out\n        /* \"#utility.yul\":7:106   */\n    tag_52:\n        /* \"#utility.yul\":59:65   */\n      0x00\n        /* \"#utility.yul\":93:98   */\n      dup2\n        /* \"#utility.yul\":87:99   */\n      mload\n        /* \"#utility.yul\":77:99   */\n      swap1\n      pop\n        /* \"#utility.yul\":7:106   */\n      swap2\n      swap1\n      pop\n      jump\t// out\n        /* \"#utility.yul\":112:281   */\n    tag_53:\n        /* \"#utility.yul\":196:207   */\n      0x00\n        /* \"#utility.yul\":230:236   */\n      dup3\n        /* \"#utility.yul\":225:228   */\n      dup3\n        /* \"#utility.yul\":218:237   */\n      mstore\n        /* \"#utility.yul\":270:274   */\n      0x20\n        /* \"#utility.yul\":265:268   */\n      dup3\n        /* \"#utility.yul\":261:275   */\n      add\n        /* \"#utility.yul\":246:275   */\n      swap1\n      pop\n        /* \"#utility.yul\":112:281   */\n      swap3\n      swap2\n      pop\n      pop\n      jump\t// out\n        /* \"#utility.yul\":287:594   */\n    tag_54:\n        /* \"#utility.yul\":355:356   */\n      0x00\n        /* \"#utility.yul\":365:478   */\n    tag_82:\n        /* \"#utility.yul\":379:385   */\n      dup4\n        /* \"#utility.yul\":376:377   */\n      dup2\n        /* \"#utility.yul\":373:386   */\n      lt\n        /* \"#utility.yul\":365:478   */\n      iszero\n      tag_84\n      jumpi\n        /* \"#utility.yul\":464:465   */\n      dup1\n        /* \"#utility.yul\":459:462   */\n      dup3\n        /* \"#utility.yul\":455:466   */\n      add\n        /* \"#utility.yul\":449:467   */\n      mload\n        /* \"#utility.yul\":445:446   */\n      dup2\n        /* \"#utility.yul\":440:443   */\n      dup5\n        /* \"#utility.yul\":436:447   */\n      add\n        /* \"#utility.yul\":429:468   */\n      mstore\n        /* \"#utility.yul\":401:403   */\n      0x20\n        /* \"#utility.yul\":398:399   */\n      dup2\n        /* \"#utility.yul\":394:404   */\n      add\n        /* \"#utility.yul\":389:404   */\n      swap1\n      pop\n        /* \"#utility.yul\":365:478   */\n      jump(tag_82)\n    tag_84:\n        /* \"#utility.yul\":496:502   */\n      dup4\n        /* \"#utility.yul\":493:494   */\n      dup2\n        /* \"#utility.yul\":490:503   */\n      gt\n        /* \"#utility.yul\":487:588   */\n      iszero\n      tag_85\n      jumpi\n        /* \"#utility.yul\":576:577   */\n      0x00\n        /* \"#utility.yul\":567:573   */\n      dup5\n        /* \"#utility.yul\":562:565   */\n      dup5\n        /* \"#utility.yul\":558:574   */\n      add\n        /* \"#utility.yul\":551:578   */\n      mstore\n        /* \"#utility.yul\":487:588   */\n    tag_85:\n        /* \"#utility.yul\":336:594   */\n      pop\n        /* \"#utility.yul\":287:594   */\n      pop\n      pop\n      pop\n      jump\t// out\n        /* \"#utility.yul\":600:702   */\n    tag_55:\n        /* \"#utility.yul\":641:647   */\n      0x00\n        /* \"#utility.yul\":692:694   */\n      0x1f\n        /* \"#utility.yul\":688:695   */\n      not\n        /* \"#utility.yul\":683:685   */\n      0x1f\n        /* \"#utility.yul\":676:681   */\n      dup4\n        /* \"#utility.yul\":672:686   */\n      add\n        /* \"#utility.yul\":668:696   */\n      and\n        /* \"#utility.yul\":658:696   */\n      swap1\n      pop\n        /* \"#utility.yul\":600:702   */\n      swap2\n      swap1\n      pop\n      jump\t// out\n        /* \"#utility.yul\":708:1072   */\n    tag_56:\n        /* \"#utility.yul\":796:799   */\n      0x00\n        /* \"#utility.yul\":824:863   */\n      tag_88\n        /* \"#utility.yul\":857:862   */\n      dup3\n        /* \"#utility.yul\":824:863   */\n      tag_52\n      jump\t// in\n    tag_88:\n        /* \"#utility.yul\":879:950   */\n      tag_89\n        /* \"#utility.yul\":943:949   */\n      dup2\n        /* \"#utility.yul\":938:941   */\n      dup6\n        /* \"#utility.yul\":879:950   */\n      tag_53\n      jump\t// in\n    tag_89:\n        /* \"#utility.yul\":872:950   */\n      swap4\n      pop\n        /* \"#utility.yul\":959:1011   */\n      tag_90\n        /* \"#utility.yul\":1004:1010   */\n      dup2\n        /* \"#utility.yul\":999:1002   */\n      dup6\n        /* \"#utility.yul\":992:996   */\n      0x20\n        /* \"#utility.yul\":985:990   */\n      dup7\n        /* \"#utility.yul\":981:997   */\n      add\n        /* \"#utility.yul\":959:1011   */\n      tag_54\n      jump\t// in\n    tag_90:\n        /* \"#utility.yul\":1036:1065   */\n      tag_91\n        /* \"#utility.yul\":1058:1064   */\n      dup2\n        /* \"#utility.yul\":1036:1065   */\n      tag_55\n      jump\t// in\n    tag_91:\n        /* \"#utility.yul\":1031:1034   */\n      dup5\n        /* \"#utility.yul\":1027:1066   */\n      add\n        /* \"#utility.yul\":1020:1066   */\n      swap2\n      pop\n        /* \"#utility.yul\":800:1072   */\n      pop\n        /* \"#utility.yul\":708:1072   */\n      swap3\n      swap2\n      pop\n      pop\n      jump\t// out\n        /* \"#utility.yul\":1078:1391   */\n    tag_11:\n        /* \"#utility.yul\":1191:1195   */\n      0x00\n        /* \"#utility.yul\":1229:1231   */\n      0x20\n        /* \"#utility.yul\":1218:1227   */\n      dup3\n        /* \"#utility.yul\":1214:1232   */\n      add\n        /* \"#utility.yul\":1206:1232   */\n      swap1\n      pop\n        /* \"#utility.yul\":1278:1287   */\n      dup2\n        /* \"#utility.yul\":1272:1276   */\n      dup2\n        /* \"#utility.yul\":1268:1288   */\n      sub\n        /* \"#utility.yul\":1264:1265   */\n      0x00\n        /* \"#utility.yul\":1253:1262   */\n      dup4\n        /* \"#utility.yul\":1249:1266   */\n      add\n        /* \"#utility.yul\":1242:1289   */\n      mstore\n        /* \"#utility.yul\":1306:1384   */\n      tag_93\n        /* \"#utility.yul\":1379:1383   */\n      dup2\n        /* \"#utility.yul\":1370:1376   */\n      dup5\n        /* \"#utility.yul\":1306:1384   */\n      tag_56\n      jump\t// in\n    tag_93:\n        /* \"#utility.yul\":1298:1384   */\n      swap1\n      pop\n        /* \"#utility.yul\":1078:1391   */\n      swap3\n      swap2\n      pop\n      pop\n      jump\t// out\n        /* \"#utility.yul\":1397:1472   */\n    tag_57:\n        /* \"#utility.yul\":1430:1436   */\n      0x00\n        /* \"#utility.yul\":1463:1465   */\n      0x40\n        /* \"#utility.yul\":1457:1466   */\n      mload\n        /* \"#utility.yul\":1447:1466   */\n      swap1\n      pop\n        /* \"#utility.yul\":1397:1472   */\n      swap1\n      jump\t// out\n        /* \"#utility.yul\":1478:1595   */\n    tag_58:\n        /* \"#utility.yul\":1587:1588   */\n      0x00\n        /* \"#utility.yul\":1584:1585   */\n      dup1\n        /* \"#utility.yul\":1577:1589   */\n      revert\n        /* \"#utility.yul\":1601:1718   */\n    tag_59:\n        /* \"#utility.yul\":1710:1711   */\n      0x00\n        /* \"#utility.yul\":1707:1708   */\n      dup1\n        /* \"#utility.yul\":1700:1712   */\n      revert\n        /* \"#utility.yul\":1724:1801   */\n    tag_60:\n        /* \"#utility.yul\":1761:1768   */\n      0x00\n        /* \"#utility.yul\":1790:1795   */\n      dup2\n        /* \"#utility.yul\":1779:1795   */\n      swap1\n      pop\n        /* \"#utility.yul\":1724:1801   */\n      swap2\n      swap1\n      pop\n      jump\t// out\n        /* \"#utility.yul\":1807:1929   */\n    tag_61:\n        /* \"#utility.yul\":1880:1904   */\n      tag_99\n        /* \"#utility.yul\":1898:1903   */\n      dup2\n        /* \"#utility.yul\":1880:1904   */\n      tag_60\n      jump\t// in\n    tag_99:\n        /* \"#utility.yul\":1873:1878   */\n      dup2\n        /* \"#utility.yul\":1870:1905   */\n      eq\n        /* \"#utility.yul\":1860:1923   */\n      tag_100\n      jumpi\n        /* \"#utility.yul\":1919:1920   */\n      0x00\n        /* \"#utility.yul\":1916:1917   */\n      dup1\n        /* \"#utility.yul\":1909:1921   */\n      revert\n        /* \"#utility.yul\":1860:1923   */\n    tag_100:\n        /* \"#utility.yul\":1807:1929   */\n      pop\n      jump\t// out\n        /* \"#utility.yul\":1935:2074   */\n    tag_62:\n        /* \"#utility.yul\":1981:1986   */\n      0x00\n        /* \"#utility.yul\":2019:2025   */\n      dup2\n        /* \"#utility.yul\":2006:2026   */\n      calldataload\n        /* \"#utility.yul\":1997:2026   */\n      swap1\n      pop\n        /* \"#utility.yul\":2035:2068   */\n      tag_102\n        /* \"#utility.yul\":2062:2067   */\n      dup2\n        /* \"#utility.yul\":2035:2068   */\n      tag_61\n      jump\t// in\n    tag_102:\n        /* \"#utility.yul\":1935:2074   */\n      swap3\n      swap2\n      pop\n      pop\n      jump\t// out\n        /* \"#utility.yul\":2080:2409   */\n    tag_14:\n        /* \"#utility.yul\":2139:2145   */\n      0x00\n        /* \"#utility.yul\":2188:2190   */\n      0x20\n        /* \"#utility.yul\":2176:2185   */\n      dup3\n        /* \"#utility.yul\":2167:2174   */\n      dup5\n        /* \"#utility.yul\":2163:2186   */\n      sub\n        /* \"#utility.yul\":2159:2191   */\n      slt\n        /* \"#utility.yul\":2156:2275   */\n      iszero\n      tag_104\n      jumpi\n        /* \"#utility.yul\":2194:2273   */\n      tag_105\n      tag_58\n      jump\t// in\n    tag_105:\n        /* \"#utility.yul\":2156:2275   */\n    tag_104:\n        /* \"#utility.yul\":2314:2315   */\n      0x00\n        /* \"#utility.yul\":2339:2392   */\n      tag_106\n        /* \"#utility.yul\":2384:2391   */\n      dup5\n        /* \"#utility.yul\":2375:2381   */\n      dup3\n        /* \"#utility.yul\":2364:2373   */\n      dup6\n        /* \"#utility.yul\":2360:2382   */\n      add\n        /* \"#utility.yul\":2339:2392   */\n      tag_62\n      jump\t// in\n    tag_106:\n        /* \"#utility.yul\":2329:2392   */\n      swap2\n      pop\n        /* \"#utility.yul\":2285:2402   */\n      pop\n        /* \"#utility.yul\":2080:2409   */\n      swap3\n      swap2\n      pop\n      pop\n      jump\t// out\n        /* \"#utility.yul\":2415:2533   */\n    tag_63:\n        /* \"#utility.yul\":2502:2526   */\n      tag_108\n        /* \"#utility.yul\":2520:2525   */\n      dup2\n        /* \"#utility.yul\":2502:2526   */\n      tag_60\n      jump\t// in\n    tag_108:\n        /* \"#utility.yul\":2497:2500   */\n      dup3\n        /* \"#utility.yul\":2490:2527   */\n      mstore\n        /* \"#utility.yul\":2415:2533   */\n      pop\n      pop\n      jump\t// out\n        /* \"#utility.yul\":2539:2761   */\n    tag_17:\n        /* \"#utility.yul\":2632:2636   */\n      0x00\n        /* \"#utility.yul\":2670:2672   */\n      0x20\n        /* \"#utility.yul\":2659:2668   */\n      dup3\n        /* \"#utility.yul\":2655:2673   */\n      add\n        /* \"#utility.yul\":2647:2673   */\n      swap1\n      pop\n        /* \"#utility.yul\":2683:2754   */\n      tag_110\n        /* \"#utility.yul\":2751:2752   */\n      0x00\n        /* \"#utility.yul\":2740:2749   */\n      dup4\n        /* \"#utility.yul\":2736:2753   */\n      add\n        /* \"#utility.yul\":2727:2733   */\n      dup5\n        /* \"#utility.yul\":2683:2754   */\n      tag_63\n      jump\t// in\n    tag_110:\n        /* \"#utility.yul\":2539:2761   */\n      swap3\n      swap2\n      pop\n      pop\n      jump\t// out\n        /* \"#utility.yul\":2767:3241   */\n    tag_20:\n        /* \"#utility.yul\":2835:2841   */\n      0x00\n        /* \"#utility.yul\":2843:2849   */\n      dup1\n        /* \"#utility.yul\":2892:2894   */\n      0x40\n        /* \"#utility.yul\":2880:2889   */\n      dup4\n        /* \"#utility.yul\":2871:2878   */\n      dup6\n        /* \"#utility.yul\":2867:2890   */\n      sub\n        /* \"#utility.yul\":2863:2895   */\n      slt\n        /* \"#utility.yul\":2860:2979   */\n      iszero\n      tag_112\n      jumpi\n        /* \"#utility.yul\":2898:2977   */\n      tag_113\n      tag_58\n      jump\t// in\n    tag_113:\n        /* \"#utility.yul\":2860:2979   */\n    tag_112:\n        /* \"#utility.yul\":3018:3019   */\n      0x00\n        /* \"#utility.yul\":3043:3096   */\n      tag_114\n        /* \"#utility.yul\":3088:3095   */\n      dup6\n        /* \"#utility.yul\":3079:3085   */\n      dup3\n        /* \"#utility.yul\":3068:3077   */\n      dup7\n        /* \"#utility.yul\":3064:3086   */\n      add\n        /* \"#utility.yul\":3043:3096   */\n      tag_62\n      jump\t// in\n    tag_114:\n        /* \"#utility.yul\":3033:3096   */\n      swap3\n      pop\n        /* \"#utility.yul\":2989:3106   */\n      pop\n        /* \"#utility.yul\":3145:3147   */\n      0x20\n        /* \"#utility.yul\":3171:3224   */\n      tag_115\n        /* \"#utility.yul\":3216:3223   */\n      dup6\n        /* \"#utility.yul\":3207:3213   */\n      dup3\n        /* \"#utility.yul\":3196:3205   */\n      dup7\n        /* \"#utility.yul\":3192:3214   */\n      add\n        /* \"#utility.yul\":3171:3224   */\n      tag_62\n      jump\t// in\n    tag_115:\n        /* \"#utility.yul\":3161:3224   */\n      swap2\n      pop\n        /* \"#utility.yul\":3116:3234   */\n      pop\n        /* \"#utility.yul\":2767:3241   */\n      swap3\n      pop\n      swap3\n      swap1\n      pop\n      jump\t// out\n        /* \"#utility.yul\":3247:3364   */\n    tag_64:\n        /* \"#utility.yul\":3356:3357   */\n      0x00\n        /* \"#utility.yul\":3353:3354   */\n      dup1\n        /* \"#utility.yul\":3346:3358   */\n      revert\n        /* \"#utility.yul\":3370:3487   */\n    tag_65:\n        /* \"#utility.yul\":3479:3480   */\n      0x00\n        /* \"#utility.yul\":3476:3477   */\n      dup1\n        /* \"#utility.yul\":3469:3481   */\n      revert\n        /* \"#utility.yul\":3493:3673   */\n    tag_66:\n        /* \"#utility.yul\":3541:3618   */\n      0x4e487b7100000000000000000000000000000000000000000000000000000000\n        /* \"#utility.yul\":3538:3539   */\n      0x00\n        /* \"#utility.yul\":3531:3619   */\n      mstore\n        /* \"#utility.yul\":3638:3642   */\n      0x41\n        /* \"#utility.yul\":3635:3636   */\n      0x04\n        /* \"#utility.yul\":3628:3643   */\n      mstore\n        /* \"#utility.yul\":3662:3666   */\n      0x24\n        /* \"#utility.yul\":3659:3660   */\n      0x00\n        /* \"#utility.yul\":3652:3667   */\n      revert\n        /* \"#utility.yul\":3679:3960   */\n    tag_67:\n        /* \"#utility.yul\":3762:3789   */\n      tag_120\n        /* \"#utility.yul\":3784:3788   */\n      dup3\n        /* \"#utility.yul\":3762:3789   */\n      tag_55\n      jump\t// in\n    tag_120:\n        /* \"#utility.yul\":3754:3760   */\n      dup2\n        /* \"#utility.yul\":3750:3790   */\n      add\n        /* \"#utility.yul\":3892:3898   */\n      dup2\n        /* \"#utility.yul\":3880:3890   */\n      dup2\n        /* \"#utility.yul\":3877:3899   */\n      lt\n        /* \"#utility.yul\":3856:3874   */\n      0xffffffffffffffff\n        /* \"#utility.yul\":3844:3854   */\n      dup3\n        /* \"#utility.yul\":3841:3875   */\n      gt\n        /* \"#utility.yul\":3838:3900   */\n      or\n        /* \"#utility.yul\":3835:3923   */\n      iszero\n      tag_121\n      jumpi\n        /* \"#utility.yul\":3903:3921   */\n      tag_122\n      tag_66\n      jump\t// in\n    tag_122:\n        /* \"#utility.yul\":3835:3923   */\n    tag_121:\n        /* \"#utility.yul\":3943:3953   */\n      dup1\n        /* \"#utility.yul\":3939:3941   */\n      0x40\n        /* \"#utility.yul\":3932:3954   */\n      mstore\n        /* \"#utility.yul\":3722:3960   */\n      pop\n        /* \"#utility.yul\":3679:3960   */\n      pop\n      pop\n      jump\t// out\n        /* \"#utility.yul\":3966:4095   */\n    tag_68:\n        /* \"#utility.yul\":4000:4006   */\n      0x00\n        /* \"#utility.yul\":4027:4047   */\n      tag_124\n      tag_57\n      jump\t// in\n    tag_124:\n        /* \"#utility.yul\":4017:4047   */\n      swap1\n      pop\n        /* \"#utility.yul\":4056:4089   */\n      tag_125\n        /* \"#utility.yul\":4084:4088   */\n      dup3\n        /* \"#utility.yul\":4076:4082   */\n      dup3\n        /* \"#utility.yul\":4056:4089   */\n      tag_67\n      jump\t// in\n    tag_125:\n        /* \"#utility.yul\":3966:4095   */\n      swap2\n      swap1\n      pop\n      jump\t// out\n        /* \"#utility.yul\":4101:4409   */\n    tag_69:\n        /* \"#utility.yul\":4163:4167   */\n      0x00\n        /* \"#utility.yul\":4253:4271   */\n      0xffffffffffffffff\n        /* \"#utility.yul\":4245:4251   */\n      dup3\n        /* \"#utility.yul\":4242:4272   */\n      gt\n        /* \"#utility.yul\":4239:4295   */\n      iszero\n      tag_127\n      jumpi\n        /* \"#utility.yul\":4275:4293   */\n      tag_128\n      tag_66\n      jump\t// in\n    tag_128:\n        /* \"#utility.yul\":4239:4295   */\n    tag_127:\n        /* \"#utility.yul\":4313:4342   */\n      tag_129\n        /* \"#utility.yul\":4335:4341   */\n      dup3\n        /* \"#utility.yul\":4313:4342   */\n      tag_55\n      jump\t// in\n    tag_129:\n        /* \"#utility.yul\":4305:4342   */\n      swap1\n      pop\n        /* \"#utility.yul\":4397:4401   */\n      0x20\n        /* \"#utility.yul\":4391:4395   */\n      dup2\n        /* \"#utility.yul\":4387:4402   */\n      add\n        /* \"#utility.yul\":4379:4402   */\n      swap1\n      pop\n        /* \"#utility.yul\":4101:4409   */\n      swap2\n      swap1\n      pop\n      jump\t// out\n        /* \"#utility.yul\":4415:4569   */\n    tag_70:\n        /* \"#utility.yul\":4499:4505   */\n      dup3\n        /* \"#utility.yul\":4494:4497   */\n      dup2\n        /* \"#utility.yul\":4489:4492   */\n      dup4\n        /* \"#utility.yul\":4476:4506   */\n      calldatacopy\n        /* \"#utility.yul\":4561:4562   */\n      0x00\n        /* \"#utility.yul\":4552:4558   */\n      dup4\n        /* \"#utility.yul\":4547:4550   */\n      dup4\n        /* \"#utility.yul\":4543:4559   */\n      add\n        /* \"#utility.yul\":4536:4563   */\n      mstore\n        /* \"#utility.yul\":4415:4569   */\n      pop\n      pop\n      pop\n      jump\t// out\n        /* \"#utility.yul\":4575:4987   */\n    tag_71:\n        /* \"#utility.yul\":4653:4658   */\n      0x00\n        /* \"#utility.yul\":4678:4744   */\n      tag_132\n        /* \"#utility.yul\":4694:4743   */\n      tag_133\n        /* \"#utility.yul\":4736:4742   */\n      dup5\n        /* \"#utility.yul\":4694:4743   */\n      tag_69\n      jump\t// in\n    tag_133:\n        /* \"#utility.yul\":4678:4744   */\n      tag_68\n      jump\t// in\n    tag_132:\n        /* \"#utility.yul\":4669:4744   */\n      swap1\n      pop\n        /* \"#utility.yul\":4767:4773   */\n      dup3\n        /* \"#utility.yul\":4760:4765   */\n      dup2\n        /* \"#utility.yul\":4753:4774   */\n      mstore\n        /* \"#utility.yul\":4805:4809   */\n      0x20\n        /* \"#utility.yul\":4798:4803   */\n      dup2\n        /* \"#utility.yul\":4794:4810   */\n      add\n        /* \"#utility.yul\":4843:4846   */\n      dup5\n        /* \"#utility.yul\":4834:4840   */\n      dup5\n        /* \"#utility.yul\":4829:4832   */\n      dup5\n        /* \"#utility.yul\":4825:4841   */\n      add\n        /* \"#utility.yul\":4822:4847   */\n      gt\n        /* \"#utility.yul\":4819:4931   */\n      iszero\n      tag_134\n      jumpi\n        /* \"#utility.yul\":4850:4929   */\n      tag_135\n      tag_65\n      jump\t// in\n    tag_135:\n        /* \"#utility.yul\":4819:4931   */\n    tag_134:\n        /* \"#utility.yul\":4940:4981   */\n      tag_136\n        /* \"#utility.yul\":4974:4980   */\n      dup5\n        /* \"#utility.yul\":4969:4972   */\n      dup3\n        /* \"#utility.yul\":4964:4967   */\n      dup6\n        /* \"#utility.yul\":4940:4981   */\n      tag_70\n      jump\t// in\n    tag_136:\n        /* \"#utility.yul\":4659:4987   */\n      pop\n        /* \"#utility.yul\":4575:4987   */\n      swap4\n      swap3\n      pop\n      pop\n      pop\n      jump\t// out\n        /* \"#utility.yul\":5007:5347   */\n    tag_72:\n        /* \"#utility.yul\":5063:5068   */\n      0x00\n        /* \"#utility.yul\":5112:5115   */\n      dup3\n        /* \"#utility.yul\":5105:5109   */\n      0x1f\n        /* \"#utility.yul\":5097:5103   */\n      dup4\n        /* \"#utility.yul\":5093:5110   */\n      add\n        /* \"#utility.yul\":5089:5116   */\n      slt\n        /* \"#utility.yul\":5079:5201   */\n      tag_138\n      jumpi\n        /* \"#utility.yul\":5120:5199   */\n      tag_139\n      tag_64\n      jump\t// in\n    tag_139:\n        /* \"#utility.yul\":5079:5201   */\n    tag_138:\n        /* \"#utility.yul\":5237:5243   */\n      dup2\n        /* \"#utility.yul\":5224:5244   */\n      calldataload\n        /* \"#utility.yul\":5262:5341   */\n      tag_140\n        /* \"#utility.yul\":5337:5340   */\n      dup5\n        /* \"#utility.yul\":5329:5335   */\n      dup3\n        /* \"#utility.yul\":5322:5326   */\n      0x20\n        /* \"#utility.yul\":5314:5320   */\n      dup7\n        /* \"#utility.yul\":5310:5327   */\n      add\n        /* \"#utility.yul\":5262:5341   */\n      tag_71\n      jump\t// in\n    tag_140:\n        /* \"#utility.yul\":5253:5341   */\n      swap2\n      pop\n        /* \"#utility.yul\":5069:5347   */\n      pop\n        /* \"#utility.yul\":5007:5347   */\n      swap3\n      swap2\n      pop\n      pop\n      jump\t// out\n        /* \"#utility.yul\":5353:5862   */\n    tag_25:\n        /* \"#utility.yul\":5422:5428   */\n      0x00\n        /* \"#utility.yul\":5471:5473   */\n      0x20\n        /* \"#utility.yul\":5459:5468   */\n      dup3\n        /* \"#utility.yul\":5450:5457   */\n      dup5\n        /* \"#utility.yul\":5446:5469   */\n      sub\n        /* \"#utility.yul\":5442:5474   */\n      slt\n        /* \"#utility.yul\":5439:5558   */\n      iszero\n      tag_142\n      jumpi\n        /* \"#utility.yul\":5477:5556   */\n      tag_143\n      tag_58\n      jump\t// in\n    tag_143:\n        /* \"#utility.yul\":5439:5558   */\n    tag_142:\n        /* \"#utility.yul\":5625:5626   */\n      0x00\n        /* \"#utility.yul\":5614:5623   */\n      dup3\n        /* \"#utility.yul\":5610:5627   */\n      add\n        /* \"#utility.yul\":5597:5628   */\n      calldataload\n        /* \"#utility.yul\":5655:5673   */\n      0xffffffffffffffff\n        /* \"#utility.yul\":5647:5653   */\n      dup2\n        /* \"#utility.yul\":5644:5674   */\n      gt\n        /* \"#utility.yul\":5641:5758   */\n      iszero\n      tag_144\n      jumpi\n        /* \"#utility.yul\":5677:5756   */\n      tag_145\n      tag_59\n      jump\t// in\n    tag_145:\n        /* \"#utility.yul\":5641:5758   */\n    tag_144:\n        /* \"#utility.yul\":5782:5845   */\n      tag_146\n        /* \"#utility.yul\":5837:5844   */\n      dup5\n        /* \"#utility.yul\":5828:5834   */\n      dup3\n        /* \"#utility.yul\":5817:5826   */\n      dup6\n        /* \"#utility.yul\":5813:5835   */\n      add\n        /* \"#utility.yul\":5782:5845   */\n      tag_72\n      jump\t// in\n    tag_146:\n        /* \"#utility.yul\":5772:5845   */\n      swap2\n      pop\n        /* \"#utility.yul\":5568:5855   */\n      pop\n        /* \"#utility.yul\":5353:5862   */\n      swap3\n      swap2\n      pop\n      pop\n      jump\t// out\n        /* \"#utility.yul\":5868:6048   */\n    tag_73:\n        /* \"#utility.yul\":5916:5993   */\n      0x4e487b7100000000000000000000000000000000000000000000000000000000\n        /* \"#utility.yul\":5913:5914   */\n      0x00\n        /* \"#utility.yul\":5906:5994   */\n      mstore\n        /* \"#utility.yul\":6013:6017   */\n      0x11\n        /* \"#utility.yul\":6010:6011   */\n      0x04\n        /* \"#utility.yul\":6003:6018   */\n      mstore\n        /* \"#utility.yul\":6037:6041   */\n      0x24\n        /* \"#utility.yul\":6034:6035   */\n      0x00\n        /* \"#utility.yul\":6027:6042   */\n      revert\n        /* \"#utility.yul\":6054:6402   */\n    tag_37:\n        /* \"#utility.yul\":6094:6101   */\n      0x00\n        /* \"#utility.yul\":6117:6137   */\n      tag_149\n        /* \"#utility.yul\":6135:6136   */\n      dup3\n        /* \"#utility.yul\":6117:6137   */\n      tag_60\n      jump\t// in\n    tag_149:\n        /* \"#utility.yul\":6112:6137   */\n      swap2\n      pop\n        /* \"#utility.yul\":6151:6171   */\n      tag_150\n        /* \"#utility.yul\":6169:6170   */\n      dup4\n        /* \"#utility.yul\":6151:6171   */\n      tag_60\n      jump\t// in\n    tag_150:\n        /* \"#utility.yul\":6146:6171   */\n      swap3\n      pop\n        /* \"#utility.yul\":6339:6340   */\n      dup2\n        /* \"#utility.yul\":6271:6337   */\n      0xffffffffffffffffffffffffffffffffffffffffffffffffffffffffffffffff\n        /* \"#utility.yul\":6267:6341   */\n      div\n        /* \"#utility.yul\":6264:6265   */\n      dup4\n        /* \"#utility.yul\":6261:6342   */\n      gt\n        /* \"#utility.yul\":6256:6257   */\n      dup3\n        /* \"#utility.yul\":6249:6258   */\n      iszero\n        /* \"#utility.yul\":6242:6259   */\n      iszero\n        /* \"#utility.yul\":6238:6343   */\n      and\n        /* \"#utility.yul\":6235:6366   */\n      iszero\n      tag_151\n      jumpi\n        /* \"#utility.yul\":6346:6364   */\n      tag_152\n      tag_73\n      jump\t// in\n    tag_152:\n        /* \"#utility.yul\":6235:6366   */\n    tag_151:\n        /* \"#utility.yul\":6394:6395   */\n      dup3\n        /* \"#utility.yul\":6391:6392   */\n      dup3\n        /* \"#utility.yul\":6387:6396   */\n      mul\n        /* \"#utility.yul\":6376:6396   */\n      swap1\n      pop\n        /* \"#utility.yul\":6054:6402   */\n      swap3\n      swap2\n      pop\n      pop\n      jump\t// out\n        /* \"#utility.yul\":6408:6641   */\n    tag_39:\n        /* \"#utility.yul\":6447:6450   */\n      0x00\n        /* \"#utility.yul\":6470:6494   */\n      tag_154\n        /* \"#utility.yul\":6488:6493   */\n      dup3\n        /* \"#utility.yul\":6470:6494   */\n      tag_60\n      jump\t// in\n    tag_154:\n        /* \"#utility.yul\":6461:6494   */\n      swap2\n      pop\n        /* \"#utility.yul\":6516:6582   */\n      0xffffffffffffffffffffffffffffffffffffffffffffffffffffffffffffffff\n        /* \"#utility.yul\":6509:6514   */\n      dup3\n        /* \"#utility.yul\":6506:6583   */\n      sub\n        /* \"#utility.yul\":6503:6606   */\n      tag_155\n      jumpi\n        /* \"#utility.yul\":6586:6604   */\n      tag_156\n      tag_73\n      jump\t// in\n    tag_156:\n        /* \"#utility.yul\":6503:6606   */\n    tag_155:\n        /* \"#utility.yul\":6633:6634   */\n      0x01\n        /* \"#utility.yul\":6626:6631   */\n      dup3\n        /* \"#utility.yul\":6622:6635   */\n      add\n        /* \"#utility.yul\":6615:6635   */\n      swap1\n      pop\n        /* \"#utility.yul\":6408:6641   */\n      swap2\n      swap1\n      pop\n      jump\t// out\n        /* \"#utility.yul\":6647:6952   */\n    tag_42:\n        /* \"#utility.yul\":6687:6690   */\n      0x00\n        /* \"#utility.yul\":6706:6726   */\n      tag_158\n        /* \"#utility.yul\":6724:6725   */\n      dup3\n        /* \"#utility.yul\":6706:6726   */\n      tag_60\n      jump\t// in\n    tag_158:\n        /* \"#utility.yul\":6701:6726   */\n      swap2\n      pop\n        /* \"#utility.yul\":6740:6760   */\n      tag_159\n        /* \"#utility.yul\":6758:6759   */\n      dup4\n        /* \"#utility.yul\":6740:6760   */\n      tag_60\n      jump\t// in\n    tag_159:\n        /* \"#utility.yul\":6735:6760   */\n      swap3\n      pop\n        /* \"#utility.yul\":6894:6895   */\n      dup3\n        /* \"#utility.yul\":6826:6892   */\n      0xffffffffffffffffffffffffffffffffffffffffffffffffffffffffffffffff\n        /* \"#utility.yul\":6822:6896   */\n      sub\n        /* \"#utility.yul\":6819:6820   */\n      dup3\n        /* \"#utility.yul\":6816:6897   */\n      gt\n        /* \"#utility.yul\":6813:6920   */\n      iszero\n      tag_160\n      jumpi\n        /* \"#utility.yul\":6900:6918   */\n      tag_161\n      tag_73\n      jump\t// in\n    tag_161:\n        /* \"#utility.yul\":6813:6920   */\n    tag_160:\n        /* \"#utility.yul\":6944:6945   */\n      dup3\n        /* \"#utility.yul\":6941:6942   */\n      dup3\n        /* \"#utility.yul\":6937:6946   */\n      add\n        /* \"#utility.yul\":6930:6946   */\n      swap1\n      pop\n        /* \"#utility.yul\":6647:6952   */\n      swap3\n      swap2\n      pop\n      pop\n      jump\t// out\n        /* \"#utility.yul\":6958:7106   */\n    tag_74:\n        /* \"#utility.yul\":7060:7071   */\n      0x00\n        /* \"#utility.yul\":7097:7100   */\n      dup2\n        /* \"#utility.yul\":7082:7100   */\n      swap1\n      pop\n        /* \"#utility.yul\":6958:7106   */\n      swap3\n      swap2\n      pop\n      pop\n      jump\t// out\n        /* \"#utility.yul\":7112:7489   */\n    tag_75:\n        /* \"#utility.yul\":7218:7221   */\n      0x00\n        /* \"#utility.yul\":7246:7285   */\n      tag_164\n        /* \"#utility.yul\":7279:7284   */\n      dup3\n        /* \"#utility.yul\":7246:7285   */\n      tag_52\n      jump\t// in\n    tag_164:\n        /* \"#utility.yul\":7301:7390   */\n      tag_165\n        /* \"#utility.yul\":7383:7389   */\n      dup2\n        /* \"#utility.yul\":7378:7381   */\n      dup6\n        /* \"#utility.yul\":7301:7390   */\n      tag_74\n      jump\t// in\n    tag_165:\n        /* \"#utility.yul\":7294:7390   */\n      swap4\n      pop\n        /* \"#utility.yul\":7399:7451   */\n      tag_166\n        /* \"#utility.yul\":7444:7450   */\n      dup2\n        /* \"#utility.yul\":7439:7442   */\n      dup6\n        /* \"#utility.yul\":7432:7436   */\n      0x20\n        /* \"#utility.yul\":7425:7430   */\n      dup7\n        /* \"#utility.yul\":7421:7437   */\n      add\n        /* \"#utility.yul\":7399:7451   */\n      tag_54\n      jump\t// in\n    tag_166:\n        /* \"#utility.yul\":7476:7482   */\n      dup1\n        /* \"#utility.yul\":7471:7474   */\n      dup5\n        /* \"#utility.yul\":7467:7483   */\n      add\n        /* \"#utility.yul\":7460:7483   */\n      swap2\n      pop\n        /* \"#utility.yul\":7222:7489   */\n      pop\n        /* \"#utility.yul\":7112:7489   */\n      swap3\n      swap2\n      pop\n      pop\n      jump\t// out\n        /* \"#utility.yul\":7495:7770   */\n    tag_46:\n        /* \"#utility.yul\":7627:7630   */\n      0x00\n        /* \"#utility.yul\":7649:7744   */\n      tag_168\n        /* \"#utility.yul\":7740:7743   */\n      dup3\n        /* \"#utility.yul\":7731:7737   */\n      dup5\n        /* \"#utility.yul\":7649:7744   */\n      tag_75\n      jump\t// in\n    tag_168:\n        /* \"#utility.yul\":7642:7744   */\n      swap2\n      pop\n        /* \"#utility.yul\":7761:7764   */\n      dup2\n        /* \"#utility.yul\":7754:7764   */\n      swap1\n      pop\n        /* \"#utility.yul\":7495:7770   */\n      swap3\n      swap2\n      pop\n      pop\n      jump\t// out\n        /* \"#utility.yul\":7776:7932   */\n    tag_76:\n        /* \"#utility.yul\":7916:7924   */\n      0x636f6f6b69650000000000000000000000000000000000000000000000000000\n        /* \"#utility.yul\":7912:7913   */\n      0x00\n        /* \"#utility.yul\":7904:7910   */\n      dup3\n        /* \"#utility.yul\":7900:7914   */\n      add\n        /* \"#utility.yul\":7893:7925   */\n      mstore\n        /* \"#utility.yul\":7776:7932   */\n      pop\n      jump\t// out\n        /* \"#utility.yul\":7938:8338   */\n    tag_77:\n        /* \"#utility.yul\":8098:8101   */\n      0x00\n        /* \"#utility.yul\":8119:8203   */\n      tag_171\n        /* \"#utility.yul\":8201:8202   */\n      0x06\n        /* \"#utility.yul\":8196:8199   */\n      dup4\n        /* \"#utility.yul\":8119:8203   */\n      tag_74\n      jump\t// in\n    tag_171:\n        /* \"#utility.yul\":8112:8203   */\n      swap2\n      pop\n        /* \"#utility.yul\":8212:8305   */\n      tag_172\n        /* \"#utility.yul\":8301:8304   */\n      dup3\n        /* \"#utility.yul\":8212:8305   */\n      tag_76\n      jump\t// in\n    tag_172:\n        /* \"#utility.yul\":8330:8331   */\n      0x06\n        /* \"#utility.yul\":8325:8328   */\n      dup3\n        /* \"#utility.yul\":8321:8332   */\n      add\n        /* \"#utility.yul\":8314:8332   */\n      swap1\n      pop\n        /* \"#utility.yul\":7938:8338   */\n      swap2\n      swap1\n      pop\n      jump\t// out\n        /* \"#utility.yul\":8344:8725   */\n    tag_48:\n        /* \"#utility.yul\":8529:8532   */\n      0x00\n        /* \"#utility.yul\":8551:8699   */\n      tag_174\n        /* \"#utility.yul\":8695:8698   */\n      dup3\n        /* \"#utility.yul\":8551:8699   */\n      tag_77\n      jump\t// in\n    tag_174:\n        /* \"#utility.yul\":8544:8699   */\n      swap2\n      pop\n        /* \"#utility.yul\":8716:8719   */\n      dup2\n        /* \"#utility.yul\":8709:8719   */\n      swap1\n      pop\n        /* \"#utility.yul\":8344:8725   */\n      swap2\n      swap1\n      pop\n      jump\t// out\n\n    auxdata: 0xa26469706673582212209e07d8a1494cedab7e7eaccd400b3f490efca7fa593da9b9d87d60cbbf8195eb64736f6c634300080d0033\n}\n",
				"bytecode": {
					"linkReferences": {},
					"object": "608060405234801561001057600080fd5b506107fe806100206000396000f3fe608060405234801561001057600080fd5b50600436106100575760003560e01c806306fdde031461005c578063448b1aac1461007a578063c49bac81146100aa578063ca507aa9146100da578063eba865581461010a575b600080fd5b610064610128565b604051610071919061036c565b60405180910390f35b610094600480360381019061008f91906103d8565b610165565b6040516100a19190610414565b60405180910390f35b6100c460048036038101906100bf919061042f565b6101a3565b6040516100d1919061036c565b60405180910390f35b6100f460048036038101906100ef91906105a4565b6101fc565b604051610101919061036c565b60405180910390f35b6101126102ca565b60405161011f9190610414565b60405180910390f35b60606040518060400160405280600581526020017f427269616e000000000000000000000000000000000000000000000000000000815250905090565b6000806001905060005b8381101561019957600282610184919061061c565b9150808061019190610676565b91505061016f565b5080915050919050565b6060600a82846101b391906106be565b036101f5576040518060400160405280600581526020017f706172747900000000000000000000000000000000000000000000000000000081525090506101f6565b5b92915050565b60608160405160200161020f9190610750565b60405160208183030381529060405280519060200120604051602001610234906107b3565b604051602081830303815290604052805190602001200361028c576040518060400160405280600381526020017f79756d000000000000000000000000000000000000000000000000000000000081525090506102c5565b6040518060400160405280600481526020017f7975636b0000000000000000000000000000000000000000000000000000000081525090505b919050565b60006064905090565b600081519050919050565b600082825260208201905092915050565b60005b8381101561030d5780820151818401526020810190506102f2565b8381111561031c576000848401525b50505050565b6000601f19601f8301169050919050565b600061033e826102d3565b61034881856102de565b93506103588185602086016102ef565b61036181610322565b840191505092915050565b600060208201905081810360008301526103868184610333565b905092915050565b6000604051905090565b600080fd5b600080fd5b6000819050919050565b6103b5816103a2565b81146103c057600080fd5b50565b6000813590506103d2816103ac565b92915050565b6000602082840312156103ee576103ed610398565b5b60006103fc848285016103c3565b91505092915050565b61040e816103a2565b82525050565b60006020820190506104296000830184610405565b92915050565b6000806040838503121561044657610445610398565b5b6000610454858286016103c3565b9250506020610465858286016103c3565b9150509250929050565b600080fd5b600080fd5b7f4e487b7100000000000000000000000000000000000000000000000000000000600052604160045260246000fd5b6104b182610322565b810181811067ffffffffffffffff821117156104d0576104cf610479565b5b80604052505050565b60006104e361038e565b90506104ef82826104a8565b919050565b600067ffffffffffffffff82111561050f5761050e610479565b5b61051882610322565b9050602081019050919050565b82818337600083830152505050565b6000610547610542846104f4565b6104d9565b90508281526020810184848401111561056357610562610474565b5b61056e848285610525565b509392505050565b600082601f83011261058b5761058a61046f565b5b813561059b848260208601610534565b91505092915050565b6000602082840312156105ba576105b9610398565b5b600082013567ffffffffffffffff8111156105d8576105d761039d565b5b6105e484828501610576565b91505092915050565b7f4e487b7100000000000000000000000000000000000000000000000000000000600052601160045260246000fd5b6000610627826103a2565b9150610632836103a2565b9250817fffffffffffffffffffffffffffffffffffffffffffffffffffffffffffffffff048311821515161561066b5761066a6105ed565b5b828202905092915050565b6000610681826103a2565b91507fffffffffffffffffffffffffffffffffffffffffffffffffffffffffffffffff82036106b3576106b26105ed565b5b600182019050919050565b60006106c9826103a2565b91506106d4836103a2565b9250827fffffffffffffffffffffffffffffffffffffffffffffffffffffffffffffffff03821115610709576107086105ed565b5b828201905092915050565b600081905092915050565b600061072a826102d3565b6107348185610714565b93506107448185602086016102ef565b80840191505092915050565b600061075c828461071f565b915081905092915050565b7f636f6f6b69650000000000000000000000000000000000000000000000000000600082015250565b600061079d600683610714565b91506107a882610767565b600682019050919050565b60006107be82610790565b915081905091905056fea26469706673582212209e07d8a1494cedab7e7eaccd400b3f490efca7fa593da9b9d87d60cbbf8195eb64736f6c634300080d0033",
					"opcodes": "PUSH1 0x80 PUSH1 0x40 MSTORE CALLVALUE DUP1 ISZERO PUSH2 0x10 JUMPI PUSH1 0x0 DUP1 REVERT JUMPDEST POP PUSH2 0x7FE DUP1 PUSH2 0x20 PUSH1 0x0 CODECOPY PUSH1 0x0 RETURN INVALID PUSH1 0x80 PUSH1 0x40 MSTORE CALLVALUE DUP1 ISZERO PUSH2 0x10 JUMPI PUSH1 0x0 DUP1 REVERT JUMPDEST POP PUSH1 0x4 CALLDATASIZE LT PUSH2 0x57 JUMPI PUSH1 0x0 CALLDATALOAD PUSH1 0xE0 SHR DUP1 PUSH4 0x6FDDE03 EQ PUSH2 0x5C JUMPI DUP1 PUSH4 0x448B1AAC EQ PUSH2 0x7A JUMPI DUP1 PUSH4 0xC49BAC81 EQ PUSH2 0xAA JUMPI DUP1 PUSH4 0xCA507AA9 EQ PUSH2 0xDA JUMPI DUP1 PUSH4 0xEBA86558 EQ PUSH2 0x10A JUMPI JUMPDEST PUSH1 0x0 DUP1 REVERT JUMPDEST PUSH2 0x64 PUSH2 0x128 JUMP JUMPDEST PUSH1 0x40 MLOAD PUSH2 0x71 SWAP2 SWAP1 PUSH2 0x36C JUMP JUMPDEST PUSH1 0x40 MLOAD DUP1 SWAP2 SUB SWAP1 RETURN JUMPDEST PUSH2 0x94 PUSH1 0x4 DUP1 CALLDATASIZE SUB DUP2 ADD SWAP1 PUSH2 0x8F SWAP2 SWAP1 PUSH2 0x3D8 JUMP JUMPDEST PUSH2 0x165 JUMP JUMPDEST PUSH1 0x40 MLOAD PUSH2 0xA1 SWAP2 SWAP1 PUSH2 0x414 JUMP JUMPDEST PUSH1 0x40 MLOAD DUP1 SWAP2 SUB SWAP1 RETURN JUMPDEST PUSH2 0xC4 PUSH1 0x4 DUP1 CALLDATASIZE SUB DUP2 ADD SWAP1 PUSH2 0xBF SWAP2 SWAP1 PUSH2 0x42F JUMP JUMPDEST PUSH2 0x1A3 JUMP JUMPDEST PUSH1 0x40 MLOAD PUSH2 0xD1 SWAP2 SWAP1 PUSH2 0x36C JUMP JUMPDEST PUSH1 0x40 MLOAD DUP1 SWAP2 SUB SWAP1 RETURN JUMPDEST PUSH2 0xF4 PUSH1 0x4 DUP1 CALLDATASIZE SUB DUP2 ADD SWAP1 PUSH2 0xEF SWAP2 SWAP1 PUSH2 0x5A4 JUMP JUMPDEST PUSH2 0x1FC JUMP JUMPDEST PUSH1 0x40 MLOAD PUSH2 0x101 SWAP2 SWAP1 PUSH2 0x36C JUMP JUMPDEST PUSH1 0x40 MLOAD DUP1 SWAP2 SUB SWAP1 RETURN JUMPDEST PUSH2 0x112 PUSH2 0x2CA JUMP JUMPDEST PUSH1 0x40 MLOAD PUSH2 0x11F SWAP2 SWAP1 PUSH2 0x414 JUMP JUMPDEST PUSH1 0x40 MLOAD DUP1 SWAP2 SUB SWAP1 RETURN JUMPDEST PUSH1 0x60 PUSH1 0x40 MLOAD DUP1 PUSH1 0x40 ADD PUSH1 0x40 MSTORE DUP1 PUSH1 0x5 DUP2 MSTORE PUSH1 0x20 ADD PUSH32 0x427269616E000000000000000000000000000000000000000000000000000000 DUP2 MSTORE POP SWAP1 POP SWAP1 JUMP JUMPDEST PUSH1 0x0 DUP1 PUSH1 0x1 SWAP1 POP PUSH1 0x0 JUMPDEST DUP4 DUP2 LT ISZERO PUSH2 0x199 JUMPI PUSH1 0x2 DUP3 PUSH2 0x184 SWAP2 SWAP1 PUSH2 0x61C JUMP JUMPDEST SWAP2 POP DUP1 DUP1 PUSH2 0x191 SWAP1 PUSH2 0x676 JUMP JUMPDEST SWAP2 POP POP PUSH2 0x16F JUMP JUMPDEST POP DUP1 SWAP2 POP POP SWAP2 SWAP1 POP JUMP JUMPDEST PUSH1 0x60 PUSH1 0xA DUP3 DUP5 PUSH2 0x1B3 SWAP2 SWAP1 PUSH2 0x6BE JUMP JUMPDEST SUB PUSH2 0x1F5 JUMPI PUSH1 0x40 MLOAD DUP1 PUSH1 0x40 ADD PUSH1 0x40 MSTORE DUP1 PUSH1 0x5 DUP2 MSTORE PUSH1 0x20 ADD PUSH32 0x7061727479000000000000000000000000000000000000000000000000000000 DUP2 MSTORE POP SWAP1 POP PUSH2 0x1F6 JUMP JUMPDEST JUMPDEST SWAP3 SWAP2 POP POP JUMP JUMPDEST PUSH1 0x60 DUP2 PUSH1 0x40 MLOAD PUSH1 0x20 ADD PUSH2 0x20F SWAP2 SWAP1 PUSH2 0x750 JUMP JUMPDEST PUSH1 0x40 MLOAD PUSH1 0x20 DUP2 DUP4 SUB SUB DUP2 MSTORE SWAP1 PUSH1 0x40 MSTORE DUP1 MLOAD SWAP1 PUSH1 0x20 ADD KECCAK256 PUSH1 0x40 MLOAD PUSH1 0x20 ADD PUSH2 0x234 SWAP1 PUSH2 0x7B3 JUMP JUMPDEST PUSH1 0x40 MLOAD PUSH1 0x20 DUP2 DUP4 SUB SUB DUP2 MSTORE SWAP1 PUSH1 0x40 MSTORE DUP1 MLOAD SWAP1 PUSH1 0x20 ADD KECCAK256 SUB PUSH2 0x28C JUMPI PUSH1 0x40 MLOAD DUP1 PUSH1 0x40 ADD PUSH1 0x40 MSTORE DUP1 PUSH1 0x3 DUP2 MSTORE PUSH1 0x20 ADD PUSH32 0x79756D0000000000000000000000000000000000000000000000000000000000 DUP2 MSTORE POP SWAP1 POP PUSH2 0x2C5 JUMP JUMPDEST PUSH1 0x40 MLOAD DUP1 PUSH1 0x40 ADD PUSH1 0x40 MSTORE DUP1 PUSH1 0x4 DUP2 MSTORE PUSH1 0x20 ADD PUSH32 0x7975636B00000000000000000000000000000000000000000000000000000000 DUP2 MSTORE POP SWAP1 POP JUMPDEST SWAP2 SWAP1 POP JUMP JUMPDEST PUSH1 0x0 PUSH1 0x64 SWAP1 POP SWAP1 JUMP JUMPDEST PUSH1 0x0 DUP2 MLOAD SWAP1 POP SWAP2 SWAP1 POP JUMP JUMPDEST PUSH1 0x0 DUP3 DUP3 MSTORE PUSH1 0x20 DUP3 ADD SWAP1 POP SWAP3 SWAP2 POP POP JUMP JUMPDEST PUSH1 0x0 JUMPDEST DUP4 DUP2 LT ISZERO PUSH2 0x30D JUMPI DUP1 DUP3 ADD MLOAD DUP2 DUP5 ADD MSTORE PUSH1 0x20 DUP2 ADD SWAP1 POP PUSH2 0x2F2 JUMP JUMPDEST DUP4 DUP2 GT ISZERO PUSH2 0x31C JUMPI PUSH1 0x0 DUP5 DUP5 ADD MSTORE JUMPDEST POP POP POP POP JUMP JUMPDEST PUSH1 0x0 PUSH1 0x1F NOT PUSH1 0x1F DUP4 ADD AND SWAP1 POP SWAP2 SWAP1 POP JUMP JUMPDEST PUSH1 0x0 PUSH2 0x33E DUP3 PUSH2 0x2D3 JUMP JUMPDEST PUSH2 0x348 DUP2 DUP6 PUSH2 0x2DE JUMP JUMPDEST SWAP4 POP PUSH2 0x358 DUP2 DUP6 PUSH1 0x20 DUP7 ADD PUSH2 0x2EF JUMP JUMPDEST PUSH2 0x361 DUP2 PUSH2 0x322 JUMP JUMPDEST DUP5 ADD SWAP2 POP POP SWAP3 SWAP2 POP POP JUMP JUMPDEST PUSH1 0x0 PUSH1 0x20 DUP3 ADD SWAP1 POP DUP2 DUP2 SUB PUSH1 0x0 DUP4 ADD MSTORE PUSH2 0x386 DUP2 DUP5 PUSH2 0x333 JUMP JUMPDEST SWAP1 POP SWAP3 SWAP2 POP POP JUMP JUMPDEST PUSH1 0x0 PUSH1 0x40 MLOAD SWAP1 POP SWAP1 JUMP JUMPDEST PUSH1 0x0 DUP1 REVERT JUMPDEST PUSH1 0x0 DUP1 REVERT JUMPDEST PUSH1 0x0 DUP2 SWAP1 POP SWAP2 SWAP1 POP JUMP JUMPDEST PUSH2 0x3B5 DUP2 PUSH2 0x3A2 JUMP JUMPDEST DUP2 EQ PUSH2 0x3C0 JUMPI PUSH1 0x0 DUP1 REVERT JUMPDEST POP JUMP JUMPDEST PUSH1 0x0 DUP2 CALLDATALOAD SWAP1 POP PUSH2 0x3D2 DUP2 PUSH2 0x3AC JUMP JUMPDEST SWAP3 SWAP2 POP POP JUMP JUMPDEST PUSH1 0x0 PUSH1 0x20 DUP3 DUP5 SUB SLT ISZERO PUSH2 0x3EE JUMPI PUSH2 0x3ED PUSH2 0x398 JUMP JUMPDEST JUMPDEST PUSH1 0x0 PUSH2 0x3FC DUP5 DUP3 DUP6 ADD PUSH2 0x3C3 JUMP JUMPDEST SWAP2 POP POP SWAP3 SWAP2 POP POP JUMP JUMPDEST PUSH2 0x40E DUP2 PUSH2 0x3A2 JUMP JUMPDEST DUP3 MSTORE POP POP JUMP JUMPDEST PUSH1 0x0 PUSH1 0x20 DUP3 ADD SWAP1 POP PUSH2 0x429 PUSH1 0x0 DUP4 ADD DUP5 PUSH2 0x405 JUMP JUMPDEST SWAP3 SWAP2 POP POP JUMP JUMPDEST PUSH1 0x0 DUP1 PUSH1 0x40 DUP4 DUP6 SUB SLT ISZERO PUSH2 0x446 JUMPI PUSH2 0x445 PUSH2 0x398 JUMP JUMPDEST JUMPDEST PUSH1 0x0 PUSH2 0x454 DUP6 DUP3 DUP7 ADD PUSH2 0x3C3 JUMP JUMPDEST SWAP3 POP POP PUSH1 0x20 PUSH2 0x465 DUP6 DUP3 DUP7 ADD PUSH2 0x3C3 JUMP JUMPDEST SWAP2 POP POP SWAP3 POP SWAP3 SWAP1 POP JUMP JUMPDEST PUSH1 0x0 DUP1 REVERT JUMPDEST PUSH1 0x0 DUP1 REVERT JUMPDEST PUSH32 0x4E487B7100000000000000000000000000000000000000000000000000000000 PUSH1 0x0 MSTORE PUSH1 0x41 PUSH1 0x4 MSTORE PUSH1 0x24 PUSH1 0x0 REVERT JUMPDEST PUSH2 0x4B1 DUP3 PUSH2 0x322 JUMP JUMPDEST DUP2 ADD DUP2 DUP2 LT PUSH8 0xFFFFFFFFFFFFFFFF DUP3 GT OR ISZERO PUSH2 0x4D0 JUMPI PUSH2 0x4CF PUSH2 0x479 JUMP JUMPDEST JUMPDEST DUP1 PUSH1 0x40 MSTORE POP POP POP JUMP JUMPDEST PUSH1 0x0 PUSH2 0x4E3 PUSH2 0x38E JUMP JUMPDEST SWAP1 POP PUSH2 0x4EF DUP3 DUP3 PUSH2 0x4A8 JUMP JUMPDEST SWAP2 SWAP1 POP JUMP JUMPDEST PUSH1 0x0 PUSH8 0xFFFFFFFFFFFFFFFF DUP3 GT ISZERO PUSH2 0x50F JUMPI PUSH2 0x50E PUSH2 0x479 JUMP JUMPDEST JUMPDEST PUSH2 0x518 DUP3 PUSH2 0x322 JUMP JUMPDEST SWAP1 POP PUSH1 0x20 DUP2 ADD SWAP1 POP SWAP2 SWAP1 POP JUMP JUMPDEST DUP3 DUP2 DUP4 CALLDATACOPY PUSH1 0x0 DUP4 DUP4 ADD MSTORE POP POP POP JUMP JUMPDEST PUSH1 0x0 PUSH2 0x547 PUSH2 0x542 DUP5 PUSH2 0x4F4 JUMP JUMPDEST PUSH2 0x4D9 JUMP JUMPDEST SWAP1 POP DUP3 DUP2 MSTORE PUSH1 0x20 DUP2 ADD DUP5 DUP5 DUP5 ADD GT ISZERO PUSH2 0x563 JUMPI PUSH2 0x562 PUSH2 0x474 JUMP JUMPDEST JUMPDEST PUSH2 0x56E DUP5 DUP3 DUP6 PUSH2 0x525 JUMP JUMPDEST POP SWAP4 SWAP3 POP POP POP JUMP JUMPDEST PUSH1 0x0 DUP3 PUSH1 0x1F DUP4 ADD SLT PUSH2 0x58B JUMPI PUSH2 0x58A PUSH2 0x46F JUMP JUMPDEST JUMPDEST DUP2 CALLDATALOAD PUSH2 0x59B DUP5 DUP3 PUSH1 0x20 DUP7 ADD PUSH2 0x534 JUMP JUMPDEST SWAP2 POP POP SWAP3 SWAP2 POP POP JUMP JUMPDEST PUSH1 0x0 PUSH1 0x20 DUP3 DUP5 SUB SLT ISZERO PUSH2 0x5BA JUMPI PUSH2 0x5B9 PUSH2 0x398 JUMP JUMPDEST JUMPDEST PUSH1 0x0 DUP3 ADD CALLDATALOAD PUSH8 0xFFFFFFFFFFFFFFFF DUP2 GT ISZERO PUSH2 0x5D8 JUMPI PUSH2 0x5D7 PUSH2 0x39D JUMP JUMPDEST JUMPDEST PUSH2 0x5E4 DUP5 DUP3 DUP6 ADD PUSH2 0x576 JUMP JUMPDEST SWAP2 POP POP SWAP3 SWAP2 POP POP JUMP JUMPDEST PUSH32 0x4E487B7100000000000000000000000000000000000000000000000000000000 PUSH1 0x0 MSTORE PUSH1 0x11 PUSH1 0x4 MSTORE PUSH1 0x24 PUSH1 0x0 REVERT JUMPDEST PUSH1 0x0 PUSH2 0x627 DUP3 PUSH2 0x3A2 JUMP JUMPDEST SWAP2 POP PUSH2 0x632 DUP4 PUSH2 0x3A2 JUMP JUMPDEST SWAP3 POP DUP2 PUSH32 0xFFFFFFFFFFFFFFFFFFFFFFFFFFFFFFFFFFFFFFFFFFFFFFFFFFFFFFFFFFFFFFFF DIV DUP4 GT DUP3 ISZERO ISZERO AND ISZERO PUSH2 0x66B JUMPI PUSH2 0x66A PUSH2 0x5ED JUMP JUMPDEST JUMPDEST DUP3 DUP3 MUL SWAP1 POP SWAP3 SWAP2 POP POP JUMP JUMPDEST PUSH1 0x0 PUSH2 0x681 DUP3 PUSH2 0x3A2 JUMP JUMPDEST SWAP2 POP PUSH32 0xFFFFFFFFFFFFFFFFFFFFFFFFFFFFFFFFFFFFFFFFFFFFFFFFFFFFFFFFFFFFFFFF DUP3 SUB PUSH2 0x6B3 JUMPI PUSH2 0x6B2 PUSH2 0x5ED JUMP JUMPDEST JUMPDEST PUSH1 0x1 DUP3 ADD SWAP1 POP SWAP2 SWAP1 POP JUMP JUMPDEST PUSH1 0x0 PUSH2 0x6C9 DUP3 PUSH2 0x3A2 JUMP JUMPDEST SWAP2 POP PUSH2 0x6D4 DUP4 PUSH2 0x3A2 JUMP JUMPDEST SWAP3 POP DUP3 PUSH32 0xFFFFFFFFFFFFFFFFFFFFFFFFFFFFFFFFFFFFFFFFFFFFFFFFFFFFFFFFFFFFFFFF SUB DUP3 GT ISZERO PUSH2 0x709 JUMPI PUSH2 0x708 PUSH2 0x5ED JUMP JUMPDEST JUMPDEST DUP3 DUP3 ADD SWAP1 POP SWAP3 SWAP2 POP POP JUMP JUMPDEST PUSH1 0x0 DUP2 SWAP1 POP SWAP3 SWAP2 POP POP JUMP JUMPDEST PUSH1 0x0 PUSH2 0x72A DUP3 PUSH2 0x2D3 JUMP JUMPDEST PUSH2 0x734 DUP2 DUP6 PUSH2 0x714 JUMP JUMPDEST SWAP4 POP PUSH2 0x744 DUP2 DUP6 PUSH1 0x20 DUP7 ADD PUSH2 0x2EF JUMP JUMPDEST DUP1 DUP5 ADD SWAP2 POP POP SWAP3 SWAP2 POP POP JUMP JUMPDEST PUSH1 0x0 PUSH2 0x75C DUP3 DUP5 PUSH2 0x71F JUMP JUMPDEST SWAP2 POP DUP2 SWAP1 POP SWAP3 SWAP2 POP POP JUMP JUMPDEST PUSH32 0x636F6F6B69650000000000000000000000000000000000000000000000000000 PUSH1 0x0 DUP3 ADD MSTORE POP JUMP JUMPDEST PUSH1 0x0 PUSH2 0x79D PUSH1 0x6 DUP4 PUSH2 0x714 JUMP JUMPDEST SWAP2 POP PUSH2 0x7A8 DUP3 PUSH2 0x767 JUMP JUMPDEST PUSH1 0x6 DUP3 ADD SWAP1 POP SWAP2 SWAP1 POP JUMP JUMPDEST PUSH1 0x0 PUSH2 0x7BE DUP3 PUSH2 0x790 JUMP JUMPDEST SWAP2 POP DUP2 SWAP1 POP SWAP2 SWAP1 POP JUMP INVALID LOG2 PUSH5 0x6970667358 0x22 SLT KECCAK256 SWAP15 SMOD 0xD8 LOG1 0x49 0x4C 0xED 0xAB PUSH31 0x7EACCD400B3F490EFCA7FA593DA9B9D87D60CBBF8195EB64736F6C63430008 0xD STOP CALLER "
				},
				"gasEstimates": {
					"creation": {
						"codeDepositCost": "409200",
						"executionCost": "443",
						"totalCost": "409643"
					},
					"external": {
						"adds()": "403",
						"addsTwo(uint256,uint256)": "infinite",
						"doubles(uint256)": "infinite",
						"name()": "infinite",
						"yum(string)": "infinite"
					}
				},
				"methodIdentifiers": {
					"adds()": "eba86558",
					"addsTwo(uint256,uint256)": "c49bac81",
					"doubles(uint256)": "448b1aac",
					"name()": "06fdde03",
					"yum(string)": "ca507aa9"
				}
			},
			"storageLayout": {
				"storage": [],
				"types": null
			},
			"userdoc": {
				"kind": "user",
				"methods": {},
				"version": 1
			}
		}
	}
}