{
	"contracts/W3Day5.sol": {
		"events": {
			"abi": [
				{
					"anonymous": false,
					"inputs": [
						{
							"indexed": false,
							"internalType": "uint256",
							"name": "a",
							"type": "uint256"
						},
						{
							"indexed": false,
							"internalType": "address",
							"name": "b",
							"type": "address"
						},
						{
							"indexed": false,
							"internalType": "string",
							"name": "c",
							"type": "string"
						}
					],
					"name": "log1",
					"type": "event"
				},
				{
					"anonymous": false,
					"inputs": [
						{
							"indexed": true,
							"internalType": "uint256",
							"name": "a",
							"type": "uint256"
						},
						{
							"indexed": false,
							"internalType": "address",
							"name": "b",
							"type": "address"
						},
						{
							"indexed": false,
							"internalType": "string",
							"name": "c",
							"type": "string"
						}
					],
					"name": "log2",
					"type": "event"
				},
				{
					"anonymous": false,
					"inputs": [
						{
							"indexed": false,
							"internalType": "uint256",
							"name": "a",
							"type": "uint256"
						},
						{
							"indexed": false,
							"internalType": "address",
							"name": "b",
							"type": "address"
						},
						{
							"indexed": true,
							"internalType": "string",
							"name": "c",
							"type": "string"
						}
					],
					"name": "log3",
					"type": "event"
				},
				{
					"inputs": [],
					"name": "callLog1",
					"outputs": [],
					"stateMutability": "nonpayable",
					"type": "function"
				},
				{
					"inputs": [],
					"name": "callLog2",
					"outputs": [],
					"stateMutability": "nonpayable",
					"type": "function"
				},
				{
					"inputs": [],
					"name": "callLog3",
					"outputs": [],
					"stateMutability": "nonpayable",
					"type": "function"
				}
			],
			"devdoc": {
				"kind": "dev",
				"methods": {},
				"version": 1
			},
			"evm": {
				"assembly": "    /* \"contracts/W3Day5.sol\":61:592  contract events {... */\n  mstore(0x40, 0x80)\n  callvalue\n  dup1\n  iszero\n  tag_1\n  jumpi\n  0x00\n  dup1\n  revert\ntag_1:\n  pop\n  dataSize(sub_0)\n  dup1\n  dataOffset(sub_0)\n  0x00\n  codecopy\n  0x00\n  return\nstop\n\nsub_0: assembly {\n        /* \"contracts/W3Day5.sol\":61:592  contract events {... */\n      mstore(0x40, 0x80)\n      callvalue\n      dup1\n      iszero\n      tag_1\n      jumpi\n      0x00\n      dup1\n      revert\n    tag_1:\n      pop\n      jumpi(tag_2, lt(calldatasize, 0x04))\n      shr(0xe0, calldataload(0x00))\n      dup1\n      0xad29e43f\n      eq\n      tag_3\n      jumpi\n      dup1\n      0xe529c136\n      eq\n      tag_4\n      jumpi\n      dup1\n      0xfc0c221b\n      eq\n      tag_5\n      jumpi\n    tag_2:\n      0x00\n      dup1\n      revert\n        /* \"contracts/W3Day5.sol\":242:351  function callLog1() public {... */\n    tag_3:\n      tag_6\n      tag_7\n      jump\t// in\n    tag_6:\n      stop\n        /* \"contracts/W3Day5.sol\":480:589  function callLog3() public {... */\n    tag_4:\n      tag_8\n      tag_9\n      jump\t// in\n    tag_8:\n      stop\n        /* \"contracts/W3Day5.sol\":359:472  function callLog2() public {... */\n    tag_5:\n      tag_10\n      tag_11\n      jump\t// in\n    tag_10:\n      stop\n        /* \"contracts/W3Day5.sol\":242:351  function callLog1() public {... */\n    tag_7:\n        /* \"contracts/W3Day5.sol\":285:343  log1(5, 0x5B38Da6a701c568545dCfcB03FcB875f56beddC4, \"Hey\") */\n      0x4bb3af34c34475c3a49344ea5e1c3599f1bc03a52abf5d60cddb5a96929be126\n        /* \"contracts/W3Day5.sol\":290:291  5 */\n      0x05\n        /* \"contracts/W3Day5.sol\":293:335  0x5B38Da6a701c568545dCfcB03FcB875f56beddC4 */\n      0x5b38da6a701c568545dcfcb03fcb875f56beddc4\n        /* \"contracts/W3Day5.sol\":285:343  log1(5, 0x5B38Da6a701c568545dCfcB03FcB875f56beddC4, \"Hey\") */\n      mload(0x40)\n      tag_13\n      swap3\n      swap2\n      swap1\n      tag_14\n      jump\t// in\n    tag_13:\n      mload(0x40)\n      dup1\n      swap2\n      sub\n      swap1\n      log1\n        /* \"contracts/W3Day5.sol\":242:351  function callLog1() public {... */\n      jump\t// out\n        /* \"contracts/W3Day5.sol\":480:589  function callLog3() public {... */\n    tag_9:\n        /* \"contracts/W3Day5.sol\":523:581  log3(5, 0x5B38Da6a701c568545dCfcB03FcB875f56beddC4, \"Hey\") */\n      mload(0x40)\n      tag_16\n      swap1\n      tag_17\n      jump\t// in\n    tag_16:\n      mload(0x40)\n      dup1\n      swap2\n      sub\n      swap1\n      keccak256\n      0x7d0d749b9a63f27628dcc582d84abf283698326aef556ad93bb89cf2bbfd11e8\n        /* \"contracts/W3Day5.sol\":528:529  5 */\n      0x05\n        /* \"contracts/W3Day5.sol\":531:573  0x5B38Da6a701c568545dCfcB03FcB875f56beddC4 */\n      0x5b38da6a701c568545dcfcb03fcb875f56beddc4\n        /* \"contracts/W3Day5.sol\":523:581  log3(5, 0x5B38Da6a701c568545dCfcB03FcB875f56beddC4, \"Hey\") */\n      mload(0x40)\n      tag_18\n      swap3\n      swap2\n      swap1\n      tag_19\n      jump\t// in\n    tag_18:\n      mload(0x40)\n      dup1\n      swap2\n      sub\n      swap1\n      log2\n        /* \"contracts/W3Day5.sol\":480:589  function callLog3() public {... */\n      jump\t// out\n        /* \"contracts/W3Day5.sol\":359:472  function callLog2() public {... */\n    tag_11:\n        /* \"contracts/W3Day5.sol\":407:408  5 */\n      0x05\n        /* \"contracts/W3Day5.sol\":402:460  log2(5, 0x5B38Da6a701c568545dCfcB03FcB875f56beddC4, \"Hey\") */\n      0x187768e97d5043d612f18f7a65ae83acc1acc60b58daed0d8f9fb1500ae7c4c3\n        /* \"contracts/W3Day5.sol\":410:452  0x5B38Da6a701c568545dCfcB03FcB875f56beddC4 */\n      0x5b38da6a701c568545dcfcb03fcb875f56beddc4\n        /* \"contracts/W3Day5.sol\":402:460  log2(5, 0x5B38Da6a701c568545dCfcB03FcB875f56beddC4, \"Hey\") */\n      mload(0x40)\n      tag_21\n      swap2\n      swap1\n      tag_22\n      jump\t// in\n    tag_21:\n      mload(0x40)\n      dup1\n      swap2\n      sub\n      swap1\n      log2\n        /* \"contracts/W3Day5.sol\":359:472  function callLog2() public {... */\n      jump\t// out\n        /* \"#utility.yul\":7:92   */\n    tag_23:\n        /* \"#utility.yul\":52:59   */\n      0x00\n        /* \"#utility.yul\":81:86   */\n      dup2\n        /* \"#utility.yul\":70:86   */\n      swap1\n      pop\n        /* \"#utility.yul\":7:92   */\n      swap2\n      swap1\n      pop\n      jump\t// out\n        /* \"#utility.yul\":98:175   */\n    tag_24:\n        /* \"#utility.yul\":135:142   */\n      0x00\n        /* \"#utility.yul\":164:169   */\n      dup2\n        /* \"#utility.yul\":153:169   */\n      swap1\n      pop\n        /* \"#utility.yul\":98:175   */\n      swap2\n      swap1\n      pop\n      jump\t// out\n        /* \"#utility.yul\":181:241   */\n    tag_25:\n        /* \"#utility.yul\":209:212   */\n      0x00\n        /* \"#utility.yul\":230:235   */\n      dup2\n        /* \"#utility.yul\":223:235   */\n      swap1\n      pop\n        /* \"#utility.yul\":181:241   */\n      swap2\n      swap1\n      pop\n      jump\t// out\n        /* \"#utility.yul\":247:405   */\n    tag_26:\n        /* \"#utility.yul\":305:314   */\n      0x00\n        /* \"#utility.yul\":338:399   */\n      tag_41\n        /* \"#utility.yul\":356:398   */\n      tag_42\n        /* \"#utility.yul\":365:397   */\n      tag_43\n        /* \"#utility.yul\":391:396   */\n      dup5\n        /* \"#utility.yul\":365:397   */\n      tag_23\n      jump\t// in\n    tag_43:\n        /* \"#utility.yul\":356:398   */\n      tag_25\n      jump\t// in\n    tag_42:\n        /* \"#utility.yul\":338:399   */\n      tag_24\n      jump\t// in\n    tag_41:\n        /* \"#utility.yul\":325:399   */\n      swap1\n      pop\n        /* \"#utility.yul\":247:405   */\n      swap2\n      swap1\n      pop\n      jump\t// out\n        /* \"#utility.yul\":411:558   */\n    tag_27:\n        /* \"#utility.yul\":506:551   */\n      tag_45\n        /* \"#utility.yul\":545:550   */\n      dup2\n        /* \"#utility.yul\":506:551   */\n      tag_26\n      jump\t// in\n    tag_45:\n        /* \"#utility.yul\":501:504   */\n      dup3\n        /* \"#utility.yul\":494:552   */\n      mstore\n        /* \"#utility.yul\":411:558   */\n      pop\n      pop\n      jump\t// out\n        /* \"#utility.yul\":564:690   */\n    tag_28:\n        /* \"#utility.yul\":601:608   */\n      0x00\n        /* \"#utility.yul\":641:683   */\n      0xffffffffffffffffffffffffffffffffffffffff\n        /* \"#utility.yul\":634:639   */\n      dup3\n        /* \"#utility.yul\":630:684   */\n      and\n        /* \"#utility.yul\":619:684   */\n      swap1\n      pop\n        /* \"#utility.yul\":564:690   */\n      swap2\n      swap1\n      pop\n      jump\t// out\n        /* \"#utility.yul\":696:792   */\n    tag_29:\n        /* \"#utility.yul\":733:740   */\n      0x00\n        /* \"#utility.yul\":762:786   */\n      tag_48\n        /* \"#utility.yul\":780:785   */\n      dup3\n        /* \"#utility.yul\":762:786   */\n      tag_28\n      jump\t// in\n    tag_48:\n        /* \"#utility.yul\":751:786   */\n      swap1\n      pop\n        /* \"#utility.yul\":696:792   */\n      swap2\n      swap1\n      pop\n      jump\t// out\n        /* \"#utility.yul\":798:916   */\n    tag_30:\n        /* \"#utility.yul\":885:909   */\n      tag_50\n        /* \"#utility.yul\":903:908   */\n      dup2\n        /* \"#utility.yul\":885:909   */\n      tag_29\n      jump\t// in\n    tag_50:\n        /* \"#utility.yul\":880:883   */\n      dup3\n        /* \"#utility.yul\":873:910   */\n      mstore\n        /* \"#utility.yul\":798:916   */\n      pop\n      pop\n      jump\t// out\n        /* \"#utility.yul\":922:1091   */\n    tag_31:\n        /* \"#utility.yul\":1006:1017   */\n      0x00\n        /* \"#utility.yul\":1040:1046   */\n      dup3\n        /* \"#utility.yul\":1035:1038   */\n      dup3\n        /* \"#utility.yul\":1028:1047   */\n      mstore\n        /* \"#utility.yul\":1080:1084   */\n      0x20\n        /* \"#utility.yul\":1075:1078   */\n      dup3\n        /* \"#utility.yul\":1071:1085   */\n      add\n        /* \"#utility.yul\":1056:1085   */\n      swap1\n      pop\n        /* \"#utility.yul\":922:1091   */\n      swap3\n      swap2\n      pop\n      pop\n      jump\t// out\n        /* \"#utility.yul\":1097:1250   */\n    tag_32:\n        /* \"#utility.yul\":1237:1242   */\n      0x4865790000000000000000000000000000000000000000000000000000000000\n        /* \"#utility.yul\":1233:1234   */\n      0x00\n        /* \"#utility.yul\":1225:1231   */\n      dup3\n        /* \"#utility.yul\":1221:1235   */\n      add\n        /* \"#utility.yul\":1214:1243   */\n      mstore\n        /* \"#utility.yul\":1097:1250   */\n      pop\n      jump\t// out\n        /* \"#utility.yul\":1256:1621   */\n    tag_33:\n        /* \"#utility.yul\":1398:1401   */\n      0x00\n        /* \"#utility.yul\":1419:1485   */\n      tag_54\n        /* \"#utility.yul\":1483:1484   */\n      0x03\n        /* \"#utility.yul\":1478:1481   */\n      dup4\n        /* \"#utility.yul\":1419:1485   */\n      tag_31\n      jump\t// in\n    tag_54:\n        /* \"#utility.yul\":1412:1485   */\n      swap2\n      pop\n        /* \"#utility.yul\":1494:1587   */\n      tag_55\n        /* \"#utility.yul\":1583:1586   */\n      dup3\n        /* \"#utility.yul\":1494:1587   */\n      tag_32\n      jump\t// in\n    tag_55:\n        /* \"#utility.yul\":1612:1614   */\n      0x20\n        /* \"#utility.yul\":1607:1610   */\n      dup3\n        /* \"#utility.yul\":1603:1615   */\n      add\n        /* \"#utility.yul\":1596:1615   */\n      swap1\n      pop\n        /* \"#utility.yul\":1256:1621   */\n      swap2\n      swap1\n      pop\n      jump\t// out\n        /* \"#utility.yul\":1627:2282   */\n    tag_14:\n        /* \"#utility.yul\":1857:1861   */\n      0x00\n        /* \"#utility.yul\":1895:1897   */\n      0x60\n        /* \"#utility.yul\":1884:1893   */\n      dup3\n        /* \"#utility.yul\":1880:1898   */\n      add\n        /* \"#utility.yul\":1872:1898   */\n      swap1\n      pop\n        /* \"#utility.yul\":1908:1987   */\n      tag_57\n        /* \"#utility.yul\":1984:1985   */\n      0x00\n        /* \"#utility.yul\":1973:1982   */\n      dup4\n        /* \"#utility.yul\":1969:1986   */\n      add\n        /* \"#utility.yul\":1960:1966   */\n      dup6\n        /* \"#utility.yul\":1908:1987   */\n      tag_27\n      jump\t// in\n    tag_57:\n        /* \"#utility.yul\":1997:2069   */\n      tag_58\n        /* \"#utility.yul\":2065:2067   */\n      0x20\n        /* \"#utility.yul\":2054:2063   */\n      dup4\n        /* \"#utility.yul\":2050:2068   */\n      add\n        /* \"#utility.yul\":2041:2047   */\n      dup5\n        /* \"#utility.yul\":1997:2069   */\n      tag_30\n      jump\t// in\n    tag_58:\n        /* \"#utility.yul\":2116:2125   */\n      dup2\n        /* \"#utility.yul\":2110:2114   */\n      dup2\n        /* \"#utility.yul\":2106:2126   */\n      sub\n        /* \"#utility.yul\":2101:2103   */\n      0x40\n        /* \"#utility.yul\":2090:2099   */\n      dup4\n        /* \"#utility.yul\":2086:2104   */\n      add\n        /* \"#utility.yul\":2079:2127   */\n      mstore\n        /* \"#utility.yul\":2144:2275   */\n      tag_59\n        /* \"#utility.yul\":2270:2274   */\n      dup2\n        /* \"#utility.yul\":2144:2275   */\n      tag_33\n      jump\t// in\n    tag_59:\n        /* \"#utility.yul\":2136:2275   */\n      swap1\n      pop\n        /* \"#utility.yul\":1627:2282   */\n      swap4\n      swap3\n      pop\n      pop\n      pop\n      jump\t// out\n        /* \"#utility.yul\":2288:2436   */\n    tag_34:\n        /* \"#utility.yul\":2390:2401   */\n      0x00\n        /* \"#utility.yul\":2427:2430   */\n      dup2\n        /* \"#utility.yul\":2412:2430   */\n      swap1\n      pop\n        /* \"#utility.yul\":2288:2436   */\n      swap3\n      swap2\n      pop\n      pop\n      jump\t// out\n        /* \"#utility.yul\":2442:2842   */\n    tag_35:\n        /* \"#utility.yul\":2602:2605   */\n      0x00\n        /* \"#utility.yul\":2623:2707   */\n      tag_62\n        /* \"#utility.yul\":2705:2706   */\n      0x03\n        /* \"#utility.yul\":2700:2703   */\n      dup4\n        /* \"#utility.yul\":2623:2707   */\n      tag_34\n      jump\t// in\n    tag_62:\n        /* \"#utility.yul\":2616:2707   */\n      swap2\n      pop\n        /* \"#utility.yul\":2716:2809   */\n      tag_63\n        /* \"#utility.yul\":2805:2808   */\n      dup3\n        /* \"#utility.yul\":2716:2809   */\n      tag_32\n      jump\t// in\n    tag_63:\n        /* \"#utility.yul\":2834:2835   */\n      0x03\n        /* \"#utility.yul\":2829:2832   */\n      dup3\n        /* \"#utility.yul\":2825:2836   */\n      add\n        /* \"#utility.yul\":2818:2836   */\n      swap1\n      pop\n        /* \"#utility.yul\":2442:2842   */\n      swap2\n      swap1\n      pop\n      jump\t// out\n        /* \"#utility.yul\":2848:3229   */\n    tag_17:\n        /* \"#utility.yul\":3033:3036   */\n      0x00\n        /* \"#utility.yul\":3055:3203   */\n      tag_65\n        /* \"#utility.yul\":3199:3202   */\n      dup3\n        /* \"#utility.yul\":3055:3203   */\n      tag_35\n      jump\t// in\n    tag_65:\n        /* \"#utility.yul\":3048:3203   */\n      swap2\n      pop\n        /* \"#utility.yul\":3220:3223   */\n      dup2\n        /* \"#utility.yul\":3213:3223   */\n      swap1\n      pop\n        /* \"#utility.yul\":2848:3229   */\n      swap2\n      swap1\n      pop\n      jump\t// out\n        /* \"#utility.yul\":3235:3583   */\n    tag_19:\n        /* \"#utility.yul\":3364:3368   */\n      0x00\n        /* \"#utility.yul\":3402:3404   */\n      0x40\n        /* \"#utility.yul\":3391:3400   */\n      dup3\n        /* \"#utility.yul\":3387:3405   */\n      add\n        /* \"#utility.yul\":3379:3405   */\n      swap1\n      pop\n        /* \"#utility.yul\":3415:3494   */\n      tag_67\n        /* \"#utility.yul\":3491:3492   */\n      0x00\n        /* \"#utility.yul\":3480:3489   */\n      dup4\n        /* \"#utility.yul\":3476:3493   */\n      add\n        /* \"#utility.yul\":3467:3473   */\n      dup6\n        /* \"#utility.yul\":3415:3494   */\n      tag_27\n      jump\t// in\n    tag_67:\n        /* \"#utility.yul\":3504:3576   */\n      tag_68\n        /* \"#utility.yul\":3572:3574   */\n      0x20\n        /* \"#utility.yul\":3561:3570   */\n      dup4\n        /* \"#utility.yul\":3557:3575   */\n      add\n        /* \"#utility.yul\":3548:3554   */\n      dup5\n        /* \"#utility.yul\":3504:3576   */\n      tag_30\n      jump\t// in\n    tag_68:\n        /* \"#utility.yul\":3235:3583   */\n      swap4\n      swap3\n      pop\n      pop\n      pop\n      jump\t// out\n        /* \"#utility.yul\":3589:4118   */\n    tag_22:\n        /* \"#utility.yul\":3783:3787   */\n      0x00\n        /* \"#utility.yul\":3821:3823   */\n      0x40\n        /* \"#utility.yul\":3810:3819   */\n      dup3\n        /* \"#utility.yul\":3806:3824   */\n      add\n        /* \"#utility.yul\":3798:3824   */\n      swap1\n      pop\n        /* \"#utility.yul\":3834:3905   */\n      tag_70\n        /* \"#utility.yul\":3902:3903   */\n      0x00\n        /* \"#utility.yul\":3891:3900   */\n      dup4\n        /* \"#utility.yul\":3887:3904   */\n      add\n        /* \"#utility.yul\":3878:3884   */\n      dup5\n        /* \"#utility.yul\":3834:3905   */\n      tag_30\n      jump\t// in\n    tag_70:\n        /* \"#utility.yul\":3952:3961   */\n      dup2\n        /* \"#utility.yul\":3946:3950   */\n      dup2\n        /* \"#utility.yul\":3942:3962   */\n      sub\n        /* \"#utility.yul\":3937:3939   */\n      0x20\n        /* \"#utility.yul\":3926:3935   */\n      dup4\n        /* \"#utility.yul\":3922:3940   */\n      add\n        /* \"#utility.yul\":3915:3963   */\n      mstore\n        /* \"#utility.yul\":3980:4111   */\n      tag_71\n        /* \"#utility.yul\":4106:4110   */\n      dup2\n        /* \"#utility.yul\":3980:4111   */\n      tag_33\n      jump\t// in\n    tag_71:\n        /* \"#utility.yul\":3972:4111   */\n      swap1\n      pop\n        /* \"#utility.yul\":3589:4118   */\n      swap3\n      swap2\n      pop\n      pop\n      jump\t// out\n\n    auxdata: 0xa26469706673582212200d644cd561938a340733a99f38639b68cdb71200948bb7f79196185279bcea7d64736f6c634300080d0033\n}\n",
				"bytecode": {
					"linkReferences": {},
					"object": "608060405234801561001057600080fd5b50610360806100206000396000f3fe608060405234801561001057600080fd5b50600436106100415760003560e01c8063ad29e43f14610046578063e529c13614610050578063fc0c221b1461005a575b600080fd5b61004e610064565b005b6100586100b4565b005b610062610118565b005b7f4bb3af34c34475c3a49344ea5e1c3599f1bc03a52abf5d60cddb5a96929be1266005735b38da6a701c568545dcfcb03fcb875f56beddc46040516100aa929190610254565b60405180910390a1565b6040516100c0906102be565b60405180910390207f7d0d749b9a63f27628dcc582d84abf283698326aef556ad93bb89cf2bbfd11e86005735b38da6a701c568545dcfcb03fcb875f56beddc460405161010e9291906102d3565b60405180910390a2565b60057f187768e97d5043d612f18f7a65ae83acc1acc60b58daed0d8f9fb1500ae7c4c3735b38da6a701c568545dcfcb03fcb875f56beddc460405161015d91906102fc565b60405180910390a2565b6000819050919050565b6000819050919050565b6000819050919050565b60006101a061019b61019684610167565b61017b565b610171565b9050919050565b6101b081610185565b82525050565b600073ffffffffffffffffffffffffffffffffffffffff82169050919050565b60006101e1826101b6565b9050919050565b6101f1816101d6565b82525050565b600082825260208201905092915050565b7f4865790000000000000000000000000000000000000000000000000000000000600082015250565b600061023e6003836101f7565b915061024982610208565b602082019050919050565b600060608201905061026960008301856101a7565b61027660208301846101e8565b818103604083015261028781610231565b90509392505050565b600081905092915050565b60006102a8600383610290565b91506102b382610208565b600382019050919050565b60006102c98261029b565b9150819050919050565b60006040820190506102e860008301856101a7565b6102f560208301846101e8565b9392505050565b600060408201905061031160008301846101e8565b818103602083015261032281610231565b90509291505056fea26469706673582212200d644cd561938a340733a99f38639b68cdb71200948bb7f79196185279bcea7d64736f6c634300080d0033",
					"opcodes": "PUSH1 0x80 PUSH1 0x40 MSTORE CALLVALUE DUP1 ISZERO PUSH2 0x10 JUMPI PUSH1 0x0 DUP1 REVERT JUMPDEST POP PUSH2 0x360 DUP1 PUSH2 0x20 PUSH1 0x0 CODECOPY PUSH1 0x0 RETURN INVALID PUSH1 0x80 PUSH1 0x40 MSTORE CALLVALUE DUP1 ISZERO PUSH2 0x10 JUMPI PUSH1 0x0 DUP1 REVERT JUMPDEST POP PUSH1 0x4 CALLDATASIZE LT PUSH2 0x41 JUMPI PUSH1 0x0 CALLDATALOAD PUSH1 0xE0 SHR DUP1 PUSH4 0xAD29E43F EQ PUSH2 0x46 JUMPI DUP1 PUSH4 0xE529C136 EQ PUSH2 0x50 JUMPI DUP1 PUSH4 0xFC0C221B EQ PUSH2 0x5A JUMPI JUMPDEST PUSH1 0x0 DUP1 REVERT JUMPDEST PUSH2 0x4E PUSH2 0x64 JUMP JUMPDEST STOP JUMPDEST PUSH2 0x58 PUSH2 0xB4 JUMP JUMPDEST STOP JUMPDEST PUSH2 0x62 PUSH2 0x118 JUMP JUMPDEST STOP JUMPDEST PUSH32 0x4BB3AF34C34475C3A49344EA5E1C3599F1BC03A52ABF5D60CDDB5A96929BE126 PUSH1 0x5 PUSH20 0x5B38DA6A701C568545DCFCB03FCB875F56BEDDC4 PUSH1 0x40 MLOAD PUSH2 0xAA SWAP3 SWAP2 SWAP1 PUSH2 0x254 JUMP JUMPDEST PUSH1 0x40 MLOAD DUP1 SWAP2 SUB SWAP1 LOG1 JUMP JUMPDEST PUSH1 0x40 MLOAD PUSH2 0xC0 SWAP1 PUSH2 0x2BE JUMP JUMPDEST PUSH1 0x40 MLOAD DUP1 SWAP2 SUB SWAP1 KECCAK256 PUSH32 0x7D0D749B9A63F27628DCC582D84ABF283698326AEF556AD93BB89CF2BBFD11E8 PUSH1 0x5 PUSH20 0x5B38DA6A701C568545DCFCB03FCB875F56BEDDC4 PUSH1 0x40 MLOAD PUSH2 0x10E SWAP3 SWAP2 SWAP1 PUSH2 0x2D3 JUMP JUMPDEST PUSH1 0x40 MLOAD DUP1 SWAP2 SUB SWAP1 LOG2 JUMP JUMPDEST PUSH1 0x5 PUSH32 0x187768E97D5043D612F18F7A65AE83ACC1ACC60B58DAED0D8F9FB1500AE7C4C3 PUSH20 0x5B38DA6A701C568545DCFCB03FCB875F56BEDDC4 PUSH1 0x40 MLOAD PUSH2 0x15D SWAP2 SWAP1 PUSH2 0x2FC JUMP JUMPDEST PUSH1 0x40 MLOAD DUP1 SWAP2 SUB SWAP1 LOG2 JUMP JUMPDEST PUSH1 0x0 DUP2 SWAP1 POP SWAP2 SWAP1 POP JUMP JUMPDEST PUSH1 0x0 DUP2 SWAP1 POP SWAP2 SWAP1 POP JUMP JUMPDEST PUSH1 0x0 DUP2 SWAP1 POP SWAP2 SWAP1 POP JUMP JUMPDEST PUSH1 0x0 PUSH2 0x1A0 PUSH2 0x19B PUSH2 0x196 DUP5 PUSH2 0x167 JUMP JUMPDEST PUSH2 0x17B JUMP JUMPDEST PUSH2 0x171 JUMP JUMPDEST SWAP1 POP SWAP2 SWAP1 POP JUMP JUMPDEST PUSH2 0x1B0 DUP2 PUSH2 0x185 JUMP JUMPDEST DUP3 MSTORE POP POP JUMP JUMPDEST PUSH1 0x0 PUSH20 0xFFFFFFFFFFFFFFFFFFFFFFFFFFFFFFFFFFFFFFFF DUP3 AND SWAP1 POP SWAP2 SWAP1 POP JUMP JUMPDEST PUSH1 0x0 PUSH2 0x1E1 DUP3 PUSH2 0x1B6 JUMP JUMPDEST SWAP1 POP SWAP2 SWAP1 POP JUMP JUMPDEST PUSH2 0x1F1 DUP2 PUSH2 0x1D6 JUMP JUMPDEST DUP3 MSTORE POP POP JUMP JUMPDEST PUSH1 0x0 DUP3 DUP3 MSTORE PUSH1 0x20 DUP3 ADD SWAP1 POP SWAP3 SWAP2 POP POP JUMP JUMPDEST PUSH32 0x4865790000000000000000000000000000000000000000000000000000000000 PUSH1 0x0 DUP3 ADD MSTORE POP JUMP JUMPDEST PUSH1 0x0 PUSH2 0x23E PUSH1 0x3 DUP4 PUSH2 0x1F7 JUMP JUMPDEST SWAP2 POP PUSH2 0x249 DUP3 PUSH2 0x208 JUMP JUMPDEST PUSH1 0x20 DUP3 ADD SWAP1 POP SWAP2 SWAP1 POP JUMP JUMPDEST PUSH1 0x0 PUSH1 0x60 DUP3 ADD SWAP1 POP PUSH2 0x269 PUSH1 0x0 DUP4 ADD DUP6 PUSH2 0x1A7 JUMP JUMPDEST PUSH2 0x276 PUSH1 0x20 DUP4 ADD DUP5 PUSH2 0x1E8 JUMP JUMPDEST DUP2 DUP2 SUB PUSH1 0x40 DUP4 ADD MSTORE PUSH2 0x287 DUP2 PUSH2 0x231 JUMP JUMPDEST SWAP1 POP SWAP4 SWAP3 POP POP POP JUMP JUMPDEST PUSH1 0x0 DUP2 SWAP1 POP SWAP3 SWAP2 POP POP JUMP JUMPDEST PUSH1 0x0 PUSH2 0x2A8 PUSH1 0x3 DUP4 PUSH2 0x290 JUMP JUMPDEST SWAP2 POP PUSH2 0x2B3 DUP3 PUSH2 0x208 JUMP JUMPDEST PUSH1 0x3 DUP3 ADD SWAP1 POP SWAP2 SWAP1 POP JUMP JUMPDEST PUSH1 0x0 PUSH2 0x2C9 DUP3 PUSH2 0x29B JUMP JUMPDEST SWAP2 POP DUP2 SWAP1 POP SWAP2 SWAP1 POP JUMP JUMPDEST PUSH1 0x0 PUSH1 0x40 DUP3 ADD SWAP1 POP PUSH2 0x2E8 PUSH1 0x0 DUP4 ADD DUP6 PUSH2 0x1A7 JUMP JUMPDEST PUSH2 0x2F5 PUSH1 0x20 DUP4 ADD DUP5 PUSH2 0x1E8 JUMP JUMPDEST SWAP4 SWAP3 POP POP POP JUMP JUMPDEST PUSH1 0x0 PUSH1 0x40 DUP3 ADD SWAP1 POP PUSH2 0x311 PUSH1 0x0 DUP4 ADD DUP5 PUSH2 0x1E8 JUMP JUMPDEST DUP2 DUP2 SUB PUSH1 0x20 DUP4 ADD MSTORE PUSH2 0x322 DUP2 PUSH2 0x231 JUMP JUMPDEST SWAP1 POP SWAP3 SWAP2 POP POP JUMP INVALID LOG2 PUSH5 0x6970667358 0x22 SLT KECCAK256 0xD PUSH5 0x4CD561938A CALLVALUE SMOD CALLER 0xA9 SWAP16 CODESIZE PUSH4 0x9B68CDB7 SLT STOP SWAP5 DUP12 0xB7 0xF7 SWAP2 SWAP7 XOR MSTORE PUSH26 0xBCEA7D64736F6C634300080D0033000000000000000000000000 "
				},
				"gasEstimates": {
					"creation": {
						"codeDepositCost": "172800",
						"executionCost": "214",
						"totalCost": "173014"
					},
					"external": {
						"callLog1()": "2820",
						"callLog2()": "2754",
						"callLog3()": "2510"
					}
				},
				"methodIdentifiers": {
					"callLog1()": "ad29e43f",
					"callLog2()": "fc0c221b",
					"callLog3()": "e529c136"
				}
			},
			"storageLayout": {
				"storage": [],
				"types": null
			},
			"userdoc": {
				"kind": "user",
				"methods": {},
				"version": 1
			}
		}
	}
}