{
	"contracts/Day 5.sol": {
		"Day5": {
			"abi": [
				{
					"inputs": [
						{
							"internalType": "string",
							"name": "_add",
							"type": "string"
						}
					],
					"name": "addToEnd",
					"outputs": [],
					"stateMutability": "nonpayable",
					"type": "function"
				},
				{
					"inputs": [
						{
							"internalType": "uint256",
							"name": "loops",
							"type": "uint256"
						}
					],
					"name": "addTogether",
					"outputs": [
						{
							"internalType": "uint256",
							"name": "",
							"type": "uint256"
						}
					],
					"stateMutability": "pure",
					"type": "function"
				},
				{
					"inputs": [
						{
							"internalType": "uint256",
							"name": "",
							"type": "uint256"
						}
					],
					"name": "alphabet",
					"outputs": [
						{
							"internalType": "string",
							"name": "",
							"type": "string"
						}
					],
					"stateMutability": "view",
					"type": "function"
				},
				{
					"inputs": [
						{
							"internalType": "uint256",
							"name": "cycles",
							"type": "uint256"
						}
					],
					"name": "funLoops",
					"outputs": [
						{
							"internalType": "uint256",
							"name": "",
							"type": "uint256"
						}
					],
					"stateMutability": "pure",
					"type": "function"
				},
				{
					"inputs": [],
					"name": "getLength",
					"outputs": [
						{
							"internalType": "uint256",
							"name": "",
							"type": "uint256"
						}
					],
					"stateMutability": "view",
					"type": "function"
				},
				{
					"inputs": [
						{
							"internalType": "uint256",
							"name": "",
							"type": "uint256"
						}
					],
					"name": "isOverTen",
					"outputs": [
						{
							"internalType": "bool",
							"name": "",
							"type": "bool"
						}
					],
					"stateMutability": "view",
					"type": "function"
				},
				{
					"inputs": [
						{
							"internalType": "int256",
							"name": "_number",
							"type": "int256"
						}
					],
					"name": "overTen",
					"outputs": [],
					"stateMutability": "nonpayable",
					"type": "function"
				},
				{
					"inputs": [
						{
							"internalType": "int256",
							"name": "_number",
							"type": "int256"
						}
					],
					"name": "overTenShort",
					"outputs": [],
					"stateMutability": "nonpayable",
					"type": "function"
				},
				{
					"inputs": [],
					"name": "removeTheEnd",
					"outputs": [],
					"stateMutability": "nonpayable",
					"type": "function"
				}
			],
			"devdoc": {
				"kind": "dev",
				"methods": {},
				"version": 1
			},
			"evm": {
				"assembly": "    /* \"contracts/Day 5.sol\":61:1310  contract Day5 {... */\n  mstore(0x40, 0x80)\n    /* \"contracts/Day 5.sol\":84:126  string[] public alphabet = [\"A\", \"B\", \"C\"] */\n  mload(0x40)\n  dup1\n  0x60\n  add\n  0x40\n  mstore\n  dup1\n  mload(0x40)\n  dup1\n  0x40\n  add\n  0x40\n  mstore\n  dup1\n  0x01\n  dup2\n  mstore\n  0x20\n  add\n  0x4100000000000000000000000000000000000000000000000000000000000000\n  dup2\n  mstore\n  pop\n  dup2\n  mstore\n  0x20\n  add\n  mload(0x40)\n  dup1\n  0x40\n  add\n  0x40\n  mstore\n  dup1\n  0x01\n  dup2\n  mstore\n  0x20\n  add\n  0x4200000000000000000000000000000000000000000000000000000000000000\n  dup2\n  mstore\n  pop\n  dup2\n  mstore\n  0x20\n  add\n  mload(0x40)\n  dup1\n  0x40\n  add\n  0x40\n  mstore\n  dup1\n  0x01\n  dup2\n  mstore\n  0x20\n  add\n  0x4300000000000000000000000000000000000000000000000000000000000000\n  dup2\n  mstore\n  pop\n  dup2\n  mstore\n  pop\n  0x00\n  swap1\n  0x03\n  tag_1\n  swap3\n  swap2\n  swap1\n  tag_2\n  jump\t// in\ntag_1:\n  pop\n    /* \"contracts/Day 5.sol\":61:1310  contract Day5 {... */\n  callvalue\n  dup1\n  iszero\n  tag_3\n  jumpi\n  0x00\n  dup1\n  revert\ntag_3:\n  pop\n  jump(tag_4)\ntag_2:\n  dup3\n  dup1\n  sload\n  dup3\n  dup3\n  sstore\n  swap1\n  0x00\n  mstore\n  keccak256(0x00, 0x20)\n  swap1\n  dup2\n  add\n  swap3\n  dup3\n  iszero\n  tag_5\n  jumpi\n  swap2\n  0x20\n  mul\n  dup3\n  add\ntag_6:\n  dup3\n  dup2\n  gt\n  iszero\n  tag_7\n  jumpi\n  dup3\n  mload\n  dup3\n  swap1\n  dup1\n  mload\n  swap1\n  0x20\n  add\n  swap1\n  tag_8\n  swap3\n  swap2\n  swap1\n  tag_9\n  jump\t// in\ntag_8:\n  pop\n  swap2\n  0x20\n  add\n  swap2\n  swap1\n  0x01\n  add\n  swap1\n  jump(tag_6)\ntag_7:\ntag_5:\n  pop\n  swap1\n  pop\n  tag_10\n  swap2\n  swap1\n  tag_11\n  jump\t// in\ntag_10:\n  pop\n  swap1\n  jump\t// out\ntag_9:\n  dup3\n  dup1\n  sload\n  tag_12\n  swap1\n  tag_13\n  jump\t// in\ntag_12:\n  swap1\n  0x00\n  mstore\n  keccak256(0x00, 0x20)\n  swap1\n  0x1f\n  add\n  0x20\n  swap1\n  div\n  dup2\n  add\n  swap3\n  dup3\n  tag_15\n  jumpi\n  0x00\n  dup6\n  sstore\n  jump(tag_14)\ntag_15:\n  dup3\n  0x1f\n  lt\n  tag_16\n  jumpi\n  dup1\n  mload\n  not(0xff)\n  and\n  dup4\n  dup1\n  add\n  or\n  dup6\n  sstore\n  jump(tag_14)\ntag_16:\n  dup3\n  dup1\n  add\n  0x01\n  add\n  dup6\n  sstore\n  dup3\n  iszero\n  tag_14\n  jumpi\n  swap2\n  dup3\n  add\ntag_17:\n  dup3\n  dup2\n  gt\n  iszero\n  tag_18\n  jumpi\n  dup3\n  mload\n  dup3\n  sstore\n  swap2\n  0x20\n  add\n  swap2\n  swap1\n  0x01\n  add\n  swap1\n  jump(tag_17)\ntag_18:\ntag_14:\n  pop\n  swap1\n  pop\n  tag_19\n  swap2\n  swap1\n  tag_20\n  jump\t// in\ntag_19:\n  pop\n  swap1\n  jump\t// out\ntag_11:\ntag_21:\n  dup1\n  dup3\n  gt\n  iszero\n  tag_22\n  jumpi\n  0x00\n  dup2\n  dup2\n  tag_23\n  swap2\n  swap1\n  tag_24\n  jump\t// in\ntag_23:\n  pop\n  0x01\n  add\n  jump(tag_21)\ntag_22:\n  pop\n  swap1\n  jump\t// out\ntag_20:\ntag_25:\n  dup1\n  dup3\n  gt\n  iszero\n  tag_26\n  jumpi\n  0x00\n  dup2\n  0x00\n  swap1\n  sstore\n  pop\n  0x01\n  add\n  jump(tag_25)\ntag_26:\n  pop\n  swap1\n  jump\t// out\ntag_24:\n  pop\n  dup1\n  sload\n  tag_27\n  swap1\n  tag_13\n  jump\t// in\ntag_27:\n  0x00\n  dup3\n  sstore\n  dup1\n  0x1f\n  lt\n  tag_29\n  jumpi\n  pop\n  jump(tag_28)\ntag_29:\n  0x1f\n  add\n  0x20\n  swap1\n  div\n  swap1\n  0x00\n  mstore\n  keccak256(0x00, 0x20)\n  swap1\n  dup2\n  add\n  swap1\n  tag_30\n  swap2\n  swap1\n  tag_20\n  jump\t// in\ntag_30:\ntag_28:\n  pop\n  jump\t// out\n    /* \"#utility.yul\":7:187   */\ntag_31:\n    /* \"#utility.yul\":55:132   */\n  0x4e487b7100000000000000000000000000000000000000000000000000000000\n    /* \"#utility.yul\":52:53   */\n  0x00\n    /* \"#utility.yul\":45:133   */\n  mstore\n    /* \"#utility.yul\":152:156   */\n  0x22\n    /* \"#utility.yul\":149:150   */\n  0x04\n    /* \"#utility.yul\":142:157   */\n  mstore\n    /* \"#utility.yul\":176:180   */\n  0x24\n    /* \"#utility.yul\":173:174   */\n  0x00\n    /* \"#utility.yul\":166:181   */\n  revert\n    /* \"#utility.yul\":193:513   */\ntag_13:\n    /* \"#utility.yul\":237:243   */\n  0x00\n    /* \"#utility.yul\":274:275   */\n  0x02\n    /* \"#utility.yul\":268:272   */\n  dup3\n    /* \"#utility.yul\":264:276   */\n  div\n    /* \"#utility.yul\":254:276   */\n  swap1\n  pop\n    /* \"#utility.yul\":321:322   */\n  0x01\n    /* \"#utility.yul\":315:319   */\n  dup3\n    /* \"#utility.yul\":311:323   */\n  and\n    /* \"#utility.yul\":342:360   */\n  dup1\n    /* \"#utility.yul\":332:413   */\n  tag_35\n  jumpi\n    /* \"#utility.yul\":398:402   */\n  0x7f\n    /* \"#utility.yul\":390:396   */\n  dup3\n    /* \"#utility.yul\":386:403   */\n  and\n    /* \"#utility.yul\":376:403   */\n  swap2\n  pop\n    /* \"#utility.yul\":332:413   */\ntag_35:\n    /* \"#utility.yul\":460:462   */\n  0x20\n    /* \"#utility.yul\":452:458   */\n  dup3\n    /* \"#utility.yul\":449:463   */\n  lt\n    /* \"#utility.yul\":429:447   */\n  dup2\n    /* \"#utility.yul\":426:464   */\n  sub\n    /* \"#utility.yul\":423:507   */\n  tag_36\n  jumpi\n    /* \"#utility.yul\":479:497   */\n  tag_37\n  tag_31\n  jump\t// in\ntag_37:\n    /* \"#utility.yul\":423:507   */\ntag_36:\n    /* \"#utility.yul\":244:513   */\n  pop\n    /* \"#utility.yul\":193:513   */\n  swap2\n  swap1\n  pop\n  jump\t// out\n    /* \"contracts/Day 5.sol\":61:1310  contract Day5 {... */\ntag_4:\n  dataSize(sub_0)\n  dup1\n  dataOffset(sub_0)\n  0x00\n  codecopy\n  0x00\n  return\nstop\n\nsub_0: assembly {\n        /* \"contracts/Day 5.sol\":61:1310  contract Day5 {... */\n      mstore(0x40, 0x80)\n      callvalue\n      dup1\n      iszero\n      tag_1\n      jumpi\n      0x00\n      dup1\n      revert\n    tag_1:\n      pop\n      jumpi(tag_2, lt(calldatasize, 0x04))\n      shr(0xe0, calldataload(0x00))\n      dup1\n      0x9229b8a5\n      gt\n      tag_12\n      jumpi\n      dup1\n      0x9229b8a5\n      eq\n      tag_7\n      jumpi\n      dup1\n      0xa2e076eb\n      eq\n      tag_8\n      jumpi\n      dup1\n      0xbe1c766b\n      eq\n      tag_9\n      jumpi\n      dup1\n      0xcd681b87\n      eq\n      tag_10\n      jumpi\n      dup1\n      0xd6e4576e\n      eq\n      tag_11\n      jumpi\n      jump(tag_2)\n    tag_12:\n      dup1\n      0x17d7ff73\n      eq\n      tag_3\n      jumpi\n      dup1\n      0x298319d4\n      eq\n      tag_4\n      jumpi\n      dup1\n      0x41f1940a\n      eq\n      tag_5\n      jumpi\n      dup1\n      0x7b271e31\n      eq\n      tag_6\n      jumpi\n    tag_2:\n      0x00\n      dup1\n      revert\n        /* \"contracts/Day 5.sol\":228:292  function removeTheEnd() public {... */\n    tag_3:\n      tag_13\n      tag_14\n      jump\t// in\n    tag_13:\n      stop\n        /* \"contracts/Day 5.sol\":1105:1307  function addTogether(uint loops) public pure returns(uint) {... */\n    tag_4:\n      tag_15\n      0x04\n      dup1\n      calldatasize\n      sub\n      dup2\n      add\n      swap1\n      tag_16\n      swap2\n      swap1\n      tag_17\n      jump\t// in\n    tag_16:\n      tag_18\n      jump\t// in\n    tag_15:\n      mload(0x40)\n      tag_19\n      swap2\n      swap1\n      tag_20\n      jump\t// in\n    tag_19:\n      mload(0x40)\n      dup1\n      swap2\n      sub\n      swap1\n      return\n        /* \"contracts/Day 5.sol\":396:419  bool[] public isOverTen */\n    tag_5:\n      tag_21\n      0x04\n      dup1\n      calldatasize\n      sub\n      dup2\n      add\n      swap1\n      tag_22\n      swap2\n      swap1\n      tag_17\n      jump\t// in\n    tag_22:\n      tag_23\n      jump\t// in\n    tag_21:\n      mload(0x40)\n      tag_24\n      swap2\n      swap1\n      tag_25\n      jump\t// in\n    tag_24:\n      mload(0x40)\n      dup1\n      swap2\n      sub\n      swap1\n      return\n        /* \"contracts/Day 5.sol\":744:1097  function funLoops(uint cycles) public pure returns(uint) {... */\n    tag_6:\n      tag_26\n      0x04\n      dup1\n      calldatasize\n      sub\n      dup2\n      add\n      swap1\n      tag_27\n      swap2\n      swap1\n      tag_17\n      jump\t// in\n    tag_27:\n      tag_28\n      jump\t// in\n    tag_26:\n      mload(0x40)\n      tag_29\n      swap2\n      swap1\n      tag_20\n      jump\t// in\n    tag_29:\n      mload(0x40)\n      dup1\n      swap2\n      sub\n      swap1\n      return\n        /* \"contracts/Day 5.sol\":84:126  string[] public alphabet = [\"A\", \"B\", \"C\"] */\n    tag_7:\n      tag_30\n      0x04\n      dup1\n      calldatasize\n      sub\n      dup2\n      add\n      swap1\n      tag_31\n      swap2\n      swap1\n      tag_17\n      jump\t// in\n    tag_31:\n      tag_32\n      jump\t// in\n    tag_30:\n      mload(0x40)\n      tag_33\n      swap2\n      swap1\n      tag_34\n      jump\t// in\n    tag_33:\n      mload(0x40)\n      dup1\n      swap2\n      sub\n      swap1\n      return\n        /* \"contracts/Day 5.sol\":135:220  function addToEnd(string calldata _add) public {... */\n    tag_8:\n      tag_35\n      0x04\n      dup1\n      calldatasize\n      sub\n      dup2\n      add\n      swap1\n      tag_36\n      swap2\n      swap1\n      tag_37\n      jump\t// in\n    tag_36:\n      tag_38\n      jump\t// in\n    tag_35:\n      stop\n        /* \"contracts/Day 5.sol\":300:388  function getLength() public view returns(uint) {... */\n    tag_9:\n      tag_39\n      tag_40\n      jump\t// in\n    tag_39:\n      mload(0x40)\n      tag_41\n      swap2\n      swap1\n      tag_20\n      jump\t// in\n    tag_41:\n      mload(0x40)\n      dup1\n      swap2\n      sub\n      swap1\n      return\n        /* \"contracts/Day 5.sol\":616:736  function overTenShort(int _number) public {... */\n    tag_10:\n      tag_42\n      0x04\n      dup1\n      calldatasize\n      sub\n      dup2\n      add\n      swap1\n      tag_43\n      swap2\n      swap1\n      tag_44\n      jump\t// in\n    tag_43:\n      tag_45\n      jump\t// in\n    tag_42:\n      stop\n        /* \"contracts/Day 5.sol\":432:608  function overTen(int _number) public {... */\n    tag_11:\n      tag_46\n      0x04\n      dup1\n      calldatasize\n      sub\n      dup2\n      add\n      swap1\n      tag_47\n      swap2\n      swap1\n      tag_44\n      jump\t// in\n    tag_47:\n      tag_48\n      jump\t// in\n    tag_46:\n      stop\n        /* \"contracts/Day 5.sol\":228:292  function removeTheEnd() public {... */\n    tag_14:\n        /* \"contracts/Day 5.sol\":270:278  alphabet */\n      0x00\n        /* \"contracts/Day 5.sol\":270:284  alphabet.pop() */\n      dup1\n      sload\n      dup1\n      tag_50\n      jumpi\n      tag_51\n      tag_52\n      jump\t// in\n    tag_51:\n    tag_50:\n      0x01\n      swap1\n      sub\n      dup2\n      dup2\n      swap1\n      0x00\n      mstore\n      keccak256(0x00, 0x20)\n      add\n      0x00\n      tag_54\n      swap2\n      swap1\n      tag_55\n      jump\t// in\n    tag_54:\n      swap1\n      sstore\n        /* \"contracts/Day 5.sol\":228:292  function removeTheEnd() public {... */\n      jump\t// out\n        /* \"contracts/Day 5.sol\":1105:1307  function addTogether(uint loops) public pure returns(uint) {... */\n    tag_18:\n        /* \"contracts/Day 5.sol\":1158:1162  uint */\n      0x00\n        /* \"contracts/Day 5.sol\":1177:1187  uint total */\n      dup1\n        /* \"contracts/Day 5.sol\":1190:1191  0 */\n      0x00\n        /* \"contracts/Day 5.sol\":1177:1191  uint total = 0 */\n      swap1\n      pop\n        /* \"contracts/Day 5.sol\":1208:1214  uint i */\n      0x00\n        /* \"contracts/Day 5.sol\":1204:1273  for(uint i = 0; i < loops; i++) {... */\n    tag_57:\n        /* \"contracts/Day 5.sol\":1224:1229  loops */\n      dup4\n        /* \"contracts/Day 5.sol\":1220:1221  i */\n      dup2\n        /* \"contracts/Day 5.sol\":1220:1229  i < loops */\n      lt\n        /* \"contracts/Day 5.sol\":1204:1273  for(uint i = 0; i < loops; i++) {... */\n      iszero\n      tag_58\n      jumpi\n        /* \"contracts/Day 5.sol\":1260:1261  i */\n      dup1\n        /* \"contracts/Day 5.sol\":1251:1261  total += i */\n      dup3\n      tag_60\n      swap2\n      swap1\n      tag_61\n      jump\t// in\n    tag_60:\n      swap2\n      pop\n        /* \"contracts/Day 5.sol\":1231:1234  i++ */\n      dup1\n      dup1\n      tag_62\n      swap1\n      tag_63\n      jump\t// in\n    tag_62:\n      swap2\n      pop\n      pop\n        /* \"contracts/Day 5.sol\":1204:1273  for(uint i = 0; i < loops; i++) {... */\n      jump(tag_57)\n    tag_58:\n      pop\n        /* \"contracts/Day 5.sol\":1292:1297  total */\n      dup1\n        /* \"contracts/Day 5.sol\":1285:1297  return total */\n      swap2\n      pop\n      pop\n        /* \"contracts/Day 5.sol\":1105:1307  function addTogether(uint loops) public pure returns(uint) {... */\n      swap2\n      swap1\n      pop\n      jump\t// out\n        /* \"contracts/Day 5.sol\":396:419  bool[] public isOverTen */\n    tag_23:\n      0x01\n      dup2\n      dup2\n      sload\n      dup2\n      lt\n      tag_64\n      jumpi\n      0x00\n      dup1\n      revert\n    tag_64:\n      swap1\n      0x00\n      mstore\n      keccak256(0x00, 0x20)\n      swap1\n      0x20\n      swap2\n      dup3\n      dup3\n      div\n      add\n      swap2\n      swap1\n      mod\n      swap2\n      pop\n      sload\n      swap1\n      0x0100\n      exp\n      swap1\n      div\n      0xff\n      and\n      dup2\n      jump\t// out\n        /* \"contracts/Day 5.sol\":744:1097  function funLoops(uint cycles) public pure returns(uint) {... */\n    tag_28:\n        /* \"contracts/Day 5.sol\":795:799  uint */\n      0x00\n        /* \"contracts/Day 5.sol\":814:824  uint count */\n      dup1\n        /* \"contracts/Day 5.sol\":827:828  0 */\n      0x00\n        /* \"contracts/Day 5.sol\":814:828  uint count = 0 */\n      swap1\n      pop\n        /* \"contracts/Day 5.sol\":845:851  uint i */\n      0x00\n        /* \"contracts/Day 5.sol\":841:1065  for(uint i = 0; i < cycles; i++) {... */\n    tag_67:\n        /* \"contracts/Day 5.sol\":861:867  cycles */\n      dup4\n        /* \"contracts/Day 5.sol\":857:858  i */\n      dup2\n        /* \"contracts/Day 5.sol\":857:867  i < cycles */\n      lt\n        /* \"contracts/Day 5.sol\":841:1065  for(uint i = 0; i < cycles; i++) {... */\n      iszero\n      tag_68\n      jumpi\n        /* \"contracts/Day 5.sol\":912:913  5 */\n      0x05\n        /* \"contracts/Day 5.sol\":907:908  i */\n      dup2\n        /* \"contracts/Day 5.sol\":907:913  i == 5 */\n      sub\n        /* \"contracts/Day 5.sol\":903:958  if (i == 5) {... */\n      iszero\n        /* \"contracts/Day 5.sol\":934:942  continue */\n      tag_69\n        /* \"contracts/Day 5.sol\":903:958  if (i == 5) {... */\n      jumpi\n        /* \"contracts/Day 5.sol\":983:984  7 */\n      0x07\n        /* \"contracts/Day 5.sol\":978:979  i */\n      dup2\n        /* \"contracts/Day 5.sol\":978:984  i == 7 */\n      sub\n        /* \"contracts/Day 5.sol\":974:1026  if (i == 7) {... */\n      iszero\n        /* \"contracts/Day 5.sol\":1005:1010  break */\n      tag_68\n        /* \"contracts/Day 5.sol\":974:1026  if (i == 7) {... */\n      jumpi\n        /* \"contracts/Day 5.sol\":1050:1051  i */\n      dup1\n        /* \"contracts/Day 5.sol\":1042:1051  count = i */\n      swap2\n      pop\n        /* \"contracts/Day 5.sol\":841:1065  for(uint i = 0; i < cycles; i++) {... */\n    tag_69:\n        /* \"contracts/Day 5.sol\":869:872  i++ */\n      dup1\n      dup1\n      tag_72\n      swap1\n      tag_63\n      jump\t// in\n    tag_72:\n      swap2\n      pop\n      pop\n        /* \"contracts/Day 5.sol\":841:1065  for(uint i = 0; i < cycles; i++) {... */\n      jump(tag_67)\n    tag_68:\n      pop\n        /* \"contracts/Day 5.sol\":1082:1087  count */\n      dup1\n        /* \"contracts/Day 5.sol\":1075:1087  return count */\n      swap2\n      pop\n      pop\n        /* \"contracts/Day 5.sol\":744:1097  function funLoops(uint cycles) public pure returns(uint) {... */\n      swap2\n      swap1\n      pop\n      jump\t// out\n        /* \"contracts/Day 5.sol\":84:126  string[] public alphabet = [\"A\", \"B\", \"C\"] */\n    tag_32:\n      0x00\n      dup2\n      dup2\n      sload\n      dup2\n      lt\n      tag_73\n      jumpi\n      0x00\n      dup1\n      revert\n    tag_73:\n      swap1\n      0x00\n      mstore\n      keccak256(0x00, 0x20)\n      add\n      0x00\n      swap2\n      pop\n      swap1\n      pop\n      dup1\n      sload\n      tag_75\n      swap1\n      tag_76\n      jump\t// in\n    tag_75:\n      dup1\n      0x1f\n      add\n      0x20\n      dup1\n      swap2\n      div\n      mul\n      0x20\n      add\n      mload(0x40)\n      swap1\n      dup2\n      add\n      0x40\n      mstore\n      dup1\n      swap3\n      swap2\n      swap1\n      dup2\n      dup2\n      mstore\n      0x20\n      add\n      dup3\n      dup1\n      sload\n      tag_77\n      swap1\n      tag_76\n      jump\t// in\n    tag_77:\n      dup1\n      iszero\n      tag_78\n      jumpi\n      dup1\n      0x1f\n      lt\n      tag_79\n      jumpi\n      0x0100\n      dup1\n      dup4\n      sload\n      div\n      mul\n      dup4\n      mstore\n      swap2\n      0x20\n      add\n      swap2\n      jump(tag_78)\n    tag_79:\n      dup3\n      add\n      swap2\n      swap1\n      0x00\n      mstore\n      keccak256(0x00, 0x20)\n      swap1\n    tag_80:\n      dup2\n      sload\n      dup2\n      mstore\n      swap1\n      0x01\n      add\n      swap1\n      0x20\n      add\n      dup1\n      dup4\n      gt\n      tag_80\n      jumpi\n      dup3\n      swap1\n      sub\n      0x1f\n      and\n      dup3\n      add\n      swap2\n    tag_78:\n      pop\n      pop\n      pop\n      pop\n      pop\n      dup2\n      jump\t// out\n        /* \"contracts/Day 5.sol\":135:220  function addToEnd(string calldata _add) public {... */\n    tag_38:\n        /* \"contracts/Day 5.sol\":193:201  alphabet */\n      0x00\n        /* \"contracts/Day 5.sol\":207:211  _add */\n      dup3\n      dup3\n        /* \"contracts/Day 5.sol\":193:212  alphabet.push(_add) */\n      swap1\n      swap2\n      dup1\n      0x01\n      dup2\n      sload\n      add\n      dup1\n      dup3\n      sstore\n      dup1\n      swap2\n      pop\n      pop\n      0x01\n      swap1\n      sub\n      swap1\n      0x00\n      mstore\n      keccak256(0x00, 0x20)\n      add\n      0x00\n      swap1\n      swap2\n      swap3\n      swap1\n      swap2\n      swap3\n      swap1\n      swap2\n      swap3\n      swap1\n      swap2\n      swap3\n      pop\n      swap2\n      swap1\n      tag_83\n      swap3\n      swap2\n      swap1\n      tag_84\n      jump\t// in\n    tag_83:\n      pop\n        /* \"contracts/Day 5.sol\":135:220  function addToEnd(string calldata _add) public {... */\n      pop\n      pop\n      jump\t// out\n        /* \"contracts/Day 5.sol\":300:388  function getLength() public view returns(uint) {... */\n    tag_40:\n        /* \"contracts/Day 5.sol\":341:345  uint */\n      0x00\n        /* \"contracts/Day 5.sol\":364:372  alphabet */\n      dup1\n        /* \"contracts/Day 5.sol\":364:379  alphabet.length */\n      dup1\n      sload\n      swap1\n      pop\n        /* \"contracts/Day 5.sol\":357:380  return(alphabet.length) */\n      swap1\n      pop\n        /* \"contracts/Day 5.sol\":300:388  function getLength() public view returns(uint) {... */\n      swap1\n      jump\t// out\n        /* \"contracts/Day 5.sol\":616:736  function overTenShort(int _number) public {... */\n    tag_45:\n        /* \"contracts/Day 5.sol\":680:682  10 */\n      0x0a\n        /* \"contracts/Day 5.sol\":669:676  _number */\n      dup2\n        /* \"contracts/Day 5.sol\":669:682  _number >= 10 */\n      slt\n      iszero\n        /* \"contracts/Day 5.sol\":669:728  _number >= 10 ? isOverTen.push(true): isOverTen.push(false) */\n      tag_87\n      jumpi\n        /* \"contracts/Day 5.sol\":707:716  isOverTen */\n      0x01\n        /* \"contracts/Day 5.sol\":722:727  false */\n      0x00\n        /* \"contracts/Day 5.sol\":707:728  isOverTen.push(false) */\n      swap1\n      dup1\n      0x01\n      dup2\n      sload\n      add\n      dup1\n      dup3\n      sstore\n      dup1\n      swap2\n      pop\n      pop\n      0x01\n      swap1\n      sub\n      swap1\n      0x00\n      mstore\n      keccak256(0x00, 0x20)\n      swap1\n      0x20\n      swap2\n      dup3\n      dup3\n      div\n      add\n      swap2\n      swap1\n      mod\n      swap1\n      swap2\n      swap1\n      swap2\n      swap1\n      swap2\n      0x0100\n      exp\n      dup2\n      sload\n      dup2\n      0xff\n      mul\n      not\n      and\n      swap1\n      dup4\n      iszero\n      iszero\n      mul\n      or\n      swap1\n      sstore\n      pop\n        /* \"contracts/Day 5.sol\":669:728  _number >= 10 ? isOverTen.push(true): isOverTen.push(false) */\n      jump(tag_89)\n    tag_87:\n        /* \"contracts/Day 5.sol\":685:694  isOverTen */\n      0x01\n        /* \"contracts/Day 5.sol\":700:704  true */\n      dup1\n        /* \"contracts/Day 5.sol\":685:705  isOverTen.push(true) */\n      dup1\n      0x01\n      dup2\n      sload\n      add\n      dup1\n      dup3\n      sstore\n      dup1\n      swap2\n      pop\n      pop\n      0x01\n      swap1\n      sub\n      swap1\n      0x00\n      mstore\n      keccak256(0x00, 0x20)\n      swap1\n      0x20\n      swap2\n      dup3\n      dup3\n      div\n      add\n      swap2\n      swap1\n      mod\n      swap1\n      swap2\n      swap1\n      swap2\n      swap1\n      swap2\n      0x0100\n      exp\n      dup2\n      sload\n      dup2\n      0xff\n      mul\n      not\n      and\n      swap1\n      dup4\n      iszero\n      iszero\n      mul\n      or\n      swap1\n      sstore\n      pop\n        /* \"contracts/Day 5.sol\":669:728  _number >= 10 ? isOverTen.push(true): isOverTen.push(false) */\n    tag_89:\n        /* \"contracts/Day 5.sol\":616:736  function overTenShort(int _number) public {... */\n      pop\n      jump\t// out\n        /* \"contracts/Day 5.sol\":432:608  function overTen(int _number) public {... */\n    tag_48:\n        /* \"contracts/Day 5.sol\":496:498  10 */\n      0x0a\n        /* \"contracts/Day 5.sol\":485:492  _number */\n      dup2\n        /* \"contracts/Day 5.sol\":485:498  _number >= 10 */\n      slt\n        /* \"contracts/Day 5.sol\":482:601  if(_number >= 10) {... */\n      tag_92\n      jumpi\n        /* \"contracts/Day 5.sol\":515:524  isOverTen */\n      0x01\n        /* \"contracts/Day 5.sol\":530:534  true */\n      dup1\n        /* \"contracts/Day 5.sol\":515:535  isOverTen.push(true) */\n      dup1\n      0x01\n      dup2\n      sload\n      add\n      dup1\n      dup3\n      sstore\n      dup1\n      swap2\n      pop\n      pop\n      0x01\n      swap1\n      sub\n      swap1\n      0x00\n      mstore\n      keccak256(0x00, 0x20)\n      swap1\n      0x20\n      swap2\n      dup3\n      dup3\n      div\n      add\n      swap2\n      swap1\n      mod\n      swap1\n      swap2\n      swap1\n      swap2\n      swap1\n      swap2\n      0x0100\n      exp\n      dup2\n      sload\n      dup2\n      0xff\n      mul\n      not\n      and\n      swap1\n      dup4\n      iszero\n      iszero\n      mul\n      or\n      swap1\n      sstore\n      pop\n        /* \"contracts/Day 5.sol\":482:601  if(_number >= 10) {... */\n      jump(tag_94)\n    tag_92:\n        /* \"contracts/Day 5.sol\":568:577  isOverTen */\n      0x01\n        /* \"contracts/Day 5.sol\":583:588  false */\n      0x00\n        /* \"contracts/Day 5.sol\":568:589  isOverTen.push(false) */\n      swap1\n      dup1\n      0x01\n      dup2\n      sload\n      add\n      dup1\n      dup3\n      sstore\n      dup1\n      swap2\n      pop\n      pop\n      0x01\n      swap1\n      sub\n      swap1\n      0x00\n      mstore\n      keccak256(0x00, 0x20)\n      swap1\n      0x20\n      swap2\n      dup3\n      dup3\n      div\n      add\n      swap2\n      swap1\n      mod\n      swap1\n      swap2\n      swap1\n      swap2\n      swap1\n      swap2\n      0x0100\n      exp\n      dup2\n      sload\n      dup2\n      0xff\n      mul\n      not\n      and\n      swap1\n      dup4\n      iszero\n      iszero\n      mul\n      or\n      swap1\n      sstore\n      pop\n        /* \"contracts/Day 5.sol\":482:601  if(_number >= 10) {... */\n    tag_94:\n        /* \"contracts/Day 5.sol\":432:608  function overTen(int _number) public {... */\n      pop\n      jump\t// out\n    tag_55:\n      pop\n      dup1\n      sload\n      tag_96\n      swap1\n      tag_76\n      jump\t// in\n    tag_96:\n      0x00\n      dup3\n      sstore\n      dup1\n      0x1f\n      lt\n      tag_98\n      jumpi\n      pop\n      jump(tag_97)\n    tag_98:\n      0x1f\n      add\n      0x20\n      swap1\n      div\n      swap1\n      0x00\n      mstore\n      keccak256(0x00, 0x20)\n      swap1\n      dup2\n      add\n      swap1\n      tag_99\n      swap2\n      swap1\n      tag_100\n      jump\t// in\n    tag_99:\n    tag_97:\n      pop\n      jump\t// out\n    tag_84:\n      dup3\n      dup1\n      sload\n      tag_101\n      swap1\n      tag_76\n      jump\t// in\n    tag_101:\n      swap1\n      0x00\n      mstore\n      keccak256(0x00, 0x20)\n      swap1\n      0x1f\n      add\n      0x20\n      swap1\n      div\n      dup2\n      add\n      swap3\n      dup3\n      tag_103\n      jumpi\n      0x00\n      dup6\n      sstore\n      jump(tag_102)\n    tag_103:\n      dup3\n      0x1f\n      lt\n      tag_104\n      jumpi\n      dup1\n      calldataload\n      not(0xff)\n      and\n      dup4\n      dup1\n      add\n      or\n      dup6\n      sstore\n      jump(tag_102)\n    tag_104:\n      dup3\n      dup1\n      add\n      0x01\n      add\n      dup6\n      sstore\n      dup3\n      iszero\n      tag_102\n      jumpi\n      swap2\n      dup3\n      add\n    tag_105:\n      dup3\n      dup2\n      gt\n      iszero\n      tag_106\n      jumpi\n      dup3\n      calldataload\n      dup3\n      sstore\n      swap2\n      0x20\n      add\n      swap2\n      swap1\n      0x01\n      add\n      swap1\n      jump(tag_105)\n    tag_106:\n    tag_102:\n      pop\n      swap1\n      pop\n      tag_107\n      swap2\n      swap1\n      tag_100\n      jump\t// in\n    tag_107:\n      pop\n      swap1\n      jump\t// out\n    tag_100:\n    tag_108:\n      dup1\n      dup3\n      gt\n      iszero\n      tag_109\n      jumpi\n      0x00\n      dup2\n      0x00\n      swap1\n      sstore\n      pop\n      0x01\n      add\n      jump(tag_108)\n    tag_109:\n      pop\n      swap1\n      jump\t// out\n        /* \"#utility.yul\":88:205   */\n    tag_111:\n        /* \"#utility.yul\":197:198   */\n      0x00\n        /* \"#utility.yul\":194:195   */\n      dup1\n        /* \"#utility.yul\":187:199   */\n      revert\n        /* \"#utility.yul\":211:328   */\n    tag_112:\n        /* \"#utility.yul\":320:321   */\n      0x00\n        /* \"#utility.yul\":317:318   */\n      dup1\n        /* \"#utility.yul\":310:322   */\n      revert\n        /* \"#utility.yul\":334:411   */\n    tag_113:\n        /* \"#utility.yul\":371:378   */\n      0x00\n        /* \"#utility.yul\":400:405   */\n      dup2\n        /* \"#utility.yul\":389:405   */\n      swap1\n      pop\n        /* \"#utility.yul\":334:411   */\n      swap2\n      swap1\n      pop\n      jump\t// out\n        /* \"#utility.yul\":417:539   */\n    tag_114:\n        /* \"#utility.yul\":490:514   */\n      tag_139\n        /* \"#utility.yul\":508:513   */\n      dup2\n        /* \"#utility.yul\":490:514   */\n      tag_113\n      jump\t// in\n    tag_139:\n        /* \"#utility.yul\":483:488   */\n      dup2\n        /* \"#utility.yul\":480:515   */\n      eq\n        /* \"#utility.yul\":470:533   */\n      tag_140\n      jumpi\n        /* \"#utility.yul\":529:530   */\n      0x00\n        /* \"#utility.yul\":526:527   */\n      dup1\n        /* \"#utility.yul\":519:531   */\n      revert\n        /* \"#utility.yul\":470:533   */\n    tag_140:\n        /* \"#utility.yul\":417:539   */\n      pop\n      jump\t// out\n        /* \"#utility.yul\":545:684   */\n    tag_115:\n        /* \"#utility.yul\":591:596   */\n      0x00\n        /* \"#utility.yul\":629:635   */\n      dup2\n        /* \"#utility.yul\":616:636   */\n      calldataload\n        /* \"#utility.yul\":607:636   */\n      swap1\n      pop\n        /* \"#utility.yul\":645:678   */\n      tag_142\n        /* \"#utility.yul\":672:677   */\n      dup2\n        /* \"#utility.yul\":645:678   */\n      tag_114\n      jump\t// in\n    tag_142:\n        /* \"#utility.yul\":545:684   */\n      swap3\n      swap2\n      pop\n      pop\n      jump\t// out\n        /* \"#utility.yul\":690:1019   */\n    tag_17:\n        /* \"#utility.yul\":749:755   */\n      0x00\n        /* \"#utility.yul\":798:800   */\n      0x20\n        /* \"#utility.yul\":786:795   */\n      dup3\n        /* \"#utility.yul\":777:784   */\n      dup5\n        /* \"#utility.yul\":773:796   */\n      sub\n        /* \"#utility.yul\":769:801   */\n      slt\n        /* \"#utility.yul\":766:885   */\n      iszero\n      tag_144\n      jumpi\n        /* \"#utility.yul\":804:883   */\n      tag_145\n      tag_111\n      jump\t// in\n    tag_145:\n        /* \"#utility.yul\":766:885   */\n    tag_144:\n        /* \"#utility.yul\":924:925   */\n      0x00\n        /* \"#utility.yul\":949:1002   */\n      tag_146\n        /* \"#utility.yul\":994:1001   */\n      dup5\n        /* \"#utility.yul\":985:991   */\n      dup3\n        /* \"#utility.yul\":974:983   */\n      dup6\n        /* \"#utility.yul\":970:992   */\n      add\n        /* \"#utility.yul\":949:1002   */\n      tag_115\n      jump\t// in\n    tag_146:\n        /* \"#utility.yul\":939:1002   */\n      swap2\n      pop\n        /* \"#utility.yul\":895:1012   */\n      pop\n        /* \"#utility.yul\":690:1019   */\n      swap3\n      swap2\n      pop\n      pop\n      jump\t// out\n        /* \"#utility.yul\":1025:1143   */\n    tag_116:\n        /* \"#utility.yul\":1112:1136   */\n      tag_148\n        /* \"#utility.yul\":1130:1135   */\n      dup2\n        /* \"#utility.yul\":1112:1136   */\n      tag_113\n      jump\t// in\n    tag_148:\n        /* \"#utility.yul\":1107:1110   */\n      dup3\n        /* \"#utility.yul\":1100:1137   */\n      mstore\n        /* \"#utility.yul\":1025:1143   */\n      pop\n      pop\n      jump\t// out\n        /* \"#utility.yul\":1149:1371   */\n    tag_20:\n        /* \"#utility.yul\":1242:1246   */\n      0x00\n        /* \"#utility.yul\":1280:1282   */\n      0x20\n        /* \"#utility.yul\":1269:1278   */\n      dup3\n        /* \"#utility.yul\":1265:1283   */\n      add\n        /* \"#utility.yul\":1257:1283   */\n      swap1\n      pop\n        /* \"#utility.yul\":1293:1364   */\n      tag_150\n        /* \"#utility.yul\":1361:1362   */\n      0x00\n        /* \"#utility.yul\":1350:1359   */\n      dup4\n        /* \"#utility.yul\":1346:1363   */\n      add\n        /* \"#utility.yul\":1337:1343   */\n      dup5\n        /* \"#utility.yul\":1293:1364   */\n      tag_116\n      jump\t// in\n    tag_150:\n        /* \"#utility.yul\":1149:1371   */\n      swap3\n      swap2\n      pop\n      pop\n      jump\t// out\n        /* \"#utility.yul\":1377:1467   */\n    tag_117:\n        /* \"#utility.yul\":1411:1418   */\n      0x00\n        /* \"#utility.yul\":1454:1459   */\n      dup2\n        /* \"#utility.yul\":1447:1460   */\n      iszero\n        /* \"#utility.yul\":1440:1461   */\n      iszero\n        /* \"#utility.yul\":1429:1461   */\n      swap1\n      pop\n        /* \"#utility.yul\":1377:1467   */\n      swap2\n      swap1\n      pop\n      jump\t// out\n        /* \"#utility.yul\":1473:1582   */\n    tag_118:\n        /* \"#utility.yul\":1554:1575   */\n      tag_153\n        /* \"#utility.yul\":1569:1574   */\n      dup2\n        /* \"#utility.yul\":1554:1575   */\n      tag_117\n      jump\t// in\n    tag_153:\n        /* \"#utility.yul\":1549:1552   */\n      dup3\n        /* \"#utility.yul\":1542:1576   */\n      mstore\n        /* \"#utility.yul\":1473:1582   */\n      pop\n      pop\n      jump\t// out\n        /* \"#utility.yul\":1588:1798   */\n    tag_25:\n        /* \"#utility.yul\":1675:1679   */\n      0x00\n        /* \"#utility.yul\":1713:1715   */\n      0x20\n        /* \"#utility.yul\":1702:1711   */\n      dup3\n        /* \"#utility.yul\":1698:1716   */\n      add\n        /* \"#utility.yul\":1690:1716   */\n      swap1\n      pop\n        /* \"#utility.yul\":1726:1791   */\n      tag_155\n        /* \"#utility.yul\":1788:1789   */\n      0x00\n        /* \"#utility.yul\":1777:1786   */\n      dup4\n        /* \"#utility.yul\":1773:1790   */\n      add\n        /* \"#utility.yul\":1764:1770   */\n      dup5\n        /* \"#utility.yul\":1726:1791   */\n      tag_118\n      jump\t// in\n    tag_155:\n        /* \"#utility.yul\":1588:1798   */\n      swap3\n      swap2\n      pop\n      pop\n      jump\t// out\n        /* \"#utility.yul\":1804:1903   */\n    tag_119:\n        /* \"#utility.yul\":1856:1862   */\n      0x00\n        /* \"#utility.yul\":1890:1895   */\n      dup2\n        /* \"#utility.yul\":1884:1896   */\n      mload\n        /* \"#utility.yul\":1874:1896   */\n      swap1\n      pop\n        /* \"#utility.yul\":1804:1903   */\n      swap2\n      swap1\n      pop\n      jump\t// out\n        /* \"#utility.yul\":1909:2078   */\n    tag_120:\n        /* \"#utility.yul\":1993:2004   */\n      0x00\n        /* \"#utility.yul\":2027:2033   */\n      dup3\n        /* \"#utility.yul\":2022:2025   */\n      dup3\n        /* \"#utility.yul\":2015:2034   */\n      mstore\n        /* \"#utility.yul\":2067:2071   */\n      0x20\n        /* \"#utility.yul\":2062:2065   */\n      dup3\n        /* \"#utility.yul\":2058:2072   */\n      add\n        /* \"#utility.yul\":2043:2072   */\n      swap1\n      pop\n        /* \"#utility.yul\":1909:2078   */\n      swap3\n      swap2\n      pop\n      pop\n      jump\t// out\n        /* \"#utility.yul\":2084:2391   */\n    tag_121:\n        /* \"#utility.yul\":2152:2153   */\n      0x00\n        /* \"#utility.yul\":2162:2275   */\n    tag_159:\n        /* \"#utility.yul\":2176:2182   */\n      dup4\n        /* \"#utility.yul\":2173:2174   */\n      dup2\n        /* \"#utility.yul\":2170:2183   */\n      lt\n        /* \"#utility.yul\":2162:2275   */\n      iszero\n      tag_161\n      jumpi\n        /* \"#utility.yul\":2261:2262   */\n      dup1\n        /* \"#utility.yul\":2256:2259   */\n      dup3\n        /* \"#utility.yul\":2252:2263   */\n      add\n        /* \"#utility.yul\":2246:2264   */\n      mload\n        /* \"#utility.yul\":2242:2243   */\n      dup2\n        /* \"#utility.yul\":2237:2240   */\n      dup5\n        /* \"#utility.yul\":2233:2244   */\n      add\n        /* \"#utility.yul\":2226:2265   */\n      mstore\n        /* \"#utility.yul\":2198:2200   */\n      0x20\n        /* \"#utility.yul\":2195:2196   */\n      dup2\n        /* \"#utility.yul\":2191:2201   */\n      add\n        /* \"#utility.yul\":2186:2201   */\n      swap1\n      pop\n        /* \"#utility.yul\":2162:2275   */\n      jump(tag_159)\n    tag_161:\n        /* \"#utility.yul\":2293:2299   */\n      dup4\n        /* \"#utility.yul\":2290:2291   */\n      dup2\n        /* \"#utility.yul\":2287:2300   */\n      gt\n        /* \"#utility.yul\":2284:2385   */\n      iszero\n      tag_162\n      jumpi\n        /* \"#utility.yul\":2373:2374   */\n      0x00\n        /* \"#utility.yul\":2364:2370   */\n      dup5\n        /* \"#utility.yul\":2359:2362   */\n      dup5\n        /* \"#utility.yul\":2355:2371   */\n      add\n        /* \"#utility.yul\":2348:2375   */\n      mstore\n        /* \"#utility.yul\":2284:2385   */\n    tag_162:\n        /* \"#utility.yul\":2133:2391   */\n      pop\n        /* \"#utility.yul\":2084:2391   */\n      pop\n      pop\n      pop\n      jump\t// out\n        /* \"#utility.yul\":2397:2499   */\n    tag_122:\n        /* \"#utility.yul\":2438:2444   */\n      0x00\n        /* \"#utility.yul\":2489:2491   */\n      0x1f\n        /* \"#utility.yul\":2485:2492   */\n      not\n        /* \"#utility.yul\":2480:2482   */\n      0x1f\n        /* \"#utility.yul\":2473:2478   */\n      dup4\n        /* \"#utility.yul\":2469:2483   */\n      add\n        /* \"#utility.yul\":2465:2493   */\n      and\n        /* \"#utility.yul\":2455:2493   */\n      swap1\n      pop\n        /* \"#utility.yul\":2397:2499   */\n      swap2\n      swap1\n      pop\n      jump\t// out\n        /* \"#utility.yul\":2505:2869   */\n    tag_123:\n        /* \"#utility.yul\":2593:2596   */\n      0x00\n        /* \"#utility.yul\":2621:2660   */\n      tag_165\n        /* \"#utility.yul\":2654:2659   */\n      dup3\n        /* \"#utility.yul\":2621:2660   */\n      tag_119\n      jump\t// in\n    tag_165:\n        /* \"#utility.yul\":2676:2747   */\n      tag_166\n        /* \"#utility.yul\":2740:2746   */\n      dup2\n        /* \"#utility.yul\":2735:2738   */\n      dup6\n        /* \"#utility.yul\":2676:2747   */\n      tag_120\n      jump\t// in\n    tag_166:\n        /* \"#utility.yul\":2669:2747   */\n      swap4\n      pop\n        /* \"#utility.yul\":2756:2808   */\n      tag_167\n        /* \"#utility.yul\":2801:2807   */\n      dup2\n        /* \"#utility.yul\":2796:2799   */\n      dup6\n        /* \"#utility.yul\":2789:2793   */\n      0x20\n        /* \"#utility.yul\":2782:2787   */\n      dup7\n        /* \"#utility.yul\":2778:2794   */\n      add\n        /* \"#utility.yul\":2756:2808   */\n      tag_121\n      jump\t// in\n    tag_167:\n        /* \"#utility.yul\":2833:2862   */\n      tag_168\n        /* \"#utility.yul\":2855:2861   */\n      dup2\n        /* \"#utility.yul\":2833:2862   */\n      tag_122\n      jump\t// in\n    tag_168:\n        /* \"#utility.yul\":2828:2831   */\n      dup5\n        /* \"#utility.yul\":2824:2863   */\n      add\n        /* \"#utility.yul\":2817:2863   */\n      swap2\n      pop\n        /* \"#utility.yul\":2597:2869   */\n      pop\n        /* \"#utility.yul\":2505:2869   */\n      swap3\n      swap2\n      pop\n      pop\n      jump\t// out\n        /* \"#utility.yul\":2875:3188   */\n    tag_34:\n        /* \"#utility.yul\":2988:2992   */\n      0x00\n        /* \"#utility.yul\":3026:3028   */\n      0x20\n        /* \"#utility.yul\":3015:3024   */\n      dup3\n        /* \"#utility.yul\":3011:3029   */\n      add\n        /* \"#utility.yul\":3003:3029   */\n      swap1\n      pop\n        /* \"#utility.yul\":3075:3084   */\n      dup2\n        /* \"#utility.yul\":3069:3073   */\n      dup2\n        /* \"#utility.yul\":3065:3085   */\n      sub\n        /* \"#utility.yul\":3061:3062   */\n      0x00\n        /* \"#utility.yul\":3050:3059   */\n      dup4\n        /* \"#utility.yul\":3046:3063   */\n      add\n        /* \"#utility.yul\":3039:3086   */\n      mstore\n        /* \"#utility.yul\":3103:3181   */\n      tag_170\n        /* \"#utility.yul\":3176:3180   */\n      dup2\n        /* \"#utility.yul\":3167:3173   */\n      dup5\n        /* \"#utility.yul\":3103:3181   */\n      tag_123\n      jump\t// in\n    tag_170:\n        /* \"#utility.yul\":3095:3181   */\n      swap1\n      pop\n        /* \"#utility.yul\":2875:3188   */\n      swap3\n      swap2\n      pop\n      pop\n      jump\t// out\n        /* \"#utility.yul\":3194:3311   */\n    tag_124:\n        /* \"#utility.yul\":3303:3304   */\n      0x00\n        /* \"#utility.yul\":3300:3301   */\n      dup1\n        /* \"#utility.yul\":3293:3305   */\n      revert\n        /* \"#utility.yul\":3317:3434   */\n    tag_125:\n        /* \"#utility.yul\":3426:3427   */\n      0x00\n        /* \"#utility.yul\":3423:3424   */\n      dup1\n        /* \"#utility.yul\":3416:3428   */\n      revert\n        /* \"#utility.yul\":3440:3557   */\n    tag_126:\n        /* \"#utility.yul\":3549:3550   */\n      0x00\n        /* \"#utility.yul\":3546:3547   */\n      dup1\n        /* \"#utility.yul\":3539:3551   */\n      revert\n        /* \"#utility.yul\":3577:4130   */\n    tag_127:\n        /* \"#utility.yul\":3635:3643   */\n      0x00\n        /* \"#utility.yul\":3645:3651   */\n      dup1\n        /* \"#utility.yul\":3695:3698   */\n      dup4\n        /* \"#utility.yul\":3688:3692   */\n      0x1f\n        /* \"#utility.yul\":3680:3686   */\n      dup5\n        /* \"#utility.yul\":3676:3693   */\n      add\n        /* \"#utility.yul\":3672:3699   */\n      slt\n        /* \"#utility.yul\":3662:3784   */\n      tag_175\n      jumpi\n        /* \"#utility.yul\":3703:3782   */\n      tag_176\n      tag_124\n      jump\t// in\n    tag_176:\n        /* \"#utility.yul\":3662:3784   */\n    tag_175:\n        /* \"#utility.yul\":3816:3822   */\n      dup3\n        /* \"#utility.yul\":3803:3823   */\n      calldataload\n        /* \"#utility.yul\":3793:3823   */\n      swap1\n      pop\n        /* \"#utility.yul\":3846:3864   */\n      0xffffffffffffffff\n        /* \"#utility.yul\":3838:3844   */\n      dup2\n        /* \"#utility.yul\":3835:3865   */\n      gt\n        /* \"#utility.yul\":3832:3949   */\n      iszero\n      tag_177\n      jumpi\n        /* \"#utility.yul\":3868:3947   */\n      tag_178\n      tag_125\n      jump\t// in\n    tag_178:\n        /* \"#utility.yul\":3832:3949   */\n    tag_177:\n        /* \"#utility.yul\":3982:3986   */\n      0x20\n        /* \"#utility.yul\":3974:3980   */\n      dup4\n        /* \"#utility.yul\":3970:3987   */\n      add\n        /* \"#utility.yul\":3958:3987   */\n      swap2\n      pop\n        /* \"#utility.yul\":4036:4039   */\n      dup4\n        /* \"#utility.yul\":4028:4032   */\n      0x01\n        /* \"#utility.yul\":4020:4026   */\n      dup3\n        /* \"#utility.yul\":4016:4033   */\n      mul\n        /* \"#utility.yul\":4006:4014   */\n      dup4\n        /* \"#utility.yul\":4002:4034   */\n      add\n        /* \"#utility.yul\":3999:4040   */\n      gt\n        /* \"#utility.yul\":3996:4124   */\n      iszero\n      tag_179\n      jumpi\n        /* \"#utility.yul\":4043:4122   */\n      tag_180\n      tag_126\n      jump\t// in\n    tag_180:\n        /* \"#utility.yul\":3996:4124   */\n    tag_179:\n        /* \"#utility.yul\":3577:4130   */\n      swap3\n      pop\n      swap3\n      swap1\n      pop\n      jump\t// out\n        /* \"#utility.yul\":4136:4665   */\n    tag_37:\n        /* \"#utility.yul\":4207:4213   */\n      0x00\n        /* \"#utility.yul\":4215:4221   */\n      dup1\n        /* \"#utility.yul\":4264:4266   */\n      0x20\n        /* \"#utility.yul\":4252:4261   */\n      dup4\n        /* \"#utility.yul\":4243:4250   */\n      dup6\n        /* \"#utility.yul\":4239:4262   */\n      sub\n        /* \"#utility.yul\":4235:4267   */\n      slt\n        /* \"#utility.yul\":4232:4351   */\n      iszero\n      tag_182\n      jumpi\n        /* \"#utility.yul\":4270:4349   */\n      tag_183\n      tag_111\n      jump\t// in\n    tag_183:\n        /* \"#utility.yul\":4232:4351   */\n    tag_182:\n        /* \"#utility.yul\":4418:4419   */\n      0x00\n        /* \"#utility.yul\":4407:4416   */\n      dup4\n        /* \"#utility.yul\":4403:4420   */\n      add\n        /* \"#utility.yul\":4390:4421   */\n      calldataload\n        /* \"#utility.yul\":4448:4466   */\n      0xffffffffffffffff\n        /* \"#utility.yul\":4440:4446   */\n      dup2\n        /* \"#utility.yul\":4437:4467   */\n      gt\n        /* \"#utility.yul\":4434:4551   */\n      iszero\n      tag_184\n      jumpi\n        /* \"#utility.yul\":4470:4549   */\n      tag_185\n      tag_112\n      jump\t// in\n    tag_185:\n        /* \"#utility.yul\":4434:4551   */\n    tag_184:\n        /* \"#utility.yul\":4583:4648   */\n      tag_186\n        /* \"#utility.yul\":4640:4647   */\n      dup6\n        /* \"#utility.yul\":4631:4637   */\n      dup3\n        /* \"#utility.yul\":4620:4629   */\n      dup7\n        /* \"#utility.yul\":4616:4638   */\n      add\n        /* \"#utility.yul\":4583:4648   */\n      tag_127\n      jump\t// in\n    tag_186:\n        /* \"#utility.yul\":4565:4648   */\n      swap3\n      pop\n      swap3\n      pop\n        /* \"#utility.yul\":4361:4658   */\n      pop\n        /* \"#utility.yul\":4136:4665   */\n      swap3\n      pop\n      swap3\n      swap1\n      pop\n      jump\t// out\n        /* \"#utility.yul\":4671:4747   */\n    tag_128:\n        /* \"#utility.yul\":4707:4714   */\n      0x00\n        /* \"#utility.yul\":4736:4741   */\n      dup2\n        /* \"#utility.yul\":4725:4741   */\n      swap1\n      pop\n        /* \"#utility.yul\":4671:4747   */\n      swap2\n      swap1\n      pop\n      jump\t// out\n        /* \"#utility.yul\":4753:4873   */\n    tag_129:\n        /* \"#utility.yul\":4825:4848   */\n      tag_189\n        /* \"#utility.yul\":4842:4847   */\n      dup2\n        /* \"#utility.yul\":4825:4848   */\n      tag_128\n      jump\t// in\n    tag_189:\n        /* \"#utility.yul\":4818:4823   */\n      dup2\n        /* \"#utility.yul\":4815:4849   */\n      eq\n        /* \"#utility.yul\":4805:4867   */\n      tag_190\n      jumpi\n        /* \"#utility.yul\":4863:4864   */\n      0x00\n        /* \"#utility.yul\":4860:4861   */\n      dup1\n        /* \"#utility.yul\":4853:4865   */\n      revert\n        /* \"#utility.yul\":4805:4867   */\n    tag_190:\n        /* \"#utility.yul\":4753:4873   */\n      pop\n      jump\t// out\n        /* \"#utility.yul\":4879:5016   */\n    tag_130:\n        /* \"#utility.yul\":4924:4929   */\n      0x00\n        /* \"#utility.yul\":4962:4968   */\n      dup2\n        /* \"#utility.yul\":4949:4969   */\n      calldataload\n        /* \"#utility.yul\":4940:4969   */\n      swap1\n      pop\n        /* \"#utility.yul\":4978:5010   */\n      tag_192\n        /* \"#utility.yul\":5004:5009   */\n      dup2\n        /* \"#utility.yul\":4978:5010   */\n      tag_129\n      jump\t// in\n    tag_192:\n        /* \"#utility.yul\":4879:5016   */\n      swap3\n      swap2\n      pop\n      pop\n      jump\t// out\n        /* \"#utility.yul\":5022:5349   */\n    tag_44:\n        /* \"#utility.yul\":5080:5086   */\n      0x00\n        /* \"#utility.yul\":5129:5131   */\n      0x20\n        /* \"#utility.yul\":5117:5126   */\n      dup3\n        /* \"#utility.yul\":5108:5115   */\n      dup5\n        /* \"#utility.yul\":5104:5127   */\n      sub\n        /* \"#utility.yul\":5100:5132   */\n      slt\n        /* \"#utility.yul\":5097:5216   */\n      iszero\n      tag_194\n      jumpi\n        /* \"#utility.yul\":5135:5214   */\n      tag_195\n      tag_111\n      jump\t// in\n    tag_195:\n        /* \"#utility.yul\":5097:5216   */\n    tag_194:\n        /* \"#utility.yul\":5255:5256   */\n      0x00\n        /* \"#utility.yul\":5280:5332   */\n      tag_196\n        /* \"#utility.yul\":5324:5331   */\n      dup5\n        /* \"#utility.yul\":5315:5321   */\n      dup3\n        /* \"#utility.yul\":5304:5313   */\n      dup6\n        /* \"#utility.yul\":5300:5322   */\n      add\n        /* \"#utility.yul\":5280:5332   */\n      tag_130\n      jump\t// in\n    tag_196:\n        /* \"#utility.yul\":5270:5332   */\n      swap2\n      pop\n        /* \"#utility.yul\":5226:5342   */\n      pop\n        /* \"#utility.yul\":5022:5349   */\n      swap3\n      swap2\n      pop\n      pop\n      jump\t// out\n        /* \"#utility.yul\":5355:5535   */\n    tag_52:\n        /* \"#utility.yul\":5403:5480   */\n      0x4e487b7100000000000000000000000000000000000000000000000000000000\n        /* \"#utility.yul\":5400:5401   */\n      0x00\n        /* \"#utility.yul\":5393:5481   */\n      mstore\n        /* \"#utility.yul\":5500:5504   */\n      0x31\n        /* \"#utility.yul\":5497:5498   */\n      0x04\n        /* \"#utility.yul\":5490:5505   */\n      mstore\n        /* \"#utility.yul\":5524:5528   */\n      0x24\n        /* \"#utility.yul\":5521:5522   */\n      0x00\n        /* \"#utility.yul\":5514:5529   */\n      revert\n        /* \"#utility.yul\":5541:5721   */\n    tag_131:\n        /* \"#utility.yul\":5589:5666   */\n      0x4e487b7100000000000000000000000000000000000000000000000000000000\n        /* \"#utility.yul\":5586:5587   */\n      0x00\n        /* \"#utility.yul\":5579:5667   */\n      mstore\n        /* \"#utility.yul\":5686:5690   */\n      0x11\n        /* \"#utility.yul\":5683:5684   */\n      0x04\n        /* \"#utility.yul\":5676:5691   */\n      mstore\n        /* \"#utility.yul\":5710:5714   */\n      0x24\n        /* \"#utility.yul\":5707:5708   */\n      0x00\n        /* \"#utility.yul\":5700:5715   */\n      revert\n        /* \"#utility.yul\":5727:6032   */\n    tag_61:\n        /* \"#utility.yul\":5767:5770   */\n      0x00\n        /* \"#utility.yul\":5786:5806   */\n      tag_200\n        /* \"#utility.yul\":5804:5805   */\n      dup3\n        /* \"#utility.yul\":5786:5806   */\n      tag_113\n      jump\t// in\n    tag_200:\n        /* \"#utility.yul\":5781:5806   */\n      swap2\n      pop\n        /* \"#utility.yul\":5820:5840   */\n      tag_201\n        /* \"#utility.yul\":5838:5839   */\n      dup4\n        /* \"#utility.yul\":5820:5840   */\n      tag_113\n      jump\t// in\n    tag_201:\n        /* \"#utility.yul\":5815:5840   */\n      swap3\n      pop\n        /* \"#utility.yul\":5974:5975   */\n      dup3\n        /* \"#utility.yul\":5906:5972   */\n      0xffffffffffffffffffffffffffffffffffffffffffffffffffffffffffffffff\n        /* \"#utility.yul\":5902:5976   */\n      sub\n        /* \"#utility.yul\":5899:5900   */\n      dup3\n        /* \"#utility.yul\":5896:5977   */\n      gt\n        /* \"#utility.yul\":5893:6000   */\n      iszero\n      tag_202\n      jumpi\n        /* \"#utility.yul\":5980:5998   */\n      tag_203\n      tag_131\n      jump\t// in\n    tag_203:\n        /* \"#utility.yul\":5893:6000   */\n    tag_202:\n        /* \"#utility.yul\":6024:6025   */\n      dup3\n        /* \"#utility.yul\":6021:6022   */\n      dup3\n        /* \"#utility.yul\":6017:6026   */\n      add\n        /* \"#utility.yul\":6010:6026   */\n      swap1\n      pop\n        /* \"#utility.yul\":5727:6032   */\n      swap3\n      swap2\n      pop\n      pop\n      jump\t// out\n        /* \"#utility.yul\":6038:6271   */\n    tag_63:\n        /* \"#utility.yul\":6077:6080   */\n      0x00\n        /* \"#utility.yul\":6100:6124   */\n      tag_205\n        /* \"#utility.yul\":6118:6123   */\n      dup3\n        /* \"#utility.yul\":6100:6124   */\n      tag_113\n      jump\t// in\n    tag_205:\n        /* \"#utility.yul\":6091:6124   */\n      swap2\n      pop\n        /* \"#utility.yul\":6146:6212   */\n      0xffffffffffffffffffffffffffffffffffffffffffffffffffffffffffffffff\n        /* \"#utility.yul\":6139:6144   */\n      dup3\n        /* \"#utility.yul\":6136:6213   */\n      sub\n        /* \"#utility.yul\":6133:6236   */\n      tag_206\n      jumpi\n        /* \"#utility.yul\":6216:6234   */\n      tag_207\n      tag_131\n      jump\t// in\n    tag_207:\n        /* \"#utility.yul\":6133:6236   */\n    tag_206:\n        /* \"#utility.yul\":6263:6264   */\n      0x01\n        /* \"#utility.yul\":6256:6261   */\n      dup3\n        /* \"#utility.yul\":6252:6265   */\n      add\n        /* \"#utility.yul\":6245:6265   */\n      swap1\n      pop\n        /* \"#utility.yul\":6038:6271   */\n      swap2\n      swap1\n      pop\n      jump\t// out\n        /* \"#utility.yul\":6277:6457   */\n    tag_132:\n        /* \"#utility.yul\":6325:6402   */\n      0x4e487b7100000000000000000000000000000000000000000000000000000000\n        /* \"#utility.yul\":6322:6323   */\n      0x00\n        /* \"#utility.yul\":6315:6403   */\n      mstore\n        /* \"#utility.yul\":6422:6426   */\n      0x22\n        /* \"#utility.yul\":6419:6420   */\n      0x04\n        /* \"#utility.yul\":6412:6427   */\n      mstore\n        /* \"#utility.yul\":6446:6450   */\n      0x24\n        /* \"#utility.yul\":6443:6444   */\n      0x00\n        /* \"#utility.yul\":6436:6451   */\n      revert\n        /* \"#utility.yul\":6463:6783   */\n    tag_76:\n        /* \"#utility.yul\":6507:6513   */\n      0x00\n        /* \"#utility.yul\":6544:6545   */\n      0x02\n        /* \"#utility.yul\":6538:6542   */\n      dup3\n        /* \"#utility.yul\":6534:6546   */\n      div\n        /* \"#utility.yul\":6524:6546   */\n      swap1\n      pop\n        /* \"#utility.yul\":6591:6592   */\n      0x01\n        /* \"#utility.yul\":6585:6589   */\n      dup3\n        /* \"#utility.yul\":6581:6593   */\n      and\n        /* \"#utility.yul\":6612:6630   */\n      dup1\n        /* \"#utility.yul\":6602:6683   */\n      tag_210\n      jumpi\n        /* \"#utility.yul\":6668:6672   */\n      0x7f\n        /* \"#utility.yul\":6660:6666   */\n      dup3\n        /* \"#utility.yul\":6656:6673   */\n      and\n        /* \"#utility.yul\":6646:6673   */\n      swap2\n      pop\n        /* \"#utility.yul\":6602:6683   */\n    tag_210:\n        /* \"#utility.yul\":6730:6732   */\n      0x20\n        /* \"#utility.yul\":6722:6728   */\n      dup3\n        /* \"#utility.yul\":6719:6733   */\n      lt\n        /* \"#utility.yul\":6699:6717   */\n      dup2\n        /* \"#utility.yul\":6696:6734   */\n      sub\n        /* \"#utility.yul\":6693:6777   */\n      tag_211\n      jumpi\n        /* \"#utility.yul\":6749:6767   */\n      tag_212\n      tag_132\n      jump\t// in\n    tag_212:\n        /* \"#utility.yul\":6693:6777   */\n    tag_211:\n        /* \"#utility.yul\":6514:6783   */\n      pop\n        /* \"#utility.yul\":6463:6783   */\n      swap2\n      swap1\n      pop\n      jump\t// out\n\n    auxdata: 0xa264697066735822122038b4d039d6048498c28a85362804509c7781c305f0f3f283e47a34501d6ce0c164736f6c634300080d0033\n}\n",
				"bytecode": {
					"linkReferences": {},
					"object": "608060405260405180606001604052806040518060400160405280600181526020017f410000000000000000000000000000000000000000000000000000000000000081525081526020016040518060400160405280600181526020017f420000000000000000000000000000000000000000000000000000000000000081525081526020016040518060400160405280600181526020017f43000000000000000000000000000000000000000000000000000000000000008152508152506000906003620000d0929190620000e5565b50348015620000de57600080fd5b50620002ce565b82805482825590600052602060002090810192821562000139579160200282015b8281111562000138578251829080519060200190620001279291906200014c565b509160200191906001019062000106565b5b509050620001489190620001dd565b5090565b8280546200015a9062000299565b90600052602060002090601f0160209004810192826200017e5760008555620001ca565b82601f106200019957805160ff1916838001178555620001ca565b82800160010185558215620001ca579182015b82811115620001c9578251825591602001919060010190620001ac565b5b509050620001d9919062000205565b5090565b5b80821115620002015760008181620001f7919062000224565b50600101620001de565b5090565b5b808211156200022057600081600090555060010162000206565b5090565b508054620002329062000299565b6000825580601f1062000246575062000267565b601f01602090049060005260206000209081019062000266919062000205565b5b50565b7f4e487b7100000000000000000000000000000000000000000000000000000000600052602260045260246000fd5b60006002820490506001821680620002b257607f821691505b602082108103620002c857620002c76200026a565b5b50919050565b6109fb80620002de6000396000f3fe608060405234801561001057600080fd5b50600436106100935760003560e01c80639229b8a5116100665780639229b8a514610132578063a2e076eb14610162578063be1c766b1461017e578063cd681b871461019c578063d6e4576e146101b857610093565b806317d7ff7314610098578063298319d4146100a257806341f1940a146100d25780637b271e3114610102575b600080fd5b6100a06101d4565b005b6100bc60048036038101906100b7919061060c565b610206565b6040516100c99190610648565b60405180910390f35b6100ec60048036038101906100e7919061060c565b610243565b6040516100f9919061067e565b60405180910390f35b61011c6004803603810190610117919061060c565b610277565b6040516101299190610648565b60405180910390f35b61014c6004803603810190610147919061060c565b6102bc565b6040516101599190610732565b60405180910390f35b61017c600480360381019061017791906107b9565b610368565b005b6101866103aa565b6040516101939190610648565b60405180910390f35b6101b660048036038101906101b1919061083c565b6103b6565b005b6101d260048036038101906101cd919061083c565b610450565b005b60008054806101e6576101e5610869565b5b60019003818190600052602060002001600061020291906104e9565b9055565b6000806000905060005b8381101561023957808261022491906108c7565b915080806102319061091d565b915050610210565b5080915050919050565b6001818154811061025357600080fd5b9060005260206000209060209182820401919006915054906101000a900460ff1681565b6000806000905060005b838110156102b257600581031561029f5760078103156102b2578091505b80806102aa9061091d565b915050610281565b5080915050919050565b600081815481106102cc57600080fd5b9060005260206000200160009150905080546102e790610994565b80601f016020809104026020016040519081016040528092919081815260200182805461031390610994565b80156103605780601f1061033557610100808354040283529160200191610360565b820191906000526020600020905b81548152906001019060200180831161034357829003601f168201915b505050505081565b60008282909180600181540180825580915050600190039060005260206000200160009091929091929091929091925091906103a5929190610529565b505050565b60008080549050905090565b600a811215610409576001600090806001815401808255809150506001900390600052602060002090602091828204019190069091909190916101000a81548160ff02191690831515021790555061044d565b600180806001815401808255809150506001900390600052602060002090602091828204019190069091909190916101000a81548160ff0219169083151502179055505b50565b600a81126104a057600180806001815401808255809150506001900390600052602060002090602091828204019190069091909190916101000a81548160ff0219169083151502179055506104e6565b6001600090806001815401808255809150506001900390600052602060002090602091828204019190069091909190916101000a81548160ff0219169083151502179055505b50565b5080546104f590610994565b6000825580601f106105075750610526565b601f01602090049060005260206000209081019061052591906105af565b5b50565b82805461053590610994565b90600052602060002090601f016020900481019282610557576000855561059e565b82601f1061057057803560ff191683800117855561059e565b8280016001018555821561059e579182015b8281111561059d578235825591602001919060010190610582565b5b5090506105ab91906105af565b5090565b5b808211156105c85760008160009055506001016105b0565b5090565b600080fd5b600080fd5b6000819050919050565b6105e9816105d6565b81146105f457600080fd5b50565b600081359050610606816105e0565b92915050565b600060208284031215610622576106216105cc565b5b6000610630848285016105f7565b91505092915050565b610642816105d6565b82525050565b600060208201905061065d6000830184610639565b92915050565b60008115159050919050565b61067881610663565b82525050565b6000602082019050610693600083018461066f565b92915050565b600081519050919050565b600082825260208201905092915050565b60005b838110156106d35780820151818401526020810190506106b8565b838111156106e2576000848401525b50505050565b6000601f19601f8301169050919050565b600061070482610699565b61070e81856106a4565b935061071e8185602086016106b5565b610727816106e8565b840191505092915050565b6000602082019050818103600083015261074c81846106f9565b905092915050565b600080fd5b600080fd5b600080fd5b60008083601f84011261077957610778610754565b5b8235905067ffffffffffffffff81111561079657610795610759565b5b6020830191508360018202830111156107b2576107b161075e565b5b9250929050565b600080602083850312156107d0576107cf6105cc565b5b600083013567ffffffffffffffff8111156107ee576107ed6105d1565b5b6107fa85828601610763565b92509250509250929050565b6000819050919050565b61081981610806565b811461082457600080fd5b50565b60008135905061083681610810565b92915050565b600060208284031215610852576108516105cc565b5b600061086084828501610827565b91505092915050565b7f4e487b7100000000000000000000000000000000000000000000000000000000600052603160045260246000fd5b7f4e487b7100000000000000000000000000000000000000000000000000000000600052601160045260246000fd5b60006108d2826105d6565b91506108dd836105d6565b9250827fffffffffffffffffffffffffffffffffffffffffffffffffffffffffffffffff0382111561091257610911610898565b5b828201905092915050565b6000610928826105d6565b91507fffffffffffffffffffffffffffffffffffffffffffffffffffffffffffffffff820361095a57610959610898565b5b600182019050919050565b7f4e487b7100000000000000000000000000000000000000000000000000000000600052602260045260246000fd5b600060028204905060018216806109ac57607f821691505b6020821081036109bf576109be610965565b5b5091905056fea264697066735822122038b4d039d6048498c28a85362804509c7781c305f0f3f283e47a34501d6ce0c164736f6c634300080d0033",
					"opcodes": "PUSH1 0x80 PUSH1 0x40 MSTORE PUSH1 0x40 MLOAD DUP1 PUSH1 0x60 ADD PUSH1 0x40 MSTORE DUP1 PUSH1 0x40 MLOAD DUP1 PUSH1 0x40 ADD PUSH1 0x40 MSTORE DUP1 PUSH1 0x1 DUP2 MSTORE PUSH1 0x20 ADD PUSH32 0x4100000000000000000000000000000000000000000000000000000000000000 DUP2 MSTORE POP DUP2 MSTORE PUSH1 0x20 ADD PUSH1 0x40 MLOAD DUP1 PUSH1 0x40 ADD PUSH1 0x40 MSTORE DUP1 PUSH1 0x1 DUP2 MSTORE PUSH1 0x20 ADD PUSH32 0x4200000000000000000000000000000000000000000000000000000000000000 DUP2 MSTORE POP DUP2 MSTORE PUSH1 0x20 ADD PUSH1 0x40 MLOAD DUP1 PUSH1 0x40 ADD PUSH1 0x40 MSTORE DUP1 PUSH1 0x1 DUP2 MSTORE PUSH1 0x20 ADD PUSH32 0x4300000000000000000000000000000000000000000000000000000000000000 DUP2 MSTORE POP DUP2 MSTORE POP PUSH1 0x0 SWAP1 PUSH1 0x3 PUSH3 0xD0 SWAP3 SWAP2 SWAP1 PUSH3 0xE5 JUMP JUMPDEST POP CALLVALUE DUP1 ISZERO PUSH3 0xDE JUMPI PUSH1 0x0 DUP1 REVERT JUMPDEST POP PUSH3 0x2CE JUMP JUMPDEST DUP3 DUP1 SLOAD DUP3 DUP3 SSTORE SWAP1 PUSH1 0x0 MSTORE PUSH1 0x20 PUSH1 0x0 KECCAK256 SWAP1 DUP2 ADD SWAP3 DUP3 ISZERO PUSH3 0x139 JUMPI SWAP2 PUSH1 0x20 MUL DUP3 ADD JUMPDEST DUP3 DUP2 GT ISZERO PUSH3 0x138 JUMPI DUP3 MLOAD DUP3 SWAP1 DUP1 MLOAD SWAP1 PUSH1 0x20 ADD SWAP1 PUSH3 0x127 SWAP3 SWAP2 SWAP1 PUSH3 0x14C JUMP JUMPDEST POP SWAP2 PUSH1 0x20 ADD SWAP2 SWAP1 PUSH1 0x1 ADD SWAP1 PUSH3 0x106 JUMP JUMPDEST JUMPDEST POP SWAP1 POP PUSH3 0x148 SWAP2 SWAP1 PUSH3 0x1DD JUMP JUMPDEST POP SWAP1 JUMP JUMPDEST DUP3 DUP1 SLOAD PUSH3 0x15A SWAP1 PUSH3 0x299 JUMP JUMPDEST SWAP1 PUSH1 0x0 MSTORE PUSH1 0x20 PUSH1 0x0 KECCAK256 SWAP1 PUSH1 0x1F ADD PUSH1 0x20 SWAP1 DIV DUP2 ADD SWAP3 DUP3 PUSH3 0x17E JUMPI PUSH1 0x0 DUP6 SSTORE PUSH3 0x1CA JUMP JUMPDEST DUP3 PUSH1 0x1F LT PUSH3 0x199 JUMPI DUP1 MLOAD PUSH1 0xFF NOT AND DUP4 DUP1 ADD OR DUP6 SSTORE PUSH3 0x1CA JUMP JUMPDEST DUP3 DUP1 ADD PUSH1 0x1 ADD DUP6 SSTORE DUP3 ISZERO PUSH3 0x1CA JUMPI SWAP2 DUP3 ADD JUMPDEST DUP3 DUP2 GT ISZERO PUSH3 0x1C9 JUMPI DUP3 MLOAD DUP3 SSTORE SWAP2 PUSH1 0x20 ADD SWAP2 SWAP1 PUSH1 0x1 ADD SWAP1 PUSH3 0x1AC JUMP JUMPDEST JUMPDEST POP SWAP1 POP PUSH3 0x1D9 SWAP2 SWAP1 PUSH3 0x205 JUMP JUMPDEST POP SWAP1 JUMP JUMPDEST JUMPDEST DUP1 DUP3 GT ISZERO PUSH3 0x201 JUMPI PUSH1 0x0 DUP2 DUP2 PUSH3 0x1F7 SWAP2 SWAP1 PUSH3 0x224 JUMP JUMPDEST POP PUSH1 0x1 ADD PUSH3 0x1DE JUMP JUMPDEST POP SWAP1 JUMP JUMPDEST JUMPDEST DUP1 DUP3 GT ISZERO PUSH3 0x220 JUMPI PUSH1 0x0 DUP2 PUSH1 0x0 SWAP1 SSTORE POP PUSH1 0x1 ADD PUSH3 0x206 JUMP JUMPDEST POP SWAP1 JUMP JUMPDEST POP DUP1 SLOAD PUSH3 0x232 SWAP1 PUSH3 0x299 JUMP JUMPDEST PUSH1 0x0 DUP3 SSTORE DUP1 PUSH1 0x1F LT PUSH3 0x246 JUMPI POP PUSH3 0x267 JUMP JUMPDEST PUSH1 0x1F ADD PUSH1 0x20 SWAP1 DIV SWAP1 PUSH1 0x0 MSTORE PUSH1 0x20 PUSH1 0x0 KECCAK256 SWAP1 DUP2 ADD SWAP1 PUSH3 0x266 SWAP2 SWAP1 PUSH3 0x205 JUMP JUMPDEST JUMPDEST POP JUMP JUMPDEST PUSH32 0x4E487B7100000000000000000000000000000000000000000000000000000000 PUSH1 0x0 MSTORE PUSH1 0x22 PUSH1 0x4 MSTORE PUSH1 0x24 PUSH1 0x0 REVERT JUMPDEST PUSH1 0x0 PUSH1 0x2 DUP3 DIV SWAP1 POP PUSH1 0x1 DUP3 AND DUP1 PUSH3 0x2B2 JUMPI PUSH1 0x7F DUP3 AND SWAP2 POP JUMPDEST PUSH1 0x20 DUP3 LT DUP2 SUB PUSH3 0x2C8 JUMPI PUSH3 0x2C7 PUSH3 0x26A JUMP JUMPDEST JUMPDEST POP SWAP2 SWAP1 POP JUMP JUMPDEST PUSH2 0x9FB DUP1 PUSH3 0x2DE PUSH1 0x0 CODECOPY PUSH1 0x0 RETURN INVALID PUSH1 0x80 PUSH1 0x40 MSTORE CALLVALUE DUP1 ISZERO PUSH2 0x10 JUMPI PUSH1 0x0 DUP1 REVERT JUMPDEST POP PUSH1 0x4 CALLDATASIZE LT PUSH2 0x93 JUMPI PUSH1 0x0 CALLDATALOAD PUSH1 0xE0 SHR DUP1 PUSH4 0x9229B8A5 GT PUSH2 0x66 JUMPI DUP1 PUSH4 0x9229B8A5 EQ PUSH2 0x132 JUMPI DUP1 PUSH4 0xA2E076EB EQ PUSH2 0x162 JUMPI DUP1 PUSH4 0xBE1C766B EQ PUSH2 0x17E JUMPI DUP1 PUSH4 0xCD681B87 EQ PUSH2 0x19C JUMPI DUP1 PUSH4 0xD6E4576E EQ PUSH2 0x1B8 JUMPI PUSH2 0x93 JUMP JUMPDEST DUP1 PUSH4 0x17D7FF73 EQ PUSH2 0x98 JUMPI DUP1 PUSH4 0x298319D4 EQ PUSH2 0xA2 JUMPI DUP1 PUSH4 0x41F1940A EQ PUSH2 0xD2 JUMPI DUP1 PUSH4 0x7B271E31 EQ PUSH2 0x102 JUMPI JUMPDEST PUSH1 0x0 DUP1 REVERT JUMPDEST PUSH2 0xA0 PUSH2 0x1D4 JUMP JUMPDEST STOP JUMPDEST PUSH2 0xBC PUSH1 0x4 DUP1 CALLDATASIZE SUB DUP2 ADD SWAP1 PUSH2 0xB7 SWAP2 SWAP1 PUSH2 0x60C JUMP JUMPDEST PUSH2 0x206 JUMP JUMPDEST PUSH1 0x40 MLOAD PUSH2 0xC9 SWAP2 SWAP1 PUSH2 0x648 JUMP JUMPDEST PUSH1 0x40 MLOAD DUP1 SWAP2 SUB SWAP1 RETURN JUMPDEST PUSH2 0xEC PUSH1 0x4 DUP1 CALLDATASIZE SUB DUP2 ADD SWAP1 PUSH2 0xE7 SWAP2 SWAP1 PUSH2 0x60C JUMP JUMPDEST PUSH2 0x243 JUMP JUMPDEST PUSH1 0x40 MLOAD PUSH2 0xF9 SWAP2 SWAP1 PUSH2 0x67E JUMP JUMPDEST PUSH1 0x40 MLOAD DUP1 SWAP2 SUB SWAP1 RETURN JUMPDEST PUSH2 0x11C PUSH1 0x4 DUP1 CALLDATASIZE SUB DUP2 ADD SWAP1 PUSH2 0x117 SWAP2 SWAP1 PUSH2 0x60C JUMP JUMPDEST PUSH2 0x277 JUMP JUMPDEST PUSH1 0x40 MLOAD PUSH2 0x129 SWAP2 SWAP1 PUSH2 0x648 JUMP JUMPDEST PUSH1 0x40 MLOAD DUP1 SWAP2 SUB SWAP1 RETURN JUMPDEST PUSH2 0x14C PUSH1 0x4 DUP1 CALLDATASIZE SUB DUP2 ADD SWAP1 PUSH2 0x147 SWAP2 SWAP1 PUSH2 0x60C JUMP JUMPDEST PUSH2 0x2BC JUMP JUMPDEST PUSH1 0x40 MLOAD PUSH2 0x159 SWAP2 SWAP1 PUSH2 0x732 JUMP JUMPDEST PUSH1 0x40 MLOAD DUP1 SWAP2 SUB SWAP1 RETURN JUMPDEST PUSH2 0x17C PUSH1 0x4 DUP1 CALLDATASIZE SUB DUP2 ADD SWAP1 PUSH2 0x177 SWAP2 SWAP1 PUSH2 0x7B9 JUMP JUMPDEST PUSH2 0x368 JUMP JUMPDEST STOP JUMPDEST PUSH2 0x186 PUSH2 0x3AA JUMP JUMPDEST PUSH1 0x40 MLOAD PUSH2 0x193 SWAP2 SWAP1 PUSH2 0x648 JUMP JUMPDEST PUSH1 0x40 MLOAD DUP1 SWAP2 SUB SWAP1 RETURN JUMPDEST PUSH2 0x1B6 PUSH1 0x4 DUP1 CALLDATASIZE SUB DUP2 ADD SWAP1 PUSH2 0x1B1 SWAP2 SWAP1 PUSH2 0x83C JUMP JUMPDEST PUSH2 0x3B6 JUMP JUMPDEST STOP JUMPDEST PUSH2 0x1D2 PUSH1 0x4 DUP1 CALLDATASIZE SUB DUP2 ADD SWAP1 PUSH2 0x1CD SWAP2 SWAP1 PUSH2 0x83C JUMP JUMPDEST PUSH2 0x450 JUMP JUMPDEST STOP JUMPDEST PUSH1 0x0 DUP1 SLOAD DUP1 PUSH2 0x1E6 JUMPI PUSH2 0x1E5 PUSH2 0x869 JUMP JUMPDEST JUMPDEST PUSH1 0x1 SWAP1 SUB DUP2 DUP2 SWAP1 PUSH1 0x0 MSTORE PUSH1 0x20 PUSH1 0x0 KECCAK256 ADD PUSH1 0x0 PUSH2 0x202 SWAP2 SWAP1 PUSH2 0x4E9 JUMP JUMPDEST SWAP1 SSTORE JUMP JUMPDEST PUSH1 0x0 DUP1 PUSH1 0x0 SWAP1 POP PUSH1 0x0 JUMPDEST DUP4 DUP2 LT ISZERO PUSH2 0x239 JUMPI DUP1 DUP3 PUSH2 0x224 SWAP2 SWAP1 PUSH2 0x8C7 JUMP JUMPDEST SWAP2 POP DUP1 DUP1 PUSH2 0x231 SWAP1 PUSH2 0x91D JUMP JUMPDEST SWAP2 POP POP PUSH2 0x210 JUMP JUMPDEST POP DUP1 SWAP2 POP POP SWAP2 SWAP1 POP JUMP JUMPDEST PUSH1 0x1 DUP2 DUP2 SLOAD DUP2 LT PUSH2 0x253 JUMPI PUSH1 0x0 DUP1 REVERT JUMPDEST SWAP1 PUSH1 0x0 MSTORE PUSH1 0x20 PUSH1 0x0 KECCAK256 SWAP1 PUSH1 0x20 SWAP2 DUP3 DUP3 DIV ADD SWAP2 SWAP1 MOD SWAP2 POP SLOAD SWAP1 PUSH2 0x100 EXP SWAP1 DIV PUSH1 0xFF AND DUP2 JUMP JUMPDEST PUSH1 0x0 DUP1 PUSH1 0x0 SWAP1 POP PUSH1 0x0 JUMPDEST DUP4 DUP2 LT ISZERO PUSH2 0x2B2 JUMPI PUSH1 0x5 DUP2 SUB ISZERO PUSH2 0x29F JUMPI PUSH1 0x7 DUP2 SUB ISZERO PUSH2 0x2B2 JUMPI DUP1 SWAP2 POP JUMPDEST DUP1 DUP1 PUSH2 0x2AA SWAP1 PUSH2 0x91D JUMP JUMPDEST SWAP2 POP POP PUSH2 0x281 JUMP JUMPDEST POP DUP1 SWAP2 POP POP SWAP2 SWAP1 POP JUMP JUMPDEST PUSH1 0x0 DUP2 DUP2 SLOAD DUP2 LT PUSH2 0x2CC JUMPI PUSH1 0x0 DUP1 REVERT JUMPDEST SWAP1 PUSH1 0x0 MSTORE PUSH1 0x20 PUSH1 0x0 KECCAK256 ADD PUSH1 0x0 SWAP2 POP SWAP1 POP DUP1 SLOAD PUSH2 0x2E7 SWAP1 PUSH2 0x994 JUMP JUMPDEST DUP1 PUSH1 0x1F ADD PUSH1 0x20 DUP1 SWAP2 DIV MUL PUSH1 0x20 ADD PUSH1 0x40 MLOAD SWAP1 DUP2 ADD PUSH1 0x40 MSTORE DUP1 SWAP3 SWAP2 SWAP1 DUP2 DUP2 MSTORE PUSH1 0x20 ADD DUP3 DUP1 SLOAD PUSH2 0x313 SWAP1 PUSH2 0x994 JUMP JUMPDEST DUP1 ISZERO PUSH2 0x360 JUMPI DUP1 PUSH1 0x1F LT PUSH2 0x335 JUMPI PUSH2 0x100 DUP1 DUP4 SLOAD DIV MUL DUP4 MSTORE SWAP2 PUSH1 0x20 ADD SWAP2 PUSH2 0x360 JUMP JUMPDEST DUP3 ADD SWAP2 SWAP1 PUSH1 0x0 MSTORE PUSH1 0x20 PUSH1 0x0 KECCAK256 SWAP1 JUMPDEST DUP2 SLOAD DUP2 MSTORE SWAP1 PUSH1 0x1 ADD SWAP1 PUSH1 0x20 ADD DUP1 DUP4 GT PUSH2 0x343 JUMPI DUP3 SWAP1 SUB PUSH1 0x1F AND DUP3 ADD SWAP2 JUMPDEST POP POP POP POP POP DUP2 JUMP JUMPDEST PUSH1 0x0 DUP3 DUP3 SWAP1 SWAP2 DUP1 PUSH1 0x1 DUP2 SLOAD ADD DUP1 DUP3 SSTORE DUP1 SWAP2 POP POP PUSH1 0x1 SWAP1 SUB SWAP1 PUSH1 0x0 MSTORE PUSH1 0x20 PUSH1 0x0 KECCAK256 ADD PUSH1 0x0 SWAP1 SWAP2 SWAP3 SWAP1 SWAP2 SWAP3 SWAP1 SWAP2 SWAP3 SWAP1 SWAP2 SWAP3 POP SWAP2 SWAP1 PUSH2 0x3A5 SWAP3 SWAP2 SWAP1 PUSH2 0x529 JUMP JUMPDEST POP POP POP JUMP JUMPDEST PUSH1 0x0 DUP1 DUP1 SLOAD SWAP1 POP SWAP1 POP SWAP1 JUMP JUMPDEST PUSH1 0xA DUP2 SLT ISZERO PUSH2 0x409 JUMPI PUSH1 0x1 PUSH1 0x0 SWAP1 DUP1 PUSH1 0x1 DUP2 SLOAD ADD DUP1 DUP3 SSTORE DUP1 SWAP2 POP POP PUSH1 0x1 SWAP1 SUB SWAP1 PUSH1 0x0 MSTORE PUSH1 0x20 PUSH1 0x0 KECCAK256 SWAP1 PUSH1 0x20 SWAP2 DUP3 DUP3 DIV ADD SWAP2 SWAP1 MOD SWAP1 SWAP2 SWAP1 SWAP2 SWAP1 SWAP2 PUSH2 0x100 EXP DUP2 SLOAD DUP2 PUSH1 0xFF MUL NOT AND SWAP1 DUP4 ISZERO ISZERO MUL OR SWAP1 SSTORE POP PUSH2 0x44D JUMP JUMPDEST PUSH1 0x1 DUP1 DUP1 PUSH1 0x1 DUP2 SLOAD ADD DUP1 DUP3 SSTORE DUP1 SWAP2 POP POP PUSH1 0x1 SWAP1 SUB SWAP1 PUSH1 0x0 MSTORE PUSH1 0x20 PUSH1 0x0 KECCAK256 SWAP1 PUSH1 0x20 SWAP2 DUP3 DUP3 DIV ADD SWAP2 SWAP1 MOD SWAP1 SWAP2 SWAP1 SWAP2 SWAP1 SWAP2 PUSH2 0x100 EXP DUP2 SLOAD DUP2 PUSH1 0xFF MUL NOT AND SWAP1 DUP4 ISZERO ISZERO MUL OR SWAP1 SSTORE POP JUMPDEST POP JUMP JUMPDEST PUSH1 0xA DUP2 SLT PUSH2 0x4A0 JUMPI PUSH1 0x1 DUP1 DUP1 PUSH1 0x1 DUP2 SLOAD ADD DUP1 DUP3 SSTORE DUP1 SWAP2 POP POP PUSH1 0x1 SWAP1 SUB SWAP1 PUSH1 0x0 MSTORE PUSH1 0x20 PUSH1 0x0 KECCAK256 SWAP1 PUSH1 0x20 SWAP2 DUP3 DUP3 DIV ADD SWAP2 SWAP1 MOD SWAP1 SWAP2 SWAP1 SWAP2 SWAP1 SWAP2 PUSH2 0x100 EXP DUP2 SLOAD DUP2 PUSH1 0xFF MUL NOT AND SWAP1 DUP4 ISZERO ISZERO MUL OR SWAP1 SSTORE POP PUSH2 0x4E6 JUMP JUMPDEST PUSH1 0x1 PUSH1 0x0 SWAP1 DUP1 PUSH1 0x1 DUP2 SLOAD ADD DUP1 DUP3 SSTORE DUP1 SWAP2 POP POP PUSH1 0x1 SWAP1 SUB SWAP1 PUSH1 0x0 MSTORE PUSH1 0x20 PUSH1 0x0 KECCAK256 SWAP1 PUSH1 0x20 SWAP2 DUP3 DUP3 DIV ADD SWAP2 SWAP1 MOD SWAP1 SWAP2 SWAP1 SWAP2 SWAP1 SWAP2 PUSH2 0x100 EXP DUP2 SLOAD DUP2 PUSH1 0xFF MUL NOT AND SWAP1 DUP4 ISZERO ISZERO MUL OR SWAP1 SSTORE POP JUMPDEST POP JUMP JUMPDEST POP DUP1 SLOAD PUSH2 0x4F5 SWAP1 PUSH2 0x994 JUMP JUMPDEST PUSH1 0x0 DUP3 SSTORE DUP1 PUSH1 0x1F LT PUSH2 0x507 JUMPI POP PUSH2 0x526 JUMP JUMPDEST PUSH1 0x1F ADD PUSH1 0x20 SWAP1 DIV SWAP1 PUSH1 0x0 MSTORE PUSH1 0x20 PUSH1 0x0 KECCAK256 SWAP1 DUP2 ADD SWAP1 PUSH2 0x525 SWAP2 SWAP1 PUSH2 0x5AF JUMP JUMPDEST JUMPDEST POP JUMP JUMPDEST DUP3 DUP1 SLOAD PUSH2 0x535 SWAP1 PUSH2 0x994 JUMP JUMPDEST SWAP1 PUSH1 0x0 MSTORE PUSH1 0x20 PUSH1 0x0 KECCAK256 SWAP1 PUSH1 0x1F ADD PUSH1 0x20 SWAP1 DIV DUP2 ADD SWAP3 DUP3 PUSH2 0x557 JUMPI PUSH1 0x0 DUP6 SSTORE PUSH2 0x59E JUMP JUMPDEST DUP3 PUSH1 0x1F LT PUSH2 0x570 JUMPI DUP1 CALLDATALOAD PUSH1 0xFF NOT AND DUP4 DUP1 ADD OR DUP6 SSTORE PUSH2 0x59E JUMP JUMPDEST DUP3 DUP1 ADD PUSH1 0x1 ADD DUP6 SSTORE DUP3 ISZERO PUSH2 0x59E JUMPI SWAP2 DUP3 ADD JUMPDEST DUP3 DUP2 GT ISZERO PUSH2 0x59D JUMPI DUP3 CALLDATALOAD DUP3 SSTORE SWAP2 PUSH1 0x20 ADD SWAP2 SWAP1 PUSH1 0x1 ADD SWAP1 PUSH2 0x582 JUMP JUMPDEST JUMPDEST POP SWAP1 POP PUSH2 0x5AB SWAP2 SWAP1 PUSH2 0x5AF JUMP JUMPDEST POP SWAP1 JUMP JUMPDEST JUMPDEST DUP1 DUP3 GT ISZERO PUSH2 0x5C8 JUMPI PUSH1 0x0 DUP2 PUSH1 0x0 SWAP1 SSTORE POP PUSH1 0x1 ADD PUSH2 0x5B0 JUMP JUMPDEST POP SWAP1 JUMP JUMPDEST PUSH1 0x0 DUP1 REVERT JUMPDEST PUSH1 0x0 DUP1 REVERT JUMPDEST PUSH1 0x0 DUP2 SWAP1 POP SWAP2 SWAP1 POP JUMP JUMPDEST PUSH2 0x5E9 DUP2 PUSH2 0x5D6 JUMP JUMPDEST DUP2 EQ PUSH2 0x5F4 JUMPI PUSH1 0x0 DUP1 REVERT JUMPDEST POP JUMP JUMPDEST PUSH1 0x0 DUP2 CALLDATALOAD SWAP1 POP PUSH2 0x606 DUP2 PUSH2 0x5E0 JUMP JUMPDEST SWAP3 SWAP2 POP POP JUMP JUMPDEST PUSH1 0x0 PUSH1 0x20 DUP3 DUP5 SUB SLT ISZERO PUSH2 0x622 JUMPI PUSH2 0x621 PUSH2 0x5CC JUMP JUMPDEST JUMPDEST PUSH1 0x0 PUSH2 0x630 DUP5 DUP3 DUP6 ADD PUSH2 0x5F7 JUMP JUMPDEST SWAP2 POP POP SWAP3 SWAP2 POP POP JUMP JUMPDEST PUSH2 0x642 DUP2 PUSH2 0x5D6 JUMP JUMPDEST DUP3 MSTORE POP POP JUMP JUMPDEST PUSH1 0x0 PUSH1 0x20 DUP3 ADD SWAP1 POP PUSH2 0x65D PUSH1 0x0 DUP4 ADD DUP5 PUSH2 0x639 JUMP JUMPDEST SWAP3 SWAP2 POP POP JUMP JUMPDEST PUSH1 0x0 DUP2 ISZERO ISZERO SWAP1 POP SWAP2 SWAP1 POP JUMP JUMPDEST PUSH2 0x678 DUP2 PUSH2 0x663 JUMP JUMPDEST DUP3 MSTORE POP POP JUMP JUMPDEST PUSH1 0x0 PUSH1 0x20 DUP3 ADD SWAP1 POP PUSH2 0x693 PUSH1 0x0 DUP4 ADD DUP5 PUSH2 0x66F JUMP JUMPDEST SWAP3 SWAP2 POP POP JUMP JUMPDEST PUSH1 0x0 DUP2 MLOAD SWAP1 POP SWAP2 SWAP1 POP JUMP JUMPDEST PUSH1 0x0 DUP3 DUP3 MSTORE PUSH1 0x20 DUP3 ADD SWAP1 POP SWAP3 SWAP2 POP POP JUMP JUMPDEST PUSH1 0x0 JUMPDEST DUP4 DUP2 LT ISZERO PUSH2 0x6D3 JUMPI DUP1 DUP3 ADD MLOAD DUP2 DUP5 ADD MSTORE PUSH1 0x20 DUP2 ADD SWAP1 POP PUSH2 0x6B8 JUMP JUMPDEST DUP4 DUP2 GT ISZERO PUSH2 0x6E2 JUMPI PUSH1 0x0 DUP5 DUP5 ADD MSTORE JUMPDEST POP POP POP POP JUMP JUMPDEST PUSH1 0x0 PUSH1 0x1F NOT PUSH1 0x1F DUP4 ADD AND SWAP1 POP SWAP2 SWAP1 POP JUMP JUMPDEST PUSH1 0x0 PUSH2 0x704 DUP3 PUSH2 0x699 JUMP JUMPDEST PUSH2 0x70E DUP2 DUP6 PUSH2 0x6A4 JUMP JUMPDEST SWAP4 POP PUSH2 0x71E DUP2 DUP6 PUSH1 0x20 DUP7 ADD PUSH2 0x6B5 JUMP JUMPDEST PUSH2 0x727 DUP2 PUSH2 0x6E8 JUMP JUMPDEST DUP5 ADD SWAP2 POP POP SWAP3 SWAP2 POP POP JUMP JUMPDEST PUSH1 0x0 PUSH1 0x20 DUP3 ADD SWAP1 POP DUP2 DUP2 SUB PUSH1 0x0 DUP4 ADD MSTORE PUSH2 0x74C DUP2 DUP5 PUSH2 0x6F9 JUMP JUMPDEST SWAP1 POP SWAP3 SWAP2 POP POP JUMP JUMPDEST PUSH1 0x0 DUP1 REVERT JUMPDEST PUSH1 0x0 DUP1 REVERT JUMPDEST PUSH1 0x0 DUP1 REVERT JUMPDEST PUSH1 0x0 DUP1 DUP4 PUSH1 0x1F DUP5 ADD SLT PUSH2 0x779 JUMPI PUSH2 0x778 PUSH2 0x754 JUMP JUMPDEST JUMPDEST DUP3 CALLDATALOAD SWAP1 POP PUSH8 0xFFFFFFFFFFFFFFFF DUP2 GT ISZERO PUSH2 0x796 JUMPI PUSH2 0x795 PUSH2 0x759 JUMP JUMPDEST JUMPDEST PUSH1 0x20 DUP4 ADD SWAP2 POP DUP4 PUSH1 0x1 DUP3 MUL DUP4 ADD GT ISZERO PUSH2 0x7B2 JUMPI PUSH2 0x7B1 PUSH2 0x75E JUMP JUMPDEST JUMPDEST SWAP3 POP SWAP3 SWAP1 POP JUMP JUMPDEST PUSH1 0x0 DUP1 PUSH1 0x20 DUP4 DUP6 SUB SLT ISZERO PUSH2 0x7D0 JUMPI PUSH2 0x7CF PUSH2 0x5CC JUMP JUMPDEST JUMPDEST PUSH1 0x0 DUP4 ADD CALLDATALOAD PUSH8 0xFFFFFFFFFFFFFFFF DUP2 GT ISZERO PUSH2 0x7EE JUMPI PUSH2 0x7ED PUSH2 0x5D1 JUMP JUMPDEST JUMPDEST PUSH2 0x7FA DUP6 DUP3 DUP7 ADD PUSH2 0x763 JUMP JUMPDEST SWAP3 POP SWAP3 POP POP SWAP3 POP SWAP3 SWAP1 POP JUMP JUMPDEST PUSH1 0x0 DUP2 SWAP1 POP SWAP2 SWAP1 POP JUMP JUMPDEST PUSH2 0x819 DUP2 PUSH2 0x806 JUMP JUMPDEST DUP2 EQ PUSH2 0x824 JUMPI PUSH1 0x0 DUP1 REVERT JUMPDEST POP JUMP JUMPDEST PUSH1 0x0 DUP2 CALLDATALOAD SWAP1 POP PUSH2 0x836 DUP2 PUSH2 0x810 JUMP JUMPDEST SWAP3 SWAP2 POP POP JUMP JUMPDEST PUSH1 0x0 PUSH1 0x20 DUP3 DUP5 SUB SLT ISZERO PUSH2 0x852 JUMPI PUSH2 0x851 PUSH2 0x5CC JUMP JUMPDEST JUMPDEST PUSH1 0x0 PUSH2 0x860 DUP5 DUP3 DUP6 ADD PUSH2 0x827 JUMP JUMPDEST SWAP2 POP POP SWAP3 SWAP2 POP POP JUMP JUMPDEST PUSH32 0x4E487B7100000000000000000000000000000000000000000000000000000000 PUSH1 0x0 MSTORE PUSH1 0x31 PUSH1 0x4 MSTORE PUSH1 0x24 PUSH1 0x0 REVERT JUMPDEST PUSH32 0x4E487B7100000000000000000000000000000000000000000000000000000000 PUSH1 0x0 MSTORE PUSH1 0x11 PUSH1 0x4 MSTORE PUSH1 0x24 PUSH1 0x0 REVERT JUMPDEST PUSH1 0x0 PUSH2 0x8D2 DUP3 PUSH2 0x5D6 JUMP JUMPDEST SWAP2 POP PUSH2 0x8DD DUP4 PUSH2 0x5D6 JUMP JUMPDEST SWAP3 POP DUP3 PUSH32 0xFFFFFFFFFFFFFFFFFFFFFFFFFFFFFFFFFFFFFFFFFFFFFFFFFFFFFFFFFFFFFFFF SUB DUP3 GT ISZERO PUSH2 0x912 JUMPI PUSH2 0x911 PUSH2 0x898 JUMP JUMPDEST JUMPDEST DUP3 DUP3 ADD SWAP1 POP SWAP3 SWAP2 POP POP JUMP JUMPDEST PUSH1 0x0 PUSH2 0x928 DUP3 PUSH2 0x5D6 JUMP JUMPDEST SWAP2 POP PUSH32 0xFFFFFFFFFFFFFFFFFFFFFFFFFFFFFFFFFFFFFFFFFFFFFFFFFFFFFFFFFFFFFFFF DUP3 SUB PUSH2 0x95A JUMPI PUSH2 0x959 PUSH2 0x898 JUMP JUMPDEST JUMPDEST PUSH1 0x1 DUP3 ADD SWAP1 POP SWAP2 SWAP1 POP JUMP JUMPDEST PUSH32 0x4E487B7100000000000000000000000000000000000000000000000000000000 PUSH1 0x0 MSTORE PUSH1 0x22 PUSH1 0x4 MSTORE PUSH1 0x24 PUSH1 0x0 REVERT JUMPDEST PUSH1 0x0 PUSH1 0x2 DUP3 DIV SWAP1 POP PUSH1 0x1 DUP3 AND DUP1 PUSH2 0x9AC JUMPI PUSH1 0x7F DUP3 AND SWAP2 POP JUMPDEST PUSH1 0x20 DUP3 LT DUP2 SUB PUSH2 0x9BF JUMPI PUSH2 0x9BE PUSH2 0x965 JUMP JUMPDEST JUMPDEST POP SWAP2 SWAP1 POP JUMP INVALID LOG2 PUSH5 0x6970667358 0x22 SLT KECCAK256 CODESIZE 0xB4 0xD0 CODECOPY 0xD6 DIV DUP5 SWAP9 0xC2 DUP11 DUP6 CALLDATASIZE 0x28 DIV POP SWAP13 PUSH24 0x81C305F0F3F283E47A34501D6CE0C164736F6C634300080D STOP CALLER "
				},
				"gasEstimates": {
					"creation": {
						"codeDepositCost": "511000",
						"executionCost": "infinite",
						"totalCost": "infinite"
					},
					"external": {
						"addToEnd(string)": "infinite",
						"addTogether(uint256)": "infinite",
						"alphabet(uint256)": "infinite",
						"funLoops(uint256)": "infinite",
						"getLength()": "2489",
						"isOverTen(uint256)": "6586",
						"overTen(int256)": "50732",
						"overTenShort(int256)": "50716",
						"removeTheEnd()": "infinite"
					}
				},
				"methodIdentifiers": {
					"addToEnd(string)": "a2e076eb",
					"addTogether(uint256)": "298319d4",
					"alphabet(uint256)": "9229b8a5",
					"funLoops(uint256)": "7b271e31",
					"getLength()": "be1c766b",
					"isOverTen(uint256)": "41f1940a",
					"overTen(int256)": "d6e4576e",
					"overTenShort(int256)": "cd681b87",
					"removeTheEnd()": "17d7ff73"
				}
			},
			"storageLayout": {
				"storage": [
					{
						"astId": 8,
						"contract": "contracts/Day 5.sol:Day5",
						"label": "alphabet",
						"offset": 0,
						"slot": "0",
						"type": "t_array(t_string_storage)dyn_storage"
					},
					{
						"astId": 42,
						"contract": "contracts/Day 5.sol:Day5",
						"label": "isOverTen",
						"offset": 0,
						"slot": "1",
						"type": "t_array(t_bool)dyn_storage"
					}
				],
				"types": {
					"t_array(t_bool)dyn_storage": {
						"base": "t_bool",
						"encoding": "dynamic_array",
						"label": "bool[]",
						"numberOfBytes": "32"
					},
					"t_array(t_string_storage)dyn_storage": {
						"base": "t_string_storage",
						"encoding": "dynamic_array",
						"label": "string[]",
						"numberOfBytes": "32"
					},
					"t_bool": {
						"encoding": "inplace",
						"label": "bool",
						"numberOfBytes": "1"
					},
					"t_string_storage": {
						"encoding": "bytes",
						"label": "string",
						"numberOfBytes": "32"
					}
				}
			},
			"userdoc": {
				"kind": "user",
				"methods": {},
				"version": 1
			}
		}
	}
}