{
	"contracts/Day3.sol": {
		"Helloworld": {
			"abi": [
				{
					"inputs": [],
					"name": "bankAccount",
					"outputs": [
						{
							"internalType": "int256",
							"name": "",
							"type": "int256"
						}
					],
					"stateMutability": "view",
					"type": "function"
				},
				{
					"inputs": [
						{
							"internalType": "uint256",
							"name": "",
							"type": "uint256"
						}
					],
					"name": "friends",
					"outputs": [
						{
							"internalType": "string",
							"name": "",
							"type": "string"
						}
					],
					"stateMutability": "view",
					"type": "function"
				},
				{
					"inputs": [],
					"name": "greet",
					"outputs": [
						{
							"internalType": "string",
							"name": "",
							"type": "string"
						}
					],
					"stateMutability": "view",
					"type": "function"
				},
				{
					"inputs": [],
					"name": "lightSwitch",
					"outputs": [
						{
							"internalType": "bool",
							"name": "",
							"type": "bool"
						}
					],
					"stateMutability": "view",
					"type": "function"
				},
				{
					"inputs": [],
					"name": "myAge",
					"outputs": [
						{
							"internalType": "uint256",
							"name": "",
							"type": "uint256"
						}
					],
					"stateMutability": "view",
					"type": "function"
				},
				{
					"inputs": [],
					"name": "myBrokenDownFord",
					"outputs": [
						{
							"internalType": "uint256",
							"name": "wheels",
							"type": "uint256"
						},
						{
							"internalType": "uint256",
							"name": "windows",
							"type": "uint256"
						},
						{
							"internalType": "string",
							"name": "model",
							"type": "string"
						}
					],
					"stateMutability": "view",
					"type": "function"
				},
				{
					"inputs": [],
					"name": "myColdWallet",
					"outputs": [
						{
							"internalType": "address",
							"name": "",
							"type": "address"
						}
					],
					"stateMutability": "view",
					"type": "function"
				},
				{
					"inputs": [],
					"name": "myUsername",
					"outputs": [
						{
							"internalType": "string",
							"name": "",
							"type": "string"
						}
					],
					"stateMutability": "view",
					"type": "function"
				},
				{
					"inputs": [
						{
							"internalType": "string",
							"name": "",
							"type": "string"
						}
					],
					"name": "points",
					"outputs": [
						{
							"internalType": "int256",
							"name": "",
							"type": "int256"
						}
					],
					"stateMutability": "view",
					"type": "function"
				},
				{
					"inputs": [
						{
							"internalType": "uint256",
							"name": "",
							"type": "uint256"
						}
					],
					"name": "tirePressure",
					"outputs": [
						{
							"internalType": "uint256",
							"name": "",
							"type": "uint256"
						}
					],
					"stateMutability": "view",
					"type": "function"
				},
				{
					"inputs": [],
					"name": "tomorrow",
					"outputs": [
						{
							"internalType": "enum Helloworld.daysOfTheWeek",
							"name": "",
							"type": "uint8"
						}
					],
					"stateMutability": "view",
					"type": "function"
				}
			],
			"devdoc": {
				"kind": "dev",
				"methods": {},
				"version": 1
			},
			"evm": {
				"assembly": "    /* \"contracts/Day3.sol\":62:2918  contract Helloworld {... */\n  mstore(0x40, 0x80)\n    /* \"contracts/Day3.sol\":89:125  string public greet = \"Hello World!\" */\n  mload(0x40)\n  dup1\n  0x40\n  add\n  0x40\n  mstore\n  dup1\n  0x0c\n  dup2\n  mstore\n  0x20\n  add\n  0x48656c6c6f20576f726c64210000000000000000000000000000000000000000\n  dup2\n  mstore\n  pop\n  0x00\n  swap1\n  dup1\n  mload\n  swap1\n  0x20\n  add\n  swap1\n  tag_1\n  swap3\n  swap2\n  swap1\n  tag_2\n  jump\t// in\ntag_1:\n  pop\n    /* \"contracts/Day3.sol\":192:197  false */\n  0x00\n    /* \"contracts/Day3.sol\":166:197  bool public lightSwitch = false */\n  0x01\n  exp(0x0100, 0x00)\n  dup2\n  sload\n  dup2\n  0xff\n  mul\n  not\n  and\n  swap1\n  dup4\n  iszero\n  iszero\n  mul\n  or\n  swap1\n  sstore\n  pop\n    /* \"contracts/Day3.sol\":306:308  25 */\n  0x19\n    /* \"contracts/Day3.sol\":286:308  uint public myAge = 25 */\n  0x02\n  sstore\n    /* \"contracts/Day3.sol\":422:427  -1000 */\n  0xfffffffffffffffffffffffffffffffffffffffffffffffffffffffffffffc18\n    /* \"contracts/Day3.sol\":397:427  int public bankAccount = -1000 */\n  0x03\n  sstore\n    /* \"contracts/Day3.sol\":575:617  0x61236DE2834fDcE9A4b4Fa3B68dDe39Eca7199Cb */\n  0x61236de2834fdce9a4b4fa3b68dde39eca7199cb\n    /* \"contracts/Day3.sol\":545:617  address public myColdWallet = 0x61236DE2834fDcE9A4b4Fa3B68dDe39Eca7199Cb */\n  0x04\n  exp(0x0100, 0x00)\n  dup2\n  sload\n  dup2\n  0xffffffffffffffffffffffffffffffffffffffff\n  mul\n  not\n  and\n  swap1\n  dup4\n  0xffffffffffffffffffffffffffffffffffffffff\n  and\n  mul\n  or\n  swap1\n  sstore\n  pop\n    /* \"contracts/Day3.sol\":941:958  daysOfTheWeek.Mon */\n  0x00\n    /* \"contracts/Day3.sol\":909:958  daysOfTheWeek public tomorrow = daysOfTheWeek.Mon */\n  0x04\n  exp(0x0100, 0x14)\n  dup2\n  sload\n  dup2\n  0xff\n  mul\n  not\n  and\n  swap1\n  dup4\n  0x06\n  dup2\n  gt\n  iszero\n  tag_3\n  jumpi\n  tag_4\n  tag_5\n  jump\t// in\ntag_4:\ntag_3:\n  mul\n  or\n  swap1\n  sstore\n  pop\n    /* \"contracts/Day3.sol\":1158:1162  0x20 */\n  0x20\n    /* \"contracts/Day3.sol\":1136:1162  bytes1 exampleBytes = 0x20 */\n  0xf8\n  shl\n  0x04\n  exp(0x0100, 0x15)\n  dup2\n  sload\n  dup2\n  0xff\n  mul\n  not\n  and\n  swap1\n  dup4\n  0xf8\n  shr\n  mul\n  or\n  swap1\n  sstore\n  pop\n    /* \"contracts/Day3.sol\":1288:1343  string[] public friends = [\"Gabriel\", \"Lucas\", \"Neiko\"] */\n  mload(0x40)\n  dup1\n  0x60\n  add\n  0x40\n  mstore\n  dup1\n  mload(0x40)\n  dup1\n  0x40\n  add\n  0x40\n  mstore\n  dup1\n  0x07\n  dup2\n  mstore\n  0x20\n  add\n  0x4761627269656c00000000000000000000000000000000000000000000000000\n  dup2\n  mstore\n  pop\n  dup2\n  mstore\n  0x20\n  add\n  mload(0x40)\n  dup1\n  0x40\n  add\n  0x40\n  mstore\n  dup1\n  0x05\n  dup2\n  mstore\n  0x20\n  add\n  0x4c75636173000000000000000000000000000000000000000000000000000000\n  dup2\n  mstore\n  pop\n  dup2\n  mstore\n  0x20\n  add\n  mload(0x40)\n  dup1\n  0x40\n  add\n  0x40\n  mstore\n  dup1\n  0x05\n  dup2\n  mstore\n  0x20\n  add\n  0x4e65696b6f000000000000000000000000000000000000000000000000000000\n  dup2\n  mstore\n  pop\n  dup2\n  mstore\n  pop\n  0x05\n  swap1\n  0x03\n  tag_6\n  swap3\n  swap2\n  swap1\n  tag_7\n  jump\t// in\ntag_6:\n  pop\n    /* \"contracts/Day3.sol\":1519:1561  uint[4] public tirePressure = [30,29,29,4] */\n  mload(0x40)\n  dup1\n  0x80\n  add\n  0x40\n  mstore\n  dup1\n    /* \"contracts/Day3.sol\":1550:1552  30 */\n  0x1e\n    /* \"contracts/Day3.sol\":1519:1561  uint[4] public tirePressure = [30,29,29,4] */\n  0xff\n  and\n  dup2\n  mstore\n  0x20\n  add\n    /* \"contracts/Day3.sol\":1553:1555  29 */\n  0x1d\n    /* \"contracts/Day3.sol\":1519:1561  uint[4] public tirePressure = [30,29,29,4] */\n  0xff\n  and\n  dup2\n  mstore\n  0x20\n  add\n    /* \"contracts/Day3.sol\":1556:1558  29 */\n  0x1d\n    /* \"contracts/Day3.sol\":1519:1561  uint[4] public tirePressure = [30,29,29,4] */\n  0xff\n  and\n  dup2\n  mstore\n  0x20\n  add\n    /* \"contracts/Day3.sol\":1559:1560  4 */\n  0x04\n    /* \"contracts/Day3.sol\":1519:1561  uint[4] public tirePressure = [30,29,29,4] */\n  0xff\n  and\n  dup2\n  mstore\n  pop\n  0x06\n  swap1\n  0x04\n  tag_8\n  swap3\n  swap2\n  swap1\n  tag_9\n  jump\t// in\ntag_8:\n  pop\n    /* \"contracts/Day3.sol\":1715:1760  string public myUsername = \"WhiteboardCrypto\" */\n  mload(0x40)\n  dup1\n  0x40\n  add\n  0x40\n  mstore\n  dup1\n  0x10\n  dup2\n  mstore\n  0x20\n  add\n  0x5768697465626f61726443727970746f00000000000000000000000000000000\n  dup2\n  mstore\n  pop\n  0x0a\n  swap1\n  dup1\n  mload\n  swap1\n  0x20\n  add\n  swap1\n  tag_10\n  swap3\n  swap2\n  swap1\n  tag_2\n  jump\t// in\ntag_10:\n  pop\n    /* \"contracts/Day3.sol\":2448:2463  car(3,4,\"Ford\") */\n  mload(0x40)\n  dup1\n  0x60\n  add\n  0x40\n  mstore\n  dup1\n    /* \"contracts/Day3.sol\":2452:2453  3 */\n  0x03\n    /* \"contracts/Day3.sol\":2448:2463  car(3,4,\"Ford\") */\n  dup2\n  mstore\n  0x20\n  add\n    /* \"contracts/Day3.sol\":2454:2455  4 */\n  0x04\n    /* \"contracts/Day3.sol\":2448:2463  car(3,4,\"Ford\") */\n  dup2\n  mstore\n  0x20\n  add\n  mload(0x40)\n  dup1\n  0x40\n  add\n  0x40\n  mstore\n  dup1\n  0x04\n  dup2\n  mstore\n  0x20\n  add\n  0x466f726400000000000000000000000000000000000000000000000000000000\n  dup2\n  mstore\n  pop\n  dup2\n  mstore\n  pop\n    /* \"contracts/Day3.sol\":2418:2463  car public myBrokenDownFord = car(3,4,\"Ford\") */\n  0x0c\n  0x00\n  dup3\n  add\n  mload\n  dup2\n  0x00\n  add\n  sstore\n  0x20\n  dup3\n  add\n  mload\n  dup2\n  0x01\n  add\n  sstore\n  0x40\n  dup3\n  add\n  mload\n  dup2\n  0x02\n  add\n  swap1\n  dup1\n  mload\n  swap1\n  0x20\n  add\n  swap1\n  tag_11\n  swap3\n  swap2\n  swap1\n  tag_2\n  jump\t// in\ntag_11:\n  pop\n  pop\n  pop\n    /* \"contracts/Day3.sol\":62:2918  contract Helloworld {... */\n  callvalue\n  dup1\n  iszero\n  tag_12\n  jumpi\n  0x00\n  dup1\n  revert\ntag_12:\n  pop\n  jump(tag_13)\ntag_2:\n  dup3\n  dup1\n  sload\n  tag_14\n  swap1\n  tag_15\n  jump\t// in\ntag_14:\n  swap1\n  0x00\n  mstore\n  keccak256(0x00, 0x20)\n  swap1\n  0x1f\n  add\n  0x20\n  swap1\n  div\n  dup2\n  add\n  swap3\n  dup3\n  tag_17\n  jumpi\n  0x00\n  dup6\n  sstore\n  jump(tag_16)\ntag_17:\n  dup3\n  0x1f\n  lt\n  tag_18\n  jumpi\n  dup1\n  mload\n  not(0xff)\n  and\n  dup4\n  dup1\n  add\n  or\n  dup6\n  sstore\n  jump(tag_16)\ntag_18:\n  dup3\n  dup1\n  add\n  0x01\n  add\n  dup6\n  sstore\n  dup3\n  iszero\n  tag_16\n  jumpi\n  swap2\n  dup3\n  add\ntag_19:\n  dup3\n  dup2\n  gt\n  iszero\n  tag_20\n  jumpi\n  dup3\n  mload\n  dup3\n  sstore\n  swap2\n  0x20\n  add\n  swap2\n  swap1\n  0x01\n  add\n  swap1\n  jump(tag_19)\ntag_20:\ntag_16:\n  pop\n  swap1\n  pop\n  tag_21\n  swap2\n  swap1\n  tag_22\n  jump\t// in\ntag_21:\n  pop\n  swap1\n  jump\t// out\ntag_7:\n  dup3\n  dup1\n  sload\n  dup3\n  dup3\n  sstore\n  swap1\n  0x00\n  mstore\n  keccak256(0x00, 0x20)\n  swap1\n  dup2\n  add\n  swap3\n  dup3\n  iszero\n  tag_23\n  jumpi\n  swap2\n  0x20\n  mul\n  dup3\n  add\ntag_24:\n  dup3\n  dup2\n  gt\n  iszero\n  tag_25\n  jumpi\n  dup3\n  mload\n  dup3\n  swap1\n  dup1\n  mload\n  swap1\n  0x20\n  add\n  swap1\n  tag_26\n  swap3\n  swap2\n  swap1\n  tag_2\n  jump\t// in\ntag_26:\n  pop\n  swap2\n  0x20\n  add\n  swap2\n  swap1\n  0x01\n  add\n  swap1\n  jump(tag_24)\ntag_25:\ntag_23:\n  pop\n  swap1\n  pop\n  tag_27\n  swap2\n  swap1\n  tag_28\n  jump\t// in\ntag_27:\n  pop\n  swap1\n  jump\t// out\ntag_9:\n  dup3\n  0x04\n  dup2\n  add\n  swap3\n  dup3\n  iszero\n  tag_29\n  jumpi\n  swap2\n  0x20\n  mul\n  dup3\n  add\ntag_30:\n  dup3\n  dup2\n  gt\n  iszero\n  tag_31\n  jumpi\n  dup3\n  mload\n  dup3\n  swap1\n  0xff\n  and\n  swap1\n  sstore\n  swap2\n  0x20\n  add\n  swap2\n  swap1\n  0x01\n  add\n  swap1\n  jump(tag_30)\ntag_31:\ntag_29:\n  pop\n  swap1\n  pop\n  tag_32\n  swap2\n  swap1\n  tag_22\n  jump\t// in\ntag_32:\n  pop\n  swap1\n  jump\t// out\ntag_22:\ntag_33:\n  dup1\n  dup3\n  gt\n  iszero\n  tag_34\n  jumpi\n  0x00\n  dup2\n  0x00\n  swap1\n  sstore\n  pop\n  0x01\n  add\n  jump(tag_33)\ntag_34:\n  pop\n  swap1\n  jump\t// out\ntag_28:\ntag_35:\n  dup1\n  dup3\n  gt\n  iszero\n  tag_36\n  jumpi\n  0x00\n  dup2\n  dup2\n  tag_37\n  swap2\n  swap1\n  tag_38\n  jump\t// in\ntag_37:\n  pop\n  0x01\n  add\n  jump(tag_35)\ntag_36:\n  pop\n  swap1\n  jump\t// out\ntag_38:\n  pop\n  dup1\n  sload\n  tag_39\n  swap1\n  tag_15\n  jump\t// in\ntag_39:\n  0x00\n  dup3\n  sstore\n  dup1\n  0x1f\n  lt\n  tag_41\n  jumpi\n  pop\n  jump(tag_40)\ntag_41:\n  0x1f\n  add\n  0x20\n  swap1\n  div\n  swap1\n  0x00\n  mstore\n  keccak256(0x00, 0x20)\n  swap1\n  dup2\n  add\n  swap1\n  tag_42\n  swap2\n  swap1\n  tag_22\n  jump\t// in\ntag_42:\ntag_40:\n  pop\n  jump\t// out\n    /* \"#utility.yul\":7:187   */\ntag_5:\n    /* \"#utility.yul\":55:132   */\n  0x4e487b7100000000000000000000000000000000000000000000000000000000\n    /* \"#utility.yul\":52:53   */\n  0x00\n    /* \"#utility.yul\":45:133   */\n  mstore\n    /* \"#utility.yul\":152:156   */\n  0x21\n    /* \"#utility.yul\":149:150   */\n  0x04\n    /* \"#utility.yul\":142:157   */\n  mstore\n    /* \"#utility.yul\":176:180   */\n  0x24\n    /* \"#utility.yul\":173:174   */\n  0x00\n    /* \"#utility.yul\":166:181   */\n  revert\n    /* \"#utility.yul\":193:373   */\ntag_43:\n    /* \"#utility.yul\":241:318   */\n  0x4e487b7100000000000000000000000000000000000000000000000000000000\n    /* \"#utility.yul\":238:239   */\n  0x00\n    /* \"#utility.yul\":231:319   */\n  mstore\n    /* \"#utility.yul\":338:342   */\n  0x22\n    /* \"#utility.yul\":335:336   */\n  0x04\n    /* \"#utility.yul\":328:343   */\n  mstore\n    /* \"#utility.yul\":362:366   */\n  0x24\n    /* \"#utility.yul\":359:360   */\n  0x00\n    /* \"#utility.yul\":352:367   */\n  revert\n    /* \"#utility.yul\":379:699   */\ntag_15:\n    /* \"#utility.yul\":423:429   */\n  0x00\n    /* \"#utility.yul\":460:461   */\n  0x02\n    /* \"#utility.yul\":454:458   */\n  dup3\n    /* \"#utility.yul\":450:462   */\n  div\n    /* \"#utility.yul\":440:462   */\n  swap1\n  pop\n    /* \"#utility.yul\":507:508   */\n  0x01\n    /* \"#utility.yul\":501:505   */\n  dup3\n    /* \"#utility.yul\":497:509   */\n  and\n    /* \"#utility.yul\":528:546   */\n  dup1\n    /* \"#utility.yul\":518:599   */\n  tag_48\n  jumpi\n    /* \"#utility.yul\":584:588   */\n  0x7f\n    /* \"#utility.yul\":576:582   */\n  dup3\n    /* \"#utility.yul\":572:589   */\n  and\n    /* \"#utility.yul\":562:589   */\n  swap2\n  pop\n    /* \"#utility.yul\":518:599   */\ntag_48:\n    /* \"#utility.yul\":646:648   */\n  0x20\n    /* \"#utility.yul\":638:644   */\n  dup3\n    /* \"#utility.yul\":635:649   */\n  lt\n    /* \"#utility.yul\":615:633   */\n  dup2\n    /* \"#utility.yul\":612:650   */\n  sub\n    /* \"#utility.yul\":609:693   */\n  tag_49\n  jumpi\n    /* \"#utility.yul\":665:683   */\n  tag_50\n  tag_43\n  jump\t// in\ntag_50:\n    /* \"#utility.yul\":609:693   */\ntag_49:\n    /* \"#utility.yul\":430:699   */\n  pop\n    /* \"#utility.yul\":379:699   */\n  swap2\n  swap1\n  pop\n  jump\t// out\n    /* \"contracts/Day3.sol\":62:2918  contract Helloworld {... */\ntag_13:\n  dataSize(sub_0)\n  dup1\n  dataOffset(sub_0)\n  0x00\n  codecopy\n  0x00\n  return\nstop\n\nsub_0: assembly {\n        /* \"contracts/Day3.sol\":62:2918  contract Helloworld {... */\n      mstore(0x40, 0x80)\n      callvalue\n      dup1\n      iszero\n      tag_1\n      jumpi\n      0x00\n      dup1\n      revert\n    tag_1:\n      pop\n      jumpi(tag_2, lt(calldatasize, 0x04))\n      shr(0xe0, calldataload(0x00))\n      dup1\n      0x3e599092\n      gt\n      tag_14\n      jumpi\n      dup1\n      0x3e599092\n      eq\n      tag_8\n      jumpi\n      dup1\n      0x6051e322\n      eq\n      tag_9\n      jumpi\n      dup1\n      0x7999c7ca\n      eq\n      tag_10\n      jumpi\n      dup1\n      0x81f364b3\n      eq\n      tag_11\n      jumpi\n      dup1\n      0xce146828\n      eq\n      tag_12\n      jumpi\n      dup1\n      0xcfae3217\n      eq\n      tag_13\n      jumpi\n      jump(tag_2)\n    tag_14:\n      dup1\n      0x0131b589\n      eq\n      tag_3\n      jumpi\n      dup1\n      0x04f03759\n      eq\n      tag_4\n      jumpi\n      dup1\n      0x07cd851e\n      eq\n      tag_5\n      jumpi\n      dup1\n      0x0bd4dec8\n      eq\n      tag_6\n      jumpi\n      dup1\n      0x377a0f53\n      eq\n      tag_7\n      jumpi\n    tag_2:\n      0x00\n      dup1\n      revert\n        /* \"contracts/Day3.sol\":166:197  bool public lightSwitch = false */\n    tag_3:\n      tag_15\n      tag_16\n      jump\t// in\n    tag_15:\n      mload(0x40)\n      tag_17\n      swap2\n      swap1\n      tag_18\n      jump\t// in\n    tag_17:\n      mload(0x40)\n      dup1\n      swap2\n      sub\n      swap1\n      return\n        /* \"contracts/Day3.sol\":545:617  address public myColdWallet = 0x61236DE2834fDcE9A4b4Fa3B68dDe39Eca7199Cb */\n    tag_4:\n      tag_19\n      tag_20\n      jump\t// in\n    tag_19:\n      mload(0x40)\n      tag_21\n      swap2\n      swap1\n      tag_22\n      jump\t// in\n    tag_21:\n      mload(0x40)\n      dup1\n      swap2\n      sub\n      swap1\n      return\n        /* \"contracts/Day3.sol\":909:958  daysOfTheWeek public tomorrow = daysOfTheWeek.Mon */\n    tag_5:\n      tag_23\n      tag_24\n      jump\t// in\n    tag_23:\n      mload(0x40)\n      tag_25\n      swap2\n      swap1\n      tag_26\n      jump\t// in\n    tag_25:\n      mload(0x40)\n      dup1\n      swap2\n      sub\n      swap1\n      return\n        /* \"contracts/Day3.sol\":2418:2463  car public myBrokenDownFord = car(3,4,\"Ford\") */\n    tag_6:\n      tag_27\n      tag_28\n      jump\t// in\n    tag_27:\n      mload(0x40)\n      tag_29\n      swap4\n      swap3\n      swap2\n      swap1\n      tag_30\n      jump\t// in\n    tag_29:\n      mload(0x40)\n      dup1\n      swap2\n      sub\n      swap1\n      return\n        /* \"contracts/Day3.sol\":397:427  int public bankAccount = -1000 */\n    tag_7:\n      tag_31\n      tag_32\n      jump\t// in\n    tag_31:\n      mload(0x40)\n      tag_33\n      swap2\n      swap1\n      tag_34\n      jump\t// in\n    tag_33:\n      mload(0x40)\n      dup1\n      swap2\n      sub\n      swap1\n      return\n        /* \"contracts/Day3.sol\":1841:1878  mapping (string => int) public points */\n    tag_8:\n      tag_35\n      0x04\n      dup1\n      calldatasize\n      sub\n      dup2\n      add\n      swap1\n      tag_36\n      swap2\n      swap1\n      tag_37\n      jump\t// in\n    tag_36:\n      tag_38\n      jump\t// in\n    tag_35:\n      mload(0x40)\n      tag_39\n      swap2\n      swap1\n      tag_34\n      jump\t// in\n    tag_39:\n      mload(0x40)\n      dup1\n      swap2\n      sub\n      swap1\n      return\n        /* \"contracts/Day3.sol\":286:308  uint public myAge = 25 */\n    tag_9:\n      tag_40\n      tag_41\n      jump\t// in\n    tag_40:\n      mload(0x40)\n      tag_42\n      swap2\n      swap1\n      tag_43\n      jump\t// in\n    tag_42:\n      mload(0x40)\n      dup1\n      swap2\n      sub\n      swap1\n      return\n        /* \"contracts/Day3.sol\":1715:1760  string public myUsername = \"WhiteboardCrypto\" */\n    tag_10:\n      tag_44\n      tag_45\n      jump\t// in\n    tag_44:\n      mload(0x40)\n      tag_46\n      swap2\n      swap1\n      tag_47\n      jump\t// in\n    tag_46:\n      mload(0x40)\n      dup1\n      swap2\n      sub\n      swap1\n      return\n        /* \"contracts/Day3.sol\":1519:1561  uint[4] public tirePressure = [30,29,29,4] */\n    tag_11:\n      tag_48\n      0x04\n      dup1\n      calldatasize\n      sub\n      dup2\n      add\n      swap1\n      tag_49\n      swap2\n      swap1\n      tag_50\n      jump\t// in\n    tag_49:\n      tag_51\n      jump\t// in\n    tag_48:\n      mload(0x40)\n      tag_52\n      swap2\n      swap1\n      tag_43\n      jump\t// in\n    tag_52:\n      mload(0x40)\n      dup1\n      swap2\n      sub\n      swap1\n      return\n        /* \"contracts/Day3.sol\":1288:1343  string[] public friends = [\"Gabriel\", \"Lucas\", \"Neiko\"] */\n    tag_12:\n      tag_53\n      0x04\n      dup1\n      calldatasize\n      sub\n      dup2\n      add\n      swap1\n      tag_54\n      swap2\n      swap1\n      tag_50\n      jump\t// in\n    tag_54:\n      tag_55\n      jump\t// in\n    tag_53:\n      mload(0x40)\n      tag_56\n      swap2\n      swap1\n      tag_47\n      jump\t// in\n    tag_56:\n      mload(0x40)\n      dup1\n      swap2\n      sub\n      swap1\n      return\n        /* \"contracts/Day3.sol\":89:125  string public greet = \"Hello World!\" */\n    tag_13:\n      tag_57\n      tag_58\n      jump\t// in\n    tag_57:\n      mload(0x40)\n      tag_59\n      swap2\n      swap1\n      tag_47\n      jump\t// in\n    tag_59:\n      mload(0x40)\n      dup1\n      swap2\n      sub\n      swap1\n      return\n        /* \"contracts/Day3.sol\":166:197  bool public lightSwitch = false */\n    tag_16:\n      0x01\n      0x00\n      swap1\n      sload\n      swap1\n      0x0100\n      exp\n      swap1\n      div\n      0xff\n      and\n      dup2\n      jump\t// out\n        /* \"contracts/Day3.sol\":545:617  address public myColdWallet = 0x61236DE2834fDcE9A4b4Fa3B68dDe39Eca7199Cb */\n    tag_20:\n      0x04\n      0x00\n      swap1\n      sload\n      swap1\n      0x0100\n      exp\n      swap1\n      div\n      0xffffffffffffffffffffffffffffffffffffffff\n      and\n      dup2\n      jump\t// out\n        /* \"contracts/Day3.sol\":909:958  daysOfTheWeek public tomorrow = daysOfTheWeek.Mon */\n    tag_24:\n      0x04\n      0x14\n      swap1\n      sload\n      swap1\n      0x0100\n      exp\n      swap1\n      div\n      0xff\n      and\n      dup2\n      jump\t// out\n        /* \"contracts/Day3.sol\":2418:2463  car public myBrokenDownFord = car(3,4,\"Ford\") */\n    tag_28:\n      0x0c\n      dup1\n      0x00\n      add\n      sload\n      swap1\n      dup1\n      0x01\n      add\n      sload\n      swap1\n      dup1\n      0x02\n      add\n      dup1\n      sload\n      tag_60\n      swap1\n      tag_61\n      jump\t// in\n    tag_60:\n      dup1\n      0x1f\n      add\n      0x20\n      dup1\n      swap2\n      div\n      mul\n      0x20\n      add\n      mload(0x40)\n      swap1\n      dup2\n      add\n      0x40\n      mstore\n      dup1\n      swap3\n      swap2\n      swap1\n      dup2\n      dup2\n      mstore\n      0x20\n      add\n      dup3\n      dup1\n      sload\n      tag_62\n      swap1\n      tag_61\n      jump\t// in\n    tag_62:\n      dup1\n      iszero\n      tag_63\n      jumpi\n      dup1\n      0x1f\n      lt\n      tag_64\n      jumpi\n      0x0100\n      dup1\n      dup4\n      sload\n      div\n      mul\n      dup4\n      mstore\n      swap2\n      0x20\n      add\n      swap2\n      jump(tag_63)\n    tag_64:\n      dup3\n      add\n      swap2\n      swap1\n      0x00\n      mstore\n      keccak256(0x00, 0x20)\n      swap1\n    tag_65:\n      dup2\n      sload\n      dup2\n      mstore\n      swap1\n      0x01\n      add\n      swap1\n      0x20\n      add\n      dup1\n      dup4\n      gt\n      tag_65\n      jumpi\n      dup3\n      swap1\n      sub\n      0x1f\n      and\n      dup3\n      add\n      swap2\n    tag_63:\n      pop\n      pop\n      pop\n      pop\n      pop\n      swap1\n      pop\n      dup4\n      jump\t// out\n        /* \"contracts/Day3.sol\":397:427  int public bankAccount = -1000 */\n    tag_32:\n      sload(0x03)\n      dup2\n      jump\t// out\n        /* \"contracts/Day3.sol\":1841:1878  mapping (string => int) public points */\n    tag_38:\n      0x0b\n      dup2\n      dup1\n      mload\n      0x20\n      dup2\n      add\n      dup3\n      add\n      dup1\n      mload\n      dup5\n      dup3\n      mstore\n      0x20\n      dup4\n      add\n      0x20\n      dup6\n      add\n      keccak256\n      dup2\n      dup4\n      mstore\n      dup1\n      swap6\n      pop\n      pop\n      pop\n      pop\n      pop\n      pop\n      0x00\n      swap2\n      pop\n      swap1\n      pop\n      sload\n      dup2\n      jump\t// out\n        /* \"contracts/Day3.sol\":286:308  uint public myAge = 25 */\n    tag_41:\n      sload(0x02)\n      dup2\n      jump\t// out\n        /* \"contracts/Day3.sol\":1715:1760  string public myUsername = \"WhiteboardCrypto\" */\n    tag_45:\n      0x0a\n      dup1\n      sload\n      tag_66\n      swap1\n      tag_61\n      jump\t// in\n    tag_66:\n      dup1\n      0x1f\n      add\n      0x20\n      dup1\n      swap2\n      div\n      mul\n      0x20\n      add\n      mload(0x40)\n      swap1\n      dup2\n      add\n      0x40\n      mstore\n      dup1\n      swap3\n      swap2\n      swap1\n      dup2\n      dup2\n      mstore\n      0x20\n      add\n      dup3\n      dup1\n      sload\n      tag_67\n      swap1\n      tag_61\n      jump\t// in\n    tag_67:\n      dup1\n      iszero\n      tag_68\n      jumpi\n      dup1\n      0x1f\n      lt\n      tag_69\n      jumpi\n      0x0100\n      dup1\n      dup4\n      sload\n      div\n      mul\n      dup4\n      mstore\n      swap2\n      0x20\n      add\n      swap2\n      jump(tag_68)\n    tag_69:\n      dup3\n      add\n      swap2\n      swap1\n      0x00\n      mstore\n      keccak256(0x00, 0x20)\n      swap1\n    tag_70:\n      dup2\n      sload\n      dup2\n      mstore\n      swap1\n      0x01\n      add\n      swap1\n      0x20\n      add\n      dup1\n      dup4\n      gt\n      tag_70\n      jumpi\n      dup3\n      swap1\n      sub\n      0x1f\n      and\n      dup3\n      add\n      swap2\n    tag_68:\n      pop\n      pop\n      pop\n      pop\n      pop\n      dup2\n      jump\t// out\n        /* \"contracts/Day3.sol\":1519:1561  uint[4] public tirePressure = [30,29,29,4] */\n    tag_51:\n      0x06\n      dup2\n      0x04\n      dup2\n      lt\n      tag_71\n      jumpi\n      0x00\n      dup1\n      revert\n    tag_71:\n      add\n      0x00\n      swap2\n      pop\n      swap1\n      pop\n      sload\n      dup2\n      jump\t// out\n        /* \"contracts/Day3.sol\":1288:1343  string[] public friends = [\"Gabriel\", \"Lucas\", \"Neiko\"] */\n    tag_55:\n      0x05\n      dup2\n      dup2\n      sload\n      dup2\n      lt\n      tag_73\n      jumpi\n      0x00\n      dup1\n      revert\n    tag_73:\n      swap1\n      0x00\n      mstore\n      keccak256(0x00, 0x20)\n      add\n      0x00\n      swap2\n      pop\n      swap1\n      pop\n      dup1\n      sload\n      tag_75\n      swap1\n      tag_61\n      jump\t// in\n    tag_75:\n      dup1\n      0x1f\n      add\n      0x20\n      dup1\n      swap2\n      div\n      mul\n      0x20\n      add\n      mload(0x40)\n      swap1\n      dup2\n      add\n      0x40\n      mstore\n      dup1\n      swap3\n      swap2\n      swap1\n      dup2\n      dup2\n      mstore\n      0x20\n      add\n      dup3\n      dup1\n      sload\n      tag_76\n      swap1\n      tag_61\n      jump\t// in\n    tag_76:\n      dup1\n      iszero\n      tag_77\n      jumpi\n      dup1\n      0x1f\n      lt\n      tag_78\n      jumpi\n      0x0100\n      dup1\n      dup4\n      sload\n      div\n      mul\n      dup4\n      mstore\n      swap2\n      0x20\n      add\n      swap2\n      jump(tag_77)\n    tag_78:\n      dup3\n      add\n      swap2\n      swap1\n      0x00\n      mstore\n      keccak256(0x00, 0x20)\n      swap1\n    tag_79:\n      dup2\n      sload\n      dup2\n      mstore\n      swap1\n      0x01\n      add\n      swap1\n      0x20\n      add\n      dup1\n      dup4\n      gt\n      tag_79\n      jumpi\n      dup3\n      swap1\n      sub\n      0x1f\n      and\n      dup3\n      add\n      swap2\n    tag_77:\n      pop\n      pop\n      pop\n      pop\n      pop\n      dup2\n      jump\t// out\n        /* \"contracts/Day3.sol\":89:125  string public greet = \"Hello World!\" */\n    tag_58:\n      0x00\n      dup1\n      sload\n      tag_80\n      swap1\n      tag_61\n      jump\t// in\n    tag_80:\n      dup1\n      0x1f\n      add\n      0x20\n      dup1\n      swap2\n      div\n      mul\n      0x20\n      add\n      mload(0x40)\n      swap1\n      dup2\n      add\n      0x40\n      mstore\n      dup1\n      swap3\n      swap2\n      swap1\n      dup2\n      dup2\n      mstore\n      0x20\n      add\n      dup3\n      dup1\n      sload\n      tag_81\n      swap1\n      tag_61\n      jump\t// in\n    tag_81:\n      dup1\n      iszero\n      tag_82\n      jumpi\n      dup1\n      0x1f\n      lt\n      tag_83\n      jumpi\n      0x0100\n      dup1\n      dup4\n      sload\n      div\n      mul\n      dup4\n      mstore\n      swap2\n      0x20\n      add\n      swap2\n      jump(tag_82)\n    tag_83:\n      dup3\n      add\n      swap2\n      swap1\n      0x00\n      mstore\n      keccak256(0x00, 0x20)\n      swap1\n    tag_84:\n      dup2\n      sload\n      dup2\n      mstore\n      swap1\n      0x01\n      add\n      swap1\n      0x20\n      add\n      dup1\n      dup4\n      gt\n      tag_84\n      jumpi\n      dup3\n      swap1\n      sub\n      0x1f\n      and\n      dup3\n      add\n      swap2\n    tag_82:\n      pop\n      pop\n      pop\n      pop\n      pop\n      dup2\n      jump\t// out\n        /* \"#utility.yul\":7:97   */\n    tag_85:\n        /* \"#utility.yul\":41:48   */\n      0x00\n        /* \"#utility.yul\":84:89   */\n      dup2\n        /* \"#utility.yul\":77:90   */\n      iszero\n        /* \"#utility.yul\":70:91   */\n      iszero\n        /* \"#utility.yul\":59:91   */\n      swap1\n      pop\n        /* \"#utility.yul\":7:97   */\n      swap2\n      swap1\n      pop\n      jump\t// out\n        /* \"#utility.yul\":103:212   */\n    tag_86:\n        /* \"#utility.yul\":184:205   */\n      tag_122\n        /* \"#utility.yul\":199:204   */\n      dup2\n        /* \"#utility.yul\":184:205   */\n      tag_85\n      jump\t// in\n    tag_122:\n        /* \"#utility.yul\":179:182   */\n      dup3\n        /* \"#utility.yul\":172:206   */\n      mstore\n        /* \"#utility.yul\":103:212   */\n      pop\n      pop\n      jump\t// out\n        /* \"#utility.yul\":218:428   */\n    tag_18:\n        /* \"#utility.yul\":305:309   */\n      0x00\n        /* \"#utility.yul\":343:345   */\n      0x20\n        /* \"#utility.yul\":332:341   */\n      dup3\n        /* \"#utility.yul\":328:346   */\n      add\n        /* \"#utility.yul\":320:346   */\n      swap1\n      pop\n        /* \"#utility.yul\":356:421   */\n      tag_124\n        /* \"#utility.yul\":418:419   */\n      0x00\n        /* \"#utility.yul\":407:416   */\n      dup4\n        /* \"#utility.yul\":403:420   */\n      add\n        /* \"#utility.yul\":394:400   */\n      dup5\n        /* \"#utility.yul\":356:421   */\n      tag_86\n      jump\t// in\n    tag_124:\n        /* \"#utility.yul\":218:428   */\n      swap3\n      swap2\n      pop\n      pop\n      jump\t// out\n        /* \"#utility.yul\":434:560   */\n    tag_87:\n        /* \"#utility.yul\":471:478   */\n      0x00\n        /* \"#utility.yul\":511:553   */\n      0xffffffffffffffffffffffffffffffffffffffff\n        /* \"#utility.yul\":504:509   */\n      dup3\n        /* \"#utility.yul\":500:554   */\n      and\n        /* \"#utility.yul\":489:554   */\n      swap1\n      pop\n        /* \"#utility.yul\":434:560   */\n      swap2\n      swap1\n      pop\n      jump\t// out\n        /* \"#utility.yul\":566:662   */\n    tag_88:\n        /* \"#utility.yul\":603:610   */\n      0x00\n        /* \"#utility.yul\":632:656   */\n      tag_127\n        /* \"#utility.yul\":650:655   */\n      dup3\n        /* \"#utility.yul\":632:656   */\n      tag_87\n      jump\t// in\n    tag_127:\n        /* \"#utility.yul\":621:656   */\n      swap1\n      pop\n        /* \"#utility.yul\":566:662   */\n      swap2\n      swap1\n      pop\n      jump\t// out\n        /* \"#utility.yul\":668:786   */\n    tag_89:\n        /* \"#utility.yul\":755:779   */\n      tag_129\n        /* \"#utility.yul\":773:778   */\n      dup2\n        /* \"#utility.yul\":755:779   */\n      tag_88\n      jump\t// in\n    tag_129:\n        /* \"#utility.yul\":750:753   */\n      dup3\n        /* \"#utility.yul\":743:780   */\n      mstore\n        /* \"#utility.yul\":668:786   */\n      pop\n      pop\n      jump\t// out\n        /* \"#utility.yul\":792:1014   */\n    tag_22:\n        /* \"#utility.yul\":885:889   */\n      0x00\n        /* \"#utility.yul\":923:925   */\n      0x20\n        /* \"#utility.yul\":912:921   */\n      dup3\n        /* \"#utility.yul\":908:926   */\n      add\n        /* \"#utility.yul\":900:926   */\n      swap1\n      pop\n        /* \"#utility.yul\":936:1007   */\n      tag_131\n        /* \"#utility.yul\":1004:1005   */\n      0x00\n        /* \"#utility.yul\":993:1002   */\n      dup4\n        /* \"#utility.yul\":989:1006   */\n      add\n        /* \"#utility.yul\":980:986   */\n      dup5\n        /* \"#utility.yul\":936:1007   */\n      tag_89\n      jump\t// in\n    tag_131:\n        /* \"#utility.yul\":792:1014   */\n      swap3\n      swap2\n      pop\n      pop\n      jump\t// out\n        /* \"#utility.yul\":1020:1200   */\n    tag_90:\n        /* \"#utility.yul\":1068:1145   */\n      0x4e487b7100000000000000000000000000000000000000000000000000000000\n        /* \"#utility.yul\":1065:1066   */\n      0x00\n        /* \"#utility.yul\":1058:1146   */\n      mstore\n        /* \"#utility.yul\":1165:1169   */\n      0x21\n        /* \"#utility.yul\":1162:1163   */\n      0x04\n        /* \"#utility.yul\":1155:1170   */\n      mstore\n        /* \"#utility.yul\":1189:1193   */\n      0x24\n        /* \"#utility.yul\":1186:1187   */\n      0x00\n        /* \"#utility.yul\":1179:1194   */\n      revert\n        /* \"#utility.yul\":1206:1327   */\n    tag_91:\n        /* \"#utility.yul\":1295:1296   */\n      0x07\n        /* \"#utility.yul\":1288:1293   */\n      dup2\n        /* \"#utility.yul\":1285:1297   */\n      lt\n        /* \"#utility.yul\":1275:1321   */\n      tag_134\n      jumpi\n        /* \"#utility.yul\":1301:1319   */\n      tag_135\n      tag_90\n      jump\t// in\n    tag_135:\n        /* \"#utility.yul\":1275:1321   */\n    tag_134:\n        /* \"#utility.yul\":1206:1327   */\n      pop\n      jump\t// out\n        /* \"#utility.yul\":1333:1476   */\n    tag_92:\n        /* \"#utility.yul\":1386:1393   */\n      0x00\n        /* \"#utility.yul\":1415:1420   */\n      dup2\n        /* \"#utility.yul\":1404:1420   */\n      swap1\n      pop\n        /* \"#utility.yul\":1421:1470   */\n      tag_137\n        /* \"#utility.yul\":1464:1469   */\n      dup3\n        /* \"#utility.yul\":1421:1470   */\n      tag_91\n      jump\t// in\n    tag_137:\n        /* \"#utility.yul\":1333:1476   */\n      swap2\n      swap1\n      pop\n      jump\t// out\n        /* \"#utility.yul\":1482:1625   */\n    tag_93:\n        /* \"#utility.yul\":1546:1555   */\n      0x00\n        /* \"#utility.yul\":1579:1619   */\n      tag_139\n        /* \"#utility.yul\":1613:1618   */\n      dup3\n        /* \"#utility.yul\":1579:1619   */\n      tag_92\n      jump\t// in\n    tag_139:\n        /* \"#utility.yul\":1566:1619   */\n      swap1\n      pop\n        /* \"#utility.yul\":1482:1625   */\n      swap2\n      swap1\n      pop\n      jump\t// out\n        /* \"#utility.yul\":1631:1790   */\n    tag_94:\n        /* \"#utility.yul\":1732:1783   */\n      tag_141\n        /* \"#utility.yul\":1777:1782   */\n      dup2\n        /* \"#utility.yul\":1732:1783   */\n      tag_93\n      jump\t// in\n    tag_141:\n        /* \"#utility.yul\":1727:1730   */\n      dup3\n        /* \"#utility.yul\":1720:1784   */\n      mstore\n        /* \"#utility.yul\":1631:1790   */\n      pop\n      pop\n      jump\t// out\n        /* \"#utility.yul\":1796:2046   */\n    tag_26:\n        /* \"#utility.yul\":1903:1907   */\n      0x00\n        /* \"#utility.yul\":1941:1943   */\n      0x20\n        /* \"#utility.yul\":1930:1939   */\n      dup3\n        /* \"#utility.yul\":1926:1944   */\n      add\n        /* \"#utility.yul\":1918:1944   */\n      swap1\n      pop\n        /* \"#utility.yul\":1954:2039   */\n      tag_143\n        /* \"#utility.yul\":2036:2037   */\n      0x00\n        /* \"#utility.yul\":2025:2034   */\n      dup4\n        /* \"#utility.yul\":2021:2038   */\n      add\n        /* \"#utility.yul\":2012:2018   */\n      dup5\n        /* \"#utility.yul\":1954:2039   */\n      tag_94\n      jump\t// in\n    tag_143:\n        /* \"#utility.yul\":1796:2046   */\n      swap3\n      swap2\n      pop\n      pop\n      jump\t// out\n        /* \"#utility.yul\":2052:2129   */\n    tag_95:\n        /* \"#utility.yul\":2089:2096   */\n      0x00\n        /* \"#utility.yul\":2118:2123   */\n      dup2\n        /* \"#utility.yul\":2107:2123   */\n      swap1\n      pop\n        /* \"#utility.yul\":2052:2129   */\n      swap2\n      swap1\n      pop\n      jump\t// out\n        /* \"#utility.yul\":2135:2253   */\n    tag_96:\n        /* \"#utility.yul\":2222:2246   */\n      tag_146\n        /* \"#utility.yul\":2240:2245   */\n      dup2\n        /* \"#utility.yul\":2222:2246   */\n      tag_95\n      jump\t// in\n    tag_146:\n        /* \"#utility.yul\":2217:2220   */\n      dup3\n        /* \"#utility.yul\":2210:2247   */\n      mstore\n        /* \"#utility.yul\":2135:2253   */\n      pop\n      pop\n      jump\t// out\n        /* \"#utility.yul\":2259:2358   */\n    tag_97:\n        /* \"#utility.yul\":2311:2317   */\n      0x00\n        /* \"#utility.yul\":2345:2350   */\n      dup2\n        /* \"#utility.yul\":2339:2351   */\n      mload\n        /* \"#utility.yul\":2329:2351   */\n      swap1\n      pop\n        /* \"#utility.yul\":2259:2358   */\n      swap2\n      swap1\n      pop\n      jump\t// out\n        /* \"#utility.yul\":2364:2533   */\n    tag_98:\n        /* \"#utility.yul\":2448:2459   */\n      0x00\n        /* \"#utility.yul\":2482:2488   */\n      dup3\n        /* \"#utility.yul\":2477:2480   */\n      dup3\n        /* \"#utility.yul\":2470:2489   */\n      mstore\n        /* \"#utility.yul\":2522:2526   */\n      0x20\n        /* \"#utility.yul\":2517:2520   */\n      dup3\n        /* \"#utility.yul\":2513:2527   */\n      add\n        /* \"#utility.yul\":2498:2527   */\n      swap1\n      pop\n        /* \"#utility.yul\":2364:2533   */\n      swap3\n      swap2\n      pop\n      pop\n      jump\t// out\n        /* \"#utility.yul\":2539:2846   */\n    tag_99:\n        /* \"#utility.yul\":2607:2608   */\n      0x00\n        /* \"#utility.yul\":2617:2730   */\n    tag_150:\n        /* \"#utility.yul\":2631:2637   */\n      dup4\n        /* \"#utility.yul\":2628:2629   */\n      dup2\n        /* \"#utility.yul\":2625:2638   */\n      lt\n        /* \"#utility.yul\":2617:2730   */\n      iszero\n      tag_152\n      jumpi\n        /* \"#utility.yul\":2716:2717   */\n      dup1\n        /* \"#utility.yul\":2711:2714   */\n      dup3\n        /* \"#utility.yul\":2707:2718   */\n      add\n        /* \"#utility.yul\":2701:2719   */\n      mload\n        /* \"#utility.yul\":2697:2698   */\n      dup2\n        /* \"#utility.yul\":2692:2695   */\n      dup5\n        /* \"#utility.yul\":2688:2699   */\n      add\n        /* \"#utility.yul\":2681:2720   */\n      mstore\n        /* \"#utility.yul\":2653:2655   */\n      0x20\n        /* \"#utility.yul\":2650:2651   */\n      dup2\n        /* \"#utility.yul\":2646:2656   */\n      add\n        /* \"#utility.yul\":2641:2656   */\n      swap1\n      pop\n        /* \"#utility.yul\":2617:2730   */\n      jump(tag_150)\n    tag_152:\n        /* \"#utility.yul\":2748:2754   */\n      dup4\n        /* \"#utility.yul\":2745:2746   */\n      dup2\n        /* \"#utility.yul\":2742:2755   */\n      gt\n        /* \"#utility.yul\":2739:2840   */\n      iszero\n      tag_153\n      jumpi\n        /* \"#utility.yul\":2828:2829   */\n      0x00\n        /* \"#utility.yul\":2819:2825   */\n      dup5\n        /* \"#utility.yul\":2814:2817   */\n      dup5\n        /* \"#utility.yul\":2810:2826   */\n      add\n        /* \"#utility.yul\":2803:2830   */\n      mstore\n        /* \"#utility.yul\":2739:2840   */\n    tag_153:\n        /* \"#utility.yul\":2588:2846   */\n      pop\n        /* \"#utility.yul\":2539:2846   */\n      pop\n      pop\n      pop\n      jump\t// out\n        /* \"#utility.yul\":2852:2954   */\n    tag_100:\n        /* \"#utility.yul\":2893:2899   */\n      0x00\n        /* \"#utility.yul\":2944:2946   */\n      0x1f\n        /* \"#utility.yul\":2940:2947   */\n      not\n        /* \"#utility.yul\":2935:2937   */\n      0x1f\n        /* \"#utility.yul\":2928:2933   */\n      dup4\n        /* \"#utility.yul\":2924:2938   */\n      add\n        /* \"#utility.yul\":2920:2948   */\n      and\n        /* \"#utility.yul\":2910:2948   */\n      swap1\n      pop\n        /* \"#utility.yul\":2852:2954   */\n      swap2\n      swap1\n      pop\n      jump\t// out\n        /* \"#utility.yul\":2960:3324   */\n    tag_101:\n        /* \"#utility.yul\":3048:3051   */\n      0x00\n        /* \"#utility.yul\":3076:3115   */\n      tag_156\n        /* \"#utility.yul\":3109:3114   */\n      dup3\n        /* \"#utility.yul\":3076:3115   */\n      tag_97\n      jump\t// in\n    tag_156:\n        /* \"#utility.yul\":3131:3202   */\n      tag_157\n        /* \"#utility.yul\":3195:3201   */\n      dup2\n        /* \"#utility.yul\":3190:3193   */\n      dup6\n        /* \"#utility.yul\":3131:3202   */\n      tag_98\n      jump\t// in\n    tag_157:\n        /* \"#utility.yul\":3124:3202   */\n      swap4\n      pop\n        /* \"#utility.yul\":3211:3263   */\n      tag_158\n        /* \"#utility.yul\":3256:3262   */\n      dup2\n        /* \"#utility.yul\":3251:3254   */\n      dup6\n        /* \"#utility.yul\":3244:3248   */\n      0x20\n        /* \"#utility.yul\":3237:3242   */\n      dup7\n        /* \"#utility.yul\":3233:3249   */\n      add\n        /* \"#utility.yul\":3211:3263   */\n      tag_99\n      jump\t// in\n    tag_158:\n        /* \"#utility.yul\":3288:3317   */\n      tag_159\n        /* \"#utility.yul\":3310:3316   */\n      dup2\n        /* \"#utility.yul\":3288:3317   */\n      tag_100\n      jump\t// in\n    tag_159:\n        /* \"#utility.yul\":3283:3286   */\n      dup5\n        /* \"#utility.yul\":3279:3318   */\n      add\n        /* \"#utility.yul\":3272:3318   */\n      swap2\n      pop\n        /* \"#utility.yul\":3052:3324   */\n      pop\n        /* \"#utility.yul\":2960:3324   */\n      swap3\n      swap2\n      pop\n      pop\n      jump\t// out\n        /* \"#utility.yul\":3330:3863   */\n    tag_30:\n        /* \"#utility.yul\":3499:3503   */\n      0x00\n        /* \"#utility.yul\":3537:3539   */\n      0x60\n        /* \"#utility.yul\":3526:3535   */\n      dup3\n        /* \"#utility.yul\":3522:3540   */\n      add\n        /* \"#utility.yul\":3514:3540   */\n      swap1\n      pop\n        /* \"#utility.yul\":3550:3621   */\n      tag_161\n        /* \"#utility.yul\":3618:3619   */\n      0x00\n        /* \"#utility.yul\":3607:3616   */\n      dup4\n        /* \"#utility.yul\":3603:3620   */\n      add\n        /* \"#utility.yul\":3594:3600   */\n      dup7\n        /* \"#utility.yul\":3550:3621   */\n      tag_96\n      jump\t// in\n    tag_161:\n        /* \"#utility.yul\":3631:3703   */\n      tag_162\n        /* \"#utility.yul\":3699:3701   */\n      0x20\n        /* \"#utility.yul\":3688:3697   */\n      dup4\n        /* \"#utility.yul\":3684:3702   */\n      add\n        /* \"#utility.yul\":3675:3681   */\n      dup6\n        /* \"#utility.yul\":3631:3703   */\n      tag_96\n      jump\t// in\n    tag_162:\n        /* \"#utility.yul\":3750:3759   */\n      dup2\n        /* \"#utility.yul\":3744:3748   */\n      dup2\n        /* \"#utility.yul\":3740:3760   */\n      sub\n        /* \"#utility.yul\":3735:3737   */\n      0x40\n        /* \"#utility.yul\":3724:3733   */\n      dup4\n        /* \"#utility.yul\":3720:3738   */\n      add\n        /* \"#utility.yul\":3713:3761   */\n      mstore\n        /* \"#utility.yul\":3778:3856   */\n      tag_163\n        /* \"#utility.yul\":3851:3855   */\n      dup2\n        /* \"#utility.yul\":3842:3848   */\n      dup5\n        /* \"#utility.yul\":3778:3856   */\n      tag_101\n      jump\t// in\n    tag_163:\n        /* \"#utility.yul\":3770:3856   */\n      swap1\n      pop\n        /* \"#utility.yul\":3330:3863   */\n      swap5\n      swap4\n      pop\n      pop\n      pop\n      pop\n      jump\t// out\n        /* \"#utility.yul\":3869:3945   */\n    tag_102:\n        /* \"#utility.yul\":3905:3912   */\n      0x00\n        /* \"#utility.yul\":3934:3939   */\n      dup2\n        /* \"#utility.yul\":3923:3939   */\n      swap1\n      pop\n        /* \"#utility.yul\":3869:3945   */\n      swap2\n      swap1\n      pop\n      jump\t// out\n        /* \"#utility.yul\":3951:4066   */\n    tag_103:\n        /* \"#utility.yul\":4036:4059   */\n      tag_166\n        /* \"#utility.yul\":4053:4058   */\n      dup2\n        /* \"#utility.yul\":4036:4059   */\n      tag_102\n      jump\t// in\n    tag_166:\n        /* \"#utility.yul\":4031:4034   */\n      dup3\n        /* \"#utility.yul\":4024:4060   */\n      mstore\n        /* \"#utility.yul\":3951:4066   */\n      pop\n      pop\n      jump\t// out\n        /* \"#utility.yul\":4072:4290   */\n    tag_34:\n        /* \"#utility.yul\":4163:4167   */\n      0x00\n        /* \"#utility.yul\":4201:4203   */\n      0x20\n        /* \"#utility.yul\":4190:4199   */\n      dup3\n        /* \"#utility.yul\":4186:4204   */\n      add\n        /* \"#utility.yul\":4178:4204   */\n      swap1\n      pop\n        /* \"#utility.yul\":4214:4283   */\n      tag_168\n        /* \"#utility.yul\":4280:4281   */\n      0x00\n        /* \"#utility.yul\":4269:4278   */\n      dup4\n        /* \"#utility.yul\":4265:4282   */\n      add\n        /* \"#utility.yul\":4256:4262   */\n      dup5\n        /* \"#utility.yul\":4214:4283   */\n      tag_103\n      jump\t// in\n    tag_168:\n        /* \"#utility.yul\":4072:4290   */\n      swap3\n      swap2\n      pop\n      pop\n      jump\t// out\n        /* \"#utility.yul\":4296:4371   */\n    tag_104:\n        /* \"#utility.yul\":4329:4335   */\n      0x00\n        /* \"#utility.yul\":4362:4364   */\n      0x40\n        /* \"#utility.yul\":4356:4365   */\n      mload\n        /* \"#utility.yul\":4346:4365   */\n      swap1\n      pop\n        /* \"#utility.yul\":4296:4371   */\n      swap1\n      jump\t// out\n        /* \"#utility.yul\":4377:4494   */\n    tag_105:\n        /* \"#utility.yul\":4486:4487   */\n      0x00\n        /* \"#utility.yul\":4483:4484   */\n      dup1\n        /* \"#utility.yul\":4476:4488   */\n      revert\n        /* \"#utility.yul\":4500:4617   */\n    tag_106:\n        /* \"#utility.yul\":4609:4610   */\n      0x00\n        /* \"#utility.yul\":4606:4607   */\n      dup1\n        /* \"#utility.yul\":4599:4611   */\n      revert\n        /* \"#utility.yul\":4623:4740   */\n    tag_107:\n        /* \"#utility.yul\":4732:4733   */\n      0x00\n        /* \"#utility.yul\":4729:4730   */\n      dup1\n        /* \"#utility.yul\":4722:4734   */\n      revert\n        /* \"#utility.yul\":4746:4863   */\n    tag_108:\n        /* \"#utility.yul\":4855:4856   */\n      0x00\n        /* \"#utility.yul\":4852:4853   */\n      dup1\n        /* \"#utility.yul\":4845:4857   */\n      revert\n        /* \"#utility.yul\":4869:5049   */\n    tag_109:\n        /* \"#utility.yul\":4917:4994   */\n      0x4e487b7100000000000000000000000000000000000000000000000000000000\n        /* \"#utility.yul\":4914:4915   */\n      0x00\n        /* \"#utility.yul\":4907:4995   */\n      mstore\n        /* \"#utility.yul\":5014:5018   */\n      0x41\n        /* \"#utility.yul\":5011:5012   */\n      0x04\n        /* \"#utility.yul\":5004:5019   */\n      mstore\n        /* \"#utility.yul\":5038:5042   */\n      0x24\n        /* \"#utility.yul\":5035:5036   */\n      0x00\n        /* \"#utility.yul\":5028:5043   */\n      revert\n        /* \"#utility.yul\":5055:5336   */\n    tag_110:\n        /* \"#utility.yul\":5138:5165   */\n      tag_176\n        /* \"#utility.yul\":5160:5164   */\n      dup3\n        /* \"#utility.yul\":5138:5165   */\n      tag_100\n      jump\t// in\n    tag_176:\n        /* \"#utility.yul\":5130:5136   */\n      dup2\n        /* \"#utility.yul\":5126:5166   */\n      add\n        /* \"#utility.yul\":5268:5274   */\n      dup2\n        /* \"#utility.yul\":5256:5266   */\n      dup2\n        /* \"#utility.yul\":5253:5275   */\n      lt\n        /* \"#utility.yul\":5232:5250   */\n      0xffffffffffffffff\n        /* \"#utility.yul\":5220:5230   */\n      dup3\n        /* \"#utility.yul\":5217:5251   */\n      gt\n        /* \"#utility.yul\":5214:5276   */\n      or\n        /* \"#utility.yul\":5211:5299   */\n      iszero\n      tag_177\n      jumpi\n        /* \"#utility.yul\":5279:5297   */\n      tag_178\n      tag_109\n      jump\t// in\n    tag_178:\n        /* \"#utility.yul\":5211:5299   */\n    tag_177:\n        /* \"#utility.yul\":5319:5329   */\n      dup1\n        /* \"#utility.yul\":5315:5317   */\n      0x40\n        /* \"#utility.yul\":5308:5330   */\n      mstore\n        /* \"#utility.yul\":5098:5336   */\n      pop\n        /* \"#utility.yul\":5055:5336   */\n      pop\n      pop\n      jump\t// out\n        /* \"#utility.yul\":5342:5471   */\n    tag_111:\n        /* \"#utility.yul\":5376:5382   */\n      0x00\n        /* \"#utility.yul\":5403:5423   */\n      tag_180\n      tag_104\n      jump\t// in\n    tag_180:\n        /* \"#utility.yul\":5393:5423   */\n      swap1\n      pop\n        /* \"#utility.yul\":5432:5465   */\n      tag_181\n        /* \"#utility.yul\":5460:5464   */\n      dup3\n        /* \"#utility.yul\":5452:5458   */\n      dup3\n        /* \"#utility.yul\":5432:5465   */\n      tag_110\n      jump\t// in\n    tag_181:\n        /* \"#utility.yul\":5342:5471   */\n      swap2\n      swap1\n      pop\n      jump\t// out\n        /* \"#utility.yul\":5477:5785   */\n    tag_112:\n        /* \"#utility.yul\":5539:5543   */\n      0x00\n        /* \"#utility.yul\":5629:5647   */\n      0xffffffffffffffff\n        /* \"#utility.yul\":5621:5627   */\n      dup3\n        /* \"#utility.yul\":5618:5648   */\n      gt\n        /* \"#utility.yul\":5615:5671   */\n      iszero\n      tag_183\n      jumpi\n        /* \"#utility.yul\":5651:5669   */\n      tag_184\n      tag_109\n      jump\t// in\n    tag_184:\n        /* \"#utility.yul\":5615:5671   */\n    tag_183:\n        /* \"#utility.yul\":5689:5718   */\n      tag_185\n        /* \"#utility.yul\":5711:5717   */\n      dup3\n        /* \"#utility.yul\":5689:5718   */\n      tag_100\n      jump\t// in\n    tag_185:\n        /* \"#utility.yul\":5681:5718   */\n      swap1\n      pop\n        /* \"#utility.yul\":5773:5777   */\n      0x20\n        /* \"#utility.yul\":5767:5771   */\n      dup2\n        /* \"#utility.yul\":5763:5778   */\n      add\n        /* \"#utility.yul\":5755:5778   */\n      swap1\n      pop\n        /* \"#utility.yul\":5477:5785   */\n      swap2\n      swap1\n      pop\n      jump\t// out\n        /* \"#utility.yul\":5791:5945   */\n    tag_113:\n        /* \"#utility.yul\":5875:5881   */\n      dup3\n        /* \"#utility.yul\":5870:5873   */\n      dup2\n        /* \"#utility.yul\":5865:5868   */\n      dup4\n        /* \"#utility.yul\":5852:5882   */\n      calldatacopy\n        /* \"#utility.yul\":5937:5938   */\n      0x00\n        /* \"#utility.yul\":5928:5934   */\n      dup4\n        /* \"#utility.yul\":5923:5926   */\n      dup4\n        /* \"#utility.yul\":5919:5935   */\n      add\n        /* \"#utility.yul\":5912:5939   */\n      mstore\n        /* \"#utility.yul\":5791:5945   */\n      pop\n      pop\n      pop\n      jump\t// out\n        /* \"#utility.yul\":5951:6363   */\n    tag_114:\n        /* \"#utility.yul\":6029:6034   */\n      0x00\n        /* \"#utility.yul\":6054:6120   */\n      tag_188\n        /* \"#utility.yul\":6070:6119   */\n      tag_189\n        /* \"#utility.yul\":6112:6118   */\n      dup5\n        /* \"#utility.yul\":6070:6119   */\n      tag_112\n      jump\t// in\n    tag_189:\n        /* \"#utility.yul\":6054:6120   */\n      tag_111\n      jump\t// in\n    tag_188:\n        /* \"#utility.yul\":6045:6120   */\n      swap1\n      pop\n        /* \"#utility.yul\":6143:6149   */\n      dup3\n        /* \"#utility.yul\":6136:6141   */\n      dup2\n        /* \"#utility.yul\":6129:6150   */\n      mstore\n        /* \"#utility.yul\":6181:6185   */\n      0x20\n        /* \"#utility.yul\":6174:6179   */\n      dup2\n        /* \"#utility.yul\":6170:6186   */\n      add\n        /* \"#utility.yul\":6219:6222   */\n      dup5\n        /* \"#utility.yul\":6210:6216   */\n      dup5\n        /* \"#utility.yul\":6205:6208   */\n      dup5\n        /* \"#utility.yul\":6201:6217   */\n      add\n        /* \"#utility.yul\":6198:6223   */\n      gt\n        /* \"#utility.yul\":6195:6307   */\n      iszero\n      tag_190\n      jumpi\n        /* \"#utility.yul\":6226:6305   */\n      tag_191\n      tag_108\n      jump\t// in\n    tag_191:\n        /* \"#utility.yul\":6195:6307   */\n    tag_190:\n        /* \"#utility.yul\":6316:6357   */\n      tag_192\n        /* \"#utility.yul\":6350:6356   */\n      dup5\n        /* \"#utility.yul\":6345:6348   */\n      dup3\n        /* \"#utility.yul\":6340:6343   */\n      dup6\n        /* \"#utility.yul\":6316:6357   */\n      tag_113\n      jump\t// in\n    tag_192:\n        /* \"#utility.yul\":6035:6363   */\n      pop\n        /* \"#utility.yul\":5951:6363   */\n      swap4\n      swap3\n      pop\n      pop\n      pop\n      jump\t// out\n        /* \"#utility.yul\":6383:6723   */\n    tag_115:\n        /* \"#utility.yul\":6439:6444   */\n      0x00\n        /* \"#utility.yul\":6488:6491   */\n      dup3\n        /* \"#utility.yul\":6481:6485   */\n      0x1f\n        /* \"#utility.yul\":6473:6479   */\n      dup4\n        /* \"#utility.yul\":6469:6486   */\n      add\n        /* \"#utility.yul\":6465:6492   */\n      slt\n        /* \"#utility.yul\":6455:6577   */\n      tag_194\n      jumpi\n        /* \"#utility.yul\":6496:6575   */\n      tag_195\n      tag_107\n      jump\t// in\n    tag_195:\n        /* \"#utility.yul\":6455:6577   */\n    tag_194:\n        /* \"#utility.yul\":6613:6619   */\n      dup2\n        /* \"#utility.yul\":6600:6620   */\n      calldataload\n        /* \"#utility.yul\":6638:6717   */\n      tag_196\n        /* \"#utility.yul\":6713:6716   */\n      dup5\n        /* \"#utility.yul\":6705:6711   */\n      dup3\n        /* \"#utility.yul\":6698:6702   */\n      0x20\n        /* \"#utility.yul\":6690:6696   */\n      dup7\n        /* \"#utility.yul\":6686:6703   */\n      add\n        /* \"#utility.yul\":6638:6717   */\n      tag_114\n      jump\t// in\n    tag_196:\n        /* \"#utility.yul\":6629:6717   */\n      swap2\n      pop\n        /* \"#utility.yul\":6445:6723   */\n      pop\n        /* \"#utility.yul\":6383:6723   */\n      swap3\n      swap2\n      pop\n      pop\n      jump\t// out\n        /* \"#utility.yul\":6729:7238   */\n    tag_37:\n        /* \"#utility.yul\":6798:6804   */\n      0x00\n        /* \"#utility.yul\":6847:6849   */\n      0x20\n        /* \"#utility.yul\":6835:6844   */\n      dup3\n        /* \"#utility.yul\":6826:6833   */\n      dup5\n        /* \"#utility.yul\":6822:6845   */\n      sub\n        /* \"#utility.yul\":6818:6850   */\n      slt\n        /* \"#utility.yul\":6815:6934   */\n      iszero\n      tag_198\n      jumpi\n        /* \"#utility.yul\":6853:6932   */\n      tag_199\n      tag_105\n      jump\t// in\n    tag_199:\n        /* \"#utility.yul\":6815:6934   */\n    tag_198:\n        /* \"#utility.yul\":7001:7002   */\n      0x00\n        /* \"#utility.yul\":6990:6999   */\n      dup3\n        /* \"#utility.yul\":6986:7003   */\n      add\n        /* \"#utility.yul\":6973:7004   */\n      calldataload\n        /* \"#utility.yul\":7031:7049   */\n      0xffffffffffffffff\n        /* \"#utility.yul\":7023:7029   */\n      dup2\n        /* \"#utility.yul\":7020:7050   */\n      gt\n        /* \"#utility.yul\":7017:7134   */\n      iszero\n      tag_200\n      jumpi\n        /* \"#utility.yul\":7053:7132   */\n      tag_201\n      tag_106\n      jump\t// in\n    tag_201:\n        /* \"#utility.yul\":7017:7134   */\n    tag_200:\n        /* \"#utility.yul\":7158:7221   */\n      tag_202\n        /* \"#utility.yul\":7213:7220   */\n      dup5\n        /* \"#utility.yul\":7204:7210   */\n      dup3\n        /* \"#utility.yul\":7193:7202   */\n      dup6\n        /* \"#utility.yul\":7189:7211   */\n      add\n        /* \"#utility.yul\":7158:7221   */\n      tag_115\n      jump\t// in\n    tag_202:\n        /* \"#utility.yul\":7148:7221   */\n      swap2\n      pop\n        /* \"#utility.yul\":6944:7231   */\n      pop\n        /* \"#utility.yul\":6729:7238   */\n      swap3\n      swap2\n      pop\n      pop\n      jump\t// out\n        /* \"#utility.yul\":7244:7466   */\n    tag_43:\n        /* \"#utility.yul\":7337:7341   */\n      0x00\n        /* \"#utility.yul\":7375:7377   */\n      0x20\n        /* \"#utility.yul\":7364:7373   */\n      dup3\n        /* \"#utility.yul\":7360:7378   */\n      add\n        /* \"#utility.yul\":7352:7378   */\n      swap1\n      pop\n        /* \"#utility.yul\":7388:7459   */\n      tag_204\n        /* \"#utility.yul\":7456:7457   */\n      0x00\n        /* \"#utility.yul\":7445:7454   */\n      dup4\n        /* \"#utility.yul\":7441:7458   */\n      add\n        /* \"#utility.yul\":7432:7438   */\n      dup5\n        /* \"#utility.yul\":7388:7459   */\n      tag_96\n      jump\t// in\n    tag_204:\n        /* \"#utility.yul\":7244:7466   */\n      swap3\n      swap2\n      pop\n      pop\n      jump\t// out\n        /* \"#utility.yul\":7472:7785   */\n    tag_47:\n        /* \"#utility.yul\":7585:7589   */\n      0x00\n        /* \"#utility.yul\":7623:7625   */\n      0x20\n        /* \"#utility.yul\":7612:7621   */\n      dup3\n        /* \"#utility.yul\":7608:7626   */\n      add\n        /* \"#utility.yul\":7600:7626   */\n      swap1\n      pop\n        /* \"#utility.yul\":7672:7681   */\n      dup2\n        /* \"#utility.yul\":7666:7670   */\n      dup2\n        /* \"#utility.yul\":7662:7682   */\n      sub\n        /* \"#utility.yul\":7658:7659   */\n      0x00\n        /* \"#utility.yul\":7647:7656   */\n      dup4\n        /* \"#utility.yul\":7643:7660   */\n      add\n        /* \"#utility.yul\":7636:7683   */\n      mstore\n        /* \"#utility.yul\":7700:7778   */\n      tag_206\n        /* \"#utility.yul\":7773:7777   */\n      dup2\n        /* \"#utility.yul\":7764:7770   */\n      dup5\n        /* \"#utility.yul\":7700:7778   */\n      tag_101\n      jump\t// in\n    tag_206:\n        /* \"#utility.yul\":7692:7778   */\n      swap1\n      pop\n        /* \"#utility.yul\":7472:7785   */\n      swap3\n      swap2\n      pop\n      pop\n      jump\t// out\n        /* \"#utility.yul\":7791:7913   */\n    tag_116:\n        /* \"#utility.yul\":7864:7888   */\n      tag_208\n        /* \"#utility.yul\":7882:7887   */\n      dup2\n        /* \"#utility.yul\":7864:7888   */\n      tag_95\n      jump\t// in\n    tag_208:\n        /* \"#utility.yul\":7857:7862   */\n      dup2\n        /* \"#utility.yul\":7854:7889   */\n      eq\n        /* \"#utility.yul\":7844:7907   */\n      tag_209\n      jumpi\n        /* \"#utility.yul\":7903:7904   */\n      0x00\n        /* \"#utility.yul\":7900:7901   */\n      dup1\n        /* \"#utility.yul\":7893:7905   */\n      revert\n        /* \"#utility.yul\":7844:7907   */\n    tag_209:\n        /* \"#utility.yul\":7791:7913   */\n      pop\n      jump\t// out\n        /* \"#utility.yul\":7919:8058   */\n    tag_117:\n        /* \"#utility.yul\":7965:7970   */\n      0x00\n        /* \"#utility.yul\":8003:8009   */\n      dup2\n        /* \"#utility.yul\":7990:8010   */\n      calldataload\n        /* \"#utility.yul\":7981:8010   */\n      swap1\n      pop\n        /* \"#utility.yul\":8019:8052   */\n      tag_211\n        /* \"#utility.yul\":8046:8051   */\n      dup2\n        /* \"#utility.yul\":8019:8052   */\n      tag_116\n      jump\t// in\n    tag_211:\n        /* \"#utility.yul\":7919:8058   */\n      swap3\n      swap2\n      pop\n      pop\n      jump\t// out\n        /* \"#utility.yul\":8064:8393   */\n    tag_50:\n        /* \"#utility.yul\":8123:8129   */\n      0x00\n        /* \"#utility.yul\":8172:8174   */\n      0x20\n        /* \"#utility.yul\":8160:8169   */\n      dup3\n        /* \"#utility.yul\":8151:8158   */\n      dup5\n        /* \"#utility.yul\":8147:8170   */\n      sub\n        /* \"#utility.yul\":8143:8175   */\n      slt\n        /* \"#utility.yul\":8140:8259   */\n      iszero\n      tag_213\n      jumpi\n        /* \"#utility.yul\":8178:8257   */\n      tag_214\n      tag_105\n      jump\t// in\n    tag_214:\n        /* \"#utility.yul\":8140:8259   */\n    tag_213:\n        /* \"#utility.yul\":8298:8299   */\n      0x00\n        /* \"#utility.yul\":8323:8376   */\n      tag_215\n        /* \"#utility.yul\":8368:8375   */\n      dup5\n        /* \"#utility.yul\":8359:8365   */\n      dup3\n        /* \"#utility.yul\":8348:8357   */\n      dup6\n        /* \"#utility.yul\":8344:8366   */\n      add\n        /* \"#utility.yul\":8323:8376   */\n      tag_117\n      jump\t// in\n    tag_215:\n        /* \"#utility.yul\":8313:8376   */\n      swap2\n      pop\n        /* \"#utility.yul\":8269:8386   */\n      pop\n        /* \"#utility.yul\":8064:8393   */\n      swap3\n      swap2\n      pop\n      pop\n      jump\t// out\n        /* \"#utility.yul\":8399:8579   */\n    tag_118:\n        /* \"#utility.yul\":8447:8524   */\n      0x4e487b7100000000000000000000000000000000000000000000000000000000\n        /* \"#utility.yul\":8444:8445   */\n      0x00\n        /* \"#utility.yul\":8437:8525   */\n      mstore\n        /* \"#utility.yul\":8544:8548   */\n      0x22\n        /* \"#utility.yul\":8541:8542   */\n      0x04\n        /* \"#utility.yul\":8534:8549   */\n      mstore\n        /* \"#utility.yul\":8568:8572   */\n      0x24\n        /* \"#utility.yul\":8565:8566   */\n      0x00\n        /* \"#utility.yul\":8558:8573   */\n      revert\n        /* \"#utility.yul\":8585:8905   */\n    tag_61:\n        /* \"#utility.yul\":8629:8635   */\n      0x00\n        /* \"#utility.yul\":8666:8667   */\n      0x02\n        /* \"#utility.yul\":8660:8664   */\n      dup3\n        /* \"#utility.yul\":8656:8668   */\n      div\n        /* \"#utility.yul\":8646:8668   */\n      swap1\n      pop\n        /* \"#utility.yul\":8713:8714   */\n      0x01\n        /* \"#utility.yul\":8707:8711   */\n      dup3\n        /* \"#utility.yul\":8703:8715   */\n      and\n        /* \"#utility.yul\":8734:8752   */\n      dup1\n        /* \"#utility.yul\":8724:8805   */\n      tag_218\n      jumpi\n        /* \"#utility.yul\":8790:8794   */\n      0x7f\n        /* \"#utility.yul\":8782:8788   */\n      dup3\n        /* \"#utility.yul\":8778:8795   */\n      and\n        /* \"#utility.yul\":8768:8795   */\n      swap2\n      pop\n        /* \"#utility.yul\":8724:8805   */\n    tag_218:\n        /* \"#utility.yul\":8852:8854   */\n      0x20\n        /* \"#utility.yul\":8844:8850   */\n      dup3\n        /* \"#utility.yul\":8841:8855   */\n      lt\n        /* \"#utility.yul\":8821:8839   */\n      dup2\n        /* \"#utility.yul\":8818:8856   */\n      sub\n        /* \"#utility.yul\":8815:8899   */\n      tag_219\n      jumpi\n        /* \"#utility.yul\":8871:8889   */\n      tag_220\n      tag_118\n      jump\t// in\n    tag_220:\n        /* \"#utility.yul\":8815:8899   */\n    tag_219:\n        /* \"#utility.yul\":8636:8905   */\n      pop\n        /* \"#utility.yul\":8585:8905   */\n      swap2\n      swap1\n      pop\n      jump\t// out\n\n    auxdata: 0xa2646970667358221220b0cda203e1f93ebfa8cb600bfd2c3e7e8b26c63ccb2e5fea378fd90d2217bb8f64736f6c634300080d0033\n}\n",
				"bytecode": {
					"linkReferences": {},
					"object": "60806040526040518060400160405280600c81526020017f48656c6c6f20576f726c64210000000000000000000000000000000000000000815250600090805190602001906200005192919062000334565b506000600160006101000a81548160ff02191690831515021790555060196002557ffffffffffffffffffffffffffffffffffffffffffffffffffffffffffffffc186003557361236de2834fdce9a4b4fa3b68dde39eca7199cb600460006101000a81548173ffffffffffffffffffffffffffffffffffffffff021916908373ffffffffffffffffffffffffffffffffffffffff1602179055506000600460146101000a81548160ff0219169083600681111562000114576200011362000503565b5b0217905550602060f81b600460156101000a81548160ff021916908360f81c021790555060405180606001604052806040518060400160405280600781526020017f4761627269656c0000000000000000000000000000000000000000000000000081525081526020016040518060400160405280600581526020017f4c7563617300000000000000000000000000000000000000000000000000000081525081526020016040518060400160405280600581526020017f4e65696b6f000000000000000000000000000000000000000000000000000000815250815250600590600362000204929190620003c5565b506040518060800160405280601e60ff168152602001601d60ff168152602001601d60ff168152602001600460ff168152506006906004620002489291906200042c565b506040518060400160405280601081526020017f5768697465626f61726443727970746f00000000000000000000000000000000815250600a90805190602001906200029692919062000334565b50604051806060016040528060038152602001600481526020016040518060400160405280600481526020017f466f726400000000000000000000000000000000000000000000000000000000815250815250600c600082015181600001556020820151816001015560408201518160020190805190602001906200031d92919062000334565b5050503480156200032d57600080fd5b5062000596565b828054620003429062000561565b90600052602060002090601f016020900481019282620003665760008555620003b2565b82601f106200038157805160ff1916838001178555620003b2565b82800160010185558215620003b2579182015b82811115620003b157825182559160200191906001019062000394565b5b509050620003c1919062000476565b5090565b82805482825590600052602060002090810192821562000419579160200282015b82811115620004185782518290805190602001906200040792919062000334565b5091602001919060010190620003e6565b5b50905062000428919062000495565b5090565b826004810192821562000463579160200282015b8281111562000462578251829060ff1690559160200191906001019062000440565b5b50905062000472919062000476565b5090565b5b808211156200049157600081600090555060010162000477565b5090565b5b80821115620004b95760008181620004af9190620004bd565b5060010162000496565b5090565b508054620004cb9062000561565b6000825580601f10620004df575062000500565b601f016020900490600052602060002090810190620004ff919062000476565b5b50565b7f4e487b7100000000000000000000000000000000000000000000000000000000600052602160045260246000fd5b7f4e487b7100000000000000000000000000000000000000000000000000000000600052602260045260246000fd5b600060028204905060018216806200057a57607f821691505b60208210810362000590576200058f62000532565b5b50919050565b610a3f80620005a66000396000f3fe608060405234801561001057600080fd5b50600436106100a95760003560e01c80633e599092116100715780633e599092146101465780636051e322146101765780637999c7ca1461019457806381f364b3146101b2578063ce146828146101e2578063cfae321714610212576100a9565b80630131b589146100ae57806304f03759146100cc57806307cd851e146100ea5780630bd4dec814610108578063377a0f5314610128575b600080fd5b6100b6610230565b6040516100c39190610554565b60405180910390f35b6100d4610243565b6040516100e191906105b0565b60405180910390f35b6100f2610269565b6040516100ff9190610642565b60405180910390f35b61011061027c565b60405161011f9392919061070f565b60405180910390f35b61013061031c565b60405161013d9190610766565b60405180910390f35b610160600480360381019061015b91906108ca565b610322565b60405161016d9190610766565b60405180910390f35b61017e610350565b60405161018b9190610913565b60405180910390f35b61019c610356565b6040516101a9919061092e565b60405180910390f35b6101cc60048036038101906101c7919061097c565b6103e4565b6040516101d99190610913565b60405180910390f35b6101fc60048036038101906101f7919061097c565b6103ff565b604051610209919061092e565b60405180910390f35b61021a6104ab565b604051610227919061092e565b60405180910390f35b600160009054906101000a900460ff1681565b600460009054906101000a900473ffffffffffffffffffffffffffffffffffffffff1681565b600460149054906101000a900460ff1681565b600c806000015490806001015490806002018054610299906109d8565b80601f01602080910402602001604051908101604052809291908181526020018280546102c5906109d8565b80156103125780601f106102e757610100808354040283529160200191610312565b820191906000526020600020905b8154815290600101906020018083116102f557829003601f168201915b5050505050905083565b60035481565b600b818051602081018201805184825260208301602085012081835280955050505050506000915090505481565b60025481565b600a8054610363906109d8565b80601f016020809104026020016040519081016040528092919081815260200182805461038f906109d8565b80156103dc5780601f106103b1576101008083540402835291602001916103dc565b820191906000526020600020905b8154815290600101906020018083116103bf57829003601f168201915b505050505081565b600681600481106103f457600080fd5b016000915090505481565b6005818154811061040f57600080fd5b90600052602060002001600091509050805461042a906109d8565b80601f0160208091040260200160405190810160405280929190818152602001828054610456906109d8565b80156104a35780601f10610478576101008083540402835291602001916104a3565b820191906000526020600020905b81548152906001019060200180831161048657829003601f168201915b505050505081565b600080546104b8906109d8565b80601f01602080910402602001604051908101604052809291908181526020018280546104e4906109d8565b80156105315780601f1061050657610100808354040283529160200191610531565b820191906000526020600020905b81548152906001019060200180831161051457829003601f168201915b505050505081565b60008115159050919050565b61054e81610539565b82525050565b60006020820190506105696000830184610545565b92915050565b600073ffffffffffffffffffffffffffffffffffffffff82169050919050565b600061059a8261056f565b9050919050565b6105aa8161058f565b82525050565b60006020820190506105c560008301846105a1565b92915050565b7f4e487b7100000000000000000000000000000000000000000000000000000000600052602160045260246000fd5b6007811061060b5761060a6105cb565b5b50565b600081905061061c826105fa565b919050565b600061062c8261060e565b9050919050565b61063c81610621565b82525050565b60006020820190506106576000830184610633565b92915050565b6000819050919050565b6106708161065d565b82525050565b600081519050919050565b600082825260208201905092915050565b60005b838110156106b0578082015181840152602081019050610695565b838111156106bf576000848401525b50505050565b6000601f19601f8301169050919050565b60006106e182610676565b6106eb8185610681565b93506106fb818560208601610692565b610704816106c5565b840191505092915050565b60006060820190506107246000830186610667565b6107316020830185610667565b818103604083015261074381846106d6565b9050949350505050565b6000819050919050565b6107608161074d565b82525050565b600060208201905061077b6000830184610757565b92915050565b6000604051905090565b600080fd5b600080fd5b600080fd5b600080fd5b7f4e487b7100000000000000000000000000000000000000000000000000000000600052604160045260246000fd5b6107d7826106c5565b810181811067ffffffffffffffff821117156107f6576107f561079f565b5b80604052505050565b6000610809610781565b905061081582826107ce565b919050565b600067ffffffffffffffff8211156108355761083461079f565b5b61083e826106c5565b9050602081019050919050565b82818337600083830152505050565b600061086d6108688461081a565b6107ff565b9050828152602081018484840111156108895761088861079a565b5b61089484828561084b565b509392505050565b600082601f8301126108b1576108b0610795565b5b81356108c184826020860161085a565b91505092915050565b6000602082840312156108e0576108df61078b565b5b600082013567ffffffffffffffff8111156108fe576108fd610790565b5b61090a8482850161089c565b91505092915050565b60006020820190506109286000830184610667565b92915050565b6000602082019050818103600083015261094881846106d6565b905092915050565b6109598161065d565b811461096457600080fd5b50565b60008135905061097681610950565b92915050565b6000602082840312156109925761099161078b565b5b60006109a084828501610967565b91505092915050565b7f4e487b7100000000000000000000000000000000000000000000000000000000600052602260045260246000fd5b600060028204905060018216806109f057607f821691505b602082108103610a0357610a026109a9565b5b5091905056fea2646970667358221220b0cda203e1f93ebfa8cb600bfd2c3e7e8b26c63ccb2e5fea378fd90d2217bb8f64736f6c634300080d0033",
					"opcodes": "PUSH1 0x80 PUSH1 0x40 MSTORE PUSH1 0x40 MLOAD DUP1 PUSH1 0x40 ADD PUSH1 0x40 MSTORE DUP1 PUSH1 0xC DUP2 MSTORE PUSH1 0x20 ADD PUSH32 0x48656C6C6F20576F726C64210000000000000000000000000000000000000000 DUP2 MSTORE POP PUSH1 0x0 SWAP1 DUP1 MLOAD SWAP1 PUSH1 0x20 ADD SWAP1 PUSH3 0x51 SWAP3 SWAP2 SWAP1 PUSH3 0x334 JUMP JUMPDEST POP PUSH1 0x0 PUSH1 0x1 PUSH1 0x0 PUSH2 0x100 EXP DUP2 SLOAD DUP2 PUSH1 0xFF MUL NOT AND SWAP1 DUP4 ISZERO ISZERO MUL OR SWAP1 SSTORE POP PUSH1 0x19 PUSH1 0x2 SSTORE PUSH32 0xFFFFFFFFFFFFFFFFFFFFFFFFFFFFFFFFFFFFFFFFFFFFFFFFFFFFFFFFFFFFFC18 PUSH1 0x3 SSTORE PUSH20 0x61236DE2834FDCE9A4B4FA3B68DDE39ECA7199CB PUSH1 0x4 PUSH1 0x0 PUSH2 0x100 EXP DUP2 SLOAD DUP2 PUSH20 0xFFFFFFFFFFFFFFFFFFFFFFFFFFFFFFFFFFFFFFFF MUL NOT AND SWAP1 DUP4 PUSH20 0xFFFFFFFFFFFFFFFFFFFFFFFFFFFFFFFFFFFFFFFF AND MUL OR SWAP1 SSTORE POP PUSH1 0x0 PUSH1 0x4 PUSH1 0x14 PUSH2 0x100 EXP DUP2 SLOAD DUP2 PUSH1 0xFF MUL NOT AND SWAP1 DUP4 PUSH1 0x6 DUP2 GT ISZERO PUSH3 0x114 JUMPI PUSH3 0x113 PUSH3 0x503 JUMP JUMPDEST JUMPDEST MUL OR SWAP1 SSTORE POP PUSH1 0x20 PUSH1 0xF8 SHL PUSH1 0x4 PUSH1 0x15 PUSH2 0x100 EXP DUP2 SLOAD DUP2 PUSH1 0xFF MUL NOT AND SWAP1 DUP4 PUSH1 0xF8 SHR MUL OR SWAP1 SSTORE POP PUSH1 0x40 MLOAD DUP1 PUSH1 0x60 ADD PUSH1 0x40 MSTORE DUP1 PUSH1 0x40 MLOAD DUP1 PUSH1 0x40 ADD PUSH1 0x40 MSTORE DUP1 PUSH1 0x7 DUP2 MSTORE PUSH1 0x20 ADD PUSH32 0x4761627269656C00000000000000000000000000000000000000000000000000 DUP2 MSTORE POP DUP2 MSTORE PUSH1 0x20 ADD PUSH1 0x40 MLOAD DUP1 PUSH1 0x40 ADD PUSH1 0x40 MSTORE DUP1 PUSH1 0x5 DUP2 MSTORE PUSH1 0x20 ADD PUSH32 0x4C75636173000000000000000000000000000000000000000000000000000000 DUP2 MSTORE POP DUP2 MSTORE PUSH1 0x20 ADD PUSH1 0x40 MLOAD DUP1 PUSH1 0x40 ADD PUSH1 0x40 MSTORE DUP1 PUSH1 0x5 DUP2 MSTORE PUSH1 0x20 ADD PUSH32 0x4E65696B6F000000000000000000000000000000000000000000000000000000 DUP2 MSTORE POP DUP2 MSTORE POP PUSH1 0x5 SWAP1 PUSH1 0x3 PUSH3 0x204 SWAP3 SWAP2 SWAP1 PUSH3 0x3C5 JUMP JUMPDEST POP PUSH1 0x40 MLOAD DUP1 PUSH1 0x80 ADD PUSH1 0x40 MSTORE DUP1 PUSH1 0x1E PUSH1 0xFF AND DUP2 MSTORE PUSH1 0x20 ADD PUSH1 0x1D PUSH1 0xFF AND DUP2 MSTORE PUSH1 0x20 ADD PUSH1 0x1D PUSH1 0xFF AND DUP2 MSTORE PUSH1 0x20 ADD PUSH1 0x4 PUSH1 0xFF AND DUP2 MSTORE POP PUSH1 0x6 SWAP1 PUSH1 0x4 PUSH3 0x248 SWAP3 SWAP2 SWAP1 PUSH3 0x42C JUMP JUMPDEST POP PUSH1 0x40 MLOAD DUP1 PUSH1 0x40 ADD PUSH1 0x40 MSTORE DUP1 PUSH1 0x10 DUP2 MSTORE PUSH1 0x20 ADD PUSH32 0x5768697465626F61726443727970746F00000000000000000000000000000000 DUP2 MSTORE POP PUSH1 0xA SWAP1 DUP1 MLOAD SWAP1 PUSH1 0x20 ADD SWAP1 PUSH3 0x296 SWAP3 SWAP2 SWAP1 PUSH3 0x334 JUMP JUMPDEST POP PUSH1 0x40 MLOAD DUP1 PUSH1 0x60 ADD PUSH1 0x40 MSTORE DUP1 PUSH1 0x3 DUP2 MSTORE PUSH1 0x20 ADD PUSH1 0x4 DUP2 MSTORE PUSH1 0x20 ADD PUSH1 0x40 MLOAD DUP1 PUSH1 0x40 ADD PUSH1 0x40 MSTORE DUP1 PUSH1 0x4 DUP2 MSTORE PUSH1 0x20 ADD PUSH32 0x466F726400000000000000000000000000000000000000000000000000000000 DUP2 MSTORE POP DUP2 MSTORE POP PUSH1 0xC PUSH1 0x0 DUP3 ADD MLOAD DUP2 PUSH1 0x0 ADD SSTORE PUSH1 0x20 DUP3 ADD MLOAD DUP2 PUSH1 0x1 ADD SSTORE PUSH1 0x40 DUP3 ADD MLOAD DUP2 PUSH1 0x2 ADD SWAP1 DUP1 MLOAD SWAP1 PUSH1 0x20 ADD SWAP1 PUSH3 0x31D SWAP3 SWAP2 SWAP1 PUSH3 0x334 JUMP JUMPDEST POP POP POP CALLVALUE DUP1 ISZERO PUSH3 0x32D JUMPI PUSH1 0x0 DUP1 REVERT JUMPDEST POP PUSH3 0x596 JUMP JUMPDEST DUP3 DUP1 SLOAD PUSH3 0x342 SWAP1 PUSH3 0x561 JUMP JUMPDEST SWAP1 PUSH1 0x0 MSTORE PUSH1 0x20 PUSH1 0x0 KECCAK256 SWAP1 PUSH1 0x1F ADD PUSH1 0x20 SWAP1 DIV DUP2 ADD SWAP3 DUP3 PUSH3 0x366 JUMPI PUSH1 0x0 DUP6 SSTORE PUSH3 0x3B2 JUMP JUMPDEST DUP3 PUSH1 0x1F LT PUSH3 0x381 JUMPI DUP1 MLOAD PUSH1 0xFF NOT AND DUP4 DUP1 ADD OR DUP6 SSTORE PUSH3 0x3B2 JUMP JUMPDEST DUP3 DUP1 ADD PUSH1 0x1 ADD DUP6 SSTORE DUP3 ISZERO PUSH3 0x3B2 JUMPI SWAP2 DUP3 ADD JUMPDEST DUP3 DUP2 GT ISZERO PUSH3 0x3B1 JUMPI DUP3 MLOAD DUP3 SSTORE SWAP2 PUSH1 0x20 ADD SWAP2 SWAP1 PUSH1 0x1 ADD SWAP1 PUSH3 0x394 JUMP JUMPDEST JUMPDEST POP SWAP1 POP PUSH3 0x3C1 SWAP2 SWAP1 PUSH3 0x476 JUMP JUMPDEST POP SWAP1 JUMP JUMPDEST DUP3 DUP1 SLOAD DUP3 DUP3 SSTORE SWAP1 PUSH1 0x0 MSTORE PUSH1 0x20 PUSH1 0x0 KECCAK256 SWAP1 DUP2 ADD SWAP3 DUP3 ISZERO PUSH3 0x419 JUMPI SWAP2 PUSH1 0x20 MUL DUP3 ADD JUMPDEST DUP3 DUP2 GT ISZERO PUSH3 0x418 JUMPI DUP3 MLOAD DUP3 SWAP1 DUP1 MLOAD SWAP1 PUSH1 0x20 ADD SWAP1 PUSH3 0x407 SWAP3 SWAP2 SWAP1 PUSH3 0x334 JUMP JUMPDEST POP SWAP2 PUSH1 0x20 ADD SWAP2 SWAP1 PUSH1 0x1 ADD SWAP1 PUSH3 0x3E6 JUMP JUMPDEST JUMPDEST POP SWAP1 POP PUSH3 0x428 SWAP2 SWAP1 PUSH3 0x495 JUMP JUMPDEST POP SWAP1 JUMP JUMPDEST DUP3 PUSH1 0x4 DUP2 ADD SWAP3 DUP3 ISZERO PUSH3 0x463 JUMPI SWAP2 PUSH1 0x20 MUL DUP3 ADD JUMPDEST DUP3 DUP2 GT ISZERO PUSH3 0x462 JUMPI DUP3 MLOAD DUP3 SWAP1 PUSH1 0xFF AND SWAP1 SSTORE SWAP2 PUSH1 0x20 ADD SWAP2 SWAP1 PUSH1 0x1 ADD SWAP1 PUSH3 0x440 JUMP JUMPDEST JUMPDEST POP SWAP1 POP PUSH3 0x472 SWAP2 SWAP1 PUSH3 0x476 JUMP JUMPDEST POP SWAP1 JUMP JUMPDEST JUMPDEST DUP1 DUP3 GT ISZERO PUSH3 0x491 JUMPI PUSH1 0x0 DUP2 PUSH1 0x0 SWAP1 SSTORE POP PUSH1 0x1 ADD PUSH3 0x477 JUMP JUMPDEST POP SWAP1 JUMP JUMPDEST JUMPDEST DUP1 DUP3 GT ISZERO PUSH3 0x4B9 JUMPI PUSH1 0x0 DUP2 DUP2 PUSH3 0x4AF SWAP2 SWAP1 PUSH3 0x4BD JUMP JUMPDEST POP PUSH1 0x1 ADD PUSH3 0x496 JUMP JUMPDEST POP SWAP1 JUMP JUMPDEST POP DUP1 SLOAD PUSH3 0x4CB SWAP1 PUSH3 0x561 JUMP JUMPDEST PUSH1 0x0 DUP3 SSTORE DUP1 PUSH1 0x1F LT PUSH3 0x4DF JUMPI POP PUSH3 0x500 JUMP JUMPDEST PUSH1 0x1F ADD PUSH1 0x20 SWAP1 DIV SWAP1 PUSH1 0x0 MSTORE PUSH1 0x20 PUSH1 0x0 KECCAK256 SWAP1 DUP2 ADD SWAP1 PUSH3 0x4FF SWAP2 SWAP1 PUSH3 0x476 JUMP JUMPDEST JUMPDEST POP JUMP JUMPDEST PUSH32 0x4E487B7100000000000000000000000000000000000000000000000000000000 PUSH1 0x0 MSTORE PUSH1 0x21 PUSH1 0x4 MSTORE PUSH1 0x24 PUSH1 0x0 REVERT JUMPDEST PUSH32 0x4E487B7100000000000000000000000000000000000000000000000000000000 PUSH1 0x0 MSTORE PUSH1 0x22 PUSH1 0x4 MSTORE PUSH1 0x24 PUSH1 0x0 REVERT JUMPDEST PUSH1 0x0 PUSH1 0x2 DUP3 DIV SWAP1 POP PUSH1 0x1 DUP3 AND DUP1 PUSH3 0x57A JUMPI PUSH1 0x7F DUP3 AND SWAP2 POP JUMPDEST PUSH1 0x20 DUP3 LT DUP2 SUB PUSH3 0x590 JUMPI PUSH3 0x58F PUSH3 0x532 JUMP JUMPDEST JUMPDEST POP SWAP2 SWAP1 POP JUMP JUMPDEST PUSH2 0xA3F DUP1 PUSH3 0x5A6 PUSH1 0x0 CODECOPY PUSH1 0x0 RETURN INVALID PUSH1 0x80 PUSH1 0x40 MSTORE CALLVALUE DUP1 ISZERO PUSH2 0x10 JUMPI PUSH1 0x0 DUP1 REVERT JUMPDEST POP PUSH1 0x4 CALLDATASIZE LT PUSH2 0xA9 JUMPI PUSH1 0x0 CALLDATALOAD PUSH1 0xE0 SHR DUP1 PUSH4 0x3E599092 GT PUSH2 0x71 JUMPI DUP1 PUSH4 0x3E599092 EQ PUSH2 0x146 JUMPI DUP1 PUSH4 0x6051E322 EQ PUSH2 0x176 JUMPI DUP1 PUSH4 0x7999C7CA EQ PUSH2 0x194 JUMPI DUP1 PUSH4 0x81F364B3 EQ PUSH2 0x1B2 JUMPI DUP1 PUSH4 0xCE146828 EQ PUSH2 0x1E2 JUMPI DUP1 PUSH4 0xCFAE3217 EQ PUSH2 0x212 JUMPI PUSH2 0xA9 JUMP JUMPDEST DUP1 PUSH4 0x131B589 EQ PUSH2 0xAE JUMPI DUP1 PUSH4 0x4F03759 EQ PUSH2 0xCC JUMPI DUP1 PUSH4 0x7CD851E EQ PUSH2 0xEA JUMPI DUP1 PUSH4 0xBD4DEC8 EQ PUSH2 0x108 JUMPI DUP1 PUSH4 0x377A0F53 EQ PUSH2 0x128 JUMPI JUMPDEST PUSH1 0x0 DUP1 REVERT JUMPDEST PUSH2 0xB6 PUSH2 0x230 JUMP JUMPDEST PUSH1 0x40 MLOAD PUSH2 0xC3 SWAP2 SWAP1 PUSH2 0x554 JUMP JUMPDEST PUSH1 0x40 MLOAD DUP1 SWAP2 SUB SWAP1 RETURN JUMPDEST PUSH2 0xD4 PUSH2 0x243 JUMP JUMPDEST PUSH1 0x40 MLOAD PUSH2 0xE1 SWAP2 SWAP1 PUSH2 0x5B0 JUMP JUMPDEST PUSH1 0x40 MLOAD DUP1 SWAP2 SUB SWAP1 RETURN JUMPDEST PUSH2 0xF2 PUSH2 0x269 JUMP JUMPDEST PUSH1 0x40 MLOAD PUSH2 0xFF SWAP2 SWAP1 PUSH2 0x642 JUMP JUMPDEST PUSH1 0x40 MLOAD DUP1 SWAP2 SUB SWAP1 RETURN JUMPDEST PUSH2 0x110 PUSH2 0x27C JUMP JUMPDEST PUSH1 0x40 MLOAD PUSH2 0x11F SWAP4 SWAP3 SWAP2 SWAP1 PUSH2 0x70F JUMP JUMPDEST PUSH1 0x40 MLOAD DUP1 SWAP2 SUB SWAP1 RETURN JUMPDEST PUSH2 0x130 PUSH2 0x31C JUMP JUMPDEST PUSH1 0x40 MLOAD PUSH2 0x13D SWAP2 SWAP1 PUSH2 0x766 JUMP JUMPDEST PUSH1 0x40 MLOAD DUP1 SWAP2 SUB SWAP1 RETURN JUMPDEST PUSH2 0x160 PUSH1 0x4 DUP1 CALLDATASIZE SUB DUP2 ADD SWAP1 PUSH2 0x15B SWAP2 SWAP1 PUSH2 0x8CA JUMP JUMPDEST PUSH2 0x322 JUMP JUMPDEST PUSH1 0x40 MLOAD PUSH2 0x16D SWAP2 SWAP1 PUSH2 0x766 JUMP JUMPDEST PUSH1 0x40 MLOAD DUP1 SWAP2 SUB SWAP1 RETURN JUMPDEST PUSH2 0x17E PUSH2 0x350 JUMP JUMPDEST PUSH1 0x40 MLOAD PUSH2 0x18B SWAP2 SWAP1 PUSH2 0x913 JUMP JUMPDEST PUSH1 0x40 MLOAD DUP1 SWAP2 SUB SWAP1 RETURN JUMPDEST PUSH2 0x19C PUSH2 0x356 JUMP JUMPDEST PUSH1 0x40 MLOAD PUSH2 0x1A9 SWAP2 SWAP1 PUSH2 0x92E JUMP JUMPDEST PUSH1 0x40 MLOAD DUP1 SWAP2 SUB SWAP1 RETURN JUMPDEST PUSH2 0x1CC PUSH1 0x4 DUP1 CALLDATASIZE SUB DUP2 ADD SWAP1 PUSH2 0x1C7 SWAP2 SWAP1 PUSH2 0x97C JUMP JUMPDEST PUSH2 0x3E4 JUMP JUMPDEST PUSH1 0x40 MLOAD PUSH2 0x1D9 SWAP2 SWAP1 PUSH2 0x913 JUMP JUMPDEST PUSH1 0x40 MLOAD DUP1 SWAP2 SUB SWAP1 RETURN JUMPDEST PUSH2 0x1FC PUSH1 0x4 DUP1 CALLDATASIZE SUB DUP2 ADD SWAP1 PUSH2 0x1F7 SWAP2 SWAP1 PUSH2 0x97C JUMP JUMPDEST PUSH2 0x3FF JUMP JUMPDEST PUSH1 0x40 MLOAD PUSH2 0x209 SWAP2 SWAP1 PUSH2 0x92E JUMP JUMPDEST PUSH1 0x40 MLOAD DUP1 SWAP2 SUB SWAP1 RETURN JUMPDEST PUSH2 0x21A PUSH2 0x4AB JUMP JUMPDEST PUSH1 0x40 MLOAD PUSH2 0x227 SWAP2 SWAP1 PUSH2 0x92E JUMP JUMPDEST PUSH1 0x40 MLOAD DUP1 SWAP2 SUB SWAP1 RETURN JUMPDEST PUSH1 0x1 PUSH1 0x0 SWAP1 SLOAD SWAP1 PUSH2 0x100 EXP SWAP1 DIV PUSH1 0xFF AND DUP2 JUMP JUMPDEST PUSH1 0x4 PUSH1 0x0 SWAP1 SLOAD SWAP1 PUSH2 0x100 EXP SWAP1 DIV PUSH20 0xFFFFFFFFFFFFFFFFFFFFFFFFFFFFFFFFFFFFFFFF AND DUP2 JUMP JUMPDEST PUSH1 0x4 PUSH1 0x14 SWAP1 SLOAD SWAP1 PUSH2 0x100 EXP SWAP1 DIV PUSH1 0xFF AND DUP2 JUMP JUMPDEST PUSH1 0xC DUP1 PUSH1 0x0 ADD SLOAD SWAP1 DUP1 PUSH1 0x1 ADD SLOAD SWAP1 DUP1 PUSH1 0x2 ADD DUP1 SLOAD PUSH2 0x299 SWAP1 PUSH2 0x9D8 JUMP JUMPDEST DUP1 PUSH1 0x1F ADD PUSH1 0x20 DUP1 SWAP2 DIV MUL PUSH1 0x20 ADD PUSH1 0x40 MLOAD SWAP1 DUP2 ADD PUSH1 0x40 MSTORE DUP1 SWAP3 SWAP2 SWAP1 DUP2 DUP2 MSTORE PUSH1 0x20 ADD DUP3 DUP1 SLOAD PUSH2 0x2C5 SWAP1 PUSH2 0x9D8 JUMP JUMPDEST DUP1 ISZERO PUSH2 0x312 JUMPI DUP1 PUSH1 0x1F LT PUSH2 0x2E7 JUMPI PUSH2 0x100 DUP1 DUP4 SLOAD DIV MUL DUP4 MSTORE SWAP2 PUSH1 0x20 ADD SWAP2 PUSH2 0x312 JUMP JUMPDEST DUP3 ADD SWAP2 SWAP1 PUSH1 0x0 MSTORE PUSH1 0x20 PUSH1 0x0 KECCAK256 SWAP1 JUMPDEST DUP2 SLOAD DUP2 MSTORE SWAP1 PUSH1 0x1 ADD SWAP1 PUSH1 0x20 ADD DUP1 DUP4 GT PUSH2 0x2F5 JUMPI DUP3 SWAP1 SUB PUSH1 0x1F AND DUP3 ADD SWAP2 JUMPDEST POP POP POP POP POP SWAP1 POP DUP4 JUMP JUMPDEST PUSH1 0x3 SLOAD DUP2 JUMP JUMPDEST PUSH1 0xB DUP2 DUP1 MLOAD PUSH1 0x20 DUP2 ADD DUP3 ADD DUP1 MLOAD DUP5 DUP3 MSTORE PUSH1 0x20 DUP4 ADD PUSH1 0x20 DUP6 ADD KECCAK256 DUP2 DUP4 MSTORE DUP1 SWAP6 POP POP POP POP POP POP PUSH1 0x0 SWAP2 POP SWAP1 POP SLOAD DUP2 JUMP JUMPDEST PUSH1 0x2 SLOAD DUP2 JUMP JUMPDEST PUSH1 0xA DUP1 SLOAD PUSH2 0x363 SWAP1 PUSH2 0x9D8 JUMP JUMPDEST DUP1 PUSH1 0x1F ADD PUSH1 0x20 DUP1 SWAP2 DIV MUL PUSH1 0x20 ADD PUSH1 0x40 MLOAD SWAP1 DUP2 ADD PUSH1 0x40 MSTORE DUP1 SWAP3 SWAP2 SWAP1 DUP2 DUP2 MSTORE PUSH1 0x20 ADD DUP3 DUP1 SLOAD PUSH2 0x38F SWAP1 PUSH2 0x9D8 JUMP JUMPDEST DUP1 ISZERO PUSH2 0x3DC JUMPI DUP1 PUSH1 0x1F LT PUSH2 0x3B1 JUMPI PUSH2 0x100 DUP1 DUP4 SLOAD DIV MUL DUP4 MSTORE SWAP2 PUSH1 0x20 ADD SWAP2 PUSH2 0x3DC JUMP JUMPDEST DUP3 ADD SWAP2 SWAP1 PUSH1 0x0 MSTORE PUSH1 0x20 PUSH1 0x0 KECCAK256 SWAP1 JUMPDEST DUP2 SLOAD DUP2 MSTORE SWAP1 PUSH1 0x1 ADD SWAP1 PUSH1 0x20 ADD DUP1 DUP4 GT PUSH2 0x3BF JUMPI DUP3 SWAP1 SUB PUSH1 0x1F AND DUP3 ADD SWAP2 JUMPDEST POP POP POP POP POP DUP2 JUMP JUMPDEST PUSH1 0x6 DUP2 PUSH1 0x4 DUP2 LT PUSH2 0x3F4 JUMPI PUSH1 0x0 DUP1 REVERT JUMPDEST ADD PUSH1 0x0 SWAP2 POP SWAP1 POP SLOAD DUP2 JUMP JUMPDEST PUSH1 0x5 DUP2 DUP2 SLOAD DUP2 LT PUSH2 0x40F JUMPI PUSH1 0x0 DUP1 REVERT JUMPDEST SWAP1 PUSH1 0x0 MSTORE PUSH1 0x20 PUSH1 0x0 KECCAK256 ADD PUSH1 0x0 SWAP2 POP SWAP1 POP DUP1 SLOAD PUSH2 0x42A SWAP1 PUSH2 0x9D8 JUMP JUMPDEST DUP1 PUSH1 0x1F ADD PUSH1 0x20 DUP1 SWAP2 DIV MUL PUSH1 0x20 ADD PUSH1 0x40 MLOAD SWAP1 DUP2 ADD PUSH1 0x40 MSTORE DUP1 SWAP3 SWAP2 SWAP1 DUP2 DUP2 MSTORE PUSH1 0x20 ADD DUP3 DUP1 SLOAD PUSH2 0x456 SWAP1 PUSH2 0x9D8 JUMP JUMPDEST DUP1 ISZERO PUSH2 0x4A3 JUMPI DUP1 PUSH1 0x1F LT PUSH2 0x478 JUMPI PUSH2 0x100 DUP1 DUP4 SLOAD DIV MUL DUP4 MSTORE SWAP2 PUSH1 0x20 ADD SWAP2 PUSH2 0x4A3 JUMP JUMPDEST DUP3 ADD SWAP2 SWAP1 PUSH1 0x0 MSTORE PUSH1 0x20 PUSH1 0x0 KECCAK256 SWAP1 JUMPDEST DUP2 SLOAD DUP2 MSTORE SWAP1 PUSH1 0x1 ADD SWAP1 PUSH1 0x20 ADD DUP1 DUP4 GT PUSH2 0x486 JUMPI DUP3 SWAP1 SUB PUSH1 0x1F AND DUP3 ADD SWAP2 JUMPDEST POP POP POP POP POP DUP2 JUMP JUMPDEST PUSH1 0x0 DUP1 SLOAD PUSH2 0x4B8 SWAP1 PUSH2 0x9D8 JUMP JUMPDEST DUP1 PUSH1 0x1F ADD PUSH1 0x20 DUP1 SWAP2 DIV MUL PUSH1 0x20 ADD PUSH1 0x40 MLOAD SWAP1 DUP2 ADD PUSH1 0x40 MSTORE DUP1 SWAP3 SWAP2 SWAP1 DUP2 DUP2 MSTORE PUSH1 0x20 ADD DUP3 DUP1 SLOAD PUSH2 0x4E4 SWAP1 PUSH2 0x9D8 JUMP JUMPDEST DUP1 ISZERO PUSH2 0x531 JUMPI DUP1 PUSH1 0x1F LT PUSH2 0x506 JUMPI PUSH2 0x100 DUP1 DUP4 SLOAD DIV MUL DUP4 MSTORE SWAP2 PUSH1 0x20 ADD SWAP2 PUSH2 0x531 JUMP JUMPDEST DUP3 ADD SWAP2 SWAP1 PUSH1 0x0 MSTORE PUSH1 0x20 PUSH1 0x0 KECCAK256 SWAP1 JUMPDEST DUP2 SLOAD DUP2 MSTORE SWAP1 PUSH1 0x1 ADD SWAP1 PUSH1 0x20 ADD DUP1 DUP4 GT PUSH2 0x514 JUMPI DUP3 SWAP1 SUB PUSH1 0x1F AND DUP3 ADD SWAP2 JUMPDEST POP POP POP POP POP DUP2 JUMP JUMPDEST PUSH1 0x0 DUP2 ISZERO ISZERO SWAP1 POP SWAP2 SWAP1 POP JUMP JUMPDEST PUSH2 0x54E DUP2 PUSH2 0x539 JUMP JUMPDEST DUP3 MSTORE POP POP JUMP JUMPDEST PUSH1 0x0 PUSH1 0x20 DUP3 ADD SWAP1 POP PUSH2 0x569 PUSH1 0x0 DUP4 ADD DUP5 PUSH2 0x545 JUMP JUMPDEST SWAP3 SWAP2 POP POP JUMP JUMPDEST PUSH1 0x0 PUSH20 0xFFFFFFFFFFFFFFFFFFFFFFFFFFFFFFFFFFFFFFFF DUP3 AND SWAP1 POP SWAP2 SWAP1 POP JUMP JUMPDEST PUSH1 0x0 PUSH2 0x59A DUP3 PUSH2 0x56F JUMP JUMPDEST SWAP1 POP SWAP2 SWAP1 POP JUMP JUMPDEST PUSH2 0x5AA DUP2 PUSH2 0x58F JUMP JUMPDEST DUP3 MSTORE POP POP JUMP JUMPDEST PUSH1 0x0 PUSH1 0x20 DUP3 ADD SWAP1 POP PUSH2 0x5C5 PUSH1 0x0 DUP4 ADD DUP5 PUSH2 0x5A1 JUMP JUMPDEST SWAP3 SWAP2 POP POP JUMP JUMPDEST PUSH32 0x4E487B7100000000000000000000000000000000000000000000000000000000 PUSH1 0x0 MSTORE PUSH1 0x21 PUSH1 0x4 MSTORE PUSH1 0x24 PUSH1 0x0 REVERT JUMPDEST PUSH1 0x7 DUP2 LT PUSH2 0x60B JUMPI PUSH2 0x60A PUSH2 0x5CB JUMP JUMPDEST JUMPDEST POP JUMP JUMPDEST PUSH1 0x0 DUP2 SWAP1 POP PUSH2 0x61C DUP3 PUSH2 0x5FA JUMP JUMPDEST SWAP2 SWAP1 POP JUMP JUMPDEST PUSH1 0x0 PUSH2 0x62C DUP3 PUSH2 0x60E JUMP JUMPDEST SWAP1 POP SWAP2 SWAP1 POP JUMP JUMPDEST PUSH2 0x63C DUP2 PUSH2 0x621 JUMP JUMPDEST DUP3 MSTORE POP POP JUMP JUMPDEST PUSH1 0x0 PUSH1 0x20 DUP3 ADD SWAP1 POP PUSH2 0x657 PUSH1 0x0 DUP4 ADD DUP5 PUSH2 0x633 JUMP JUMPDEST SWAP3 SWAP2 POP POP JUMP JUMPDEST PUSH1 0x0 DUP2 SWAP1 POP SWAP2 SWAP1 POP JUMP JUMPDEST PUSH2 0x670 DUP2 PUSH2 0x65D JUMP JUMPDEST DUP3 MSTORE POP POP JUMP JUMPDEST PUSH1 0x0 DUP2 MLOAD SWAP1 POP SWAP2 SWAP1 POP JUMP JUMPDEST PUSH1 0x0 DUP3 DUP3 MSTORE PUSH1 0x20 DUP3 ADD SWAP1 POP SWAP3 SWAP2 POP POP JUMP JUMPDEST PUSH1 0x0 JUMPDEST DUP4 DUP2 LT ISZERO PUSH2 0x6B0 JUMPI DUP1 DUP3 ADD MLOAD DUP2 DUP5 ADD MSTORE PUSH1 0x20 DUP2 ADD SWAP1 POP PUSH2 0x695 JUMP JUMPDEST DUP4 DUP2 GT ISZERO PUSH2 0x6BF JUMPI PUSH1 0x0 DUP5 DUP5 ADD MSTORE JUMPDEST POP POP POP POP JUMP JUMPDEST PUSH1 0x0 PUSH1 0x1F NOT PUSH1 0x1F DUP4 ADD AND SWAP1 POP SWAP2 SWAP1 POP JUMP JUMPDEST PUSH1 0x0 PUSH2 0x6E1 DUP3 PUSH2 0x676 JUMP JUMPDEST PUSH2 0x6EB DUP2 DUP6 PUSH2 0x681 JUMP JUMPDEST SWAP4 POP PUSH2 0x6FB DUP2 DUP6 PUSH1 0x20 DUP7 ADD PUSH2 0x692 JUMP JUMPDEST PUSH2 0x704 DUP2 PUSH2 0x6C5 JUMP JUMPDEST DUP5 ADD SWAP2 POP POP SWAP3 SWAP2 POP POP JUMP JUMPDEST PUSH1 0x0 PUSH1 0x60 DUP3 ADD SWAP1 POP PUSH2 0x724 PUSH1 0x0 DUP4 ADD DUP7 PUSH2 0x667 JUMP JUMPDEST PUSH2 0x731 PUSH1 0x20 DUP4 ADD DUP6 PUSH2 0x667 JUMP JUMPDEST DUP2 DUP2 SUB PUSH1 0x40 DUP4 ADD MSTORE PUSH2 0x743 DUP2 DUP5 PUSH2 0x6D6 JUMP JUMPDEST SWAP1 POP SWAP5 SWAP4 POP POP POP POP JUMP JUMPDEST PUSH1 0x0 DUP2 SWAP1 POP SWAP2 SWAP1 POP JUMP JUMPDEST PUSH2 0x760 DUP2 PUSH2 0x74D JUMP JUMPDEST DUP3 MSTORE POP POP JUMP JUMPDEST PUSH1 0x0 PUSH1 0x20 DUP3 ADD SWAP1 POP PUSH2 0x77B PUSH1 0x0 DUP4 ADD DUP5 PUSH2 0x757 JUMP JUMPDEST SWAP3 SWAP2 POP POP JUMP JUMPDEST PUSH1 0x0 PUSH1 0x40 MLOAD SWAP1 POP SWAP1 JUMP JUMPDEST PUSH1 0x0 DUP1 REVERT JUMPDEST PUSH1 0x0 DUP1 REVERT JUMPDEST PUSH1 0x0 DUP1 REVERT JUMPDEST PUSH1 0x0 DUP1 REVERT JUMPDEST PUSH32 0x4E487B7100000000000000000000000000000000000000000000000000000000 PUSH1 0x0 MSTORE PUSH1 0x41 PUSH1 0x4 MSTORE PUSH1 0x24 PUSH1 0x0 REVERT JUMPDEST PUSH2 0x7D7 DUP3 PUSH2 0x6C5 JUMP JUMPDEST DUP2 ADD DUP2 DUP2 LT PUSH8 0xFFFFFFFFFFFFFFFF DUP3 GT OR ISZERO PUSH2 0x7F6 JUMPI PUSH2 0x7F5 PUSH2 0x79F JUMP JUMPDEST JUMPDEST DUP1 PUSH1 0x40 MSTORE POP POP POP JUMP JUMPDEST PUSH1 0x0 PUSH2 0x809 PUSH2 0x781 JUMP JUMPDEST SWAP1 POP PUSH2 0x815 DUP3 DUP3 PUSH2 0x7CE JUMP JUMPDEST SWAP2 SWAP1 POP JUMP JUMPDEST PUSH1 0x0 PUSH8 0xFFFFFFFFFFFFFFFF DUP3 GT ISZERO PUSH2 0x835 JUMPI PUSH2 0x834 PUSH2 0x79F JUMP JUMPDEST JUMPDEST PUSH2 0x83E DUP3 PUSH2 0x6C5 JUMP JUMPDEST SWAP1 POP PUSH1 0x20 DUP2 ADD SWAP1 POP SWAP2 SWAP1 POP JUMP JUMPDEST DUP3 DUP2 DUP4 CALLDATACOPY PUSH1 0x0 DUP4 DUP4 ADD MSTORE POP POP POP JUMP JUMPDEST PUSH1 0x0 PUSH2 0x86D PUSH2 0x868 DUP5 PUSH2 0x81A JUMP JUMPDEST PUSH2 0x7FF JUMP JUMPDEST SWAP1 POP DUP3 DUP2 MSTORE PUSH1 0x20 DUP2 ADD DUP5 DUP5 DUP5 ADD GT ISZERO PUSH2 0x889 JUMPI PUSH2 0x888 PUSH2 0x79A JUMP JUMPDEST JUMPDEST PUSH2 0x894 DUP5 DUP3 DUP6 PUSH2 0x84B JUMP JUMPDEST POP SWAP4 SWAP3 POP POP POP JUMP JUMPDEST PUSH1 0x0 DUP3 PUSH1 0x1F DUP4 ADD SLT PUSH2 0x8B1 JUMPI PUSH2 0x8B0 PUSH2 0x795 JUMP JUMPDEST JUMPDEST DUP2 CALLDATALOAD PUSH2 0x8C1 DUP5 DUP3 PUSH1 0x20 DUP7 ADD PUSH2 0x85A JUMP JUMPDEST SWAP2 POP POP SWAP3 SWAP2 POP POP JUMP JUMPDEST PUSH1 0x0 PUSH1 0x20 DUP3 DUP5 SUB SLT ISZERO PUSH2 0x8E0 JUMPI PUSH2 0x8DF PUSH2 0x78B JUMP JUMPDEST JUMPDEST PUSH1 0x0 DUP3 ADD CALLDATALOAD PUSH8 0xFFFFFFFFFFFFFFFF DUP2 GT ISZERO PUSH2 0x8FE JUMPI PUSH2 0x8FD PUSH2 0x790 JUMP JUMPDEST JUMPDEST PUSH2 0x90A DUP5 DUP3 DUP6 ADD PUSH2 0x89C JUMP JUMPDEST SWAP2 POP POP SWAP3 SWAP2 POP POP JUMP JUMPDEST PUSH1 0x0 PUSH1 0x20 DUP3 ADD SWAP1 POP PUSH2 0x928 PUSH1 0x0 DUP4 ADD DUP5 PUSH2 0x667 JUMP JUMPDEST SWAP3 SWAP2 POP POP JUMP JUMPDEST PUSH1 0x0 PUSH1 0x20 DUP3 ADD SWAP1 POP DUP2 DUP2 SUB PUSH1 0x0 DUP4 ADD MSTORE PUSH2 0x948 DUP2 DUP5 PUSH2 0x6D6 JUMP JUMPDEST SWAP1 POP SWAP3 SWAP2 POP POP JUMP JUMPDEST PUSH2 0x959 DUP2 PUSH2 0x65D JUMP JUMPDEST DUP2 EQ PUSH2 0x964 JUMPI PUSH1 0x0 DUP1 REVERT JUMPDEST POP JUMP JUMPDEST PUSH1 0x0 DUP2 CALLDATALOAD SWAP1 POP PUSH2 0x976 DUP2 PUSH2 0x950 JUMP JUMPDEST SWAP3 SWAP2 POP POP JUMP JUMPDEST PUSH1 0x0 PUSH1 0x20 DUP3 DUP5 SUB SLT ISZERO PUSH2 0x992 JUMPI PUSH2 0x991 PUSH2 0x78B JUMP JUMPDEST JUMPDEST PUSH1 0x0 PUSH2 0x9A0 DUP5 DUP3 DUP6 ADD PUSH2 0x967 JUMP JUMPDEST SWAP2 POP POP SWAP3 SWAP2 POP POP JUMP JUMPDEST PUSH32 0x4E487B7100000000000000000000000000000000000000000000000000000000 PUSH1 0x0 MSTORE PUSH1 0x22 PUSH1 0x4 MSTORE PUSH1 0x24 PUSH1 0x0 REVERT JUMPDEST PUSH1 0x0 PUSH1 0x2 DUP3 DIV SWAP1 POP PUSH1 0x1 DUP3 AND DUP1 PUSH2 0x9F0 JUMPI PUSH1 0x7F DUP3 AND SWAP2 POP JUMPDEST PUSH1 0x20 DUP3 LT DUP2 SUB PUSH2 0xA03 JUMPI PUSH2 0xA02 PUSH2 0x9A9 JUMP JUMPDEST JUMPDEST POP SWAP2 SWAP1 POP JUMP INVALID LOG2 PUSH5 0x6970667358 0x22 SLT KECCAK256 0xB0 0xCD LOG2 SUB 0xE1 0xF9 RETURNDATACOPY 0xBF 0xA8 0xCB PUSH1 0xB REVERT 0x2C RETURNDATACOPY PUSH31 0x8B26C63CCB2E5FEA378FD90D2217BB8F64736F6C634300080D003300000000 "
				},
				"gasEstimates": {
					"creation": {
						"codeDepositCost": "524600",
						"executionCost": "infinite",
						"totalCost": "infinite"
					},
					"external": {
						"bankAccount()": "2518",
						"friends(uint256)": "infinite",
						"greet()": "infinite",
						"lightSwitch()": "2472",
						"myAge()": "2451",
						"myBrokenDownFord()": "infinite",
						"myColdWallet()": "2537",
						"myUsername()": "infinite",
						"points(string)": "infinite",
						"tirePressure(uint256)": "infinite",
						"tomorrow()": "2655"
					}
				},
				"methodIdentifiers": {
					"bankAccount()": "377a0f53",
					"friends(uint256)": "ce146828",
					"greet()": "cfae3217",
					"lightSwitch()": "0131b589",
					"myAge()": "6051e322",
					"myBrokenDownFord()": "0bd4dec8",
					"myColdWallet()": "04f03759",
					"myUsername()": "7999c7ca",
					"points(string)": "3e599092",
					"tirePressure(uint256)": "81f364b3",
					"tomorrow()": "07cd851e"
				}
			},
			"storageLayout": {
				"storage": [
					{
						"astId": 4,
						"contract": "contracts/Day3.sol:Helloworld",
						"label": "greet",
						"offset": 0,
						"slot": "0",
						"type": "t_string_storage"
					},
					{
						"astId": 7,
						"contract": "contracts/Day3.sol:Helloworld",
						"label": "lightSwitch",
						"offset": 0,
						"slot": "1",
						"type": "t_bool"
					},
					{
						"astId": 10,
						"contract": "contracts/Day3.sol:Helloworld",
						"label": "myAge",
						"offset": 0,
						"slot": "2",
						"type": "t_uint256"
					},
					{
						"astId": 14,
						"contract": "contracts/Day3.sol:Helloworld",
						"label": "bankAccount",
						"offset": 0,
						"slot": "3",
						"type": "t_int256"
					},
					{
						"astId": 17,
						"contract": "contracts/Day3.sol:Helloworld",
						"label": "myColdWallet",
						"offset": 0,
						"slot": "4",
						"type": "t_address"
					},
					{
						"astId": 30,
						"contract": "contracts/Day3.sol:Helloworld",
						"label": "tomorrow",
						"offset": 20,
						"slot": "4",
						"type": "t_enum(daysOfTheWeek)25"
					},
					{
						"astId": 33,
						"contract": "contracts/Day3.sol:Helloworld",
						"label": "exampleBytes",
						"offset": 21,
						"slot": "4",
						"type": "t_bytes1"
					},
					{
						"astId": 40,
						"contract": "contracts/Day3.sol:Helloworld",
						"label": "friends",
						"offset": 0,
						"slot": "5",
						"type": "t_array(t_string_storage)dyn_storage"
					},
					{
						"astId": 49,
						"contract": "contracts/Day3.sol:Helloworld",
						"label": "tirePressure",
						"offset": 0,
						"slot": "6",
						"type": "t_array(t_uint256)4_storage"
					},
					{
						"astId": 52,
						"contract": "contracts/Day3.sol:Helloworld",
						"label": "myUsername",
						"offset": 0,
						"slot": "10",
						"type": "t_string_storage"
					},
					{
						"astId": 56,
						"contract": "contracts/Day3.sol:Helloworld",
						"label": "points",
						"offset": 0,
						"slot": "11",
						"type": "t_mapping(t_string_memory_ptr,t_int256)"
					},
					{
						"astId": 71,
						"contract": "contracts/Day3.sol:Helloworld",
						"label": "myBrokenDownFord",
						"offset": 0,
						"slot": "12",
						"type": "t_struct(car)63_storage"
					}
				],
				"types": {
					"t_address": {
						"encoding": "inplace",
						"label": "address",
						"numberOfBytes": "20"
					},
					"t_array(t_string_storage)dyn_storage": {
						"base": "t_string_storage",
						"encoding": "dynamic_array",
						"label": "string[]",
						"numberOfBytes": "32"
					},
					"t_array(t_uint256)4_storage": {
						"base": "t_uint256",
						"encoding": "inplace",
						"label": "uint256[4]",
						"numberOfBytes": "128"
					},
					"t_bool": {
						"encoding": "inplace",
						"label": "bool",
						"numberOfBytes": "1"
					},
					"t_bytes1": {
						"encoding": "inplace",
						"label": "bytes1",
						"numberOfBytes": "1"
					},
					"t_enum(daysOfTheWeek)25": {
						"encoding": "inplace",
						"label": "enum Helloworld.daysOfTheWeek",
						"numberOfBytes": "1"
					},
					"t_int256": {
						"encoding": "inplace",
						"label": "int256",
						"numberOfBytes": "32"
					},
					"t_mapping(t_string_memory_ptr,t_int256)": {
						"encoding": "mapping",
						"key": "t_string_memory_ptr",
						"label": "mapping(string => int256)",
						"numberOfBytes": "32",
						"value": "t_int256"
					},
					"t_string_memory_ptr": {
						"encoding": "bytes",
						"label": "string",
						"numberOfBytes": "32"
					},
					"t_string_storage": {
						"encoding": "bytes",
						"label": "string",
						"numberOfBytes": "32"
					},
					"t_struct(car)63_storage": {
						"encoding": "inplace",
						"label": "struct Helloworld.car",
						"members": [
							{
								"astId": 58,
								"contract": "contracts/Day3.sol:Helloworld",
								"label": "wheels",
								"offset": 0,
								"slot": "0",
								"type": "t_uint256"
							},
							{
								"astId": 60,
								"contract": "contracts/Day3.sol:Helloworld",
								"label": "windows",
								"offset": 0,
								"slot": "1",
								"type": "t_uint256"
							},
							{
								"astId": 62,
								"contract": "contracts/Day3.sol:Helloworld",
								"label": "model",
								"offset": 0,
								"slot": "2",
								"type": "t_string_storage"
							}
						],
						"numberOfBytes": "96"
					},
					"t_uint256": {
						"encoding": "inplace",
						"label": "uint256",
						"numberOfBytes": "32"
					}
				}
			},
			"userdoc": {
				"kind": "user",
				"methods": {},
				"version": 1
			}
		}
	}
}