{
	"contracts/W2Day3.sol": {
		"Person": {
			"abi": [
				{
					"inputs": [],
					"name": "age",
					"outputs": [
						{
							"internalType": "uint256",
							"name": "",
							"type": "uint256"
						}
					],
					"stateMutability": "view",
					"type": "function"
				},
				{
					"inputs": [],
					"name": "bend",
					"outputs": [
						{
							"internalType": "string",
							"name": "",
							"type": "string"
						}
					],
					"stateMutability": "pure",
					"type": "function"
				},
				{
					"inputs": [],
					"name": "getAge",
					"outputs": [
						{
							"internalType": "uint256",
							"name": "",
							"type": "uint256"
						}
					],
					"stateMutability": "view",
					"type": "function"
				},
				{
					"inputs": [],
					"name": "raise",
					"outputs": [
						{
							"internalType": "string",
							"name": "",
							"type": "string"
						}
					],
					"stateMutability": "pure",
					"type": "function"
				},
				{
					"inputs": [],
					"name": "raiseLeftArm",
					"outputs": [
						{
							"internalType": "string",
							"name": "",
							"type": "string"
						}
					],
					"stateMutability": "pure",
					"type": "function"
				}
			],
			"devdoc": {
				"kind": "dev",
				"methods": {},
				"version": 1
			},
			"evm": {
				"assembly": "    /* \"contracts/W2Day3.sol\":634:936  contract Person is leftArm, rightArm {... */\n  mstore(0x40, 0x80)\n    /* \"contracts/W2Day3.sol\":101:103  26 */\n  0x1a\n    /* \"contracts/W2Day3.sol\":83:103  uint public age = 26 */\n  0x00\n  sstore\n    /* \"contracts/W2Day3.sol\":634:936  contract Person is leftArm, rightArm {... */\n  callvalue\n  dup1\n  iszero\n  tag_1\n  jumpi\n  0x00\n  dup1\n  revert\ntag_1:\n  pop\n  dataSize(sub_0)\n  dup1\n  dataOffset(sub_0)\n  0x00\n  codecopy\n  0x00\n  return\nstop\n\nsub_0: assembly {\n        /* \"contracts/W2Day3.sol\":634:936  contract Person is leftArm, rightArm {... */\n      mstore(0x40, 0x80)\n      callvalue\n      dup1\n      iszero\n      tag_1\n      jumpi\n      0x00\n      dup1\n      revert\n    tag_1:\n      pop\n      jumpi(tag_2, lt(calldatasize, 0x04))\n      shr(0xe0, calldataload(0x00))\n      dup1\n      0x262a9dff\n      eq\n      tag_3\n      jumpi\n      dup1\n      0x5c8629cd\n      eq\n      tag_4\n      jumpi\n      dup1\n      0x8ebc2d9f\n      eq\n      tag_5\n      jumpi\n      dup1\n      0x967e6e65\n      eq\n      tag_6\n      jumpi\n      dup1\n      0xb361e198\n      eq\n      tag_7\n      jumpi\n    tag_2:\n      0x00\n      dup1\n      revert\n        /* \"contracts/W2Day3.sol\":83:103  uint public age = 26 */\n    tag_3:\n      tag_8\n      tag_9\n      jump\t// in\n    tag_8:\n      mload(0x40)\n      tag_10\n      swap2\n      swap1\n      tag_11\n      jump\t// in\n    tag_10:\n      mload(0x40)\n      dup1\n      swap2\n      sub\n      swap1\n      return\n        /* \"contracts/W2Day3.sol\":112:207  function bend() public pure virtual returns(string memory) {... */\n    tag_4:\n      tag_12\n      tag_13\n      jump\t// in\n    tag_12:\n      mload(0x40)\n      tag_14\n      swap2\n      swap1\n      tag_15\n      jump\t// in\n    tag_14:\n      mload(0x40)\n      dup1\n      swap2\n      sub\n      swap1\n      return\n        /* \"contracts/W2Day3.sol\":833:933  function raiseLeftArm() public pure returns(string memory) {... */\n    tag_5:\n      tag_16\n      tag_17\n      jump\t// in\n    tag_16:\n      mload(0x40)\n      tag_18\n      swap2\n      swap1\n      tag_15\n      jump\t// in\n    tag_18:\n      mload(0x40)\n      dup1\n      swap2\n      sub\n      swap1\n      return\n        /* \"contracts/W2Day3.sol\":379:452  function getAge() public view returns(uint) {... */\n    tag_6:\n      tag_19\n      tag_20\n      jump\t// in\n    tag_19:\n      mload(0x40)\n      tag_21\n      swap2\n      swap1\n      tag_11\n      jump\t// in\n    tag_21:\n      mload(0x40)\n      dup1\n      swap2\n      sub\n      swap1\n      return\n        /* \"contracts/W2Day3.sol\":680:825  function raise() public pure override(leftArm, rightArm) returns(string memory) {... */\n    tag_7:\n      tag_22\n      tag_23\n      jump\t// in\n    tag_22:\n      mload(0x40)\n      tag_24\n      swap2\n      swap1\n      tag_15\n      jump\t// in\n    tag_24:\n      mload(0x40)\n      dup1\n      swap2\n      sub\n      swap1\n      return\n        /* \"contracts/W2Day3.sol\":83:103  uint public age = 26 */\n    tag_9:\n      sload(0x00)\n      dup2\n      jump\t// out\n        /* \"contracts/W2Day3.sol\":112:207  function bend() public pure virtual returns(string memory) {... */\n    tag_13:\n        /* \"contracts/W2Day3.sol\":156:169  string memory */\n      0x60\n        /* \"contracts/W2Day3.sol\":182:199  return \"bending!\" */\n      mload(0x40)\n      dup1\n      0x40\n      add\n      0x40\n      mstore\n      dup1\n      0x08\n      dup2\n      mstore\n      0x20\n      add\n      0x62656e64696e6721000000000000000000000000000000000000000000000000\n      dup2\n      mstore\n      pop\n      swap1\n      pop\n        /* \"contracts/W2Day3.sol\":112:207  function bend() public pure virtual returns(string memory) {... */\n      swap1\n      jump\t// out\n        /* \"contracts/W2Day3.sol\":833:933  function raiseLeftArm() public pure returns(string memory) {... */\n    tag_17:\n        /* \"contracts/W2Day3.sol\":877:890  string memory */\n      0x60\n        /* \"contracts/W2Day3.sol\":910:925  leftArm.raise() */\n      tag_27\n        /* \"contracts/W2Day3.sol\":910:923  leftArm.raise */\n      tag_28\n        /* \"contracts/W2Day3.sol\":910:925  leftArm.raise() */\n      jump\t// in\n    tag_27:\n        /* \"contracts/W2Day3.sol\":903:925  return leftArm.raise() */\n      swap1\n      pop\n        /* \"contracts/W2Day3.sol\":833:933  function raiseLeftArm() public pure returns(string memory) {... */\n      swap1\n      jump\t// out\n        /* \"contracts/W2Day3.sol\":379:452  function getAge() public view returns(uint) {... */\n    tag_20:\n        /* \"contracts/W2Day3.sol\":417:421  uint */\n      0x00\n        /* \"contracts/W2Day3.sol\":441:444  age */\n      dup1\n      sload\n        /* \"contracts/W2Day3.sol\":434:444  return age */\n      swap1\n      pop\n        /* \"contracts/W2Day3.sol\":379:452  function getAge() public view returns(uint) {... */\n      swap1\n      jump\t// out\n        /* \"contracts/W2Day3.sol\":680:825  function raise() public pure override(leftArm, rightArm) returns(string memory) {... */\n    tag_23:\n        /* \"contracts/W2Day3.sol\":745:758  string memory */\n      0x60\n        /* \"contracts/W2Day3.sol\":810:816  bend() */\n      tag_31\n        /* \"contracts/W2Day3.sol\":810:814  bend */\n      tag_13\n        /* \"contracts/W2Day3.sol\":810:816  bend() */\n      jump\t// in\n    tag_31:\n        /* \"contracts/W2Day3.sol\":778:817  string.concat(\"both arms are \", bend()) */\n      add(0x20, mload(0x40))\n      tag_32\n      swap2\n      swap1\n      tag_33\n      jump\t// in\n    tag_32:\n      mload(0x40)\n      0x20\n      dup2\n      dup4\n      sub\n      sub\n      dup2\n      mstore\n      swap1\n      0x40\n      mstore\n        /* \"contracts/W2Day3.sol\":771:817  return string.concat(\"both arms are \", bend()) */\n      swap1\n      pop\n        /* \"contracts/W2Day3.sol\":680:825  function raise() public pure override(leftArm, rightArm) returns(string memory) {... */\n      swap1\n      jump\t// out\n        /* \"contracts/W2Day3.sol\":248:371  function raise() public pure virtual returns(string memory) {... */\n    tag_28:\n        /* \"contracts/W2Day3.sol\":293:306  string memory */\n      0x60\n        /* \"contracts/W2Day3.sol\":356:362  bend() */\n      tag_35\n        /* \"contracts/W2Day3.sol\":356:360  bend */\n      tag_13\n        /* \"contracts/W2Day3.sol\":356:362  bend() */\n      jump\t// in\n    tag_35:\n        /* \"contracts/W2Day3.sol\":326:363  string.concat(\"left arm is \", bend()) */\n      add(0x20, mload(0x40))\n      tag_36\n      swap2\n      swap1\n      tag_37\n      jump\t// in\n    tag_36:\n      mload(0x40)\n      0x20\n      dup2\n      dup4\n      sub\n      sub\n      dup2\n      mstore\n      swap1\n      0x40\n      mstore\n        /* \"contracts/W2Day3.sol\":319:363  return string.concat(\"left arm is \", bend()) */\n      swap1\n      pop\n        /* \"contracts/W2Day3.sol\":248:371  function raise() public pure virtual returns(string memory) {... */\n      swap1\n      jump\t// out\n        /* \"#utility.yul\":7:84   */\n    tag_38:\n        /* \"#utility.yul\":44:51   */\n      0x00\n        /* \"#utility.yul\":73:78   */\n      dup2\n        /* \"#utility.yul\":62:78   */\n      swap1\n      pop\n        /* \"#utility.yul\":7:84   */\n      swap2\n      swap1\n      pop\n      jump\t// out\n        /* \"#utility.yul\":90:208   */\n    tag_39:\n        /* \"#utility.yul\":177:201   */\n      tag_52\n        /* \"#utility.yul\":195:200   */\n      dup2\n        /* \"#utility.yul\":177:201   */\n      tag_38\n      jump\t// in\n    tag_52:\n        /* \"#utility.yul\":172:175   */\n      dup3\n        /* \"#utility.yul\":165:202   */\n      mstore\n        /* \"#utility.yul\":90:208   */\n      pop\n      pop\n      jump\t// out\n        /* \"#utility.yul\":214:436   */\n    tag_11:\n        /* \"#utility.yul\":307:311   */\n      0x00\n        /* \"#utility.yul\":345:347   */\n      0x20\n        /* \"#utility.yul\":334:343   */\n      dup3\n        /* \"#utility.yul\":330:348   */\n      add\n        /* \"#utility.yul\":322:348   */\n      swap1\n      pop\n        /* \"#utility.yul\":358:429   */\n      tag_54\n        /* \"#utility.yul\":426:427   */\n      0x00\n        /* \"#utility.yul\":415:424   */\n      dup4\n        /* \"#utility.yul\":411:428   */\n      add\n        /* \"#utility.yul\":402:408   */\n      dup5\n        /* \"#utility.yul\":358:429   */\n      tag_39\n      jump\t// in\n    tag_54:\n        /* \"#utility.yul\":214:436   */\n      swap3\n      swap2\n      pop\n      pop\n      jump\t// out\n        /* \"#utility.yul\":442:541   */\n    tag_40:\n        /* \"#utility.yul\":494:500   */\n      0x00\n        /* \"#utility.yul\":528:533   */\n      dup2\n        /* \"#utility.yul\":522:534   */\n      mload\n        /* \"#utility.yul\":512:534   */\n      swap1\n      pop\n        /* \"#utility.yul\":442:541   */\n      swap2\n      swap1\n      pop\n      jump\t// out\n        /* \"#utility.yul\":547:716   */\n    tag_41:\n        /* \"#utility.yul\":631:642   */\n      0x00\n        /* \"#utility.yul\":665:671   */\n      dup3\n        /* \"#utility.yul\":660:663   */\n      dup3\n        /* \"#utility.yul\":653:672   */\n      mstore\n        /* \"#utility.yul\":705:709   */\n      0x20\n        /* \"#utility.yul\":700:703   */\n      dup3\n        /* \"#utility.yul\":696:710   */\n      add\n        /* \"#utility.yul\":681:710   */\n      swap1\n      pop\n        /* \"#utility.yul\":547:716   */\n      swap3\n      swap2\n      pop\n      pop\n      jump\t// out\n        /* \"#utility.yul\":722:1029   */\n    tag_42:\n        /* \"#utility.yul\":790:791   */\n      0x00\n        /* \"#utility.yul\":800:913   */\n    tag_58:\n        /* \"#utility.yul\":814:820   */\n      dup4\n        /* \"#utility.yul\":811:812   */\n      dup2\n        /* \"#utility.yul\":808:821   */\n      lt\n        /* \"#utility.yul\":800:913   */\n      iszero\n      tag_60\n      jumpi\n        /* \"#utility.yul\":899:900   */\n      dup1\n        /* \"#utility.yul\":894:897   */\n      dup3\n        /* \"#utility.yul\":890:901   */\n      add\n        /* \"#utility.yul\":884:902   */\n      mload\n        /* \"#utility.yul\":880:881   */\n      dup2\n        /* \"#utility.yul\":875:878   */\n      dup5\n        /* \"#utility.yul\":871:882   */\n      add\n        /* \"#utility.yul\":864:903   */\n      mstore\n        /* \"#utility.yul\":836:838   */\n      0x20\n        /* \"#utility.yul\":833:834   */\n      dup2\n        /* \"#utility.yul\":829:839   */\n      add\n        /* \"#utility.yul\":824:839   */\n      swap1\n      pop\n        /* \"#utility.yul\":800:913   */\n      jump(tag_58)\n    tag_60:\n        /* \"#utility.yul\":931:937   */\n      dup4\n        /* \"#utility.yul\":928:929   */\n      dup2\n        /* \"#utility.yul\":925:938   */\n      gt\n        /* \"#utility.yul\":922:1023   */\n      iszero\n      tag_61\n      jumpi\n        /* \"#utility.yul\":1011:1012   */\n      0x00\n        /* \"#utility.yul\":1002:1008   */\n      dup5\n        /* \"#utility.yul\":997:1000   */\n      dup5\n        /* \"#utility.yul\":993:1009   */\n      add\n        /* \"#utility.yul\":986:1013   */\n      mstore\n        /* \"#utility.yul\":922:1023   */\n    tag_61:\n        /* \"#utility.yul\":771:1029   */\n      pop\n        /* \"#utility.yul\":722:1029   */\n      pop\n      pop\n      pop\n      jump\t// out\n        /* \"#utility.yul\":1035:1137   */\n    tag_43:\n        /* \"#utility.yul\":1076:1082   */\n      0x00\n        /* \"#utility.yul\":1127:1129   */\n      0x1f\n        /* \"#utility.yul\":1123:1130   */\n      not\n        /* \"#utility.yul\":1118:1120   */\n      0x1f\n        /* \"#utility.yul\":1111:1116   */\n      dup4\n        /* \"#utility.yul\":1107:1121   */\n      add\n        /* \"#utility.yul\":1103:1131   */\n      and\n        /* \"#utility.yul\":1093:1131   */\n      swap1\n      pop\n        /* \"#utility.yul\":1035:1137   */\n      swap2\n      swap1\n      pop\n      jump\t// out\n        /* \"#utility.yul\":1143:1507   */\n    tag_44:\n        /* \"#utility.yul\":1231:1234   */\n      0x00\n        /* \"#utility.yul\":1259:1298   */\n      tag_64\n        /* \"#utility.yul\":1292:1297   */\n      dup3\n        /* \"#utility.yul\":1259:1298   */\n      tag_40\n      jump\t// in\n    tag_64:\n        /* \"#utility.yul\":1314:1385   */\n      tag_65\n        /* \"#utility.yul\":1378:1384   */\n      dup2\n        /* \"#utility.yul\":1373:1376   */\n      dup6\n        /* \"#utility.yul\":1314:1385   */\n      tag_41\n      jump\t// in\n    tag_65:\n        /* \"#utility.yul\":1307:1385   */\n      swap4\n      pop\n        /* \"#utility.yul\":1394:1446   */\n      tag_66\n        /* \"#utility.yul\":1439:1445   */\n      dup2\n        /* \"#utility.yul\":1434:1437   */\n      dup6\n        /* \"#utility.yul\":1427:1431   */\n      0x20\n        /* \"#utility.yul\":1420:1425   */\n      dup7\n        /* \"#utility.yul\":1416:1432   */\n      add\n        /* \"#utility.yul\":1394:1446   */\n      tag_42\n      jump\t// in\n    tag_66:\n        /* \"#utility.yul\":1471:1500   */\n      tag_67\n        /* \"#utility.yul\":1493:1499   */\n      dup2\n        /* \"#utility.yul\":1471:1500   */\n      tag_43\n      jump\t// in\n    tag_67:\n        /* \"#utility.yul\":1466:1469   */\n      dup5\n        /* \"#utility.yul\":1462:1501   */\n      add\n        /* \"#utility.yul\":1455:1501   */\n      swap2\n      pop\n        /* \"#utility.yul\":1235:1507   */\n      pop\n        /* \"#utility.yul\":1143:1507   */\n      swap3\n      swap2\n      pop\n      pop\n      jump\t// out\n        /* \"#utility.yul\":1513:1826   */\n    tag_15:\n        /* \"#utility.yul\":1626:1630   */\n      0x00\n        /* \"#utility.yul\":1664:1666   */\n      0x20\n        /* \"#utility.yul\":1653:1662   */\n      dup3\n        /* \"#utility.yul\":1649:1667   */\n      add\n        /* \"#utility.yul\":1641:1667   */\n      swap1\n      pop\n        /* \"#utility.yul\":1713:1722   */\n      dup2\n        /* \"#utility.yul\":1707:1711   */\n      dup2\n        /* \"#utility.yul\":1703:1723   */\n      sub\n        /* \"#utility.yul\":1699:1700   */\n      0x00\n        /* \"#utility.yul\":1688:1697   */\n      dup4\n        /* \"#utility.yul\":1684:1701   */\n      add\n        /* \"#utility.yul\":1677:1724   */\n      mstore\n        /* \"#utility.yul\":1741:1819   */\n      tag_69\n        /* \"#utility.yul\":1814:1818   */\n      dup2\n        /* \"#utility.yul\":1805:1811   */\n      dup5\n        /* \"#utility.yul\":1741:1819   */\n      tag_44\n      jump\t// in\n    tag_69:\n        /* \"#utility.yul\":1733:1819   */\n      swap1\n      pop\n        /* \"#utility.yul\":1513:1826   */\n      swap3\n      swap2\n      pop\n      pop\n      jump\t// out\n        /* \"#utility.yul\":1832:2024   */\n    tag_45:\n        /* \"#utility.yul\":2001:2017   */\n      0x626f74682061726d732061726520000000000000000000000000000000000000\n        /* \"#utility.yul\":1996:1999   */\n      dup2\n        /* \"#utility.yul\":1989:2018   */\n      mstore\n        /* \"#utility.yul\":1832:2024   */\n      pop\n      jump\t// out\n        /* \"#utility.yul\":2030:2178   */\n    tag_46:\n        /* \"#utility.yul\":2132:2143   */\n      0x00\n        /* \"#utility.yul\":2169:2172   */\n      dup2\n        /* \"#utility.yul\":2154:2172   */\n      swap1\n      pop\n        /* \"#utility.yul\":2030:2178   */\n      swap3\n      swap2\n      pop\n      pop\n      jump\t// out\n        /* \"#utility.yul\":2184:2561   */\n    tag_47:\n        /* \"#utility.yul\":2290:2293   */\n      0x00\n        /* \"#utility.yul\":2318:2357   */\n      tag_73\n        /* \"#utility.yul\":2351:2356   */\n      dup3\n        /* \"#utility.yul\":2318:2357   */\n      tag_40\n      jump\t// in\n    tag_73:\n        /* \"#utility.yul\":2373:2462   */\n      tag_74\n        /* \"#utility.yul\":2455:2461   */\n      dup2\n        /* \"#utility.yul\":2450:2453   */\n      dup6\n        /* \"#utility.yul\":2373:2462   */\n      tag_46\n      jump\t// in\n    tag_74:\n        /* \"#utility.yul\":2366:2462   */\n      swap4\n      pop\n        /* \"#utility.yul\":2471:2523   */\n      tag_75\n        /* \"#utility.yul\":2516:2522   */\n      dup2\n        /* \"#utility.yul\":2511:2514   */\n      dup6\n        /* \"#utility.yul\":2504:2508   */\n      0x20\n        /* \"#utility.yul\":2497:2502   */\n      dup7\n        /* \"#utility.yul\":2493:2509   */\n      add\n        /* \"#utility.yul\":2471:2523   */\n      tag_42\n      jump\t// in\n    tag_75:\n        /* \"#utility.yul\":2548:2554   */\n      dup1\n        /* \"#utility.yul\":2543:2546   */\n      dup5\n        /* \"#utility.yul\":2539:2555   */\n      add\n        /* \"#utility.yul\":2532:2555   */\n      swap2\n      pop\n        /* \"#utility.yul\":2294:2561   */\n      pop\n        /* \"#utility.yul\":2184:2561   */\n      swap3\n      swap2\n      pop\n      pop\n      jump\t// out\n        /* \"#utility.yul\":2567:3109   */\n    tag_33:\n        /* \"#utility.yul\":2790:2793   */\n      0x00\n        /* \"#utility.yul\":2805:2943   */\n      tag_77\n        /* \"#utility.yul\":2939:2942   */\n      dup3\n        /* \"#utility.yul\":2805:2943   */\n      tag_45\n      jump\t// in\n    tag_77:\n        /* \"#utility.yul\":2968:2970   */\n      0x0e\n        /* \"#utility.yul\":2963:2966   */\n      dup3\n        /* \"#utility.yul\":2959:2971   */\n      add\n        /* \"#utility.yul\":2952:2971   */\n      swap2\n      pop\n        /* \"#utility.yul\":2988:3083   */\n      tag_78\n        /* \"#utility.yul\":3079:3082   */\n      dup3\n        /* \"#utility.yul\":3070:3076   */\n      dup5\n        /* \"#utility.yul\":2988:3083   */\n      tag_47\n      jump\t// in\n    tag_78:\n        /* \"#utility.yul\":2981:3083   */\n      swap2\n      pop\n        /* \"#utility.yul\":3100:3103   */\n      dup2\n        /* \"#utility.yul\":3093:3103   */\n      swap1\n      pop\n        /* \"#utility.yul\":2567:3109   */\n      swap3\n      swap2\n      pop\n      pop\n      jump\t// out\n        /* \"#utility.yul\":3115:3305   */\n    tag_48:\n        /* \"#utility.yul\":3284:3298   */\n      0x6c6566742061726d206973200000000000000000000000000000000000000000\n        /* \"#utility.yul\":3279:3282   */\n      dup2\n        /* \"#utility.yul\":3272:3299   */\n      mstore\n        /* \"#utility.yul\":3115:3305   */\n      pop\n      jump\t// out\n        /* \"#utility.yul\":3311:3853   */\n    tag_37:\n        /* \"#utility.yul\":3534:3537   */\n      0x00\n        /* \"#utility.yul\":3549:3687   */\n      tag_81\n        /* \"#utility.yul\":3683:3686   */\n      dup3\n        /* \"#utility.yul\":3549:3687   */\n      tag_48\n      jump\t// in\n    tag_81:\n        /* \"#utility.yul\":3712:3714   */\n      0x0c\n        /* \"#utility.yul\":3707:3710   */\n      dup3\n        /* \"#utility.yul\":3703:3715   */\n      add\n        /* \"#utility.yul\":3696:3715   */\n      swap2\n      pop\n        /* \"#utility.yul\":3732:3827   */\n      tag_82\n        /* \"#utility.yul\":3823:3826   */\n      dup3\n        /* \"#utility.yul\":3814:3820   */\n      dup5\n        /* \"#utility.yul\":3732:3827   */\n      tag_47\n      jump\t// in\n    tag_82:\n        /* \"#utility.yul\":3725:3827   */\n      swap2\n      pop\n        /* \"#utility.yul\":3844:3847   */\n      dup2\n        /* \"#utility.yul\":3837:3847   */\n      swap1\n      pop\n        /* \"#utility.yul\":3311:3853   */\n      swap3\n      swap2\n      pop\n      pop\n      jump\t// out\n\n    auxdata: 0xa2646970667358221220b1b703cad2aeb254faf5d277eb717d5d9c27519abc8fbcdefd3e7feee93bbfc964736f6c634300080d0033\n}\n",
				"bytecode": {
					"linkReferences": {},
					"object": "6080604052601a60005534801561001557600080fd5b506103a2806100256000396000f3fe608060405234801561001057600080fd5b50600436106100575760003560e01c8063262a9dff1461005c5780635c8629cd1461007a5780638ebc2d9f14610098578063967e6e65146100b6578063b361e198146100d4575b600080fd5b6100646100f2565b60405161007191906101c2565b60405180910390f35b6100826100f8565b60405161008f9190610276565b60405180910390f35b6100a0610135565b6040516100ad9190610276565b60405180910390f35b6100be610144565b6040516100cb91906101c2565b60405180910390f35b6100dc61014d565b6040516100e99190610276565b60405180910390f35b60005481565b60606040518060400160405280600881526020017f62656e64696e6721000000000000000000000000000000000000000000000000815250905090565b606061013f61017b565b905090565b60008054905090565b60606101576100f8565b60405160200161016791906102fa565b604051602081830303815290604052905090565b60606101856100f8565b6040516020016101959190610346565b604051602081830303815290604052905090565b6000819050919050565b6101bc816101a9565b82525050565b60006020820190506101d760008301846101b3565b92915050565b600081519050919050565b600082825260208201905092915050565b60005b838110156102175780820151818401526020810190506101fc565b83811115610226576000848401525b50505050565b6000601f19601f8301169050919050565b6000610248826101dd565b61025281856101e8565b93506102628185602086016101f9565b61026b8161022c565b840191505092915050565b60006020820190508181036000830152610290818461023d565b905092915050565b7f626f74682061726d732061726520000000000000000000000000000000000000815250565b600081905092915050565b60006102d4826101dd565b6102de81856102be565b93506102ee8185602086016101f9565b80840191505092915050565b600061030582610298565b600e8201915061031582846102c9565b915081905092915050565b7f6c6566742061726d206973200000000000000000000000000000000000000000815250565b600061035182610320565b600c8201915061036182846102c9565b91508190509291505056fea2646970667358221220b1b703cad2aeb254faf5d277eb717d5d9c27519abc8fbcdefd3e7feee93bbfc964736f6c634300080d0033",
					"opcodes": "PUSH1 0x80 PUSH1 0x40 MSTORE PUSH1 0x1A PUSH1 0x0 SSTORE CALLVALUE DUP1 ISZERO PUSH2 0x15 JUMPI PUSH1 0x0 DUP1 REVERT JUMPDEST POP PUSH2 0x3A2 DUP1 PUSH2 0x25 PUSH1 0x0 CODECOPY PUSH1 0x0 RETURN INVALID PUSH1 0x80 PUSH1 0x40 MSTORE CALLVALUE DUP1 ISZERO PUSH2 0x10 JUMPI PUSH1 0x0 DUP1 REVERT JUMPDEST POP PUSH1 0x4 CALLDATASIZE LT PUSH2 0x57 JUMPI PUSH1 0x0 CALLDATALOAD PUSH1 0xE0 SHR DUP1 PUSH4 0x262A9DFF EQ PUSH2 0x5C JUMPI DUP1 PUSH4 0x5C8629CD EQ PUSH2 0x7A JUMPI DUP1 PUSH4 0x8EBC2D9F EQ PUSH2 0x98 JUMPI DUP1 PUSH4 0x967E6E65 EQ PUSH2 0xB6 JUMPI DUP1 PUSH4 0xB361E198 EQ PUSH2 0xD4 JUMPI JUMPDEST PUSH1 0x0 DUP1 REVERT JUMPDEST PUSH2 0x64 PUSH2 0xF2 JUMP JUMPDEST PUSH1 0x40 MLOAD PUSH2 0x71 SWAP2 SWAP1 PUSH2 0x1C2 JUMP JUMPDEST PUSH1 0x40 MLOAD DUP1 SWAP2 SUB SWAP1 RETURN JUMPDEST PUSH2 0x82 PUSH2 0xF8 JUMP JUMPDEST PUSH1 0x40 MLOAD PUSH2 0x8F SWAP2 SWAP1 PUSH2 0x276 JUMP JUMPDEST PUSH1 0x40 MLOAD DUP1 SWAP2 SUB SWAP1 RETURN JUMPDEST PUSH2 0xA0 PUSH2 0x135 JUMP JUMPDEST PUSH1 0x40 MLOAD PUSH2 0xAD SWAP2 SWAP1 PUSH2 0x276 JUMP JUMPDEST PUSH1 0x40 MLOAD DUP1 SWAP2 SUB SWAP1 RETURN JUMPDEST PUSH2 0xBE PUSH2 0x144 JUMP JUMPDEST PUSH1 0x40 MLOAD PUSH2 0xCB SWAP2 SWAP1 PUSH2 0x1C2 JUMP JUMPDEST PUSH1 0x40 MLOAD DUP1 SWAP2 SUB SWAP1 RETURN JUMPDEST PUSH2 0xDC PUSH2 0x14D JUMP JUMPDEST PUSH1 0x40 MLOAD PUSH2 0xE9 SWAP2 SWAP1 PUSH2 0x276 JUMP JUMPDEST PUSH1 0x40 MLOAD DUP1 SWAP2 SUB SWAP1 RETURN JUMPDEST PUSH1 0x0 SLOAD DUP2 JUMP JUMPDEST PUSH1 0x60 PUSH1 0x40 MLOAD DUP1 PUSH1 0x40 ADD PUSH1 0x40 MSTORE DUP1 PUSH1 0x8 DUP2 MSTORE PUSH1 0x20 ADD PUSH32 0x62656E64696E6721000000000000000000000000000000000000000000000000 DUP2 MSTORE POP SWAP1 POP SWAP1 JUMP JUMPDEST PUSH1 0x60 PUSH2 0x13F PUSH2 0x17B JUMP JUMPDEST SWAP1 POP SWAP1 JUMP JUMPDEST PUSH1 0x0 DUP1 SLOAD SWAP1 POP SWAP1 JUMP JUMPDEST PUSH1 0x60 PUSH2 0x157 PUSH2 0xF8 JUMP JUMPDEST PUSH1 0x40 MLOAD PUSH1 0x20 ADD PUSH2 0x167 SWAP2 SWAP1 PUSH2 0x2FA JUMP JUMPDEST PUSH1 0x40 MLOAD PUSH1 0x20 DUP2 DUP4 SUB SUB DUP2 MSTORE SWAP1 PUSH1 0x40 MSTORE SWAP1 POP SWAP1 JUMP JUMPDEST PUSH1 0x60 PUSH2 0x185 PUSH2 0xF8 JUMP JUMPDEST PUSH1 0x40 MLOAD PUSH1 0x20 ADD PUSH2 0x195 SWAP2 SWAP1 PUSH2 0x346 JUMP JUMPDEST PUSH1 0x40 MLOAD PUSH1 0x20 DUP2 DUP4 SUB SUB DUP2 MSTORE SWAP1 PUSH1 0x40 MSTORE SWAP1 POP SWAP1 JUMP JUMPDEST PUSH1 0x0 DUP2 SWAP1 POP SWAP2 SWAP1 POP JUMP JUMPDEST PUSH2 0x1BC DUP2 PUSH2 0x1A9 JUMP JUMPDEST DUP3 MSTORE POP POP JUMP JUMPDEST PUSH1 0x0 PUSH1 0x20 DUP3 ADD SWAP1 POP PUSH2 0x1D7 PUSH1 0x0 DUP4 ADD DUP5 PUSH2 0x1B3 JUMP JUMPDEST SWAP3 SWAP2 POP POP JUMP JUMPDEST PUSH1 0x0 DUP2 MLOAD SWAP1 POP SWAP2 SWAP1 POP JUMP JUMPDEST PUSH1 0x0 DUP3 DUP3 MSTORE PUSH1 0x20 DUP3 ADD SWAP1 POP SWAP3 SWAP2 POP POP JUMP JUMPDEST PUSH1 0x0 JUMPDEST DUP4 DUP2 LT ISZERO PUSH2 0x217 JUMPI DUP1 DUP3 ADD MLOAD DUP2 DUP5 ADD MSTORE PUSH1 0x20 DUP2 ADD SWAP1 POP PUSH2 0x1FC JUMP JUMPDEST DUP4 DUP2 GT ISZERO PUSH2 0x226 JUMPI PUSH1 0x0 DUP5 DUP5 ADD MSTORE JUMPDEST POP POP POP POP JUMP JUMPDEST PUSH1 0x0 PUSH1 0x1F NOT PUSH1 0x1F DUP4 ADD AND SWAP1 POP SWAP2 SWAP1 POP JUMP JUMPDEST PUSH1 0x0 PUSH2 0x248 DUP3 PUSH2 0x1DD JUMP JUMPDEST PUSH2 0x252 DUP2 DUP6 PUSH2 0x1E8 JUMP JUMPDEST SWAP4 POP PUSH2 0x262 DUP2 DUP6 PUSH1 0x20 DUP7 ADD PUSH2 0x1F9 JUMP JUMPDEST PUSH2 0x26B DUP2 PUSH2 0x22C JUMP JUMPDEST DUP5 ADD SWAP2 POP POP SWAP3 SWAP2 POP POP JUMP JUMPDEST PUSH1 0x0 PUSH1 0x20 DUP3 ADD SWAP1 POP DUP2 DUP2 SUB PUSH1 0x0 DUP4 ADD MSTORE PUSH2 0x290 DUP2 DUP5 PUSH2 0x23D JUMP JUMPDEST SWAP1 POP SWAP3 SWAP2 POP POP JUMP JUMPDEST PUSH32 0x626F74682061726D732061726520000000000000000000000000000000000000 DUP2 MSTORE POP JUMP JUMPDEST PUSH1 0x0 DUP2 SWAP1 POP SWAP3 SWAP2 POP POP JUMP JUMPDEST PUSH1 0x0 PUSH2 0x2D4 DUP3 PUSH2 0x1DD JUMP JUMPDEST PUSH2 0x2DE DUP2 DUP6 PUSH2 0x2BE JUMP JUMPDEST SWAP4 POP PUSH2 0x2EE DUP2 DUP6 PUSH1 0x20 DUP7 ADD PUSH2 0x1F9 JUMP JUMPDEST DUP1 DUP5 ADD SWAP2 POP POP SWAP3 SWAP2 POP POP JUMP JUMPDEST PUSH1 0x0 PUSH2 0x305 DUP3 PUSH2 0x298 JUMP JUMPDEST PUSH1 0xE DUP3 ADD SWAP2 POP PUSH2 0x315 DUP3 DUP5 PUSH2 0x2C9 JUMP JUMPDEST SWAP2 POP DUP2 SWAP1 POP SWAP3 SWAP2 POP POP JUMP JUMPDEST PUSH32 0x6C6566742061726D206973200000000000000000000000000000000000000000 DUP2 MSTORE POP JUMP JUMPDEST PUSH1 0x0 PUSH2 0x351 DUP3 PUSH2 0x320 JUMP JUMPDEST PUSH1 0xC DUP3 ADD SWAP2 POP PUSH2 0x361 DUP3 DUP5 PUSH2 0x2C9 JUMP JUMPDEST SWAP2 POP DUP2 SWAP1 POP SWAP3 SWAP2 POP POP JUMP INVALID LOG2 PUSH5 0x6970667358 0x22 SLT KECCAK256 0xB1 0xB7 SUB 0xCA 0xD2 0xAE 0xB2 SLOAD STATICCALL CREATE2 0xD2 PUSH24 0xEB717D5D9C27519ABC8FBCDEFD3E7FEEE93BBFC964736F6C PUSH4 0x4300080D STOP CALLER "
				},
				"gasEstimates": {
					"creation": {
						"codeDepositCost": "186000",
						"executionCost": "22338",
						"totalCost": "208338"
					},
					"external": {
						"age()": "2407",
						"bend()": "infinite",
						"getAge()": "2481",
						"raise()": "infinite",
						"raiseLeftArm()": "infinite"
					}
				},
				"methodIdentifiers": {
					"age()": "262a9dff",
					"bend()": "5c8629cd",
					"getAge()": "967e6e65",
					"raise()": "b361e198",
					"raiseLeftArm()": "8ebc2d9f"
				}
			},
			"storageLayout": {
				"storage": [
					{
						"astId": 4,
						"contract": "contracts/W2Day3.sol:Person",
						"label": "age",
						"offset": 0,
						"slot": "0",
						"type": "t_uint256"
					}
				],
				"types": {
					"t_uint256": {
						"encoding": "inplace",
						"label": "uint256",
						"numberOfBytes": "32"
					}
				}
			},
			"userdoc": {
				"kind": "user",
				"methods": {},
				"version": 1
			}
		}
	}
}