{
	"contracts/W2Day3.sol": {
		"alien": {
			"abi": [
				{
					"inputs": [],
					"name": "age",
					"outputs": [
						{
							"internalType": "uint256",
							"name": "",
							"type": "uint256"
						}
					],
					"stateMutability": "view",
					"type": "function"
				},
				{
					"inputs": [],
					"name": "bend",
					"outputs": [
						{
							"internalType": "string",
							"name": "",
							"type": "string"
						}
					],
					"stateMutability": "pure",
					"type": "function"
				},
				{
					"inputs": [],
					"name": "fly",
					"outputs": [
						{
							"internalType": "string",
							"name": "",
							"type": "string"
						}
					],
					"stateMutability": "pure",
					"type": "function"
				},
				{
					"inputs": [],
					"name": "kick",
					"outputs": [
						{
							"internalType": "string",
							"name": "",
							"type": "string"
						}
					],
					"stateMutability": "pure",
					"type": "function"
				},
				{
					"inputs": [],
					"name": "raise",
					"outputs": [
						{
							"internalType": "string",
							"name": "",
							"type": "string"
						}
					],
					"stateMutability": "pure",
					"type": "function"
				}
			],
			"devdoc": {
				"kind": "dev",
				"methods": {},
				"version": 1
			},
			"evm": {
				"assembly": "    /* \"contracts/W2Day3.sol\":1069:1327  contract alien is knee, rightArm {... */\n  mstore(0x40, 0x80)\n    /* \"contracts/W2Day3.sol\":101:103  26 */\n  0x1a\n    /* \"contracts/W2Day3.sol\":83:103  uint public age = 26 */\n  0x00\n  sstore\n    /* \"contracts/W2Day3.sol\":1069:1327  contract alien is knee, rightArm {... */\n  callvalue\n  dup1\n  iszero\n  tag_1\n  jumpi\n  0x00\n  dup1\n  revert\ntag_1:\n  pop\n  dataSize(sub_0)\n  dup1\n  dataOffset(sub_0)\n  0x00\n  codecopy\n  0x00\n  return\nstop\n\nsub_0: assembly {\n        /* \"contracts/W2Day3.sol\":1069:1327  contract alien is knee, rightArm {... */\n      mstore(0x40, 0x80)\n      callvalue\n      dup1\n      iszero\n      tag_1\n      jumpi\n      0x00\n      dup1\n      revert\n    tag_1:\n      pop\n      jumpi(tag_2, lt(calldatasize, 0x04))\n      shr(0xe0, calldataload(0x00))\n      dup1\n      0x262a9dff\n      eq\n      tag_3\n      jumpi\n      dup1\n      0x2c2e3abf\n      eq\n      tag_4\n      jumpi\n      dup1\n      0x5c8629cd\n      eq\n      tag_5\n      jumpi\n      dup1\n      0x7a67b479\n      eq\n      tag_6\n      jumpi\n      dup1\n      0xb361e198\n      eq\n      tag_7\n      jumpi\n    tag_2:\n      0x00\n      dup1\n      revert\n        /* \"contracts/W2Day3.sol\":83:103  uint public age = 26 */\n    tag_3:\n      tag_8\n      tag_9\n      jump\t// in\n    tag_8:\n      mload(0x40)\n      tag_10\n      swap2\n      swap1\n      tag_11\n      jump\t// in\n    tag_10:\n      mload(0x40)\n      dup1\n      swap2\n      sub\n      swap1\n      return\n        /* \"contracts/W2Day3.sol\":1109:1215  function fly() public pure returns(string memory) {... */\n    tag_4:\n      tag_12\n      tag_13\n      jump\t// in\n    tag_12:\n      mload(0x40)\n      tag_14\n      swap2\n      swap1\n      tag_15\n      jump\t// in\n    tag_14:\n      mload(0x40)\n      dup1\n      swap2\n      sub\n      swap1\n      return\n        /* \"contracts/W2Day3.sol\":1223:1322  function bend() public pure override returns(string memory) {... */\n    tag_5:\n      tag_16\n      tag_17\n      jump\t// in\n    tag_16:\n      mload(0x40)\n      tag_18\n      swap2\n      swap1\n      tag_15\n      jump\t// in\n    tag_18:\n      mload(0x40)\n      dup1\n      swap2\n      sub\n      swap1\n      return\n        /* \"contracts/W2Day3.sol\":972:1060  function kick() public pure returns(string memory) {... */\n    tag_6:\n      tag_19\n      tag_20\n      jump\t// in\n    tag_19:\n      mload(0x40)\n      tag_21\n      swap2\n      swap1\n      tag_15\n      jump\t// in\n    tag_21:\n      mload(0x40)\n      dup1\n      swap2\n      sub\n      swap1\n      return\n        /* \"contracts/W2Day3.sol\":495:619  function raise() public pure virtual returns(string memory) {... */\n    tag_7:\n      tag_22\n      tag_23\n      jump\t// in\n    tag_22:\n      mload(0x40)\n      tag_24\n      swap2\n      swap1\n      tag_15\n      jump\t// in\n    tag_24:\n      mload(0x40)\n      dup1\n      swap2\n      sub\n      swap1\n      return\n        /* \"contracts/W2Day3.sol\":83:103  uint public age = 26 */\n    tag_9:\n      sload(0x00)\n      dup2\n      jump\t// out\n        /* \"contracts/W2Day3.sol\":1109:1215  function fly() public pure returns(string memory) {... */\n    tag_13:\n        /* \"contracts/W2Day3.sol\":1144:1157  string memory */\n      0x60\n        /* \"contracts/W2Day3.sol\":1191:1197  kick() */\n      tag_26\n        /* \"contracts/W2Day3.sol\":1191:1195  kick */\n      tag_20\n        /* \"contracts/W2Day3.sol\":1191:1197  kick() */\n      jump\t// in\n    tag_26:\n        /* \"contracts/W2Day3.sol\":1199:1206  raise() */\n      tag_27\n        /* \"contracts/W2Day3.sol\":1199:1204  raise */\n      tag_23\n        /* \"contracts/W2Day3.sol\":1199:1206  raise() */\n      jump\t// in\n    tag_27:\n        /* \"contracts/W2Day3.sol\":1177:1207  string.concat(kick(), raise()) */\n      add(0x20, mload(0x40))\n      tag_28\n      swap3\n      swap2\n      swap1\n      tag_29\n      jump\t// in\n    tag_28:\n      mload(0x40)\n      0x20\n      dup2\n      dup4\n      sub\n      sub\n      dup2\n      mstore\n      swap1\n      0x40\n      mstore\n        /* \"contracts/W2Day3.sol\":1170:1207  return string.concat(kick(), raise()) */\n      swap1\n      pop\n        /* \"contracts/W2Day3.sol\":1109:1215  function fly() public pure returns(string memory) {... */\n      swap1\n      jump\t// out\n        /* \"contracts/W2Day3.sol\":1223:1322  function bend() public pure override returns(string memory) {... */\n    tag_17:\n        /* \"contracts/W2Day3.sol\":1268:1281  string memory */\n      0x60\n        /* \"contracts/W2Day3.sol\":1294:1314  return \"exfoliating\" */\n      mload(0x40)\n      dup1\n      0x40\n      add\n      0x40\n      mstore\n      dup1\n      0x0b\n      dup2\n      mstore\n      0x20\n      add\n      0x6578666f6c696174696e67000000000000000000000000000000000000000000\n      dup2\n      mstore\n      pop\n      swap1\n      pop\n        /* \"contracts/W2Day3.sol\":1223:1322  function bend() public pure override returns(string memory) {... */\n      swap1\n      jump\t// out\n        /* \"contracts/W2Day3.sol\":972:1060  function kick() public pure returns(string memory) {... */\n    tag_20:\n        /* \"contracts/W2Day3.sol\":1008:1021  string memory */\n      0x60\n        /* \"contracts/W2Day3.sol\":1034:1052  return \"kicking! \" */\n      mload(0x40)\n      dup1\n      0x40\n      add\n      0x40\n      mstore\n      dup1\n      0x09\n      dup2\n      mstore\n      0x20\n      add\n      0x6b69636b696e6721200000000000000000000000000000000000000000000000\n      dup2\n      mstore\n      pop\n      swap1\n      pop\n        /* \"contracts/W2Day3.sol\":972:1060  function kick() public pure returns(string memory) {... */\n      swap1\n      jump\t// out\n        /* \"contracts/W2Day3.sol\":495:619  function raise() public pure virtual returns(string memory) {... */\n    tag_23:\n        /* \"contracts/W2Day3.sol\":540:553  string memory */\n      0x60\n        /* \"contracts/W2Day3.sol\":604:610  bend() */\n      tag_33\n        /* \"contracts/W2Day3.sol\":604:608  bend */\n      tag_17\n        /* \"contracts/W2Day3.sol\":604:610  bend() */\n      jump\t// in\n    tag_33:\n        /* \"contracts/W2Day3.sol\":573:611  string.concat(\"right arm is \", bend()) */\n      add(0x20, mload(0x40))\n      tag_34\n      swap2\n      swap1\n      tag_35\n      jump\t// in\n    tag_34:\n      mload(0x40)\n      0x20\n      dup2\n      dup4\n      sub\n      sub\n      dup2\n      mstore\n      swap1\n      0x40\n      mstore\n        /* \"contracts/W2Day3.sol\":566:611  return string.concat(\"right arm is \", bend()) */\n      swap1\n      pop\n        /* \"contracts/W2Day3.sol\":495:619  function raise() public pure virtual returns(string memory) {... */\n      swap1\n      jump\t// out\n        /* \"#utility.yul\":7:84   */\n    tag_36:\n        /* \"#utility.yul\":44:51   */\n      0x00\n        /* \"#utility.yul\":73:78   */\n      dup2\n        /* \"#utility.yul\":62:78   */\n      swap1\n      pop\n        /* \"#utility.yul\":7:84   */\n      swap2\n      swap1\n      pop\n      jump\t// out\n        /* \"#utility.yul\":90:208   */\n    tag_37:\n        /* \"#utility.yul\":177:201   */\n      tag_49\n        /* \"#utility.yul\":195:200   */\n      dup2\n        /* \"#utility.yul\":177:201   */\n      tag_36\n      jump\t// in\n    tag_49:\n        /* \"#utility.yul\":172:175   */\n      dup3\n        /* \"#utility.yul\":165:202   */\n      mstore\n        /* \"#utility.yul\":90:208   */\n      pop\n      pop\n      jump\t// out\n        /* \"#utility.yul\":214:436   */\n    tag_11:\n        /* \"#utility.yul\":307:311   */\n      0x00\n        /* \"#utility.yul\":345:347   */\n      0x20\n        /* \"#utility.yul\":334:343   */\n      dup3\n        /* \"#utility.yul\":330:348   */\n      add\n        /* \"#utility.yul\":322:348   */\n      swap1\n      pop\n        /* \"#utility.yul\":358:429   */\n      tag_51\n        /* \"#utility.yul\":426:427   */\n      0x00\n        /* \"#utility.yul\":415:424   */\n      dup4\n        /* \"#utility.yul\":411:428   */\n      add\n        /* \"#utility.yul\":402:408   */\n      dup5\n        /* \"#utility.yul\":358:429   */\n      tag_37\n      jump\t// in\n    tag_51:\n        /* \"#utility.yul\":214:436   */\n      swap3\n      swap2\n      pop\n      pop\n      jump\t// out\n        /* \"#utility.yul\":442:541   */\n    tag_38:\n        /* \"#utility.yul\":494:500   */\n      0x00\n        /* \"#utility.yul\":528:533   */\n      dup2\n        /* \"#utility.yul\":522:534   */\n      mload\n        /* \"#utility.yul\":512:534   */\n      swap1\n      pop\n        /* \"#utility.yul\":442:541   */\n      swap2\n      swap1\n      pop\n      jump\t// out\n        /* \"#utility.yul\":547:716   */\n    tag_39:\n        /* \"#utility.yul\":631:642   */\n      0x00\n        /* \"#utility.yul\":665:671   */\n      dup3\n        /* \"#utility.yul\":660:663   */\n      dup3\n        /* \"#utility.yul\":653:672   */\n      mstore\n        /* \"#utility.yul\":705:709   */\n      0x20\n        /* \"#utility.yul\":700:703   */\n      dup3\n        /* \"#utility.yul\":696:710   */\n      add\n        /* \"#utility.yul\":681:710   */\n      swap1\n      pop\n        /* \"#utility.yul\":547:716   */\n      swap3\n      swap2\n      pop\n      pop\n      jump\t// out\n        /* \"#utility.yul\":722:1029   */\n    tag_40:\n        /* \"#utility.yul\":790:791   */\n      0x00\n        /* \"#utility.yul\":800:913   */\n    tag_55:\n        /* \"#utility.yul\":814:820   */\n      dup4\n        /* \"#utility.yul\":811:812   */\n      dup2\n        /* \"#utility.yul\":808:821   */\n      lt\n        /* \"#utility.yul\":800:913   */\n      iszero\n      tag_57\n      jumpi\n        /* \"#utility.yul\":899:900   */\n      dup1\n        /* \"#utility.yul\":894:897   */\n      dup3\n        /* \"#utility.yul\":890:901   */\n      add\n        /* \"#utility.yul\":884:902   */\n      mload\n        /* \"#utility.yul\":880:881   */\n      dup2\n        /* \"#utility.yul\":875:878   */\n      dup5\n        /* \"#utility.yul\":871:882   */\n      add\n        /* \"#utility.yul\":864:903   */\n      mstore\n        /* \"#utility.yul\":836:838   */\n      0x20\n        /* \"#utility.yul\":833:834   */\n      dup2\n        /* \"#utility.yul\":829:839   */\n      add\n        /* \"#utility.yul\":824:839   */\n      swap1\n      pop\n        /* \"#utility.yul\":800:913   */\n      jump(tag_55)\n    tag_57:\n        /* \"#utility.yul\":931:937   */\n      dup4\n        /* \"#utility.yul\":928:929   */\n      dup2\n        /* \"#utility.yul\":925:938   */\n      gt\n        /* \"#utility.yul\":922:1023   */\n      iszero\n      tag_58\n      jumpi\n        /* \"#utility.yul\":1011:1012   */\n      0x00\n        /* \"#utility.yul\":1002:1008   */\n      dup5\n        /* \"#utility.yul\":997:1000   */\n      dup5\n        /* \"#utility.yul\":993:1009   */\n      add\n        /* \"#utility.yul\":986:1013   */\n      mstore\n        /* \"#utility.yul\":922:1023   */\n    tag_58:\n        /* \"#utility.yul\":771:1029   */\n      pop\n        /* \"#utility.yul\":722:1029   */\n      pop\n      pop\n      pop\n      jump\t// out\n        /* \"#utility.yul\":1035:1137   */\n    tag_41:\n        /* \"#utility.yul\":1076:1082   */\n      0x00\n        /* \"#utility.yul\":1127:1129   */\n      0x1f\n        /* \"#utility.yul\":1123:1130   */\n      not\n        /* \"#utility.yul\":1118:1120   */\n      0x1f\n        /* \"#utility.yul\":1111:1116   */\n      dup4\n        /* \"#utility.yul\":1107:1121   */\n      add\n        /* \"#utility.yul\":1103:1131   */\n      and\n        /* \"#utility.yul\":1093:1131   */\n      swap1\n      pop\n        /* \"#utility.yul\":1035:1137   */\n      swap2\n      swap1\n      pop\n      jump\t// out\n        /* \"#utility.yul\":1143:1507   */\n    tag_42:\n        /* \"#utility.yul\":1231:1234   */\n      0x00\n        /* \"#utility.yul\":1259:1298   */\n      tag_61\n        /* \"#utility.yul\":1292:1297   */\n      dup3\n        /* \"#utility.yul\":1259:1298   */\n      tag_38\n      jump\t// in\n    tag_61:\n        /* \"#utility.yul\":1314:1385   */\n      tag_62\n        /* \"#utility.yul\":1378:1384   */\n      dup2\n        /* \"#utility.yul\":1373:1376   */\n      dup6\n        /* \"#utility.yul\":1314:1385   */\n      tag_39\n      jump\t// in\n    tag_62:\n        /* \"#utility.yul\":1307:1385   */\n      swap4\n      pop\n        /* \"#utility.yul\":1394:1446   */\n      tag_63\n        /* \"#utility.yul\":1439:1445   */\n      dup2\n        /* \"#utility.yul\":1434:1437   */\n      dup6\n        /* \"#utility.yul\":1427:1431   */\n      0x20\n        /* \"#utility.yul\":1420:1425   */\n      dup7\n        /* \"#utility.yul\":1416:1432   */\n      add\n        /* \"#utility.yul\":1394:1446   */\n      tag_40\n      jump\t// in\n    tag_63:\n        /* \"#utility.yul\":1471:1500   */\n      tag_64\n        /* \"#utility.yul\":1493:1499   */\n      dup2\n        /* \"#utility.yul\":1471:1500   */\n      tag_41\n      jump\t// in\n    tag_64:\n        /* \"#utility.yul\":1466:1469   */\n      dup5\n        /* \"#utility.yul\":1462:1501   */\n      add\n        /* \"#utility.yul\":1455:1501   */\n      swap2\n      pop\n        /* \"#utility.yul\":1235:1507   */\n      pop\n        /* \"#utility.yul\":1143:1507   */\n      swap3\n      swap2\n      pop\n      pop\n      jump\t// out\n        /* \"#utility.yul\":1513:1826   */\n    tag_15:\n        /* \"#utility.yul\":1626:1630   */\n      0x00\n        /* \"#utility.yul\":1664:1666   */\n      0x20\n        /* \"#utility.yul\":1653:1662   */\n      dup3\n        /* \"#utility.yul\":1649:1667   */\n      add\n        /* \"#utility.yul\":1641:1667   */\n      swap1\n      pop\n        /* \"#utility.yul\":1713:1722   */\n      dup2\n        /* \"#utility.yul\":1707:1711   */\n      dup2\n        /* \"#utility.yul\":1703:1723   */\n      sub\n        /* \"#utility.yul\":1699:1700   */\n      0x00\n        /* \"#utility.yul\":1688:1697   */\n      dup4\n        /* \"#utility.yul\":1684:1701   */\n      add\n        /* \"#utility.yul\":1677:1724   */\n      mstore\n        /* \"#utility.yul\":1741:1819   */\n      tag_66\n        /* \"#utility.yul\":1814:1818   */\n      dup2\n        /* \"#utility.yul\":1805:1811   */\n      dup5\n        /* \"#utility.yul\":1741:1819   */\n      tag_42\n      jump\t// in\n    tag_66:\n        /* \"#utility.yul\":1733:1819   */\n      swap1\n      pop\n        /* \"#utility.yul\":1513:1826   */\n      swap3\n      swap2\n      pop\n      pop\n      jump\t// out\n        /* \"#utility.yul\":1832:1980   */\n    tag_43:\n        /* \"#utility.yul\":1934:1945   */\n      0x00\n        /* \"#utility.yul\":1971:1974   */\n      dup2\n        /* \"#utility.yul\":1956:1974   */\n      swap1\n      pop\n        /* \"#utility.yul\":1832:1980   */\n      swap3\n      swap2\n      pop\n      pop\n      jump\t// out\n        /* \"#utility.yul\":1986:2363   */\n    tag_44:\n        /* \"#utility.yul\":2092:2095   */\n      0x00\n        /* \"#utility.yul\":2120:2159   */\n      tag_69\n        /* \"#utility.yul\":2153:2158   */\n      dup3\n        /* \"#utility.yul\":2120:2159   */\n      tag_38\n      jump\t// in\n    tag_69:\n        /* \"#utility.yul\":2175:2264   */\n      tag_70\n        /* \"#utility.yul\":2257:2263   */\n      dup2\n        /* \"#utility.yul\":2252:2255   */\n      dup6\n        /* \"#utility.yul\":2175:2264   */\n      tag_43\n      jump\t// in\n    tag_70:\n        /* \"#utility.yul\":2168:2264   */\n      swap4\n      pop\n        /* \"#utility.yul\":2273:2325   */\n      tag_71\n        /* \"#utility.yul\":2318:2324   */\n      dup2\n        /* \"#utility.yul\":2313:2316   */\n      dup6\n        /* \"#utility.yul\":2306:2310   */\n      0x20\n        /* \"#utility.yul\":2299:2304   */\n      dup7\n        /* \"#utility.yul\":2295:2311   */\n      add\n        /* \"#utility.yul\":2273:2325   */\n      tag_40\n      jump\t// in\n    tag_71:\n        /* \"#utility.yul\":2350:2356   */\n      dup1\n        /* \"#utility.yul\":2345:2348   */\n      dup5\n        /* \"#utility.yul\":2341:2357   */\n      add\n        /* \"#utility.yul\":2334:2357   */\n      swap2\n      pop\n        /* \"#utility.yul\":2096:2363   */\n      pop\n        /* \"#utility.yul\":1986:2363   */\n      swap3\n      swap2\n      pop\n      pop\n      jump\t// out\n        /* \"#utility.yul\":2369:2804   */\n    tag_29:\n        /* \"#utility.yul\":2549:2552   */\n      0x00\n        /* \"#utility.yul\":2571:2666   */\n      tag_73\n        /* \"#utility.yul\":2662:2665   */\n      dup3\n        /* \"#utility.yul\":2653:2659   */\n      dup6\n        /* \"#utility.yul\":2571:2666   */\n      tag_44\n      jump\t// in\n    tag_73:\n        /* \"#utility.yul\":2564:2666   */\n      swap2\n      pop\n        /* \"#utility.yul\":2683:2778   */\n      tag_74\n        /* \"#utility.yul\":2774:2777   */\n      dup3\n        /* \"#utility.yul\":2765:2771   */\n      dup5\n        /* \"#utility.yul\":2683:2778   */\n      tag_44\n      jump\t// in\n    tag_74:\n        /* \"#utility.yul\":2676:2778   */\n      swap2\n      pop\n        /* \"#utility.yul\":2795:2798   */\n      dup2\n        /* \"#utility.yul\":2788:2798   */\n      swap1\n      pop\n        /* \"#utility.yul\":2369:2804   */\n      swap4\n      swap3\n      pop\n      pop\n      pop\n      jump\t// out\n        /* \"#utility.yul\":2810:3001   */\n    tag_45:\n        /* \"#utility.yul\":2979:2994   */\n      0x72696768742061726d2069732000000000000000000000000000000000000000\n        /* \"#utility.yul\":2974:2977   */\n      dup2\n        /* \"#utility.yul\":2967:2995   */\n      mstore\n        /* \"#utility.yul\":2810:3001   */\n      pop\n      jump\t// out\n        /* \"#utility.yul\":3007:3549   */\n    tag_35:\n        /* \"#utility.yul\":3230:3233   */\n      0x00\n        /* \"#utility.yul\":3245:3383   */\n      tag_77\n        /* \"#utility.yul\":3379:3382   */\n      dup3\n        /* \"#utility.yul\":3245:3383   */\n      tag_45\n      jump\t// in\n    tag_77:\n        /* \"#utility.yul\":3408:3410   */\n      0x0d\n        /* \"#utility.yul\":3403:3406   */\n      dup3\n        /* \"#utility.yul\":3399:3411   */\n      add\n        /* \"#utility.yul\":3392:3411   */\n      swap2\n      pop\n        /* \"#utility.yul\":3428:3523   */\n      tag_78\n        /* \"#utility.yul\":3519:3522   */\n      dup3\n        /* \"#utility.yul\":3510:3516   */\n      dup5\n        /* \"#utility.yul\":3428:3523   */\n      tag_44\n      jump\t// in\n    tag_78:\n        /* \"#utility.yul\":3421:3523   */\n      swap2\n      pop\n        /* \"#utility.yul\":3540:3543   */\n      dup2\n        /* \"#utility.yul\":3533:3543   */\n      swap1\n      pop\n        /* \"#utility.yul\":3007:3549   */\n      swap3\n      swap2\n      pop\n      pop\n      jump\t// out\n\n    auxdata: 0xa26469706673582212205c863a3e674c9733d58b21e7b7f6e2451878bffd7bf3c56fa16851bb5bb9eed364736f6c634300080d0033\n}\n",
				"bytecode": {
					"linkReferences": {},
					"object": "6080604052601a60005534801561001557600080fd5b506103a8806100256000396000f3fe608060405234801561001057600080fd5b50600436106100575760003560e01c8063262a9dff1461005c5780632c2e3abf1461007a5780635c8629cd146100985780637a67b479146100b6578063b361e198146100d4575b600080fd5b6100646100f2565b60405161007191906101f0565b60405180910390f35b6100826100f8565b60405161008f91906102a4565b60405180910390f35b6100a061012f565b6040516100ad91906102a4565b60405180910390f35b6100be61016c565b6040516100cb91906102a4565b60405180910390f35b6100dc6101a9565b6040516100e991906102a4565b60405180910390f35b60005481565b606061010261016c565b61010a6101a9565b60405160200161011b929190610302565b604051602081830303815290604052905090565b60606040518060400160405280600b81526020017f6578666f6c696174696e67000000000000000000000000000000000000000000815250905090565b60606040518060400160405280600981526020017f6b69636b696e6721200000000000000000000000000000000000000000000000815250905090565b60606101b361012f565b6040516020016101c3919061034c565b604051602081830303815290604052905090565b6000819050919050565b6101ea816101d7565b82525050565b600060208201905061020560008301846101e1565b92915050565b600081519050919050565b600082825260208201905092915050565b60005b8381101561024557808201518184015260208101905061022a565b83811115610254576000848401525b50505050565b6000601f19601f8301169050919050565b60006102768261020b565b6102808185610216565b9350610290818560208601610227565b6102998161025a565b840191505092915050565b600060208201905081810360008301526102be818461026b565b905092915050565b600081905092915050565b60006102dc8261020b565b6102e681856102c6565b93506102f6818560208601610227565b80840191505092915050565b600061030e82856102d1565b915061031a82846102d1565b91508190509392505050565b7f72696768742061726d2069732000000000000000000000000000000000000000815250565b600061035782610326565b600d8201915061036782846102d1565b91508190509291505056fea26469706673582212205c863a3e674c9733d58b21e7b7f6e2451878bffd7bf3c56fa16851bb5bb9eed364736f6c634300080d0033",
					"opcodes": "PUSH1 0x80 PUSH1 0x40 MSTORE PUSH1 0x1A PUSH1 0x0 SSTORE CALLVALUE DUP1 ISZERO PUSH2 0x15 JUMPI PUSH1 0x0 DUP1 REVERT JUMPDEST POP PUSH2 0x3A8 DUP1 PUSH2 0x25 PUSH1 0x0 CODECOPY PUSH1 0x0 RETURN INVALID PUSH1 0x80 PUSH1 0x40 MSTORE CALLVALUE DUP1 ISZERO PUSH2 0x10 JUMPI PUSH1 0x0 DUP1 REVERT JUMPDEST POP PUSH1 0x4 CALLDATASIZE LT PUSH2 0x57 JUMPI PUSH1 0x0 CALLDATALOAD PUSH1 0xE0 SHR DUP1 PUSH4 0x262A9DFF EQ PUSH2 0x5C JUMPI DUP1 PUSH4 0x2C2E3ABF EQ PUSH2 0x7A JUMPI DUP1 PUSH4 0x5C8629CD EQ PUSH2 0x98 JUMPI DUP1 PUSH4 0x7A67B479 EQ PUSH2 0xB6 JUMPI DUP1 PUSH4 0xB361E198 EQ PUSH2 0xD4 JUMPI JUMPDEST PUSH1 0x0 DUP1 REVERT JUMPDEST PUSH2 0x64 PUSH2 0xF2 JUMP JUMPDEST PUSH1 0x40 MLOAD PUSH2 0x71 SWAP2 SWAP1 PUSH2 0x1F0 JUMP JUMPDEST PUSH1 0x40 MLOAD DUP1 SWAP2 SUB SWAP1 RETURN JUMPDEST PUSH2 0x82 PUSH2 0xF8 JUMP JUMPDEST PUSH1 0x40 MLOAD PUSH2 0x8F SWAP2 SWAP1 PUSH2 0x2A4 JUMP JUMPDEST PUSH1 0x40 MLOAD DUP1 SWAP2 SUB SWAP1 RETURN JUMPDEST PUSH2 0xA0 PUSH2 0x12F JUMP JUMPDEST PUSH1 0x40 MLOAD PUSH2 0xAD SWAP2 SWAP1 PUSH2 0x2A4 JUMP JUMPDEST PUSH1 0x40 MLOAD DUP1 SWAP2 SUB SWAP1 RETURN JUMPDEST PUSH2 0xBE PUSH2 0x16C JUMP JUMPDEST PUSH1 0x40 MLOAD PUSH2 0xCB SWAP2 SWAP1 PUSH2 0x2A4 JUMP JUMPDEST PUSH1 0x40 MLOAD DUP1 SWAP2 SUB SWAP1 RETURN JUMPDEST PUSH2 0xDC PUSH2 0x1A9 JUMP JUMPDEST PUSH1 0x40 MLOAD PUSH2 0xE9 SWAP2 SWAP1 PUSH2 0x2A4 JUMP JUMPDEST PUSH1 0x40 MLOAD DUP1 SWAP2 SUB SWAP1 RETURN JUMPDEST PUSH1 0x0 SLOAD DUP2 JUMP JUMPDEST PUSH1 0x60 PUSH2 0x102 PUSH2 0x16C JUMP JUMPDEST PUSH2 0x10A PUSH2 0x1A9 JUMP JUMPDEST PUSH1 0x40 MLOAD PUSH1 0x20 ADD PUSH2 0x11B SWAP3 SWAP2 SWAP1 PUSH2 0x302 JUMP JUMPDEST PUSH1 0x40 MLOAD PUSH1 0x20 DUP2 DUP4 SUB SUB DUP2 MSTORE SWAP1 PUSH1 0x40 MSTORE SWAP1 POP SWAP1 JUMP JUMPDEST PUSH1 0x60 PUSH1 0x40 MLOAD DUP1 PUSH1 0x40 ADD PUSH1 0x40 MSTORE DUP1 PUSH1 0xB DUP2 MSTORE PUSH1 0x20 ADD PUSH32 0x6578666F6C696174696E67000000000000000000000000000000000000000000 DUP2 MSTORE POP SWAP1 POP SWAP1 JUMP JUMPDEST PUSH1 0x60 PUSH1 0x40 MLOAD DUP1 PUSH1 0x40 ADD PUSH1 0x40 MSTORE DUP1 PUSH1 0x9 DUP2 MSTORE PUSH1 0x20 ADD PUSH32 0x6B69636B696E6721200000000000000000000000000000000000000000000000 DUP2 MSTORE POP SWAP1 POP SWAP1 JUMP JUMPDEST PUSH1 0x60 PUSH2 0x1B3 PUSH2 0x12F JUMP JUMPDEST PUSH1 0x40 MLOAD PUSH1 0x20 ADD PUSH2 0x1C3 SWAP2 SWAP1 PUSH2 0x34C JUMP JUMPDEST PUSH1 0x40 MLOAD PUSH1 0x20 DUP2 DUP4 SUB SUB DUP2 MSTORE SWAP1 PUSH1 0x40 MSTORE SWAP1 POP SWAP1 JUMP JUMPDEST PUSH1 0x0 DUP2 SWAP1 POP SWAP2 SWAP1 POP JUMP JUMPDEST PUSH2 0x1EA DUP2 PUSH2 0x1D7 JUMP JUMPDEST DUP3 MSTORE POP POP JUMP JUMPDEST PUSH1 0x0 PUSH1 0x20 DUP3 ADD SWAP1 POP PUSH2 0x205 PUSH1 0x0 DUP4 ADD DUP5 PUSH2 0x1E1 JUMP JUMPDEST SWAP3 SWAP2 POP POP JUMP JUMPDEST PUSH1 0x0 DUP2 MLOAD SWAP1 POP SWAP2 SWAP1 POP JUMP JUMPDEST PUSH1 0x0 DUP3 DUP3 MSTORE PUSH1 0x20 DUP3 ADD SWAP1 POP SWAP3 SWAP2 POP POP JUMP JUMPDEST PUSH1 0x0 JUMPDEST DUP4 DUP2 LT ISZERO PUSH2 0x245 JUMPI DUP1 DUP3 ADD MLOAD DUP2 DUP5 ADD MSTORE PUSH1 0x20 DUP2 ADD SWAP1 POP PUSH2 0x22A JUMP JUMPDEST DUP4 DUP2 GT ISZERO PUSH2 0x254 JUMPI PUSH1 0x0 DUP5 DUP5 ADD MSTORE JUMPDEST POP POP POP POP JUMP JUMPDEST PUSH1 0x0 PUSH1 0x1F NOT PUSH1 0x1F DUP4 ADD AND SWAP1 POP SWAP2 SWAP1 POP JUMP JUMPDEST PUSH1 0x0 PUSH2 0x276 DUP3 PUSH2 0x20B JUMP JUMPDEST PUSH2 0x280 DUP2 DUP6 PUSH2 0x216 JUMP JUMPDEST SWAP4 POP PUSH2 0x290 DUP2 DUP6 PUSH1 0x20 DUP7 ADD PUSH2 0x227 JUMP JUMPDEST PUSH2 0x299 DUP2 PUSH2 0x25A JUMP JUMPDEST DUP5 ADD SWAP2 POP POP SWAP3 SWAP2 POP POP JUMP JUMPDEST PUSH1 0x0 PUSH1 0x20 DUP3 ADD SWAP1 POP DUP2 DUP2 SUB PUSH1 0x0 DUP4 ADD MSTORE PUSH2 0x2BE DUP2 DUP5 PUSH2 0x26B JUMP JUMPDEST SWAP1 POP SWAP3 SWAP2 POP POP JUMP JUMPDEST PUSH1 0x0 DUP2 SWAP1 POP SWAP3 SWAP2 POP POP JUMP JUMPDEST PUSH1 0x0 PUSH2 0x2DC DUP3 PUSH2 0x20B JUMP JUMPDEST PUSH2 0x2E6 DUP2 DUP6 PUSH2 0x2C6 JUMP JUMPDEST SWAP4 POP PUSH2 0x2F6 DUP2 DUP6 PUSH1 0x20 DUP7 ADD PUSH2 0x227 JUMP JUMPDEST DUP1 DUP5 ADD SWAP2 POP POP SWAP3 SWAP2 POP POP JUMP JUMPDEST PUSH1 0x0 PUSH2 0x30E DUP3 DUP6 PUSH2 0x2D1 JUMP JUMPDEST SWAP2 POP PUSH2 0x31A DUP3 DUP5 PUSH2 0x2D1 JUMP JUMPDEST SWAP2 POP DUP2 SWAP1 POP SWAP4 SWAP3 POP POP POP JUMP JUMPDEST PUSH32 0x72696768742061726D2069732000000000000000000000000000000000000000 DUP2 MSTORE POP JUMP JUMPDEST PUSH1 0x0 PUSH2 0x357 DUP3 PUSH2 0x326 JUMP JUMPDEST PUSH1 0xD DUP3 ADD SWAP2 POP PUSH2 0x367 DUP3 DUP5 PUSH2 0x2D1 JUMP JUMPDEST SWAP2 POP DUP2 SWAP1 POP SWAP3 SWAP2 POP POP JUMP INVALID LOG2 PUSH5 0x6970667358 0x22 SLT KECCAK256 0x5C DUP7 GASPRICE RETURNDATACOPY PUSH8 0x4C9733D58B21E7B7 0xF6 0xE2 GASLIMIT XOR PUSH25 0xBFFD7BF3C56FA16851BB5BB9EED364736F6C634300080D0033 "
				},
				"gasEstimates": {
					"creation": {
						"codeDepositCost": "187200",
						"executionCost": "22338",
						"totalCost": "209538"
					},
					"external": {
						"age()": "2407",
						"bend()": "infinite",
						"fly()": "infinite",
						"kick()": "infinite",
						"raise()": "infinite"
					}
				},
				"methodIdentifiers": {
					"age()": "262a9dff",
					"bend()": "5c8629cd",
					"fly()": "2c2e3abf",
					"kick()": "7a67b479",
					"raise()": "b361e198"
				}
			},
			"storageLayout": {
				"storage": [
					{
						"astId": 4,
						"contract": "contracts/W2Day3.sol:alien",
						"label": "age",
						"offset": 0,
						"slot": "0",
						"type": "t_uint256"
					}
				],
				"types": {
					"t_uint256": {
						"encoding": "inplace",
						"label": "uint256",
						"numberOfBytes": "32"
					}
				}
			},
			"userdoc": {
				"kind": "user",
				"methods": {},
				"version": 1
			}
		}
	}
}