{
	"contracts/Week2Day4.sol": {
		"Week2Day4": {
			"abi": [
				{
					"inputs": [],
					"stateMutability": "nonpayable",
					"type": "constructor"
				},
				{
					"inputs": [
						{
							"internalType": "uint256",
							"name": "",
							"type": "uint256"
						}
					],
					"name": "addresses",
					"outputs": [
						{
							"internalType": "address",
							"name": "",
							"type": "address"
						}
					],
					"stateMutability": "view",
					"type": "function"
				},
				{
					"inputs": [],
					"name": "airdrop",
					"outputs": [],
					"stateMutability": "payable",
					"type": "function"
				},
				{
					"inputs": [],
					"name": "creator",
					"outputs": [
						{
							"internalType": "address",
							"name": "",
							"type": "address"
						}
					],
					"stateMutability": "view",
					"type": "function"
				},
				{
					"inputs": [],
					"name": "joinList",
					"outputs": [],
					"stateMutability": "nonpayable",
					"type": "function"
				}
			],
			"devdoc": {
				"kind": "dev",
				"methods": {},
				"version": 1
			},
			"evm": {
				"assembly": "    /* \"contracts/Week2Day4.sol\":61:2378  contract Week2Day4 {... */\n  mstore(0x40, 0x80)\n    /* \"contracts/Week2Day4.sol\":236:289  constructor() {... */\n  callvalue\n  dup1\n  iszero\n  tag_1\n  jumpi\n  0x00\n  dup1\n  revert\ntag_1:\n  pop\n    /* \"contracts/Week2Day4.sol\":271:281  msg.sender */\n  caller\n    /* \"contracts/Week2Day4.sol\":261:268  creator */\n  0x03\n  0x00\n    /* \"contracts/Week2Day4.sol\":261:281  creator = msg.sender */\n  0x0100\n  exp\n  dup2\n  sload\n  dup2\n  0xffffffffffffffffffffffffffffffffffffffff\n  mul\n  not\n  and\n  swap1\n  dup4\n  0xffffffffffffffffffffffffffffffffffffffff\n  and\n  mul\n  or\n  swap1\n  sstore\n  pop\n    /* \"contracts/Week2Day4.sol\":61:2378  contract Week2Day4 {... */\n  dataSize(sub_0)\n  dup1\n  dataOffset(sub_0)\n  0x00\n  codecopy\n  0x00\n  return\nstop\n\nsub_0: assembly {\n        /* \"contracts/Week2Day4.sol\":61:2378  contract Week2Day4 {... */\n      mstore(0x40, 0x80)\n      jumpi(tag_1, lt(calldatasize, 0x04))\n      shr(0xe0, calldataload(0x00))\n      dup1\n      0x02d05d3f\n      eq\n      tag_2\n      jumpi\n      dup1\n      0x3884d635\n      eq\n      tag_3\n      jumpi\n      dup1\n      0xa11b8e61\n      eq\n      tag_4\n      jumpi\n      dup1\n      0xedf26d9b\n      eq\n      tag_5\n      jumpi\n    tag_1:\n      0x00\n      dup1\n      revert\n        /* \"contracts/Week2Day4.sol\":203:225  address public creator */\n    tag_2:\n      callvalue\n      dup1\n      iszero\n      tag_6\n      jumpi\n      0x00\n      dup1\n      revert\n    tag_6:\n      pop\n      tag_7\n      tag_8\n      jump\t// in\n    tag_7:\n      mload(0x40)\n      tag_9\n      swap2\n      swap1\n      tag_10\n      jump\t// in\n    tag_9:\n      mload(0x40)\n      dup1\n      swap2\n      sub\n      swap1\n      return\n        /* \"contracts/Week2Day4.sol\":1904:2373  function airdrop() public payable {... */\n    tag_3:\n      tag_11\n      tag_12\n      jump\t// in\n    tag_11:\n      stop\n        /* \"contracts/Week2Day4.sol\":1627:1896  function joinList() public {... */\n    tag_4:\n      callvalue\n      dup1\n      iszero\n      tag_13\n      jumpi\n      0x00\n      dup1\n      revert\n    tag_13:\n      pop\n      tag_14\n      tag_15\n      jump\t// in\n    tag_14:\n      stop\n        /* \"contracts/Week2Day4.sol\":89:115  address[] public addresses */\n    tag_5:\n      callvalue\n      dup1\n      iszero\n      tag_16\n      jumpi\n      0x00\n      dup1\n      revert\n    tag_16:\n      pop\n      tag_17\n      0x04\n      dup1\n      calldatasize\n      sub\n      dup2\n      add\n      swap1\n      tag_18\n      swap2\n      swap1\n      tag_19\n      jump\t// in\n    tag_18:\n      tag_20\n      jump\t// in\n    tag_17:\n      mload(0x40)\n      tag_21\n      swap2\n      swap1\n      tag_10\n      jump\t// in\n    tag_21:\n      mload(0x40)\n      dup1\n      swap2\n      sub\n      swap1\n      return\n        /* \"contracts/Week2Day4.sol\":203:225  address public creator */\n    tag_8:\n      0x03\n      0x00\n      swap1\n      sload\n      swap1\n      0x0100\n      exp\n      swap1\n      div\n      0xffffffffffffffffffffffffffffffffffffffff\n      and\n      dup2\n      jump\t// out\n        /* \"contracts/Week2Day4.sol\":1904:2373  function airdrop() public payable {... */\n    tag_12:\n        /* \"contracts/Week2Day4.sol\":2127:2136  addresses */\n      0x00\n        /* \"contracts/Week2Day4.sol\":2127:2143  addresses.length */\n      dup1\n      sload\n      swap1\n      pop\n        /* \"contracts/Week2Day4.sol\":2114:2123  msg.value */\n      callvalue\n        /* \"contracts/Week2Day4.sol\":2114:2143  msg.value >= addresses.length */\n      lt\n      iszero\n        /* \"contracts/Week2Day4.sol\":2106:2175  require(msg.value >= addresses.length, \"Not enough for the airdrop!\") */\n      tag_23\n      jumpi\n      mload(0x40)\n      0x08c379a000000000000000000000000000000000000000000000000000000000\n      dup2\n      mstore\n      0x04\n      add\n      tag_24\n      swap1\n      tag_25\n      jump\t// in\n    tag_24:\n      mload(0x40)\n      dup1\n      swap2\n      sub\n      swap1\n      revert\n    tag_23:\n        /* \"contracts/Week2Day4.sol\":2186:2207  uint amountToSendEach */\n      0x00\n        /* \"contracts/Week2Day4.sol\":2222:2231  addresses */\n      dup1\n        /* \"contracts/Week2Day4.sol\":2222:2238  addresses.length */\n      dup1\n      sload\n      swap1\n      pop\n        /* \"contracts/Week2Day4.sol\":2210:2219  msg.value */\n      callvalue\n        /* \"contracts/Week2Day4.sol\":2210:2238  msg.value / addresses.length */\n      tag_26\n      swap2\n      swap1\n      tag_27\n      jump\t// in\n    tag_26:\n        /* \"contracts/Week2Day4.sol\":2186:2238  uint amountToSendEach = msg.value / addresses.length */\n      swap1\n      pop\n        /* \"contracts/Week2Day4.sol\":2254:2260  uint i */\n      0x00\n        /* \"contracts/Week2Day4.sol\":2249:2366  for (uint i = 0; i < addresses.length; i++) {... */\n    tag_28:\n        /* \"contracts/Week2Day4.sol\":2270:2279  addresses */\n      0x00\n        /* \"contracts/Week2Day4.sol\":2270:2286  addresses.length */\n      dup1\n      sload\n      swap1\n      pop\n        /* \"contracts/Week2Day4.sol\":2266:2267  i */\n      dup2\n        /* \"contracts/Week2Day4.sol\":2266:2286  i < addresses.length */\n      lt\n        /* \"contracts/Week2Day4.sol\":2249:2366  for (uint i = 0; i < addresses.length; i++) {... */\n      iszero\n      tag_29\n      jumpi\n        /* \"contracts/Week2Day4.sol\":2308:2317  addresses */\n      0x00\n        /* \"contracts/Week2Day4.sol\":2318:2319  i */\n      dup2\n        /* \"contracts/Week2Day4.sol\":2308:2320  addresses[i] */\n      dup2\n      sload\n      dup2\n      lt\n      tag_31\n      jumpi\n      tag_32\n      tag_33\n      jump\t// in\n    tag_32:\n    tag_31:\n      swap1\n      0x00\n      mstore\n      keccak256(0x00, 0x20)\n      add\n      0x00\n      swap1\n      sload\n      swap1\n      0x0100\n      exp\n      swap1\n      div\n      0xffffffffffffffffffffffffffffffffffffffff\n      and\n        /* \"contracts/Week2Day4.sol\":2308:2325  addresses[i].call */\n      0xffffffffffffffffffffffffffffffffffffffff\n      and\n        /* \"contracts/Week2Day4.sol\":2333:2349  amountToSendEach */\n      dup3\n        /* \"contracts/Week2Day4.sol\":2308:2354  addresses[i].call{value: amountToSendEach}(\"\") */\n      mload(0x40)\n      tag_35\n      swap1\n      tag_36\n      jump\t// in\n    tag_35:\n      0x00\n      mload(0x40)\n      dup1\n      dup4\n      sub\n      dup2\n      dup6\n      dup8\n      gas\n      call\n      swap3\n      pop\n      pop\n      pop\n      returndatasize\n      dup1\n      0x00\n      dup2\n      eq\n      tag_39\n      jumpi\n      mload(0x40)\n      swap2\n      pop\n      and(add(returndatasize, 0x3f), not(0x1f))\n      dup3\n      add\n      0x40\n      mstore\n      returndatasize\n      dup3\n      mstore\n      returndatasize\n      0x00\n      0x20\n      dup5\n      add\n      returndatacopy\n      jump(tag_38)\n    tag_39:\n      0x60\n      swap2\n      pop\n    tag_38:\n      pop\n      pop\n      pop\n        /* \"contracts/Week2Day4.sol\":2288:2291  i++ */\n      dup1\n      dup1\n      tag_40\n      swap1\n      tag_41\n      jump\t// in\n    tag_40:\n      swap2\n      pop\n      pop\n        /* \"contracts/Week2Day4.sol\":2249:2366  for (uint i = 0; i < addresses.length; i++) {... */\n      jump(tag_28)\n    tag_29:\n      pop\n        /* \"contracts/Week2Day4.sol\":1938:2373  {... */\n      pop\n        /* \"contracts/Week2Day4.sol\":1904:2373  function airdrop() public payable {... */\n      jump\t// out\n        /* \"contracts/Week2Day4.sol\":1627:1896  function joinList() public {... */\n    tag_15:\n        /* \"contracts/Week2Day4.sol\":1687:1694  creator */\n      0x03\n      0x00\n      swap1\n      sload\n      swap1\n      0x0100\n      exp\n      swap1\n      div\n      0xffffffffffffffffffffffffffffffffffffffff\n      and\n        /* \"contracts/Week2Day4.sol\":1673:1694  msg.sender != creator */\n      0xffffffffffffffffffffffffffffffffffffffff\n      and\n        /* \"contracts/Week2Day4.sol\":1673:1683  msg.sender */\n      caller\n        /* \"contracts/Week2Day4.sol\":1673:1694  msg.sender != creator */\n      0xffffffffffffffffffffffffffffffffffffffff\n      and\n      sub\n        /* \"contracts/Week2Day4.sol\":1665:1738  require(msg.sender != creator, \"You can't join, you made this contract!\") */\n      tag_43\n      jumpi\n      mload(0x40)\n      0x08c379a000000000000000000000000000000000000000000000000000000000\n      dup2\n      mstore\n      0x04\n      add\n      tag_44\n      swap1\n      tag_45\n      jump\t// in\n    tag_44:\n      mload(0x40)\n      dup1\n      swap2\n      sub\n      swap1\n      revert\n    tag_43:\n        /* \"contracts/Week2Day4.sol\":1781:1786  false */\n      0x00\n        /* \"contracts/Week2Day4.sol\":1757:1786  isOnList[msg.sender] == false */\n      iszero\n      iszero\n        /* \"contracts/Week2Day4.sol\":1757:1765  isOnList */\n      0x02\n        /* \"contracts/Week2Day4.sol\":1757:1777  isOnList[msg.sender] */\n      0x00\n        /* \"contracts/Week2Day4.sol\":1766:1776  msg.sender */\n      caller\n        /* \"contracts/Week2Day4.sol\":1757:1777  isOnList[msg.sender] */\n      0xffffffffffffffffffffffffffffffffffffffff\n      and\n      0xffffffffffffffffffffffffffffffffffffffff\n      and\n      dup2\n      mstore\n      0x20\n      add\n      swap1\n      dup2\n      mstore\n      0x20\n      add\n      0x00\n      keccak256\n      0x00\n      swap1\n      sload\n      swap1\n      0x0100\n      exp\n      swap1\n      div\n      0xff\n      and\n        /* \"contracts/Week2Day4.sol\":1757:1786  isOnList[msg.sender] == false */\n      iszero\n      iszero\n      eq\n        /* \"contracts/Week2Day4.sol\":1749:1811  require(isOnList[msg.sender] == false, \"Already on the list!\") */\n      tag_46\n      jumpi\n      mload(0x40)\n      0x08c379a000000000000000000000000000000000000000000000000000000000\n      dup2\n      mstore\n      0x04\n      add\n      tag_47\n      swap1\n      tag_48\n      jump\t// in\n    tag_47:\n      mload(0x40)\n      dup1\n      swap2\n      sub\n      swap1\n      revert\n    tag_46:\n        /* \"contracts/Week2Day4.sol\":1822:1831  addresses */\n      0x00\n        /* \"contracts/Week2Day4.sol\":1837:1847  msg.sender */\n      caller\n        /* \"contracts/Week2Day4.sol\":1822:1848  addresses.push(msg.sender) */\n      swap1\n      dup1\n      0x01\n      dup2\n      sload\n      add\n      dup1\n      dup3\n      sstore\n      dup1\n      swap2\n      pop\n      pop\n      0x01\n      swap1\n      sub\n      swap1\n      0x00\n      mstore\n      keccak256(0x00, 0x20)\n      add\n      0x00\n      swap1\n      swap2\n      swap1\n      swap2\n      swap1\n      swap2\n      0x0100\n      exp\n      dup2\n      sload\n      dup2\n      0xffffffffffffffffffffffffffffffffffffffff\n      mul\n      not\n      and\n      swap1\n      dup4\n      0xffffffffffffffffffffffffffffffffffffffff\n      and\n      mul\n      or\n      swap1\n      sstore\n      pop\n        /* \"contracts/Week2Day4.sol\":1882:1886  true */\n      0x01\n        /* \"contracts/Week2Day4.sol\":1859:1867  isOnList */\n      0x02\n        /* \"contracts/Week2Day4.sol\":1859:1879  isOnList[msg.sender] */\n      0x00\n        /* \"contracts/Week2Day4.sol\":1868:1878  msg.sender */\n      caller\n        /* \"contracts/Week2Day4.sol\":1859:1879  isOnList[msg.sender] */\n      0xffffffffffffffffffffffffffffffffffffffff\n      and\n      0xffffffffffffffffffffffffffffffffffffffff\n      and\n      dup2\n      mstore\n      0x20\n      add\n      swap1\n      dup2\n      mstore\n      0x20\n      add\n      0x00\n      keccak256\n      0x00\n        /* \"contracts/Week2Day4.sol\":1859:1886  isOnList[msg.sender] = true */\n      0x0100\n      exp\n      dup2\n      sload\n      dup2\n      0xff\n      mul\n      not\n      and\n      swap1\n      dup4\n      iszero\n      iszero\n      mul\n      or\n      swap1\n      sstore\n      pop\n        /* \"contracts/Week2Day4.sol\":1627:1896  function joinList() public {... */\n      jump\t// out\n        /* \"contracts/Week2Day4.sol\":89:115  address[] public addresses */\n    tag_20:\n      0x00\n      dup2\n      dup2\n      sload\n      dup2\n      lt\n      tag_50\n      jumpi\n      0x00\n      dup1\n      revert\n    tag_50:\n      swap1\n      0x00\n      mstore\n      keccak256(0x00, 0x20)\n      add\n      0x00\n      swap2\n      pop\n      sload\n      swap1\n      0x0100\n      exp\n      swap1\n      div\n      0xffffffffffffffffffffffffffffffffffffffff\n      and\n      dup2\n      jump\t// out\n        /* \"#utility.yul\":7:133   */\n    tag_52:\n        /* \"#utility.yul\":44:51   */\n      0x00\n        /* \"#utility.yul\":84:126   */\n      0xffffffffffffffffffffffffffffffffffffffff\n        /* \"#utility.yul\":77:82   */\n      dup3\n        /* \"#utility.yul\":73:127   */\n      and\n        /* \"#utility.yul\":62:127   */\n      swap1\n      pop\n        /* \"#utility.yul\":7:133   */\n      swap2\n      swap1\n      pop\n      jump\t// out\n        /* \"#utility.yul\":139:235   */\n    tag_53:\n        /* \"#utility.yul\":176:183   */\n      0x00\n        /* \"#utility.yul\":205:229   */\n      tag_76\n        /* \"#utility.yul\":223:228   */\n      dup3\n        /* \"#utility.yul\":205:229   */\n      tag_52\n      jump\t// in\n    tag_76:\n        /* \"#utility.yul\":194:229   */\n      swap1\n      pop\n        /* \"#utility.yul\":139:235   */\n      swap2\n      swap1\n      pop\n      jump\t// out\n        /* \"#utility.yul\":241:359   */\n    tag_54:\n        /* \"#utility.yul\":328:352   */\n      tag_78\n        /* \"#utility.yul\":346:351   */\n      dup2\n        /* \"#utility.yul\":328:352   */\n      tag_53\n      jump\t// in\n    tag_78:\n        /* \"#utility.yul\":323:326   */\n      dup3\n        /* \"#utility.yul\":316:353   */\n      mstore\n        /* \"#utility.yul\":241:359   */\n      pop\n      pop\n      jump\t// out\n        /* \"#utility.yul\":365:587   */\n    tag_10:\n        /* \"#utility.yul\":458:462   */\n      0x00\n        /* \"#utility.yul\":496:498   */\n      0x20\n        /* \"#utility.yul\":485:494   */\n      dup3\n        /* \"#utility.yul\":481:499   */\n      add\n        /* \"#utility.yul\":473:499   */\n      swap1\n      pop\n        /* \"#utility.yul\":509:580   */\n      tag_80\n        /* \"#utility.yul\":577:578   */\n      0x00\n        /* \"#utility.yul\":566:575   */\n      dup4\n        /* \"#utility.yul\":562:579   */\n      add\n        /* \"#utility.yul\":553:559   */\n      dup5\n        /* \"#utility.yul\":509:580   */\n      tag_54\n      jump\t// in\n    tag_80:\n        /* \"#utility.yul\":365:587   */\n      swap3\n      swap2\n      pop\n      pop\n      jump\t// out\n        /* \"#utility.yul\":674:791   */\n    tag_56:\n        /* \"#utility.yul\":783:784   */\n      0x00\n        /* \"#utility.yul\":780:781   */\n      dup1\n        /* \"#utility.yul\":773:785   */\n      revert\n        /* \"#utility.yul\":920:997   */\n    tag_58:\n        /* \"#utility.yul\":957:964   */\n      0x00\n        /* \"#utility.yul\":986:991   */\n      dup2\n        /* \"#utility.yul\":975:991   */\n      swap1\n      pop\n        /* \"#utility.yul\":920:997   */\n      swap2\n      swap1\n      pop\n      jump\t// out\n        /* \"#utility.yul\":1003:1125   */\n    tag_59:\n        /* \"#utility.yul\":1076:1100   */\n      tag_86\n        /* \"#utility.yul\":1094:1099   */\n      dup2\n        /* \"#utility.yul\":1076:1100   */\n      tag_58\n      jump\t// in\n    tag_86:\n        /* \"#utility.yul\":1069:1074   */\n      dup2\n        /* \"#utility.yul\":1066:1101   */\n      eq\n        /* \"#utility.yul\":1056:1119   */\n      tag_87\n      jumpi\n        /* \"#utility.yul\":1115:1116   */\n      0x00\n        /* \"#utility.yul\":1112:1113   */\n      dup1\n        /* \"#utility.yul\":1105:1117   */\n      revert\n        /* \"#utility.yul\":1056:1119   */\n    tag_87:\n        /* \"#utility.yul\":1003:1125   */\n      pop\n      jump\t// out\n        /* \"#utility.yul\":1131:1270   */\n    tag_60:\n        /* \"#utility.yul\":1177:1182   */\n      0x00\n        /* \"#utility.yul\":1215:1221   */\n      dup2\n        /* \"#utility.yul\":1202:1222   */\n      calldataload\n        /* \"#utility.yul\":1193:1222   */\n      swap1\n      pop\n        /* \"#utility.yul\":1231:1264   */\n      tag_89\n        /* \"#utility.yul\":1258:1263   */\n      dup2\n        /* \"#utility.yul\":1231:1264   */\n      tag_59\n      jump\t// in\n    tag_89:\n        /* \"#utility.yul\":1131:1270   */\n      swap3\n      swap2\n      pop\n      pop\n      jump\t// out\n        /* \"#utility.yul\":1276:1605   */\n    tag_19:\n        /* \"#utility.yul\":1335:1341   */\n      0x00\n        /* \"#utility.yul\":1384:1386   */\n      0x20\n        /* \"#utility.yul\":1372:1381   */\n      dup3\n        /* \"#utility.yul\":1363:1370   */\n      dup5\n        /* \"#utility.yul\":1359:1382   */\n      sub\n        /* \"#utility.yul\":1355:1387   */\n      slt\n        /* \"#utility.yul\":1352:1471   */\n      iszero\n      tag_91\n      jumpi\n        /* \"#utility.yul\":1390:1469   */\n      tag_92\n      tag_56\n      jump\t// in\n    tag_92:\n        /* \"#utility.yul\":1352:1471   */\n    tag_91:\n        /* \"#utility.yul\":1510:1511   */\n      0x00\n        /* \"#utility.yul\":1535:1588   */\n      tag_93\n        /* \"#utility.yul\":1580:1587   */\n      dup5\n        /* \"#utility.yul\":1571:1577   */\n      dup3\n        /* \"#utility.yul\":1560:1569   */\n      dup6\n        /* \"#utility.yul\":1556:1578   */\n      add\n        /* \"#utility.yul\":1535:1588   */\n      tag_60\n      jump\t// in\n    tag_93:\n        /* \"#utility.yul\":1525:1588   */\n      swap2\n      pop\n        /* \"#utility.yul\":1481:1598   */\n      pop\n        /* \"#utility.yul\":1276:1605   */\n      swap3\n      swap2\n      pop\n      pop\n      jump\t// out\n        /* \"#utility.yul\":1611:1780   */\n    tag_61:\n        /* \"#utility.yul\":1695:1706   */\n      0x00\n        /* \"#utility.yul\":1729:1735   */\n      dup3\n        /* \"#utility.yul\":1724:1727   */\n      dup3\n        /* \"#utility.yul\":1717:1736   */\n      mstore\n        /* \"#utility.yul\":1769:1773   */\n      0x20\n        /* \"#utility.yul\":1764:1767   */\n      dup3\n        /* \"#utility.yul\":1760:1774   */\n      add\n        /* \"#utility.yul\":1745:1774   */\n      swap1\n      pop\n        /* \"#utility.yul\":1611:1780   */\n      swap3\n      swap2\n      pop\n      pop\n      jump\t// out\n        /* \"#utility.yul\":1786:1963   */\n    tag_62:\n        /* \"#utility.yul\":1926:1955   */\n      0x4e6f7420656e6f75676820666f72207468652061697264726f70210000000000\n        /* \"#utility.yul\":1922:1923   */\n      0x00\n        /* \"#utility.yul\":1914:1920   */\n      dup3\n        /* \"#utility.yul\":1910:1924   */\n      add\n        /* \"#utility.yul\":1903:1956   */\n      mstore\n        /* \"#utility.yul\":1786:1963   */\n      pop\n      jump\t// out\n        /* \"#utility.yul\":1969:2335   */\n    tag_63:\n        /* \"#utility.yul\":2111:2114   */\n      0x00\n        /* \"#utility.yul\":2132:2199   */\n      tag_97\n        /* \"#utility.yul\":2196:2198   */\n      0x1b\n        /* \"#utility.yul\":2191:2194   */\n      dup4\n        /* \"#utility.yul\":2132:2199   */\n      tag_61\n      jump\t// in\n    tag_97:\n        /* \"#utility.yul\":2125:2199   */\n      swap2\n      pop\n        /* \"#utility.yul\":2208:2301   */\n      tag_98\n        /* \"#utility.yul\":2297:2300   */\n      dup3\n        /* \"#utility.yul\":2208:2301   */\n      tag_62\n      jump\t// in\n    tag_98:\n        /* \"#utility.yul\":2326:2328   */\n      0x20\n        /* \"#utility.yul\":2321:2324   */\n      dup3\n        /* \"#utility.yul\":2317:2329   */\n      add\n        /* \"#utility.yul\":2310:2329   */\n      swap1\n      pop\n        /* \"#utility.yul\":1969:2335   */\n      swap2\n      swap1\n      pop\n      jump\t// out\n        /* \"#utility.yul\":2341:2760   */\n    tag_25:\n        /* \"#utility.yul\":2507:2511   */\n      0x00\n        /* \"#utility.yul\":2545:2547   */\n      0x20\n        /* \"#utility.yul\":2534:2543   */\n      dup3\n        /* \"#utility.yul\":2530:2548   */\n      add\n        /* \"#utility.yul\":2522:2548   */\n      swap1\n      pop\n        /* \"#utility.yul\":2594:2603   */\n      dup2\n        /* \"#utility.yul\":2588:2592   */\n      dup2\n        /* \"#utility.yul\":2584:2604   */\n      sub\n        /* \"#utility.yul\":2580:2581   */\n      0x00\n        /* \"#utility.yul\":2569:2578   */\n      dup4\n        /* \"#utility.yul\":2565:2582   */\n      add\n        /* \"#utility.yul\":2558:2605   */\n      mstore\n        /* \"#utility.yul\":2622:2753   */\n      tag_100\n        /* \"#utility.yul\":2748:2752   */\n      dup2\n        /* \"#utility.yul\":2622:2753   */\n      tag_63\n      jump\t// in\n    tag_100:\n        /* \"#utility.yul\":2614:2753   */\n      swap1\n      pop\n        /* \"#utility.yul\":2341:2760   */\n      swap2\n      swap1\n      pop\n      jump\t// out\n        /* \"#utility.yul\":2766:2946   */\n    tag_64:\n        /* \"#utility.yul\":2814:2891   */\n      0x4e487b7100000000000000000000000000000000000000000000000000000000\n        /* \"#utility.yul\":2811:2812   */\n      0x00\n        /* \"#utility.yul\":2804:2892   */\n      mstore\n        /* \"#utility.yul\":2911:2915   */\n      0x12\n        /* \"#utility.yul\":2908:2909   */\n      0x04\n        /* \"#utility.yul\":2901:2916   */\n      mstore\n        /* \"#utility.yul\":2935:2939   */\n      0x24\n        /* \"#utility.yul\":2932:2933   */\n      0x00\n        /* \"#utility.yul\":2925:2940   */\n      revert\n        /* \"#utility.yul\":2952:3132   */\n    tag_65:\n        /* \"#utility.yul\":3000:3077   */\n      0x4e487b7100000000000000000000000000000000000000000000000000000000\n        /* \"#utility.yul\":2997:2998   */\n      0x00\n        /* \"#utility.yul\":2990:3078   */\n      mstore\n        /* \"#utility.yul\":3097:3101   */\n      0x11\n        /* \"#utility.yul\":3094:3095   */\n      0x04\n        /* \"#utility.yul\":3087:3102   */\n      mstore\n        /* \"#utility.yul\":3121:3125   */\n      0x24\n        /* \"#utility.yul\":3118:3119   */\n      0x00\n        /* \"#utility.yul\":3111:3126   */\n      revert\n        /* \"#utility.yul\":3138:3323   */\n    tag_27:\n        /* \"#utility.yul\":3178:3179   */\n      0x00\n        /* \"#utility.yul\":3195:3215   */\n      tag_104\n        /* \"#utility.yul\":3213:3214   */\n      dup3\n        /* \"#utility.yul\":3195:3215   */\n      tag_58\n      jump\t// in\n    tag_104:\n        /* \"#utility.yul\":3190:3215   */\n      swap2\n      pop\n        /* \"#utility.yul\":3229:3249   */\n      tag_105\n        /* \"#utility.yul\":3247:3248   */\n      dup4\n        /* \"#utility.yul\":3229:3249   */\n      tag_58\n      jump\t// in\n    tag_105:\n        /* \"#utility.yul\":3224:3249   */\n      swap3\n      pop\n        /* \"#utility.yul\":3268:3269   */\n      dup3\n        /* \"#utility.yul\":3258:3293   */\n      tag_106\n      jumpi\n        /* \"#utility.yul\":3273:3291   */\n      tag_107\n      tag_64\n      jump\t// in\n    tag_107:\n        /* \"#utility.yul\":3258:3293   */\n    tag_106:\n        /* \"#utility.yul\":3315:3316   */\n      dup3\n        /* \"#utility.yul\":3312:3313   */\n      dup3\n        /* \"#utility.yul\":3308:3317   */\n      div\n        /* \"#utility.yul\":3303:3317   */\n      swap1\n      pop\n        /* \"#utility.yul\":3138:3323   */\n      swap3\n      swap2\n      pop\n      pop\n      jump\t// out\n        /* \"#utility.yul\":3329:3509   */\n    tag_33:\n        /* \"#utility.yul\":3377:3454   */\n      0x4e487b7100000000000000000000000000000000000000000000000000000000\n        /* \"#utility.yul\":3374:3375   */\n      0x00\n        /* \"#utility.yul\":3367:3455   */\n      mstore\n        /* \"#utility.yul\":3474:3478   */\n      0x32\n        /* \"#utility.yul\":3471:3472   */\n      0x04\n        /* \"#utility.yul\":3464:3479   */\n      mstore\n        /* \"#utility.yul\":3498:3502   */\n      0x24\n        /* \"#utility.yul\":3495:3496   */\n      0x00\n        /* \"#utility.yul\":3488:3503   */\n      revert\n        /* \"#utility.yul\":3515:3662   */\n    tag_66:\n        /* \"#utility.yul\":3616:3627   */\n      0x00\n        /* \"#utility.yul\":3653:3656   */\n      dup2\n        /* \"#utility.yul\":3638:3656   */\n      swap1\n      pop\n        /* \"#utility.yul\":3515:3662   */\n      swap3\n      swap2\n      pop\n      pop\n      jump\t// out\n        /* \"#utility.yul\":3668:3782   */\n    tag_67:\n      pop\n      jump\t// out\n        /* \"#utility.yul\":3788:4186   */\n    tag_68:\n        /* \"#utility.yul\":3947:3950   */\n      0x00\n        /* \"#utility.yul\":3968:4051   */\n      tag_112\n        /* \"#utility.yul\":4049:4050   */\n      0x00\n        /* \"#utility.yul\":4044:4047   */\n      dup4\n        /* \"#utility.yul\":3968:4051   */\n      tag_66\n      jump\t// in\n    tag_112:\n        /* \"#utility.yul\":3961:4051   */\n      swap2\n      pop\n        /* \"#utility.yul\":4060:4153   */\n      tag_113\n        /* \"#utility.yul\":4149:4152   */\n      dup3\n        /* \"#utility.yul\":4060:4153   */\n      tag_67\n      jump\t// in\n    tag_113:\n        /* \"#utility.yul\":4178:4179   */\n      0x00\n        /* \"#utility.yul\":4173:4176   */\n      dup3\n        /* \"#utility.yul\":4169:4180   */\n      add\n        /* \"#utility.yul\":4162:4180   */\n      swap1\n      pop\n        /* \"#utility.yul\":3788:4186   */\n      swap2\n      swap1\n      pop\n      jump\t// out\n        /* \"#utility.yul\":4192:4571   */\n    tag_36:\n        /* \"#utility.yul\":4376:4379   */\n      0x00\n        /* \"#utility.yul\":4398:4545   */\n      tag_115\n        /* \"#utility.yul\":4541:4544   */\n      dup3\n        /* \"#utility.yul\":4398:4545   */\n      tag_68\n      jump\t// in\n    tag_115:\n        /* \"#utility.yul\":4391:4545   */\n      swap2\n      pop\n        /* \"#utility.yul\":4562:4565   */\n      dup2\n        /* \"#utility.yul\":4555:4565   */\n      swap1\n      pop\n        /* \"#utility.yul\":4192:4571   */\n      swap2\n      swap1\n      pop\n      jump\t// out\n        /* \"#utility.yul\":4577:4810   */\n    tag_41:\n        /* \"#utility.yul\":4616:4619   */\n      0x00\n        /* \"#utility.yul\":4639:4663   */\n      tag_117\n        /* \"#utility.yul\":4657:4662   */\n      dup3\n        /* \"#utility.yul\":4639:4663   */\n      tag_58\n      jump\t// in\n    tag_117:\n        /* \"#utility.yul\":4630:4663   */\n      swap2\n      pop\n        /* \"#utility.yul\":4685:4751   */\n      0xffffffffffffffffffffffffffffffffffffffffffffffffffffffffffffffff\n        /* \"#utility.yul\":4678:4683   */\n      dup3\n        /* \"#utility.yul\":4675:4752   */\n      sub\n        /* \"#utility.yul\":4672:4775   */\n      tag_118\n      jumpi\n        /* \"#utility.yul\":4755:4773   */\n      tag_119\n      tag_65\n      jump\t// in\n    tag_119:\n        /* \"#utility.yul\":4672:4775   */\n    tag_118:\n        /* \"#utility.yul\":4802:4803   */\n      0x01\n        /* \"#utility.yul\":4795:4800   */\n      dup3\n        /* \"#utility.yul\":4791:4804   */\n      add\n        /* \"#utility.yul\":4784:4804   */\n      swap1\n      pop\n        /* \"#utility.yul\":4577:4810   */\n      swap2\n      swap1\n      pop\n      jump\t// out\n        /* \"#utility.yul\":4816:5042   */\n    tag_69:\n        /* \"#utility.yul\":4956:4990   */\n      0x596f752063616e2774206a6f696e2c20796f75206d616465207468697320636f\n        /* \"#utility.yul\":4952:4953   */\n      0x00\n        /* \"#utility.yul\":4944:4950   */\n      dup3\n        /* \"#utility.yul\":4940:4954   */\n      add\n        /* \"#utility.yul\":4933:4991   */\n      mstore\n        /* \"#utility.yul\":5025:5034   */\n      0x6e74726163742100000000000000000000000000000000000000000000000000\n        /* \"#utility.yul\":5020:5022   */\n      0x20\n        /* \"#utility.yul\":5012:5018   */\n      dup3\n        /* \"#utility.yul\":5008:5023   */\n      add\n        /* \"#utility.yul\":5001:5035   */\n      mstore\n        /* \"#utility.yul\":4816:5042   */\n      pop\n      jump\t// out\n        /* \"#utility.yul\":5048:5414   */\n    tag_70:\n        /* \"#utility.yul\":5190:5193   */\n      0x00\n        /* \"#utility.yul\":5211:5278   */\n      tag_122\n        /* \"#utility.yul\":5275:5277   */\n      0x27\n        /* \"#utility.yul\":5270:5273   */\n      dup4\n        /* \"#utility.yul\":5211:5278   */\n      tag_61\n      jump\t// in\n    tag_122:\n        /* \"#utility.yul\":5204:5278   */\n      swap2\n      pop\n        /* \"#utility.yul\":5287:5380   */\n      tag_123\n        /* \"#utility.yul\":5376:5379   */\n      dup3\n        /* \"#utility.yul\":5287:5380   */\n      tag_69\n      jump\t// in\n    tag_123:\n        /* \"#utility.yul\":5405:5407   */\n      0x40\n        /* \"#utility.yul\":5400:5403   */\n      dup3\n        /* \"#utility.yul\":5396:5408   */\n      add\n        /* \"#utility.yul\":5389:5408   */\n      swap1\n      pop\n        /* \"#utility.yul\":5048:5414   */\n      swap2\n      swap1\n      pop\n      jump\t// out\n        /* \"#utility.yul\":5420:5839   */\n    tag_45:\n        /* \"#utility.yul\":5586:5590   */\n      0x00\n        /* \"#utility.yul\":5624:5626   */\n      0x20\n        /* \"#utility.yul\":5613:5622   */\n      dup3\n        /* \"#utility.yul\":5609:5627   */\n      add\n        /* \"#utility.yul\":5601:5627   */\n      swap1\n      pop\n        /* \"#utility.yul\":5673:5682   */\n      dup2\n        /* \"#utility.yul\":5667:5671   */\n      dup2\n        /* \"#utility.yul\":5663:5683   */\n      sub\n        /* \"#utility.yul\":5659:5660   */\n      0x00\n        /* \"#utility.yul\":5648:5657   */\n      dup4\n        /* \"#utility.yul\":5644:5661   */\n      add\n        /* \"#utility.yul\":5637:5684   */\n      mstore\n        /* \"#utility.yul\":5701:5832   */\n      tag_125\n        /* \"#utility.yul\":5827:5831   */\n      dup2\n        /* \"#utility.yul\":5701:5832   */\n      tag_70\n      jump\t// in\n    tag_125:\n        /* \"#utility.yul\":5693:5832   */\n      swap1\n      pop\n        /* \"#utility.yul\":5420:5839   */\n      swap2\n      swap1\n      pop\n      jump\t// out\n        /* \"#utility.yul\":5845:6015   */\n    tag_71:\n        /* \"#utility.yul\":5985:6007   */\n      0x416c7265616479206f6e20746865206c69737421000000000000000000000000\n        /* \"#utility.yul\":5981:5982   */\n      0x00\n        /* \"#utility.yul\":5973:5979   */\n      dup3\n        /* \"#utility.yul\":5969:5983   */\n      add\n        /* \"#utility.yul\":5962:6008   */\n      mstore\n        /* \"#utility.yul\":5845:6015   */\n      pop\n      jump\t// out\n        /* \"#utility.yul\":6021:6387   */\n    tag_72:\n        /* \"#utility.yul\":6163:6166   */\n      0x00\n        /* \"#utility.yul\":6184:6251   */\n      tag_128\n        /* \"#utility.yul\":6248:6250   */\n      0x14\n        /* \"#utility.yul\":6243:6246   */\n      dup4\n        /* \"#utility.yul\":6184:6251   */\n      tag_61\n      jump\t// in\n    tag_128:\n        /* \"#utility.yul\":6177:6251   */\n      swap2\n      pop\n        /* \"#utility.yul\":6260:6353   */\n      tag_129\n        /* \"#utility.yul\":6349:6352   */\n      dup3\n        /* \"#utility.yul\":6260:6353   */\n      tag_71\n      jump\t// in\n    tag_129:\n        /* \"#utility.yul\":6378:6380   */\n      0x20\n        /* \"#utility.yul\":6373:6376   */\n      dup3\n        /* \"#utility.yul\":6369:6381   */\n      add\n        /* \"#utility.yul\":6362:6381   */\n      swap1\n      pop\n        /* \"#utility.yul\":6021:6387   */\n      swap2\n      swap1\n      pop\n      jump\t// out\n        /* \"#utility.yul\":6393:6812   */\n    tag_48:\n        /* \"#utility.yul\":6559:6563   */\n      0x00\n        /* \"#utility.yul\":6597:6599   */\n      0x20\n        /* \"#utility.yul\":6586:6595   */\n      dup3\n        /* \"#utility.yul\":6582:6600   */\n      add\n        /* \"#utility.yul\":6574:6600   */\n      swap1\n      pop\n        /* \"#utility.yul\":6646:6655   */\n      dup2\n        /* \"#utility.yul\":6640:6644   */\n      dup2\n        /* \"#utility.yul\":6636:6656   */\n      sub\n        /* \"#utility.yul\":6632:6633   */\n      0x00\n        /* \"#utility.yul\":6621:6630   */\n      dup4\n        /* \"#utility.yul\":6617:6634   */\n      add\n        /* \"#utility.yul\":6610:6657   */\n      mstore\n        /* \"#utility.yul\":6674:6805   */\n      tag_131\n        /* \"#utility.yul\":6800:6804   */\n      dup2\n        /* \"#utility.yul\":6674:6805   */\n      tag_72\n      jump\t// in\n    tag_131:\n        /* \"#utility.yul\":6666:6805   */\n      swap1\n      pop\n        /* \"#utility.yul\":6393:6812   */\n      swap2\n      swap1\n      pop\n      jump\t// out\n\n    auxdata: 0xa26469706673582212203c5b4a359685cc2ff51be928fe96868b3f8f476193a93bded21f48f2562fe69364736f6c634300080d0033\n}\n",
				"bytecode": {
					"linkReferences": {},
					"object": "608060405234801561001057600080fd5b5033600360006101000a81548173ffffffffffffffffffffffffffffffffffffffff021916908373ffffffffffffffffffffffffffffffffffffffff1602179055506107fd806100616000396000f3fe60806040526004361061003f5760003560e01c806302d05d3f146100445780633884d6351461006f578063a11b8e6114610079578063edf26d9b14610090575b600080fd5b34801561005057600080fd5b506100596100cd565b604051610066919061047d565b60405180910390f35b6100776100f3565b005b34801561008557600080fd5b5061008e61021d565b005b34801561009c57600080fd5b506100b760048036038101906100b291906104d3565b6103fd565b6040516100c4919061047d565b60405180910390f35b600360009054906101000a900473ffffffffffffffffffffffffffffffffffffffff1681565b60008054905034101561013b576040517f08c379a00000000000000000000000000000000000000000000000000000000081526004016101329061055d565b60405180910390fd5b600080805490503461014d91906105db565b905060005b60008054905081101561021957600081815481106101735761017261060c565b5b9060005260206000200160009054906101000a900473ffffffffffffffffffffffffffffffffffffffff1673ffffffffffffffffffffffffffffffffffffffff16826040516101c19061066c565b60006040518083038185875af1925050503d80600081146101fe576040519150601f19603f3d011682016040523d82523d6000602084013e610203565b606091505b505050808061021190610681565b915050610152565b5050565b600360009054906101000a900473ffffffffffffffffffffffffffffffffffffffff1673ffffffffffffffffffffffffffffffffffffffff163373ffffffffffffffffffffffffffffffffffffffff16036102ad576040517f08c379a00000000000000000000000000000000000000000000000000000000081526004016102a49061073b565b60405180910390fd5b60001515600260003373ffffffffffffffffffffffffffffffffffffffff1673ffffffffffffffffffffffffffffffffffffffff16815260200190815260200160002060009054906101000a900460ff16151514610340576040517f08c379a0000000000000000000000000000000000000000000000000000000008152600401610337906107a7565b60405180910390fd5b6000339080600181540180825580915050600190039060005260206000200160009091909190916101000a81548173ffffffffffffffffffffffffffffffffffffffff021916908373ffffffffffffffffffffffffffffffffffffffff1602179055506001600260003373ffffffffffffffffffffffffffffffffffffffff1673ffffffffffffffffffffffffffffffffffffffff16815260200190815260200160002060006101000a81548160ff021916908315150217905550565b6000818154811061040d57600080fd5b906000526020600020016000915054906101000a900473ffffffffffffffffffffffffffffffffffffffff1681565b600073ffffffffffffffffffffffffffffffffffffffff82169050919050565b60006104678261043c565b9050919050565b6104778161045c565b82525050565b6000602082019050610492600083018461046e565b92915050565b600080fd5b6000819050919050565b6104b08161049d565b81146104bb57600080fd5b50565b6000813590506104cd816104a7565b92915050565b6000602082840312156104e9576104e8610498565b5b60006104f7848285016104be565b91505092915050565b600082825260208201905092915050565b7f4e6f7420656e6f75676820666f72207468652061697264726f70210000000000600082015250565b6000610547601b83610500565b915061055282610511565b602082019050919050565b600060208201905081810360008301526105768161053a565b9050919050565b7f4e487b7100000000000000000000000000000000000000000000000000000000600052601260045260246000fd5b7f4e487b7100000000000000000000000000000000000000000000000000000000600052601160045260246000fd5b60006105e68261049d565b91506105f18361049d565b9250826106015761060061057d565b5b828204905092915050565b7f4e487b7100000000000000000000000000000000000000000000000000000000600052603260045260246000fd5b600081905092915050565b50565b600061065660008361063b565b915061066182610646565b600082019050919050565b600061067782610649565b9150819050919050565b600061068c8261049d565b91507fffffffffffffffffffffffffffffffffffffffffffffffffffffffffffffffff82036106be576106bd6105ac565b5b600182019050919050565b7f596f752063616e2774206a6f696e2c20796f75206d616465207468697320636f60008201527f6e74726163742100000000000000000000000000000000000000000000000000602082015250565b6000610725602783610500565b9150610730826106c9565b604082019050919050565b6000602082019050818103600083015261075481610718565b9050919050565b7f416c7265616479206f6e20746865206c69737421000000000000000000000000600082015250565b6000610791601483610500565b915061079c8261075b565b602082019050919050565b600060208201905081810360008301526107c081610784565b905091905056fea26469706673582212203c5b4a359685cc2ff51be928fe96868b3f8f476193a93bded21f48f2562fe69364736f6c634300080d0033",
					"opcodes": "PUSH1 0x80 PUSH1 0x40 MSTORE CALLVALUE DUP1 ISZERO PUSH2 0x10 JUMPI PUSH1 0x0 DUP1 REVERT JUMPDEST POP CALLER PUSH1 0x3 PUSH1 0x0 PUSH2 0x100 EXP DUP2 SLOAD DUP2 PUSH20 0xFFFFFFFFFFFFFFFFFFFFFFFFFFFFFFFFFFFFFFFF MUL NOT AND SWAP1 DUP4 PUSH20 0xFFFFFFFFFFFFFFFFFFFFFFFFFFFFFFFFFFFFFFFF AND MUL OR SWAP1 SSTORE POP PUSH2 0x7FD DUP1 PUSH2 0x61 PUSH1 0x0 CODECOPY PUSH1 0x0 RETURN INVALID PUSH1 0x80 PUSH1 0x40 MSTORE PUSH1 0x4 CALLDATASIZE LT PUSH2 0x3F JUMPI PUSH1 0x0 CALLDATALOAD PUSH1 0xE0 SHR DUP1 PUSH4 0x2D05D3F EQ PUSH2 0x44 JUMPI DUP1 PUSH4 0x3884D635 EQ PUSH2 0x6F JUMPI DUP1 PUSH4 0xA11B8E61 EQ PUSH2 0x79 JUMPI DUP1 PUSH4 0xEDF26D9B EQ PUSH2 0x90 JUMPI JUMPDEST PUSH1 0x0 DUP1 REVERT JUMPDEST CALLVALUE DUP1 ISZERO PUSH2 0x50 JUMPI PUSH1 0x0 DUP1 REVERT JUMPDEST POP PUSH2 0x59 PUSH2 0xCD JUMP JUMPDEST PUSH1 0x40 MLOAD PUSH2 0x66 SWAP2 SWAP1 PUSH2 0x47D JUMP JUMPDEST PUSH1 0x40 MLOAD DUP1 SWAP2 SUB SWAP1 RETURN JUMPDEST PUSH2 0x77 PUSH2 0xF3 JUMP JUMPDEST STOP JUMPDEST CALLVALUE DUP1 ISZERO PUSH2 0x85 JUMPI PUSH1 0x0 DUP1 REVERT JUMPDEST POP PUSH2 0x8E PUSH2 0x21D JUMP JUMPDEST STOP JUMPDEST CALLVALUE DUP1 ISZERO PUSH2 0x9C JUMPI PUSH1 0x0 DUP1 REVERT JUMPDEST POP PUSH2 0xB7 PUSH1 0x4 DUP1 CALLDATASIZE SUB DUP2 ADD SWAP1 PUSH2 0xB2 SWAP2 SWAP1 PUSH2 0x4D3 JUMP JUMPDEST PUSH2 0x3FD JUMP JUMPDEST PUSH1 0x40 MLOAD PUSH2 0xC4 SWAP2 SWAP1 PUSH2 0x47D JUMP JUMPDEST PUSH1 0x40 MLOAD DUP1 SWAP2 SUB SWAP1 RETURN JUMPDEST PUSH1 0x3 PUSH1 0x0 SWAP1 SLOAD SWAP1 PUSH2 0x100 EXP SWAP1 DIV PUSH20 0xFFFFFFFFFFFFFFFFFFFFFFFFFFFFFFFFFFFFFFFF AND DUP2 JUMP JUMPDEST PUSH1 0x0 DUP1 SLOAD SWAP1 POP CALLVALUE LT ISZERO PUSH2 0x13B JUMPI PUSH1 0x40 MLOAD PUSH32 0x8C379A000000000000000000000000000000000000000000000000000000000 DUP2 MSTORE PUSH1 0x4 ADD PUSH2 0x132 SWAP1 PUSH2 0x55D JUMP JUMPDEST PUSH1 0x40 MLOAD DUP1 SWAP2 SUB SWAP1 REVERT JUMPDEST PUSH1 0x0 DUP1 DUP1 SLOAD SWAP1 POP CALLVALUE PUSH2 0x14D SWAP2 SWAP1 PUSH2 0x5DB JUMP JUMPDEST SWAP1 POP PUSH1 0x0 JUMPDEST PUSH1 0x0 DUP1 SLOAD SWAP1 POP DUP2 LT ISZERO PUSH2 0x219 JUMPI PUSH1 0x0 DUP2 DUP2 SLOAD DUP2 LT PUSH2 0x173 JUMPI PUSH2 0x172 PUSH2 0x60C JUMP JUMPDEST JUMPDEST SWAP1 PUSH1 0x0 MSTORE PUSH1 0x20 PUSH1 0x0 KECCAK256 ADD PUSH1 0x0 SWAP1 SLOAD SWAP1 PUSH2 0x100 EXP SWAP1 DIV PUSH20 0xFFFFFFFFFFFFFFFFFFFFFFFFFFFFFFFFFFFFFFFF AND PUSH20 0xFFFFFFFFFFFFFFFFFFFFFFFFFFFFFFFFFFFFFFFF AND DUP3 PUSH1 0x40 MLOAD PUSH2 0x1C1 SWAP1 PUSH2 0x66C JUMP JUMPDEST PUSH1 0x0 PUSH1 0x40 MLOAD DUP1 DUP4 SUB DUP2 DUP6 DUP8 GAS CALL SWAP3 POP POP POP RETURNDATASIZE DUP1 PUSH1 0x0 DUP2 EQ PUSH2 0x1FE JUMPI PUSH1 0x40 MLOAD SWAP2 POP PUSH1 0x1F NOT PUSH1 0x3F RETURNDATASIZE ADD AND DUP3 ADD PUSH1 0x40 MSTORE RETURNDATASIZE DUP3 MSTORE RETURNDATASIZE PUSH1 0x0 PUSH1 0x20 DUP5 ADD RETURNDATACOPY PUSH2 0x203 JUMP JUMPDEST PUSH1 0x60 SWAP2 POP JUMPDEST POP POP POP DUP1 DUP1 PUSH2 0x211 SWAP1 PUSH2 0x681 JUMP JUMPDEST SWAP2 POP POP PUSH2 0x152 JUMP JUMPDEST POP POP JUMP JUMPDEST PUSH1 0x3 PUSH1 0x0 SWAP1 SLOAD SWAP1 PUSH2 0x100 EXP SWAP1 DIV PUSH20 0xFFFFFFFFFFFFFFFFFFFFFFFFFFFFFFFFFFFFFFFF AND PUSH20 0xFFFFFFFFFFFFFFFFFFFFFFFFFFFFFFFFFFFFFFFF AND CALLER PUSH20 0xFFFFFFFFFFFFFFFFFFFFFFFFFFFFFFFFFFFFFFFF AND SUB PUSH2 0x2AD JUMPI PUSH1 0x40 MLOAD PUSH32 0x8C379A000000000000000000000000000000000000000000000000000000000 DUP2 MSTORE PUSH1 0x4 ADD PUSH2 0x2A4 SWAP1 PUSH2 0x73B JUMP JUMPDEST PUSH1 0x40 MLOAD DUP1 SWAP2 SUB SWAP1 REVERT JUMPDEST PUSH1 0x0 ISZERO ISZERO PUSH1 0x2 PUSH1 0x0 CALLER PUSH20 0xFFFFFFFFFFFFFFFFFFFFFFFFFFFFFFFFFFFFFFFF AND PUSH20 0xFFFFFFFFFFFFFFFFFFFFFFFFFFFFFFFFFFFFFFFF AND DUP2 MSTORE PUSH1 0x20 ADD SWAP1 DUP2 MSTORE PUSH1 0x20 ADD PUSH1 0x0 KECCAK256 PUSH1 0x0 SWAP1 SLOAD SWAP1 PUSH2 0x100 EXP SWAP1 DIV PUSH1 0xFF AND ISZERO ISZERO EQ PUSH2 0x340 JUMPI PUSH1 0x40 MLOAD PUSH32 0x8C379A000000000000000000000000000000000000000000000000000000000 DUP2 MSTORE PUSH1 0x4 ADD PUSH2 0x337 SWAP1 PUSH2 0x7A7 JUMP JUMPDEST PUSH1 0x40 MLOAD DUP1 SWAP2 SUB SWAP1 REVERT JUMPDEST PUSH1 0x0 CALLER SWAP1 DUP1 PUSH1 0x1 DUP2 SLOAD ADD DUP1 DUP3 SSTORE DUP1 SWAP2 POP POP PUSH1 0x1 SWAP1 SUB SWAP1 PUSH1 0x0 MSTORE PUSH1 0x20 PUSH1 0x0 KECCAK256 ADD PUSH1 0x0 SWAP1 SWAP2 SWAP1 SWAP2 SWAP1 SWAP2 PUSH2 0x100 EXP DUP2 SLOAD DUP2 PUSH20 0xFFFFFFFFFFFFFFFFFFFFFFFFFFFFFFFFFFFFFFFF MUL NOT AND SWAP1 DUP4 PUSH20 0xFFFFFFFFFFFFFFFFFFFFFFFFFFFFFFFFFFFFFFFF AND MUL OR SWAP1 SSTORE POP PUSH1 0x1 PUSH1 0x2 PUSH1 0x0 CALLER PUSH20 0xFFFFFFFFFFFFFFFFFFFFFFFFFFFFFFFFFFFFFFFF AND PUSH20 0xFFFFFFFFFFFFFFFFFFFFFFFFFFFFFFFFFFFFFFFF AND DUP2 MSTORE PUSH1 0x20 ADD SWAP1 DUP2 MSTORE PUSH1 0x20 ADD PUSH1 0x0 KECCAK256 PUSH1 0x0 PUSH2 0x100 EXP DUP2 SLOAD DUP2 PUSH1 0xFF MUL NOT AND SWAP1 DUP4 ISZERO ISZERO MUL OR SWAP1 SSTORE POP JUMP JUMPDEST PUSH1 0x0 DUP2 DUP2 SLOAD DUP2 LT PUSH2 0x40D JUMPI PUSH1 0x0 DUP1 REVERT JUMPDEST SWAP1 PUSH1 0x0 MSTORE PUSH1 0x20 PUSH1 0x0 KECCAK256 ADD PUSH1 0x0 SWAP2 POP SLOAD SWAP1 PUSH2 0x100 EXP SWAP1 DIV PUSH20 0xFFFFFFFFFFFFFFFFFFFFFFFFFFFFFFFFFFFFFFFF AND DUP2 JUMP JUMPDEST PUSH1 0x0 PUSH20 0xFFFFFFFFFFFFFFFFFFFFFFFFFFFFFFFFFFFFFFFF DUP3 AND SWAP1 POP SWAP2 SWAP1 POP JUMP JUMPDEST PUSH1 0x0 PUSH2 0x467 DUP3 PUSH2 0x43C JUMP JUMPDEST SWAP1 POP SWAP2 SWAP1 POP JUMP JUMPDEST PUSH2 0x477 DUP2 PUSH2 0x45C JUMP JUMPDEST DUP3 MSTORE POP POP JUMP JUMPDEST PUSH1 0x0 PUSH1 0x20 DUP3 ADD SWAP1 POP PUSH2 0x492 PUSH1 0x0 DUP4 ADD DUP5 PUSH2 0x46E JUMP JUMPDEST SWAP3 SWAP2 POP POP JUMP JUMPDEST PUSH1 0x0 DUP1 REVERT JUMPDEST PUSH1 0x0 DUP2 SWAP1 POP SWAP2 SWAP1 POP JUMP JUMPDEST PUSH2 0x4B0 DUP2 PUSH2 0x49D JUMP JUMPDEST DUP2 EQ PUSH2 0x4BB JUMPI PUSH1 0x0 DUP1 REVERT JUMPDEST POP JUMP JUMPDEST PUSH1 0x0 DUP2 CALLDATALOAD SWAP1 POP PUSH2 0x4CD DUP2 PUSH2 0x4A7 JUMP JUMPDEST SWAP3 SWAP2 POP POP JUMP JUMPDEST PUSH1 0x0 PUSH1 0x20 DUP3 DUP5 SUB SLT ISZERO PUSH2 0x4E9 JUMPI PUSH2 0x4E8 PUSH2 0x498 JUMP JUMPDEST JUMPDEST PUSH1 0x0 PUSH2 0x4F7 DUP5 DUP3 DUP6 ADD PUSH2 0x4BE JUMP JUMPDEST SWAP2 POP POP SWAP3 SWAP2 POP POP JUMP JUMPDEST PUSH1 0x0 DUP3 DUP3 MSTORE PUSH1 0x20 DUP3 ADD SWAP1 POP SWAP3 SWAP2 POP POP JUMP JUMPDEST PUSH32 0x4E6F7420656E6F75676820666F72207468652061697264726F70210000000000 PUSH1 0x0 DUP3 ADD MSTORE POP JUMP JUMPDEST PUSH1 0x0 PUSH2 0x547 PUSH1 0x1B DUP4 PUSH2 0x500 JUMP JUMPDEST SWAP2 POP PUSH2 0x552 DUP3 PUSH2 0x511 JUMP JUMPDEST PUSH1 0x20 DUP3 ADD SWAP1 POP SWAP2 SWAP1 POP JUMP JUMPDEST PUSH1 0x0 PUSH1 0x20 DUP3 ADD SWAP1 POP DUP2 DUP2 SUB PUSH1 0x0 DUP4 ADD MSTORE PUSH2 0x576 DUP2 PUSH2 0x53A JUMP JUMPDEST SWAP1 POP SWAP2 SWAP1 POP JUMP JUMPDEST PUSH32 0x4E487B7100000000000000000000000000000000000000000000000000000000 PUSH1 0x0 MSTORE PUSH1 0x12 PUSH1 0x4 MSTORE PUSH1 0x24 PUSH1 0x0 REVERT JUMPDEST PUSH32 0x4E487B7100000000000000000000000000000000000000000000000000000000 PUSH1 0x0 MSTORE PUSH1 0x11 PUSH1 0x4 MSTORE PUSH1 0x24 PUSH1 0x0 REVERT JUMPDEST PUSH1 0x0 PUSH2 0x5E6 DUP3 PUSH2 0x49D JUMP JUMPDEST SWAP2 POP PUSH2 0x5F1 DUP4 PUSH2 0x49D JUMP JUMPDEST SWAP3 POP DUP3 PUSH2 0x601 JUMPI PUSH2 0x600 PUSH2 0x57D JUMP JUMPDEST JUMPDEST DUP3 DUP3 DIV SWAP1 POP SWAP3 SWAP2 POP POP JUMP JUMPDEST PUSH32 0x4E487B7100000000000000000000000000000000000000000000000000000000 PUSH1 0x0 MSTORE PUSH1 0x32 PUSH1 0x4 MSTORE PUSH1 0x24 PUSH1 0x0 REVERT JUMPDEST PUSH1 0x0 DUP2 SWAP1 POP SWAP3 SWAP2 POP POP JUMP JUMPDEST POP JUMP JUMPDEST PUSH1 0x0 PUSH2 0x656 PUSH1 0x0 DUP4 PUSH2 0x63B JUMP JUMPDEST SWAP2 POP PUSH2 0x661 DUP3 PUSH2 0x646 JUMP JUMPDEST PUSH1 0x0 DUP3 ADD SWAP1 POP SWAP2 SWAP1 POP JUMP JUMPDEST PUSH1 0x0 PUSH2 0x677 DUP3 PUSH2 0x649 JUMP JUMPDEST SWAP2 POP DUP2 SWAP1 POP SWAP2 SWAP1 POP JUMP JUMPDEST PUSH1 0x0 PUSH2 0x68C DUP3 PUSH2 0x49D JUMP JUMPDEST SWAP2 POP PUSH32 0xFFFFFFFFFFFFFFFFFFFFFFFFFFFFFFFFFFFFFFFFFFFFFFFFFFFFFFFFFFFFFFFF DUP3 SUB PUSH2 0x6BE JUMPI PUSH2 0x6BD PUSH2 0x5AC JUMP JUMPDEST JUMPDEST PUSH1 0x1 DUP3 ADD SWAP1 POP SWAP2 SWAP1 POP JUMP JUMPDEST PUSH32 0x596F752063616E2774206A6F696E2C20796F75206D616465207468697320636F PUSH1 0x0 DUP3 ADD MSTORE PUSH32 0x6E74726163742100000000000000000000000000000000000000000000000000 PUSH1 0x20 DUP3 ADD MSTORE POP JUMP JUMPDEST PUSH1 0x0 PUSH2 0x725 PUSH1 0x27 DUP4 PUSH2 0x500 JUMP JUMPDEST SWAP2 POP PUSH2 0x730 DUP3 PUSH2 0x6C9 JUMP JUMPDEST PUSH1 0x40 DUP3 ADD SWAP1 POP SWAP2 SWAP1 POP JUMP JUMPDEST PUSH1 0x0 PUSH1 0x20 DUP3 ADD SWAP1 POP DUP2 DUP2 SUB PUSH1 0x0 DUP4 ADD MSTORE PUSH2 0x754 DUP2 PUSH2 0x718 JUMP JUMPDEST SWAP1 POP SWAP2 SWAP1 POP JUMP JUMPDEST PUSH32 0x416C7265616479206F6E20746865206C69737421000000000000000000000000 PUSH1 0x0 DUP3 ADD MSTORE POP JUMP JUMPDEST PUSH1 0x0 PUSH2 0x791 PUSH1 0x14 DUP4 PUSH2 0x500 JUMP JUMPDEST SWAP2 POP PUSH2 0x79C DUP3 PUSH2 0x75B JUMP JUMPDEST PUSH1 0x20 DUP3 ADD SWAP1 POP SWAP2 SWAP1 POP JUMP JUMPDEST PUSH1 0x0 PUSH1 0x20 DUP3 ADD SWAP1 POP DUP2 DUP2 SUB PUSH1 0x0 DUP4 ADD MSTORE PUSH2 0x7C0 DUP2 PUSH2 0x784 JUMP JUMPDEST SWAP1 POP SWAP2 SWAP1 POP JUMP INVALID LOG2 PUSH5 0x6970667358 0x22 SLT KECCAK256 EXTCODECOPY JUMPDEST 0x4A CALLDATALOAD SWAP7 DUP6 0xCC 0x2F CREATE2 SHL 0xE9 0x28 INVALID SWAP7 DUP7 DUP12 EXTCODEHASH DUP16 SELFBALANCE PUSH2 0x93A9 EXTCODESIZE 0xDE 0xD2 0x1F BASEFEE CALLCODE JUMP 0x2F 0xE6 SWAP4 PUSH5 0x736F6C6343 STOP ADDMOD 0xD STOP CALLER "
				},
				"gasEstimates": {
					"creation": {
						"codeDepositCost": "409000",
						"executionCost": "24709",
						"totalCost": "433709"
					},
					"external": {
						"addresses(uint256)": "5000",
						"airdrop()": "infinite",
						"creator()": "2492",
						"joinList()": "77530"
					}
				},
				"methodIdentifiers": {
					"addresses(uint256)": "edf26d9b",
					"airdrop()": "3884d635",
					"creator()": "02d05d3f",
					"joinList()": "a11b8e61"
				}
			},
			"storageLayout": {
				"storage": [
					{
						"astId": 4,
						"contract": "contracts/Week2Day4.sol:Week2Day4",
						"label": "addresses",
						"offset": 0,
						"slot": "0",
						"type": "t_array(t_address)dyn_storage"
					},
					{
						"astId": 8,
						"contract": "contracts/Week2Day4.sol:Week2Day4",
						"label": "balance",
						"offset": 0,
						"slot": "1",
						"type": "t_mapping(t_address,t_uint256)"
					},
					{
						"astId": 12,
						"contract": "contracts/Week2Day4.sol:Week2Day4",
						"label": "isOnList",
						"offset": 0,
						"slot": "2",
						"type": "t_mapping(t_address,t_bool)"
					},
					{
						"astId": 14,
						"contract": "contracts/Week2Day4.sol:Week2Day4",
						"label": "creator",
						"offset": 0,
						"slot": "3",
						"type": "t_address"
					}
				],
				"types": {
					"t_address": {
						"encoding": "inplace",
						"label": "address",
						"numberOfBytes": "20"
					},
					"t_array(t_address)dyn_storage": {
						"base": "t_address",
						"encoding": "dynamic_array",
						"label": "address[]",
						"numberOfBytes": "32"
					},
					"t_bool": {
						"encoding": "inplace",
						"label": "bool",
						"numberOfBytes": "1"
					},
					"t_mapping(t_address,t_bool)": {
						"encoding": "mapping",
						"key": "t_address",
						"label": "mapping(address => bool)",
						"numberOfBytes": "32",
						"value": "t_bool"
					},
					"t_mapping(t_address,t_uint256)": {
						"encoding": "mapping",
						"key": "t_address",
						"label": "mapping(address => uint256)",
						"numberOfBytes": "32",
						"value": "t_uint256"
					},
					"t_uint256": {
						"encoding": "inplace",
						"label": "uint256",
						"numberOfBytes": "32"
					}
				}
			},
			"userdoc": {
				"kind": "user",
				"methods": {},
				"version": 1
			}
		}
	}
}