{
	"data": {
		"bytecode": {
			"linkReferences": {},
			"object": "608060405234801561001057600080fd5b506103a1806100206000396000f3fe608060405234801561001057600080fd5b506004361061002b5760003560e01c8063771b1c0a14610030575b600080fd5b61003861003a565b005b6000733cdbff65dac67cdb6e5c4f05c4db8fe05c20e4d890508073ffffffffffffffffffffffffffffffffffffffff1663c06f8e66336040518263ffffffff1660e01b815260040161008c9190610176565b6000604051808303816000875af11580156100ab573d6000803e3d6000fd5b505050506040513d6000823e3d601f19601f820116820180604052508101906100d49190610322565b5050565b600073ffffffffffffffffffffffffffffffffffffffff82169050919050565b6000610103826100d8565b9050919050565b610113816100f8565b82525050565b600082825260208201905092915050565b7f4865792120492064696420697421204861680000000000000000000000000000600082015250565b6000610160601283610119565b915061016b8261012a565b602082019050919050565b600060408201905061018b600083018461010a565b818103602083015261019c81610153565b905092915050565b6000604051905090565b600080fd5b600080fd5b600080fd5b600080fd5b6000601f19601f8301169050919050565b7f4e487b7100000000000000000000000000000000000000000000000000000000600052604160045260246000fd5b61020b826101c2565b810181811067ffffffffffffffff8211171561022a576102296101d3565b5b80604052505050565b600061023d6101a4565b90506102498282610202565b919050565b600067ffffffffffffffff821115610269576102686101d3565b5b610272826101c2565b9050602081019050919050565b60005b8381101561029d578082015181840152602081019050610282565b838111156102ac576000848401525b50505050565b60006102c56102c08461024e565b610233565b9050828152602081018484840111156102e1576102e06101bd565b5b6102ec84828561027f565b509392505050565b600082601f830112610309576103086101b8565b5b81516103198482602086016102b2565b91505092915050565b600060208284031215610338576103376101ae565b5b600082015167ffffffffffffffff811115610356576103556101b3565b5b610362848285016102f4565b9150509291505056fea2646970667358221220e3969df5fca9320eebcdb864aa45a443cd1e04b49d3270a1403338f00a48a41664736f6c634300080d0033",
			"opcodes": "PUSH1 0x80 PUSH1 0x40 MSTORE CALLVALUE DUP1 ISZERO PUSH2 0x10 JUMPI PUSH1 0x0 DUP1 REVERT JUMPDEST POP PUSH2 0x3A1 DUP1 PUSH2 0x20 PUSH1 0x0 CODECOPY PUSH1 0x0 RETURN INVALID PUSH1 0x80 PUSH1 0x40 MSTORE CALLVALUE DUP1 ISZERO PUSH2 0x10 JUMPI PUSH1 0x0 DUP1 REVERT JUMPDEST POP PUSH1 0x4 CALLDATASIZE LT PUSH2 0x2B JUMPI PUSH1 0x0 CALLDATALOAD PUSH1 0xE0 SHR DUP1 PUSH4 0x771B1C0A EQ PUSH2 0x30 JUMPI JUMPDEST PUSH1 0x0 DUP1 REVERT JUMPDEST PUSH2 0x38 PUSH2 0x3A JUMP JUMPDEST STOP JUMPDEST PUSH1 0x0 PUSH20 0x3CDBFF65DAC67CDB6E5C4F05C4DB8FE05C20E4D8 SWAP1 POP DUP1 PUSH20 0xFFFFFFFFFFFFFFFFFFFFFFFFFFFFFFFFFFFFFFFF AND PUSH4 0xC06F8E66 CALLER PUSH1 0x40 MLOAD DUP3 PUSH4 0xFFFFFFFF AND PUSH1 0xE0 SHL DUP2 MSTORE PUSH1 0x4 ADD PUSH2 0x8C SWAP2 SWAP1 PUSH2 0x176 JUMP JUMPDEST PUSH1 0x0 PUSH1 0x40 MLOAD DUP1 DUP4 SUB DUP2 PUSH1 0x0 DUP8 GAS CALL ISZERO DUP1 ISZERO PUSH2 0xAB JUMPI RETURNDATASIZE PUSH1 0x0 DUP1 RETURNDATACOPY RETURNDATASIZE PUSH1 0x0 REVERT JUMPDEST POP POP POP POP PUSH1 0x40 MLOAD RETURNDATASIZE PUSH1 0x0 DUP3 RETURNDATACOPY RETURNDATASIZE PUSH1 0x1F NOT PUSH1 0x1F DUP3 ADD AND DUP3 ADD DUP1 PUSH1 0x40 MSTORE POP DUP2 ADD SWAP1 PUSH2 0xD4 SWAP2 SWAP1 PUSH2 0x322 JUMP JUMPDEST POP POP JUMP JUMPDEST PUSH1 0x0 PUSH20 0xFFFFFFFFFFFFFFFFFFFFFFFFFFFFFFFFFFFFFFFF DUP3 AND SWAP1 POP SWAP2 SWAP1 POP JUMP JUMPDEST PUSH1 0x0 PUSH2 0x103 DUP3 PUSH2 0xD8 JUMP JUMPDEST SWAP1 POP SWAP2 SWAP1 POP JUMP JUMPDEST PUSH2 0x113 DUP2 PUSH2 0xF8 JUMP JUMPDEST DUP3 MSTORE POP POP JUMP JUMPDEST PUSH1 0x0 DUP3 DUP3 MSTORE PUSH1 0x20 DUP3 ADD SWAP1 POP SWAP3 SWAP2 POP POP JUMP JUMPDEST PUSH32 0x4865792120492064696420697421204861680000000000000000000000000000 PUSH1 0x0 DUP3 ADD MSTORE POP JUMP JUMPDEST PUSH1 0x0 PUSH2 0x160 PUSH1 0x12 DUP4 PUSH2 0x119 JUMP JUMPDEST SWAP2 POP PUSH2 0x16B DUP3 PUSH2 0x12A JUMP JUMPDEST PUSH1 0x20 DUP3 ADD SWAP1 POP SWAP2 SWAP1 POP JUMP JUMPDEST PUSH1 0x0 PUSH1 0x40 DUP3 ADD SWAP1 POP PUSH2 0x18B PUSH1 0x0 DUP4 ADD DUP5 PUSH2 0x10A JUMP JUMPDEST DUP2 DUP2 SUB PUSH1 0x20 DUP4 ADD MSTORE PUSH2 0x19C DUP2 PUSH2 0x153 JUMP JUMPDEST SWAP1 POP SWAP3 SWAP2 POP POP JUMP JUMPDEST PUSH1 0x0 PUSH1 0x40 MLOAD SWAP1 POP SWAP1 JUMP JUMPDEST PUSH1 0x0 DUP1 REVERT JUMPDEST PUSH1 0x0 DUP1 REVERT JUMPDEST PUSH1 0x0 DUP1 REVERT JUMPDEST PUSH1 0x0 DUP1 REVERT JUMPDEST PUSH1 0x0 PUSH1 0x1F NOT PUSH1 0x1F DUP4 ADD AND SWAP1 POP SWAP2 SWAP1 POP JUMP JUMPDEST PUSH32 0x4E487B7100000000000000000000000000000000000000000000000000000000 PUSH1 0x0 MSTORE PUSH1 0x41 PUSH1 0x4 MSTORE PUSH1 0x24 PUSH1 0x0 REVERT JUMPDEST PUSH2 0x20B DUP3 PUSH2 0x1C2 JUMP JUMPDEST DUP2 ADD DUP2 DUP2 LT PUSH8 0xFFFFFFFFFFFFFFFF DUP3 GT OR ISZERO PUSH2 0x22A JUMPI PUSH2 0x229 PUSH2 0x1D3 JUMP JUMPDEST JUMPDEST DUP1 PUSH1 0x40 MSTORE POP POP POP JUMP JUMPDEST PUSH1 0x0 PUSH2 0x23D PUSH2 0x1A4 JUMP JUMPDEST SWAP1 POP PUSH2 0x249 DUP3 DUP3 PUSH2 0x202 JUMP JUMPDEST SWAP2 SWAP1 POP JUMP JUMPDEST PUSH1 0x0 PUSH8 0xFFFFFFFFFFFFFFFF DUP3 GT ISZERO PUSH2 0x269 JUMPI PUSH2 0x268 PUSH2 0x1D3 JUMP JUMPDEST JUMPDEST PUSH2 0x272 DUP3 PUSH2 0x1C2 JUMP JUMPDEST SWAP1 POP PUSH1 0x20 DUP2 ADD SWAP1 POP SWAP2 SWAP1 POP JUMP JUMPDEST PUSH1 0x0 JUMPDEST DUP4 DUP2 LT ISZERO PUSH2 0x29D JUMPI DUP1 DUP3 ADD MLOAD DUP2 DUP5 ADD MSTORE PUSH1 0x20 DUP2 ADD SWAP1 POP PUSH2 0x282 JUMP JUMPDEST DUP4 DUP2 GT ISZERO PUSH2 0x2AC JUMPI PUSH1 0x0 DUP5 DUP5 ADD MSTORE JUMPDEST POP POP POP POP JUMP JUMPDEST PUSH1 0x0 PUSH2 0x2C5 PUSH2 0x2C0 DUP5 PUSH2 0x24E JUMP JUMPDEST PUSH2 0x233 JUMP JUMPDEST SWAP1 POP DUP3 DUP2 MSTORE PUSH1 0x20 DUP2 ADD DUP5 DUP5 DUP5 ADD GT ISZERO PUSH2 0x2E1 JUMPI PUSH2 0x2E0 PUSH2 0x1BD JUMP JUMPDEST JUMPDEST PUSH2 0x2EC DUP5 DUP3 DUP6 PUSH2 0x27F JUMP JUMPDEST POP SWAP4 SWAP3 POP POP POP JUMP JUMPDEST PUSH1 0x0 DUP3 PUSH1 0x1F DUP4 ADD SLT PUSH2 0x309 JUMPI PUSH2 0x308 PUSH2 0x1B8 JUMP JUMPDEST JUMPDEST DUP2 MLOAD PUSH2 0x319 DUP5 DUP3 PUSH1 0x20 DUP7 ADD PUSH2 0x2B2 JUMP JUMPDEST SWAP2 POP POP SWAP3 SWAP2 POP POP JUMP JUMPDEST PUSH1 0x0 PUSH1 0x20 DUP3 DUP5 SUB SLT ISZERO PUSH2 0x338 JUMPI PUSH2 0x337 PUSH2 0x1AE JUMP JUMPDEST JUMPDEST PUSH1 0x0 DUP3 ADD MLOAD PUSH8 0xFFFFFFFFFFFFFFFF DUP2 GT ISZERO PUSH2 0x356 JUMPI PUSH2 0x355 PUSH2 0x1B3 JUMP JUMPDEST JUMPDEST PUSH2 0x362 DUP5 DUP3 DUP6 ADD PUSH2 0x2F4 JUMP JUMPDEST SWAP2 POP POP SWAP3 SWAP2 POP POP JUMP INVALID LOG2 PUSH5 0x6970667358 0x22 SLT KECCAK256 0xE3 SWAP7 SWAP14 CREATE2 0xFC 0xA9 ORIGIN 0xE 0xEB 0xCD 0xB8 PUSH5 0xAA45A443CD 0x1E DIV 0xB4 SWAP14 ORIGIN PUSH17 0xA1403338F00A48A41664736F6C63430008 0xD STOP CALLER "
		},
		"gasEstimates": {
			"creation": {
				"codeDepositCost": "185800",
				"executionCost": "232",
				"totalCost": "186032"
			},
			"external": {
				"signMeSetup()": "infinite"
			}
		},
		"methodIdentifiers": {
			"signMeSetup()": "771b1c0a"
		}
	},
	"abi": [
		{
			"inputs": [],
			"name": "signMeSetup",
			"outputs": [],
			"stateMutability": "nonpayable",
			"type": "function"
		}
	]
}