{
	"contracts/Practice/ThreeContracts.sol": {
		"A": {
			"abi": [
				{
					"inputs": [
						{
							"internalType": "address",
							"name": "_contractId",
							"type": "address"
						}
					],
					"name": "callThingy",
					"outputs": [
						{
							"internalType": "string",
							"name": "",
							"type": "string"
						}
					],
					"stateMutability": "pure",
					"type": "function"
				},
				{
					"inputs": [
						{
							"internalType": "address",
							"name": "_contractId",
							"type": "address"
						}
					],
					"name": "getNumber",
					"outputs": [
						{
							"internalType": "uint256",
							"name": "",
							"type": "uint256"
						}
					],
					"stateMutability": "view",
					"type": "function"
				},
				{
					"inputs": [
						{
							"internalType": "uint256",
							"name": "_number",
							"type": "uint256"
						},
						{
							"internalType": "address",
							"name": "_contractIdC",
							"type": "address"
						},
						{
							"internalType": "address",
							"name": "_contractIdB",
							"type": "address"
						}
					],
					"name": "setBNumber",
					"outputs": [],
					"stateMutability": "nonpayable",
					"type": "function"
				},
				{
					"inputs": [
						{
							"internalType": "uint256",
							"name": "_number",
							"type": "uint256"
						},
						{
							"internalType": "address",
							"name": "_contractIdB",
							"type": "address"
						}
					],
					"name": "setBNumberDirect",
					"outputs": [],
					"stateMutability": "nonpayable",
					"type": "function"
				}
			],
			"devdoc": {
				"kind": "dev",
				"methods": {},
				"version": 1
			},
			"evm": {
				"assembly": "    /* \"contracts/Practice/ThreeContracts.sol\":61:634  contract A{... */\n  mstore(0x40, 0x80)\n  callvalue\n  dup1\n  iszero\n  tag_1\n  jumpi\n  0x00\n  dup1\n  revert\ntag_1:\n  pop\n  dataSize(sub_0)\n  dup1\n  dataOffset(sub_0)\n  0x00\n  codecopy\n  0x00\n  return\nstop\n\nsub_0: assembly {\n        /* \"contracts/Practice/ThreeContracts.sol\":61:634  contract A{... */\n      mstore(0x40, 0x80)\n      callvalue\n      dup1\n      iszero\n      tag_1\n      jumpi\n      0x00\n      dup1\n      revert\n    tag_1:\n      pop\n      jumpi(tag_2, lt(calldatasize, 0x04))\n      shr(0xe0, calldataload(0x00))\n      dup1\n      0x65ad862d\n      eq\n      tag_3\n      jumpi\n      dup1\n      0x91990585\n      eq\n      tag_4\n      jumpi\n      dup1\n      0x942ea466\n      eq\n      tag_5\n      jumpi\n      dup1\n      0xf7799230\n      eq\n      tag_6\n      jumpi\n    tag_2:\n      0x00\n      dup1\n      revert\n        /* \"contracts/Practice/ThreeContracts.sol\":346:499  function setBNumber(uint _number, address _contractIdC, address _contractIdB) public {... */\n    tag_3:\n      tag_7\n      0x04\n      dup1\n      calldatasize\n      sub\n      dup2\n      add\n      swap1\n      tag_8\n      swap2\n      swap1\n      tag_9\n      jump\t// in\n    tag_8:\n      tag_10\n      jump\t// in\n    tag_7:\n      stop\n        /* \"contracts/Practice/ThreeContracts.sol\":507:629  function setBNumberDirect(uint _number, address _contractIdB) public {... */\n    tag_4:\n      tag_11\n      0x04\n      dup1\n      calldatasize\n      sub\n      dup2\n      add\n      swap1\n      tag_12\n      swap2\n      swap1\n      tag_13\n      jump\t// in\n    tag_12:\n      tag_14\n      jump\t// in\n    tag_11:\n      stop\n        /* \"contracts/Practice/ThreeContracts.sol\":84:202  function getNumber(address _contractId) public view returns(uint) {... */\n    tag_5:\n      tag_15\n      0x04\n      dup1\n      calldatasize\n      sub\n      dup2\n      add\n      swap1\n      tag_16\n      swap2\n      swap1\n      tag_17\n      jump\t// in\n    tag_16:\n      tag_18\n      jump\t// in\n    tag_15:\n      mload(0x40)\n      tag_19\n      swap2\n      swap1\n      tag_20\n      jump\t// in\n    tag_19:\n      mload(0x40)\n      dup1\n      swap2\n      sub\n      swap1\n      return\n        /* \"contracts/Practice/ThreeContracts.sol\":210:338  function callThingy(address _contractId) public pure returns(string memory) {... */\n    tag_6:\n      tag_21\n      0x04\n      dup1\n      calldatasize\n      sub\n      dup2\n      add\n      swap1\n      tag_22\n      swap2\n      swap1\n      tag_17\n      jump\t// in\n    tag_22:\n      tag_23\n      jump\t// in\n    tag_21:\n      mload(0x40)\n      tag_24\n      swap2\n      swap1\n      tag_25\n      jump\t// in\n    tag_24:\n      mload(0x40)\n      dup1\n      swap2\n      sub\n      swap1\n      return\n        /* \"contracts/Practice/ThreeContracts.sol\":346:499  function setBNumber(uint _number, address _contractIdC, address _contractIdB) public {... */\n    tag_10:\n        /* \"contracts/Practice/ThreeContracts.sol\":444:456  _contractIdC */\n      dup2\n        /* \"contracts/Practice/ThreeContracts.sol\":442:468  C(_contractIdC).setBNumber */\n      0xffffffffffffffffffffffffffffffffffffffff\n      and\n      0x1c3a6ba3\n        /* \"contracts/Practice/ThreeContracts.sol\":469:476  _number */\n      dup5\n        /* \"contracts/Practice/ThreeContracts.sol\":478:490  _contractIdB */\n      dup4\n        /* \"contracts/Practice/ThreeContracts.sol\":442:491  C(_contractIdC).setBNumber(_number, _contractIdB) */\n      mload(0x40)\n      dup4\n      0xffffffff\n      and\n      0xe0\n      shl\n      dup2\n      mstore\n      0x04\n      add\n      tag_27\n      swap3\n      swap2\n      swap1\n      tag_28\n      jump\t// in\n    tag_27:\n      0x00\n      mload(0x40)\n      dup1\n      dup4\n      sub\n      dup2\n      0x00\n      dup8\n      dup1\n      extcodesize\n      iszero\n      dup1\n      iszero\n      tag_29\n      jumpi\n      0x00\n      dup1\n      revert\n    tag_29:\n      pop\n      gas\n      call\n      iszero\n      dup1\n      iszero\n      tag_31\n      jumpi\n      returndatasize\n      0x00\n      dup1\n      returndatacopy\n      revert(0x00, returndatasize)\n    tag_31:\n      pop\n      pop\n      pop\n      pop\n        /* \"contracts/Practice/ThreeContracts.sol\":346:499  function setBNumber(uint _number, address _contractIdC, address _contractIdB) public {... */\n      pop\n      pop\n      pop\n      jump\t// out\n        /* \"contracts/Practice/ThreeContracts.sol\":507:629  function setBNumberDirect(uint _number, address _contractIdB) public {... */\n    tag_14:\n        /* \"contracts/Practice/ThreeContracts.sol\":589:601  _contractIdB */\n      dup1\n        /* \"contracts/Practice/ThreeContracts.sol\":587:612  B(_contractIdB).setNumber */\n      0xffffffffffffffffffffffffffffffffffffffff\n      and\n      0x3fb5c1cb\n        /* \"contracts/Practice/ThreeContracts.sol\":613:620  _number */\n      dup4\n        /* \"contracts/Practice/ThreeContracts.sol\":587:621  B(_contractIdB).setNumber(_number) */\n      mload(0x40)\n      dup3\n      0xffffffff\n      and\n      0xe0\n      shl\n      dup2\n      mstore\n      0x04\n      add\n      tag_33\n      swap2\n      swap1\n      tag_20\n      jump\t// in\n    tag_33:\n      0x00\n      mload(0x40)\n      dup1\n      dup4\n      sub\n      dup2\n      0x00\n      dup8\n      dup1\n      extcodesize\n      iszero\n      dup1\n      iszero\n      tag_34\n      jumpi\n      0x00\n      dup1\n      revert\n    tag_34:\n      pop\n      gas\n      call\n      iszero\n      dup1\n      iszero\n      tag_36\n      jumpi\n      returndatasize\n      0x00\n      dup1\n      returndatacopy\n      revert(0x00, returndatasize)\n    tag_36:\n      pop\n      pop\n      pop\n      pop\n        /* \"contracts/Practice/ThreeContracts.sol\":507:629  function setBNumberDirect(uint _number, address _contractIdB) public {... */\n      pop\n      pop\n      jump\t// out\n        /* \"contracts/Practice/ThreeContracts.sol\":84:202  function getNumber(address _contractId) public view returns(uint) {... */\n    tag_18:\n        /* \"contracts/Practice/ThreeContracts.sol\":144:148  uint */\n      0x00\n        /* \"contracts/Practice/ThreeContracts.sol\":170:181  _contractId */\n      dup2\n        /* \"contracts/Practice/ThreeContracts.sol\":168:192  B(_contractId).getNumber */\n      0xffffffffffffffffffffffffffffffffffffffff\n      and\n      0xf2c9ecd8\n        /* \"contracts/Practice/ThreeContracts.sol\":168:194  B(_contractId).getNumber() */\n      mload(0x40)\n      dup2\n      0xffffffff\n      and\n      0xe0\n      shl\n      dup2\n      mstore\n      0x04\n      add\n      0x20\n      mload(0x40)\n      dup1\n      dup4\n      sub\n      dup2\n      dup7\n      gas\n      staticcall\n      iszero\n      dup1\n      iszero\n      tag_39\n      jumpi\n      returndatasize\n      0x00\n      dup1\n      returndatacopy\n      revert(0x00, returndatasize)\n    tag_39:\n      pop\n      pop\n      pop\n      pop\n      mload(0x40)\n      returndatasize\n      not(0x1f)\n      0x1f\n      dup3\n      add\n      and\n      dup3\n      add\n      dup1\n      0x40\n      mstore\n      pop\n      dup2\n      add\n      swap1\n      tag_40\n      swap2\n      swap1\n      tag_41\n      jump\t// in\n    tag_40:\n        /* \"contracts/Practice/ThreeContracts.sol\":161:194  return B(_contractId).getNumber() */\n      swap1\n      pop\n        /* \"contracts/Practice/ThreeContracts.sol\":84:202  function getNumber(address _contractId) public view returns(uint) {... */\n      swap2\n      swap1\n      pop\n      jump\t// out\n        /* \"contracts/Practice/ThreeContracts.sol\":210:338  function callThingy(address _contractId) public pure returns(string memory) {... */\n    tag_23:\n        /* \"contracts/Practice/ThreeContracts.sol\":271:284  string memory */\n      0x60\n        /* \"contracts/Practice/ThreeContracts.sol\":306:317  _contractId */\n      dup2\n        /* \"contracts/Practice/ThreeContracts.sol\":304:328  C(_contractId).getThingy */\n      0xffffffffffffffffffffffffffffffffffffffff\n      and\n      0xfb1335a4\n        /* \"contracts/Practice/ThreeContracts.sol\":304:330  C(_contractId).getThingy() */\n      mload(0x40)\n      dup2\n      0xffffffff\n      and\n      0xe0\n      shl\n      dup2\n      mstore\n      0x04\n      add\n      0x00\n      mload(0x40)\n      dup1\n      dup4\n      sub\n      dup2\n      dup7\n      gas\n      staticcall\n      iszero\n      dup1\n      iszero\n      tag_44\n      jumpi\n      returndatasize\n      0x00\n      dup1\n      returndatacopy\n      revert(0x00, returndatasize)\n    tag_44:\n      pop\n      pop\n      pop\n      pop\n      mload(0x40)\n      returndatasize\n      0x00\n      dup3\n      returndatacopy\n      returndatasize\n      not(0x1f)\n      0x1f\n      dup3\n      add\n      and\n      dup3\n      add\n      dup1\n      0x40\n      mstore\n      pop\n      dup2\n      add\n      swap1\n      tag_45\n      swap2\n      swap1\n      tag_46\n      jump\t// in\n    tag_45:\n        /* \"contracts/Practice/ThreeContracts.sol\":297:330  return C(_contractId).getThingy() */\n      swap1\n      pop\n        /* \"contracts/Practice/ThreeContracts.sol\":210:338  function callThingy(address _contractId) public pure returns(string memory) {... */\n      swap2\n      swap1\n      pop\n      jump\t// out\n        /* \"#utility.yul\":7:82   */\n    tag_47:\n        /* \"#utility.yul\":40:46   */\n      0x00\n        /* \"#utility.yul\":73:75   */\n      0x40\n        /* \"#utility.yul\":67:76   */\n      mload\n        /* \"#utility.yul\":57:76   */\n      swap1\n      pop\n        /* \"#utility.yul\":7:82   */\n      swap1\n      jump\t// out\n        /* \"#utility.yul\":88:205   */\n    tag_48:\n        /* \"#utility.yul\":197:198   */\n      0x00\n        /* \"#utility.yul\":194:195   */\n      dup1\n        /* \"#utility.yul\":187:199   */\n      revert\n        /* \"#utility.yul\":211:328   */\n    tag_49:\n        /* \"#utility.yul\":320:321   */\n      0x00\n        /* \"#utility.yul\":317:318   */\n      dup1\n        /* \"#utility.yul\":310:322   */\n      revert\n        /* \"#utility.yul\":334:411   */\n    tag_50:\n        /* \"#utility.yul\":371:378   */\n      0x00\n        /* \"#utility.yul\":400:405   */\n      dup2\n        /* \"#utility.yul\":389:405   */\n      swap1\n      pop\n        /* \"#utility.yul\":334:411   */\n      swap2\n      swap1\n      pop\n      jump\t// out\n        /* \"#utility.yul\":417:539   */\n    tag_51:\n        /* \"#utility.yul\":490:514   */\n      tag_79\n        /* \"#utility.yul\":508:513   */\n      dup2\n        /* \"#utility.yul\":490:514   */\n      tag_50\n      jump\t// in\n    tag_79:\n        /* \"#utility.yul\":483:488   */\n      dup2\n        /* \"#utility.yul\":480:515   */\n      eq\n        /* \"#utility.yul\":470:533   */\n      tag_80\n      jumpi\n        /* \"#utility.yul\":529:530   */\n      0x00\n        /* \"#utility.yul\":526:527   */\n      dup1\n        /* \"#utility.yul\":519:531   */\n      revert\n        /* \"#utility.yul\":470:533   */\n    tag_80:\n        /* \"#utility.yul\":417:539   */\n      pop\n      jump\t// out\n        /* \"#utility.yul\":545:684   */\n    tag_52:\n        /* \"#utility.yul\":591:596   */\n      0x00\n        /* \"#utility.yul\":629:635   */\n      dup2\n        /* \"#utility.yul\":616:636   */\n      calldataload\n        /* \"#utility.yul\":607:636   */\n      swap1\n      pop\n        /* \"#utility.yul\":645:678   */\n      tag_82\n        /* \"#utility.yul\":672:677   */\n      dup2\n        /* \"#utility.yul\":645:678   */\n      tag_51\n      jump\t// in\n    tag_82:\n        /* \"#utility.yul\":545:684   */\n      swap3\n      swap2\n      pop\n      pop\n      jump\t// out\n        /* \"#utility.yul\":690:816   */\n    tag_53:\n        /* \"#utility.yul\":727:734   */\n      0x00\n        /* \"#utility.yul\":767:809   */\n      0xffffffffffffffffffffffffffffffffffffffff\n        /* \"#utility.yul\":760:765   */\n      dup3\n        /* \"#utility.yul\":756:810   */\n      and\n        /* \"#utility.yul\":745:810   */\n      swap1\n      pop\n        /* \"#utility.yul\":690:816   */\n      swap2\n      swap1\n      pop\n      jump\t// out\n        /* \"#utility.yul\":822:918   */\n    tag_54:\n        /* \"#utility.yul\":859:866   */\n      0x00\n        /* \"#utility.yul\":888:912   */\n      tag_85\n        /* \"#utility.yul\":906:911   */\n      dup3\n        /* \"#utility.yul\":888:912   */\n      tag_53\n      jump\t// in\n    tag_85:\n        /* \"#utility.yul\":877:912   */\n      swap1\n      pop\n        /* \"#utility.yul\":822:918   */\n      swap2\n      swap1\n      pop\n      jump\t// out\n        /* \"#utility.yul\":924:1046   */\n    tag_55:\n        /* \"#utility.yul\":997:1021   */\n      tag_87\n        /* \"#utility.yul\":1015:1020   */\n      dup2\n        /* \"#utility.yul\":997:1021   */\n      tag_54\n      jump\t// in\n    tag_87:\n        /* \"#utility.yul\":990:995   */\n      dup2\n        /* \"#utility.yul\":987:1022   */\n      eq\n        /* \"#utility.yul\":977:1040   */\n      tag_88\n      jumpi\n        /* \"#utility.yul\":1036:1037   */\n      0x00\n        /* \"#utility.yul\":1033:1034   */\n      dup1\n        /* \"#utility.yul\":1026:1038   */\n      revert\n        /* \"#utility.yul\":977:1040   */\n    tag_88:\n        /* \"#utility.yul\":924:1046   */\n      pop\n      jump\t// out\n        /* \"#utility.yul\":1052:1191   */\n    tag_56:\n        /* \"#utility.yul\":1098:1103   */\n      0x00\n        /* \"#utility.yul\":1136:1142   */\n      dup2\n        /* \"#utility.yul\":1123:1143   */\n      calldataload\n        /* \"#utility.yul\":1114:1143   */\n      swap1\n      pop\n        /* \"#utility.yul\":1152:1185   */\n      tag_90\n        /* \"#utility.yul\":1179:1184   */\n      dup2\n        /* \"#utility.yul\":1152:1185   */\n      tag_55\n      jump\t// in\n    tag_90:\n        /* \"#utility.yul\":1052:1191   */\n      swap3\n      swap2\n      pop\n      pop\n      jump\t// out\n        /* \"#utility.yul\":1197:1816   */\n    tag_9:\n        /* \"#utility.yul\":1274:1280   */\n      0x00\n        /* \"#utility.yul\":1282:1288   */\n      dup1\n        /* \"#utility.yul\":1290:1296   */\n      0x00\n        /* \"#utility.yul\":1339:1341   */\n      0x60\n        /* \"#utility.yul\":1327:1336   */\n      dup5\n        /* \"#utility.yul\":1318:1325   */\n      dup7\n        /* \"#utility.yul\":1314:1337   */\n      sub\n        /* \"#utility.yul\":1310:1342   */\n      slt\n        /* \"#utility.yul\":1307:1426   */\n      iszero\n      tag_92\n      jumpi\n        /* \"#utility.yul\":1345:1424   */\n      tag_93\n      tag_48\n      jump\t// in\n    tag_93:\n        /* \"#utility.yul\":1307:1426   */\n    tag_92:\n        /* \"#utility.yul\":1465:1466   */\n      0x00\n        /* \"#utility.yul\":1490:1543   */\n      tag_94\n        /* \"#utility.yul\":1535:1542   */\n      dup7\n        /* \"#utility.yul\":1526:1532   */\n      dup3\n        /* \"#utility.yul\":1515:1524   */\n      dup8\n        /* \"#utility.yul\":1511:1533   */\n      add\n        /* \"#utility.yul\":1490:1543   */\n      tag_52\n      jump\t// in\n    tag_94:\n        /* \"#utility.yul\":1480:1543   */\n      swap4\n      pop\n        /* \"#utility.yul\":1436:1553   */\n      pop\n        /* \"#utility.yul\":1592:1594   */\n      0x20\n        /* \"#utility.yul\":1618:1671   */\n      tag_95\n        /* \"#utility.yul\":1663:1670   */\n      dup7\n        /* \"#utility.yul\":1654:1660   */\n      dup3\n        /* \"#utility.yul\":1643:1652   */\n      dup8\n        /* \"#utility.yul\":1639:1661   */\n      add\n        /* \"#utility.yul\":1618:1671   */\n      tag_56\n      jump\t// in\n    tag_95:\n        /* \"#utility.yul\":1608:1671   */\n      swap3\n      pop\n        /* \"#utility.yul\":1563:1681   */\n      pop\n        /* \"#utility.yul\":1720:1722   */\n      0x40\n        /* \"#utility.yul\":1746:1799   */\n      tag_96\n        /* \"#utility.yul\":1791:1798   */\n      dup7\n        /* \"#utility.yul\":1782:1788   */\n      dup3\n        /* \"#utility.yul\":1771:1780   */\n      dup8\n        /* \"#utility.yul\":1767:1789   */\n      add\n        /* \"#utility.yul\":1746:1799   */\n      tag_56\n      jump\t// in\n    tag_96:\n        /* \"#utility.yul\":1736:1799   */\n      swap2\n      pop\n        /* \"#utility.yul\":1691:1809   */\n      pop\n        /* \"#utility.yul\":1197:1816   */\n      swap3\n      pop\n      swap3\n      pop\n      swap3\n      jump\t// out\n        /* \"#utility.yul\":1822:2296   */\n    tag_13:\n        /* \"#utility.yul\":1890:1896   */\n      0x00\n        /* \"#utility.yul\":1898:1904   */\n      dup1\n        /* \"#utility.yul\":1947:1949   */\n      0x40\n        /* \"#utility.yul\":1935:1944   */\n      dup4\n        /* \"#utility.yul\":1926:1933   */\n      dup6\n        /* \"#utility.yul\":1922:1945   */\n      sub\n        /* \"#utility.yul\":1918:1950   */\n      slt\n        /* \"#utility.yul\":1915:2034   */\n      iszero\n      tag_98\n      jumpi\n        /* \"#utility.yul\":1953:2032   */\n      tag_99\n      tag_48\n      jump\t// in\n    tag_99:\n        /* \"#utility.yul\":1915:2034   */\n    tag_98:\n        /* \"#utility.yul\":2073:2074   */\n      0x00\n        /* \"#utility.yul\":2098:2151   */\n      tag_100\n        /* \"#utility.yul\":2143:2150   */\n      dup6\n        /* \"#utility.yul\":2134:2140   */\n      dup3\n        /* \"#utility.yul\":2123:2132   */\n      dup7\n        /* \"#utility.yul\":2119:2141   */\n      add\n        /* \"#utility.yul\":2098:2151   */\n      tag_52\n      jump\t// in\n    tag_100:\n        /* \"#utility.yul\":2088:2151   */\n      swap3\n      pop\n        /* \"#utility.yul\":2044:2161   */\n      pop\n        /* \"#utility.yul\":2200:2202   */\n      0x20\n        /* \"#utility.yul\":2226:2279   */\n      tag_101\n        /* \"#utility.yul\":2271:2278   */\n      dup6\n        /* \"#utility.yul\":2262:2268   */\n      dup3\n        /* \"#utility.yul\":2251:2260   */\n      dup7\n        /* \"#utility.yul\":2247:2269   */\n      add\n        /* \"#utility.yul\":2226:2279   */\n      tag_56\n      jump\t// in\n    tag_101:\n        /* \"#utility.yul\":2216:2279   */\n      swap2\n      pop\n        /* \"#utility.yul\":2171:2289   */\n      pop\n        /* \"#utility.yul\":1822:2296   */\n      swap3\n      pop\n      swap3\n      swap1\n      pop\n      jump\t// out\n        /* \"#utility.yul\":2302:2631   */\n    tag_17:\n        /* \"#utility.yul\":2361:2367   */\n      0x00\n        /* \"#utility.yul\":2410:2412   */\n      0x20\n        /* \"#utility.yul\":2398:2407   */\n      dup3\n        /* \"#utility.yul\":2389:2396   */\n      dup5\n        /* \"#utility.yul\":2385:2408   */\n      sub\n        /* \"#utility.yul\":2381:2413   */\n      slt\n        /* \"#utility.yul\":2378:2497   */\n      iszero\n      tag_103\n      jumpi\n        /* \"#utility.yul\":2416:2495   */\n      tag_104\n      tag_48\n      jump\t// in\n    tag_104:\n        /* \"#utility.yul\":2378:2497   */\n    tag_103:\n        /* \"#utility.yul\":2536:2537   */\n      0x00\n        /* \"#utility.yul\":2561:2614   */\n      tag_105\n        /* \"#utility.yul\":2606:2613   */\n      dup5\n        /* \"#utility.yul\":2597:2603   */\n      dup3\n        /* \"#utility.yul\":2586:2595   */\n      dup6\n        /* \"#utility.yul\":2582:2604   */\n      add\n        /* \"#utility.yul\":2561:2614   */\n      tag_56\n      jump\t// in\n    tag_105:\n        /* \"#utility.yul\":2551:2614   */\n      swap2\n      pop\n        /* \"#utility.yul\":2507:2624   */\n      pop\n        /* \"#utility.yul\":2302:2631   */\n      swap3\n      swap2\n      pop\n      pop\n      jump\t// out\n        /* \"#utility.yul\":2637:2755   */\n    tag_57:\n        /* \"#utility.yul\":2724:2748   */\n      tag_107\n        /* \"#utility.yul\":2742:2747   */\n      dup2\n        /* \"#utility.yul\":2724:2748   */\n      tag_50\n      jump\t// in\n    tag_107:\n        /* \"#utility.yul\":2719:2722   */\n      dup3\n        /* \"#utility.yul\":2712:2749   */\n      mstore\n        /* \"#utility.yul\":2637:2755   */\n      pop\n      pop\n      jump\t// out\n        /* \"#utility.yul\":2761:2983   */\n    tag_20:\n        /* \"#utility.yul\":2854:2858   */\n      0x00\n        /* \"#utility.yul\":2892:2894   */\n      0x20\n        /* \"#utility.yul\":2881:2890   */\n      dup3\n        /* \"#utility.yul\":2877:2895   */\n      add\n        /* \"#utility.yul\":2869:2895   */\n      swap1\n      pop\n        /* \"#utility.yul\":2905:2976   */\n      tag_109\n        /* \"#utility.yul\":2973:2974   */\n      0x00\n        /* \"#utility.yul\":2962:2971   */\n      dup4\n        /* \"#utility.yul\":2958:2975   */\n      add\n        /* \"#utility.yul\":2949:2955   */\n      dup5\n        /* \"#utility.yul\":2905:2976   */\n      tag_57\n      jump\t// in\n    tag_109:\n        /* \"#utility.yul\":2761:2983   */\n      swap3\n      swap2\n      pop\n      pop\n      jump\t// out\n        /* \"#utility.yul\":2989:3088   */\n    tag_58:\n        /* \"#utility.yul\":3041:3047   */\n      0x00\n        /* \"#utility.yul\":3075:3080   */\n      dup2\n        /* \"#utility.yul\":3069:3081   */\n      mload\n        /* \"#utility.yul\":3059:3081   */\n      swap1\n      pop\n        /* \"#utility.yul\":2989:3088   */\n      swap2\n      swap1\n      pop\n      jump\t// out\n        /* \"#utility.yul\":3094:3263   */\n    tag_59:\n        /* \"#utility.yul\":3178:3189   */\n      0x00\n        /* \"#utility.yul\":3212:3218   */\n      dup3\n        /* \"#utility.yul\":3207:3210   */\n      dup3\n        /* \"#utility.yul\":3200:3219   */\n      mstore\n        /* \"#utility.yul\":3252:3256   */\n      0x20\n        /* \"#utility.yul\":3247:3250   */\n      dup3\n        /* \"#utility.yul\":3243:3257   */\n      add\n        /* \"#utility.yul\":3228:3257   */\n      swap1\n      pop\n        /* \"#utility.yul\":3094:3263   */\n      swap3\n      swap2\n      pop\n      pop\n      jump\t// out\n        /* \"#utility.yul\":3269:3576   */\n    tag_60:\n        /* \"#utility.yul\":3337:3338   */\n      0x00\n        /* \"#utility.yul\":3347:3460   */\n    tag_113:\n        /* \"#utility.yul\":3361:3367   */\n      dup4\n        /* \"#utility.yul\":3358:3359   */\n      dup2\n        /* \"#utility.yul\":3355:3368   */\n      lt\n        /* \"#utility.yul\":3347:3460   */\n      iszero\n      tag_115\n      jumpi\n        /* \"#utility.yul\":3446:3447   */\n      dup1\n        /* \"#utility.yul\":3441:3444   */\n      dup3\n        /* \"#utility.yul\":3437:3448   */\n      add\n        /* \"#utility.yul\":3431:3449   */\n      mload\n        /* \"#utility.yul\":3427:3428   */\n      dup2\n        /* \"#utility.yul\":3422:3425   */\n      dup5\n        /* \"#utility.yul\":3418:3429   */\n      add\n        /* \"#utility.yul\":3411:3450   */\n      mstore\n        /* \"#utility.yul\":3383:3385   */\n      0x20\n        /* \"#utility.yul\":3380:3381   */\n      dup2\n        /* \"#utility.yul\":3376:3386   */\n      add\n        /* \"#utility.yul\":3371:3386   */\n      swap1\n      pop\n        /* \"#utility.yul\":3347:3460   */\n      jump(tag_113)\n    tag_115:\n        /* \"#utility.yul\":3478:3484   */\n      dup4\n        /* \"#utility.yul\":3475:3476   */\n      dup2\n        /* \"#utility.yul\":3472:3485   */\n      gt\n        /* \"#utility.yul\":3469:3570   */\n      iszero\n      tag_116\n      jumpi\n        /* \"#utility.yul\":3558:3559   */\n      0x00\n        /* \"#utility.yul\":3549:3555   */\n      dup5\n        /* \"#utility.yul\":3544:3547   */\n      dup5\n        /* \"#utility.yul\":3540:3556   */\n      add\n        /* \"#utility.yul\":3533:3560   */\n      mstore\n        /* \"#utility.yul\":3469:3570   */\n    tag_116:\n        /* \"#utility.yul\":3318:3576   */\n      pop\n        /* \"#utility.yul\":3269:3576   */\n      pop\n      pop\n      pop\n      jump\t// out\n        /* \"#utility.yul\":3582:3684   */\n    tag_61:\n        /* \"#utility.yul\":3623:3629   */\n      0x00\n        /* \"#utility.yul\":3674:3676   */\n      0x1f\n        /* \"#utility.yul\":3670:3677   */\n      not\n        /* \"#utility.yul\":3665:3667   */\n      0x1f\n        /* \"#utility.yul\":3658:3663   */\n      dup4\n        /* \"#utility.yul\":3654:3668   */\n      add\n        /* \"#utility.yul\":3650:3678   */\n      and\n        /* \"#utility.yul\":3640:3678   */\n      swap1\n      pop\n        /* \"#utility.yul\":3582:3684   */\n      swap2\n      swap1\n      pop\n      jump\t// out\n        /* \"#utility.yul\":3690:4054   */\n    tag_62:\n        /* \"#utility.yul\":3778:3781   */\n      0x00\n        /* \"#utility.yul\":3806:3845   */\n      tag_119\n        /* \"#utility.yul\":3839:3844   */\n      dup3\n        /* \"#utility.yul\":3806:3845   */\n      tag_58\n      jump\t// in\n    tag_119:\n        /* \"#utility.yul\":3861:3932   */\n      tag_120\n        /* \"#utility.yul\":3925:3931   */\n      dup2\n        /* \"#utility.yul\":3920:3923   */\n      dup6\n        /* \"#utility.yul\":3861:3932   */\n      tag_59\n      jump\t// in\n    tag_120:\n        /* \"#utility.yul\":3854:3932   */\n      swap4\n      pop\n        /* \"#utility.yul\":3941:3993   */\n      tag_121\n        /* \"#utility.yul\":3986:3992   */\n      dup2\n        /* \"#utility.yul\":3981:3984   */\n      dup6\n        /* \"#utility.yul\":3974:3978   */\n      0x20\n        /* \"#utility.yul\":3967:3972   */\n      dup7\n        /* \"#utility.yul\":3963:3979   */\n      add\n        /* \"#utility.yul\":3941:3993   */\n      tag_60\n      jump\t// in\n    tag_121:\n        /* \"#utility.yul\":4018:4047   */\n      tag_122\n        /* \"#utility.yul\":4040:4046   */\n      dup2\n        /* \"#utility.yul\":4018:4047   */\n      tag_61\n      jump\t// in\n    tag_122:\n        /* \"#utility.yul\":4013:4016   */\n      dup5\n        /* \"#utility.yul\":4009:4048   */\n      add\n        /* \"#utility.yul\":4002:4048   */\n      swap2\n      pop\n        /* \"#utility.yul\":3782:4054   */\n      pop\n        /* \"#utility.yul\":3690:4054   */\n      swap3\n      swap2\n      pop\n      pop\n      jump\t// out\n        /* \"#utility.yul\":4060:4373   */\n    tag_25:\n        /* \"#utility.yul\":4173:4177   */\n      0x00\n        /* \"#utility.yul\":4211:4213   */\n      0x20\n        /* \"#utility.yul\":4200:4209   */\n      dup3\n        /* \"#utility.yul\":4196:4214   */\n      add\n        /* \"#utility.yul\":4188:4214   */\n      swap1\n      pop\n        /* \"#utility.yul\":4260:4269   */\n      dup2\n        /* \"#utility.yul\":4254:4258   */\n      dup2\n        /* \"#utility.yul\":4250:4270   */\n      sub\n        /* \"#utility.yul\":4246:4247   */\n      0x00\n        /* \"#utility.yul\":4235:4244   */\n      dup4\n        /* \"#utility.yul\":4231:4248   */\n      add\n        /* \"#utility.yul\":4224:4271   */\n      mstore\n        /* \"#utility.yul\":4288:4366   */\n      tag_124\n        /* \"#utility.yul\":4361:4365   */\n      dup2\n        /* \"#utility.yul\":4352:4358   */\n      dup5\n        /* \"#utility.yul\":4288:4366   */\n      tag_62\n      jump\t// in\n    tag_124:\n        /* \"#utility.yul\":4280:4366   */\n      swap1\n      pop\n        /* \"#utility.yul\":4060:4373   */\n      swap3\n      swap2\n      pop\n      pop\n      jump\t// out\n        /* \"#utility.yul\":4379:4497   */\n    tag_63:\n        /* \"#utility.yul\":4466:4490   */\n      tag_126\n        /* \"#utility.yul\":4484:4489   */\n      dup2\n        /* \"#utility.yul\":4466:4490   */\n      tag_54\n      jump\t// in\n    tag_126:\n        /* \"#utility.yul\":4461:4464   */\n      dup3\n        /* \"#utility.yul\":4454:4491   */\n      mstore\n        /* \"#utility.yul\":4379:4497   */\n      pop\n      pop\n      jump\t// out\n        /* \"#utility.yul\":4503:4835   */\n    tag_28:\n        /* \"#utility.yul\":4624:4628   */\n      0x00\n        /* \"#utility.yul\":4662:4664   */\n      0x40\n        /* \"#utility.yul\":4651:4660   */\n      dup3\n        /* \"#utility.yul\":4647:4665   */\n      add\n        /* \"#utility.yul\":4639:4665   */\n      swap1\n      pop\n        /* \"#utility.yul\":4675:4746   */\n      tag_128\n        /* \"#utility.yul\":4743:4744   */\n      0x00\n        /* \"#utility.yul\":4732:4741   */\n      dup4\n        /* \"#utility.yul\":4728:4745   */\n      add\n        /* \"#utility.yul\":4719:4725   */\n      dup6\n        /* \"#utility.yul\":4675:4746   */\n      tag_57\n      jump\t// in\n    tag_128:\n        /* \"#utility.yul\":4756:4828   */\n      tag_129\n        /* \"#utility.yul\":4824:4826   */\n      0x20\n        /* \"#utility.yul\":4813:4822   */\n      dup4\n        /* \"#utility.yul\":4809:4827   */\n      add\n        /* \"#utility.yul\":4800:4806   */\n      dup5\n        /* \"#utility.yul\":4756:4828   */\n      tag_63\n      jump\t// in\n    tag_129:\n        /* \"#utility.yul\":4503:4835   */\n      swap4\n      swap3\n      pop\n      pop\n      pop\n      jump\t// out\n        /* \"#utility.yul\":4841:4984   */\n    tag_64:\n        /* \"#utility.yul\":4898:4903   */\n      0x00\n        /* \"#utility.yul\":4929:4935   */\n      dup2\n        /* \"#utility.yul\":4923:4936   */\n      mload\n        /* \"#utility.yul\":4914:4936   */\n      swap1\n      pop\n        /* \"#utility.yul\":4945:4978   */\n      tag_131\n        /* \"#utility.yul\":4972:4977   */\n      dup2\n        /* \"#utility.yul\":4945:4978   */\n      tag_51\n      jump\t// in\n    tag_131:\n        /* \"#utility.yul\":4841:4984   */\n      swap3\n      swap2\n      pop\n      pop\n      jump\t// out\n        /* \"#utility.yul\":4990:5341   */\n    tag_41:\n        /* \"#utility.yul\":5060:5066   */\n      0x00\n        /* \"#utility.yul\":5109:5111   */\n      0x20\n        /* \"#utility.yul\":5097:5106   */\n      dup3\n        /* \"#utility.yul\":5088:5095   */\n      dup5\n        /* \"#utility.yul\":5084:5107   */\n      sub\n        /* \"#utility.yul\":5080:5112   */\n      slt\n        /* \"#utility.yul\":5077:5196   */\n      iszero\n      tag_133\n      jumpi\n        /* \"#utility.yul\":5115:5194   */\n      tag_134\n      tag_48\n      jump\t// in\n    tag_134:\n        /* \"#utility.yul\":5077:5196   */\n    tag_133:\n        /* \"#utility.yul\":5235:5236   */\n      0x00\n        /* \"#utility.yul\":5260:5324   */\n      tag_135\n        /* \"#utility.yul\":5316:5323   */\n      dup5\n        /* \"#utility.yul\":5307:5313   */\n      dup3\n        /* \"#utility.yul\":5296:5305   */\n      dup6\n        /* \"#utility.yul\":5292:5314   */\n      add\n        /* \"#utility.yul\":5260:5324   */\n      tag_64\n      jump\t// in\n    tag_135:\n        /* \"#utility.yul\":5250:5324   */\n      swap2\n      pop\n        /* \"#utility.yul\":5206:5334   */\n      pop\n        /* \"#utility.yul\":4990:5341   */\n      swap3\n      swap2\n      pop\n      pop\n      jump\t// out\n        /* \"#utility.yul\":5347:5464   */\n    tag_65:\n        /* \"#utility.yul\":5456:5457   */\n      0x00\n        /* \"#utility.yul\":5453:5454   */\n      dup1\n        /* \"#utility.yul\":5446:5458   */\n      revert\n        /* \"#utility.yul\":5470:5587   */\n    tag_66:\n        /* \"#utility.yul\":5579:5580   */\n      0x00\n        /* \"#utility.yul\":5576:5577   */\n      dup1\n        /* \"#utility.yul\":5569:5581   */\n      revert\n        /* \"#utility.yul\":5593:5773   */\n    tag_67:\n        /* \"#utility.yul\":5641:5718   */\n      0x4e487b7100000000000000000000000000000000000000000000000000000000\n        /* \"#utility.yul\":5638:5639   */\n      0x00\n        /* \"#utility.yul\":5631:5719   */\n      mstore\n        /* \"#utility.yul\":5738:5742   */\n      0x41\n        /* \"#utility.yul\":5735:5736   */\n      0x04\n        /* \"#utility.yul\":5728:5743   */\n      mstore\n        /* \"#utility.yul\":5762:5766   */\n      0x24\n        /* \"#utility.yul\":5759:5760   */\n      0x00\n        /* \"#utility.yul\":5752:5767   */\n      revert\n        /* \"#utility.yul\":5779:6060   */\n    tag_68:\n        /* \"#utility.yul\":5862:5889   */\n      tag_140\n        /* \"#utility.yul\":5884:5888   */\n      dup3\n        /* \"#utility.yul\":5862:5889   */\n      tag_61\n      jump\t// in\n    tag_140:\n        /* \"#utility.yul\":5854:5860   */\n      dup2\n        /* \"#utility.yul\":5850:5890   */\n      add\n        /* \"#utility.yul\":5992:5998   */\n      dup2\n        /* \"#utility.yul\":5980:5990   */\n      dup2\n        /* \"#utility.yul\":5977:5999   */\n      lt\n        /* \"#utility.yul\":5956:5974   */\n      0xffffffffffffffff\n        /* \"#utility.yul\":5944:5954   */\n      dup3\n        /* \"#utility.yul\":5941:5975   */\n      gt\n        /* \"#utility.yul\":5938:6000   */\n      or\n        /* \"#utility.yul\":5935:6023   */\n      iszero\n      tag_141\n      jumpi\n        /* \"#utility.yul\":6003:6021   */\n      tag_142\n      tag_67\n      jump\t// in\n    tag_142:\n        /* \"#utility.yul\":5935:6023   */\n    tag_141:\n        /* \"#utility.yul\":6043:6053   */\n      dup1\n        /* \"#utility.yul\":6039:6041   */\n      0x40\n        /* \"#utility.yul\":6032:6054   */\n      mstore\n        /* \"#utility.yul\":5822:6060   */\n      pop\n        /* \"#utility.yul\":5779:6060   */\n      pop\n      pop\n      jump\t// out\n        /* \"#utility.yul\":6066:6195   */\n    tag_69:\n        /* \"#utility.yul\":6100:6106   */\n      0x00\n        /* \"#utility.yul\":6127:6147   */\n      tag_144\n      tag_47\n      jump\t// in\n    tag_144:\n        /* \"#utility.yul\":6117:6147   */\n      swap1\n      pop\n        /* \"#utility.yul\":6156:6189   */\n      tag_145\n        /* \"#utility.yul\":6184:6188   */\n      dup3\n        /* \"#utility.yul\":6176:6182   */\n      dup3\n        /* \"#utility.yul\":6156:6189   */\n      tag_68\n      jump\t// in\n    tag_145:\n        /* \"#utility.yul\":6066:6195   */\n      swap2\n      swap1\n      pop\n      jump\t// out\n        /* \"#utility.yul\":6201:6509   */\n    tag_70:\n        /* \"#utility.yul\":6263:6267   */\n      0x00\n        /* \"#utility.yul\":6353:6371   */\n      0xffffffffffffffff\n        /* \"#utility.yul\":6345:6351   */\n      dup3\n        /* \"#utility.yul\":6342:6372   */\n      gt\n        /* \"#utility.yul\":6339:6395   */\n      iszero\n      tag_147\n      jumpi\n        /* \"#utility.yul\":6375:6393   */\n      tag_148\n      tag_67\n      jump\t// in\n    tag_148:\n        /* \"#utility.yul\":6339:6395   */\n    tag_147:\n        /* \"#utility.yul\":6413:6442   */\n      tag_149\n        /* \"#utility.yul\":6435:6441   */\n      dup3\n        /* \"#utility.yul\":6413:6442   */\n      tag_61\n      jump\t// in\n    tag_149:\n        /* \"#utility.yul\":6405:6442   */\n      swap1\n      pop\n        /* \"#utility.yul\":6497:6501   */\n      0x20\n        /* \"#utility.yul\":6491:6495   */\n      dup2\n        /* \"#utility.yul\":6487:6502   */\n      add\n        /* \"#utility.yul\":6479:6502   */\n      swap1\n      pop\n        /* \"#utility.yul\":6201:6509   */\n      swap2\n      swap1\n      pop\n      jump\t// out\n        /* \"#utility.yul\":6515:6936   */\n    tag_71:\n        /* \"#utility.yul\":6604:6609   */\n      0x00\n        /* \"#utility.yul\":6629:6695   */\n      tag_151\n        /* \"#utility.yul\":6645:6694   */\n      tag_152\n        /* \"#utility.yul\":6687:6693   */\n      dup5\n        /* \"#utility.yul\":6645:6694   */\n      tag_70\n      jump\t// in\n    tag_152:\n        /* \"#utility.yul\":6629:6695   */\n      tag_69\n      jump\t// in\n    tag_151:\n        /* \"#utility.yul\":6620:6695   */\n      swap1\n      pop\n        /* \"#utility.yul\":6718:6724   */\n      dup3\n        /* \"#utility.yul\":6711:6716   */\n      dup2\n        /* \"#utility.yul\":6704:6725   */\n      mstore\n        /* \"#utility.yul\":6756:6760   */\n      0x20\n        /* \"#utility.yul\":6749:6754   */\n      dup2\n        /* \"#utility.yul\":6745:6761   */\n      add\n        /* \"#utility.yul\":6794:6797   */\n      dup5\n        /* \"#utility.yul\":6785:6791   */\n      dup5\n        /* \"#utility.yul\":6780:6783   */\n      dup5\n        /* \"#utility.yul\":6776:6792   */\n      add\n        /* \"#utility.yul\":6773:6798   */\n      gt\n        /* \"#utility.yul\":6770:6882   */\n      iszero\n      tag_153\n      jumpi\n        /* \"#utility.yul\":6801:6880   */\n      tag_154\n      tag_66\n      jump\t// in\n    tag_154:\n        /* \"#utility.yul\":6770:6882   */\n    tag_153:\n        /* \"#utility.yul\":6891:6930   */\n      tag_155\n        /* \"#utility.yul\":6923:6929   */\n      dup5\n        /* \"#utility.yul\":6918:6921   */\n      dup3\n        /* \"#utility.yul\":6913:6916   */\n      dup6\n        /* \"#utility.yul\":6891:6930   */\n      tag_60\n      jump\t// in\n    tag_155:\n        /* \"#utility.yul\":6610:6936   */\n      pop\n        /* \"#utility.yul\":6515:6936   */\n      swap4\n      swap3\n      pop\n      pop\n      pop\n      jump\t// out\n        /* \"#utility.yul\":6956:7311   */\n    tag_72:\n        /* \"#utility.yul\":7023:7028   */\n      0x00\n        /* \"#utility.yul\":7072:7075   */\n      dup3\n        /* \"#utility.yul\":7065:7069   */\n      0x1f\n        /* \"#utility.yul\":7057:7063   */\n      dup4\n        /* \"#utility.yul\":7053:7070   */\n      add\n        /* \"#utility.yul\":7049:7076   */\n      slt\n        /* \"#utility.yul\":7039:7161   */\n      tag_157\n      jumpi\n        /* \"#utility.yul\":7080:7159   */\n      tag_158\n      tag_65\n      jump\t// in\n    tag_158:\n        /* \"#utility.yul\":7039:7161   */\n    tag_157:\n        /* \"#utility.yul\":7190:7196   */\n      dup2\n        /* \"#utility.yul\":7184:7197   */\n      mload\n        /* \"#utility.yul\":7215:7305   */\n      tag_159\n        /* \"#utility.yul\":7301:7304   */\n      dup5\n        /* \"#utility.yul\":7293:7299   */\n      dup3\n        /* \"#utility.yul\":7286:7290   */\n      0x20\n        /* \"#utility.yul\":7278:7284   */\n      dup7\n        /* \"#utility.yul\":7274:7291   */\n      add\n        /* \"#utility.yul\":7215:7305   */\n      tag_71\n      jump\t// in\n    tag_159:\n        /* \"#utility.yul\":7206:7305   */\n      swap2\n      pop\n        /* \"#utility.yul\":7029:7311   */\n      pop\n        /* \"#utility.yul\":6956:7311   */\n      swap3\n      swap2\n      pop\n      pop\n      jump\t// out\n        /* \"#utility.yul\":7317:7841   */\n    tag_46:\n        /* \"#utility.yul\":7397:7403   */\n      0x00\n        /* \"#utility.yul\":7446:7448   */\n      0x20\n        /* \"#utility.yul\":7434:7443   */\n      dup3\n        /* \"#utility.yul\":7425:7432   */\n      dup5\n        /* \"#utility.yul\":7421:7444   */\n      sub\n        /* \"#utility.yul\":7417:7449   */\n      slt\n        /* \"#utility.yul\":7414:7533   */\n      iszero\n      tag_161\n      jumpi\n        /* \"#utility.yul\":7452:7531   */\n      tag_162\n      tag_48\n      jump\t// in\n    tag_162:\n        /* \"#utility.yul\":7414:7533   */\n    tag_161:\n        /* \"#utility.yul\":7593:7594   */\n      0x00\n        /* \"#utility.yul\":7582:7591   */\n      dup3\n        /* \"#utility.yul\":7578:7595   */\n      add\n        /* \"#utility.yul\":7572:7596   */\n      mload\n        /* \"#utility.yul\":7623:7641   */\n      0xffffffffffffffff\n        /* \"#utility.yul\":7615:7621   */\n      dup2\n        /* \"#utility.yul\":7612:7642   */\n      gt\n        /* \"#utility.yul\":7609:7726   */\n      iszero\n      tag_163\n      jumpi\n        /* \"#utility.yul\":7645:7724   */\n      tag_164\n      tag_49\n      jump\t// in\n    tag_164:\n        /* \"#utility.yul\":7609:7726   */\n    tag_163:\n        /* \"#utility.yul\":7750:7824   */\n      tag_165\n        /* \"#utility.yul\":7816:7823   */\n      dup5\n        /* \"#utility.yul\":7807:7813   */\n      dup3\n        /* \"#utility.yul\":7796:7805   */\n      dup6\n        /* \"#utility.yul\":7792:7814   */\n      add\n        /* \"#utility.yul\":7750:7824   */\n      tag_72\n      jump\t// in\n    tag_165:\n        /* \"#utility.yul\":7740:7824   */\n      swap2\n      pop\n        /* \"#utility.yul\":7543:7834   */\n      pop\n        /* \"#utility.yul\":7317:7841   */\n      swap3\n      swap2\n      pop\n      pop\n      jump\t// out\n\n    auxdata: 0xa2646970667358221220561c34cbfee6e50fe4db27419397dad0a782a886521de6074dc0e264009ec3d764736f6c634300080d0033\n}\n",
				"bytecode": {
					"linkReferences": {},
					"object": "608060405234801561001057600080fd5b5061072b806100206000396000f3fe608060405234801561001057600080fd5b506004361061004c5760003560e01c806365ad862d14610051578063919905851461006d578063942ea46614610089578063f7799230146100b9575b600080fd5b61006b60048036038101906100669190610367565b6100e9565b005b610087600480360381019061008291906103ba565b61015b565b005b6100a3600480360381019061009e91906103fa565b6101ca565b6040516100b09190610436565b60405180910390f35b6100d360048036038101906100ce91906103fa565b610242565b6040516100e091906104ea565b60405180910390f35b8173ffffffffffffffffffffffffffffffffffffffff16631c3a6ba384836040518363ffffffff1660e01b815260040161012492919061051b565b600060405180830381600087803b15801561013e57600080fd5b505af1158015610152573d6000803e3d6000fd5b50505050505050565b8073ffffffffffffffffffffffffffffffffffffffff16633fb5c1cb836040518263ffffffff1660e01b81526004016101949190610436565b600060405180830381600087803b1580156101ae57600080fd5b505af11580156101c2573d6000803e3d6000fd5b505050505050565b60008173ffffffffffffffffffffffffffffffffffffffff1663f2c9ecd86040518163ffffffff1660e01b8152600401602060405180830381865afa158015610217573d6000803e3d6000fd5b505050506040513d601f19601f8201168201806040525081019061023b9190610559565b9050919050565b60608173ffffffffffffffffffffffffffffffffffffffff1663fb1335a46040518163ffffffff1660e01b8152600401600060405180830381865afa15801561028f573d6000803e3d6000fd5b505050506040513d6000823e3d601f19601f820116820180604052508101906102b891906106ac565b9050919050565b6000604051905090565b600080fd5b600080fd5b6000819050919050565b6102e6816102d3565b81146102f157600080fd5b50565b600081359050610303816102dd565b92915050565b600073ffffffffffffffffffffffffffffffffffffffff82169050919050565b600061033482610309565b9050919050565b61034481610329565b811461034f57600080fd5b50565b6000813590506103618161033b565b92915050565b6000806000606084860312156103805761037f6102c9565b5b600061038e868287016102f4565b935050602061039f86828701610352565b92505060406103b086828701610352565b9150509250925092565b600080604083850312156103d1576103d06102c9565b5b60006103df858286016102f4565b92505060206103f085828601610352565b9150509250929050565b6000602082840312156104105761040f6102c9565b5b600061041e84828501610352565b91505092915050565b610430816102d3565b82525050565b600060208201905061044b6000830184610427565b92915050565b600081519050919050565b600082825260208201905092915050565b60005b8381101561048b578082015181840152602081019050610470565b8381111561049a576000848401525b50505050565b6000601f19601f8301169050919050565b60006104bc82610451565b6104c6818561045c565b93506104d681856020860161046d565b6104df816104a0565b840191505092915050565b6000602082019050818103600083015261050481846104b1565b905092915050565b61051581610329565b82525050565b60006040820190506105306000830185610427565b61053d602083018461050c565b9392505050565b600081519050610553816102dd565b92915050565b60006020828403121561056f5761056e6102c9565b5b600061057d84828501610544565b91505092915050565b600080fd5b600080fd5b7f4e487b7100000000000000000000000000000000000000000000000000000000600052604160045260246000fd5b6105c8826104a0565b810181811067ffffffffffffffff821117156105e7576105e6610590565b5b80604052505050565b60006105fa6102bf565b905061060682826105bf565b919050565b600067ffffffffffffffff82111561062657610625610590565b5b61062f826104a0565b9050602081019050919050565b600061064f61064a8461060b565b6105f0565b90508281526020810184848401111561066b5761066a61058b565b5b61067684828561046d565b509392505050565b600082601f83011261069357610692610586565b5b81516106a384826020860161063c565b91505092915050565b6000602082840312156106c2576106c16102c9565b5b600082015167ffffffffffffffff8111156106e0576106df6102ce565b5b6106ec8482850161067e565b9150509291505056fea2646970667358221220561c34cbfee6e50fe4db27419397dad0a782a886521de6074dc0e264009ec3d764736f6c634300080d0033",
					"opcodes": "PUSH1 0x80 PUSH1 0x40 MSTORE CALLVALUE DUP1 ISZERO PUSH2 0x10 JUMPI PUSH1 0x0 DUP1 REVERT JUMPDEST POP PUSH2 0x72B DUP1 PUSH2 0x20 PUSH1 0x0 CODECOPY PUSH1 0x0 RETURN INVALID PUSH1 0x80 PUSH1 0x40 MSTORE CALLVALUE DUP1 ISZERO PUSH2 0x10 JUMPI PUSH1 0x0 DUP1 REVERT JUMPDEST POP PUSH1 0x4 CALLDATASIZE LT PUSH2 0x4C JUMPI PUSH1 0x0 CALLDATALOAD PUSH1 0xE0 SHR DUP1 PUSH4 0x65AD862D EQ PUSH2 0x51 JUMPI DUP1 PUSH4 0x91990585 EQ PUSH2 0x6D JUMPI DUP1 PUSH4 0x942EA466 EQ PUSH2 0x89 JUMPI DUP1 PUSH4 0xF7799230 EQ PUSH2 0xB9 JUMPI JUMPDEST PUSH1 0x0 DUP1 REVERT JUMPDEST PUSH2 0x6B PUSH1 0x4 DUP1 CALLDATASIZE SUB DUP2 ADD SWAP1 PUSH2 0x66 SWAP2 SWAP1 PUSH2 0x367 JUMP JUMPDEST PUSH2 0xE9 JUMP JUMPDEST STOP JUMPDEST PUSH2 0x87 PUSH1 0x4 DUP1 CALLDATASIZE SUB DUP2 ADD SWAP1 PUSH2 0x82 SWAP2 SWAP1 PUSH2 0x3BA JUMP JUMPDEST PUSH2 0x15B JUMP JUMPDEST STOP JUMPDEST PUSH2 0xA3 PUSH1 0x4 DUP1 CALLDATASIZE SUB DUP2 ADD SWAP1 PUSH2 0x9E SWAP2 SWAP1 PUSH2 0x3FA JUMP JUMPDEST PUSH2 0x1CA JUMP JUMPDEST PUSH1 0x40 MLOAD PUSH2 0xB0 SWAP2 SWAP1 PUSH2 0x436 JUMP JUMPDEST PUSH1 0x40 MLOAD DUP1 SWAP2 SUB SWAP1 RETURN JUMPDEST PUSH2 0xD3 PUSH1 0x4 DUP1 CALLDATASIZE SUB DUP2 ADD SWAP1 PUSH2 0xCE SWAP2 SWAP1 PUSH2 0x3FA JUMP JUMPDEST PUSH2 0x242 JUMP JUMPDEST PUSH1 0x40 MLOAD PUSH2 0xE0 SWAP2 SWAP1 PUSH2 0x4EA JUMP JUMPDEST PUSH1 0x40 MLOAD DUP1 SWAP2 SUB SWAP1 RETURN JUMPDEST DUP2 PUSH20 0xFFFFFFFFFFFFFFFFFFFFFFFFFFFFFFFFFFFFFFFF AND PUSH4 0x1C3A6BA3 DUP5 DUP4 PUSH1 0x40 MLOAD DUP4 PUSH4 0xFFFFFFFF AND PUSH1 0xE0 SHL DUP2 MSTORE PUSH1 0x4 ADD PUSH2 0x124 SWAP3 SWAP2 SWAP1 PUSH2 0x51B JUMP JUMPDEST PUSH1 0x0 PUSH1 0x40 MLOAD DUP1 DUP4 SUB DUP2 PUSH1 0x0 DUP8 DUP1 EXTCODESIZE ISZERO DUP1 ISZERO PUSH2 0x13E JUMPI PUSH1 0x0 DUP1 REVERT JUMPDEST POP GAS CALL ISZERO DUP1 ISZERO PUSH2 0x152 JUMPI RETURNDATASIZE PUSH1 0x0 DUP1 RETURNDATACOPY RETURNDATASIZE PUSH1 0x0 REVERT JUMPDEST POP POP POP POP POP POP POP JUMP JUMPDEST DUP1 PUSH20 0xFFFFFFFFFFFFFFFFFFFFFFFFFFFFFFFFFFFFFFFF AND PUSH4 0x3FB5C1CB DUP4 PUSH1 0x40 MLOAD DUP3 PUSH4 0xFFFFFFFF AND PUSH1 0xE0 SHL DUP2 MSTORE PUSH1 0x4 ADD PUSH2 0x194 SWAP2 SWAP1 PUSH2 0x436 JUMP JUMPDEST PUSH1 0x0 PUSH1 0x40 MLOAD DUP1 DUP4 SUB DUP2 PUSH1 0x0 DUP8 DUP1 EXTCODESIZE ISZERO DUP1 ISZERO PUSH2 0x1AE JUMPI PUSH1 0x0 DUP1 REVERT JUMPDEST POP GAS CALL ISZERO DUP1 ISZERO PUSH2 0x1C2 JUMPI RETURNDATASIZE PUSH1 0x0 DUP1 RETURNDATACOPY RETURNDATASIZE PUSH1 0x0 REVERT JUMPDEST POP POP POP POP POP POP JUMP JUMPDEST PUSH1 0x0 DUP2 PUSH20 0xFFFFFFFFFFFFFFFFFFFFFFFFFFFFFFFFFFFFFFFF AND PUSH4 0xF2C9ECD8 PUSH1 0x40 MLOAD DUP2 PUSH4 0xFFFFFFFF AND PUSH1 0xE0 SHL DUP2 MSTORE PUSH1 0x4 ADD PUSH1 0x20 PUSH1 0x40 MLOAD DUP1 DUP4 SUB DUP2 DUP7 GAS STATICCALL ISZERO DUP1 ISZERO PUSH2 0x217 JUMPI RETURNDATASIZE PUSH1 0x0 DUP1 RETURNDATACOPY RETURNDATASIZE PUSH1 0x0 REVERT JUMPDEST POP POP POP POP PUSH1 0x40 MLOAD RETURNDATASIZE PUSH1 0x1F NOT PUSH1 0x1F DUP3 ADD AND DUP3 ADD DUP1 PUSH1 0x40 MSTORE POP DUP2 ADD SWAP1 PUSH2 0x23B SWAP2 SWAP1 PUSH2 0x559 JUMP JUMPDEST SWAP1 POP SWAP2 SWAP1 POP JUMP JUMPDEST PUSH1 0x60 DUP2 PUSH20 0xFFFFFFFFFFFFFFFFFFFFFFFFFFFFFFFFFFFFFFFF AND PUSH4 0xFB1335A4 PUSH1 0x40 MLOAD DUP2 PUSH4 0xFFFFFFFF AND PUSH1 0xE0 SHL DUP2 MSTORE PUSH1 0x4 ADD PUSH1 0x0 PUSH1 0x40 MLOAD DUP1 DUP4 SUB DUP2 DUP7 GAS STATICCALL ISZERO DUP1 ISZERO PUSH2 0x28F JUMPI RETURNDATASIZE PUSH1 0x0 DUP1 RETURNDATACOPY RETURNDATASIZE PUSH1 0x0 REVERT JUMPDEST POP POP POP POP PUSH1 0x40 MLOAD RETURNDATASIZE PUSH1 0x0 DUP3 RETURNDATACOPY RETURNDATASIZE PUSH1 0x1F NOT PUSH1 0x1F DUP3 ADD AND DUP3 ADD DUP1 PUSH1 0x40 MSTORE POP DUP2 ADD SWAP1 PUSH2 0x2B8 SWAP2 SWAP1 PUSH2 0x6AC JUMP JUMPDEST SWAP1 POP SWAP2 SWAP1 POP JUMP JUMPDEST PUSH1 0x0 PUSH1 0x40 MLOAD SWAP1 POP SWAP1 JUMP JUMPDEST PUSH1 0x0 DUP1 REVERT JUMPDEST PUSH1 0x0 DUP1 REVERT JUMPDEST PUSH1 0x0 DUP2 SWAP1 POP SWAP2 SWAP1 POP JUMP JUMPDEST PUSH2 0x2E6 DUP2 PUSH2 0x2D3 JUMP JUMPDEST DUP2 EQ PUSH2 0x2F1 JUMPI PUSH1 0x0 DUP1 REVERT JUMPDEST POP JUMP JUMPDEST PUSH1 0x0 DUP2 CALLDATALOAD SWAP1 POP PUSH2 0x303 DUP2 PUSH2 0x2DD JUMP JUMPDEST SWAP3 SWAP2 POP POP JUMP JUMPDEST PUSH1 0x0 PUSH20 0xFFFFFFFFFFFFFFFFFFFFFFFFFFFFFFFFFFFFFFFF DUP3 AND SWAP1 POP SWAP2 SWAP1 POP JUMP JUMPDEST PUSH1 0x0 PUSH2 0x334 DUP3 PUSH2 0x309 JUMP JUMPDEST SWAP1 POP SWAP2 SWAP1 POP JUMP JUMPDEST PUSH2 0x344 DUP2 PUSH2 0x329 JUMP JUMPDEST DUP2 EQ PUSH2 0x34F JUMPI PUSH1 0x0 DUP1 REVERT JUMPDEST POP JUMP JUMPDEST PUSH1 0x0 DUP2 CALLDATALOAD SWAP1 POP PUSH2 0x361 DUP2 PUSH2 0x33B JUMP JUMPDEST SWAP3 SWAP2 POP POP JUMP JUMPDEST PUSH1 0x0 DUP1 PUSH1 0x0 PUSH1 0x60 DUP5 DUP7 SUB SLT ISZERO PUSH2 0x380 JUMPI PUSH2 0x37F PUSH2 0x2C9 JUMP JUMPDEST JUMPDEST PUSH1 0x0 PUSH2 0x38E DUP7 DUP3 DUP8 ADD PUSH2 0x2F4 JUMP JUMPDEST SWAP4 POP POP PUSH1 0x20 PUSH2 0x39F DUP7 DUP3 DUP8 ADD PUSH2 0x352 JUMP JUMPDEST SWAP3 POP POP PUSH1 0x40 PUSH2 0x3B0 DUP7 DUP3 DUP8 ADD PUSH2 0x352 JUMP JUMPDEST SWAP2 POP POP SWAP3 POP SWAP3 POP SWAP3 JUMP JUMPDEST PUSH1 0x0 DUP1 PUSH1 0x40 DUP4 DUP6 SUB SLT ISZERO PUSH2 0x3D1 JUMPI PUSH2 0x3D0 PUSH2 0x2C9 JUMP JUMPDEST JUMPDEST PUSH1 0x0 PUSH2 0x3DF DUP6 DUP3 DUP7 ADD PUSH2 0x2F4 JUMP JUMPDEST SWAP3 POP POP PUSH1 0x20 PUSH2 0x3F0 DUP6 DUP3 DUP7 ADD PUSH2 0x352 JUMP JUMPDEST SWAP2 POP POP SWAP3 POP SWAP3 SWAP1 POP JUMP JUMPDEST PUSH1 0x0 PUSH1 0x20 DUP3 DUP5 SUB SLT ISZERO PUSH2 0x410 JUMPI PUSH2 0x40F PUSH2 0x2C9 JUMP JUMPDEST JUMPDEST PUSH1 0x0 PUSH2 0x41E DUP5 DUP3 DUP6 ADD PUSH2 0x352 JUMP JUMPDEST SWAP2 POP POP SWAP3 SWAP2 POP POP JUMP JUMPDEST PUSH2 0x430 DUP2 PUSH2 0x2D3 JUMP JUMPDEST DUP3 MSTORE POP POP JUMP JUMPDEST PUSH1 0x0 PUSH1 0x20 DUP3 ADD SWAP1 POP PUSH2 0x44B PUSH1 0x0 DUP4 ADD DUP5 PUSH2 0x427 JUMP JUMPDEST SWAP3 SWAP2 POP POP JUMP JUMPDEST PUSH1 0x0 DUP2 MLOAD SWAP1 POP SWAP2 SWAP1 POP JUMP JUMPDEST PUSH1 0x0 DUP3 DUP3 MSTORE PUSH1 0x20 DUP3 ADD SWAP1 POP SWAP3 SWAP2 POP POP JUMP JUMPDEST PUSH1 0x0 JUMPDEST DUP4 DUP2 LT ISZERO PUSH2 0x48B JUMPI DUP1 DUP3 ADD MLOAD DUP2 DUP5 ADD MSTORE PUSH1 0x20 DUP2 ADD SWAP1 POP PUSH2 0x470 JUMP JUMPDEST DUP4 DUP2 GT ISZERO PUSH2 0x49A JUMPI PUSH1 0x0 DUP5 DUP5 ADD MSTORE JUMPDEST POP POP POP POP JUMP JUMPDEST PUSH1 0x0 PUSH1 0x1F NOT PUSH1 0x1F DUP4 ADD AND SWAP1 POP SWAP2 SWAP1 POP JUMP JUMPDEST PUSH1 0x0 PUSH2 0x4BC DUP3 PUSH2 0x451 JUMP JUMPDEST PUSH2 0x4C6 DUP2 DUP6 PUSH2 0x45C JUMP JUMPDEST SWAP4 POP PUSH2 0x4D6 DUP2 DUP6 PUSH1 0x20 DUP7 ADD PUSH2 0x46D JUMP JUMPDEST PUSH2 0x4DF DUP2 PUSH2 0x4A0 JUMP JUMPDEST DUP5 ADD SWAP2 POP POP SWAP3 SWAP2 POP POP JUMP JUMPDEST PUSH1 0x0 PUSH1 0x20 DUP3 ADD SWAP1 POP DUP2 DUP2 SUB PUSH1 0x0 DUP4 ADD MSTORE PUSH2 0x504 DUP2 DUP5 PUSH2 0x4B1 JUMP JUMPDEST SWAP1 POP SWAP3 SWAP2 POP POP JUMP JUMPDEST PUSH2 0x515 DUP2 PUSH2 0x329 JUMP JUMPDEST DUP3 MSTORE POP POP JUMP JUMPDEST PUSH1 0x0 PUSH1 0x40 DUP3 ADD SWAP1 POP PUSH2 0x530 PUSH1 0x0 DUP4 ADD DUP6 PUSH2 0x427 JUMP JUMPDEST PUSH2 0x53D PUSH1 0x20 DUP4 ADD DUP5 PUSH2 0x50C JUMP JUMPDEST SWAP4 SWAP3 POP POP POP JUMP JUMPDEST PUSH1 0x0 DUP2 MLOAD SWAP1 POP PUSH2 0x553 DUP2 PUSH2 0x2DD JUMP JUMPDEST SWAP3 SWAP2 POP POP JUMP JUMPDEST PUSH1 0x0 PUSH1 0x20 DUP3 DUP5 SUB SLT ISZERO PUSH2 0x56F JUMPI PUSH2 0x56E PUSH2 0x2C9 JUMP JUMPDEST JUMPDEST PUSH1 0x0 PUSH2 0x57D DUP5 DUP3 DUP6 ADD PUSH2 0x544 JUMP JUMPDEST SWAP2 POP POP SWAP3 SWAP2 POP POP JUMP JUMPDEST PUSH1 0x0 DUP1 REVERT JUMPDEST PUSH1 0x0 DUP1 REVERT JUMPDEST PUSH32 0x4E487B7100000000000000000000000000000000000000000000000000000000 PUSH1 0x0 MSTORE PUSH1 0x41 PUSH1 0x4 MSTORE PUSH1 0x24 PUSH1 0x0 REVERT JUMPDEST PUSH2 0x5C8 DUP3 PUSH2 0x4A0 JUMP JUMPDEST DUP2 ADD DUP2 DUP2 LT PUSH8 0xFFFFFFFFFFFFFFFF DUP3 GT OR ISZERO PUSH2 0x5E7 JUMPI PUSH2 0x5E6 PUSH2 0x590 JUMP JUMPDEST JUMPDEST DUP1 PUSH1 0x40 MSTORE POP POP POP JUMP JUMPDEST PUSH1 0x0 PUSH2 0x5FA PUSH2 0x2BF JUMP JUMPDEST SWAP1 POP PUSH2 0x606 DUP3 DUP3 PUSH2 0x5BF JUMP JUMPDEST SWAP2 SWAP1 POP JUMP JUMPDEST PUSH1 0x0 PUSH8 0xFFFFFFFFFFFFFFFF DUP3 GT ISZERO PUSH2 0x626 JUMPI PUSH2 0x625 PUSH2 0x590 JUMP JUMPDEST JUMPDEST PUSH2 0x62F DUP3 PUSH2 0x4A0 JUMP JUMPDEST SWAP1 POP PUSH1 0x20 DUP2 ADD SWAP1 POP SWAP2 SWAP1 POP JUMP JUMPDEST PUSH1 0x0 PUSH2 0x64F PUSH2 0x64A DUP5 PUSH2 0x60B JUMP JUMPDEST PUSH2 0x5F0 JUMP JUMPDEST SWAP1 POP DUP3 DUP2 MSTORE PUSH1 0x20 DUP2 ADD DUP5 DUP5 DUP5 ADD GT ISZERO PUSH2 0x66B JUMPI PUSH2 0x66A PUSH2 0x58B JUMP JUMPDEST JUMPDEST PUSH2 0x676 DUP5 DUP3 DUP6 PUSH2 0x46D JUMP JUMPDEST POP SWAP4 SWAP3 POP POP POP JUMP JUMPDEST PUSH1 0x0 DUP3 PUSH1 0x1F DUP4 ADD SLT PUSH2 0x693 JUMPI PUSH2 0x692 PUSH2 0x586 JUMP JUMPDEST JUMPDEST DUP2 MLOAD PUSH2 0x6A3 DUP5 DUP3 PUSH1 0x20 DUP7 ADD PUSH2 0x63C JUMP JUMPDEST SWAP2 POP POP SWAP3 SWAP2 POP POP JUMP JUMPDEST PUSH1 0x0 PUSH1 0x20 DUP3 DUP5 SUB SLT ISZERO PUSH2 0x6C2 JUMPI PUSH2 0x6C1 PUSH2 0x2C9 JUMP JUMPDEST JUMPDEST PUSH1 0x0 DUP3 ADD MLOAD PUSH8 0xFFFFFFFFFFFFFFFF DUP2 GT ISZERO PUSH2 0x6E0 JUMPI PUSH2 0x6DF PUSH2 0x2CE JUMP JUMPDEST JUMPDEST PUSH2 0x6EC DUP5 DUP3 DUP6 ADD PUSH2 0x67E JUMP JUMPDEST SWAP2 POP POP SWAP3 SWAP2 POP POP JUMP INVALID LOG2 PUSH5 0x6970667358 0x22 SLT KECCAK256 JUMP SHR CALLVALUE 0xCB INVALID 0xE6 0xE5 0xF 0xE4 0xDB 0x27 COINBASE SWAP4 SWAP8 0xDA 0xD0 0xA7 DUP3 0xA8 DUP7 MSTORE SAR 0xE6 SMOD 0x4D 0xC0 0xE2 PUSH5 0x9EC3D764 PUSH20 0x6F6C634300080D00330000000000000000000000 "
				},
				"gasEstimates": {
					"creation": {
						"codeDepositCost": "367000",
						"executionCost": "405",
						"totalCost": "367405"
					},
					"external": {
						"callThingy(address)": "infinite",
						"getNumber(address)": "infinite",
						"setBNumber(uint256,address,address)": "infinite",
						"setBNumberDirect(uint256,address)": "infinite"
					}
				},
				"methodIdentifiers": {
					"callThingy(address)": "f7799230",
					"getNumber(address)": "942ea466",
					"setBNumber(uint256,address,address)": "65ad862d",
					"setBNumberDirect(uint256,address)": "91990585"
				}
			},
			"storageLayout": {
				"storage": [],
				"types": null
			},
			"userdoc": {
				"kind": "user",
				"methods": {},
				"version": 1
			}
		}
	}
}