{
	"contracts/Practice/Playground.sol": {
		"Calculator": {
			"abi": [
				{
					"inputs": [],
					"name": "addInts",
					"outputs": [
						{
							"internalType": "int256",
							"name": "",
							"type": "int256"
						}
					],
					"stateMutability": "view",
					"type": "function"
				},
				{
					"inputs": [
						{
							"internalType": "int256",
							"name": "_a",
							"type": "int256"
						},
						{
							"internalType": "int256",
							"name": "_b",
							"type": "int256"
						}
					],
					"name": "divideInts",
					"outputs": [
						{
							"internalType": "int256",
							"name": "",
							"type": "int256"
						}
					],
					"stateMutability": "pure",
					"type": "function"
				},
				{
					"inputs": [],
					"name": "getInts",
					"outputs": [
						{
							"internalType": "int256",
							"name": "",
							"type": "int256"
						},
						{
							"internalType": "int256",
							"name": "",
							"type": "int256"
						}
					],
					"stateMutability": "view",
					"type": "function"
				},
				{
					"inputs": [],
					"name": "multiplyInts",
					"outputs": [
						{
							"internalType": "int256",
							"name": "",
							"type": "int256"
						}
					],
					"stateMutability": "view",
					"type": "function"
				},
				{
					"inputs": [
						{
							"internalType": "int256",
							"name": "_a",
							"type": "int256"
						},
						{
							"internalType": "int256",
							"name": "_b",
							"type": "int256"
						}
					],
					"name": "setInts",
					"outputs": [],
					"stateMutability": "nonpayable",
					"type": "function"
				},
				{
					"inputs": [],
					"name": "subtractInts",
					"outputs": [
						{
							"internalType": "int256",
							"name": "",
							"type": "int256"
						}
					],
					"stateMutability": "view",
					"type": "function"
				}
			],
			"devdoc": {
				"kind": "dev",
				"methods": {},
				"version": 1
			},
			"evm": {
				"assembly": "    /* \"contracts/Practice/Playground.sol\":61:647  contract Calculator {... */\n  mstore(0x40, 0x80)\n  callvalue\n  dup1\n  iszero\n  tag_1\n  jumpi\n  0x00\n  dup1\n  revert\ntag_1:\n  pop\n  dataSize(sub_0)\n  dup1\n  dataOffset(sub_0)\n  0x00\n  codecopy\n  0x00\n  return\nstop\n\nsub_0: assembly {\n        /* \"contracts/Practice/Playground.sol\":61:647  contract Calculator {... */\n      mstore(0x40, 0x80)\n      callvalue\n      dup1\n      iszero\n      tag_1\n      jumpi\n      0x00\n      dup1\n      revert\n    tag_1:\n      pop\n      jumpi(tag_2, lt(calldatasize, 0x04))\n      shr(0xe0, calldataload(0x00))\n      dup1\n      0x0b5de14c\n      eq\n      tag_3\n      jumpi\n      dup1\n      0x1d24b5c6\n      eq\n      tag_4\n      jumpi\n      dup1\n      0x6331d369\n      eq\n      tag_5\n      jumpi\n      dup1\n      0xb0acb05c\n      eq\n      tag_6\n      jumpi\n      dup1\n      0xc6ee701e\n      eq\n      tag_7\n      jumpi\n      dup1\n      0xdc57f369\n      eq\n      tag_8\n      jumpi\n    tag_2:\n      0x00\n      dup1\n      revert\n        /* \"contracts/Practice/Playground.sol\":548:642  function divideInts(int _a, int _b) public pure returns(int) {... */\n    tag_3:\n      tag_9\n      0x04\n      dup1\n      calldatasize\n      sub\n      dup2\n      add\n      swap1\n      tag_10\n      swap2\n      swap1\n      tag_11\n      jump\t// in\n    tag_10:\n      tag_12\n      jump\t// in\n    tag_9:\n      mload(0x40)\n      tag_13\n      swap2\n      swap1\n      tag_14\n      jump\t// in\n    tag_13:\n      mload(0x40)\n      dup1\n      swap2\n      sub\n      swap1\n      return\n        /* \"contracts/Practice/Playground.sol\":460:540  function multiplyInts() public view returns(int) {... */\n    tag_4:\n      tag_15\n      tag_16\n      jump\t// in\n    tag_15:\n      mload(0x40)\n      tag_17\n      swap2\n      swap1\n      tag_14\n      jump\t// in\n    tag_17:\n      mload(0x40)\n      dup1\n      swap2\n      sub\n      swap1\n      return\n        /* \"contracts/Practice/Playground.sol\":289:364  function addInts() public view returns(int) {... */\n    tag_5:\n      tag_18\n      tag_19\n      jump\t// in\n    tag_18:\n      mload(0x40)\n      tag_20\n      swap2\n      swap1\n      tag_14\n      jump\t// in\n    tag_20:\n      mload(0x40)\n      dup1\n      swap2\n      sub\n      swap1\n      return\n        /* \"contracts/Practice/Playground.sol\":116:192  function setInts(int _a, int _b) public {... */\n    tag_6:\n      tag_21\n      0x04\n      dup1\n      calldatasize\n      sub\n      dup2\n      add\n      swap1\n      tag_22\n      swap2\n      swap1\n      tag_11\n      jump\t// in\n    tag_22:\n      tag_23\n      jump\t// in\n    tag_21:\n      stop\n        /* \"contracts/Practice/Playground.sol\":200:281  function getInts() public view returns(int, int) {... */\n    tag_7:\n      tag_24\n      tag_25\n      jump\t// in\n    tag_24:\n      mload(0x40)\n      tag_26\n      swap3\n      swap2\n      swap1\n      tag_27\n      jump\t// in\n    tag_26:\n      mload(0x40)\n      dup1\n      swap2\n      sub\n      swap1\n      return\n        /* \"contracts/Practice/Playground.sol\":372:452  function subtractInts() public view returns(int) {... */\n    tag_8:\n      tag_28\n      tag_29\n      jump\t// in\n    tag_28:\n      mload(0x40)\n      tag_30\n      swap2\n      swap1\n      tag_14\n      jump\t// in\n    tag_30:\n      mload(0x40)\n      dup1\n      swap2\n      sub\n      swap1\n      return\n        /* \"contracts/Practice/Playground.sol\":548:642  function divideInts(int _a, int _b) public pure returns(int) {... */\n    tag_12:\n        /* \"contracts/Practice/Playground.sol\":604:607  int */\n      0x00\n        /* \"contracts/Practice/Playground.sol\":632:634  _b */\n      dup2\n        /* \"contracts/Practice/Playground.sol\":627:629  _a */\n      dup4\n        /* \"contracts/Practice/Playground.sol\":627:634  _a / _b */\n      tag_32\n      swap2\n      swap1\n      tag_33\n      jump\t// in\n    tag_32:\n        /* \"contracts/Practice/Playground.sol\":620:634  return _a / _b */\n      swap1\n      pop\n        /* \"contracts/Practice/Playground.sol\":548:642  function divideInts(int _a, int _b) public pure returns(int) {... */\n      swap3\n      swap2\n      pop\n      pop\n      jump\t// out\n        /* \"contracts/Practice/Playground.sol\":460:540  function multiplyInts() public view returns(int) {... */\n    tag_16:\n        /* \"contracts/Practice/Playground.sol\":504:507  int */\n      0x00\n        /* \"contracts/Practice/Playground.sol\":531:532  b */\n      sload(0x01)\n        /* \"contracts/Practice/Playground.sol\":527:528  a */\n      sload(0x00)\n        /* \"contracts/Practice/Playground.sol\":527:532  a * b */\n      tag_35\n      swap2\n      swap1\n      tag_36\n      jump\t// in\n    tag_35:\n        /* \"contracts/Practice/Playground.sol\":520:532  return a * b */\n      swap1\n      pop\n        /* \"contracts/Practice/Playground.sol\":460:540  function multiplyInts() public view returns(int) {... */\n      swap1\n      jump\t// out\n        /* \"contracts/Practice/Playground.sol\":289:364  function addInts() public view returns(int) {... */\n    tag_19:\n        /* \"contracts/Practice/Playground.sol\":328:331  int */\n      0x00\n        /* \"contracts/Practice/Playground.sol\":355:356  b */\n      sload(0x01)\n        /* \"contracts/Practice/Playground.sol\":351:352  a */\n      sload(0x00)\n        /* \"contracts/Practice/Playground.sol\":351:356  a + b */\n      tag_38\n      swap2\n      swap1\n      tag_39\n      jump\t// in\n    tag_38:\n        /* \"contracts/Practice/Playground.sol\":344:356  return a + b */\n      swap1\n      pop\n        /* \"contracts/Practice/Playground.sol\":289:364  function addInts() public view returns(int) {... */\n      swap1\n      jump\t// out\n        /* \"contracts/Practice/Playground.sol\":116:192  function setInts(int _a, int _b) public {... */\n    tag_23:\n        /* \"contracts/Practice/Playground.sol\":177:179  _a */\n      dup2\n        /* \"contracts/Practice/Playground.sol\":181:183  _b */\n      dup2\n        /* \"contracts/Practice/Playground.sol\":168:169  a */\n      0x00\n      dup1\n        /* \"contracts/Practice/Playground.sol\":171:172  b */\n      0x01\n      0x00\n        /* \"contracts/Practice/Playground.sol\":167:184  (a, b) = (_a, _b) */\n      dup5\n      swap2\n      swap1\n      pop\n      sstore\n      dup4\n      swap2\n      swap1\n      pop\n      sstore\n      pop\n      pop\n        /* \"contracts/Practice/Playground.sol\":116:192  function setInts(int _a, int _b) public {... */\n      pop\n      pop\n      jump\t// out\n        /* \"contracts/Practice/Playground.sol\":200:281  function getInts() public view returns(int, int) {... */\n    tag_25:\n        /* \"contracts/Practice/Playground.sol\":239:242  int */\n      0x00\n        /* \"contracts/Practice/Playground.sol\":244:247  int */\n      dup1\n        /* \"contracts/Practice/Playground.sol\":268:269  a */\n      sload(0x00)\n        /* \"contracts/Practice/Playground.sol\":271:272  b */\n      sload(0x01)\n        /* \"contracts/Practice/Playground.sol\":260:273  return (a, b) */\n      swap2\n      pop\n      swap2\n      pop\n        /* \"contracts/Practice/Playground.sol\":200:281  function getInts() public view returns(int, int) {... */\n      swap1\n      swap2\n      jump\t// out\n        /* \"contracts/Practice/Playground.sol\":372:452  function subtractInts() public view returns(int) {... */\n    tag_29:\n        /* \"contracts/Practice/Playground.sol\":416:419  int */\n      0x00\n        /* \"contracts/Practice/Playground.sol\":443:444  b */\n      sload(0x01)\n        /* \"contracts/Practice/Playground.sol\":439:440  a */\n      sload(0x00)\n        /* \"contracts/Practice/Playground.sol\":439:444  a - b */\n      tag_43\n      swap2\n      swap1\n      tag_44\n      jump\t// in\n    tag_43:\n        /* \"contracts/Practice/Playground.sol\":432:444  return a - b */\n      swap1\n      pop\n        /* \"contracts/Practice/Playground.sol\":372:452  function subtractInts() public view returns(int) {... */\n      swap1\n      jump\t// out\n        /* \"#utility.yul\":88:205   */\n    tag_46:\n        /* \"#utility.yul\":197:198   */\n      0x00\n        /* \"#utility.yul\":194:195   */\n      dup1\n        /* \"#utility.yul\":187:199   */\n      revert\n        /* \"#utility.yul\":334:410   */\n    tag_48:\n        /* \"#utility.yul\":370:377   */\n      0x00\n        /* \"#utility.yul\":399:404   */\n      dup2\n        /* \"#utility.yul\":388:404   */\n      swap1\n      pop\n        /* \"#utility.yul\":334:410   */\n      swap2\n      swap1\n      pop\n      jump\t// out\n        /* \"#utility.yul\":416:536   */\n    tag_49:\n        /* \"#utility.yul\":488:511   */\n      tag_60\n        /* \"#utility.yul\":505:510   */\n      dup2\n        /* \"#utility.yul\":488:511   */\n      tag_48\n      jump\t// in\n    tag_60:\n        /* \"#utility.yul\":481:486   */\n      dup2\n        /* \"#utility.yul\":478:512   */\n      eq\n        /* \"#utility.yul\":468:530   */\n      tag_61\n      jumpi\n        /* \"#utility.yul\":526:527   */\n      0x00\n        /* \"#utility.yul\":523:524   */\n      dup1\n        /* \"#utility.yul\":516:528   */\n      revert\n        /* \"#utility.yul\":468:530   */\n    tag_61:\n        /* \"#utility.yul\":416:536   */\n      pop\n      jump\t// out\n        /* \"#utility.yul\":542:679   */\n    tag_50:\n        /* \"#utility.yul\":587:592   */\n      0x00\n        /* \"#utility.yul\":625:631   */\n      dup2\n        /* \"#utility.yul\":612:632   */\n      calldataload\n        /* \"#utility.yul\":603:632   */\n      swap1\n      pop\n        /* \"#utility.yul\":641:673   */\n      tag_63\n        /* \"#utility.yul\":667:672   */\n      dup2\n        /* \"#utility.yul\":641:673   */\n      tag_49\n      jump\t// in\n    tag_63:\n        /* \"#utility.yul\":542:679   */\n      swap3\n      swap2\n      pop\n      pop\n      jump\t// out\n        /* \"#utility.yul\":685:1155   */\n    tag_11:\n        /* \"#utility.yul\":751:757   */\n      0x00\n        /* \"#utility.yul\":759:765   */\n      dup1\n        /* \"#utility.yul\":808:810   */\n      0x40\n        /* \"#utility.yul\":796:805   */\n      dup4\n        /* \"#utility.yul\":787:794   */\n      dup6\n        /* \"#utility.yul\":783:806   */\n      sub\n        /* \"#utility.yul\":779:811   */\n      slt\n        /* \"#utility.yul\":776:895   */\n      iszero\n      tag_65\n      jumpi\n        /* \"#utility.yul\":814:893   */\n      tag_66\n      tag_46\n      jump\t// in\n    tag_66:\n        /* \"#utility.yul\":776:895   */\n    tag_65:\n        /* \"#utility.yul\":934:935   */\n      0x00\n        /* \"#utility.yul\":959:1011   */\n      tag_67\n        /* \"#utility.yul\":1003:1010   */\n      dup6\n        /* \"#utility.yul\":994:1000   */\n      dup3\n        /* \"#utility.yul\":983:992   */\n      dup7\n        /* \"#utility.yul\":979:1001   */\n      add\n        /* \"#utility.yul\":959:1011   */\n      tag_50\n      jump\t// in\n    tag_67:\n        /* \"#utility.yul\":949:1011   */\n      swap3\n      pop\n        /* \"#utility.yul\":905:1021   */\n      pop\n        /* \"#utility.yul\":1060:1062   */\n      0x20\n        /* \"#utility.yul\":1086:1138   */\n      tag_68\n        /* \"#utility.yul\":1130:1137   */\n      dup6\n        /* \"#utility.yul\":1121:1127   */\n      dup3\n        /* \"#utility.yul\":1110:1119   */\n      dup7\n        /* \"#utility.yul\":1106:1128   */\n      add\n        /* \"#utility.yul\":1086:1138   */\n      tag_50\n      jump\t// in\n    tag_68:\n        /* \"#utility.yul\":1076:1138   */\n      swap2\n      pop\n        /* \"#utility.yul\":1031:1148   */\n      pop\n        /* \"#utility.yul\":685:1155   */\n      swap3\n      pop\n      swap3\n      swap1\n      pop\n      jump\t// out\n        /* \"#utility.yul\":1161:1276   */\n    tag_51:\n        /* \"#utility.yul\":1246:1269   */\n      tag_70\n        /* \"#utility.yul\":1263:1268   */\n      dup2\n        /* \"#utility.yul\":1246:1269   */\n      tag_48\n      jump\t// in\n    tag_70:\n        /* \"#utility.yul\":1241:1244   */\n      dup3\n        /* \"#utility.yul\":1234:1270   */\n      mstore\n        /* \"#utility.yul\":1161:1276   */\n      pop\n      pop\n      jump\t// out\n        /* \"#utility.yul\":1282:1500   */\n    tag_14:\n        /* \"#utility.yul\":1373:1377   */\n      0x00\n        /* \"#utility.yul\":1411:1413   */\n      0x20\n        /* \"#utility.yul\":1400:1409   */\n      dup3\n        /* \"#utility.yul\":1396:1414   */\n      add\n        /* \"#utility.yul\":1388:1414   */\n      swap1\n      pop\n        /* \"#utility.yul\":1424:1493   */\n      tag_72\n        /* \"#utility.yul\":1490:1491   */\n      0x00\n        /* \"#utility.yul\":1479:1488   */\n      dup4\n        /* \"#utility.yul\":1475:1492   */\n      add\n        /* \"#utility.yul\":1466:1472   */\n      dup5\n        /* \"#utility.yul\":1424:1493   */\n      tag_51\n      jump\t// in\n    tag_72:\n        /* \"#utility.yul\":1282:1500   */\n      swap3\n      swap2\n      pop\n      pop\n      jump\t// out\n        /* \"#utility.yul\":1506:1830   */\n    tag_27:\n        /* \"#utility.yul\":1623:1627   */\n      0x00\n        /* \"#utility.yul\":1661:1663   */\n      0x40\n        /* \"#utility.yul\":1650:1659   */\n      dup3\n        /* \"#utility.yul\":1646:1664   */\n      add\n        /* \"#utility.yul\":1638:1664   */\n      swap1\n      pop\n        /* \"#utility.yul\":1674:1743   */\n      tag_74\n        /* \"#utility.yul\":1740:1741   */\n      0x00\n        /* \"#utility.yul\":1729:1738   */\n      dup4\n        /* \"#utility.yul\":1725:1742   */\n      add\n        /* \"#utility.yul\":1716:1722   */\n      dup6\n        /* \"#utility.yul\":1674:1743   */\n      tag_51\n      jump\t// in\n    tag_74:\n        /* \"#utility.yul\":1753:1823   */\n      tag_75\n        /* \"#utility.yul\":1819:1821   */\n      0x20\n        /* \"#utility.yul\":1808:1817   */\n      dup4\n        /* \"#utility.yul\":1804:1822   */\n      add\n        /* \"#utility.yul\":1795:1801   */\n      dup5\n        /* \"#utility.yul\":1753:1823   */\n      tag_51\n      jump\t// in\n    tag_75:\n        /* \"#utility.yul\":1506:1830   */\n      swap4\n      swap3\n      pop\n      pop\n      pop\n      jump\t// out\n        /* \"#utility.yul\":1836:2016   */\n    tag_52:\n        /* \"#utility.yul\":1884:1961   */\n      0x4e487b7100000000000000000000000000000000000000000000000000000000\n        /* \"#utility.yul\":1881:1882   */\n      0x00\n        /* \"#utility.yul\":1874:1962   */\n      mstore\n        /* \"#utility.yul\":1981:1985   */\n      0x12\n        /* \"#utility.yul\":1978:1979   */\n      0x04\n        /* \"#utility.yul\":1971:1986   */\n      mstore\n        /* \"#utility.yul\":2005:2009   */\n      0x24\n        /* \"#utility.yul\":2002:2003   */\n      0x00\n        /* \"#utility.yul\":1995:2010   */\n      revert\n        /* \"#utility.yul\":2022:2202   */\n    tag_53:\n        /* \"#utility.yul\":2070:2147   */\n      0x4e487b7100000000000000000000000000000000000000000000000000000000\n        /* \"#utility.yul\":2067:2068   */\n      0x00\n        /* \"#utility.yul\":2060:2148   */\n      mstore\n        /* \"#utility.yul\":2167:2171   */\n      0x11\n        /* \"#utility.yul\":2164:2165   */\n      0x04\n        /* \"#utility.yul\":2157:2172   */\n      mstore\n        /* \"#utility.yul\":2191:2195   */\n      0x24\n        /* \"#utility.yul\":2188:2189   */\n      0x00\n        /* \"#utility.yul\":2181:2196   */\n      revert\n        /* \"#utility.yul\":2208:2593   */\n    tag_33:\n        /* \"#utility.yul\":2247:2248   */\n      0x00\n        /* \"#utility.yul\":2264:2283   */\n      tag_79\n        /* \"#utility.yul\":2281:2282   */\n      dup3\n        /* \"#utility.yul\":2264:2283   */\n      tag_48\n      jump\t// in\n    tag_79:\n        /* \"#utility.yul\":2259:2283   */\n      swap2\n      pop\n        /* \"#utility.yul\":2297:2316   */\n      tag_80\n        /* \"#utility.yul\":2314:2315   */\n      dup4\n        /* \"#utility.yul\":2297:2316   */\n      tag_48\n      jump\t// in\n    tag_80:\n        /* \"#utility.yul\":2292:2316   */\n      swap3\n      pop\n        /* \"#utility.yul\":2335:2336   */\n      dup3\n        /* \"#utility.yul\":2325:2360   */\n      tag_81\n      jumpi\n        /* \"#utility.yul\":2340:2358   */\n      tag_82\n      tag_52\n      jump\t// in\n    tag_82:\n        /* \"#utility.yul\":2325:2360   */\n    tag_81:\n        /* \"#utility.yul\":2526:2527   */\n      0x01\n        /* \"#utility.yul\":2523:2524   */\n      0x00\n        /* \"#utility.yul\":2519:2528   */\n      sub\n        /* \"#utility.yul\":2516:2517   */\n      dup4\n        /* \"#utility.yul\":2513:2529   */\n      eq\n        /* \"#utility.yul\":2432:2498   */\n      0x8000000000000000000000000000000000000000000000000000000000000000\n        /* \"#utility.yul\":2429:2430   */\n      dup4\n        /* \"#utility.yul\":2426:2499   */\n      eq\n        /* \"#utility.yul\":2409:2539   */\n      and\n        /* \"#utility.yul\":2406:2562   */\n      iszero\n      tag_83\n      jumpi\n        /* \"#utility.yul\":2542:2560   */\n      tag_84\n      tag_53\n      jump\t// in\n    tag_84:\n        /* \"#utility.yul\":2406:2562   */\n    tag_83:\n        /* \"#utility.yul\":2585:2586   */\n      dup3\n        /* \"#utility.yul\":2582:2583   */\n      dup3\n        /* \"#utility.yul\":2577:2587   */\n      sdiv\n        /* \"#utility.yul\":2572:2587   */\n      swap1\n      pop\n        /* \"#utility.yul\":2208:2593   */\n      swap3\n      swap2\n      pop\n      pop\n      jump\t// out\n        /* \"#utility.yul\":2599:3590   */\n    tag_36:\n        /* \"#utility.yul\":2638:2645   */\n      0x00\n        /* \"#utility.yul\":2661:2680   */\n      tag_86\n        /* \"#utility.yul\":2678:2679   */\n      dup3\n        /* \"#utility.yul\":2661:2680   */\n      tag_48\n      jump\t// in\n    tag_86:\n        /* \"#utility.yul\":2656:2680   */\n      swap2\n      pop\n        /* \"#utility.yul\":2694:2713   */\n      tag_87\n        /* \"#utility.yul\":2711:2712   */\n      dup4\n        /* \"#utility.yul\":2694:2713   */\n      tag_48\n      jump\t// in\n    tag_87:\n        /* \"#utility.yul\":2689:2713   */\n      swap3\n      pop\n        /* \"#utility.yul\":2895:2896   */\n      dup3\n        /* \"#utility.yul\":2827:2893   */\n      0x7fffffffffffffffffffffffffffffffffffffffffffffffffffffffffffffff\n        /* \"#utility.yul\":2823:2897   */\n      div\n        /* \"#utility.yul\":2820:2821   */\n      dup3\n        /* \"#utility.yul\":2817:2898   */\n      gt\n        /* \"#utility.yul\":2812:2813   */\n      0x00\n        /* \"#utility.yul\":2809:2810   */\n      dup5\n        /* \"#utility.yul\":2805:2814   */\n      sgt\n        /* \"#utility.yul\":2801:2802   */\n      0x00\n        /* \"#utility.yul\":2798:2799   */\n      dup5\n        /* \"#utility.yul\":2794:2803   */\n      sgt\n        /* \"#utility.yul\":2790:2815   */\n      and\n        /* \"#utility.yul\":2786:2899   */\n      and\n        /* \"#utility.yul\":2783:2922   */\n      iszero\n      tag_88\n      jumpi\n        /* \"#utility.yul\":2902:2920   */\n      tag_89\n      tag_53\n      jump\t// in\n    tag_89:\n        /* \"#utility.yul\":2783:2922   */\n    tag_88:\n        /* \"#utility.yul\":3106:3107   */\n      dup2\n        /* \"#utility.yul\":3038:3104   */\n      0x8000000000000000000000000000000000000000000000000000000000000000\n        /* \"#utility.yul\":3033:3108   */\n      sdiv\n        /* \"#utility.yul\":3030:3031   */\n      dup4\n        /* \"#utility.yul\":3026:3109   */\n      slt\n        /* \"#utility.yul\":3021:3022   */\n      0x00\n        /* \"#utility.yul\":3018:3019   */\n      dup5\n        /* \"#utility.yul\":3014:3023   */\n      slt\n        /* \"#utility.yul\":3010:3011   */\n      0x00\n        /* \"#utility.yul\":3007:3008   */\n      dup5\n        /* \"#utility.yul\":3003:3012   */\n      sgt\n        /* \"#utility.yul\":2999:3024   */\n      and\n        /* \"#utility.yul\":2995:3110   */\n      and\n        /* \"#utility.yul\":2992:3133   */\n      iszero\n      tag_90\n      jumpi\n        /* \"#utility.yul\":3113:3131   */\n      tag_91\n      tag_53\n      jump\t// in\n    tag_91:\n        /* \"#utility.yul\":2992:3133   */\n    tag_90:\n        /* \"#utility.yul\":3317:3318   */\n      dup3\n        /* \"#utility.yul\":3249:3315   */\n      0x8000000000000000000000000000000000000000000000000000000000000000\n        /* \"#utility.yul\":3244:3319   */\n      sdiv\n        /* \"#utility.yul\":3241:3242   */\n      dup3\n        /* \"#utility.yul\":3237:3320   */\n      slt\n        /* \"#utility.yul\":3232:3233   */\n      0x00\n        /* \"#utility.yul\":3229:3230   */\n      dup5\n        /* \"#utility.yul\":3225:3234   */\n      sgt\n        /* \"#utility.yul\":3221:3222   */\n      0x00\n        /* \"#utility.yul\":3218:3219   */\n      dup5\n        /* \"#utility.yul\":3214:3223   */\n      slt\n        /* \"#utility.yul\":3210:3235   */\n      and\n        /* \"#utility.yul\":3206:3321   */\n      and\n        /* \"#utility.yul\":3203:3344   */\n      iszero\n      tag_92\n      jumpi\n        /* \"#utility.yul\":3324:3342   */\n      tag_93\n      tag_53\n      jump\t// in\n    tag_93:\n        /* \"#utility.yul\":3203:3344   */\n    tag_92:\n        /* \"#utility.yul\":3527:3528   */\n      dup3\n        /* \"#utility.yul\":3459:3525   */\n      0x7fffffffffffffffffffffffffffffffffffffffffffffffffffffffffffffff\n        /* \"#utility.yul\":3454:3529   */\n      sdiv\n        /* \"#utility.yul\":3451:3452   */\n      dup3\n        /* \"#utility.yul\":3447:3530   */\n      slt\n        /* \"#utility.yul\":3442:3443   */\n      0x00\n        /* \"#utility.yul\":3439:3440   */\n      dup5\n        /* \"#utility.yul\":3435:3444   */\n      slt\n        /* \"#utility.yul\":3431:3432   */\n      0x00\n        /* \"#utility.yul\":3428:3429   */\n      dup5\n        /* \"#utility.yul\":3424:3433   */\n      slt\n        /* \"#utility.yul\":3420:3445   */\n      and\n        /* \"#utility.yul\":3416:3531   */\n      and\n        /* \"#utility.yul\":3413:3554   */\n      iszero\n      tag_94\n      jumpi\n        /* \"#utility.yul\":3534:3552   */\n      tag_95\n      tag_53\n      jump\t// in\n    tag_95:\n        /* \"#utility.yul\":3413:3554   */\n    tag_94:\n        /* \"#utility.yul\":3582:3583   */\n      dup3\n        /* \"#utility.yul\":3579:3580   */\n      dup3\n        /* \"#utility.yul\":3575:3584   */\n      mul\n        /* \"#utility.yul\":3564:3584   */\n      swap1\n      pop\n        /* \"#utility.yul\":2599:3590   */\n      swap3\n      swap2\n      pop\n      pop\n      jump\t// out\n        /* \"#utility.yul\":3596:4121   */\n    tag_39:\n        /* \"#utility.yul\":3635:3638   */\n      0x00\n        /* \"#utility.yul\":3654:3673   */\n      tag_97\n        /* \"#utility.yul\":3671:3672   */\n      dup3\n        /* \"#utility.yul\":3654:3673   */\n      tag_48\n      jump\t// in\n    tag_97:\n        /* \"#utility.yul\":3649:3673   */\n      swap2\n      pop\n        /* \"#utility.yul\":3687:3706   */\n      tag_98\n        /* \"#utility.yul\":3704:3705   */\n      dup4\n        /* \"#utility.yul\":3687:3706   */\n      tag_48\n      jump\t// in\n    tag_98:\n        /* \"#utility.yul\":3682:3706   */\n      swap3\n      pop\n        /* \"#utility.yul\":3875:3876   */\n      dup2\n        /* \"#utility.yul\":3807:3873   */\n      0x7fffffffffffffffffffffffffffffffffffffffffffffffffffffffffffffff\n        /* \"#utility.yul\":3803:3877   */\n      sub\n        /* \"#utility.yul\":3800:3801   */\n      dup4\n        /* \"#utility.yul\":3796:3878   */\n      sgt\n        /* \"#utility.yul\":3791:3792   */\n      0x00\n        /* \"#utility.yul\":3788:3789   */\n      dup4\n        /* \"#utility.yul\":3784:3793   */\n      slt\n        /* \"#utility.yul\":3777:3794   */\n      iszero\n        /* \"#utility.yul\":3773:3879   */\n      and\n        /* \"#utility.yul\":3770:3902   */\n      iszero\n      tag_99\n      jumpi\n        /* \"#utility.yul\":3882:3900   */\n      tag_100\n      tag_53\n      jump\t// in\n    tag_100:\n        /* \"#utility.yul\":3770:3902   */\n    tag_99:\n        /* \"#utility.yul\":4062:4063   */\n      dup2\n        /* \"#utility.yul\":3994:4060   */\n      0x8000000000000000000000000000000000000000000000000000000000000000\n        /* \"#utility.yul\":3990:4064   */\n      sub\n        /* \"#utility.yul\":3987:3988   */\n      dup4\n        /* \"#utility.yul\":3983:4065   */\n      slt\n        /* \"#utility.yul\":3979:3980   */\n      0x00\n        /* \"#utility.yul\":3976:3977   */\n      dup4\n        /* \"#utility.yul\":3972:3981   */\n      slt\n        /* \"#utility.yul\":3968:4066   */\n      and\n        /* \"#utility.yul\":3965:4089   */\n      iszero\n      tag_101\n      jumpi\n        /* \"#utility.yul\":4069:4087   */\n      tag_102\n      tag_53\n      jump\t// in\n    tag_102:\n        /* \"#utility.yul\":3965:4089   */\n    tag_101:\n        /* \"#utility.yul\":4113:4114   */\n      dup3\n        /* \"#utility.yul\":4110:4111   */\n      dup3\n        /* \"#utility.yul\":4106:4115   */\n      add\n        /* \"#utility.yul\":4099:4115   */\n      swap1\n      pop\n        /* \"#utility.yul\":3596:4121   */\n      swap3\n      swap2\n      pop\n      pop\n      jump\t// out\n        /* \"#utility.yul\":4127:4654   */\n    tag_44:\n        /* \"#utility.yul\":4166:4170   */\n      0x00\n        /* \"#utility.yul\":4186:4205   */\n      tag_104\n        /* \"#utility.yul\":4203:4204   */\n      dup3\n        /* \"#utility.yul\":4186:4205   */\n      tag_48\n      jump\t// in\n    tag_104:\n        /* \"#utility.yul\":4181:4205   */\n      swap2\n      pop\n        /* \"#utility.yul\":4219:4238   */\n      tag_105\n        /* \"#utility.yul\":4236:4237   */\n      dup4\n        /* \"#utility.yul\":4219:4238   */\n      tag_48\n      jump\t// in\n    tag_105:\n        /* \"#utility.yul\":4214:4238   */\n      swap3\n      pop\n        /* \"#utility.yul\":4408:4409   */\n      dup3\n        /* \"#utility.yul\":4340:4406   */\n      0x8000000000000000000000000000000000000000000000000000000000000000\n        /* \"#utility.yul\":4336:4410   */\n      add\n        /* \"#utility.yul\":4333:4334   */\n      dup3\n        /* \"#utility.yul\":4329:4411   */\n      slt\n        /* \"#utility.yul\":4324:4325   */\n      0x00\n        /* \"#utility.yul\":4321:4322   */\n      dup5\n        /* \"#utility.yul\":4317:4326   */\n      slt\n        /* \"#utility.yul\":4310:4327   */\n      iszero\n        /* \"#utility.yul\":4306:4412   */\n      and\n        /* \"#utility.yul\":4303:4435   */\n      iszero\n      tag_106\n      jumpi\n        /* \"#utility.yul\":4415:4433   */\n      tag_107\n      tag_53\n      jump\t// in\n    tag_107:\n        /* \"#utility.yul\":4303:4435   */\n    tag_106:\n        /* \"#utility.yul\":4594:4595   */\n      dup3\n        /* \"#utility.yul\":4526:4592   */\n      0x7fffffffffffffffffffffffffffffffffffffffffffffffffffffffffffffff\n        /* \"#utility.yul\":4522:4596   */\n      add\n        /* \"#utility.yul\":4519:4520   */\n      dup3\n        /* \"#utility.yul\":4515:4597   */\n      sgt\n        /* \"#utility.yul\":4511:4512   */\n      0x00\n        /* \"#utility.yul\":4508:4509   */\n      dup5\n        /* \"#utility.yul\":4504:4513   */\n      slt\n        /* \"#utility.yul\":4500:4598   */\n      and\n        /* \"#utility.yul\":4497:4621   */\n      iszero\n      tag_108\n      jumpi\n        /* \"#utility.yul\":4601:4619   */\n      tag_109\n      tag_53\n      jump\t// in\n    tag_109:\n        /* \"#utility.yul\":4497:4621   */\n    tag_108:\n        /* \"#utility.yul\":4646:4647   */\n      dup3\n        /* \"#utility.yul\":4643:4644   */\n      dup3\n        /* \"#utility.yul\":4639:4648   */\n      sub\n        /* \"#utility.yul\":4631:4648   */\n      swap1\n      pop\n        /* \"#utility.yul\":4127:4654   */\n      swap3\n      swap2\n      pop\n      pop\n      jump\t// out\n\n    auxdata: 0xa2646970667358221220f3b676878eb19d7bbaa9ca75a5439d551b01bd219062bed15a6df03d4010769b64736f6c634300080d0033\n}\n",
				"bytecode": {
					"linkReferences": {},
					"object": "608060405234801561001057600080fd5b506105bc806100206000396000f3fe608060405234801561001057600080fd5b50600436106100625760003560e01c80630b5de14c146100675780631d24b5c6146100975780636331d369146100b5578063b0acb05c146100d3578063c6ee701e146100ef578063dc57f3691461010e575b600080fd5b610081600480360381019061007c91906101ec565b61012c565b60405161008e919061023b565b60405180910390f35b61009f610142565b6040516100ac919061023b565b60405180910390f35b6100bd610159565b6040516100ca919061023b565b60405180910390f35b6100ed60048036038101906100e891906101ec565b610170565b005b6100f7610189565b604051610105929190610256565b60405180910390f35b61011661019a565b604051610123919061023b565b60405180910390f35b6000818361013a91906102dd565b905092915050565b60006001546000546101549190610347565b905090565b600060015460005461016b919061045e565b905090565b8181600080600160008491905055839190505550505050565b600080600054600154915091509091565b60006001546000546101ac91906104f2565b905090565b600080fd5b6000819050919050565b6101c9816101b6565b81146101d457600080fd5b50565b6000813590506101e6816101c0565b92915050565b60008060408385031215610203576102026101b1565b5b6000610211858286016101d7565b9250506020610222858286016101d7565b9150509250929050565b610235816101b6565b82525050565b6000602082019050610250600083018461022c565b92915050565b600060408201905061026b600083018561022c565b610278602083018461022c565b9392505050565b7f4e487b7100000000000000000000000000000000000000000000000000000000600052601260045260246000fd5b7f4e487b7100000000000000000000000000000000000000000000000000000000600052601160045260246000fd5b60006102e8826101b6565b91506102f3836101b6565b9250826103035761030261027f565b5b600160000383147f80000000000000000000000000000000000000000000000000000000000000008314161561033c5761033b6102ae565b5b828205905092915050565b6000610352826101b6565b915061035d836101b6565b9250827f7fffffffffffffffffffffffffffffffffffffffffffffffffffffffffffffff048211600084136000841316161561039c5761039b6102ae565b5b817f800000000000000000000000000000000000000000000000000000000000000005831260008412600084131616156103d9576103d86102ae565b5b827f80000000000000000000000000000000000000000000000000000000000000000582126000841360008412161615610416576104156102ae565b5b827f7fffffffffffffffffffffffffffffffffffffffffffffffffffffffffffffff0582126000841260008412161615610453576104526102ae565b5b828202905092915050565b6000610469826101b6565b9150610474836101b6565b9250817f7fffffffffffffffffffffffffffffffffffffffffffffffffffffffffffffff038313600083121516156104af576104ae6102ae565b5b817f80000000000000000000000000000000000000000000000000000000000000000383126000831216156104e7576104e66102ae565b5b828201905092915050565b60006104fd826101b6565b9150610508836101b6565b9250827f800000000000000000000000000000000000000000000000000000000000000001821260008412151615610543576105426102ae565b5b827f7fffffffffffffffffffffffffffffffffffffffffffffffffffffffffffffff01821360008412161561057b5761057a6102ae565b5b82820390509291505056fea2646970667358221220f3b676878eb19d7bbaa9ca75a5439d551b01bd219062bed15a6df03d4010769b64736f6c634300080d0033",
					"opcodes": "PUSH1 0x80 PUSH1 0x40 MSTORE CALLVALUE DUP1 ISZERO PUSH2 0x10 JUMPI PUSH1 0x0 DUP1 REVERT JUMPDEST POP PUSH2 0x5BC DUP1 PUSH2 0x20 PUSH1 0x0 CODECOPY PUSH1 0x0 RETURN INVALID PUSH1 0x80 PUSH1 0x40 MSTORE CALLVALUE DUP1 ISZERO PUSH2 0x10 JUMPI PUSH1 0x0 DUP1 REVERT JUMPDEST POP PUSH1 0x4 CALLDATASIZE LT PUSH2 0x62 JUMPI PUSH1 0x0 CALLDATALOAD PUSH1 0xE0 SHR DUP1 PUSH4 0xB5DE14C EQ PUSH2 0x67 JUMPI DUP1 PUSH4 0x1D24B5C6 EQ PUSH2 0x97 JUMPI DUP1 PUSH4 0x6331D369 EQ PUSH2 0xB5 JUMPI DUP1 PUSH4 0xB0ACB05C EQ PUSH2 0xD3 JUMPI DUP1 PUSH4 0xC6EE701E EQ PUSH2 0xEF JUMPI DUP1 PUSH4 0xDC57F369 EQ PUSH2 0x10E JUMPI JUMPDEST PUSH1 0x0 DUP1 REVERT JUMPDEST PUSH2 0x81 PUSH1 0x4 DUP1 CALLDATASIZE SUB DUP2 ADD SWAP1 PUSH2 0x7C SWAP2 SWAP1 PUSH2 0x1EC JUMP JUMPDEST PUSH2 0x12C JUMP JUMPDEST PUSH1 0x40 MLOAD PUSH2 0x8E SWAP2 SWAP1 PUSH2 0x23B JUMP JUMPDEST PUSH1 0x40 MLOAD DUP1 SWAP2 SUB SWAP1 RETURN JUMPDEST PUSH2 0x9F PUSH2 0x142 JUMP JUMPDEST PUSH1 0x40 MLOAD PUSH2 0xAC SWAP2 SWAP1 PUSH2 0x23B JUMP JUMPDEST PUSH1 0x40 MLOAD DUP1 SWAP2 SUB SWAP1 RETURN JUMPDEST PUSH2 0xBD PUSH2 0x159 JUMP JUMPDEST PUSH1 0x40 MLOAD PUSH2 0xCA SWAP2 SWAP1 PUSH2 0x23B JUMP JUMPDEST PUSH1 0x40 MLOAD DUP1 SWAP2 SUB SWAP1 RETURN JUMPDEST PUSH2 0xED PUSH1 0x4 DUP1 CALLDATASIZE SUB DUP2 ADD SWAP1 PUSH2 0xE8 SWAP2 SWAP1 PUSH2 0x1EC JUMP JUMPDEST PUSH2 0x170 JUMP JUMPDEST STOP JUMPDEST PUSH2 0xF7 PUSH2 0x189 JUMP JUMPDEST PUSH1 0x40 MLOAD PUSH2 0x105 SWAP3 SWAP2 SWAP1 PUSH2 0x256 JUMP JUMPDEST PUSH1 0x40 MLOAD DUP1 SWAP2 SUB SWAP1 RETURN JUMPDEST PUSH2 0x116 PUSH2 0x19A JUMP JUMPDEST PUSH1 0x40 MLOAD PUSH2 0x123 SWAP2 SWAP1 PUSH2 0x23B JUMP JUMPDEST PUSH1 0x40 MLOAD DUP1 SWAP2 SUB SWAP1 RETURN JUMPDEST PUSH1 0x0 DUP2 DUP4 PUSH2 0x13A SWAP2 SWAP1 PUSH2 0x2DD JUMP JUMPDEST SWAP1 POP SWAP3 SWAP2 POP POP JUMP JUMPDEST PUSH1 0x0 PUSH1 0x1 SLOAD PUSH1 0x0 SLOAD PUSH2 0x154 SWAP2 SWAP1 PUSH2 0x347 JUMP JUMPDEST SWAP1 POP SWAP1 JUMP JUMPDEST PUSH1 0x0 PUSH1 0x1 SLOAD PUSH1 0x0 SLOAD PUSH2 0x16B SWAP2 SWAP1 PUSH2 0x45E JUMP JUMPDEST SWAP1 POP SWAP1 JUMP JUMPDEST DUP2 DUP2 PUSH1 0x0 DUP1 PUSH1 0x1 PUSH1 0x0 DUP5 SWAP2 SWAP1 POP SSTORE DUP4 SWAP2 SWAP1 POP SSTORE POP POP POP POP JUMP JUMPDEST PUSH1 0x0 DUP1 PUSH1 0x0 SLOAD PUSH1 0x1 SLOAD SWAP2 POP SWAP2 POP SWAP1 SWAP2 JUMP JUMPDEST PUSH1 0x0 PUSH1 0x1 SLOAD PUSH1 0x0 SLOAD PUSH2 0x1AC SWAP2 SWAP1 PUSH2 0x4F2 JUMP JUMPDEST SWAP1 POP SWAP1 JUMP JUMPDEST PUSH1 0x0 DUP1 REVERT JUMPDEST PUSH1 0x0 DUP2 SWAP1 POP SWAP2 SWAP1 POP JUMP JUMPDEST PUSH2 0x1C9 DUP2 PUSH2 0x1B6 JUMP JUMPDEST DUP2 EQ PUSH2 0x1D4 JUMPI PUSH1 0x0 DUP1 REVERT JUMPDEST POP JUMP JUMPDEST PUSH1 0x0 DUP2 CALLDATALOAD SWAP1 POP PUSH2 0x1E6 DUP2 PUSH2 0x1C0 JUMP JUMPDEST SWAP3 SWAP2 POP POP JUMP JUMPDEST PUSH1 0x0 DUP1 PUSH1 0x40 DUP4 DUP6 SUB SLT ISZERO PUSH2 0x203 JUMPI PUSH2 0x202 PUSH2 0x1B1 JUMP JUMPDEST JUMPDEST PUSH1 0x0 PUSH2 0x211 DUP6 DUP3 DUP7 ADD PUSH2 0x1D7 JUMP JUMPDEST SWAP3 POP POP PUSH1 0x20 PUSH2 0x222 DUP6 DUP3 DUP7 ADD PUSH2 0x1D7 JUMP JUMPDEST SWAP2 POP POP SWAP3 POP SWAP3 SWAP1 POP JUMP JUMPDEST PUSH2 0x235 DUP2 PUSH2 0x1B6 JUMP JUMPDEST DUP3 MSTORE POP POP JUMP JUMPDEST PUSH1 0x0 PUSH1 0x20 DUP3 ADD SWAP1 POP PUSH2 0x250 PUSH1 0x0 DUP4 ADD DUP5 PUSH2 0x22C JUMP JUMPDEST SWAP3 SWAP2 POP POP JUMP JUMPDEST PUSH1 0x0 PUSH1 0x40 DUP3 ADD SWAP1 POP PUSH2 0x26B PUSH1 0x0 DUP4 ADD DUP6 PUSH2 0x22C JUMP JUMPDEST PUSH2 0x278 PUSH1 0x20 DUP4 ADD DUP5 PUSH2 0x22C JUMP JUMPDEST SWAP4 SWAP3 POP POP POP JUMP JUMPDEST PUSH32 0x4E487B7100000000000000000000000000000000000000000000000000000000 PUSH1 0x0 MSTORE PUSH1 0x12 PUSH1 0x4 MSTORE PUSH1 0x24 PUSH1 0x0 REVERT JUMPDEST PUSH32 0x4E487B7100000000000000000000000000000000000000000000000000000000 PUSH1 0x0 MSTORE PUSH1 0x11 PUSH1 0x4 MSTORE PUSH1 0x24 PUSH1 0x0 REVERT JUMPDEST PUSH1 0x0 PUSH2 0x2E8 DUP3 PUSH2 0x1B6 JUMP JUMPDEST SWAP2 POP PUSH2 0x2F3 DUP4 PUSH2 0x1B6 JUMP JUMPDEST SWAP3 POP DUP3 PUSH2 0x303 JUMPI PUSH2 0x302 PUSH2 0x27F JUMP JUMPDEST JUMPDEST PUSH1 0x1 PUSH1 0x0 SUB DUP4 EQ PUSH32 0x8000000000000000000000000000000000000000000000000000000000000000 DUP4 EQ AND ISZERO PUSH2 0x33C JUMPI PUSH2 0x33B PUSH2 0x2AE JUMP JUMPDEST JUMPDEST DUP3 DUP3 SDIV SWAP1 POP SWAP3 SWAP2 POP POP JUMP JUMPDEST PUSH1 0x0 PUSH2 0x352 DUP3 PUSH2 0x1B6 JUMP JUMPDEST SWAP2 POP PUSH2 0x35D DUP4 PUSH2 0x1B6 JUMP JUMPDEST SWAP3 POP DUP3 PUSH32 0x7FFFFFFFFFFFFFFFFFFFFFFFFFFFFFFFFFFFFFFFFFFFFFFFFFFFFFFFFFFFFFFF DIV DUP3 GT PUSH1 0x0 DUP5 SGT PUSH1 0x0 DUP5 SGT AND AND ISZERO PUSH2 0x39C JUMPI PUSH2 0x39B PUSH2 0x2AE JUMP JUMPDEST JUMPDEST DUP2 PUSH32 0x8000000000000000000000000000000000000000000000000000000000000000 SDIV DUP4 SLT PUSH1 0x0 DUP5 SLT PUSH1 0x0 DUP5 SGT AND AND ISZERO PUSH2 0x3D9 JUMPI PUSH2 0x3D8 PUSH2 0x2AE JUMP JUMPDEST JUMPDEST DUP3 PUSH32 0x8000000000000000000000000000000000000000000000000000000000000000 SDIV DUP3 SLT PUSH1 0x0 DUP5 SGT PUSH1 0x0 DUP5 SLT AND AND ISZERO PUSH2 0x416 JUMPI PUSH2 0x415 PUSH2 0x2AE JUMP JUMPDEST JUMPDEST DUP3 PUSH32 0x7FFFFFFFFFFFFFFFFFFFFFFFFFFFFFFFFFFFFFFFFFFFFFFFFFFFFFFFFFFFFFFF SDIV DUP3 SLT PUSH1 0x0 DUP5 SLT PUSH1 0x0 DUP5 SLT AND AND ISZERO PUSH2 0x453 JUMPI PUSH2 0x452 PUSH2 0x2AE JUMP JUMPDEST JUMPDEST DUP3 DUP3 MUL SWAP1 POP SWAP3 SWAP2 POP POP JUMP JUMPDEST PUSH1 0x0 PUSH2 0x469 DUP3 PUSH2 0x1B6 JUMP JUMPDEST SWAP2 POP PUSH2 0x474 DUP4 PUSH2 0x1B6 JUMP JUMPDEST SWAP3 POP DUP2 PUSH32 0x7FFFFFFFFFFFFFFFFFFFFFFFFFFFFFFFFFFFFFFFFFFFFFFFFFFFFFFFFFFFFFFF SUB DUP4 SGT PUSH1 0x0 DUP4 SLT ISZERO AND ISZERO PUSH2 0x4AF JUMPI PUSH2 0x4AE PUSH2 0x2AE JUMP JUMPDEST JUMPDEST DUP2 PUSH32 0x8000000000000000000000000000000000000000000000000000000000000000 SUB DUP4 SLT PUSH1 0x0 DUP4 SLT AND ISZERO PUSH2 0x4E7 JUMPI PUSH2 0x4E6 PUSH2 0x2AE JUMP JUMPDEST JUMPDEST DUP3 DUP3 ADD SWAP1 POP SWAP3 SWAP2 POP POP JUMP JUMPDEST PUSH1 0x0 PUSH2 0x4FD DUP3 PUSH2 0x1B6 JUMP JUMPDEST SWAP2 POP PUSH2 0x508 DUP4 PUSH2 0x1B6 JUMP JUMPDEST SWAP3 POP DUP3 PUSH32 0x8000000000000000000000000000000000000000000000000000000000000000 ADD DUP3 SLT PUSH1 0x0 DUP5 SLT ISZERO AND ISZERO PUSH2 0x543 JUMPI PUSH2 0x542 PUSH2 0x2AE JUMP JUMPDEST JUMPDEST DUP3 PUSH32 0x7FFFFFFFFFFFFFFFFFFFFFFFFFFFFFFFFFFFFFFFFFFFFFFFFFFFFFFFFFFFFFFF ADD DUP3 SGT PUSH1 0x0 DUP5 SLT AND ISZERO PUSH2 0x57B JUMPI PUSH2 0x57A PUSH2 0x2AE JUMP JUMPDEST JUMPDEST DUP3 DUP3 SUB SWAP1 POP SWAP3 SWAP2 POP POP JUMP INVALID LOG2 PUSH5 0x6970667358 0x22 SLT KECCAK256 RETURN 0xB6 PUSH23 0x878EB19D7BBAA9CA75A5439D551B01BD219062BED15A6D CREATE RETURNDATASIZE BLOCKHASH LT PUSH23 0x9B64736F6C634300080D00330000000000000000000000 "
				},
				"gasEstimates": {
					"creation": {
						"codeDepositCost": "293600",
						"executionCost": "331",
						"totalCost": "293931"
					},
					"external": {
						"addInts()": "infinite",
						"divideInts(int256,int256)": "infinite",
						"getInts()": "infinite",
						"multiplyInts()": "infinite",
						"setInts(int256,int256)": "infinite",
						"subtractInts()": "infinite"
					}
				},
				"methodIdentifiers": {
					"addInts()": "6331d369",
					"divideInts(int256,int256)": "0b5de14c",
					"getInts()": "c6ee701e",
					"multiplyInts()": "1d24b5c6",
					"setInts(int256,int256)": "b0acb05c",
					"subtractInts()": "dc57f369"
				}
			},
			"storageLayout": {
				"storage": [
					{
						"astId": 3,
						"contract": "contracts/Practice/Playground.sol:Calculator",
						"label": "a",
						"offset": 0,
						"slot": "0",
						"type": "t_int256"
					},
					{
						"astId": 5,
						"contract": "contracts/Practice/Playground.sol:Calculator",
						"label": "b",
						"offset": 0,
						"slot": "1",
						"type": "t_int256"
					}
				],
				"types": {
					"t_int256": {
						"encoding": "inplace",
						"label": "int256",
						"numberOfBytes": "32"
					}
				}
			},
			"userdoc": {
				"kind": "user",
				"methods": {},
				"version": 1
			}
		}
	}
}